{
  "address": "0x15BE9da55dE46BfB111b22c540B083963E9C863e",
  "abi": [
    {
      "inputs": [
        {
          "internalType": "uint256",
          "name": "depositCap",
          "type": "uint256"
        },
        {
          "internalType": "uint256",
          "name": "depositAmount",
          "type": "uint256"
        }
      ],
      "name": "BV_DepositCap",
      "type": "error"
    },
    {
      "inputs": [],
      "name": "BV_InvalidRebalance",
      "type": "error"
    },
    {
      "inputs": [],
      "name": "BV_NoPositionToRebalance",
      "type": "error"
    },
    {
      "inputs": [
        {
          "internalType": "address",
          "name": "msgSender",
          "type": "address"
        },
        {
          "internalType": "address",
          "name": "authorisedKeeperAddress",
          "type": "address"
        }
      ],
      "name": "BV_OnlyKeeperAllowed",
      "type": "error"
    },
    {
      "inputs": [],
      "name": "CYS_INVALID_FEES",
      "type": "error"
    },
    {
      "inputs": [],
      "name": "ETRS_INVALID_CLOSE",
      "type": "error"
    },
    {
      "anonymous": false,
      "inputs": [
        {
          "indexed": true,
          "internalType": "address",
          "name": "owner",
          "type": "address"
        },
        {
          "indexed": true,
          "internalType": "address",
          "name": "spender",
          "type": "address"
        },
        {
          "indexed": false,
          "internalType": "uint256",
          "name": "value",
          "type": "uint256"
        }
      ],
      "name": "Approval",
      "type": "event"
    },
    {
      "anonymous": false,
      "inputs": [
        {
          "indexed": true,
          "internalType": "address",
          "name": "caller",
          "type": "address"
        },
        {
          "indexed": true,
          "internalType": "address",
          "name": "owner",
          "type": "address"
        },
        {
          "indexed": false,
          "internalType": "uint256",
          "name": "assets",
          "type": "uint256"
        },
        {
          "indexed": false,
          "internalType": "uint256",
          "name": "shares",
          "type": "uint256"
        }
      ],
      "name": "Deposit",
      "type": "event"
    },
    {
      "anonymous": false,
      "inputs": [
        {
          "indexed": true,
          "internalType": "address",
          "name": "previousOwner",
          "type": "address"
        },
        {
          "indexed": true,
          "internalType": "address",
          "name": "newOwner",
          "type": "address"
        }
      ],
      "name": "OwnershipTransferred",
      "type": "event"
    },
    {
      "anonymous": false,
      "inputs": [
        {
          "indexed": true,
          "internalType": "address",
          "name": "from",
          "type": "address"
        },
        {
          "indexed": true,
          "internalType": "address",
          "name": "to",
          "type": "address"
        },
        {
          "indexed": false,
          "internalType": "uint256",
          "name": "value",
          "type": "uint256"
        }
      ],
      "name": "Transfer",
      "type": "event"
    },
    {
      "anonymous": false,
      "inputs": [
        {
          "indexed": true,
          "internalType": "address",
          "name": "caller",
          "type": "address"
        },
        {
          "indexed": true,
          "internalType": "address",
          "name": "receiver",
          "type": "address"
        },
        {
          "indexed": true,
          "internalType": "address",
          "name": "owner",
          "type": "address"
        },
        {
          "indexed": false,
          "internalType": "uint256",
          "name": "assets",
          "type": "uint256"
        },
        {
          "indexed": false,
          "internalType": "uint256",
          "name": "shares",
          "type": "uint256"
        }
      ],
      "name": "Withdraw",
      "type": "event"
    },
    {
      "inputs": [],
      "name": "FEE",
      "outputs": [
        {
          "internalType": "uint256",
          "name": "",
          "type": "uint256"
        }
      ],
      "stateMutability": "view",
      "type": "function"
    },
    {
      "inputs": [],
      "name": "MAX_BPS",
      "outputs": [
        {
          "internalType": "uint256",
          "name": "",
          "type": "uint256"
        }
      ],
      "stateMutability": "view",
      "type": "function"
    },
    {
      "inputs": [
        {
          "internalType": "address",
          "name": "owner",
          "type": "address"
        },
        {
          "internalType": "address",
          "name": "spender",
          "type": "address"
        }
      ],
      "name": "allowance",
      "outputs": [
        {
          "internalType": "uint256",
          "name": "",
          "type": "uint256"
        }
      ],
      "stateMutability": "view",
      "type": "function"
    },
    {
      "inputs": [
        {
          "internalType": "address",
          "name": "spender",
          "type": "address"
        },
        {
          "internalType": "uint256",
          "name": "amount",
          "type": "uint256"
        }
      ],
      "name": "approve",
      "outputs": [
        {
          "internalType": "bool",
          "name": "",
          "type": "bool"
        }
      ],
      "stateMutability": "nonpayable",
      "type": "function"
    },
    {
      "inputs": [],
      "name": "asset",
      "outputs": [
        {
          "internalType": "contract IERC20Metadata",
          "name": "",
          "type": "address"
        }
      ],
      "stateMutability": "view",
      "type": "function"
    },
    {
      "inputs": [
        {
          "internalType": "address",
          "name": "account",
          "type": "address"
        }
      ],
      "name": "balanceOf",
      "outputs": [
        {
          "internalType": "uint256",
          "name": "",
          "type": "uint256"
        }
      ],
      "stateMutability": "view",
      "type": "function"
    },
    {
      "inputs": [],
      "name": "baseLiquidity",
      "outputs": [
        {
          "internalType": "uint128",
          "name": "",
          "type": "uint128"
        }
      ],
      "stateMutability": "view",
      "type": "function"
    },
    {
      "inputs": [],
      "name": "baseTickLower",
      "outputs": [
        {
          "internalType": "int24",
          "name": "",
          "type": "int24"
        }
      ],
      "stateMutability": "view",
      "type": "function"
    },
    {
      "inputs": [],
      "name": "baseTickUpper",
      "outputs": [
        {
          "internalType": "int24",
          "name": "",
          "type": "int24"
        }
      ],
      "stateMutability": "view",
      "type": "function"
    },
    {
      "inputs": [
        {
          "internalType": "uint256",
          "name": "bps",
          "type": "uint256"
        }
      ],
      "name": "changeFee",
      "outputs": [],
      "stateMutability": "nonpayable",
      "type": "function"
    },
    {
      "inputs": [],
      "name": "closeTokenPosition",
      "outputs": [],
      "stateMutability": "nonpayable",
      "type": "function"
    },
    {
      "inputs": [
        {
          "internalType": "uint256",
          "name": "shares",
          "type": "uint256"
        }
      ],
      "name": "convertToAssets",
      "outputs": [
        {
          "internalType": "uint256",
          "name": "",
          "type": "uint256"
        }
      ],
      "stateMutability": "view",
      "type": "function"
    },
    {
      "inputs": [
        {
          "internalType": "uint256",
          "name": "assets",
          "type": "uint256"
        }
      ],
      "name": "convertToShares",
      "outputs": [
        {
          "internalType": "uint256",
          "name": "",
          "type": "uint256"
        }
      ],
      "stateMutability": "view",
      "type": "function"
    },
    {
      "inputs": [],
      "name": "decimals",
      "outputs": [
        {
          "internalType": "uint8",
          "name": "",
          "type": "uint8"
        }
      ],
      "stateMutability": "view",
      "type": "function"
    },
    {
      "inputs": [
        {
          "internalType": "address",
          "name": "spender",
          "type": "address"
        },
        {
          "internalType": "uint256",
          "name": "subtractedValue",
          "type": "uint256"
        }
      ],
      "name": "decreaseAllowance",
      "outputs": [
        {
          "internalType": "bool",
          "name": "",
          "type": "bool"
        }
      ],
      "stateMutability": "nonpayable",
      "type": "function"
    },
    {
      "inputs": [
        {
          "internalType": "uint256",
          "name": "amount",
          "type": "uint256"
        },
        {
          "internalType": "address",
          "name": "to",
          "type": "address"
        }
      ],
      "name": "deposit",
      "outputs": [
        {
          "internalType": "uint256",
          "name": "shares",
          "type": "uint256"
        }
      ],
      "stateMutability": "nonpayable",
      "type": "function"
    },
    {
      "inputs": [],
      "name": "depositCap",
      "outputs": [
        {
          "internalType": "uint256",
          "name": "",
          "type": "uint256"
        }
      ],
      "stateMutability": "view",
      "type": "function"
    },
    {
      "inputs": [
        {
          "internalType": "bytes32",
          "name": "slot",
          "type": "bytes32"
        }
      ],
      "name": "extsload",
      "outputs": [
        {
          "internalType": "bytes32",
          "name": "val",
          "type": "bytes32"
        }
      ],
      "stateMutability": "view",
      "type": "function"
    },
    {
      "inputs": [
        {
          "internalType": "bytes32[]",
          "name": "slots",
          "type": "bytes32[]"
        }
      ],
      "name": "extsload",
      "outputs": [
        {
          "internalType": "bytes32[]",
          "name": "",
          "type": "bytes32[]"
        }
      ],
      "stateMutability": "view",
      "type": "function"
    },
    {
      "inputs": [
        {
          "internalType": "uint256",
          "name": "amount",
          "type": "uint256"
        }
      ],
      "name": "getMarketValue",
      "outputs": [
        {
          "internalType": "uint256",
          "name": "marketValue",
          "type": "uint256"
        }
      ],
      "stateMutability": "view",
      "type": "function"
    },
    {
      "inputs": [],
      "name": "getPriceX128",
      "outputs": [
        {
          "internalType": "uint256",
          "name": "priceX128",
          "type": "uint256"
        }
      ],
      "stateMutability": "view",
      "type": "function"
    },
    {
      "inputs": [],
      "name": "getVaultMarketValue",
      "outputs": [
        {
          "internalType": "int256",
          "name": "vaultMarketValue",
          "type": "int256"
        }
      ],
      "stateMutability": "view",
      "type": "function"
    },
    {
      "inputs": [],
      "name": "grantAllowances",
      "outputs": [],
      "stateMutability": "nonpayable",
      "type": "function"
    },
    {
      "inputs": [
        {
          "internalType": "address",
          "name": "spender",
          "type": "address"
        },
        {
          "internalType": "uint256",
          "name": "addedValue",
          "type": "uint256"
        }
      ],
      "name": "increaseAllowance",
      "outputs": [
        {
          "internalType": "bool",
          "name": "",
          "type": "bool"
        }
      ],
      "stateMutability": "nonpayable",
      "type": "function"
    },
    {
      "inputs": [
        {
          "components": [
            {
              "components": [
                {
                  "components": [
                    {
                      "components": [
                        {
                          "internalType": "contract IERC20Metadata",
                          "name": "asset",
                          "type": "address"
                        },
                        {
                          "internalType": "string",
                          "name": "name",
                          "type": "string"
                        },
                        {
                          "internalType": "string",
                          "name": "symbol",
                          "type": "string"
                        }
                      ],
                      "internalType": "struct RageERC4626.RageERC4626InitParams",
                      "name": "rageErc4626InitParams",
                      "type": "tuple"
                    },
                    {
                      "internalType": "uint32",
                      "name": "ethPoolId",
                      "type": "uint32"
                    },
                    {
                      "internalType": "address",
                      "name": "rageClearingHouse",
                      "type": "address"
                    },
                    {
                      "internalType": "address",
                      "name": "rageCollateralToken",
                      "type": "address"
                    },
                    {
                      "internalType": "address",
                      "name": "rageSettlementToken",
                      "type": "address"
                    }
                  ],
                  "internalType": "struct BaseVault.BaseVaultInitParams",
                  "name": "baseVaultInitParams",
                  "type": "tuple"
                },
                {
                  "internalType": "uint16",
                  "name": "closePositionSlippageSqrtToleranceBps",
                  "type": "uint16"
                },
                {
                  "internalType": "uint16",
                  "name": "resetPositionThresholdBps",
                  "type": "uint16"
                },
                {
                  "internalType": "uint64",
                  "name": "minNotionalPositionToCloseThreshold",
                  "type": "uint64"
                }
              ],
              "internalType": "struct EightyTwentyRangeStrategyVault.EightyTwentyRangeStrategyVaultInitParams",
              "name": "eightyTwentyRangeStrategyVaultInitParams",
              "type": "tuple"
            },
            {
              "internalType": "contract IERC20",
              "name": "usdt",
              "type": "address"
            },
            {
              "internalType": "contract IERC20",
              "name": "usdc",
              "type": "address"
            },
            {
              "internalType": "contract IERC20",
              "name": "weth",
              "type": "address"
            },
            {
              "internalType": "contract IERC20",
              "name": "crvToken",
              "type": "address"
            },
            {
              "internalType": "contract ICurveGauge",
              "name": "gauge",
              "type": "address"
            },
            {
              "internalType": "contract ISwapRouter",
              "name": "uniV3Router",
              "type": "address"
            },
            {
              "internalType": "contract ILPPriceGetter",
              "name": "lpPriceHolder",
              "type": "address"
            },
            {
              "internalType": "contract ICurveStableSwap",
              "name": "tricryptoPool",
              "type": "address"
            }
          ],
          "internalType": "struct CurveYieldStrategy.CurveYieldStrategyInitParams",
          "name": "curveYieldStrategyInitParams",
          "type": "tuple"
        }
      ],
      "name": "initialize",
      "outputs": [],
      "stateMutability": "nonpayable",
      "type": "function"
    },
    {
      "inputs": [],
      "name": "isReset",
      "outputs": [
        {
          "internalType": "bool",
          "name": "",
          "type": "bool"
        }
      ],
      "stateMutability": "view",
      "type": "function"
    },
    {
      "inputs": [
        {
          "internalType": "int256",
          "name": "vaultMarketValue",
          "type": "int256"
        }
      ],
      "name": "isValidRebalance",
      "outputs": [
        {
          "internalType": "bool",
          "name": "isValid",
          "type": "bool"
        }
      ],
      "stateMutability": "view",
      "type": "function"
    },
    {
      "inputs": [],
      "name": "keeper",
      "outputs": [
        {
          "internalType": "address",
          "name": "",
          "type": "address"
        }
      ],
      "stateMutability": "view",
      "type": "function"
    },
    {
      "inputs": [],
      "name": "lastRebalanceTS",
      "outputs": [
        {
          "internalType": "uint64",
          "name": "",
          "type": "uint64"
        }
      ],
      "stateMutability": "view",
      "type": "function"
    },
    {
      "inputs": [
        {
          "internalType": "address",
          "name": "",
          "type": "address"
        }
      ],
      "name": "maxDeposit",
      "outputs": [
        {
          "internalType": "uint256",
          "name": "",
          "type": "uint256"
        }
      ],
      "stateMutability": "view",
      "type": "function"
    },
    {
      "inputs": [
        {
          "internalType": "address",
          "name": "",
          "type": "address"
        }
      ],
      "name": "maxMint",
      "outputs": [
        {
          "internalType": "uint256",
          "name": "",
          "type": "uint256"
        }
      ],
      "stateMutability": "view",
      "type": "function"
    },
    {
      "inputs": [
        {
          "internalType": "address",
          "name": "owner",
          "type": "address"
        }
      ],
      "name": "maxRedeem",
      "outputs": [
        {
          "internalType": "uint256",
          "name": "",
          "type": "uint256"
        }
      ],
      "stateMutability": "view",
      "type": "function"
    },
    {
      "inputs": [
        {
          "internalType": "address",
          "name": "owner",
          "type": "address"
        }
      ],
      "name": "maxWithdraw",
      "outputs": [
        {
          "internalType": "uint256",
          "name": "",
          "type": "uint256"
        }
      ],
      "stateMutability": "view",
      "type": "function"
    },
    {
      "inputs": [
        {
          "internalType": "uint256",
          "name": "shares",
          "type": "uint256"
        },
        {
          "internalType": "address",
          "name": "to",
          "type": "address"
        }
      ],
      "name": "mint",
      "outputs": [
        {
          "internalType": "uint256",
          "name": "amount",
          "type": "uint256"
        }
      ],
      "stateMutability": "nonpayable",
      "type": "function"
    },
    {
      "inputs": [],
      "name": "name",
      "outputs": [
        {
          "internalType": "string",
          "name": "",
          "type": "string"
        }
      ],
      "stateMutability": "view",
      "type": "function"
    },
    {
      "inputs": [],
      "name": "owner",
      "outputs": [
        {
          "internalType": "address",
          "name": "",
          "type": "address"
        }
      ],
      "stateMutability": "view",
      "type": "function"
    },
    {
      "inputs": [
        {
          "internalType": "uint256",
          "name": "assets",
          "type": "uint256"
        }
      ],
      "name": "previewDeposit",
      "outputs": [
        {
          "internalType": "uint256",
          "name": "",
          "type": "uint256"
        }
      ],
      "stateMutability": "view",
      "type": "function"
    },
    {
      "inputs": [
        {
          "internalType": "uint256",
          "name": "shares",
          "type": "uint256"
        }
      ],
      "name": "previewMint",
      "outputs": [
        {
          "internalType": "uint256",
          "name": "",
          "type": "uint256"
        }
      ],
      "stateMutability": "view",
      "type": "function"
    },
    {
      "inputs": [
        {
          "internalType": "uint256",
          "name": "shares",
          "type": "uint256"
        }
      ],
      "name": "previewRedeem",
      "outputs": [
        {
          "internalType": "uint256",
          "name": "",
          "type": "uint256"
        }
      ],
      "stateMutability": "view",
      "type": "function"
    },
    {
      "inputs": [
        {
          "internalType": "uint256",
          "name": "assets",
          "type": "uint256"
        }
      ],
      "name": "previewWithdraw",
      "outputs": [
        {
          "internalType": "uint256",
          "name": "",
          "type": "uint256"
        }
      ],
      "stateMutability": "view",
      "type": "function"
    },
    {
      "inputs": [],
      "name": "rageAccountNo",
      "outputs": [
        {
          "internalType": "uint256",
          "name": "",
          "type": "uint256"
        }
      ],
      "stateMutability": "view",
      "type": "function"
    },
    {
      "inputs": [],
      "name": "rebalance",
      "outputs": [],
      "stateMutability": "nonpayable",
      "type": "function"
    },
    {
      "inputs": [],
      "name": "rebalancePriceThresholdBps",
      "outputs": [
        {
          "internalType": "uint16",
          "name": "",
          "type": "uint16"
        }
      ],
      "stateMutability": "view",
      "type": "function"
    },
    {
      "inputs": [],
      "name": "rebalanceTimeThreshold",
      "outputs": [
        {
          "internalType": "uint32",
          "name": "",
          "type": "uint32"
        }
      ],
      "stateMutability": "view",
      "type": "function"
    },
    {
      "inputs": [
        {
          "internalType": "uint256",
          "name": "shares",
          "type": "uint256"
        },
        {
          "internalType": "address",
          "name": "to",
          "type": "address"
        },
        {
          "internalType": "address",
          "name": "from",
          "type": "address"
        }
      ],
      "name": "redeem",
      "outputs": [
        {
          "internalType": "uint256",
          "name": "amount",
          "type": "uint256"
        }
      ],
      "stateMutability": "nonpayable",
      "type": "function"
    },
    {
      "inputs": [],
      "name": "renounceOwnership",
      "outputs": [],
      "stateMutability": "nonpayable",
      "type": "function"
    },
    {
      "inputs": [
        {
          "internalType": "contract AggregatorV3Interface",
          "name": "_crvOracle",
          "type": "address"
        }
      ],
      "name": "setCrvOracle",
      "outputs": [],
      "stateMutability": "nonpayable",
      "type": "function"
    },
    {
      "inputs": [
        {
          "internalType": "uint256",
          "name": "_slippageTolerance",
          "type": "uint256"
        }
      ],
      "name": "setCrvSwapSlippageTolerance",
      "outputs": [],
      "stateMutability": "nonpayable",
      "type": "function"
    },
    {
      "inputs": [
        {
          "internalType": "uint16",
          "name": "_closePositionSlippageSqrtToleranceBps",
          "type": "uint16"
        },
        {
          "internalType": "uint16",
          "name": "_resetPositionThresholdBps",
          "type": "uint16"
        },
        {
          "internalType": "uint64",
          "name": "_minNotionalPositionToCloseThreshold",
          "type": "uint64"
        }
      ],
      "name": "setEightTwentyParams",
      "outputs": [],
      "stateMutability": "nonpayable",
      "type": "function"
    },
    {
      "inputs": [
        {
          "internalType": "address",
          "name": "newKeeperAddress",
          "type": "address"
        }
      ],
      "name": "setKeeper",
      "outputs": [],
      "stateMutability": "nonpayable",
      "type": "function"
    },
    {
      "inputs": [
        {
          "internalType": "uint256",
          "name": "_notionalCrvHarvestThreshold",
          "type": "uint256"
        }
      ],
      "name": "setNotionalCrvHarvestThreshold",
      "outputs": [],
      "stateMutability": "nonpayable",
      "type": "function"
    },
    {
      "inputs": [
        {
          "internalType": "uint32",
          "name": "_rebalanceTimeThreshold",
          "type": "uint32"
        },
        {
          "internalType": "uint16",
          "name": "_rebalancePriceThresholdBps",
          "type": "uint16"
        }
      ],
      "name": "setRebalanceThreshold",
      "outputs": [],
      "stateMutability": "nonpayable",
      "type": "function"
    },
    {
      "inputs": [],
      "name": "symbol",
      "outputs": [
        {
          "internalType": "string",
          "name": "",
          "type": "string"
        }
      ],
      "stateMutability": "view",
      "type": "function"
    },
    {
      "inputs": [],
      "name": "totalAssets",
      "outputs": [
        {
          "internalType": "uint256",
          "name": "",
          "type": "uint256"
        }
      ],
      "stateMutability": "view",
      "type": "function"
    },
    {
      "inputs": [],
      "name": "totalSupply",
      "outputs": [
        {
          "internalType": "uint256",
          "name": "",
          "type": "uint256"
        }
      ],
      "stateMutability": "view",
      "type": "function"
    },
    {
      "inputs": [
        {
          "internalType": "address",
          "name": "to",
          "type": "address"
        },
        {
          "internalType": "uint256",
          "name": "amount",
          "type": "uint256"
        }
      ],
      "name": "transfer",
      "outputs": [
        {
          "internalType": "bool",
          "name": "",
          "type": "bool"
        }
      ],
      "stateMutability": "nonpayable",
      "type": "function"
    },
    {
      "inputs": [
        {
          "internalType": "address",
          "name": "from",
          "type": "address"
        },
        {
          "internalType": "address",
          "name": "to",
          "type": "address"
        },
        {
          "internalType": "uint256",
          "name": "amount",
          "type": "uint256"
        }
      ],
      "name": "transferFrom",
      "outputs": [
        {
          "internalType": "bool",
          "name": "",
          "type": "bool"
        }
      ],
      "stateMutability": "nonpayable",
      "type": "function"
    },
    {
      "inputs": [
        {
          "internalType": "address",
          "name": "newOwner",
          "type": "address"
        }
      ],
      "name": "transferOwnership",
      "outputs": [],
      "stateMutability": "nonpayable",
      "type": "function"
    },
    {
      "inputs": [
        {
          "internalType": "uint256",
          "name": "newDepositCap",
          "type": "uint256"
        }
      ],
      "name": "updateDepositCap",
      "outputs": [],
      "stateMutability": "nonpayable",
      "type": "function"
    },
    {
      "inputs": [
        {
          "internalType": "uint256",
          "name": "amount",
          "type": "uint256"
        },
        {
          "internalType": "address",
          "name": "to",
          "type": "address"
        },
        {
          "internalType": "address",
          "name": "from",
          "type": "address"
        }
      ],
      "name": "withdraw",
      "outputs": [
        {
          "internalType": "uint256",
          "name": "shares",
          "type": "uint256"
        }
      ],
      "stateMutability": "nonpayable",
      "type": "function"
    },
    {
      "inputs": [],
      "name": "withdrawFees",
      "outputs": [],
      "stateMutability": "nonpayable",
      "type": "function"
    },
    {
      "inputs": [],
      "name": "R",
      "type": "error"
    },
    {
      "inputs": [],
      "name": "T",
      "type": "error"
    },
    {
      "anonymous": false,
      "inputs": [
        {
          "indexed": true,
          "internalType": "address",
          "name": "oracle",
          "type": "address"
        }
      ],
      "name": "CrvOracleUpdated",
      "type": "event"
    },
    {
      "anonymous": false,
      "inputs": [
        {
          "indexed": false,
          "internalType": "uint256",
          "name": "tolerance",
          "type": "uint256"
        }
      ],
      "name": "CrvSwapSlippageToleranceUpdated",
      "type": "event"
    },
    {
      "anonymous": false,
      "inputs": [
        {
          "indexed": false,
          "internalType": "uint256",
          "name": "depositCap",
          "type": "uint256"
        }
      ],
      "name": "DepositCapUpdated",
      "type": "event"
    },
    {
      "anonymous": false,
      "inputs": [
        {
          "indexed": false,
          "internalType": "uint16",
          "name": "closePositionSlippageSqrtToleranceBps",
          "type": "uint16"
        },
        {
          "indexed": false,
          "internalType": "uint16",
          "name": "resetPositionThresholdBps",
          "type": "uint16"
        },
        {
          "indexed": false,
          "internalType": "uint64",
          "name": "minNotionalPositionToCloseThreshold",
          "type": "uint64"
        }
      ],
      "name": "EightyTwentyParamsUpdated",
      "type": "event"
    },
    {
      "anonymous": false,
      "inputs": [
        {
          "indexed": false,
          "internalType": "uint256",
          "name": "fee",
          "type": "uint256"
        }
      ],
      "name": "FeesUpdated",
      "type": "event"
    },
    {
      "anonymous": false,
      "inputs": [
        {
          "indexed": false,
          "internalType": "uint256",
          "name": "total",
          "type": "uint256"
        }
      ],
      "name": "FeesWithdrawn",
      "type": "event"
    },
    {
      "anonymous": false,
      "inputs": [
        {
          "indexed": false,
          "internalType": "uint256",
          "name": "crvAmount",
          "type": "uint256"
        }
      ],
      "name": "Harvested",
      "type": "event"
    },
    {
      "anonymous": false,
      "inputs": [
        {
          "indexed": false,
          "internalType": "address",
          "name": "keeper",
          "type": "address"
        }
      ],
      "name": "KeeperUpdated",
      "type": "event"
    },
    {
      "anonymous": false,
      "inputs": [
        {
          "indexed": false,
          "internalType": "uint256",
          "name": "threshold",
          "type": "uint256"
        }
      ],
      "name": "NotionalCrvHarvestThresholdUpdated",
      "type": "event"
    },
    {
      "anonymous": false,
      "inputs": [],
      "name": "Rebalance",
      "type": "event"
    },
    {
      "anonymous": false,
      "inputs": [
        {
          "indexed": false,
          "internalType": "uint32",
          "name": "rebalanceTimeThreshold",
          "type": "uint32"
        },
        {
          "indexed": false,
          "internalType": "uint16",
          "name": "rebalancePriceThresholdBps",
          "type": "uint16"
        }
      ],
      "name": "RebalanceThresholdUpdated",
      "type": "event"
    },
    {
      "anonymous": false,
      "inputs": [
        {
          "indexed": false,
          "internalType": "uint256",
          "name": "amount",
          "type": "uint256"
        },
        {
          "indexed": true,
          "internalType": "address",
          "name": "depositor",
          "type": "address"
        }
      ],
      "name": "Staked",
      "type": "event"
    },
    {
      "anonymous": false,
      "inputs": [
        {
          "indexed": false,
          "internalType": "uint256",
          "name": "lpPrice",
          "type": "uint256"
        }
      ],
      "name": "StateInfo",
      "type": "event"
    },
    {
      "anonymous": false,
      "inputs": [],
      "name": "TokenPositionClosed",
      "type": "event"
    },
    {
      "inputs": [],
      "name": "CYS_NEGATIVE_CRV_PRICE",
      "type": "error"
    }
  ],
  "transactionHash": "0xd96f883f69076374ad7e0f1aec752ea0dbebda75e3735745e6a1913725b68b77",
  "args": [],
  "numDeployments": 1,
  "solcInputHash": "96bdc019ba067fe001974a92d19bbc93",
  "bytecode": "0x60806040526103e860ac5534801561001657600080fd5b50615ea480620000276000396000f3fe608060405234801561001057600080fd5b50600436106103af5760003560e01c80637999e84e116101f4578063ba0876521161011a578063dbd5edc7116100ad578063ef8b30f71161007c578063ef8b30f714610821578063f2fde38b14610834578063fd967f4714610847578063ff9281531461085057600080fd5b8063dbd5edc7146107e9578063dd62ed3e146107f2578063e23c090814610805578063e66488531461081857600080fd5b8063c6e6f592116100e9578063c6e6f59214610790578063ce96cb77146107a3578063d905777e146107b6578063dbd035ff146107c957600080fd5b8063ba0876521461076c578063bf9571f11461077f578063c57981b514610787578063c63d75b61461052957600080fd5b806395d89b4111610192578063b3d7f6b911610161578063b3d7f6b91461071f578063b460af9414610732578063b6cdc2d514610745578063b81aecd91461075957600080fd5b806395d89b41146106de578063a457c2d7146106e6578063a9059cbb146106f9578063aced16611461070c57600080fd5b80638d315d7b116101ce5780638d315d7b1461069f5780638da5cb5b146106a75780638fcda03e146106b857806394bf804d146106cb57600080fd5b80637999e84e1461067c5780637d7c2a1c146106845780638121305e1461068c57600080fd5b80633f6be822116102d9578063554070bc116102775780636e553f65116102465780636e553f651461062557806370a0823114610638578063715018a614610661578063748747e61461066957600080fd5b8063554070bc146105c357806357b082fc146105d6578063620bc225146105ea5780636a1db1bf1461061257600080fd5b8063476343ee116102b3578063476343ee146105515780634afe813e146105595780634cdad506146105855780635053145f1461059857600080fd5b80633f6be822146104fe578063402d267d146105295780634441a2ce1461053e57600080fd5b8063171e5e8811610351578063313ce56711610320578063313ce567146104a957806338d52e0f146104b857806339509351146104e35780633d672a45146104f657600080fd5b8063171e5e881461046957806318160ddd1461047c5780631e2eaeaf1461048457806323b872dd1461049657600080fd5b8063095ea7b31161038d578063095ea7b3146103f757806309a68a921461041a5780630a28a47714610441578063142dbe691461045457600080fd5b806301e1d114146103b457806306fdde03146103cf57806307a2d13a146103e4575b600080fd5b6103bc610863565b6040519081526020015b60405180910390f35b6103d76108e8565b6040516103c69190614de8565b6103bc6103f2366004614dfb565b61097a565b61040a610405366004614e34565b6109af565b60405190151581526020016103c6565b609f5461042e90600160b81b900460020b81565b60405160029190910b81526020016103c6565b6103bc61044f366004614dfb565b6109c9565b61046761046236600461515b565b6109f1565b005b610467610477366004614dfb565b610ab9565b6035546103bc565b6103bc610492366004614dfb565b5490565b61040a6104a4366004615255565b610b1f565b604051601281526020016103c6565b6065546104cb906001600160a01b031681565b6040516001600160a01b0390911681526020016103c6565b61040a6104f1366004614e34565b610b43565b6103bc610b82565b609e54610511906001600160401b031681565b6040516001600160401b0390911681526020016103c6565b6103bc610537366004615296565b5060001990565b61046761054c366004614dfb565b610c08565b610467610c67565b609e5461057090600160501b900463ffffffff1681565b60405163ffffffff90911681526020016103c6565b6103bc610593366004614dfb565b610da5565b60a0546105ab906001600160801b031681565b6040516001600160801b0390911681526020016103c6565b6103bc6105d1366004614dfb565b610db0565b60a05461040a90600160801b900460ff1681565b609e546105ff90600160401b900461ffff1681565b60405161ffff90911681526020016103c6565b610467610620366004614dfb565b610e3b565b6103bc6106333660046152b3565b610ebd565b6103bc610646366004615296565b6001600160a01b031660009081526033602052604090205490565b610467610ed1565b610467610677366004615296565b610f07565b610467610f7f565b61046761108b565b61046761069a366004614dfb565b61119d565b6103bc6111fc565b6066546001600160a01b03166104cb565b6104676106c63660046152e3565b61128d565b6103bc6106d93660046152b3565b611339565b6103d761134d565b61040a6106f4366004614e34565b61135c565b61040a610707366004614e34565b6113ee565b609f546104cb906001600160a01b031681565b6103bc61072d366004614dfb565b6113fc565b6103bc610740366004615318565b611423565b609f5461042e90600160a01b900460020b81565b61040a610767366004614dfb565b61144e565b6103bc61077a366004615318565b611467565b610467611593565b6103bc60ac5481565b6103bc61079e366004614dfb565b611a20565b6103bc6107b1366004615296565b611a48565b6103bc6107c4366004615296565b611a6a565b6107dc6107d736600461537d565b611a88565b6040516103c69190615407565b6103bc609d5481565b6103bc61080036600461544b565b611ab6565b610467610813366004615296565b611ae1565b6103bc609b5481565b6103bc61082f366004614dfb565b611b55565b610467610842366004615296565b611b60565b6103bc61271081565b61046761085e366004615479565b611bf8565b600061086d611cc5565b6065546040516370a0823160e01b81523060048201526001600160a01b03909116906370a0823190602401602060405180830381865afa1580156108b5573d6000803e3d6000fd5b505050506040513d601f19601f820116820180604052508101906108d991906154bc565b6108e391906154eb565b905090565b6060603680546108f790615503565b80601f016020809104026020016040519081016040528092919081815260200182805461092390615503565b80156109705780601f1061094557610100808354040283529160200191610970565b820191906000526020600020905b81548152906001019060200180831161095357829003601f168201915b5050505050905090565b60008061098660355490565b905080156109a6576109a1610999610863565b849083611d0e565b6109a8565b825b9392505050565b6000336109bd818585611d2d565b60019150505b92915050565b6000806109d560355490565b905080156109a6576109a1816109e9610863565b859190611e51565b600054610100900460ff16610a0c5760005460ff1615610a10565b303b155b610a785760405162461bcd60e51b815260206004820152602e60248201527f496e697469616c697a61626c653a20636f6e747261637420697320616c72656160448201526d191e481a5b9a5d1a585b1a5e995960921b60648201526084015b60405180910390fd5b600054610100900460ff16158015610a9a576000805461ffff19166101011790555b610aa382611e7f565b8015610ab5576000805461ff00191690555b5050565b6066546001600160a01b03163314610ae35760405162461bcd60e51b8152600401610a6f9061553d565b609d8190556040518181527f333b26cca69716ad4680ddb07663f5bfb4f06045671f336af9a83690a3ae00f9906020015b60405180910390a150565b600033610b2d858285611f62565b610b38858585611fdc565b506001949350505050565b3360008181526034602090815260408083206001600160a01b03871684529091528120549091906109bd9082908690610b7d9087906154eb565b611d2d565b60a7546040516001620e8cb360e11b031981526001600160a01b03909116600482015260009073C88bBEa708B5748DAB3b6729f3Bfb16b1b6188f19063ffe2e69a90602401602060405180830381865af4158015610be4573d6000803e3d6000fd5b505050506040513d601f19601f820116820180604052508101906108e391906154bc565b6066546001600160a01b03163314610c325760405162461bcd60e51b8152600401610a6f9061553d565b60ab8190556040518181527fbaf704dc582d2430f506b48fda242593270667e77656cf3ba2f77a630594466390602001610b14565b6066546001600160a01b03163314610c915760405162461bcd60e51b8152600401610a6f9061553d565b60a4546040516370a0823160e01b81523060048201526000916001600160a01b0316906370a0823190602401602060405180830381865afa158015610cda573d6000803e3d6000fd5b505050506040513d601f19601f82011682018060405250810190610cfe91906154bc565b60a45460405163a9059cbb60e01b81529192506001600160a01b03169063a9059cbb90610d319033908590600401615572565b6020604051808303816000875af1158015610d50573d6000803e3d6000fd5b505050506040513d601f19601f82011682018060405250810190610d74919061558b565b506040518181527f9800e6f57aeb4360eaa72295a820a4293e1e66fbfcabcd8874ae141304a76deb90602001610b14565b60006109c38261097a565b60a754604051637a5fda7960e01b8152600481018390526001600160a01b03909116602482015260009073C88bBEa708B5748DAB3b6729f3Bfb16b1b6188f190637a5fda79906044015b602060405180830381865af4158015610e17573d6000803e3d6000fd5b505050506040513d601f19601f820116820180604052508101906109c391906154bc565b6066546001600160a01b03163314610e655760405162461bcd60e51b8152600401610a6f9061553d565b612710811115610e8857604051630709dc8560e31b815260040160405180910390fd5b60ac8190556040518181527f9fe6eeb0f0541c644a56c67efeb872dbadd803a60b909d7dde1b35a3fe230b0e90602001610b14565b6000610ec76121aa565b6109a883836121b2565b6066546001600160a01b03163314610efb5760405162461bcd60e51b8152600401610a6f9061553d565b610f05600061226f565b565b6066546001600160a01b03163314610f315760405162461bcd60e51b8152600401610a6f9061553d565b609f80546001600160a01b0319166001600160a01b0383169081179091556040519081527f0425bcd291db1d48816f2a98edc7ecaf6dd5c64b973d9e4b3b6b750763dc6c2e90602001610b14565b609f546001600160a01b03163314610fbf57609f546040516369958c7360e01b81523360048201526001600160a01b039091166024820152604401610a6f565b609954609b54604051630ed586bf60e21b815260048101919091526060916001600160a01b031690633b561afc90602401600060405180830381865afa15801561100d573d6000803e3d6000fd5b505050506040513d6000823e601f3d908101601f1916820160405261103591908101906157b6565b805190945061105f935084925060009150611052576110526158bc565b60200260200101516122c1565b6040517f9a94a63b02012d6753ed863b962aceb756429b4265fc327391dd05fb24d4502b90600090a150565b609f546001600160a01b031633146110cb57609f546040516369958c7360e01b81523360048201526001600160a01b039091166024820152604401610a6f565b60006110d56111fc565b90506110e08161144e565b6110fd57604051636fa1adc360e01b815260040160405180910390fd5b606080611108612380565b8051919350915060000361112f576040516301d84bb360e11b815260040160405180910390fd5b61115381600081518110611145576111456158bc565b60200260200101518461249f565b609e805467ffffffffffffffff1916426001600160401b03161790556040517ff57243a1fddfdc9fa2c7de26cc3503b1b94cfd4368d2b82d0970bfbb2fbce3a490600090a1505050565b6066546001600160a01b031633146111c75760405162461bcd60e51b8152600401610a6f9061553d565b60aa8190556040518181527f77bc5ea45f61ae2f050ec3af00a3ebcbeff6082d4c04905ebb7e01ff797dacf390602001610b14565b609954609b54604051631c7a838360e31b815260048101919091526000916001600160a01b03169063e3d41c1890602401602060405180830381865afa15801561124a573d6000803e3d6000fd5b505050506040513d601f19601f8201168201806040525081019061126e91906154bc565b905061128361127e6105d1610863565b6125d8565b6108e390826158d2565b6066546001600160a01b031633146112b75760405162461bcd60e51b8152600401610a6f9061553d565b609e805465ffffffffffff60401b1916600160501b63ffffffff851690810269ffff0000000000000000191691909117600160401b61ffff8516908102919091179092556040805191825260208201929092527f9af00b5d3a5006b7a36e8fe4a8f67a155aa897efbee30711b474e18eed221555910160405180910390a15050565b60006113436121aa565b6109a88383612601565b6060603780546108f790615503565b3360008181526034602090815260408083206001600160a01b0387168452909152812054909190838110156113e15760405162461bcd60e51b815260206004820152602560248201527f45524332303a2064656372656173656420616c6c6f77616e63652062656c6f77604482015264207a65726f60d81b6064820152608401610a6f565b610b388286868403611d2d565b6000336109bd818585611fdc565b60008061140860355490565b905080156109a6576109a161141b610863565b849083611e51565b600061142d6121aa565b600061143885612681565b9050611445818585612694565b95945050505050565b600061145861274f565b806109c357506109c38261277c565b60006114716121aa565b336001600160a01b038316146114a957600061148d8333611ab6565b905060001981146114a7576114a78333610b7d8885615913565b505b6114b284610da5565b9050806000036114f25760405162461bcd60e51b815260206004820152600b60248201526a5a45524f5f41535345545360a81b6044820152606401610a6f565b60006114fd82612681565b905081811461151557809150611512816109c9565b94505b61151f828661288a565b61152983866128a4565b60408051838152602081018790526001600160a01b03808616929087169133917ffbde797d201c681b91056529119e0b02407c7bb96a4a2c75c01fc9667232c8db910160405180910390a460655461158b906001600160a01b031685846129f2565b509392505050565b6066546001600160a01b031633146115bd5760405162461bcd60e51b8152600401610a6f9061553d565b6115c5612a48565b60655460a55460405163095ea7b360e01b81526001600160a01b039283169263095ea7b3926115fd9291169060001990600401615572565b6020604051808303816000875af115801561161c573d6000803e3d6000fd5b505050506040513d601f19601f82011682018060405250810190611640919061558b565b5060655460a85460405163095ea7b360e01b81526001600160a01b039283169263095ea7b3926116799291169060001990600401615572565b6020604051808303816000875af1158015611698573d6000803e3d6000fd5b505050506040513d601f19601f820116820180604052508101906116bc919061558b565b5060a35460a65460405163095ea7b360e01b81526001600160a01b039283169263095ea7b3926116f492911690600090600401615572565b6020604051808303816000875af1158015611713573d6000803e3d6000fd5b505050506040513d601f19601f82011682018060405250810190611737919061558b565b5060a15460a65460405163095ea7b360e01b81526001600160a01b039283169263095ea7b39261176f92911690600090600401615572565b6020604051808303816000875af115801561178e573d6000803e3d6000fd5b505050506040513d601f19601f820116820180604052508101906117b2919061558b565b5060a15460a85460405163095ea7b360e01b81526001600160a01b039283169263095ea7b3926117ea92911690600090600401615572565b6020604051808303816000875af1158015611809573d6000803e3d6000fd5b505050506040513d601f19601f8201168201806040525081019061182d919061558b565b5060a35460a65460405163095ea7b360e01b81526001600160a01b039283169263095ea7b3926118669291169060001990600401615572565b6020604051808303816000875af1158015611885573d6000803e3d6000fd5b505050506040513d601f19601f820116820180604052508101906118a9919061558b565b5060a15460a65460405163095ea7b360e01b81526001600160a01b039283169263095ea7b3926118e29291169060001990600401615572565b6020604051808303816000875af1158015611901573d6000803e3d6000fd5b505050506040513d601f19601f82011682018060405250810190611925919061558b565b5060a15460a85460405163095ea7b360e01b81526001600160a01b039283169263095ea7b39261195e9291169060001990600401615572565b6020604051808303816000875af115801561197d573d6000803e3d6000fd5b505050506040513d601f19601f820116820180604052508101906119a1919061558b565b5060a45460a65460405163095ea7b360e01b81526001600160a01b039283169263095ea7b3926119da9291169060001990600401615572565b6020604051808303816000875af11580156119f9573d6000803e3d6000fd5b505050506040513d601f19601f82011682018060405250810190611a1d919061558b565b50565b600080611a2c60355490565b905080156109a6576109a181611a40610863565b859190611d0e565b6001600160a01b0381166000908152603360205260408120546109c39061097a565b6001600160a01b0381166000908152603360205260408120546109c3565b606060208251028201602001602083015b81811015611aae578051548152602001611a99565b509192915050565b6001600160a01b03918216600090815260346020908152604080832093909416825291909152205490565b6066546001600160a01b03163314611b0b5760405162461bcd60e51b8152600401610a6f9061553d565b60a980546001600160a01b0319166001600160a01b0383169081179091556040517f37e6fa50467241d1adf59e9c0011228de6a03425a9efdea6d2d3662c77eaba5390600090a250565b60006109c382611a20565b6066546001600160a01b03163314611b8a5760405162461bcd60e51b8152600401610a6f9061553d565b6001600160a01b038116611bef5760405162461bcd60e51b815260206004820152602660248201527f4f776e61626c653a206e6577206f776e657220697320746865207a65726f206160448201526564647265737360d01b6064820152608401610a6f565b611a1d8161226f565b6066546001600160a01b03163314611c225760405162461bcd60e51b8152600401610a6f9061553d565b60a0805463ffffffff60881b1916600160881b61ffff86811691820261ffff60981b191692909217600160981b9286169283021767ffffffffffffffff60a81b1916600160a81b6001600160401b03861690810291909117909355604080519182526020820192909252908101919091527f4a9bdb3bab9a7cff0ea02e1428a3901c565a962f3b99b7d8d2b02787ca4f93f99060600160405180910390a1505050565b60a5546040516370a0823160e01b81523060048201526000916001600160a01b0316906370a0823190602401602060405180830381865afa158015610be4573d6000803e3d6000fd5b828202811515841585830485141716611d2657600080fd5b0492915050565b6001600160a01b038316611d8f5760405162461bcd60e51b8152602060048201526024808201527f45524332303a20617070726f76652066726f6d20746865207a65726f206164646044820152637265737360e01b6064820152608401610a6f565b6001600160a01b038216611df05760405162461bcd60e51b815260206004820152602260248201527f45524332303a20617070726f766520746f20746865207a65726f206164647265604482015261737360f01b6064820152608401610a6f565b6001600160a01b0383811660008181526034602090815260408083209487168084529482529182902085905590518481527f8c5be1e5ebec7d5bd14f71427d1e84f3dd0314c0f7b2291e5b200ac8c7c3b925910160405180910390a3505050565b828202811515841585830485141716611e6957600080fd5b6001826001830304018115150290509392505050565b600054610100900460ff16611ea65760405162461bcd60e51b8152600401610a6f9061592a565b8051611eb190612afc565b602081015160a180546001600160a01b03199081166001600160a01b0393841617909155604083015160a380548316918416919091179055606083015160a28054831691841691909117905560a083015160a580548316918416919091179055608083015160a48054831691841691909117905560c083015160a68054831691841691909117905561010083015160a88054831691841691909117905560e09092015160a780549093169116179055565b6000611f6e8484611ab6565b90506000198114611fd65781811015611fc95760405162461bcd60e51b815260206004820152601d60248201527f45524332303a20696e73756666696369656e7420616c6c6f77616e63650000006044820152606401610a6f565b611fd68484848403611d2d565b50505050565b6001600160a01b0383166120405760405162461bcd60e51b815260206004820152602560248201527f45524332303a207472616e736665722066726f6d20746865207a65726f206164604482015264647265737360d81b6064820152608401610a6f565b6001600160a01b0382166120a25760405162461bcd60e51b815260206004820152602360248201527f45524332303a207472616e7366657220746f20746865207a65726f206164647260448201526265737360e81b6064820152608401610a6f565b6001600160a01b0383166000908152603360205260409020548181101561211a5760405162461bcd60e51b815260206004820152602660248201527f45524332303a207472616e7366657220616d6f756e7420657863656564732062604482015265616c616e636560d01b6064820152608401610a6f565b6001600160a01b038085166000908152603360205260408082208585039055918516815290812080548492906121519084906154eb565b92505081905550826001600160a01b0316846001600160a01b03167fddf252ad1be2c89b69c2b068fc378daa952ba7f163c4a11628f55a4df523b3ef8460405161219d91815260200190565b60405180910390a3611fd6565b610ab5612380565b60006121bd83611b55565b9050806000036121fd5760405162461bcd60e51b815260206004820152600b60248201526a5a45524f5f53484152455360a81b6044820152606401610a6f565b606554612215906001600160a01b0316333086612bda565b61221f8282612c12565b60408051848152602081018390526001600160a01b0384169133917fdcbc1c05240f31ff3ad067ef1ee35ce4997762752e3a095284754544f4c709d7910160405180910390a36109c38382612cf1565b606680546001600160a01b038381166001600160a01b0319831681179093556040519116919082907f8be0079c531659141344cd1fd0a4f28419497f9722a3daafe3b4186f6b6457e090600090a35050565b60a054600160801b900460ff166122eb57604051632f0c3e3160e11b815260040160405180910390fd5b600081604001516122fb90615975565b90506000612307612d49565b905060006123158383612e0a565b60a054909150600160a81b90046001600160401b031681111561236d57600061234f848460a060119054906101000a900461ffff16612e38565b5090508084036123675760a0805460ff60801b191690555b50611fd6565b60a0805460ff60801b1916905550505050565b609954609b54604051630ed586bf60e21b815260609283926001600160a01b0390911691633b561afc916123ba9160040190815260200190565b600060405180830381865afa1580156123d7573d6000803e3d6000fd5b505050506040513d6000823e601f3d908101601f191682016040526123ff91908101906157b6565b90945092506000915061241290506111fc565b905061241c612f77565b61242683826131ef565b6065546040516370a0823160e01b815230600482015261249a916001600160a01b0316906370a08231906024015b602060405180830381865afa158015612471573d6000803e3d6000fd5b505050506040513d601f19601f8201168201806040525081019061249591906154bc565b6134f0565b509091565b6124a881613586565b60a08054911515600160801b0260ff60801b1990921691909117905560006124cf8261364f565b905060005b60028160ff1610156125b757818160ff16600281106124f5576124f56158bc565b602002015160400151600f0b156125b757609954609b54609c546001600160a01b039092169163c7505c15919063ffffffff168560ff86166002811061253d5761253d6158bc565b60200201516040518463ffffffff1660e01b8152600401612560939291906159c9565b60408051808303816000875af115801561257e573d6000803e3d6000fd5b505050506040513d601f19601f820116820180604052508101906125a29190615a67565b505080806125af90615a8b565b9150506124d4565b5060a054600160801b900460ff16156125d3576125d3836122c1565b505050565b6000600160ff1b82106125fd5760405162461bcd60e51b8152600401610a6f90615aaa565b5090565b600061260c836113fc565b606554909150612627906001600160a01b0316333084612bda565b6126318284612c12565b60408051828152602081018590526001600160a01b0384169133917fdcbc1c05240f31ff3ad067ef1ee35ce4997762752e3a095284754544f4c709d7910160405180910390a36109c38184612cf1565b60006109c361268e610863565b83613854565b600061269f846109c9565b9050336001600160a01b038316146126d95760006126bd8333611ab6565b905060001981146126d7576126d78333610b7d8585615913565b505b6126e3848261288a565b6126ed82826128a4565b60408051858152602081018390526001600160a01b03808516929086169133917ffbde797d201c681b91056529119e0b02407c7bb96a4a2c75c01fc9667232c8db910160405180910390a46065546109a8906001600160a01b031684866129f2565b609e5460009063ffffffff600160501b82041690612776906001600160401b031642615913565b11905090565b609c5460995460009173C88bBEa708B5748DAB3b6729f3Bfb16b1b6188f19163757d5fd6916001600160a01b0364010000000082048116926127ca9291169063ffffffff9081169061398d16565b609e54609f5460405160e086901b6001600160e01b03191681526001600160a01b03909416600485015263ffffffff9092166024840152600160401b900461ffff166044830152600160a01b8104600290810b6064840152600160b81b909104900b608482015260a401602060405180830381865af4158015612851573d6000803e3d6000fd5b505050506040513d601f19601f82011682018060405250810190612875919061558b565b905080612885576109c382613586565b919050565b61289b612895610863565b83613a1d565b610ab582613b31565b6001600160a01b0382166129045760405162461bcd60e51b815260206004820152602160248201527f45524332303a206275726e2066726f6d20746865207a65726f206164647265736044820152607360f81b6064820152608401610a6f565b6001600160a01b038216600090815260336020526040902054818110156129785760405162461bcd60e51b815260206004820152602260248201527f45524332303a206275726e20616d6f756e7420657863656564732062616c616e604482015261636560f01b6064820152608401610a6f565b6001600160a01b03831660009081526033602052604081208383039055603580548492906129a7908490615913565b90915550506040518281526000906001600160a01b038516907fddf252ad1be2c89b69c2b068fc378daa952ba7f163c4a11628f55a4df523b3ef9060200160405180910390a3505050565b6125d38363a9059cbb60e01b8484604051602401612a11929190615572565b60408051601f198184030181529190526020810180516001600160e01b03166001600160e01b031990931692909217909152613c35565b609a5460995460405163095ea7b360e01b81526001600160a01b039283169263095ea7b392612a809291169060001990600401615572565b6020604051808303816000875af1158015612a9f573d6000803e3d6000fd5b505050506040513d601f19601f82011682018060405250810190612ac3919061558b565b5060985460995460405163095ea7b360e01b81526001600160a01b039283169263095ea7b3926119da9291169060001990600401615572565b600054610100900460ff16612b235760405162461bcd60e51b8152600401610a6f9061592a565b8051612b2e90613d07565b60208181015160a0805460408086015160608088015163ffffffff60881b19909416600160881b61ffff97881690810261ffff60981b191691909117600160981b979093169687029290921767ffffffffffffffff60a81b1916600160a81b6001600160401b0390951694850217909455815190815294850193909352918301919091527f4a9bdb3bab9a7cff0ea02e1428a3901c565a962f3b99b7d8d2b02787ca4f93f99101610b14565b6040516001600160a01b0380851660248301528316604482015260648101829052611fd69085906323b872dd60e01b90608401612a11565b6001600160a01b038216612c685760405162461bcd60e51b815260206004820152601f60248201527f45524332303a206d696e7420746f20746865207a65726f2061646472657373006044820152606401610a6f565b8060356000828254612c7a91906154eb565b90915550506001600160a01b03821660009081526033602052604081208054839290612ca79084906154eb565b90915550506040518181526001600160a01b038316906000907fddf252ad1be2c89b69c2b068fc378daa952ba7f163c4a11628f55a4df523b3ef9060200160405180910390a35050565b609d54612cfc610863565b1115612d2f57609d54612d0d610863565b6040516301b25d0360e41b815260048101929092526024820152604401610a6f565b612d3882613ed2565b610ab5612d43610863565b83613f79565b609c5460995460009173C88bBEa708B5748DAB3b6729f3Bfb16b1b6188f19163e54c8fd8916001600160a01b036401000000008204811692612d979291169063ffffffff9081169061398d16565b6040516001600160e01b031960e085901b1681526001600160a01b03909216600483015263ffffffff166024820152604401602060405180830381865af4158015612de6573d6000803e3d6000fd5b505050506040513d601f19601f820116820180604052508101906108e39190615acc565b60006109a8612e336001600160a01b038416600160601b612e2c8783836141ba565b91906141ba565b6141fc565b600080600080861315612e7a57612e73612e6e612e5786612710615ae9565b6001600160a01b0388169061ffff16612710614207565b6142b9565b9050612e8f565b612e8c612e6e612e5786612710615b0f565b90505b6040805160a0810182528781526001600160a01b0383811660208301908152600083850181815260016060860190815260808601928352609954609b54609c5498516383d778eb60e01b8152600481019190915263ffffffff90981660248901528651604489015293518516606488015290511515608487015251151560a486015251151560c485015291929116906383d778eb9060e40160408051808303816000875af1158015612f45573d6000803e3d6000fd5b505050506040513d601f19601f82011682018060405250810190612f699190615a67565b909890975095505050505050565b60a55460a454604051630cff5bdd60e21b81523060048201526001600160a01b03918216602482015260009291909116906333fd6f7490604401602060405180830381865afa158015612fce573d6000803e3d6000fd5b505050506040513d601f19601f82011682018060405250810190612ff291906154bc565b905060ab54811115611a1d57600061271060ac54836130119190615b32565b61301b9190615b51565b6130259083615913565b60a554604051634274debf60e11b81523060048201529192506001600160a01b0316906384e9bd7e90602401600060405180830381600087803b15801561306b57600080fd5b505af115801561307f573d6000803e3d6000fd5b505050507f8e55ccfc9778ff8eba1646d765cf1982537ce0f9257054a17b48aad745250183826040516130b491815260200190565b60405180910390a160a45460a25460a1546040516bffffffffffffffffffffffff19606094851b8116602083015261017760eb1b603483015292841b83166037820152607d60ea1b604b820152921b16604e82015260009060620160408051808303601f190181529082905260aa5460a95460a65460a854631a6dbd7760e21b865293955073a6fD01D0F8b366beDa3C35a6E8bDE296Da11a199946369b6f5dc9461317b94899490936001600160a01b03918216938a939183169290911690600401615b73565b602060405180830381865af4158015613198573d6000803e3d6000fd5b505050506040513d601f19601f820116820180604052508101906131bc91906154bc565b506065546040516370a0823160e01b81523060048201526125d3916001600160a01b0316906370a0823190602401612454565b609954609b54604051631c7a838360e31b815260048101919091526000916001600160a01b03169063e3d41c1890602401602060405180830381865afa15801561323d573d6000803e3d6000fd5b505050506040513d601f19601f8201168201806040525081019061326191906154bc565b905060008113156132f457609954609b546001600160a01b0390911690639cd1be589061329084600019615bbc565b6040516001600160e01b031960e085901b16815260048101929092526024820152604401600060405180830381600087803b1580156132ce57600080fd5b505af11580156132e2573d6000803e3d6000fd5b505050506132ef816142e2565b613395565b600081121561339557600061331361330e83600019615bbc565b6143e1565b9050801561339357609954609b546001600160a01b0390911690639cd1be589061333c846125d8565b6040516001600160e01b031960e085901b16815260048101929092526024820152604401600060405180830381600087803b15801561337a57600080fd5b505af115801561338e573d6000803e3d6000fd5b505050505b505b8251600090156134e4576000846000815181106133b4576133b46158bc565b602002602001015190506134d2609860009054906101000a90046001600160a01b03166001600160a01b031663313ce5676040518163ffffffff1660e01b8152600401602060405180830381865afa158015613414573d6000803e3d6000fd5b505050506040513d601f19601f820116820180604052508101906134389190615c41565b61344390600a615d48565b609a60009054906101000a90046001600160a01b03166001600160a01b031663313ce5676040518163ffffffff1660e01b8152600401602060405180830381865afa158015613496573d6000803e3d6000fd5b505050506040513d601f19601f820116820180604052508101906134ba9190615c41565b6134c590600a615d48565b612e2c84602001516125d8565b6134dc9085615d57565b9150506134e7565b50815b611fd681614466565b60a55460405163b6b55f2560e01b8152600481018390526001600160a01b039091169063b6b55f2590602401600060405180830381600087803b15801561353657600080fd5b505af115801561354a573d6000803e3d6000fd5b50506040518381523392507f6e47dcdd359b6cd69456f0f97d394bd4540a2e7c4adc1b9da076859df53756c7915060200160405180910390a250565b609954609b54609c54604051633524324160e11b8152600481019290925263ffffffff16602482015260009182916001600160a01b0390911690636a48648290604401602060405180830381865afa1580156135e6573d6000803e3d6000fd5b505050506040513d601f19601f8201168201806040525081019061360a91906154bc565b9050600061361f8261361a612d49565b612e0a565b60a05490915061364790600160981b900461ffff16612710613640876141fc565b9190614207565b109392505050565b613657614c8e565b60a0546000906001600160801b0316156136d557609f5460a0546136ad91600160a01b8104600290810b92600160b81b909204900b9061369f906001600160801b031661475b565b6136a890615d96565b614789565b828260ff16600281106136c2576136c26158bc565b6020020152806136d181615a8b565b9150505b60006136df612d49565b604051630ad6ed5b60e41b81526001600160a01b038216600482015260248101869052620c3500604482015290915060009073C88bBEa708B5748DAB3b6729f3Bfb16b1b6188f19063ad6ed5b090606401606060405180830381865af415801561374d573d6000803e3d6000fd5b505050506040513d601f19601f820116820180604052508101906137719190615dc5565b609f805465ffffffffffff60a01b1916600160b81b62ffffff9485160262ffffff60a01b191617600160a01b94909316939093029190911790915560a0549091506001600160801b031615806137d0575060a054600160801b900460ff165b156137f15760a080546001600160801b0319166001600160801b0383161790555b609f5460a05461382591600160a01b8104600290810b92600160b81b909204900b906136a8906001600160801b031661475b565b848460ff166002811061383a5761383a6158bc565b60200201528261384981615a8b565b935050505050919050565b60008061385f612d49565b609954609b54609c54604051633524324160e11b8152600481019290925263ffffffff1660248201529192506000916001600160a01b0390911690636a48648290604401602060405180830381865afa1580156138c0573d6000803e3d6000fd5b505050506040513d601f19601f820116820180604052508101906138e491906154bc565b905060006138f38286886141ba565b6138fc90615975565b9050600061390a8385612e0a565b60a054909150600160a81b90046001600160401b031681111561397f576000613944838660a060119054906101000a900461ffff16612e38565b50905082810361395657869550613979565b600061396c6139648a6125d8565b839087614801565b61397590615975565b9650505b50613983565b8594505b5050505092915050565b600080836001600160a01b0316631e2eaeaf6139a88561485e565b6040518263ffffffff1660e01b81526004016139c691815260200190565b602060405180830381865afa1580156139e3573d6000803e3d6000fd5b505050506040513d601f19601f82011682018060405250810190613a0791906154bc565b905063ffffffff60b082901c165b949350505050565b6000613a2b83836001614886565b90508060400151613a3b90615d96565b60a08054600090613a569084906001600160801b0316615dff565b82546101009290920a6001600160801b0381810219909316918316021790915560a054166000039050613a8b57600160a08201525b609954609b54609c5460405163c7505c1560e01b81526001600160a01b039093169263c7505c1592613acc92909163ffffffff9091169086906004016159c9565b60408051808303816000875af1158015613aea573d6000803e3d6000fd5b505050506040513d601f19601f82011682018060405250810190613b0e9190615a67565b50506000613b1e61127e84610db0565b9050611fd6613b2c82615975565b614466565b60a754604080516354f0f7d560e01b815290517fc852a00896bd42656c7822f2f6c850502574cfdbb70db38df4ea5eb56f5af8fd926001600160a01b0316916354f0f7d59160048083019260209291908290030181865afa158015613b9a573d6000803e3d6000fd5b505050506040513d601f19601f82011682018060405250810190613bbe91906154bc565b60405190815260200160405180910390a160a554604051632e1a7d4d60e01b8152600481018390526001600160a01b0390911690632e1a7d4d90602401600060405180830381600087803b158015613c1557600080fd5b505af1158015613c29573d6000803e3d6000fd5b50505050611a1d612f77565b6000613c8a826040518060400160405280602081526020017f5361666545524332303a206c6f772d6c6576656c2063616c6c206661696c6564815250856001600160a01b03166148ee9092919063ffffffff16565b8051909150156125d35780806020019051810190613ca8919061558b565b6125d35760405162461bcd60e51b815260206004820152602a60248201527f5361666545524332303a204552433230206f7065726174696f6e20646964206e6044820152691bdd081cdd58d8d9595960b21b6064820152608401610a6f565b600054610100900460ff16613d2e5760405162461bcd60e51b8152600401610a6f9061592a565b613d366148fd565b8051613d419061492c565b602081810151609c805463ffffffff191663ffffffff909216919091179055604080830151609980546001600160a01b0319166001600160a01b0390921691821790558151639dca362f60e01b815291519092639dca362f926004808201939182900301816000875af1158015613dbc573d6000803e3d6000fd5b505050506040513d601f19601f82011682018060405250810190613de091906154bc565b609b556060810151609a80546001600160a01b03199081166001600160a01b0393841617909155608083015160988054909216908316179055609c54609954613e3492169063ffffffff9081169061494316565b609c80546001600160a01b039290921664010000000002640100000000600160c01b0319909216919091179055609e80546c01518001f4000000000000000065ffffffffffff60401b19909116179081905560408051600160501b830463ffffffff168152600160401b90920461ffff1660208301527f9af00b5d3a5006b7a36e8fe4a8f67a155aa897efbee30711b474e18eed2215559101610b14565b60a754604080516354f0f7d560e01b815290517fc852a00896bd42656c7822f2f6c850502574cfdbb70db38df4ea5eb56f5af8fd926001600160a01b0316916354f0f7d59160048083019260209291908290030181865afa158015613f3b573d6000803e3d6000fd5b505050506040513d601f19601f82011682018060405250810190613f5f91906154bc565b60405190815260200160405180910390a1611a1d816134f0565b6000613f8761127e83610db0565b9050613f9281614466565b613f9a614cbb565b60a0546001600160801b0316158015613fb257508284145b156140d0576000613fc1612d49565b604051630ad6ed5b60e41b81526001600160a01b038216600482015260248101859052620c3500604482015290915073C88bBEa708B5748DAB3b6729f3Bfb16b1b6188f19063ad6ed5b090606401606060405180830381865af415801561402c573d6000803e3d6000fd5b505050506040513d601f19601f820116820180604052508101906140509190615dc5565b60a080546001600160801b0319166001600160801b03929092169182179055609f805465ffffffffffff60a01b1916600160b81b62ffffff948516810262ffffff60a01b191691909117600160a01b95909416850293909317908190556140c8938104600290810b93909104900b906136a89061475b565b91505061412f565b6140e56140dd8486615913565b846000614886565b604081015160a08054929350909160009061410a9084906001600160801b0316615e1f565b92506101000a8154816001600160801b0302191690836001600160801b031602179055505b609954609b54609c5460405163c7505c1560e01b81526001600160a01b039093169263c7505c159261417092909163ffffffff9091169086906004016159c9565b60408051808303816000875af115801561418e573d6000803e3d6000fd5b505050506040513d601f19601f820116820180604052508101906141b29190615a67565b505050505050565b60006141e86141e3600086126141d057856141dc565b6141dc86600019615bbc565b8585614207565b6149bd565b905060008412156109a857613a1581615975565b60006109c3826149cf565b6000808060001985870985870292508281108382030391505080600003614240576000841161423557600080fd5b5082900490506109a8565b80841161424c57600080fd5b6000848688096000868103871696879004966002600389028118808a02820302808a02820302808a02820302808a02820302808a02820302808a02909103029181900381900460010186841190950394909402919094039290920491909117919091029150509392505050565b806001600160a01b03811681146128855760405162461bcd60e51b8152600401610a6f90615aaa565b60a35460a1546040516bffffffffffffffffffffffff19606093841b81166020830152607d60ea1b60348301529190921b166037820152600090604b0160408051601f198184030181529082905260a65460a854638b8f9f0f60e01b845291935073a6fD01D0F8b366beDa3C35a6E8bDE296Da11a19992638b8f9f0f9261437d92879287926001600160a01b03928316921690600401615e41565b60006040518083038186803b15801561439557600080fd5b505af41580156143a9573d6000803e3d6000fd5b50506065546040516370a0823160e01b8152306004820152610ab593506001600160a01b0390911691506370a0823190602401612454565b60a75460a55460a85460a15460a65460a3546040516303d0ed4560e31b8152600481018890526001600160a01b039687166024820152948616604486015292851660648501529084166084840152831660a48301529190911660c482015260009073C88bBEa708B5748DAB3b6729f3Bfb16b1b6188f190631e876a289060e401610dfa565b6000614577609a60009054906101000a90046001600160a01b03166001600160a01b031663313ce5676040518163ffffffff1660e01b8152600401602060405180830381865afa1580156144be573d6000803e3d6000fd5b505050506040513d601f19601f820116820180604052508101906144e29190615c41565b6144ed90600a615d48565b609860009054906101000a90046001600160a01b03166001600160a01b031663313ce5676040518163ffffffff1660e01b8152600401602060405180830381865afa158015614540573d6000803e3d6000fd5b505050506040513d601f19601f820116820180604052508101906145649190615c41565b61456f90600a615d48565b8491906141ba565b90506000614584826141fc565b9050600082131561467d57609a546040516340c10f1960e01b81526001600160a01b03909116906340c10f19906145c19030908590600401615572565b600060405180830381600087803b1580156145db57600080fd5b505af11580156145ef573d6000803e3d6000fd5b5050609954609b54609a546001600160a01b039092169350637d2efe0792509063ffffffff166040516001600160e01b031960e085901b168152600481019290925263ffffffff16602482015260448101849052606401600060405180830381600087803b15801561466057600080fd5b505af1158015614674573d6000803e3d6000fd5b50505050505050565b60008212156125d357609954609b54609a546001600160a01b0390921691637d2efe07919063ffffffff166146b185615975565b6040516001600160e01b031960e086901b168152600481019390935263ffffffff9190911660248301526044820152606401600060405180830381600087803b1580156146fd57600080fd5b505af1158015614711573d6000803e3d6000fd5b5050609a54604051630852cd8d60e31b8152600481018590526001600160a01b0390911692506342966c689150602401600060405180830381600087803b15801561466057600080fd5b60006001607f1b826001600160801b0316106125fd5760405162461bcd60e51b8152600401610a6f90615aaa565b614791614cbb565b6040518061010001604052808560020b81526020018460020b815260200183600f0b815260200160006001600160a01b03168152602001600061ffff168152602001600015158152602001600060028111156147ef576147ef615991565b81526000602090910152949350505050565b6000600181808061481288856149e6565b9450925061482087856149e6565b9450915061482e86856149e6565b945090506148406141e3848484614207565b9450836148535761485085615975565b94505b505050509392505050565b60006109c36003614882606463ffffffff86165b9060009182526020526040902090565b0190565b61488e614cbb565b60a0546000906148b7906148b29086908890612e2c906001600160801b03166125d8565b614a10565b905082156148cb576148c881615d96565b90505b609f5461144590600160a01b8104600290810b91600160b81b9004900b83614789565b6060613a158484600085614a34565b600054610100900460ff166149245760405162461bcd60e51b8152600401610a6f9061592a565b610f05614b65565b611a1d816000015182602001518360400151614b95565b600080836001600160a01b0316631e2eaeaf61495e85614bc3565b6040518263ffffffff1660e01b815260040161497c91815260200190565b602060405180830381865afa158015614999573d6000803e3d6000fd5b505050506040513d601f19601f82011682018060405250810190613a1591906154bc565b6000600160ff1b82106125fd57600080fd5b60008082136125fd576149e182615975565b6109c3565b6000806000841215614a05579115916149fe84615975565b9150614a09565b8391505b5092909150565b80600f81900b81146128855760405162461bcd60e51b8152600401610a6f90615aaa565b606082471015614a955760405162461bcd60e51b815260206004820152602660248201527f416464726573733a20696e73756666696369656e742062616c616e636520666f6044820152651c8818d85b1b60d21b6064820152608401610a6f565b6001600160a01b0385163b614aec5760405162461bcd60e51b815260206004820152601d60248201527f416464726573733a2063616c6c20746f206e6f6e2d636f6e74726163740000006044820152606401610a6f565b600080866001600160a01b03168587604051614b089190615e7b565b60006040518083038185875af1925050503d8060008114614b45576040519150601f19603f3d011682016040523d82523d6000602084013e614b4a565b606091505b5091509150614b5a828286614bdb565b979650505050505050565b600054610100900460ff16614b8c5760405162461bcd60e51b8152600401610a6f9061592a565b610f053361226f565b614b9f8282614c14565b5050606580546001600160a01b0319166001600160a01b0392909216919091179055565b60006109c36001614882606463ffffffff8616614872565b60608315614bea5750816109a8565b825115614bfa5782518084602001fd5b8160405162461bcd60e51b8152600401610a6f9190614de8565b600054610100900460ff16614c3b5760405162461bcd60e51b8152600401610a6f9061592a565b610ab58282600054610100900460ff16614c675760405162461bcd60e51b8152600401610a6f9061592a565b8151614c7a906036906020850190614d00565b5080516125d3906037906020840190614d00565b60405180604001604052806002905b614ca5614cbb565b815260200190600190039081614c9d5790505090565b6040805161010081018252600080825260208201819052918101829052606081018290526080810182905260a081018290529060c08201908152600060209091015290565b828054614d0c90615503565b90600052602060002090601f016020900481019282614d2e5760008555614d74565b82601f10614d4757805160ff1916838001178555614d74565b82800160010185558215614d74579182015b82811115614d74578251825591602001919060010190614d59565b506125fd9291505b808211156125fd5760008155600101614d7c565b60005b83811015614dab578181015183820152602001614d93565b83811115611fd65750506000910152565b60008151808452614dd4816020860160208601614d90565b601f01601f19169290920160200192915050565b6020815260006109a86020830184614dbc565b600060208284031215614e0d57600080fd5b5035919050565b6001600160a01b0381168114611a1d57600080fd5b803561288581614e14565b60008060408385031215614e4757600080fd5b8235614e5281614e14565b946020939093013593505050565b634e487b7160e01b600052604160045260246000fd5b604051608081016001600160401b0381118282101715614e9857614e98614e60565b60405290565b60405160a081016001600160401b0381118282101715614e9857614e98614e60565b604051606081016001600160401b0381118282101715614e9857614e98614e60565b60405161012081016001600160401b0381118282101715614e9857614e98614e60565b604080519081016001600160401b0381118282101715614e9857614e98614e60565b604051601f8201601f191681016001600160401b0381118282101715614f4f57614f4f614e60565b604052919050565b600082601f830112614f6857600080fd5b81356001600160401b03811115614f8157614f81614e60565b614f94601f8201601f1916602001614f27565b818152846020838601011115614fa957600080fd5b816020850160208301376000918101602001919091529392505050565b63ffffffff81168114611a1d57600080fd5b803561288581614fc6565b803561ffff8116811461288557600080fd5b80356001600160401b038116811461288557600080fd5b60006080828403121561501e57600080fd5b615026614e76565b905081356001600160401b038082111561503f57600080fd5b9083019060a0828603121561505357600080fd5b61505b614e9e565b82358281111561506a57600080fd5b83016060818803121561507c57600080fd5b615084614ec0565b813561508f81614e14565b8152602082810135858111156150a457600080fd5b6150b08a828601614f57565b8284015250604080840135868111156150c857600080fd5b6150d48b828701614f57565b82850152508285526150e7828801614fd8565b828601526150f6818801614e29565b8186015261510660608801614e29565b606086015261511760808801614e29565b608086015284885261512a828a01614fe3565b82890152615139818a01614fe3565b818901525050505050505061515060608301614ff5565b606082015292915050565b60006020828403121561516d57600080fd5b81356001600160401b038082111561518457600080fd5b90830190610120828603121561519957600080fd5b6151a1614ee2565b8235828111156151b057600080fd5b6151bc8782860161500c565b8252506151cb60208401614e29565b60208201526151dc60408401614e29565b60408201526151ed60608401614e29565b60608201526151fe60808401614e29565b608082015261520f60a08401614e29565b60a082015261522060c08401614e29565b60c082015261523160e08401614e29565b60e08201526101009150615246828401614e29565b91810191909152949350505050565b60008060006060848603121561526a57600080fd5b833561527581614e14565b9250602084013561528581614e14565b929592945050506040919091013590565b6000602082840312156152a857600080fd5b81356109a881614e14565b600080604083850312156152c657600080fd5b8235915060208301356152d881614e14565b809150509250929050565b600080604083850312156152f657600080fd5b823561530181614fc6565b915061530f60208401614fe3565b90509250929050565b60008060006060848603121561532d57600080fd5b83359250602084013561533f81614e14565b9150604084013561534f81614e14565b809150509250925092565b60006001600160401b0382111561537357615373614e60565b5060051b60200190565b6000602080838503121561539057600080fd5b82356001600160401b038111156153a657600080fd5b8301601f810185136153b757600080fd5b80356153ca6153c58261535a565b614f27565b81815260059190911b820183019083810190878311156153e957600080fd5b928401925b82841015614b5a578335825292840192908401906153ee565b6020808252825182820181905260009190848201906040850190845b8181101561543f57835183529284019291840191600101615423565b50909695505050505050565b6000806040838503121561545e57600080fd5b823561546981614e14565b915060208301356152d881614e14565b60008060006060848603121561548e57600080fd5b61549784614fe3565b92506154a560208501614fe3565b91506154b360408501614ff5565b90509250925092565b6000602082840312156154ce57600080fd5b5051919050565b634e487b7160e01b600052601160045260246000fd5b600082198211156154fe576154fe6154d5565b500190565b600181811c9082168061551757607f821691505b60208210810361553757634e487b7160e01b600052602260045260246000fd5b50919050565b6020808252818101527f4f776e61626c653a2063616c6c6572206973206e6f7420746865206f776e6572604082015260600190565b6001600160a01b03929092168252602082015260400190565b60006020828403121561559d57600080fd5b815180151581146109a857600080fd5b8051600281900b811461288557600080fd5b80516001600160801b038116811461288557600080fd5b80516003811061288557600080fd5b600082601f8301126155f657600080fd5b815160206156066153c58361535a565b82815260059290921b8401810191818101908684111561562557600080fd5b8286015b848110156157ab5780516001600160401b038082111561564857600080fd5b9088019060a0828b03601f1901121561566057600080fd5b615668614e9e565b8683015161567581614fc6565b80825250604083015187820152606083015160408201526080830151606082015260a0830151828111156156a857600080fd5b8084019350508a603f8401126156bd57600080fd5b8683015191506156cf6153c58361535a565b82815261012092830284016040019288820191908d8511156156f057600080fd5b6040860195505b848610156157955780868f03121561570e57600080fd5b615716614ee2565b61571f876155ad565b815261572c8b88016155ad565b8b82015261573c604088016155bf565b6040820152606087015160608201526080870151608082015260a087015160a082015260c087015160c082015260e087015160e082015261578061010088016155d6565b610100820152835294850194918901916156f7565b5060808301525085525050918301918301615629565b509695505050505050565b600080600080608085870312156157cc57600080fd5b84516157d781614e14565b8094505060208086015193506040808701516001600160401b03808211156157fe57600080fd5b818901915089601f83011261581257600080fd5b81516158206153c58261535a565b81815260069190911b8301850190858101908c83111561583f57600080fd5b938601935b828510156158885785858e03121561585c5760008081fd5b615864614f05565b855161586f81614e14565b8152858801518882015282529385019390860190615844565b60608c015190985095505050808411156158a157600080fd5b5050506158b0878288016155e5565b91505092959194509250565b634e487b7160e01b600052603260045260246000fd5b600080821280156001600160ff1b03849003851316156158f4576158f46154d5565b600160ff1b839003841281161561590d5761590d6154d5565b50500190565b600082821015615925576159256154d5565b500390565b6020808252602b908201527f496e697469616c697a61626c653a20636f6e7472616374206973206e6f74206960408201526a6e697469616c697a696e6760a81b606082015260800190565b6000600160ff1b820161598a5761598a6154d5565b5060000390565b634e487b7160e01b600052602160045260246000fd5b600381106159c557634e487b7160e01b600052602160045260246000fd5b9052565b60006101408201905084825263ffffffff84166020830152825160020b6040830152602083015160020b60608301526040830151600f0b60808301526060830151615a1f60a08401826001600160a01b03169052565b50608083015161ffff1660c08381019190915260a0840151151560e0840152830151615a4f6101008401826159a7565b5060e083015180151561012084015250949350505050565b60008060408385031215615a7a57600080fd5b505080516020909101519092909150565b600060ff821660ff8103615aa157615aa16154d5565b60010192915050565b6020808252600890820152674f766572666c6f7760c01b604082015260600190565b600060208284031215615ade57600080fd5b81516109a881614e14565b600061ffff808316818516808303821115615b0657615b066154d5565b01949350505050565b600061ffff83811690831681811015615b2a57615b2a6154d5565b039392505050565b6000816000190483118215151615615b4c57615b4c6154d5565b500290565b600082615b6e57634e487b7160e01b600052601260045260246000fd5b500490565b868152856020820152600060018060a01b03808716604084015260c06060840152615ba160c0840187614dbc565b94811660808401529290921660a09091015250949350505050565b60006001600160ff1b0381841382841380821686840486111615615be257615be26154d5565b600160ff1b6000871282811687830589121615615c0157615c016154d5565b60008712925087820587128484161615615c1d57615c1d6154d5565b87850587128184161615615c3357615c336154d5565b505050929093029392505050565b600060208284031215615c5357600080fd5b815160ff811681146109a857600080fd5b600181815b80851115615c9f578160001904821115615c8557615c856154d5565b80851615615c9257918102915b93841c9390800290615c69565b509250929050565b600082615cb6575060016109c3565b81615cc3575060006109c3565b8160018114615cd95760028114615ce357615cff565b60019150506109c3565b60ff841115615cf457615cf46154d5565b50506001821b6109c3565b5060208310610133831016604e8410600b8410161715615d22575081810a6109c3565b615d2c8383615c64565b8060001904821115615d4057615d406154d5565b029392505050565b60006109a860ff841683615ca7565b60008083128015600160ff1b850184121615615d7557615d756154d5565b6001600160ff1b0384018313811615615d9057615d906154d5565b50500390565b600081600f0b6f7fffffffffffffffffffffffffffffff198103615dbc57615dbc6154d5565b60000392915050565b600080600060608486031215615dda57600080fd5b615de3846155ad565b9250615df1602085016155ad565b91506154b3604085016155bf565b60006001600160801b0383811690831681811015615b2a57615b2a6154d5565b60006001600160801b03808316818516808303821115615b0657615b066154d5565b848152608060208201526000615e5a6080830186614dbc565b6001600160a01b039485166040840152929093166060909101529392505050565b60008251615e8d818460208701614d90565b919091019291505056fea164736f6c634300080d000a",
  "deployedBytecode": "0x608060405234801561001057600080fd5b50600436106103af5760003560e01c80637999e84e116101f4578063ba0876521161011a578063dbd5edc7116100ad578063ef8b30f71161007c578063ef8b30f714610821578063f2fde38b14610834578063fd967f4714610847578063ff9281531461085057600080fd5b8063dbd5edc7146107e9578063dd62ed3e146107f2578063e23c090814610805578063e66488531461081857600080fd5b8063c6e6f592116100e9578063c6e6f59214610790578063ce96cb77146107a3578063d905777e146107b6578063dbd035ff146107c957600080fd5b8063ba0876521461076c578063bf9571f11461077f578063c57981b514610787578063c63d75b61461052957600080fd5b806395d89b4111610192578063b3d7f6b911610161578063b3d7f6b91461071f578063b460af9414610732578063b6cdc2d514610745578063b81aecd91461075957600080fd5b806395d89b41146106de578063a457c2d7146106e6578063a9059cbb146106f9578063aced16611461070c57600080fd5b80638d315d7b116101ce5780638d315d7b1461069f5780638da5cb5b146106a75780638fcda03e146106b857806394bf804d146106cb57600080fd5b80637999e84e1461067c5780637d7c2a1c146106845780638121305e1461068c57600080fd5b80633f6be822116102d9578063554070bc116102775780636e553f65116102465780636e553f651461062557806370a0823114610638578063715018a614610661578063748747e61461066957600080fd5b8063554070bc146105c357806357b082fc146105d6578063620bc225146105ea5780636a1db1bf1461061257600080fd5b8063476343ee116102b3578063476343ee146105515780634afe813e146105595780634cdad506146105855780635053145f1461059857600080fd5b80633f6be822146104fe578063402d267d146105295780634441a2ce1461053e57600080fd5b8063171e5e8811610351578063313ce56711610320578063313ce567146104a957806338d52e0f146104b857806339509351146104e35780633d672a45146104f657600080fd5b8063171e5e881461046957806318160ddd1461047c5780631e2eaeaf1461048457806323b872dd1461049657600080fd5b8063095ea7b31161038d578063095ea7b3146103f757806309a68a921461041a5780630a28a47714610441578063142dbe691461045457600080fd5b806301e1d114146103b457806306fdde03146103cf57806307a2d13a146103e4575b600080fd5b6103bc610863565b6040519081526020015b60405180910390f35b6103d76108e8565b6040516103c69190614de8565b6103bc6103f2366004614dfb565b61097a565b61040a610405366004614e34565b6109af565b60405190151581526020016103c6565b609f5461042e90600160b81b900460020b81565b60405160029190910b81526020016103c6565b6103bc61044f366004614dfb565b6109c9565b61046761046236600461515b565b6109f1565b005b610467610477366004614dfb565b610ab9565b6035546103bc565b6103bc610492366004614dfb565b5490565b61040a6104a4366004615255565b610b1f565b604051601281526020016103c6565b6065546104cb906001600160a01b031681565b6040516001600160a01b0390911681526020016103c6565b61040a6104f1366004614e34565b610b43565b6103bc610b82565b609e54610511906001600160401b031681565b6040516001600160401b0390911681526020016103c6565b6103bc610537366004615296565b5060001990565b61046761054c366004614dfb565b610c08565b610467610c67565b609e5461057090600160501b900463ffffffff1681565b60405163ffffffff90911681526020016103c6565b6103bc610593366004614dfb565b610da5565b60a0546105ab906001600160801b031681565b6040516001600160801b0390911681526020016103c6565b6103bc6105d1366004614dfb565b610db0565b60a05461040a90600160801b900460ff1681565b609e546105ff90600160401b900461ffff1681565b60405161ffff90911681526020016103c6565b610467610620366004614dfb565b610e3b565b6103bc6106333660046152b3565b610ebd565b6103bc610646366004615296565b6001600160a01b031660009081526033602052604090205490565b610467610ed1565b610467610677366004615296565b610f07565b610467610f7f565b61046761108b565b61046761069a366004614dfb565b61119d565b6103bc6111fc565b6066546001600160a01b03166104cb565b6104676106c63660046152e3565b61128d565b6103bc6106d93660046152b3565b611339565b6103d761134d565b61040a6106f4366004614e34565b61135c565b61040a610707366004614e34565b6113ee565b609f546104cb906001600160a01b031681565b6103bc61072d366004614dfb565b6113fc565b6103bc610740366004615318565b611423565b609f5461042e90600160a01b900460020b81565b61040a610767366004614dfb565b61144e565b6103bc61077a366004615318565b611467565b610467611593565b6103bc60ac5481565b6103bc61079e366004614dfb565b611a20565b6103bc6107b1366004615296565b611a48565b6103bc6107c4366004615296565b611a6a565b6107dc6107d736600461537d565b611a88565b6040516103c69190615407565b6103bc609d5481565b6103bc61080036600461544b565b611ab6565b610467610813366004615296565b611ae1565b6103bc609b5481565b6103bc61082f366004614dfb565b611b55565b610467610842366004615296565b611b60565b6103bc61271081565b61046761085e366004615479565b611bf8565b600061086d611cc5565b6065546040516370a0823160e01b81523060048201526001600160a01b03909116906370a0823190602401602060405180830381865afa1580156108b5573d6000803e3d6000fd5b505050506040513d601f19601f820116820180604052508101906108d991906154bc565b6108e391906154eb565b905090565b6060603680546108f790615503565b80601f016020809104026020016040519081016040528092919081815260200182805461092390615503565b80156109705780601f1061094557610100808354040283529160200191610970565b820191906000526020600020905b81548152906001019060200180831161095357829003601f168201915b5050505050905090565b60008061098660355490565b905080156109a6576109a1610999610863565b849083611d0e565b6109a8565b825b9392505050565b6000336109bd818585611d2d565b60019150505b92915050565b6000806109d560355490565b905080156109a6576109a1816109e9610863565b859190611e51565b600054610100900460ff16610a0c5760005460ff1615610a10565b303b155b610a785760405162461bcd60e51b815260206004820152602e60248201527f496e697469616c697a61626c653a20636f6e747261637420697320616c72656160448201526d191e481a5b9a5d1a585b1a5e995960921b60648201526084015b60405180910390fd5b600054610100900460ff16158015610a9a576000805461ffff19166101011790555b610aa382611e7f565b8015610ab5576000805461ff00191690555b5050565b6066546001600160a01b03163314610ae35760405162461bcd60e51b8152600401610a6f9061553d565b609d8190556040518181527f333b26cca69716ad4680ddb07663f5bfb4f06045671f336af9a83690a3ae00f9906020015b60405180910390a150565b600033610b2d858285611f62565b610b38858585611fdc565b506001949350505050565b3360008181526034602090815260408083206001600160a01b03871684529091528120549091906109bd9082908690610b7d9087906154eb565b611d2d565b60a7546040516001620e8cb360e11b031981526001600160a01b03909116600482015260009073__$9842325bb1826b70c2ef476a1c714a02a7$__9063ffe2e69a90602401602060405180830381865af4158015610be4573d6000803e3d6000fd5b505050506040513d601f19601f820116820180604052508101906108e391906154bc565b6066546001600160a01b03163314610c325760405162461bcd60e51b8152600401610a6f9061553d565b60ab8190556040518181527fbaf704dc582d2430f506b48fda242593270667e77656cf3ba2f77a630594466390602001610b14565b6066546001600160a01b03163314610c915760405162461bcd60e51b8152600401610a6f9061553d565b60a4546040516370a0823160e01b81523060048201526000916001600160a01b0316906370a0823190602401602060405180830381865afa158015610cda573d6000803e3d6000fd5b505050506040513d601f19601f82011682018060405250810190610cfe91906154bc565b60a45460405163a9059cbb60e01b81529192506001600160a01b03169063a9059cbb90610d319033908590600401615572565b6020604051808303816000875af1158015610d50573d6000803e3d6000fd5b505050506040513d601f19601f82011682018060405250810190610d74919061558b565b506040518181527f9800e6f57aeb4360eaa72295a820a4293e1e66fbfcabcd8874ae141304a76deb90602001610b14565b60006109c38261097a565b60a754604051637a5fda7960e01b8152600481018390526001600160a01b03909116602482015260009073__$9842325bb1826b70c2ef476a1c714a02a7$__90637a5fda79906044015b602060405180830381865af4158015610e17573d6000803e3d6000fd5b505050506040513d601f19601f820116820180604052508101906109c391906154bc565b6066546001600160a01b03163314610e655760405162461bcd60e51b8152600401610a6f9061553d565b612710811115610e8857604051630709dc8560e31b815260040160405180910390fd5b60ac8190556040518181527f9fe6eeb0f0541c644a56c67efeb872dbadd803a60b909d7dde1b35a3fe230b0e90602001610b14565b6000610ec76121aa565b6109a883836121b2565b6066546001600160a01b03163314610efb5760405162461bcd60e51b8152600401610a6f9061553d565b610f05600061226f565b565b6066546001600160a01b03163314610f315760405162461bcd60e51b8152600401610a6f9061553d565b609f80546001600160a01b0319166001600160a01b0383169081179091556040519081527f0425bcd291db1d48816f2a98edc7ecaf6dd5c64b973d9e4b3b6b750763dc6c2e90602001610b14565b609f546001600160a01b03163314610fbf57609f546040516369958c7360e01b81523360048201526001600160a01b039091166024820152604401610a6f565b609954609b54604051630ed586bf60e21b815260048101919091526060916001600160a01b031690633b561afc90602401600060405180830381865afa15801561100d573d6000803e3d6000fd5b505050506040513d6000823e601f3d908101601f1916820160405261103591908101906157b6565b805190945061105f935084925060009150611052576110526158bc565b60200260200101516122c1565b6040517f9a94a63b02012d6753ed863b962aceb756429b4265fc327391dd05fb24d4502b90600090a150565b609f546001600160a01b031633146110cb57609f546040516369958c7360e01b81523360048201526001600160a01b039091166024820152604401610a6f565b60006110d56111fc565b90506110e08161144e565b6110fd57604051636fa1adc360e01b815260040160405180910390fd5b606080611108612380565b8051919350915060000361112f576040516301d84bb360e11b815260040160405180910390fd5b61115381600081518110611145576111456158bc565b60200260200101518461249f565b609e805467ffffffffffffffff1916426001600160401b03161790556040517ff57243a1fddfdc9fa2c7de26cc3503b1b94cfd4368d2b82d0970bfbb2fbce3a490600090a1505050565b6066546001600160a01b031633146111c75760405162461bcd60e51b8152600401610a6f9061553d565b60aa8190556040518181527f77bc5ea45f61ae2f050ec3af00a3ebcbeff6082d4c04905ebb7e01ff797dacf390602001610b14565b609954609b54604051631c7a838360e31b815260048101919091526000916001600160a01b03169063e3d41c1890602401602060405180830381865afa15801561124a573d6000803e3d6000fd5b505050506040513d601f19601f8201168201806040525081019061126e91906154bc565b905061128361127e6105d1610863565b6125d8565b6108e390826158d2565b6066546001600160a01b031633146112b75760405162461bcd60e51b8152600401610a6f9061553d565b609e805465ffffffffffff60401b1916600160501b63ffffffff851690810269ffff0000000000000000191691909117600160401b61ffff8516908102919091179092556040805191825260208201929092527f9af00b5d3a5006b7a36e8fe4a8f67a155aa897efbee30711b474e18eed221555910160405180910390a15050565b60006113436121aa565b6109a88383612601565b6060603780546108f790615503565b3360008181526034602090815260408083206001600160a01b0387168452909152812054909190838110156113e15760405162461bcd60e51b815260206004820152602560248201527f45524332303a2064656372656173656420616c6c6f77616e63652062656c6f77604482015264207a65726f60d81b6064820152608401610a6f565b610b388286868403611d2d565b6000336109bd818585611fdc565b60008061140860355490565b905080156109a6576109a161141b610863565b849083611e51565b600061142d6121aa565b600061143885612681565b9050611445818585612694565b95945050505050565b600061145861274f565b806109c357506109c38261277c565b60006114716121aa565b336001600160a01b038316146114a957600061148d8333611ab6565b905060001981146114a7576114a78333610b7d8885615913565b505b6114b284610da5565b9050806000036114f25760405162461bcd60e51b815260206004820152600b60248201526a5a45524f5f41535345545360a81b6044820152606401610a6f565b60006114fd82612681565b905081811461151557809150611512816109c9565b94505b61151f828661288a565b61152983866128a4565b60408051838152602081018790526001600160a01b03808616929087169133917ffbde797d201c681b91056529119e0b02407c7bb96a4a2c75c01fc9667232c8db910160405180910390a460655461158b906001600160a01b031685846129f2565b509392505050565b6066546001600160a01b031633146115bd5760405162461bcd60e51b8152600401610a6f9061553d565b6115c5612a48565b60655460a55460405163095ea7b360e01b81526001600160a01b039283169263095ea7b3926115fd9291169060001990600401615572565b6020604051808303816000875af115801561161c573d6000803e3d6000fd5b505050506040513d601f19601f82011682018060405250810190611640919061558b565b5060655460a85460405163095ea7b360e01b81526001600160a01b039283169263095ea7b3926116799291169060001990600401615572565b6020604051808303816000875af1158015611698573d6000803e3d6000fd5b505050506040513d601f19601f820116820180604052508101906116bc919061558b565b5060a35460a65460405163095ea7b360e01b81526001600160a01b039283169263095ea7b3926116f492911690600090600401615572565b6020604051808303816000875af1158015611713573d6000803e3d6000fd5b505050506040513d601f19601f82011682018060405250810190611737919061558b565b5060a15460a65460405163095ea7b360e01b81526001600160a01b039283169263095ea7b39261176f92911690600090600401615572565b6020604051808303816000875af115801561178e573d6000803e3d6000fd5b505050506040513d601f19601f820116820180604052508101906117b2919061558b565b5060a15460a85460405163095ea7b360e01b81526001600160a01b039283169263095ea7b3926117ea92911690600090600401615572565b6020604051808303816000875af1158015611809573d6000803e3d6000fd5b505050506040513d601f19601f8201168201806040525081019061182d919061558b565b5060a35460a65460405163095ea7b360e01b81526001600160a01b039283169263095ea7b3926118669291169060001990600401615572565b6020604051808303816000875af1158015611885573d6000803e3d6000fd5b505050506040513d601f19601f820116820180604052508101906118a9919061558b565b5060a15460a65460405163095ea7b360e01b81526001600160a01b039283169263095ea7b3926118e29291169060001990600401615572565b6020604051808303816000875af1158015611901573d6000803e3d6000fd5b505050506040513d601f19601f82011682018060405250810190611925919061558b565b5060a15460a85460405163095ea7b360e01b81526001600160a01b039283169263095ea7b39261195e9291169060001990600401615572565b6020604051808303816000875af115801561197d573d6000803e3d6000fd5b505050506040513d601f19601f820116820180604052508101906119a1919061558b565b5060a45460a65460405163095ea7b360e01b81526001600160a01b039283169263095ea7b3926119da9291169060001990600401615572565b6020604051808303816000875af11580156119f9573d6000803e3d6000fd5b505050506040513d601f19601f82011682018060405250810190611a1d919061558b565b50565b600080611a2c60355490565b905080156109a6576109a181611a40610863565b859190611d0e565b6001600160a01b0381166000908152603360205260408120546109c39061097a565b6001600160a01b0381166000908152603360205260408120546109c3565b606060208251028201602001602083015b81811015611aae578051548152602001611a99565b509192915050565b6001600160a01b03918216600090815260346020908152604080832093909416825291909152205490565b6066546001600160a01b03163314611b0b5760405162461bcd60e51b8152600401610a6f9061553d565b60a980546001600160a01b0319166001600160a01b0383169081179091556040517f37e6fa50467241d1adf59e9c0011228de6a03425a9efdea6d2d3662c77eaba5390600090a250565b60006109c382611a20565b6066546001600160a01b03163314611b8a5760405162461bcd60e51b8152600401610a6f9061553d565b6001600160a01b038116611bef5760405162461bcd60e51b815260206004820152602660248201527f4f776e61626c653a206e6577206f776e657220697320746865207a65726f206160448201526564647265737360d01b6064820152608401610a6f565b611a1d8161226f565b6066546001600160a01b03163314611c225760405162461bcd60e51b8152600401610a6f9061553d565b60a0805463ffffffff60881b1916600160881b61ffff86811691820261ffff60981b191692909217600160981b9286169283021767ffffffffffffffff60a81b1916600160a81b6001600160401b03861690810291909117909355604080519182526020820192909252908101919091527f4a9bdb3bab9a7cff0ea02e1428a3901c565a962f3b99b7d8d2b02787ca4f93f99060600160405180910390a1505050565b60a5546040516370a0823160e01b81523060048201526000916001600160a01b0316906370a0823190602401602060405180830381865afa158015610be4573d6000803e3d6000fd5b828202811515841585830485141716611d2657600080fd5b0492915050565b6001600160a01b038316611d8f5760405162461bcd60e51b8152602060048201526024808201527f45524332303a20617070726f76652066726f6d20746865207a65726f206164646044820152637265737360e01b6064820152608401610a6f565b6001600160a01b038216611df05760405162461bcd60e51b815260206004820152602260248201527f45524332303a20617070726f766520746f20746865207a65726f206164647265604482015261737360f01b6064820152608401610a6f565b6001600160a01b0383811660008181526034602090815260408083209487168084529482529182902085905590518481527f8c5be1e5ebec7d5bd14f71427d1e84f3dd0314c0f7b2291e5b200ac8c7c3b925910160405180910390a3505050565b828202811515841585830485141716611e6957600080fd5b6001826001830304018115150290509392505050565b600054610100900460ff16611ea65760405162461bcd60e51b8152600401610a6f9061592a565b8051611eb190612afc565b602081015160a180546001600160a01b03199081166001600160a01b0393841617909155604083015160a380548316918416919091179055606083015160a28054831691841691909117905560a083015160a580548316918416919091179055608083015160a48054831691841691909117905560c083015160a68054831691841691909117905561010083015160a88054831691841691909117905560e09092015160a780549093169116179055565b6000611f6e8484611ab6565b90506000198114611fd65781811015611fc95760405162461bcd60e51b815260206004820152601d60248201527f45524332303a20696e73756666696369656e7420616c6c6f77616e63650000006044820152606401610a6f565b611fd68484848403611d2d565b50505050565b6001600160a01b0383166120405760405162461bcd60e51b815260206004820152602560248201527f45524332303a207472616e736665722066726f6d20746865207a65726f206164604482015264647265737360d81b6064820152608401610a6f565b6001600160a01b0382166120a25760405162461bcd60e51b815260206004820152602360248201527f45524332303a207472616e7366657220746f20746865207a65726f206164647260448201526265737360e81b6064820152608401610a6f565b6001600160a01b0383166000908152603360205260409020548181101561211a5760405162461bcd60e51b815260206004820152602660248201527f45524332303a207472616e7366657220616d6f756e7420657863656564732062604482015265616c616e636560d01b6064820152608401610a6f565b6001600160a01b038085166000908152603360205260408082208585039055918516815290812080548492906121519084906154eb565b92505081905550826001600160a01b0316846001600160a01b03167fddf252ad1be2c89b69c2b068fc378daa952ba7f163c4a11628f55a4df523b3ef8460405161219d91815260200190565b60405180910390a3611fd6565b610ab5612380565b60006121bd83611b55565b9050806000036121fd5760405162461bcd60e51b815260206004820152600b60248201526a5a45524f5f53484152455360a81b6044820152606401610a6f565b606554612215906001600160a01b0316333086612bda565b61221f8282612c12565b60408051848152602081018390526001600160a01b0384169133917fdcbc1c05240f31ff3ad067ef1ee35ce4997762752e3a095284754544f4c709d7910160405180910390a36109c38382612cf1565b606680546001600160a01b038381166001600160a01b0319831681179093556040519116919082907f8be0079c531659141344cd1fd0a4f28419497f9722a3daafe3b4186f6b6457e090600090a35050565b60a054600160801b900460ff166122eb57604051632f0c3e3160e11b815260040160405180910390fd5b600081604001516122fb90615975565b90506000612307612d49565b905060006123158383612e0a565b60a054909150600160a81b90046001600160401b031681111561236d57600061234f848460a060119054906101000a900461ffff16612e38565b5090508084036123675760a0805460ff60801b191690555b50611fd6565b60a0805460ff60801b1916905550505050565b609954609b54604051630ed586bf60e21b815260609283926001600160a01b0390911691633b561afc916123ba9160040190815260200190565b600060405180830381865afa1580156123d7573d6000803e3d6000fd5b505050506040513d6000823e601f3d908101601f191682016040526123ff91908101906157b6565b90945092506000915061241290506111fc565b905061241c612f77565b61242683826131ef565b6065546040516370a0823160e01b815230600482015261249a916001600160a01b0316906370a08231906024015b602060405180830381865afa158015612471573d6000803e3d6000fd5b505050506040513d601f19601f8201168201806040525081019061249591906154bc565b6134f0565b509091565b6124a881613586565b60a08054911515600160801b0260ff60801b1990921691909117905560006124cf8261364f565b905060005b60028160ff1610156125b757818160ff16600281106124f5576124f56158bc565b602002015160400151600f0b156125b757609954609b54609c546001600160a01b039092169163c7505c15919063ffffffff168560ff86166002811061253d5761253d6158bc565b60200201516040518463ffffffff1660e01b8152600401612560939291906159c9565b60408051808303816000875af115801561257e573d6000803e3d6000fd5b505050506040513d601f19601f820116820180604052508101906125a29190615a67565b505080806125af90615a8b565b9150506124d4565b5060a054600160801b900460ff16156125d3576125d3836122c1565b505050565b6000600160ff1b82106125fd5760405162461bcd60e51b8152600401610a6f90615aaa565b5090565b600061260c836113fc565b606554909150612627906001600160a01b0316333084612bda565b6126318284612c12565b60408051828152602081018590526001600160a01b0384169133917fdcbc1c05240f31ff3ad067ef1ee35ce4997762752e3a095284754544f4c709d7910160405180910390a36109c38184612cf1565b60006109c361268e610863565b83613854565b600061269f846109c9565b9050336001600160a01b038316146126d95760006126bd8333611ab6565b905060001981146126d7576126d78333610b7d8585615913565b505b6126e3848261288a565b6126ed82826128a4565b60408051858152602081018390526001600160a01b03808516929086169133917ffbde797d201c681b91056529119e0b02407c7bb96a4a2c75c01fc9667232c8db910160405180910390a46065546109a8906001600160a01b031684866129f2565b609e5460009063ffffffff600160501b82041690612776906001600160401b031642615913565b11905090565b609c5460995460009173__$9842325bb1826b70c2ef476a1c714a02a7$__9163757d5fd6916001600160a01b0364010000000082048116926127ca9291169063ffffffff9081169061398d16565b609e54609f5460405160e086901b6001600160e01b03191681526001600160a01b03909416600485015263ffffffff9092166024840152600160401b900461ffff166044830152600160a01b8104600290810b6064840152600160b81b909104900b608482015260a401602060405180830381865af4158015612851573d6000803e3d6000fd5b505050506040513d601f19601f82011682018060405250810190612875919061558b565b905080612885576109c382613586565b919050565b61289b612895610863565b83613a1d565b610ab582613b31565b6001600160a01b0382166129045760405162461bcd60e51b815260206004820152602160248201527f45524332303a206275726e2066726f6d20746865207a65726f206164647265736044820152607360f81b6064820152608401610a6f565b6001600160a01b038216600090815260336020526040902054818110156129785760405162461bcd60e51b815260206004820152602260248201527f45524332303a206275726e20616d6f756e7420657863656564732062616c616e604482015261636560f01b6064820152608401610a6f565b6001600160a01b03831660009081526033602052604081208383039055603580548492906129a7908490615913565b90915550506040518281526000906001600160a01b038516907fddf252ad1be2c89b69c2b068fc378daa952ba7f163c4a11628f55a4df523b3ef9060200160405180910390a3505050565b6125d38363a9059cbb60e01b8484604051602401612a11929190615572565b60408051601f198184030181529190526020810180516001600160e01b03166001600160e01b031990931692909217909152613c35565b609a5460995460405163095ea7b360e01b81526001600160a01b039283169263095ea7b392612a809291169060001990600401615572565b6020604051808303816000875af1158015612a9f573d6000803e3d6000fd5b505050506040513d601f19601f82011682018060405250810190612ac3919061558b565b5060985460995460405163095ea7b360e01b81526001600160a01b039283169263095ea7b3926119da9291169060001990600401615572565b600054610100900460ff16612b235760405162461bcd60e51b8152600401610a6f9061592a565b8051612b2e90613d07565b60208181015160a0805460408086015160608088015163ffffffff60881b19909416600160881b61ffff97881690810261ffff60981b191691909117600160981b979093169687029290921767ffffffffffffffff60a81b1916600160a81b6001600160401b0390951694850217909455815190815294850193909352918301919091527f4a9bdb3bab9a7cff0ea02e1428a3901c565a962f3b99b7d8d2b02787ca4f93f99101610b14565b6040516001600160a01b0380851660248301528316604482015260648101829052611fd69085906323b872dd60e01b90608401612a11565b6001600160a01b038216612c685760405162461bcd60e51b815260206004820152601f60248201527f45524332303a206d696e7420746f20746865207a65726f2061646472657373006044820152606401610a6f565b8060356000828254612c7a91906154eb565b90915550506001600160a01b03821660009081526033602052604081208054839290612ca79084906154eb565b90915550506040518181526001600160a01b038316906000907fddf252ad1be2c89b69c2b068fc378daa952ba7f163c4a11628f55a4df523b3ef9060200160405180910390a35050565b609d54612cfc610863565b1115612d2f57609d54612d0d610863565b6040516301b25d0360e41b815260048101929092526024820152604401610a6f565b612d3882613ed2565b610ab5612d43610863565b83613f79565b609c5460995460009173__$9842325bb1826b70c2ef476a1c714a02a7$__9163e54c8fd8916001600160a01b036401000000008204811692612d979291169063ffffffff9081169061398d16565b6040516001600160e01b031960e085901b1681526001600160a01b03909216600483015263ffffffff166024820152604401602060405180830381865af4158015612de6573d6000803e3d6000fd5b505050506040513d601f19601f820116820180604052508101906108e39190615acc565b60006109a8612e336001600160a01b038416600160601b612e2c8783836141ba565b91906141ba565b6141fc565b600080600080861315612e7a57612e73612e6e612e5786612710615ae9565b6001600160a01b0388169061ffff16612710614207565b6142b9565b9050612e8f565b612e8c612e6e612e5786612710615b0f565b90505b6040805160a0810182528781526001600160a01b0383811660208301908152600083850181815260016060860190815260808601928352609954609b54609c5498516383d778eb60e01b8152600481019190915263ffffffff90981660248901528651604489015293518516606488015290511515608487015251151560a486015251151560c485015291929116906383d778eb9060e40160408051808303816000875af1158015612f45573d6000803e3d6000fd5b505050506040513d601f19601f82011682018060405250810190612f699190615a67565b909890975095505050505050565b60a55460a454604051630cff5bdd60e21b81523060048201526001600160a01b03918216602482015260009291909116906333fd6f7490604401602060405180830381865afa158015612fce573d6000803e3d6000fd5b505050506040513d601f19601f82011682018060405250810190612ff291906154bc565b905060ab54811115611a1d57600061271060ac54836130119190615b32565b61301b9190615b51565b6130259083615913565b60a554604051634274debf60e11b81523060048201529192506001600160a01b0316906384e9bd7e90602401600060405180830381600087803b15801561306b57600080fd5b505af115801561307f573d6000803e3d6000fd5b505050507f8e55ccfc9778ff8eba1646d765cf1982537ce0f9257054a17b48aad745250183826040516130b491815260200190565b60405180910390a160a45460a25460a1546040516bffffffffffffffffffffffff19606094851b8116602083015261017760eb1b603483015292841b83166037820152607d60ea1b604b820152921b16604e82015260009060620160408051808303601f190181529082905260aa5460a95460a65460a854631a6dbd7760e21b865293955073__$f09208ef53137b379b85ea4a8d399069d8$__946369b6f5dc9461317b94899490936001600160a01b03918216938a939183169290911690600401615b73565b602060405180830381865af4158015613198573d6000803e3d6000fd5b505050506040513d601f19601f820116820180604052508101906131bc91906154bc565b506065546040516370a0823160e01b81523060048201526125d3916001600160a01b0316906370a0823190602401612454565b609954609b54604051631c7a838360e31b815260048101919091526000916001600160a01b03169063e3d41c1890602401602060405180830381865afa15801561323d573d6000803e3d6000fd5b505050506040513d601f19601f8201168201806040525081019061326191906154bc565b905060008113156132f457609954609b546001600160a01b0390911690639cd1be589061329084600019615bbc565b6040516001600160e01b031960e085901b16815260048101929092526024820152604401600060405180830381600087803b1580156132ce57600080fd5b505af11580156132e2573d6000803e3d6000fd5b505050506132ef816142e2565b613395565b600081121561339557600061331361330e83600019615bbc565b6143e1565b9050801561339357609954609b546001600160a01b0390911690639cd1be589061333c846125d8565b6040516001600160e01b031960e085901b16815260048101929092526024820152604401600060405180830381600087803b15801561337a57600080fd5b505af115801561338e573d6000803e3d6000fd5b505050505b505b8251600090156134e4576000846000815181106133b4576133b46158bc565b602002602001015190506134d2609860009054906101000a90046001600160a01b03166001600160a01b031663313ce5676040518163ffffffff1660e01b8152600401602060405180830381865afa158015613414573d6000803e3d6000fd5b505050506040513d601f19601f820116820180604052508101906134389190615c41565b61344390600a615d48565b609a60009054906101000a90046001600160a01b03166001600160a01b031663313ce5676040518163ffffffff1660e01b8152600401602060405180830381865afa158015613496573d6000803e3d6000fd5b505050506040513d601f19601f820116820180604052508101906134ba9190615c41565b6134c590600a615d48565b612e2c84602001516125d8565b6134dc9085615d57565b9150506134e7565b50815b611fd681614466565b60a55460405163b6b55f2560e01b8152600481018390526001600160a01b039091169063b6b55f2590602401600060405180830381600087803b15801561353657600080fd5b505af115801561354a573d6000803e3d6000fd5b50506040518381523392507f6e47dcdd359b6cd69456f0f97d394bd4540a2e7c4adc1b9da076859df53756c7915060200160405180910390a250565b609954609b54609c54604051633524324160e11b8152600481019290925263ffffffff16602482015260009182916001600160a01b0390911690636a48648290604401602060405180830381865afa1580156135e6573d6000803e3d6000fd5b505050506040513d601f19601f8201168201806040525081019061360a91906154bc565b9050600061361f8261361a612d49565b612e0a565b60a05490915061364790600160981b900461ffff16612710613640876141fc565b9190614207565b109392505050565b613657614c8e565b60a0546000906001600160801b0316156136d557609f5460a0546136ad91600160a01b8104600290810b92600160b81b909204900b9061369f906001600160801b031661475b565b6136a890615d96565b614789565b828260ff16600281106136c2576136c26158bc565b6020020152806136d181615a8b565b9150505b60006136df612d49565b604051630ad6ed5b60e41b81526001600160a01b038216600482015260248101869052620c3500604482015290915060009073__$9842325bb1826b70c2ef476a1c714a02a7$__9063ad6ed5b090606401606060405180830381865af415801561374d573d6000803e3d6000fd5b505050506040513d601f19601f820116820180604052508101906137719190615dc5565b609f805465ffffffffffff60a01b1916600160b81b62ffffff9485160262ffffff60a01b191617600160a01b94909316939093029190911790915560a0549091506001600160801b031615806137d0575060a054600160801b900460ff165b156137f15760a080546001600160801b0319166001600160801b0383161790555b609f5460a05461382591600160a01b8104600290810b92600160b81b909204900b906136a8906001600160801b031661475b565b848460ff166002811061383a5761383a6158bc565b60200201528261384981615a8b565b935050505050919050565b60008061385f612d49565b609954609b54609c54604051633524324160e11b8152600481019290925263ffffffff1660248201529192506000916001600160a01b0390911690636a48648290604401602060405180830381865afa1580156138c0573d6000803e3d6000fd5b505050506040513d601f19601f820116820180604052508101906138e491906154bc565b905060006138f38286886141ba565b6138fc90615975565b9050600061390a8385612e0a565b60a054909150600160a81b90046001600160401b031681111561397f576000613944838660a060119054906101000a900461ffff16612e38565b50905082810361395657869550613979565b600061396c6139648a6125d8565b839087614801565b61397590615975565b9650505b50613983565b8594505b5050505092915050565b600080836001600160a01b0316631e2eaeaf6139a88561485e565b6040518263ffffffff1660e01b81526004016139c691815260200190565b602060405180830381865afa1580156139e3573d6000803e3d6000fd5b505050506040513d601f19601f82011682018060405250810190613a0791906154bc565b905063ffffffff60b082901c165b949350505050565b6000613a2b83836001614886565b90508060400151613a3b90615d96565b60a08054600090613a569084906001600160801b0316615dff565b82546101009290920a6001600160801b0381810219909316918316021790915560a054166000039050613a8b57600160a08201525b609954609b54609c5460405163c7505c1560e01b81526001600160a01b039093169263c7505c1592613acc92909163ffffffff9091169086906004016159c9565b60408051808303816000875af1158015613aea573d6000803e3d6000fd5b505050506040513d601f19601f82011682018060405250810190613b0e9190615a67565b50506000613b1e61127e84610db0565b9050611fd6613b2c82615975565b614466565b60a754604080516354f0f7d560e01b815290517fc852a00896bd42656c7822f2f6c850502574cfdbb70db38df4ea5eb56f5af8fd926001600160a01b0316916354f0f7d59160048083019260209291908290030181865afa158015613b9a573d6000803e3d6000fd5b505050506040513d601f19601f82011682018060405250810190613bbe91906154bc565b60405190815260200160405180910390a160a554604051632e1a7d4d60e01b8152600481018390526001600160a01b0390911690632e1a7d4d90602401600060405180830381600087803b158015613c1557600080fd5b505af1158015613c29573d6000803e3d6000fd5b50505050611a1d612f77565b6000613c8a826040518060400160405280602081526020017f5361666545524332303a206c6f772d6c6576656c2063616c6c206661696c6564815250856001600160a01b03166148ee9092919063ffffffff16565b8051909150156125d35780806020019051810190613ca8919061558b565b6125d35760405162461bcd60e51b815260206004820152602a60248201527f5361666545524332303a204552433230206f7065726174696f6e20646964206e6044820152691bdd081cdd58d8d9595960b21b6064820152608401610a6f565b600054610100900460ff16613d2e5760405162461bcd60e51b8152600401610a6f9061592a565b613d366148fd565b8051613d419061492c565b602081810151609c805463ffffffff191663ffffffff909216919091179055604080830151609980546001600160a01b0319166001600160a01b0390921691821790558151639dca362f60e01b815291519092639dca362f926004808201939182900301816000875af1158015613dbc573d6000803e3d6000fd5b505050506040513d601f19601f82011682018060405250810190613de091906154bc565b609b556060810151609a80546001600160a01b03199081166001600160a01b0393841617909155608083015160988054909216908316179055609c54609954613e3492169063ffffffff9081169061494316565b609c80546001600160a01b039290921664010000000002640100000000600160c01b0319909216919091179055609e80546c01518001f4000000000000000065ffffffffffff60401b19909116179081905560408051600160501b830463ffffffff168152600160401b90920461ffff1660208301527f9af00b5d3a5006b7a36e8fe4a8f67a155aa897efbee30711b474e18eed2215559101610b14565b60a754604080516354f0f7d560e01b815290517fc852a00896bd42656c7822f2f6c850502574cfdbb70db38df4ea5eb56f5af8fd926001600160a01b0316916354f0f7d59160048083019260209291908290030181865afa158015613f3b573d6000803e3d6000fd5b505050506040513d601f19601f82011682018060405250810190613f5f91906154bc565b60405190815260200160405180910390a1611a1d816134f0565b6000613f8761127e83610db0565b9050613f9281614466565b613f9a614cbb565b60a0546001600160801b0316158015613fb257508284145b156140d0576000613fc1612d49565b604051630ad6ed5b60e41b81526001600160a01b038216600482015260248101859052620c3500604482015290915073__$9842325bb1826b70c2ef476a1c714a02a7$__9063ad6ed5b090606401606060405180830381865af415801561402c573d6000803e3d6000fd5b505050506040513d601f19601f820116820180604052508101906140509190615dc5565b60a080546001600160801b0319166001600160801b03929092169182179055609f805465ffffffffffff60a01b1916600160b81b62ffffff948516810262ffffff60a01b191691909117600160a01b95909416850293909317908190556140c8938104600290810b93909104900b906136a89061475b565b91505061412f565b6140e56140dd8486615913565b846000614886565b604081015160a08054929350909160009061410a9084906001600160801b0316615e1f565b92506101000a8154816001600160801b0302191690836001600160801b031602179055505b609954609b54609c5460405163c7505c1560e01b81526001600160a01b039093169263c7505c159261417092909163ffffffff9091169086906004016159c9565b60408051808303816000875af115801561418e573d6000803e3d6000fd5b505050506040513d601f19601f820116820180604052508101906141b29190615a67565b505050505050565b60006141e86141e3600086126141d057856141dc565b6141dc86600019615bbc565b8585614207565b6149bd565b905060008412156109a857613a1581615975565b60006109c3826149cf565b6000808060001985870985870292508281108382030391505080600003614240576000841161423557600080fd5b5082900490506109a8565b80841161424c57600080fd5b6000848688096000868103871696879004966002600389028118808a02820302808a02820302808a02820302808a02820302808a02820302808a02909103029181900381900460010186841190950394909402919094039290920491909117919091029150509392505050565b806001600160a01b03811681146128855760405162461bcd60e51b8152600401610a6f90615aaa565b60a35460a1546040516bffffffffffffffffffffffff19606093841b81166020830152607d60ea1b60348301529190921b166037820152600090604b0160408051601f198184030181529082905260a65460a854638b8f9f0f60e01b845291935073__$f09208ef53137b379b85ea4a8d399069d8$__92638b8f9f0f9261437d92879287926001600160a01b03928316921690600401615e41565b60006040518083038186803b15801561439557600080fd5b505af41580156143a9573d6000803e3d6000fd5b50506065546040516370a0823160e01b8152306004820152610ab593506001600160a01b0390911691506370a0823190602401612454565b60a75460a55460a85460a15460a65460a3546040516303d0ed4560e31b8152600481018890526001600160a01b039687166024820152948616604486015292851660648501529084166084840152831660a48301529190911660c482015260009073__$9842325bb1826b70c2ef476a1c714a02a7$__90631e876a289060e401610dfa565b6000614577609a60009054906101000a90046001600160a01b03166001600160a01b031663313ce5676040518163ffffffff1660e01b8152600401602060405180830381865afa1580156144be573d6000803e3d6000fd5b505050506040513d601f19601f820116820180604052508101906144e29190615c41565b6144ed90600a615d48565b609860009054906101000a90046001600160a01b03166001600160a01b031663313ce5676040518163ffffffff1660e01b8152600401602060405180830381865afa158015614540573d6000803e3d6000fd5b505050506040513d601f19601f820116820180604052508101906145649190615c41565b61456f90600a615d48565b8491906141ba565b90506000614584826141fc565b9050600082131561467d57609a546040516340c10f1960e01b81526001600160a01b03909116906340c10f19906145c19030908590600401615572565b600060405180830381600087803b1580156145db57600080fd5b505af11580156145ef573d6000803e3d6000fd5b5050609954609b54609a546001600160a01b039092169350637d2efe0792509063ffffffff166040516001600160e01b031960e085901b168152600481019290925263ffffffff16602482015260448101849052606401600060405180830381600087803b15801561466057600080fd5b505af1158015614674573d6000803e3d6000fd5b50505050505050565b60008212156125d357609954609b54609a546001600160a01b0390921691637d2efe07919063ffffffff166146b185615975565b6040516001600160e01b031960e086901b168152600481019390935263ffffffff9190911660248301526044820152606401600060405180830381600087803b1580156146fd57600080fd5b505af1158015614711573d6000803e3d6000fd5b5050609a54604051630852cd8d60e31b8152600481018590526001600160a01b0390911692506342966c689150602401600060405180830381600087803b15801561466057600080fd5b60006001607f1b826001600160801b0316106125fd5760405162461bcd60e51b8152600401610a6f90615aaa565b614791614cbb565b6040518061010001604052808560020b81526020018460020b815260200183600f0b815260200160006001600160a01b03168152602001600061ffff168152602001600015158152602001600060028111156147ef576147ef615991565b81526000602090910152949350505050565b6000600181808061481288856149e6565b9450925061482087856149e6565b9450915061482e86856149e6565b945090506148406141e3848484614207565b9450836148535761485085615975565b94505b505050509392505050565b60006109c36003614882606463ffffffff86165b9060009182526020526040902090565b0190565b61488e614cbb565b60a0546000906148b7906148b29086908890612e2c906001600160801b03166125d8565b614a10565b905082156148cb576148c881615d96565b90505b609f5461144590600160a01b8104600290810b91600160b81b9004900b83614789565b6060613a158484600085614a34565b600054610100900460ff166149245760405162461bcd60e51b8152600401610a6f9061592a565b610f05614b65565b611a1d816000015182602001518360400151614b95565b600080836001600160a01b0316631e2eaeaf61495e85614bc3565b6040518263ffffffff1660e01b815260040161497c91815260200190565b602060405180830381865afa158015614999573d6000803e3d6000fd5b505050506040513d601f19601f82011682018060405250810190613a1591906154bc565b6000600160ff1b82106125fd57600080fd5b60008082136125fd576149e182615975565b6109c3565b6000806000841215614a05579115916149fe84615975565b9150614a09565b8391505b5092909150565b80600f81900b81146128855760405162461bcd60e51b8152600401610a6f90615aaa565b606082471015614a955760405162461bcd60e51b815260206004820152602660248201527f416464726573733a20696e73756666696369656e742062616c616e636520666f6044820152651c8818d85b1b60d21b6064820152608401610a6f565b6001600160a01b0385163b614aec5760405162461bcd60e51b815260206004820152601d60248201527f416464726573733a2063616c6c20746f206e6f6e2d636f6e74726163740000006044820152606401610a6f565b600080866001600160a01b03168587604051614b089190615e7b565b60006040518083038185875af1925050503d8060008114614b45576040519150601f19603f3d011682016040523d82523d6000602084013e614b4a565b606091505b5091509150614b5a828286614bdb565b979650505050505050565b600054610100900460ff16614b8c5760405162461bcd60e51b8152600401610a6f9061592a565b610f053361226f565b614b9f8282614c14565b5050606580546001600160a01b0319166001600160a01b0392909216919091179055565b60006109c36001614882606463ffffffff8616614872565b60608315614bea5750816109a8565b825115614bfa5782518084602001fd5b8160405162461bcd60e51b8152600401610a6f9190614de8565b600054610100900460ff16614c3b5760405162461bcd60e51b8152600401610a6f9061592a565b610ab58282600054610100900460ff16614c675760405162461bcd60e51b8152600401610a6f9061592a565b8151614c7a906036906020850190614d00565b5080516125d3906037906020840190614d00565b60405180604001604052806002905b614ca5614cbb565b815260200190600190039081614c9d5790505090565b6040805161010081018252600080825260208201819052918101829052606081018290526080810182905260a081018290529060c08201908152600060209091015290565b828054614d0c90615503565b90600052602060002090601f016020900481019282614d2e5760008555614d74565b82601f10614d4757805160ff1916838001178555614d74565b82800160010185558215614d74579182015b82811115614d74578251825591602001919060010190614d59565b506125fd9291505b808211156125fd5760008155600101614d7c565b60005b83811015614dab578181015183820152602001614d93565b83811115611fd65750506000910152565b60008151808452614dd4816020860160208601614d90565b601f01601f19169290920160200192915050565b6020815260006109a86020830184614dbc565b600060208284031215614e0d57600080fd5b5035919050565b6001600160a01b0381168114611a1d57600080fd5b803561288581614e14565b60008060408385031215614e4757600080fd5b8235614e5281614e14565b946020939093013593505050565b634e487b7160e01b600052604160045260246000fd5b604051608081016001600160401b0381118282101715614e9857614e98614e60565b60405290565b60405160a081016001600160401b0381118282101715614e9857614e98614e60565b604051606081016001600160401b0381118282101715614e9857614e98614e60565b60405161012081016001600160401b0381118282101715614e9857614e98614e60565b604080519081016001600160401b0381118282101715614e9857614e98614e60565b604051601f8201601f191681016001600160401b0381118282101715614f4f57614f4f614e60565b604052919050565b600082601f830112614f6857600080fd5b81356001600160401b03811115614f8157614f81614e60565b614f94601f8201601f1916602001614f27565b818152846020838601011115614fa957600080fd5b816020850160208301376000918101602001919091529392505050565b63ffffffff81168114611a1d57600080fd5b803561288581614fc6565b803561ffff8116811461288557600080fd5b80356001600160401b038116811461288557600080fd5b60006080828403121561501e57600080fd5b615026614e76565b905081356001600160401b038082111561503f57600080fd5b9083019060a0828603121561505357600080fd5b61505b614e9e565b82358281111561506a57600080fd5b83016060818803121561507c57600080fd5b615084614ec0565b813561508f81614e14565b8152602082810135858111156150a457600080fd5b6150b08a828601614f57565b8284015250604080840135868111156150c857600080fd5b6150d48b828701614f57565b82850152508285526150e7828801614fd8565b828601526150f6818801614e29565b8186015261510660608801614e29565b606086015261511760808801614e29565b608086015284885261512a828a01614fe3565b82890152615139818a01614fe3565b818901525050505050505061515060608301614ff5565b606082015292915050565b60006020828403121561516d57600080fd5b81356001600160401b038082111561518457600080fd5b90830190610120828603121561519957600080fd5b6151a1614ee2565b8235828111156151b057600080fd5b6151bc8782860161500c565b8252506151cb60208401614e29565b60208201526151dc60408401614e29565b60408201526151ed60608401614e29565b60608201526151fe60808401614e29565b608082015261520f60a08401614e29565b60a082015261522060c08401614e29565b60c082015261523160e08401614e29565b60e08201526101009150615246828401614e29565b91810191909152949350505050565b60008060006060848603121561526a57600080fd5b833561527581614e14565b9250602084013561528581614e14565b929592945050506040919091013590565b6000602082840312156152a857600080fd5b81356109a881614e14565b600080604083850312156152c657600080fd5b8235915060208301356152d881614e14565b809150509250929050565b600080604083850312156152f657600080fd5b823561530181614fc6565b915061530f60208401614fe3565b90509250929050565b60008060006060848603121561532d57600080fd5b83359250602084013561533f81614e14565b9150604084013561534f81614e14565b809150509250925092565b60006001600160401b0382111561537357615373614e60565b5060051b60200190565b6000602080838503121561539057600080fd5b82356001600160401b038111156153a657600080fd5b8301601f810185136153b757600080fd5b80356153ca6153c58261535a565b614f27565b81815260059190911b820183019083810190878311156153e957600080fd5b928401925b82841015614b5a578335825292840192908401906153ee565b6020808252825182820181905260009190848201906040850190845b8181101561543f57835183529284019291840191600101615423565b50909695505050505050565b6000806040838503121561545e57600080fd5b823561546981614e14565b915060208301356152d881614e14565b60008060006060848603121561548e57600080fd5b61549784614fe3565b92506154a560208501614fe3565b91506154b360408501614ff5565b90509250925092565b6000602082840312156154ce57600080fd5b5051919050565b634e487b7160e01b600052601160045260246000fd5b600082198211156154fe576154fe6154d5565b500190565b600181811c9082168061551757607f821691505b60208210810361553757634e487b7160e01b600052602260045260246000fd5b50919050565b6020808252818101527f4f776e61626c653a2063616c6c6572206973206e6f7420746865206f776e6572604082015260600190565b6001600160a01b03929092168252602082015260400190565b60006020828403121561559d57600080fd5b815180151581146109a857600080fd5b8051600281900b811461288557600080fd5b80516001600160801b038116811461288557600080fd5b80516003811061288557600080fd5b600082601f8301126155f657600080fd5b815160206156066153c58361535a565b82815260059290921b8401810191818101908684111561562557600080fd5b8286015b848110156157ab5780516001600160401b038082111561564857600080fd5b9088019060a0828b03601f1901121561566057600080fd5b615668614e9e565b8683015161567581614fc6565b80825250604083015187820152606083015160408201526080830151606082015260a0830151828111156156a857600080fd5b8084019350508a603f8401126156bd57600080fd5b8683015191506156cf6153c58361535a565b82815261012092830284016040019288820191908d8511156156f057600080fd5b6040860195505b848610156157955780868f03121561570e57600080fd5b615716614ee2565b61571f876155ad565b815261572c8b88016155ad565b8b82015261573c604088016155bf565b6040820152606087015160608201526080870151608082015260a087015160a082015260c087015160c082015260e087015160e082015261578061010088016155d6565b610100820152835294850194918901916156f7565b5060808301525085525050918301918301615629565b509695505050505050565b600080600080608085870312156157cc57600080fd5b84516157d781614e14565b8094505060208086015193506040808701516001600160401b03808211156157fe57600080fd5b818901915089601f83011261581257600080fd5b81516158206153c58261535a565b81815260069190911b8301850190858101908c83111561583f57600080fd5b938601935b828510156158885785858e03121561585c5760008081fd5b615864614f05565b855161586f81614e14565b8152858801518882015282529385019390860190615844565b60608c015190985095505050808411156158a157600080fd5b5050506158b0878288016155e5565b91505092959194509250565b634e487b7160e01b600052603260045260246000fd5b600080821280156001600160ff1b03849003851316156158f4576158f46154d5565b600160ff1b839003841281161561590d5761590d6154d5565b50500190565b600082821015615925576159256154d5565b500390565b6020808252602b908201527f496e697469616c697a61626c653a20636f6e7472616374206973206e6f74206960408201526a6e697469616c697a696e6760a81b606082015260800190565b6000600160ff1b820161598a5761598a6154d5565b5060000390565b634e487b7160e01b600052602160045260246000fd5b600381106159c557634e487b7160e01b600052602160045260246000fd5b9052565b60006101408201905084825263ffffffff84166020830152825160020b6040830152602083015160020b60608301526040830151600f0b60808301526060830151615a1f60a08401826001600160a01b03169052565b50608083015161ffff1660c08381019190915260a0840151151560e0840152830151615a4f6101008401826159a7565b5060e083015180151561012084015250949350505050565b60008060408385031215615a7a57600080fd5b505080516020909101519092909150565b600060ff821660ff8103615aa157615aa16154d5565b60010192915050565b6020808252600890820152674f766572666c6f7760c01b604082015260600190565b600060208284031215615ade57600080fd5b81516109a881614e14565b600061ffff808316818516808303821115615b0657615b066154d5565b01949350505050565b600061ffff83811690831681811015615b2a57615b2a6154d5565b039392505050565b6000816000190483118215151615615b4c57615b4c6154d5565b500290565b600082615b6e57634e487b7160e01b600052601260045260246000fd5b500490565b868152856020820152600060018060a01b03808716604084015260c06060840152615ba160c0840187614dbc565b94811660808401529290921660a09091015250949350505050565b60006001600160ff1b0381841382841380821686840486111615615be257615be26154d5565b600160ff1b6000871282811687830589121615615c0157615c016154d5565b60008712925087820587128484161615615c1d57615c1d6154d5565b87850587128184161615615c3357615c336154d5565b505050929093029392505050565b600060208284031215615c5357600080fd5b815160ff811681146109a857600080fd5b600181815b80851115615c9f578160001904821115615c8557615c856154d5565b80851615615c9257918102915b93841c9390800290615c69565b509250929050565b600082615cb6575060016109c3565b81615cc3575060006109c3565b8160018114615cd95760028114615ce357615cff565b60019150506109c3565b60ff841115615cf457615cf46154d5565b50506001821b6109c3565b5060208310610133831016604e8410600b8410161715615d22575081810a6109c3565b615d2c8383615c64565b8060001904821115615d4057615d406154d5565b029392505050565b60006109a860ff841683615ca7565b60008083128015600160ff1b850184121615615d7557615d756154d5565b6001600160ff1b0384018313811615615d9057615d906154d5565b50500390565b600081600f0b6f7fffffffffffffffffffffffffffffff198103615dbc57615dbc6154d5565b60000392915050565b600080600060608486031215615dda57600080fd5b615de3846155ad565b9250615df1602085016155ad565b91506154b3604085016155bf565b60006001600160801b0383811690831681811015615b2a57615b2a6154d5565b60006001600160801b03808316818516808303821115615b0657615b066154d5565b848152608060208201526000615e5a6080830186614dbc565b6001600160a01b039485166040840152929093166060909101529392505050565b60008251615e8d818460208701614d90565b919091019291505056fea164736f6c634300080d000a",
  "libraries": {
    "SwapManager": "0xa6fD01D0F8b366beDa3C35a6E8bDE296Da11a199",
    "Logic": "0xC88bBEa708B5748DAB3b6729f3Bfb16b1b6188f1"
  },
  "userdoc": {
    "kind": "user",
    "methods": {
      "changeFee(uint256)": {
        "notice": "changes the fee value for CRV yield generated"
      },
      "closeTokenPosition()": {
        "notice": "closes remaining token position (To be used when reset condition is hit)"
      },
      "extsload(bytes32)": {
        "notice": "Returns a value from the storage."
      },
      "extsload(bytes32[])": {
        "notice": "Returns multiple values from storage."
      },
      "getMarketValue(uint256)": {
        "notice": "compute notional value for given amount of LP tokens"
      },
      "getPriceX128()": {
        "notice": "gives x128 price of 1 tricrypto LP token"
      },
      "getVaultMarketValue()": {
        "notice": "Returns account market value of vault in USDC (settlement token)"
      },
      "grantAllowances()": {
        "notice": "grants one time max allowance to various third parties"
      },
      "rebalance()": {
        "notice": "Rebalance the vault assets"
      },
      "setCrvOracle(address)": {
        "notice": "Sets the CRV to USD oracle address"
      },
      "setCrvSwapSlippageTolerance(uint256)": {
        "notice": "Sets the max allowed slippage tolerance for CRV->WETH->USDT swap"
      },
      "setNotionalCrvHarvestThreshold(uint256)": {
        "notice": "Sets the minimum threshold to harvest CRV rewards"
      },
      "totalAssets()": {
        "notice": "returns the total vault asset balance + staked balance"
      },
      "updateDepositCap(uint256)": {
        "notice": "Set the deposit cap for the vault in asset amount"
      },
      "withdrawFees()": {
        "notice": "withdraw accumulated CRV fees"
      }
    },
    "version": 1
  },
  "storageLayout": {
    "storage": [
      {
        "astId": 217,
        "contract": "contracts/yieldStrategy/CurveYieldStrategy.sol:CurveYieldStrategy",
        "label": "_initialized",
        "offset": 0,
        "slot": "0",
        "type": "t_bool"
      },
      {
        "astId": 220,
        "contract": "contracts/yieldStrategy/CurveYieldStrategy.sol:CurveYieldStrategy",
        "label": "_initializing",
        "offset": 1,
        "slot": "0",
        "type": "t_bool"
      },
      {
        "astId": 1395,
        "contract": "contracts/yieldStrategy/CurveYieldStrategy.sol:CurveYieldStrategy",
        "label": "__gap",
        "offset": 0,
        "slot": "1",
        "type": "t_array(t_uint256)50_storage"
      },
      {
        "astId": 414,
        "contract": "contracts/yieldStrategy/CurveYieldStrategy.sol:CurveYieldStrategy",
        "label": "_balances",
        "offset": 0,
        "slot": "51",
        "type": "t_mapping(t_address,t_uint256)"
      },
      {
        "astId": 420,
        "contract": "contracts/yieldStrategy/CurveYieldStrategy.sol:CurveYieldStrategy",
        "label": "_allowances",
        "offset": 0,
        "slot": "52",
        "type": "t_mapping(t_address,t_mapping(t_address,t_uint256))"
      },
      {
        "astId": 422,
        "contract": "contracts/yieldStrategy/CurveYieldStrategy.sol:CurveYieldStrategy",
        "label": "_totalSupply",
        "offset": 0,
        "slot": "53",
        "type": "t_uint256"
      },
      {
        "astId": 424,
        "contract": "contracts/yieldStrategy/CurveYieldStrategy.sol:CurveYieldStrategy",
        "label": "_name",
        "offset": 0,
        "slot": "54",
        "type": "t_string_storage"
      },
      {
        "astId": 426,
        "contract": "contracts/yieldStrategy/CurveYieldStrategy.sol:CurveYieldStrategy",
        "label": "_symbol",
        "offset": 0,
        "slot": "55",
        "type": "t_string_storage"
      },
      {
        "astId": 1007,
        "contract": "contracts/yieldStrategy/CurveYieldStrategy.sol:CurveYieldStrategy",
        "label": "__gap",
        "offset": 0,
        "slot": "56",
        "type": "t_array(t_uint256)45_storage"
      },
      {
        "astId": 29948,
        "contract": "contracts/yieldStrategy/CurveYieldStrategy.sol:CurveYieldStrategy",
        "label": "asset",
        "offset": 0,
        "slot": "101",
        "type": "t_contract(IERC20Metadata)3643"
      },
      {
        "astId": 97,
        "contract": "contracts/yieldStrategy/CurveYieldStrategy.sol:CurveYieldStrategy",
        "label": "_owner",
        "offset": 0,
        "slot": "102",
        "type": "t_address"
      },
      {
        "astId": 209,
        "contract": "contracts/yieldStrategy/CurveYieldStrategy.sol:CurveYieldStrategy",
        "label": "__gap",
        "offset": 0,
        "slot": "103",
        "type": "t_array(t_uint256)49_storage"
      },
      {
        "astId": 24929,
        "contract": "contracts/yieldStrategy/CurveYieldStrategy.sol:CurveYieldStrategy",
        "label": "rageSettlementToken",
        "offset": 0,
        "slot": "152",
        "type": "t_contract(IERC20Metadata)3643"
      },
      {
        "astId": 24932,
        "contract": "contracts/yieldStrategy/CurveYieldStrategy.sol:CurveYieldStrategy",
        "label": "rageClearingHouse",
        "offset": 0,
        "slot": "153",
        "type": "t_contract(IClearingHouse)5742"
      },
      {
        "astId": 24935,
        "contract": "contracts/yieldStrategy/CurveYieldStrategy.sol:CurveYieldStrategy",
        "label": "rageCollateralToken",
        "offset": 0,
        "slot": "154",
        "type": "t_contract(ERC20PresetMinterPauser)3779"
      },
      {
        "astId": 24937,
        "contract": "contracts/yieldStrategy/CurveYieldStrategy.sol:CurveYieldStrategy",
        "label": "rageAccountNo",
        "offset": 0,
        "slot": "155",
        "type": "t_uint256"
      },
      {
        "astId": 24939,
        "contract": "contracts/yieldStrategy/CurveYieldStrategy.sol:CurveYieldStrategy",
        "label": "ethPoolId",
        "offset": 0,
        "slot": "156",
        "type": "t_uint32"
      },
      {
        "astId": 24942,
        "contract": "contracts/yieldStrategy/CurveYieldStrategy.sol:CurveYieldStrategy",
        "label": "rageVPool",
        "offset": 4,
        "slot": "156",
        "type": "t_contract(IUniswapV3Pool)22325"
      },
      {
        "astId": 24944,
        "contract": "contracts/yieldStrategy/CurveYieldStrategy.sol:CurveYieldStrategy",
        "label": "depositCap",
        "offset": 0,
        "slot": "157",
        "type": "t_uint256"
      },
      {
        "astId": 24946,
        "contract": "contracts/yieldStrategy/CurveYieldStrategy.sol:CurveYieldStrategy",
        "label": "lastRebalanceTS",
        "offset": 0,
        "slot": "158",
        "type": "t_uint64"
      },
      {
        "astId": 24948,
        "contract": "contracts/yieldStrategy/CurveYieldStrategy.sol:CurveYieldStrategy",
        "label": "rebalancePriceThresholdBps",
        "offset": 8,
        "slot": "158",
        "type": "t_uint16"
      },
      {
        "astId": 24950,
        "contract": "contracts/yieldStrategy/CurveYieldStrategy.sol:CurveYieldStrategy",
        "label": "rebalanceTimeThreshold",
        "offset": 10,
        "slot": "158",
        "type": "t_uint32"
      },
      {
        "astId": 24952,
        "contract": "contracts/yieldStrategy/CurveYieldStrategy.sol:CurveYieldStrategy",
        "label": "keeper",
        "offset": 0,
        "slot": "159",
        "type": "t_address"
      },
      {
        "astId": 27408,
        "contract": "contracts/yieldStrategy/CurveYieldStrategy.sol:CurveYieldStrategy",
        "label": "baseTickLower",
        "offset": 20,
        "slot": "159",
        "type": "t_int24"
      },
      {
        "astId": 27410,
        "contract": "contracts/yieldStrategy/CurveYieldStrategy.sol:CurveYieldStrategy",
        "label": "baseTickUpper",
        "offset": 23,
        "slot": "159",
        "type": "t_int24"
      },
      {
        "astId": 27412,
        "contract": "contracts/yieldStrategy/CurveYieldStrategy.sol:CurveYieldStrategy",
        "label": "baseLiquidity",
        "offset": 0,
        "slot": "160",
        "type": "t_uint128"
      },
      {
        "astId": 27414,
        "contract": "contracts/yieldStrategy/CurveYieldStrategy.sol:CurveYieldStrategy",
        "label": "isReset",
        "offset": 16,
        "slot": "160",
        "type": "t_bool"
      },
      {
        "astId": 27416,
        "contract": "contracts/yieldStrategy/CurveYieldStrategy.sol:CurveYieldStrategy",
        "label": "closePositionSlippageSqrtToleranceBps",
        "offset": 17,
        "slot": "160",
        "type": "t_uint16"
      },
      {
        "astId": 27418,
        "contract": "contracts/yieldStrategy/CurveYieldStrategy.sol:CurveYieldStrategy",
        "label": "resetPositionThresholdBps",
        "offset": 19,
        "slot": "160",
        "type": "t_uint16"
      },
      {
        "astId": 27420,
        "contract": "contracts/yieldStrategy/CurveYieldStrategy.sol:CurveYieldStrategy",
        "label": "minNotionalPositionToCloseThreshold",
        "offset": 21,
        "slot": "160",
        "type": "t_uint64"
      },
      {
        "astId": 30458,
        "contract": "contracts/yieldStrategy/CurveYieldStrategy.sol:CurveYieldStrategy",
        "label": "usdt",
        "offset": 0,
        "slot": "161",
        "type": "t_contract(IERC20)3537"
      },
      {
        "astId": 30461,
        "contract": "contracts/yieldStrategy/CurveYieldStrategy.sol:CurveYieldStrategy",
        "label": "weth",
        "offset": 0,
        "slot": "162",
        "type": "t_contract(IERC20)3537"
      },
      {
        "astId": 30464,
        "contract": "contracts/yieldStrategy/CurveYieldStrategy.sol:CurveYieldStrategy",
        "label": "usdc",
        "offset": 0,
        "slot": "163",
        "type": "t_contract(IERC20)3537"
      },
      {
        "astId": 30467,
        "contract": "contracts/yieldStrategy/CurveYieldStrategy.sol:CurveYieldStrategy",
        "label": "crvToken",
        "offset": 0,
        "slot": "164",
        "type": "t_contract(IERC20)3537"
      },
      {
        "astId": 30470,
        "contract": "contracts/yieldStrategy/CurveYieldStrategy.sol:CurveYieldStrategy",
        "label": "gauge",
        "offset": 0,
        "slot": "165",
        "type": "t_contract(ICurveGauge)26335"
      },
      {
        "astId": 30473,
        "contract": "contracts/yieldStrategy/CurveYieldStrategy.sol:CurveYieldStrategy",
        "label": "uniV3Router",
        "offset": 0,
        "slot": "166",
        "type": "t_contract(ISwapRouter)24841"
      },
      {
        "astId": 30476,
        "contract": "contracts/yieldStrategy/CurveYieldStrategy.sol:CurveYieldStrategy",
        "label": "lpPriceHolder",
        "offset": 0,
        "slot": "167",
        "type": "t_contract(ILPPriceGetter)26440"
      },
      {
        "astId": 30479,
        "contract": "contracts/yieldStrategy/CurveYieldStrategy.sol:CurveYieldStrategy",
        "label": "triCryptoPool",
        "offset": 0,
        "slot": "168",
        "type": "t_contract(ICurveStableSwap)26432"
      },
      {
        "astId": 30482,
        "contract": "contracts/yieldStrategy/CurveYieldStrategy.sol:CurveYieldStrategy",
        "label": "crvOracle",
        "offset": 0,
        "slot": "169",
        "type": "t_contract(AggregatorV3Interface)45"
      },
      {
        "astId": 30484,
        "contract": "contracts/yieldStrategy/CurveYieldStrategy.sol:CurveYieldStrategy",
        "label": "crvSwapSlippageTolerance",
        "offset": 0,
        "slot": "170",
        "type": "t_uint256"
      },
      {
        "astId": 30486,
        "contract": "contracts/yieldStrategy/CurveYieldStrategy.sol:CurveYieldStrategy",
        "label": "notionalCrvHarvestThreshold",
        "offset": 0,
        "slot": "171",
        "type": "t_uint256"
      },
      {
        "astId": 30492,
        "contract": "contracts/yieldStrategy/CurveYieldStrategy.sol:CurveYieldStrategy",
        "label": "FEE",
        "offset": 0,
        "slot": "172",
        "type": "t_uint256"
      }
    ],
    "types": {
      "t_address": {
        "encoding": "inplace",
        "label": "address",
        "numberOfBytes": "20"
      },
      "t_array(t_uint256)45_storage": {
        "base": "t_uint256",
        "encoding": "inplace",
        "label": "uint256[45]",
        "numberOfBytes": "1440"
      },
      "t_array(t_uint256)49_storage": {
        "base": "t_uint256",
        "encoding": "inplace",
        "label": "uint256[49]",
        "numberOfBytes": "1568"
      },
      "t_array(t_uint256)50_storage": {
        "base": "t_uint256",
        "encoding": "inplace",
        "label": "uint256[50]",
        "numberOfBytes": "1600"
      },
      "t_bool": {
        "encoding": "inplace",
        "label": "bool",
        "numberOfBytes": "1"
      },
      "t_contract(AggregatorV3Interface)45": {
        "encoding": "inplace",
        "label": "contract AggregatorV3Interface",
        "numberOfBytes": "20"
      },
      "t_contract(ERC20PresetMinterPauser)3779": {
        "encoding": "inplace",
        "label": "contract ERC20PresetMinterPauser",
        "numberOfBytes": "20"
      },
      "t_contract(IClearingHouse)5742": {
        "encoding": "inplace",
        "label": "contract IClearingHouse",
        "numberOfBytes": "20"
      },
      "t_contract(ICurveGauge)26335": {
        "encoding": "inplace",
        "label": "contract ICurveGauge",
        "numberOfBytes": "20"
      },
      "t_contract(ICurveStableSwap)26432": {
        "encoding": "inplace",
        "label": "contract ICurveStableSwap",
        "numberOfBytes": "20"
      },
      "t_contract(IERC20)3537": {
        "encoding": "inplace",
        "label": "contract IERC20",
        "numberOfBytes": "20"
      },
      "t_contract(IERC20Metadata)3643": {
        "encoding": "inplace",
        "label": "contract IERC20Metadata",
        "numberOfBytes": "20"
      },
      "t_contract(ILPPriceGetter)26440": {
        "encoding": "inplace",
        "label": "contract ILPPriceGetter",
        "numberOfBytes": "20"
      },
      "t_contract(ISwapRouter)24841": {
        "encoding": "inplace",
        "label": "contract ISwapRouter",
        "numberOfBytes": "20"
      },
      "t_contract(IUniswapV3Pool)22325": {
        "encoding": "inplace",
        "label": "contract IUniswapV3Pool",
        "numberOfBytes": "20"
      },
      "t_int24": {
        "encoding": "inplace",
        "label": "int24",
        "numberOfBytes": "3"
      },
      "t_mapping(t_address,t_mapping(t_address,t_uint256))": {
        "encoding": "mapping",
        "key": "t_address",
        "label": "mapping(address => mapping(address => uint256))",
        "numberOfBytes": "32",
        "value": "t_mapping(t_address,t_uint256)"
      },
      "t_mapping(t_address,t_uint256)": {
        "encoding": "mapping",
        "key": "t_address",
        "label": "mapping(address => uint256)",
        "numberOfBytes": "32",
        "value": "t_uint256"
      },
      "t_string_storage": {
        "encoding": "bytes",
        "label": "string",
        "numberOfBytes": "32"
      },
      "t_uint128": {
        "encoding": "inplace",
        "label": "uint128",
        "numberOfBytes": "16"
      },
      "t_uint16": {
        "encoding": "inplace",
        "label": "uint16",
        "numberOfBytes": "2"
      },
      "t_uint256": {
        "encoding": "inplace",
        "label": "uint256",
        "numberOfBytes": "32"
      },
      "t_uint32": {
        "encoding": "inplace",
        "label": "uint32",
        "numberOfBytes": "4"
      },
      "t_uint64": {
        "encoding": "inplace",
        "label": "uint64",
        "numberOfBytes": "8"
      }
    }
  }
}