{
  "address": "0x95299F9956491E198181E0b2C285EB1D80E1e0F7",
  "abi": [
    {
      "inputs": [],
      "name": "decimals",
      "outputs": [
        {
          "internalType": "uint8",
          "name": "",
          "type": "uint8"
        }
      ],
      "stateMutability": "pure",
      "type": "function"
    },
    {
      "inputs": [],
      "name": "description",
      "outputs": [
        {
          "internalType": "string",
          "name": "",
          "type": "string"
        }
      ],
      "stateMutability": "pure",
      "type": "function"
    },
    {
      "inputs": [
        {
          "internalType": "uint80",
          "name": "",
          "type": "uint80"
        }
      ],
      "name": "getRoundData",
      "outputs": [
        {
          "internalType": "uint80",
          "name": "roundId",
          "type": "uint80"
        },
        {
          "internalType": "int256",
          "name": "answer",
          "type": "int256"
        },
        {
          "internalType": "uint256",
          "name": "startedAt",
          "type": "uint256"
        },
        {
          "internalType": "uint256",
          "name": "updatedAt",
          "type": "uint256"
        },
        {
          "internalType": "uint80",
          "name": "answeredInRound",
          "type": "uint80"
        }
      ],
      "stateMutability": "view",
      "type": "function"
    },
    {
      "inputs": [],
      "name": "latestRoundData",
      "outputs": [
        {
          "internalType": "uint80",
          "name": "roundId",
          "type": "uint80"
        },
        {
          "internalType": "int256",
          "name": "answer",
          "type": "int256"
        },
        {
          "internalType": "uint256",
          "name": "startedAt",
          "type": "uint256"
        },
        {
          "internalType": "uint256",
          "name": "updatedAt",
          "type": "uint256"
        },
        {
          "internalType": "uint80",
          "name": "answeredInRound",
          "type": "uint80"
        }
      ],
      "stateMutability": "view",
      "type": "function"
    },
    {
      "inputs": [],
      "name": "price",
      "outputs": [
        {
          "internalType": "int256",
          "name": "",
          "type": "int256"
        }
      ],
      "stateMutability": "view",
      "type": "function"
    },
    {
      "inputs": [
        {
          "internalType": "int256",
          "name": "_price",
          "type": "int256"
        }
      ],
      "name": "setPrice",
      "outputs": [],
      "stateMutability": "nonpayable",
      "type": "function"
    },
    {
      "inputs": [],
      "name": "version",
      "outputs": [
        {
          "internalType": "uint256",
          "name": "",
          "type": "uint256"
        }
      ],
      "stateMutability": "pure",
      "type": "function"
    }
  ],
  "transactionHash": "0x5f040ef9d55dca46cd2d9619a26ce3757a2460c5172289b79c13e7a5a5fde95c",
  "args": [],
  "numDeployments": 1,
  "solcInputHash": "cf7073ec454a5a5838e49df3c3f07138",
  "bytecode": "0x6080604052630595ace760005534801561001857600080fd5b50610221806100286000396000f3fe608060405234801561001057600080fd5b506004361061007d5760003560e01c80639a6fc8f51161005b5780639a6fc8f5146100d2578063a035b1fe1461011c578063f7a3080614610125578063feaf968c1461013a57600080fd5b8063313ce5671461008257806354fd4d50146100965780637284e416146100a7575b600080fd5b604051600881526020015b60405180910390f35b60045b60405190815260200161008d565b604080518082018252600981526810d495880bc81554d160ba1b6020820152905161008d9190610173565b6100e56100e03660046101c8565b610148565b6040805169ffffffffffffffffffff968716815260208101959095528401929092526060830152909116608082015260a00161008d565b61009960005481565b6101386101333660046101fb565b600055565b005b6000546001904280836100e5565b6000806000806000610161600054600191429081908490565b939a9299509097509550909350915050565b600060208083528351808285015260005b818110156101a057858101830151858201604001528201610184565b818111156101b2576000604083870101525b50601f01601f1916929092016040019392505050565b6000602082840312156101da57600080fd5b813569ffffffffffffffffffff811681146101f457600080fd5b9392505050565b60006020828403121561020d57600080fd5b503591905056fea164736f6c634300080e000a",
  "userdoc": {
    "kind": "user",
    "methods": {},
    "version": 1
  },
  "storageLayout": {
    "storage": [
      {
        "astId": 33285,
        "contract": "contracts/test/ChainlinkMock.sol:ChainlinkMock",
        "label": "price",
        "offset": 0,
        "slot": "0",
        "type": "t_int256"
      }
    ],
    "types": {
      "t_int256": {
        "encoding": "inplace",
        "label": "int256",
        "numberOfBytes": "32"
      }
    }
  }
}