{
  "address": "0xb20e70a8fc122aDbeaa48f06C522BEc22c95Ce60",
  "abi": [
    {
      "inputs": [
        {
          "internalType": "uint256",
          "name": "depositCap",
          "type": "uint256"
        },
        {
          "internalType": "uint256",
          "name": "depositAmount",
          "type": "uint256"
        }
      ],
      "name": "BV_DepositCap",
      "type": "error"
    },
    {
      "inputs": [],
      "name": "BV_InvalidRebalance",
      "type": "error"
    },
    {
      "inputs": [],
      "name": "BV_NoPositionToRebalance",
      "type": "error"
    },
    {
      "inputs": [
        {
          "internalType": "address",
          "name": "msgSender",
          "type": "address"
        },
        {
          "internalType": "address",
          "name": "authorisedKeeperAddress",
          "type": "address"
        }
      ],
      "name": "BV_OnlyKeeperAllowed",
      "type": "error"
    },
    {
      "inputs": [],
      "name": "CYS_INVALID_FEES",
      "type": "error"
    },
    {
      "inputs": [],
      "name": "ETRS_INVALID_CLOSE",
      "type": "error"
    },
    {
      "anonymous": false,
      "inputs": [
        {
          "indexed": true,
          "internalType": "address",
          "name": "owner",
          "type": "address"
        },
        {
          "indexed": true,
          "internalType": "address",
          "name": "spender",
          "type": "address"
        },
        {
          "indexed": false,
          "internalType": "uint256",
          "name": "value",
          "type": "uint256"
        }
      ],
      "name": "Approval",
      "type": "event"
    },
    {
      "anonymous": false,
      "inputs": [
        {
          "indexed": true,
          "internalType": "address",
          "name": "caller",
          "type": "address"
        },
        {
          "indexed": true,
          "internalType": "address",
          "name": "owner",
          "type": "address"
        },
        {
          "indexed": false,
          "internalType": "uint256",
          "name": "assets",
          "type": "uint256"
        },
        {
          "indexed": false,
          "internalType": "uint256",
          "name": "shares",
          "type": "uint256"
        }
      ],
      "name": "Deposit",
      "type": "event"
    },
    {
      "anonymous": false,
      "inputs": [
        {
          "indexed": true,
          "internalType": "address",
          "name": "previousOwner",
          "type": "address"
        },
        {
          "indexed": true,
          "internalType": "address",
          "name": "newOwner",
          "type": "address"
        }
      ],
      "name": "OwnershipTransferred",
      "type": "event"
    },
    {
      "anonymous": false,
      "inputs": [
        {
          "indexed": true,
          "internalType": "address",
          "name": "from",
          "type": "address"
        },
        {
          "indexed": true,
          "internalType": "address",
          "name": "to",
          "type": "address"
        },
        {
          "indexed": false,
          "internalType": "uint256",
          "name": "value",
          "type": "uint256"
        }
      ],
      "name": "Transfer",
      "type": "event"
    },
    {
      "anonymous": false,
      "inputs": [
        {
          "indexed": true,
          "internalType": "address",
          "name": "caller",
          "type": "address"
        },
        {
          "indexed": true,
          "internalType": "address",
          "name": "receiver",
          "type": "address"
        },
        {
          "indexed": true,
          "internalType": "address",
          "name": "owner",
          "type": "address"
        },
        {
          "indexed": false,
          "internalType": "uint256",
          "name": "assets",
          "type": "uint256"
        },
        {
          "indexed": false,
          "internalType": "uint256",
          "name": "shares",
          "type": "uint256"
        }
      ],
      "name": "Withdraw",
      "type": "event"
    },
    {
      "inputs": [],
      "name": "FEE",
      "outputs": [
        {
          "internalType": "uint256",
          "name": "",
          "type": "uint256"
        }
      ],
      "stateMutability": "view",
      "type": "function"
    },
    {
      "inputs": [],
      "name": "MAX_BPS",
      "outputs": [
        {
          "internalType": "uint256",
          "name": "",
          "type": "uint256"
        }
      ],
      "stateMutability": "view",
      "type": "function"
    },
    {
      "inputs": [
        {
          "internalType": "address",
          "name": "owner",
          "type": "address"
        },
        {
          "internalType": "address",
          "name": "spender",
          "type": "address"
        }
      ],
      "name": "allowance",
      "outputs": [
        {
          "internalType": "uint256",
          "name": "",
          "type": "uint256"
        }
      ],
      "stateMutability": "view",
      "type": "function"
    },
    {
      "inputs": [
        {
          "internalType": "address",
          "name": "spender",
          "type": "address"
        },
        {
          "internalType": "uint256",
          "name": "amount",
          "type": "uint256"
        }
      ],
      "name": "approve",
      "outputs": [
        {
          "internalType": "bool",
          "name": "",
          "type": "bool"
        }
      ],
      "stateMutability": "nonpayable",
      "type": "function"
    },
    {
      "inputs": [],
      "name": "asset",
      "outputs": [
        {
          "internalType": "contract IERC20Metadata",
          "name": "",
          "type": "address"
        }
      ],
      "stateMutability": "view",
      "type": "function"
    },
    {
      "inputs": [
        {
          "internalType": "address",
          "name": "account",
          "type": "address"
        }
      ],
      "name": "balanceOf",
      "outputs": [
        {
          "internalType": "uint256",
          "name": "",
          "type": "uint256"
        }
      ],
      "stateMutability": "view",
      "type": "function"
    },
    {
      "inputs": [],
      "name": "baseLiquidity",
      "outputs": [
        {
          "internalType": "uint128",
          "name": "",
          "type": "uint128"
        }
      ],
      "stateMutability": "view",
      "type": "function"
    },
    {
      "inputs": [],
      "name": "baseTickLower",
      "outputs": [
        {
          "internalType": "int24",
          "name": "",
          "type": "int24"
        }
      ],
      "stateMutability": "view",
      "type": "function"
    },
    {
      "inputs": [],
      "name": "baseTickUpper",
      "outputs": [
        {
          "internalType": "int24",
          "name": "",
          "type": "int24"
        }
      ],
      "stateMutability": "view",
      "type": "function"
    },
    {
      "inputs": [
        {
          "internalType": "uint256",
          "name": "bps",
          "type": "uint256"
        }
      ],
      "name": "changeFee",
      "outputs": [],
      "stateMutability": "nonpayable",
      "type": "function"
    },
    {
      "inputs": [],
      "name": "closeTokenPosition",
      "outputs": [],
      "stateMutability": "nonpayable",
      "type": "function"
    },
    {
      "inputs": [
        {
          "internalType": "uint256",
          "name": "shares",
          "type": "uint256"
        }
      ],
      "name": "convertToAssets",
      "outputs": [
        {
          "internalType": "uint256",
          "name": "",
          "type": "uint256"
        }
      ],
      "stateMutability": "view",
      "type": "function"
    },
    {
      "inputs": [
        {
          "internalType": "uint256",
          "name": "assets",
          "type": "uint256"
        }
      ],
      "name": "convertToShares",
      "outputs": [
        {
          "internalType": "uint256",
          "name": "",
          "type": "uint256"
        }
      ],
      "stateMutability": "view",
      "type": "function"
    },
    {
      "inputs": [],
      "name": "decimals",
      "outputs": [
        {
          "internalType": "uint8",
          "name": "",
          "type": "uint8"
        }
      ],
      "stateMutability": "view",
      "type": "function"
    },
    {
      "inputs": [
        {
          "internalType": "address",
          "name": "spender",
          "type": "address"
        },
        {
          "internalType": "uint256",
          "name": "subtractedValue",
          "type": "uint256"
        }
      ],
      "name": "decreaseAllowance",
      "outputs": [
        {
          "internalType": "bool",
          "name": "",
          "type": "bool"
        }
      ],
      "stateMutability": "nonpayable",
      "type": "function"
    },
    {
      "inputs": [
        {
          "internalType": "uint256",
          "name": "amount",
          "type": "uint256"
        },
        {
          "internalType": "address",
          "name": "to",
          "type": "address"
        }
      ],
      "name": "deposit",
      "outputs": [
        {
          "internalType": "uint256",
          "name": "shares",
          "type": "uint256"
        }
      ],
      "stateMutability": "nonpayable",
      "type": "function"
    },
    {
      "inputs": [],
      "name": "depositCap",
      "outputs": [
        {
          "internalType": "uint256",
          "name": "",
          "type": "uint256"
        }
      ],
      "stateMutability": "view",
      "type": "function"
    },
    {
      "inputs": [
        {
          "internalType": "bytes32",
          "name": "slot",
          "type": "bytes32"
        }
      ],
      "name": "extsload",
      "outputs": [
        {
          "internalType": "bytes32",
          "name": "val",
          "type": "bytes32"
        }
      ],
      "stateMutability": "view",
      "type": "function"
    },
    {
      "inputs": [
        {
          "internalType": "bytes32[]",
          "name": "slots",
          "type": "bytes32[]"
        }
      ],
      "name": "extsload",
      "outputs": [
        {
          "internalType": "bytes32[]",
          "name": "",
          "type": "bytes32[]"
        }
      ],
      "stateMutability": "view",
      "type": "function"
    },
    {
      "inputs": [
        {
          "internalType": "uint256",
          "name": "amount",
          "type": "uint256"
        }
      ],
      "name": "getMarketValue",
      "outputs": [
        {
          "internalType": "uint256",
          "name": "marketValue",
          "type": "uint256"
        }
      ],
      "stateMutability": "view",
      "type": "function"
    },
    {
      "inputs": [],
      "name": "getPriceX128",
      "outputs": [
        {
          "internalType": "uint256",
          "name": "priceX128",
          "type": "uint256"
        }
      ],
      "stateMutability": "view",
      "type": "function"
    },
    {
      "inputs": [],
      "name": "getVaultMarketValue",
      "outputs": [
        {
          "internalType": "int256",
          "name": "vaultMarketValue",
          "type": "int256"
        }
      ],
      "stateMutability": "view",
      "type": "function"
    },
    {
      "inputs": [],
      "name": "grantAllowances",
      "outputs": [],
      "stateMutability": "nonpayable",
      "type": "function"
    },
    {
      "inputs": [
        {
          "internalType": "address",
          "name": "spender",
          "type": "address"
        },
        {
          "internalType": "uint256",
          "name": "addedValue",
          "type": "uint256"
        }
      ],
      "name": "increaseAllowance",
      "outputs": [
        {
          "internalType": "bool",
          "name": "",
          "type": "bool"
        }
      ],
      "stateMutability": "nonpayable",
      "type": "function"
    },
    {
      "inputs": [
        {
          "components": [
            {
              "components": [
                {
                  "components": [
                    {
                      "components": [
                        {
                          "internalType": "contract IERC20Metadata",
                          "name": "asset",
                          "type": "address"
                        },
                        {
                          "internalType": "string",
                          "name": "name",
                          "type": "string"
                        },
                        {
                          "internalType": "string",
                          "name": "symbol",
                          "type": "string"
                        }
                      ],
                      "internalType": "struct RageERC4626.RageERC4626InitParams",
                      "name": "rageErc4626InitParams",
                      "type": "tuple"
                    },
                    {
                      "internalType": "uint32",
                      "name": "ethPoolId",
                      "type": "uint32"
                    },
                    {
                      "internalType": "address",
                      "name": "rageClearingHouse",
                      "type": "address"
                    },
                    {
                      "internalType": "address",
                      "name": "rageCollateralToken",
                      "type": "address"
                    },
                    {
                      "internalType": "address",
                      "name": "rageSettlementToken",
                      "type": "address"
                    }
                  ],
                  "internalType": "struct BaseVault.BaseVaultInitParams",
                  "name": "baseVaultInitParams",
                  "type": "tuple"
                },
                {
                  "internalType": "uint16",
                  "name": "closePositionSlippageSqrtToleranceBps",
                  "type": "uint16"
                },
                {
                  "internalType": "uint16",
                  "name": "resetPositionThresholdBps",
                  "type": "uint16"
                },
                {
                  "internalType": "uint64",
                  "name": "minNotionalPositionToCloseThreshold",
                  "type": "uint64"
                }
              ],
              "internalType": "struct EightyTwentyRangeStrategyVault.EightyTwentyRangeStrategyVaultInitParams",
              "name": "eightyTwentyRangeStrategyVaultInitParams",
              "type": "tuple"
            },
            {
              "internalType": "contract IERC20",
              "name": "usdt",
              "type": "address"
            },
            {
              "internalType": "contract IERC20",
              "name": "usdc",
              "type": "address"
            },
            {
              "internalType": "contract IERC20",
              "name": "weth",
              "type": "address"
            },
            {
              "internalType": "contract IERC20",
              "name": "crvToken",
              "type": "address"
            },
            {
              "internalType": "contract ICurveGauge",
              "name": "gauge",
              "type": "address"
            },
            {
              "internalType": "contract ISwapRouter",
              "name": "uniV3Router",
              "type": "address"
            },
            {
              "internalType": "contract ILPPriceGetter",
              "name": "lpPriceHolder",
              "type": "address"
            },
            {
              "internalType": "contract ICurveStableSwap",
              "name": "tricryptoPool",
              "type": "address"
            }
          ],
          "internalType": "struct CurveYieldStrategy.CurveYieldStrategyInitParams",
          "name": "curveYieldStrategyInitParams",
          "type": "tuple"
        }
      ],
      "name": "initialize",
      "outputs": [],
      "stateMutability": "nonpayable",
      "type": "function"
    },
    {
      "inputs": [],
      "name": "isReset",
      "outputs": [
        {
          "internalType": "bool",
          "name": "",
          "type": "bool"
        }
      ],
      "stateMutability": "view",
      "type": "function"
    },
    {
      "inputs": [
        {
          "internalType": "int256",
          "name": "vaultMarketValue",
          "type": "int256"
        }
      ],
      "name": "isValidRebalance",
      "outputs": [
        {
          "internalType": "bool",
          "name": "isValid",
          "type": "bool"
        }
      ],
      "stateMutability": "view",
      "type": "function"
    },
    {
      "inputs": [],
      "name": "keeper",
      "outputs": [
        {
          "internalType": "address",
          "name": "",
          "type": "address"
        }
      ],
      "stateMutability": "view",
      "type": "function"
    },
    {
      "inputs": [],
      "name": "lastRebalanceTS",
      "outputs": [
        {
          "internalType": "uint64",
          "name": "",
          "type": "uint64"
        }
      ],
      "stateMutability": "view",
      "type": "function"
    },
    {
      "inputs": [
        {
          "internalType": "address",
          "name": "",
          "type": "address"
        }
      ],
      "name": "maxDeposit",
      "outputs": [
        {
          "internalType": "uint256",
          "name": "",
          "type": "uint256"
        }
      ],
      "stateMutability": "view",
      "type": "function"
    },
    {
      "inputs": [
        {
          "internalType": "address",
          "name": "",
          "type": "address"
        }
      ],
      "name": "maxMint",
      "outputs": [
        {
          "internalType": "uint256",
          "name": "",
          "type": "uint256"
        }
      ],
      "stateMutability": "view",
      "type": "function"
    },
    {
      "inputs": [
        {
          "internalType": "address",
          "name": "owner",
          "type": "address"
        }
      ],
      "name": "maxRedeem",
      "outputs": [
        {
          "internalType": "uint256",
          "name": "",
          "type": "uint256"
        }
      ],
      "stateMutability": "view",
      "type": "function"
    },
    {
      "inputs": [
        {
          "internalType": "address",
          "name": "owner",
          "type": "address"
        }
      ],
      "name": "maxWithdraw",
      "outputs": [
        {
          "internalType": "uint256",
          "name": "",
          "type": "uint256"
        }
      ],
      "stateMutability": "view",
      "type": "function"
    },
    {
      "inputs": [
        {
          "internalType": "uint256",
          "name": "shares",
          "type": "uint256"
        },
        {
          "internalType": "address",
          "name": "to",
          "type": "address"
        }
      ],
      "name": "mint",
      "outputs": [
        {
          "internalType": "uint256",
          "name": "amount",
          "type": "uint256"
        }
      ],
      "stateMutability": "nonpayable",
      "type": "function"
    },
    {
      "inputs": [],
      "name": "name",
      "outputs": [
        {
          "internalType": "string",
          "name": "",
          "type": "string"
        }
      ],
      "stateMutability": "view",
      "type": "function"
    },
    {
      "inputs": [],
      "name": "owner",
      "outputs": [
        {
          "internalType": "address",
          "name": "",
          "type": "address"
        }
      ],
      "stateMutability": "view",
      "type": "function"
    },
    {
      "inputs": [
        {
          "internalType": "uint256",
          "name": "assets",
          "type": "uint256"
        }
      ],
      "name": "previewDeposit",
      "outputs": [
        {
          "internalType": "uint256",
          "name": "",
          "type": "uint256"
        }
      ],
      "stateMutability": "view",
      "type": "function"
    },
    {
      "inputs": [
        {
          "internalType": "uint256",
          "name": "shares",
          "type": "uint256"
        }
      ],
      "name": "previewMint",
      "outputs": [
        {
          "internalType": "uint256",
          "name": "",
          "type": "uint256"
        }
      ],
      "stateMutability": "view",
      "type": "function"
    },
    {
      "inputs": [
        {
          "internalType": "uint256",
          "name": "shares",
          "type": "uint256"
        }
      ],
      "name": "previewRedeem",
      "outputs": [
        {
          "internalType": "uint256",
          "name": "",
          "type": "uint256"
        }
      ],
      "stateMutability": "view",
      "type": "function"
    },
    {
      "inputs": [
        {
          "internalType": "uint256",
          "name": "assets",
          "type": "uint256"
        }
      ],
      "name": "previewWithdraw",
      "outputs": [
        {
          "internalType": "uint256",
          "name": "",
          "type": "uint256"
        }
      ],
      "stateMutability": "view",
      "type": "function"
    },
    {
      "inputs": [],
      "name": "rageAccountNo",
      "outputs": [
        {
          "internalType": "uint256",
          "name": "",
          "type": "uint256"
        }
      ],
      "stateMutability": "view",
      "type": "function"
    },
    {
      "inputs": [],
      "name": "rebalance",
      "outputs": [],
      "stateMutability": "nonpayable",
      "type": "function"
    },
    {
      "inputs": [],
      "name": "rebalancePriceThresholdBps",
      "outputs": [
        {
          "internalType": "uint16",
          "name": "",
          "type": "uint16"
        }
      ],
      "stateMutability": "view",
      "type": "function"
    },
    {
      "inputs": [],
      "name": "rebalanceTimeThreshold",
      "outputs": [
        {
          "internalType": "uint32",
          "name": "",
          "type": "uint32"
        }
      ],
      "stateMutability": "view",
      "type": "function"
    },
    {
      "inputs": [
        {
          "internalType": "uint256",
          "name": "shares",
          "type": "uint256"
        },
        {
          "internalType": "address",
          "name": "to",
          "type": "address"
        },
        {
          "internalType": "address",
          "name": "from",
          "type": "address"
        }
      ],
      "name": "redeem",
      "outputs": [
        {
          "internalType": "uint256",
          "name": "amount",
          "type": "uint256"
        }
      ],
      "stateMutability": "nonpayable",
      "type": "function"
    },
    {
      "inputs": [],
      "name": "renounceOwnership",
      "outputs": [],
      "stateMutability": "nonpayable",
      "type": "function"
    },
    {
      "inputs": [
        {
          "internalType": "contract AggregatorV3Interface",
          "name": "_crvOracle",
          "type": "address"
        }
      ],
      "name": "setCrvOracle",
      "outputs": [],
      "stateMutability": "nonpayable",
      "type": "function"
    },
    {
      "inputs": [
        {
          "internalType": "uint256",
          "name": "_slippageTolerance",
          "type": "uint256"
        }
      ],
      "name": "setCrvSwapSlippageTolerance",
      "outputs": [],
      "stateMutability": "nonpayable",
      "type": "function"
    },
    {
      "inputs": [
        {
          "internalType": "uint16",
          "name": "_closePositionSlippageSqrtToleranceBps",
          "type": "uint16"
        },
        {
          "internalType": "uint16",
          "name": "_resetPositionThresholdBps",
          "type": "uint16"
        },
        {
          "internalType": "uint64",
          "name": "_minNotionalPositionToCloseThreshold",
          "type": "uint64"
        }
      ],
      "name": "setEightTwentyParams",
      "outputs": [],
      "stateMutability": "nonpayable",
      "type": "function"
    },
    {
      "inputs": [
        {
          "internalType": "address",
          "name": "newKeeperAddress",
          "type": "address"
        }
      ],
      "name": "setKeeper",
      "outputs": [],
      "stateMutability": "nonpayable",
      "type": "function"
    },
    {
      "inputs": [
        {
          "internalType": "uint256",
          "name": "_notionalCrvHarvestThreshold",
          "type": "uint256"
        }
      ],
      "name": "setNotionalCrvHarvestThreshold",
      "outputs": [],
      "stateMutability": "nonpayable",
      "type": "function"
    },
    {
      "inputs": [
        {
          "internalType": "uint32",
          "name": "_rebalanceTimeThreshold",
          "type": "uint32"
        },
        {
          "internalType": "uint16",
          "name": "_rebalancePriceThresholdBps",
          "type": "uint16"
        }
      ],
      "name": "setRebalanceThreshold",
      "outputs": [],
      "stateMutability": "nonpayable",
      "type": "function"
    },
    {
      "inputs": [],
      "name": "symbol",
      "outputs": [
        {
          "internalType": "string",
          "name": "",
          "type": "string"
        }
      ],
      "stateMutability": "view",
      "type": "function"
    },
    {
      "inputs": [],
      "name": "totalAssets",
      "outputs": [
        {
          "internalType": "uint256",
          "name": "",
          "type": "uint256"
        }
      ],
      "stateMutability": "view",
      "type": "function"
    },
    {
      "inputs": [],
      "name": "totalSupply",
      "outputs": [
        {
          "internalType": "uint256",
          "name": "",
          "type": "uint256"
        }
      ],
      "stateMutability": "view",
      "type": "function"
    },
    {
      "inputs": [
        {
          "internalType": "address",
          "name": "to",
          "type": "address"
        },
        {
          "internalType": "uint256",
          "name": "amount",
          "type": "uint256"
        }
      ],
      "name": "transfer",
      "outputs": [
        {
          "internalType": "bool",
          "name": "",
          "type": "bool"
        }
      ],
      "stateMutability": "nonpayable",
      "type": "function"
    },
    {
      "inputs": [
        {
          "internalType": "address",
          "name": "from",
          "type": "address"
        },
        {
          "internalType": "address",
          "name": "to",
          "type": "address"
        },
        {
          "internalType": "uint256",
          "name": "amount",
          "type": "uint256"
        }
      ],
      "name": "transferFrom",
      "outputs": [
        {
          "internalType": "bool",
          "name": "",
          "type": "bool"
        }
      ],
      "stateMutability": "nonpayable",
      "type": "function"
    },
    {
      "inputs": [
        {
          "internalType": "address",
          "name": "newOwner",
          "type": "address"
        }
      ],
      "name": "transferOwnership",
      "outputs": [],
      "stateMutability": "nonpayable",
      "type": "function"
    },
    {
      "inputs": [
        {
          "internalType": "uint256",
          "name": "newDepositCap",
          "type": "uint256"
        }
      ],
      "name": "updateDepositCap",
      "outputs": [],
      "stateMutability": "nonpayable",
      "type": "function"
    },
    {
      "inputs": [
        {
          "internalType": "uint256",
          "name": "amount",
          "type": "uint256"
        },
        {
          "internalType": "address",
          "name": "to",
          "type": "address"
        },
        {
          "internalType": "address",
          "name": "from",
          "type": "address"
        }
      ],
      "name": "withdraw",
      "outputs": [
        {
          "internalType": "uint256",
          "name": "shares",
          "type": "uint256"
        }
      ],
      "stateMutability": "nonpayable",
      "type": "function"
    },
    {
      "inputs": [],
      "name": "withdrawFees",
      "outputs": [],
      "stateMutability": "nonpayable",
      "type": "function"
    },
    {
      "inputs": [],
      "name": "R",
      "type": "error"
    },
    {
      "inputs": [],
      "name": "T",
      "type": "error"
    },
    {
      "anonymous": false,
      "inputs": [
        {
          "indexed": true,
          "internalType": "address",
          "name": "oracle",
          "type": "address"
        }
      ],
      "name": "CrvOracleUpdated",
      "type": "event"
    },
    {
      "anonymous": false,
      "inputs": [
        {
          "indexed": false,
          "internalType": "uint256",
          "name": "tolerance",
          "type": "uint256"
        }
      ],
      "name": "CrvSwapSlippageToleranceUpdated",
      "type": "event"
    },
    {
      "anonymous": false,
      "inputs": [
        {
          "indexed": false,
          "internalType": "uint256",
          "name": "depositCap",
          "type": "uint256"
        }
      ],
      "name": "DepositCapUpdated",
      "type": "event"
    },
    {
      "anonymous": false,
      "inputs": [
        {
          "indexed": false,
          "internalType": "uint16",
          "name": "closePositionSlippageSqrtToleranceBps",
          "type": "uint16"
        },
        {
          "indexed": false,
          "internalType": "uint16",
          "name": "resetPositionThresholdBps",
          "type": "uint16"
        },
        {
          "indexed": false,
          "internalType": "uint64",
          "name": "minNotionalPositionToCloseThreshold",
          "type": "uint64"
        }
      ],
      "name": "EightyTwentyParamsUpdated",
      "type": "event"
    },
    {
      "anonymous": false,
      "inputs": [
        {
          "indexed": false,
          "internalType": "uint256",
          "name": "fee",
          "type": "uint256"
        }
      ],
      "name": "FeesUpdated",
      "type": "event"
    },
    {
      "anonymous": false,
      "inputs": [
        {
          "indexed": false,
          "internalType": "uint256",
          "name": "total",
          "type": "uint256"
        }
      ],
      "name": "FeesWithdrawn",
      "type": "event"
    },
    {
      "anonymous": false,
      "inputs": [
        {
          "indexed": false,
          "internalType": "uint256",
          "name": "crvAmount",
          "type": "uint256"
        }
      ],
      "name": "Harvested",
      "type": "event"
    },
    {
      "anonymous": false,
      "inputs": [
        {
          "indexed": false,
          "internalType": "address",
          "name": "keeper",
          "type": "address"
        }
      ],
      "name": "KeeperUpdated",
      "type": "event"
    },
    {
      "anonymous": false,
      "inputs": [
        {
          "indexed": false,
          "internalType": "uint256",
          "name": "threshold",
          "type": "uint256"
        }
      ],
      "name": "NotionalCrvHarvestThresholdUpdated",
      "type": "event"
    },
    {
      "anonymous": false,
      "inputs": [],
      "name": "Rebalance",
      "type": "event"
    },
    {
      "anonymous": false,
      "inputs": [
        {
          "indexed": false,
          "internalType": "uint32",
          "name": "rebalanceTimeThreshold",
          "type": "uint32"
        },
        {
          "indexed": false,
          "internalType": "uint16",
          "name": "rebalancePriceThresholdBps",
          "type": "uint16"
        }
      ],
      "name": "RebalanceThresholdUpdated",
      "type": "event"
    },
    {
      "anonymous": false,
      "inputs": [
        {
          "indexed": false,
          "internalType": "uint256",
          "name": "amount",
          "type": "uint256"
        },
        {
          "indexed": true,
          "internalType": "address",
          "name": "depositor",
          "type": "address"
        }
      ],
      "name": "Staked",
      "type": "event"
    },
    {
      "anonymous": false,
      "inputs": [
        {
          "indexed": false,
          "internalType": "uint256",
          "name": "lpPrice",
          "type": "uint256"
        }
      ],
      "name": "StateInfo",
      "type": "event"
    },
    {
      "anonymous": false,
      "inputs": [],
      "name": "TokenPositionClosed",
      "type": "event"
    },
    {
      "inputs": [],
      "name": "CYS_NEGATIVE_CRV_PRICE",
      "type": "error"
    }
  ],
  "transactionHash": "0xaeed1571dc567a0b97bee3446c963857fb03ecd4854697f75c59346d6a9bc58b",
  "args": [],
  "numDeployments": 2,
  "solcInputHash": "dc4542551f5c8976e4dbdbc877131696",
  "bytecode": "0x60806040526103e860ac5534801561001657600080fd5b50615ea280620000276000396000f3fe608060405234801561001057600080fd5b50600436106103af5760003560e01c80637999e84e116101f4578063ba0876521161011a578063dbd5edc7116100ad578063ef8b30f71161007c578063ef8b30f714610821578063f2fde38b14610834578063fd967f4714610847578063ff9281531461085057600080fd5b8063dbd5edc7146107e9578063dd62ed3e146107f2578063e23c090814610805578063e66488531461081857600080fd5b8063c6e6f592116100e9578063c6e6f59214610790578063ce96cb77146107a3578063d905777e146107b6578063dbd035ff146107c957600080fd5b8063ba0876521461076c578063bf9571f11461077f578063c57981b514610787578063c63d75b61461052957600080fd5b806395d89b4111610192578063b3d7f6b911610161578063b3d7f6b91461071f578063b460af9414610732578063b6cdc2d514610745578063b81aecd91461075957600080fd5b806395d89b41146106de578063a457c2d7146106e6578063a9059cbb146106f9578063aced16611461070c57600080fd5b80638d315d7b116101ce5780638d315d7b1461069f5780638da5cb5b146106a75780638fcda03e146106b857806394bf804d146106cb57600080fd5b80637999e84e1461067c5780637d7c2a1c146106845780638121305e1461068c57600080fd5b80633f6be822116102d9578063554070bc116102775780636e553f65116102465780636e553f651461062557806370a0823114610638578063715018a614610661578063748747e61461066957600080fd5b8063554070bc146105c357806357b082fc146105d6578063620bc225146105ea5780636a1db1bf1461061257600080fd5b8063476343ee116102b3578063476343ee146105515780634afe813e146105595780634cdad506146105855780635053145f1461059857600080fd5b80633f6be822146104fe578063402d267d146105295780634441a2ce1461053e57600080fd5b8063171e5e8811610351578063313ce56711610320578063313ce567146104a957806338d52e0f146104b857806339509351146104e35780633d672a45146104f657600080fd5b8063171e5e881461046957806318160ddd1461047c5780631e2eaeaf1461048457806323b872dd1461049657600080fd5b8063095ea7b31161038d578063095ea7b3146103f757806309a68a921461041a5780630a28a47714610441578063142dbe691461045457600080fd5b806301e1d114146103b457806306fdde03146103cf57806307a2d13a146103e4575b600080fd5b6103bc610863565b6040519081526020015b60405180910390f35b6103d76108e8565b6040516103c69190614de6565b6103bc6103f2366004614df9565b61097a565b61040a610405366004614e32565b6109af565b60405190151581526020016103c6565b609f5461042e90600160b81b900460020b81565b60405160029190910b81526020016103c6565b6103bc61044f366004614df9565b6109c9565b610467610462366004615159565b6109f1565b005b610467610477366004614df9565b610ab9565b6035546103bc565b6103bc610492366004614df9565b5490565b61040a6104a4366004615253565b610b1f565b604051601281526020016103c6565b6065546104cb906001600160a01b031681565b6040516001600160a01b0390911681526020016103c6565b61040a6104f1366004614e32565b610b43565b6103bc610b82565b609e54610511906001600160401b031681565b6040516001600160401b0390911681526020016103c6565b6103bc610537366004615294565b5060001990565b61046761054c366004614df9565b610c08565b610467610c67565b609e5461057090600160501b900463ffffffff1681565b60405163ffffffff90911681526020016103c6565b6103bc610593366004614df9565b610da5565b60a0546105ab906001600160801b031681565b6040516001600160801b0390911681526020016103c6565b6103bc6105d1366004614df9565b610db0565b60a05461040a90600160801b900460ff1681565b609e546105ff90600160401b900461ffff1681565b60405161ffff90911681526020016103c6565b610467610620366004614df9565b610e3b565b6103bc6106333660046152b1565b610ebd565b6103bc610646366004615294565b6001600160a01b031660009081526033602052604090205490565b610467610ed1565b610467610677366004615294565b610f07565b610467610f7f565b610467611062565b61046761069a366004614df9565b611174565b6103bc6111d3565b6066546001600160a01b03166104cb565b6104676106c63660046152e1565b611264565b6103bc6106d93660046152b1565b611310565b6103d7611324565b61040a6106f4366004614e32565b611333565b61040a610707366004614e32565b6113c5565b609f546104cb906001600160a01b031681565b6103bc61072d366004614df9565b6113d3565b6103bc610740366004615316565b6113fa565b609f5461042e90600160a01b900460020b81565b61040a610767366004614df9565b611425565b6103bc61077a366004615316565b61143e565b61046761156a565b6103bc60ac5481565b6103bc61079e366004614df9565b6119f4565b6103bc6107b1366004615294565b611a1c565b6103bc6107c4366004615294565b611a3e565b6107dc6107d736600461537b565b611a5c565b6040516103c69190615405565b6103bc609d5481565b6103bc610800366004615449565b611a8a565b610467610813366004615294565b611ab5565b6103bc609b5481565b6103bc61082f366004614df9565b611b29565b610467610842366004615294565b611b34565b6103bc61271081565b61046761085e366004615477565b611bcc565b600061086d611c99565b6065546040516370a0823160e01b81523060048201526001600160a01b03909116906370a0823190602401602060405180830381865afa1580156108b5573d6000803e3d6000fd5b505050506040513d601f19601f820116820180604052508101906108d991906154ba565b6108e391906154e9565b905090565b6060603680546108f790615501565b80601f016020809104026020016040519081016040528092919081815260200182805461092390615501565b80156109705780601f1061094557610100808354040283529160200191610970565b820191906000526020600020905b81548152906001019060200180831161095357829003601f168201915b5050505050905090565b60008061098660355490565b905080156109a6576109a1610999610863565b849083611ce2565b6109a8565b825b9392505050565b6000336109bd818585611d01565b60019150505b92915050565b6000806109d560355490565b905080156109a6576109a1816109e9610863565b859190611e25565b600054610100900460ff16610a0c5760005460ff1615610a10565b303b155b610a785760405162461bcd60e51b815260206004820152602e60248201527f496e697469616c697a61626c653a20636f6e747261637420697320616c72656160448201526d191e481a5b9a5d1a585b1a5e995960921b60648201526084015b60405180910390fd5b600054610100900460ff16158015610a9a576000805461ffff19166101011790555b610aa382611e53565b8015610ab5576000805461ff00191690555b5050565b6066546001600160a01b03163314610ae35760405162461bcd60e51b8152600401610a6f9061553b565b609d8190556040518181527f333b26cca69716ad4680ddb07663f5bfb4f06045671f336af9a83690a3ae00f9906020015b60405180910390a150565b600033610b2d858285611f36565b610b38858585611fb0565b506001949350505050565b3360008181526034602090815260408083206001600160a01b03871684529091528120549091906109bd9082908690610b7d9087906154e9565b611d01565b60a7546040516001620e8cb360e11b031981526001600160a01b03909116600482015260009073C88bBEa708B5748DAB3b6729f3Bfb16b1b6188f19063ffe2e69a90602401602060405180830381865af4158015610be4573d6000803e3d6000fd5b505050506040513d601f19601f820116820180604052508101906108e391906154ba565b6066546001600160a01b03163314610c325760405162461bcd60e51b8152600401610a6f9061553b565b60ab8190556040518181527fbaf704dc582d2430f506b48fda242593270667e77656cf3ba2f77a630594466390602001610b14565b6066546001600160a01b03163314610c915760405162461bcd60e51b8152600401610a6f9061553b565b60a4546040516370a0823160e01b81523060048201526000916001600160a01b0316906370a0823190602401602060405180830381865afa158015610cda573d6000803e3d6000fd5b505050506040513d601f19601f82011682018060405250810190610cfe91906154ba565b60a45460405163a9059cbb60e01b81529192506001600160a01b03169063a9059cbb90610d319033908590600401615570565b6020604051808303816000875af1158015610d50573d6000803e3d6000fd5b505050506040513d601f19601f82011682018060405250810190610d749190615589565b506040518181527f9800e6f57aeb4360eaa72295a820a4293e1e66fbfcabcd8874ae141304a76deb90602001610b14565b60006109c38261097a565b60a754604051637a5fda7960e01b8152600481018390526001600160a01b03909116602482015260009073C88bBEa708B5748DAB3b6729f3Bfb16b1b6188f190637a5fda79906044015b602060405180830381865af4158015610e17573d6000803e3d6000fd5b505050506040513d601f19601f820116820180604052508101906109c391906154ba565b6066546001600160a01b03163314610e655760405162461bcd60e51b8152600401610a6f9061553b565b612710811115610e8857604051630709dc8560e31b815260040160405180910390fd5b60ac8190556040518181527f9fe6eeb0f0541c644a56c67efeb872dbadd803a60b909d7dde1b35a3fe230b0e90602001610b14565b6000610ec761217e565b6109a88383612186565b6066546001600160a01b03163314610efb5760405162461bcd60e51b8152600401610a6f9061553b565b610f056000612243565b565b6066546001600160a01b03163314610f315760405162461bcd60e51b8152600401610a6f9061553b565b609f80546001600160a01b0319166001600160a01b0383169081179091556040519081527f0425bcd291db1d48816f2a98edc7ecaf6dd5c64b973d9e4b3b6b750763dc6c2e90602001610b14565b609f546001600160a01b03163314610fbf57609f546040516369958c7360e01b81523360048201526001600160a01b039091166024820152604401610a6f565b609954609b54604051630ed586bf60e21b815260048101919091526060916001600160a01b031690633b561afc90602401600060405180830381865afa15801561100d573d6000803e3d6000fd5b505050506040513d6000823e601f3d908101601f1916820160405261103591908101906157b4565b805190945061105f935084925060009150611052576110526158ba565b6020026020010151612295565b50565b609f546001600160a01b031633146110a257609f546040516369958c7360e01b81523360048201526001600160a01b039091166024820152604401610a6f565b60006110ac6111d3565b90506110b781611425565b6110d457604051636fa1adc360e01b815260040160405180910390fd5b6060806110df61237e565b80519193509150600003611106576040516301d84bb360e11b815260040160405180910390fd5b61112a8160008151811061111c5761111c6158ba565b60200260200101518461249d565b609e805467ffffffffffffffff1916426001600160401b03161790556040517ff57243a1fddfdc9fa2c7de26cc3503b1b94cfd4368d2b82d0970bfbb2fbce3a490600090a1505050565b6066546001600160a01b0316331461119e5760405162461bcd60e51b8152600401610a6f9061553b565b60aa8190556040518181527f77bc5ea45f61ae2f050ec3af00a3ebcbeff6082d4c04905ebb7e01ff797dacf390602001610b14565b609954609b54604051631c7a838360e31b815260048101919091526000916001600160a01b03169063e3d41c1890602401602060405180830381865afa158015611221573d6000803e3d6000fd5b505050506040513d601f19601f8201168201806040525081019061124591906154ba565b905061125a6112556105d1610863565b6125d6565b6108e390826158d0565b6066546001600160a01b0316331461128e5760405162461bcd60e51b8152600401610a6f9061553b565b609e805465ffffffffffff60401b1916600160501b63ffffffff851690810269ffff0000000000000000191691909117600160401b61ffff8516908102919091179092556040805191825260208201929092527f9af00b5d3a5006b7a36e8fe4a8f67a155aa897efbee30711b474e18eed221555910160405180910390a15050565b600061131a61217e565b6109a883836125ff565b6060603780546108f790615501565b3360008181526034602090815260408083206001600160a01b0387168452909152812054909190838110156113b85760405162461bcd60e51b815260206004820152602560248201527f45524332303a2064656372656173656420616c6c6f77616e63652062656c6f77604482015264207a65726f60d81b6064820152608401610a6f565b610b388286868403611d01565b6000336109bd818585611fb0565b6000806113df60355490565b905080156109a6576109a16113f2610863565b849083611e25565b600061140461217e565b600061140f8561267f565b905061141c818585612692565b95945050505050565b600061142f61274d565b806109c357506109c38261277a565b600061144861217e565b336001600160a01b038316146114805760006114648333611a8a565b9050600019811461147e5761147e8333610b7d8885615911565b505b61148984610da5565b9050806000036114c95760405162461bcd60e51b815260206004820152600b60248201526a5a45524f5f41535345545360a81b6044820152606401610a6f565b60006114d48261267f565b90508181146114ec578091506114e9816109c9565b94505b6114f68286612888565b61150083866128a2565b60408051838152602081018790526001600160a01b03808616929087169133917ffbde797d201c681b91056529119e0b02407c7bb96a4a2c75c01fc9667232c8db910160405180910390a4606554611562906001600160a01b031685846129f0565b509392505050565b6066546001600160a01b031633146115945760405162461bcd60e51b8152600401610a6f9061553b565b61159c612a46565b60655460a55460405163095ea7b360e01b81526001600160a01b039283169263095ea7b3926115d49291169060001990600401615570565b6020604051808303816000875af11580156115f3573d6000803e3d6000fd5b505050506040513d601f19601f820116820180604052508101906116179190615589565b5060655460a85460405163095ea7b360e01b81526001600160a01b039283169263095ea7b3926116509291169060001990600401615570565b6020604051808303816000875af115801561166f573d6000803e3d6000fd5b505050506040513d601f19601f820116820180604052508101906116939190615589565b5060a35460a65460405163095ea7b360e01b81526001600160a01b039283169263095ea7b3926116cb92911690600090600401615570565b6020604051808303816000875af11580156116ea573d6000803e3d6000fd5b505050506040513d601f19601f8201168201806040525081019061170e9190615589565b5060a15460a65460405163095ea7b360e01b81526001600160a01b039283169263095ea7b39261174692911690600090600401615570565b6020604051808303816000875af1158015611765573d6000803e3d6000fd5b505050506040513d601f19601f820116820180604052508101906117899190615589565b5060a15460a85460405163095ea7b360e01b81526001600160a01b039283169263095ea7b3926117c192911690600090600401615570565b6020604051808303816000875af11580156117e0573d6000803e3d6000fd5b505050506040513d601f19601f820116820180604052508101906118049190615589565b5060a35460a65460405163095ea7b360e01b81526001600160a01b039283169263095ea7b39261183d9291169060001990600401615570565b6020604051808303816000875af115801561185c573d6000803e3d6000fd5b505050506040513d601f19601f820116820180604052508101906118809190615589565b5060a15460a65460405163095ea7b360e01b81526001600160a01b039283169263095ea7b3926118b99291169060001990600401615570565b6020604051808303816000875af11580156118d8573d6000803e3d6000fd5b505050506040513d601f19601f820116820180604052508101906118fc9190615589565b5060a15460a85460405163095ea7b360e01b81526001600160a01b039283169263095ea7b3926119359291169060001990600401615570565b6020604051808303816000875af1158015611954573d6000803e3d6000fd5b505050506040513d601f19601f820116820180604052508101906119789190615589565b5060a45460a65460405163095ea7b360e01b81526001600160a01b039283169263095ea7b3926119b19291169060001990600401615570565b6020604051808303816000875af11580156119d0573d6000803e3d6000fd5b505050506040513d601f19601f8201168201806040525081019061105f9190615589565b600080611a0060355490565b905080156109a6576109a181611a14610863565b859190611ce2565b6001600160a01b0381166000908152603360205260408120546109c39061097a565b6001600160a01b0381166000908152603360205260408120546109c3565b606060208251028201602001602083015b81811015611a82578051548152602001611a6d565b509192915050565b6001600160a01b03918216600090815260346020908152604080832093909416825291909152205490565b6066546001600160a01b03163314611adf5760405162461bcd60e51b8152600401610a6f9061553b565b60a980546001600160a01b0319166001600160a01b0383169081179091556040517f37e6fa50467241d1adf59e9c0011228de6a03425a9efdea6d2d3662c77eaba5390600090a250565b60006109c3826119f4565b6066546001600160a01b03163314611b5e5760405162461bcd60e51b8152600401610a6f9061553b565b6001600160a01b038116611bc35760405162461bcd60e51b815260206004820152602660248201527f4f776e61626c653a206e6577206f776e657220697320746865207a65726f206160448201526564647265737360d01b6064820152608401610a6f565b61105f81612243565b6066546001600160a01b03163314611bf65760405162461bcd60e51b8152600401610a6f9061553b565b60a0805463ffffffff60881b1916600160881b61ffff86811691820261ffff60981b191692909217600160981b9286169283021767ffffffffffffffff60a81b1916600160a81b6001600160401b03861690810291909117909355604080519182526020820192909252908101919091527f4a9bdb3bab9a7cff0ea02e1428a3901c565a962f3b99b7d8d2b02787ca4f93f99060600160405180910390a1505050565b60a5546040516370a0823160e01b81523060048201526000916001600160a01b0316906370a0823190602401602060405180830381865afa158015610be4573d6000803e3d6000fd5b828202811515841585830485141716611cfa57600080fd5b0492915050565b6001600160a01b038316611d635760405162461bcd60e51b8152602060048201526024808201527f45524332303a20617070726f76652066726f6d20746865207a65726f206164646044820152637265737360e01b6064820152608401610a6f565b6001600160a01b038216611dc45760405162461bcd60e51b815260206004820152602260248201527f45524332303a20617070726f766520746f20746865207a65726f206164647265604482015261737360f01b6064820152608401610a6f565b6001600160a01b0383811660008181526034602090815260408083209487168084529482529182902085905590518481527f8c5be1e5ebec7d5bd14f71427d1e84f3dd0314c0f7b2291e5b200ac8c7c3b925910160405180910390a3505050565b828202811515841585830485141716611e3d57600080fd5b6001826001830304018115150290509392505050565b600054610100900460ff16611e7a5760405162461bcd60e51b8152600401610a6f90615928565b8051611e8590612afa565b602081015160a180546001600160a01b03199081166001600160a01b0393841617909155604083015160a380548316918416919091179055606083015160a28054831691841691909117905560a083015160a580548316918416919091179055608083015160a48054831691841691909117905560c083015160a68054831691841691909117905561010083015160a88054831691841691909117905560e09092015160a780549093169116179055565b6000611f428484611a8a565b90506000198114611faa5781811015611f9d5760405162461bcd60e51b815260206004820152601d60248201527f45524332303a20696e73756666696369656e7420616c6c6f77616e63650000006044820152606401610a6f565b611faa8484848403611d01565b50505050565b6001600160a01b0383166120145760405162461bcd60e51b815260206004820152602560248201527f45524332303a207472616e736665722066726f6d20746865207a65726f206164604482015264647265737360d81b6064820152608401610a6f565b6001600160a01b0382166120765760405162461bcd60e51b815260206004820152602360248201527f45524332303a207472616e7366657220746f20746865207a65726f206164647260448201526265737360e81b6064820152608401610a6f565b6001600160a01b038316600090815260336020526040902054818110156120ee5760405162461bcd60e51b815260206004820152602660248201527f45524332303a207472616e7366657220616d6f756e7420657863656564732062604482015265616c616e636560d01b6064820152608401610a6f565b6001600160a01b038085166000908152603360205260408082208585039055918516815290812080548492906121259084906154e9565b92505081905550826001600160a01b0316846001600160a01b03167fddf252ad1be2c89b69c2b068fc378daa952ba7f163c4a11628f55a4df523b3ef8460405161217191815260200190565b60405180910390a3611faa565b610ab561237e565b600061219183611b29565b9050806000036121d15760405162461bcd60e51b815260206004820152600b60248201526a5a45524f5f53484152455360a81b6044820152606401610a6f565b6065546121e9906001600160a01b0316333086612bd8565b6121f38282612c10565b60408051848152602081018390526001600160a01b0384169133917fdcbc1c05240f31ff3ad067ef1ee35ce4997762752e3a095284754544f4c709d7910160405180910390a36109c38382612cef565b606680546001600160a01b038381166001600160a01b0319831681179093556040519116919082907f8be0079c531659141344cd1fd0a4f28419497f9722a3daafe3b4186f6b6457e090600090a35050565b60a054600160801b900460ff166122bf57604051632f0c3e3160e11b815260040160405180910390fd5b600081604001516122cf90615973565b905060006122db612d47565b905060006122e98383612e08565b60a054909150600160a81b90046001600160401b0316811115612341576000612323848460a060119054906101000a900461ffff16612e36565b50905080840361233b5760a0805460ff60801b191690555b5061234f565b60a0805460ff60801b191690555b6040517f9a94a63b02012d6753ed863b962aceb756429b4265fc327391dd05fb24d4502b90600090a150505050565b609954609b54604051630ed586bf60e21b815260609283926001600160a01b0390911691633b561afc916123b89160040190815260200190565b600060405180830381865afa1580156123d5573d6000803e3d6000fd5b505050506040513d6000823e601f3d908101601f191682016040526123fd91908101906157b4565b90945092506000915061241090506111d3565b905061241a612f75565b61242483826131ed565b6065546040516370a0823160e01b8152306004820152612498916001600160a01b0316906370a08231906024015b602060405180830381865afa15801561246f573d6000803e3d6000fd5b505050506040513d601f19601f8201168201806040525081019061249391906154ba565b6134ee565b509091565b6124a681613584565b60a08054911515600160801b0260ff60801b1990921691909117905560006124cd8261364d565b905060005b60028160ff1610156125b557818160ff16600281106124f3576124f36158ba565b602002015160400151600f0b156125b557609954609b54609c546001600160a01b039092169163c7505c15919063ffffffff168560ff86166002811061253b5761253b6158ba565b60200201516040518463ffffffff1660e01b815260040161255e939291906159c7565b60408051808303816000875af115801561257c573d6000803e3d6000fd5b505050506040513d601f19601f820116820180604052508101906125a09190615a65565b505080806125ad90615a89565b9150506124d2565b5060a054600160801b900460ff16156125d1576125d183612295565b505050565b6000600160ff1b82106125fb5760405162461bcd60e51b8152600401610a6f90615aa8565b5090565b600061260a836113d3565b606554909150612625906001600160a01b0316333084612bd8565b61262f8284612c10565b60408051828152602081018590526001600160a01b0384169133917fdcbc1c05240f31ff3ad067ef1ee35ce4997762752e3a095284754544f4c709d7910160405180910390a36109c38184612cef565b60006109c361268c610863565b83613852565b600061269d846109c9565b9050336001600160a01b038316146126d75760006126bb8333611a8a565b905060001981146126d5576126d58333610b7d8585615911565b505b6126e18482612888565b6126eb82826128a2565b60408051858152602081018390526001600160a01b03808516929086169133917ffbde797d201c681b91056529119e0b02407c7bb96a4a2c75c01fc9667232c8db910160405180910390a46065546109a8906001600160a01b031684866129f0565b609e5460009063ffffffff600160501b82041690612774906001600160401b031642615911565b11905090565b609c5460995460009173C88bBEa708B5748DAB3b6729f3Bfb16b1b6188f19163757d5fd6916001600160a01b0364010000000082048116926127c89291169063ffffffff9081169061398b16565b609e54609f5460405160e086901b6001600160e01b03191681526001600160a01b03909416600485015263ffffffff9092166024840152600160401b900461ffff166044830152600160a01b8104600290810b6064840152600160b81b909104900b608482015260a401602060405180830381865af415801561284f573d6000803e3d6000fd5b505050506040513d601f19601f820116820180604052508101906128739190615589565b905080612883576109c382613584565b919050565b612899612893610863565b83613a1b565b610ab582613b2f565b6001600160a01b0382166129025760405162461bcd60e51b815260206004820152602160248201527f45524332303a206275726e2066726f6d20746865207a65726f206164647265736044820152607360f81b6064820152608401610a6f565b6001600160a01b038216600090815260336020526040902054818110156129765760405162461bcd60e51b815260206004820152602260248201527f45524332303a206275726e20616d6f756e7420657863656564732062616c616e604482015261636560f01b6064820152608401610a6f565b6001600160a01b03831660009081526033602052604081208383039055603580548492906129a5908490615911565b90915550506040518281526000906001600160a01b038516907fddf252ad1be2c89b69c2b068fc378daa952ba7f163c4a11628f55a4df523b3ef9060200160405180910390a3505050565b6125d18363a9059cbb60e01b8484604051602401612a0f929190615570565b60408051601f198184030181529190526020810180516001600160e01b03166001600160e01b031990931692909217909152613c33565b609a5460995460405163095ea7b360e01b81526001600160a01b039283169263095ea7b392612a7e9291169060001990600401615570565b6020604051808303816000875af1158015612a9d573d6000803e3d6000fd5b505050506040513d601f19601f82011682018060405250810190612ac19190615589565b5060985460995460405163095ea7b360e01b81526001600160a01b039283169263095ea7b3926119b19291169060001990600401615570565b600054610100900460ff16612b215760405162461bcd60e51b8152600401610a6f90615928565b8051612b2c90613d05565b60208181015160a0805460408086015160608088015163ffffffff60881b19909416600160881b61ffff97881690810261ffff60981b191691909117600160981b979093169687029290921767ffffffffffffffff60a81b1916600160a81b6001600160401b0390951694850217909455815190815294850193909352918301919091527f4a9bdb3bab9a7cff0ea02e1428a3901c565a962f3b99b7d8d2b02787ca4f93f99101610b14565b6040516001600160a01b0380851660248301528316604482015260648101829052611faa9085906323b872dd60e01b90608401612a0f565b6001600160a01b038216612c665760405162461bcd60e51b815260206004820152601f60248201527f45524332303a206d696e7420746f20746865207a65726f2061646472657373006044820152606401610a6f565b8060356000828254612c7891906154e9565b90915550506001600160a01b03821660009081526033602052604081208054839290612ca59084906154e9565b90915550506040518181526001600160a01b038316906000907fddf252ad1be2c89b69c2b068fc378daa952ba7f163c4a11628f55a4df523b3ef9060200160405180910390a35050565b609d54612cfa610863565b1115612d2d57609d54612d0b610863565b6040516301b25d0360e41b815260048101929092526024820152604401610a6f565b612d3682613ed0565b610ab5612d41610863565b83613f77565b609c5460995460009173C88bBEa708B5748DAB3b6729f3Bfb16b1b6188f19163e54c8fd8916001600160a01b036401000000008204811692612d959291169063ffffffff9081169061398b16565b6040516001600160e01b031960e085901b1681526001600160a01b03909216600483015263ffffffff166024820152604401602060405180830381865af4158015612de4573d6000803e3d6000fd5b505050506040513d601f19601f820116820180604052508101906108e39190615aca565b60006109a8612e316001600160a01b038416600160601b612e2a8783836141b8565b91906141b8565b6141fa565b600080600080861315612e7857612e71612e6c612e5586612710615ae7565b6001600160a01b0388169061ffff16612710614205565b6142b7565b9050612e8d565b612e8a612e6c612e5586612710615b0d565b90505b6040805160a0810182528781526001600160a01b0383811660208301908152600083850181815260016060860190815260808601928352609954609b54609c5498516383d778eb60e01b8152600481019190915263ffffffff90981660248901528651604489015293518516606488015290511515608487015251151560a486015251151560c485015291929116906383d778eb9060e40160408051808303816000875af1158015612f43573d6000803e3d6000fd5b505050506040513d601f19601f82011682018060405250810190612f679190615a65565b909890975095505050505050565b60a55460a454604051630cff5bdd60e21b81523060048201526001600160a01b03918216602482015260009291909116906333fd6f7490604401602060405180830381865afa158015612fcc573d6000803e3d6000fd5b505050506040513d601f19601f82011682018060405250810190612ff091906154ba565b905060ab5481111561105f57600061271060ac548361300f9190615b30565b6130199190615b4f565b6130239083615911565b60a554604051634274debf60e11b81523060048201529192506001600160a01b0316906384e9bd7e90602401600060405180830381600087803b15801561306957600080fd5b505af115801561307d573d6000803e3d6000fd5b505050507f8e55ccfc9778ff8eba1646d765cf1982537ce0f9257054a17b48aad745250183826040516130b291815260200190565b60405180910390a160a45460a25460a1546040516bffffffffffffffffffffffff19606094851b8116602083015261017760eb1b603483015292841b83166037820152607d60ea1b604b820152921b16604e82015260009060620160408051808303601f190181529082905260aa5460a95460a65460a854631a6dbd7760e21b865293955073a6fD01D0F8b366beDa3C35a6E8bDE296Da11a199946369b6f5dc9461317994899490936001600160a01b03918216938a939183169290911690600401615b71565b602060405180830381865af4158015613196573d6000803e3d6000fd5b505050506040513d601f19601f820116820180604052508101906131ba91906154ba565b506065546040516370a0823160e01b81523060048201526125d1916001600160a01b0316906370a0823190602401612452565b609954609b54604051631c7a838360e31b815260048101919091526000916001600160a01b03169063e3d41c1890602401602060405180830381865afa15801561323b573d6000803e3d6000fd5b505050506040513d601f19601f8201168201806040525081019061325f91906154ba565b905060008113156132f257609954609b546001600160a01b0390911690639cd1be589061328e84600019615bba565b6040516001600160e01b031960e085901b16815260048101929092526024820152604401600060405180830381600087803b1580156132cc57600080fd5b505af11580156132e0573d6000803e3d6000fd5b505050506132ed816142e0565b613393565b600081121561339357600061331161330c83600019615bba565b6143df565b9050801561339157609954609b546001600160a01b0390911690639cd1be589061333a846125d6565b6040516001600160e01b031960e085901b16815260048101929092526024820152604401600060405180830381600087803b15801561337857600080fd5b505af115801561338c573d6000803e3d6000fd5b505050505b505b8251600090156134e2576000846000815181106133b2576133b26158ba565b602002602001015190506134d0609860009054906101000a90046001600160a01b03166001600160a01b031663313ce5676040518163ffffffff1660e01b8152600401602060405180830381865afa158015613412573d6000803e3d6000fd5b505050506040513d601f19601f820116820180604052508101906134369190615c3f565b61344190600a615d46565b609a60009054906101000a90046001600160a01b03166001600160a01b031663313ce5676040518163ffffffff1660e01b8152600401602060405180830381865afa158015613494573d6000803e3d6000fd5b505050506040513d601f19601f820116820180604052508101906134b89190615c3f565b6134c390600a615d46565b612e2a84602001516125d6565b6134da9085615d55565b9150506134e5565b50815b611faa81614464565b60a55460405163b6b55f2560e01b8152600481018390526001600160a01b039091169063b6b55f2590602401600060405180830381600087803b15801561353457600080fd5b505af1158015613548573d6000803e3d6000fd5b50506040518381523392507f6e47dcdd359b6cd69456f0f97d394bd4540a2e7c4adc1b9da076859df53756c7915060200160405180910390a250565b609954609b54609c54604051633524324160e11b8152600481019290925263ffffffff16602482015260009182916001600160a01b0390911690636a48648290604401602060405180830381865afa1580156135e4573d6000803e3d6000fd5b505050506040513d601f19601f8201168201806040525081019061360891906154ba565b9050600061361d82613618612d47565b612e08565b60a05490915061364590600160981b900461ffff1661271061363e876141fa565b9190614205565b109392505050565b613655614c8c565b60a0546000906001600160801b0316156136d357609f5460a0546136ab91600160a01b8104600290810b92600160b81b909204900b9061369d906001600160801b0316614759565b6136a690615d94565b614787565b828260ff16600281106136c0576136c06158ba565b6020020152806136cf81615a89565b9150505b60006136dd612d47565b604051630ad6ed5b60e41b81526001600160a01b038216600482015260248101869052620c3500604482015290915060009073C88bBEa708B5748DAB3b6729f3Bfb16b1b6188f19063ad6ed5b090606401606060405180830381865af415801561374b573d6000803e3d6000fd5b505050506040513d601f19601f8201168201806040525081019061376f9190615dc3565b609f805465ffffffffffff60a01b1916600160b81b62ffffff9485160262ffffff60a01b191617600160a01b94909316939093029190911790915560a0549091506001600160801b031615806137ce575060a054600160801b900460ff165b156137ef5760a080546001600160801b0319166001600160801b0383161790555b609f5460a05461382391600160a01b8104600290810b92600160b81b909204900b906136a6906001600160801b0316614759565b848460ff1660028110613838576138386158ba565b60200201528261384781615a89565b935050505050919050565b60008061385d612d47565b609954609b54609c54604051633524324160e11b8152600481019290925263ffffffff1660248201529192506000916001600160a01b0390911690636a48648290604401602060405180830381865afa1580156138be573d6000803e3d6000fd5b505050506040513d601f19601f820116820180604052508101906138e291906154ba565b905060006138f18286886141b8565b6138fa90615973565b905060006139088385612e08565b60a054909150600160a81b90046001600160401b031681111561397d576000613942838660a060119054906101000a900461ffff16612e36565b50905082810361395457869550613977565b600061396a6139628a6125d6565b8390876147ff565b61397390615973565b9650505b50613981565b8594505b5050505092915050565b600080836001600160a01b0316631e2eaeaf6139a68561485c565b6040518263ffffffff1660e01b81526004016139c491815260200190565b602060405180830381865afa1580156139e1573d6000803e3d6000fd5b505050506040513d601f19601f82011682018060405250810190613a0591906154ba565b905063ffffffff60b082901c165b949350505050565b6000613a2983836001614884565b90508060400151613a3990615d94565b60a08054600090613a549084906001600160801b0316615dfd565b82546101009290920a6001600160801b0381810219909316918316021790915560a054166000039050613a8957600160a08201525b609954609b54609c5460405163c7505c1560e01b81526001600160a01b039093169263c7505c1592613aca92909163ffffffff9091169086906004016159c7565b60408051808303816000875af1158015613ae8573d6000803e3d6000fd5b505050506040513d601f19601f82011682018060405250810190613b0c9190615a65565b50506000613b1c61125584610db0565b9050611faa613b2a82615973565b614464565b60a754604080516354f0f7d560e01b815290517fc852a00896bd42656c7822f2f6c850502574cfdbb70db38df4ea5eb56f5af8fd926001600160a01b0316916354f0f7d59160048083019260209291908290030181865afa158015613b98573d6000803e3d6000fd5b505050506040513d601f19601f82011682018060405250810190613bbc91906154ba565b60405190815260200160405180910390a160a554604051632e1a7d4d60e01b8152600481018390526001600160a01b0390911690632e1a7d4d90602401600060405180830381600087803b158015613c1357600080fd5b505af1158015613c27573d6000803e3d6000fd5b5050505061105f612f75565b6000613c88826040518060400160405280602081526020017f5361666545524332303a206c6f772d6c6576656c2063616c6c206661696c6564815250856001600160a01b03166148ec9092919063ffffffff16565b8051909150156125d15780806020019051810190613ca69190615589565b6125d15760405162461bcd60e51b815260206004820152602a60248201527f5361666545524332303a204552433230206f7065726174696f6e20646964206e6044820152691bdd081cdd58d8d9595960b21b6064820152608401610a6f565b600054610100900460ff16613d2c5760405162461bcd60e51b8152600401610a6f90615928565b613d346148fb565b8051613d3f9061492a565b602081810151609c805463ffffffff191663ffffffff909216919091179055604080830151609980546001600160a01b0319166001600160a01b0390921691821790558151639dca362f60e01b815291519092639dca362f926004808201939182900301816000875af1158015613dba573d6000803e3d6000fd5b505050506040513d601f19601f82011682018060405250810190613dde91906154ba565b609b556060810151609a80546001600160a01b03199081166001600160a01b0393841617909155608083015160988054909216908316179055609c54609954613e3292169063ffffffff9081169061494116565b609c80546001600160a01b039290921664010000000002640100000000600160c01b0319909216919091179055609e80546c01518001f4000000000000000065ffffffffffff60401b19909116179081905560408051600160501b830463ffffffff168152600160401b90920461ffff1660208301527f9af00b5d3a5006b7a36e8fe4a8f67a155aa897efbee30711b474e18eed2215559101610b14565b60a754604080516354f0f7d560e01b815290517fc852a00896bd42656c7822f2f6c850502574cfdbb70db38df4ea5eb56f5af8fd926001600160a01b0316916354f0f7d59160048083019260209291908290030181865afa158015613f39573d6000803e3d6000fd5b505050506040513d601f19601f82011682018060405250810190613f5d91906154ba565b60405190815260200160405180910390a161105f816134ee565b6000613f8561125583610db0565b9050613f9081614464565b613f98614cb9565b60a0546001600160801b0316158015613fb057508284145b156140ce576000613fbf612d47565b604051630ad6ed5b60e41b81526001600160a01b038216600482015260248101859052620c3500604482015290915073C88bBEa708B5748DAB3b6729f3Bfb16b1b6188f19063ad6ed5b090606401606060405180830381865af415801561402a573d6000803e3d6000fd5b505050506040513d601f19601f8201168201806040525081019061404e9190615dc3565b60a080546001600160801b0319166001600160801b03929092169182179055609f805465ffffffffffff60a01b1916600160b81b62ffffff948516810262ffffff60a01b191691909117600160a01b95909416850293909317908190556140c6938104600290810b93909104900b906136a690614759565b91505061412d565b6140e36140db8486615911565b846000614884565b604081015160a0805492935090916000906141089084906001600160801b0316615e1d565b92506101000a8154816001600160801b0302191690836001600160801b031602179055505b609954609b54609c5460405163c7505c1560e01b81526001600160a01b039093169263c7505c159261416e92909163ffffffff9091169086906004016159c7565b60408051808303816000875af115801561418c573d6000803e3d6000fd5b505050506040513d601f19601f820116820180604052508101906141b09190615a65565b505050505050565b60006141e66141e1600086126141ce57856141da565b6141da86600019615bba565b8585614205565b6149bb565b905060008412156109a857613a1381615973565b60006109c3826149cd565b600080806000198587098587029250828110838203039150508060000361423e576000841161423357600080fd5b5082900490506109a8565b80841161424a57600080fd5b6000848688096000868103871696879004966002600389028118808a02820302808a02820302808a02820302808a02820302808a02820302808a02909103029181900381900460010186841190950394909402919094039290920491909117919091029150509392505050565b806001600160a01b03811681146128835760405162461bcd60e51b8152600401610a6f90615aa8565b60a35460a1546040516bffffffffffffffffffffffff19606093841b81166020830152607d60ea1b60348301529190921b166037820152600090604b0160408051601f198184030181529082905260a65460a854638b8f9f0f60e01b845291935073a6fD01D0F8b366beDa3C35a6E8bDE296Da11a19992638b8f9f0f9261437b92879287926001600160a01b03928316921690600401615e3f565b60006040518083038186803b15801561439357600080fd5b505af41580156143a7573d6000803e3d6000fd5b50506065546040516370a0823160e01b8152306004820152610ab593506001600160a01b0390911691506370a0823190602401612452565b60a75460a55460a85460a15460a65460a3546040516303d0ed4560e31b8152600481018890526001600160a01b039687166024820152948616604486015292851660648501529084166084840152831660a48301529190911660c482015260009073C88bBEa708B5748DAB3b6729f3Bfb16b1b6188f190631e876a289060e401610dfa565b6000614575609a60009054906101000a90046001600160a01b03166001600160a01b031663313ce5676040518163ffffffff1660e01b8152600401602060405180830381865afa1580156144bc573d6000803e3d6000fd5b505050506040513d601f19601f820116820180604052508101906144e09190615c3f565b6144eb90600a615d46565b609860009054906101000a90046001600160a01b03166001600160a01b031663313ce5676040518163ffffffff1660e01b8152600401602060405180830381865afa15801561453e573d6000803e3d6000fd5b505050506040513d601f19601f820116820180604052508101906145629190615c3f565b61456d90600a615d46565b8491906141b8565b90506000614582826141fa565b9050600082131561467b57609a546040516340c10f1960e01b81526001600160a01b03909116906340c10f19906145bf9030908590600401615570565b600060405180830381600087803b1580156145d957600080fd5b505af11580156145ed573d6000803e3d6000fd5b5050609954609b54609a546001600160a01b039092169350637d2efe0792509063ffffffff166040516001600160e01b031960e085901b168152600481019290925263ffffffff16602482015260448101849052606401600060405180830381600087803b15801561465e57600080fd5b505af1158015614672573d6000803e3d6000fd5b50505050505050565b60008212156125d157609954609b54609a546001600160a01b0390921691637d2efe07919063ffffffff166146af85615973565b6040516001600160e01b031960e086901b168152600481019390935263ffffffff9190911660248301526044820152606401600060405180830381600087803b1580156146fb57600080fd5b505af115801561470f573d6000803e3d6000fd5b5050609a54604051630852cd8d60e31b8152600481018590526001600160a01b0390911692506342966c689150602401600060405180830381600087803b15801561465e57600080fd5b60006001607f1b826001600160801b0316106125fb5760405162461bcd60e51b8152600401610a6f90615aa8565b61478f614cb9565b6040518061010001604052808560020b81526020018460020b815260200183600f0b815260200160006001600160a01b03168152602001600061ffff168152602001600015158152602001600060028111156147ed576147ed61598f565b81526000602090910152949350505050565b6000600181808061481088856149e4565b9450925061481e87856149e4565b9450915061482c86856149e4565b9450905061483e6141e1848484614205565b9450836148515761484e85615973565b94505b505050509392505050565b60006109c36003614880606463ffffffff86165b9060009182526020526040902090565b0190565b61488c614cb9565b60a0546000906148b5906148b09086908890612e2a906001600160801b03166125d6565b614a0e565b905082156148c9576148c681615d94565b90505b609f5461141c90600160a01b8104600290810b91600160b81b9004900b83614787565b6060613a138484600085614a32565b600054610100900460ff166149225760405162461bcd60e51b8152600401610a6f90615928565b610f05614b63565b61105f816000015182602001518360400151614b93565b600080836001600160a01b0316631e2eaeaf61495c85614bc1565b6040518263ffffffff1660e01b815260040161497a91815260200190565b602060405180830381865afa158015614997573d6000803e3d6000fd5b505050506040513d601f19601f82011682018060405250810190613a1391906154ba565b6000600160ff1b82106125fb57600080fd5b60008082136125fb576149df82615973565b6109c3565b6000806000841215614a03579115916149fc84615973565b9150614a07565b8391505b5092909150565b80600f81900b81146128835760405162461bcd60e51b8152600401610a6f90615aa8565b606082471015614a935760405162461bcd60e51b815260206004820152602660248201527f416464726573733a20696e73756666696369656e742062616c616e636520666f6044820152651c8818d85b1b60d21b6064820152608401610a6f565b6001600160a01b0385163b614aea5760405162461bcd60e51b815260206004820152601d60248201527f416464726573733a2063616c6c20746f206e6f6e2d636f6e74726163740000006044820152606401610a6f565b600080866001600160a01b03168587604051614b069190615e79565b60006040518083038185875af1925050503d8060008114614b43576040519150601f19603f3d011682016040523d82523d6000602084013e614b48565b606091505b5091509150614b58828286614bd9565b979650505050505050565b600054610100900460ff16614b8a5760405162461bcd60e51b8152600401610a6f90615928565b610f0533612243565b614b9d8282614c12565b5050606580546001600160a01b0319166001600160a01b0392909216919091179055565b60006109c36001614880606463ffffffff8616614870565b60608315614be85750816109a8565b825115614bf85782518084602001fd5b8160405162461bcd60e51b8152600401610a6f9190614de6565b600054610100900460ff16614c395760405162461bcd60e51b8152600401610a6f90615928565b610ab58282600054610100900460ff16614c655760405162461bcd60e51b8152600401610a6f90615928565b8151614c78906036906020850190614cfe565b5080516125d1906037906020840190614cfe565b60405180604001604052806002905b614ca3614cb9565b815260200190600190039081614c9b5790505090565b6040805161010081018252600080825260208201819052918101829052606081018290526080810182905260a081018290529060c08201908152600060209091015290565b828054614d0a90615501565b90600052602060002090601f016020900481019282614d2c5760008555614d72565b82601f10614d4557805160ff1916838001178555614d72565b82800160010185558215614d72579182015b82811115614d72578251825591602001919060010190614d57565b506125fb9291505b808211156125fb5760008155600101614d7a565b60005b83811015614da9578181015183820152602001614d91565b83811115611faa5750506000910152565b60008151808452614dd2816020860160208601614d8e565b601f01601f19169290920160200192915050565b6020815260006109a86020830184614dba565b600060208284031215614e0b57600080fd5b5035919050565b6001600160a01b038116811461105f57600080fd5b803561288381614e12565b60008060408385031215614e4557600080fd5b8235614e5081614e12565b946020939093013593505050565b634e487b7160e01b600052604160045260246000fd5b604051608081016001600160401b0381118282101715614e9657614e96614e5e565b60405290565b60405160a081016001600160401b0381118282101715614e9657614e96614e5e565b604051606081016001600160401b0381118282101715614e9657614e96614e5e565b60405161012081016001600160401b0381118282101715614e9657614e96614e5e565b604080519081016001600160401b0381118282101715614e9657614e96614e5e565b604051601f8201601f191681016001600160401b0381118282101715614f4d57614f4d614e5e565b604052919050565b600082601f830112614f6657600080fd5b81356001600160401b03811115614f7f57614f7f614e5e565b614f92601f8201601f1916602001614f25565b818152846020838601011115614fa757600080fd5b816020850160208301376000918101602001919091529392505050565b63ffffffff8116811461105f57600080fd5b803561288381614fc4565b803561ffff8116811461288357600080fd5b80356001600160401b038116811461288357600080fd5b60006080828403121561501c57600080fd5b615024614e74565b905081356001600160401b038082111561503d57600080fd5b9083019060a0828603121561505157600080fd5b615059614e9c565b82358281111561506857600080fd5b83016060818803121561507a57600080fd5b615082614ebe565b813561508d81614e12565b8152602082810135858111156150a257600080fd5b6150ae8a828601614f55565b8284015250604080840135868111156150c657600080fd5b6150d28b828701614f55565b82850152508285526150e5828801614fd6565b828601526150f4818801614e27565b8186015261510460608801614e27565b606086015261511560808801614e27565b6080860152848852615128828a01614fe1565b82890152615137818a01614fe1565b818901525050505050505061514e60608301614ff3565b606082015292915050565b60006020828403121561516b57600080fd5b81356001600160401b038082111561518257600080fd5b90830190610120828603121561519757600080fd5b61519f614ee0565b8235828111156151ae57600080fd5b6151ba8782860161500a565b8252506151c960208401614e27565b60208201526151da60408401614e27565b60408201526151eb60608401614e27565b60608201526151fc60808401614e27565b608082015261520d60a08401614e27565b60a082015261521e60c08401614e27565b60c082015261522f60e08401614e27565b60e08201526101009150615244828401614e27565b91810191909152949350505050565b60008060006060848603121561526857600080fd5b833561527381614e12565b9250602084013561528381614e12565b929592945050506040919091013590565b6000602082840312156152a657600080fd5b81356109a881614e12565b600080604083850312156152c457600080fd5b8235915060208301356152d681614e12565b809150509250929050565b600080604083850312156152f457600080fd5b82356152ff81614fc4565b915061530d60208401614fe1565b90509250929050565b60008060006060848603121561532b57600080fd5b83359250602084013561533d81614e12565b9150604084013561534d81614e12565b809150509250925092565b60006001600160401b0382111561537157615371614e5e565b5060051b60200190565b6000602080838503121561538e57600080fd5b82356001600160401b038111156153a457600080fd5b8301601f810185136153b557600080fd5b80356153c86153c382615358565b614f25565b81815260059190911b820183019083810190878311156153e757600080fd5b928401925b82841015614b58578335825292840192908401906153ec565b6020808252825182820181905260009190848201906040850190845b8181101561543d57835183529284019291840191600101615421565b50909695505050505050565b6000806040838503121561545c57600080fd5b823561546781614e12565b915060208301356152d681614e12565b60008060006060848603121561548c57600080fd5b61549584614fe1565b92506154a360208501614fe1565b91506154b160408501614ff3565b90509250925092565b6000602082840312156154cc57600080fd5b5051919050565b634e487b7160e01b600052601160045260246000fd5b600082198211156154fc576154fc6154d3565b500190565b600181811c9082168061551557607f821691505b60208210810361553557634e487b7160e01b600052602260045260246000fd5b50919050565b6020808252818101527f4f776e61626c653a2063616c6c6572206973206e6f7420746865206f776e6572604082015260600190565b6001600160a01b03929092168252602082015260400190565b60006020828403121561559b57600080fd5b815180151581146109a857600080fd5b8051600281900b811461288357600080fd5b80516001600160801b038116811461288357600080fd5b80516003811061288357600080fd5b600082601f8301126155f457600080fd5b815160206156046153c383615358565b82815260059290921b8401810191818101908684111561562357600080fd5b8286015b848110156157a95780516001600160401b038082111561564657600080fd5b9088019060a0828b03601f1901121561565e57600080fd5b615666614e9c565b8683015161567381614fc4565b80825250604083015187820152606083015160408201526080830151606082015260a0830151828111156156a657600080fd5b8084019350508a603f8401126156bb57600080fd5b8683015191506156cd6153c383615358565b82815261012092830284016040019288820191908d8511156156ee57600080fd5b6040860195505b848610156157935780868f03121561570c57600080fd5b615714614ee0565b61571d876155ab565b815261572a8b88016155ab565b8b82015261573a604088016155bd565b6040820152606087015160608201526080870151608082015260a087015160a082015260c087015160c082015260e087015160e082015261577e61010088016155d4565b610100820152835294850194918901916156f5565b5060808301525085525050918301918301615627565b509695505050505050565b600080600080608085870312156157ca57600080fd5b84516157d581614e12565b8094505060208086015193506040808701516001600160401b03808211156157fc57600080fd5b818901915089601f83011261581057600080fd5b815161581e6153c382615358565b81815260069190911b8301850190858101908c83111561583d57600080fd5b938601935b828510156158865785858e03121561585a5760008081fd5b615862614f03565b855161586d81614e12565b8152858801518882015282529385019390860190615842565b60608c0151909850955050508084111561589f57600080fd5b5050506158ae878288016155e3565b91505092959194509250565b634e487b7160e01b600052603260045260246000fd5b600080821280156001600160ff1b03849003851316156158f2576158f26154d3565b600160ff1b839003841281161561590b5761590b6154d3565b50500190565b600082821015615923576159236154d3565b500390565b6020808252602b908201527f496e697469616c697a61626c653a20636f6e7472616374206973206e6f74206960408201526a6e697469616c697a696e6760a81b606082015260800190565b6000600160ff1b8201615988576159886154d3565b5060000390565b634e487b7160e01b600052602160045260246000fd5b600381106159c357634e487b7160e01b600052602160045260246000fd5b9052565b60006101408201905084825263ffffffff84166020830152825160020b6040830152602083015160020b60608301526040830151600f0b60808301526060830151615a1d60a08401826001600160a01b03169052565b50608083015161ffff1660c08381019190915260a0840151151560e0840152830151615a4d6101008401826159a5565b5060e083015180151561012084015250949350505050565b60008060408385031215615a7857600080fd5b505080516020909101519092909150565b600060ff821660ff8103615a9f57615a9f6154d3565b60010192915050565b6020808252600890820152674f766572666c6f7760c01b604082015260600190565b600060208284031215615adc57600080fd5b81516109a881614e12565b600061ffff808316818516808303821115615b0457615b046154d3565b01949350505050565b600061ffff83811690831681811015615b2857615b286154d3565b039392505050565b6000816000190483118215151615615b4a57615b4a6154d3565b500290565b600082615b6c57634e487b7160e01b600052601260045260246000fd5b500490565b868152856020820152600060018060a01b03808716604084015260c06060840152615b9f60c0840187614dba565b94811660808401529290921660a09091015250949350505050565b60006001600160ff1b0381841382841380821686840486111615615be057615be06154d3565b600160ff1b6000871282811687830589121615615bff57615bff6154d3565b60008712925087820587128484161615615c1b57615c1b6154d3565b87850587128184161615615c3157615c316154d3565b505050929093029392505050565b600060208284031215615c5157600080fd5b815160ff811681146109a857600080fd5b600181815b80851115615c9d578160001904821115615c8357615c836154d3565b80851615615c9057918102915b93841c9390800290615c67565b509250929050565b600082615cb4575060016109c3565b81615cc1575060006109c3565b8160018114615cd75760028114615ce157615cfd565b60019150506109c3565b60ff841115615cf257615cf26154d3565b50506001821b6109c3565b5060208310610133831016604e8410600b8410161715615d20575081810a6109c3565b615d2a8383615c62565b8060001904821115615d3e57615d3e6154d3565b029392505050565b60006109a860ff841683615ca5565b60008083128015600160ff1b850184121615615d7357615d736154d3565b6001600160ff1b0384018313811615615d8e57615d8e6154d3565b50500390565b600081600f0b6f7fffffffffffffffffffffffffffffff198103615dba57615dba6154d3565b60000392915050565b600080600060608486031215615dd857600080fd5b615de1846155ab565b9250615def602085016155ab565b91506154b1604085016155bd565b60006001600160801b0383811690831681811015615b2857615b286154d3565b60006001600160801b03808316818516808303821115615b0457615b046154d3565b848152608060208201526000615e586080830186614dba565b6001600160a01b039485166040840152929093166060909101529392505050565b60008251615e8b818460208701614d8e565b919091019291505056fea164736f6c634300080d000a",
  "deployedBytecode": "0x608060405234801561001057600080fd5b50600436106103af5760003560e01c80637999e84e116101f4578063ba0876521161011a578063dbd5edc7116100ad578063ef8b30f71161007c578063ef8b30f714610821578063f2fde38b14610834578063fd967f4714610847578063ff9281531461085057600080fd5b8063dbd5edc7146107e9578063dd62ed3e146107f2578063e23c090814610805578063e66488531461081857600080fd5b8063c6e6f592116100e9578063c6e6f59214610790578063ce96cb77146107a3578063d905777e146107b6578063dbd035ff146107c957600080fd5b8063ba0876521461076c578063bf9571f11461077f578063c57981b514610787578063c63d75b61461052957600080fd5b806395d89b4111610192578063b3d7f6b911610161578063b3d7f6b91461071f578063b460af9414610732578063b6cdc2d514610745578063b81aecd91461075957600080fd5b806395d89b41146106de578063a457c2d7146106e6578063a9059cbb146106f9578063aced16611461070c57600080fd5b80638d315d7b116101ce5780638d315d7b1461069f5780638da5cb5b146106a75780638fcda03e146106b857806394bf804d146106cb57600080fd5b80637999e84e1461067c5780637d7c2a1c146106845780638121305e1461068c57600080fd5b80633f6be822116102d9578063554070bc116102775780636e553f65116102465780636e553f651461062557806370a0823114610638578063715018a614610661578063748747e61461066957600080fd5b8063554070bc146105c357806357b082fc146105d6578063620bc225146105ea5780636a1db1bf1461061257600080fd5b8063476343ee116102b3578063476343ee146105515780634afe813e146105595780634cdad506146105855780635053145f1461059857600080fd5b80633f6be822146104fe578063402d267d146105295780634441a2ce1461053e57600080fd5b8063171e5e8811610351578063313ce56711610320578063313ce567146104a957806338d52e0f146104b857806339509351146104e35780633d672a45146104f657600080fd5b8063171e5e881461046957806318160ddd1461047c5780631e2eaeaf1461048457806323b872dd1461049657600080fd5b8063095ea7b31161038d578063095ea7b3146103f757806309a68a921461041a5780630a28a47714610441578063142dbe691461045457600080fd5b806301e1d114146103b457806306fdde03146103cf57806307a2d13a146103e4575b600080fd5b6103bc610863565b6040519081526020015b60405180910390f35b6103d76108e8565b6040516103c69190614de6565b6103bc6103f2366004614df9565b61097a565b61040a610405366004614e32565b6109af565b60405190151581526020016103c6565b609f5461042e90600160b81b900460020b81565b60405160029190910b81526020016103c6565b6103bc61044f366004614df9565b6109c9565b610467610462366004615159565b6109f1565b005b610467610477366004614df9565b610ab9565b6035546103bc565b6103bc610492366004614df9565b5490565b61040a6104a4366004615253565b610b1f565b604051601281526020016103c6565b6065546104cb906001600160a01b031681565b6040516001600160a01b0390911681526020016103c6565b61040a6104f1366004614e32565b610b43565b6103bc610b82565b609e54610511906001600160401b031681565b6040516001600160401b0390911681526020016103c6565b6103bc610537366004615294565b5060001990565b61046761054c366004614df9565b610c08565b610467610c67565b609e5461057090600160501b900463ffffffff1681565b60405163ffffffff90911681526020016103c6565b6103bc610593366004614df9565b610da5565b60a0546105ab906001600160801b031681565b6040516001600160801b0390911681526020016103c6565b6103bc6105d1366004614df9565b610db0565b60a05461040a90600160801b900460ff1681565b609e546105ff90600160401b900461ffff1681565b60405161ffff90911681526020016103c6565b610467610620366004614df9565b610e3b565b6103bc6106333660046152b1565b610ebd565b6103bc610646366004615294565b6001600160a01b031660009081526033602052604090205490565b610467610ed1565b610467610677366004615294565b610f07565b610467610f7f565b610467611062565b61046761069a366004614df9565b611174565b6103bc6111d3565b6066546001600160a01b03166104cb565b6104676106c63660046152e1565b611264565b6103bc6106d93660046152b1565b611310565b6103d7611324565b61040a6106f4366004614e32565b611333565b61040a610707366004614e32565b6113c5565b609f546104cb906001600160a01b031681565b6103bc61072d366004614df9565b6113d3565b6103bc610740366004615316565b6113fa565b609f5461042e90600160a01b900460020b81565b61040a610767366004614df9565b611425565b6103bc61077a366004615316565b61143e565b61046761156a565b6103bc60ac5481565b6103bc61079e366004614df9565b6119f4565b6103bc6107b1366004615294565b611a1c565b6103bc6107c4366004615294565b611a3e565b6107dc6107d736600461537b565b611a5c565b6040516103c69190615405565b6103bc609d5481565b6103bc610800366004615449565b611a8a565b610467610813366004615294565b611ab5565b6103bc609b5481565b6103bc61082f366004614df9565b611b29565b610467610842366004615294565b611b34565b6103bc61271081565b61046761085e366004615477565b611bcc565b600061086d611c99565b6065546040516370a0823160e01b81523060048201526001600160a01b03909116906370a0823190602401602060405180830381865afa1580156108b5573d6000803e3d6000fd5b505050506040513d601f19601f820116820180604052508101906108d991906154ba565b6108e391906154e9565b905090565b6060603680546108f790615501565b80601f016020809104026020016040519081016040528092919081815260200182805461092390615501565b80156109705780601f1061094557610100808354040283529160200191610970565b820191906000526020600020905b81548152906001019060200180831161095357829003601f168201915b5050505050905090565b60008061098660355490565b905080156109a6576109a1610999610863565b849083611ce2565b6109a8565b825b9392505050565b6000336109bd818585611d01565b60019150505b92915050565b6000806109d560355490565b905080156109a6576109a1816109e9610863565b859190611e25565b600054610100900460ff16610a0c5760005460ff1615610a10565b303b155b610a785760405162461bcd60e51b815260206004820152602e60248201527f496e697469616c697a61626c653a20636f6e747261637420697320616c72656160448201526d191e481a5b9a5d1a585b1a5e995960921b60648201526084015b60405180910390fd5b600054610100900460ff16158015610a9a576000805461ffff19166101011790555b610aa382611e53565b8015610ab5576000805461ff00191690555b5050565b6066546001600160a01b03163314610ae35760405162461bcd60e51b8152600401610a6f9061553b565b609d8190556040518181527f333b26cca69716ad4680ddb07663f5bfb4f06045671f336af9a83690a3ae00f9906020015b60405180910390a150565b600033610b2d858285611f36565b610b38858585611fb0565b506001949350505050565b3360008181526034602090815260408083206001600160a01b03871684529091528120549091906109bd9082908690610b7d9087906154e9565b611d01565b60a7546040516001620e8cb360e11b031981526001600160a01b03909116600482015260009073__$9842325bb1826b70c2ef476a1c714a02a7$__9063ffe2e69a90602401602060405180830381865af4158015610be4573d6000803e3d6000fd5b505050506040513d601f19601f820116820180604052508101906108e391906154ba565b6066546001600160a01b03163314610c325760405162461bcd60e51b8152600401610a6f9061553b565b60ab8190556040518181527fbaf704dc582d2430f506b48fda242593270667e77656cf3ba2f77a630594466390602001610b14565b6066546001600160a01b03163314610c915760405162461bcd60e51b8152600401610a6f9061553b565b60a4546040516370a0823160e01b81523060048201526000916001600160a01b0316906370a0823190602401602060405180830381865afa158015610cda573d6000803e3d6000fd5b505050506040513d601f19601f82011682018060405250810190610cfe91906154ba565b60a45460405163a9059cbb60e01b81529192506001600160a01b03169063a9059cbb90610d319033908590600401615570565b6020604051808303816000875af1158015610d50573d6000803e3d6000fd5b505050506040513d601f19601f82011682018060405250810190610d749190615589565b506040518181527f9800e6f57aeb4360eaa72295a820a4293e1e66fbfcabcd8874ae141304a76deb90602001610b14565b60006109c38261097a565b60a754604051637a5fda7960e01b8152600481018390526001600160a01b03909116602482015260009073__$9842325bb1826b70c2ef476a1c714a02a7$__90637a5fda79906044015b602060405180830381865af4158015610e17573d6000803e3d6000fd5b505050506040513d601f19601f820116820180604052508101906109c391906154ba565b6066546001600160a01b03163314610e655760405162461bcd60e51b8152600401610a6f9061553b565b612710811115610e8857604051630709dc8560e31b815260040160405180910390fd5b60ac8190556040518181527f9fe6eeb0f0541c644a56c67efeb872dbadd803a60b909d7dde1b35a3fe230b0e90602001610b14565b6000610ec761217e565b6109a88383612186565b6066546001600160a01b03163314610efb5760405162461bcd60e51b8152600401610a6f9061553b565b610f056000612243565b565b6066546001600160a01b03163314610f315760405162461bcd60e51b8152600401610a6f9061553b565b609f80546001600160a01b0319166001600160a01b0383169081179091556040519081527f0425bcd291db1d48816f2a98edc7ecaf6dd5c64b973d9e4b3b6b750763dc6c2e90602001610b14565b609f546001600160a01b03163314610fbf57609f546040516369958c7360e01b81523360048201526001600160a01b039091166024820152604401610a6f565b609954609b54604051630ed586bf60e21b815260048101919091526060916001600160a01b031690633b561afc90602401600060405180830381865afa15801561100d573d6000803e3d6000fd5b505050506040513d6000823e601f3d908101601f1916820160405261103591908101906157b4565b805190945061105f935084925060009150611052576110526158ba565b6020026020010151612295565b50565b609f546001600160a01b031633146110a257609f546040516369958c7360e01b81523360048201526001600160a01b039091166024820152604401610a6f565b60006110ac6111d3565b90506110b781611425565b6110d457604051636fa1adc360e01b815260040160405180910390fd5b6060806110df61237e565b80519193509150600003611106576040516301d84bb360e11b815260040160405180910390fd5b61112a8160008151811061111c5761111c6158ba565b60200260200101518461249d565b609e805467ffffffffffffffff1916426001600160401b03161790556040517ff57243a1fddfdc9fa2c7de26cc3503b1b94cfd4368d2b82d0970bfbb2fbce3a490600090a1505050565b6066546001600160a01b0316331461119e5760405162461bcd60e51b8152600401610a6f9061553b565b60aa8190556040518181527f77bc5ea45f61ae2f050ec3af00a3ebcbeff6082d4c04905ebb7e01ff797dacf390602001610b14565b609954609b54604051631c7a838360e31b815260048101919091526000916001600160a01b03169063e3d41c1890602401602060405180830381865afa158015611221573d6000803e3d6000fd5b505050506040513d601f19601f8201168201806040525081019061124591906154ba565b905061125a6112556105d1610863565b6125d6565b6108e390826158d0565b6066546001600160a01b0316331461128e5760405162461bcd60e51b8152600401610a6f9061553b565b609e805465ffffffffffff60401b1916600160501b63ffffffff851690810269ffff0000000000000000191691909117600160401b61ffff8516908102919091179092556040805191825260208201929092527f9af00b5d3a5006b7a36e8fe4a8f67a155aa897efbee30711b474e18eed221555910160405180910390a15050565b600061131a61217e565b6109a883836125ff565b6060603780546108f790615501565b3360008181526034602090815260408083206001600160a01b0387168452909152812054909190838110156113b85760405162461bcd60e51b815260206004820152602560248201527f45524332303a2064656372656173656420616c6c6f77616e63652062656c6f77604482015264207a65726f60d81b6064820152608401610a6f565b610b388286868403611d01565b6000336109bd818585611fb0565b6000806113df60355490565b905080156109a6576109a16113f2610863565b849083611e25565b600061140461217e565b600061140f8561267f565b905061141c818585612692565b95945050505050565b600061142f61274d565b806109c357506109c38261277a565b600061144861217e565b336001600160a01b038316146114805760006114648333611a8a565b9050600019811461147e5761147e8333610b7d8885615911565b505b61148984610da5565b9050806000036114c95760405162461bcd60e51b815260206004820152600b60248201526a5a45524f5f41535345545360a81b6044820152606401610a6f565b60006114d48261267f565b90508181146114ec578091506114e9816109c9565b94505b6114f68286612888565b61150083866128a2565b60408051838152602081018790526001600160a01b03808616929087169133917ffbde797d201c681b91056529119e0b02407c7bb96a4a2c75c01fc9667232c8db910160405180910390a4606554611562906001600160a01b031685846129f0565b509392505050565b6066546001600160a01b031633146115945760405162461bcd60e51b8152600401610a6f9061553b565b61159c612a46565b60655460a55460405163095ea7b360e01b81526001600160a01b039283169263095ea7b3926115d49291169060001990600401615570565b6020604051808303816000875af11580156115f3573d6000803e3d6000fd5b505050506040513d601f19601f820116820180604052508101906116179190615589565b5060655460a85460405163095ea7b360e01b81526001600160a01b039283169263095ea7b3926116509291169060001990600401615570565b6020604051808303816000875af115801561166f573d6000803e3d6000fd5b505050506040513d601f19601f820116820180604052508101906116939190615589565b5060a35460a65460405163095ea7b360e01b81526001600160a01b039283169263095ea7b3926116cb92911690600090600401615570565b6020604051808303816000875af11580156116ea573d6000803e3d6000fd5b505050506040513d601f19601f8201168201806040525081019061170e9190615589565b5060a15460a65460405163095ea7b360e01b81526001600160a01b039283169263095ea7b39261174692911690600090600401615570565b6020604051808303816000875af1158015611765573d6000803e3d6000fd5b505050506040513d601f19601f820116820180604052508101906117899190615589565b5060a15460a85460405163095ea7b360e01b81526001600160a01b039283169263095ea7b3926117c192911690600090600401615570565b6020604051808303816000875af11580156117e0573d6000803e3d6000fd5b505050506040513d601f19601f820116820180604052508101906118049190615589565b5060a35460a65460405163095ea7b360e01b81526001600160a01b039283169263095ea7b39261183d9291169060001990600401615570565b6020604051808303816000875af115801561185c573d6000803e3d6000fd5b505050506040513d601f19601f820116820180604052508101906118809190615589565b5060a15460a65460405163095ea7b360e01b81526001600160a01b039283169263095ea7b3926118b99291169060001990600401615570565b6020604051808303816000875af11580156118d8573d6000803e3d6000fd5b505050506040513d601f19601f820116820180604052508101906118fc9190615589565b5060a15460a85460405163095ea7b360e01b81526001600160a01b039283169263095ea7b3926119359291169060001990600401615570565b6020604051808303816000875af1158015611954573d6000803e3d6000fd5b505050506040513d601f19601f820116820180604052508101906119789190615589565b5060a45460a65460405163095ea7b360e01b81526001600160a01b039283169263095ea7b3926119b19291169060001990600401615570565b6020604051808303816000875af11580156119d0573d6000803e3d6000fd5b505050506040513d601f19601f8201168201806040525081019061105f9190615589565b600080611a0060355490565b905080156109a6576109a181611a14610863565b859190611ce2565b6001600160a01b0381166000908152603360205260408120546109c39061097a565b6001600160a01b0381166000908152603360205260408120546109c3565b606060208251028201602001602083015b81811015611a82578051548152602001611a6d565b509192915050565b6001600160a01b03918216600090815260346020908152604080832093909416825291909152205490565b6066546001600160a01b03163314611adf5760405162461bcd60e51b8152600401610a6f9061553b565b60a980546001600160a01b0319166001600160a01b0383169081179091556040517f37e6fa50467241d1adf59e9c0011228de6a03425a9efdea6d2d3662c77eaba5390600090a250565b60006109c3826119f4565b6066546001600160a01b03163314611b5e5760405162461bcd60e51b8152600401610a6f9061553b565b6001600160a01b038116611bc35760405162461bcd60e51b815260206004820152602660248201527f4f776e61626c653a206e6577206f776e657220697320746865207a65726f206160448201526564647265737360d01b6064820152608401610a6f565b61105f81612243565b6066546001600160a01b03163314611bf65760405162461bcd60e51b8152600401610a6f9061553b565b60a0805463ffffffff60881b1916600160881b61ffff86811691820261ffff60981b191692909217600160981b9286169283021767ffffffffffffffff60a81b1916600160a81b6001600160401b03861690810291909117909355604080519182526020820192909252908101919091527f4a9bdb3bab9a7cff0ea02e1428a3901c565a962f3b99b7d8d2b02787ca4f93f99060600160405180910390a1505050565b60a5546040516370a0823160e01b81523060048201526000916001600160a01b0316906370a0823190602401602060405180830381865afa158015610be4573d6000803e3d6000fd5b828202811515841585830485141716611cfa57600080fd5b0492915050565b6001600160a01b038316611d635760405162461bcd60e51b8152602060048201526024808201527f45524332303a20617070726f76652066726f6d20746865207a65726f206164646044820152637265737360e01b6064820152608401610a6f565b6001600160a01b038216611dc45760405162461bcd60e51b815260206004820152602260248201527f45524332303a20617070726f766520746f20746865207a65726f206164647265604482015261737360f01b6064820152608401610a6f565b6001600160a01b0383811660008181526034602090815260408083209487168084529482529182902085905590518481527f8c5be1e5ebec7d5bd14f71427d1e84f3dd0314c0f7b2291e5b200ac8c7c3b925910160405180910390a3505050565b828202811515841585830485141716611e3d57600080fd5b6001826001830304018115150290509392505050565b600054610100900460ff16611e7a5760405162461bcd60e51b8152600401610a6f90615928565b8051611e8590612afa565b602081015160a180546001600160a01b03199081166001600160a01b0393841617909155604083015160a380548316918416919091179055606083015160a28054831691841691909117905560a083015160a580548316918416919091179055608083015160a48054831691841691909117905560c083015160a68054831691841691909117905561010083015160a88054831691841691909117905560e09092015160a780549093169116179055565b6000611f428484611a8a565b90506000198114611faa5781811015611f9d5760405162461bcd60e51b815260206004820152601d60248201527f45524332303a20696e73756666696369656e7420616c6c6f77616e63650000006044820152606401610a6f565b611faa8484848403611d01565b50505050565b6001600160a01b0383166120145760405162461bcd60e51b815260206004820152602560248201527f45524332303a207472616e736665722066726f6d20746865207a65726f206164604482015264647265737360d81b6064820152608401610a6f565b6001600160a01b0382166120765760405162461bcd60e51b815260206004820152602360248201527f45524332303a207472616e7366657220746f20746865207a65726f206164647260448201526265737360e81b6064820152608401610a6f565b6001600160a01b038316600090815260336020526040902054818110156120ee5760405162461bcd60e51b815260206004820152602660248201527f45524332303a207472616e7366657220616d6f756e7420657863656564732062604482015265616c616e636560d01b6064820152608401610a6f565b6001600160a01b038085166000908152603360205260408082208585039055918516815290812080548492906121259084906154e9565b92505081905550826001600160a01b0316846001600160a01b03167fddf252ad1be2c89b69c2b068fc378daa952ba7f163c4a11628f55a4df523b3ef8460405161217191815260200190565b60405180910390a3611faa565b610ab561237e565b600061219183611b29565b9050806000036121d15760405162461bcd60e51b815260206004820152600b60248201526a5a45524f5f53484152455360a81b6044820152606401610a6f565b6065546121e9906001600160a01b0316333086612bd8565b6121f38282612c10565b60408051848152602081018390526001600160a01b0384169133917fdcbc1c05240f31ff3ad067ef1ee35ce4997762752e3a095284754544f4c709d7910160405180910390a36109c38382612cef565b606680546001600160a01b038381166001600160a01b0319831681179093556040519116919082907f8be0079c531659141344cd1fd0a4f28419497f9722a3daafe3b4186f6b6457e090600090a35050565b60a054600160801b900460ff166122bf57604051632f0c3e3160e11b815260040160405180910390fd5b600081604001516122cf90615973565b905060006122db612d47565b905060006122e98383612e08565b60a054909150600160a81b90046001600160401b0316811115612341576000612323848460a060119054906101000a900461ffff16612e36565b50905080840361233b5760a0805460ff60801b191690555b5061234f565b60a0805460ff60801b191690555b6040517f9a94a63b02012d6753ed863b962aceb756429b4265fc327391dd05fb24d4502b90600090a150505050565b609954609b54604051630ed586bf60e21b815260609283926001600160a01b0390911691633b561afc916123b89160040190815260200190565b600060405180830381865afa1580156123d5573d6000803e3d6000fd5b505050506040513d6000823e601f3d908101601f191682016040526123fd91908101906157b4565b90945092506000915061241090506111d3565b905061241a612f75565b61242483826131ed565b6065546040516370a0823160e01b8152306004820152612498916001600160a01b0316906370a08231906024015b602060405180830381865afa15801561246f573d6000803e3d6000fd5b505050506040513d601f19601f8201168201806040525081019061249391906154ba565b6134ee565b509091565b6124a681613584565b60a08054911515600160801b0260ff60801b1990921691909117905560006124cd8261364d565b905060005b60028160ff1610156125b557818160ff16600281106124f3576124f36158ba565b602002015160400151600f0b156125b557609954609b54609c546001600160a01b039092169163c7505c15919063ffffffff168560ff86166002811061253b5761253b6158ba565b60200201516040518463ffffffff1660e01b815260040161255e939291906159c7565b60408051808303816000875af115801561257c573d6000803e3d6000fd5b505050506040513d601f19601f820116820180604052508101906125a09190615a65565b505080806125ad90615a89565b9150506124d2565b5060a054600160801b900460ff16156125d1576125d183612295565b505050565b6000600160ff1b82106125fb5760405162461bcd60e51b8152600401610a6f90615aa8565b5090565b600061260a836113d3565b606554909150612625906001600160a01b0316333084612bd8565b61262f8284612c10565b60408051828152602081018590526001600160a01b0384169133917fdcbc1c05240f31ff3ad067ef1ee35ce4997762752e3a095284754544f4c709d7910160405180910390a36109c38184612cef565b60006109c361268c610863565b83613852565b600061269d846109c9565b9050336001600160a01b038316146126d75760006126bb8333611a8a565b905060001981146126d5576126d58333610b7d8585615911565b505b6126e18482612888565b6126eb82826128a2565b60408051858152602081018390526001600160a01b03808516929086169133917ffbde797d201c681b91056529119e0b02407c7bb96a4a2c75c01fc9667232c8db910160405180910390a46065546109a8906001600160a01b031684866129f0565b609e5460009063ffffffff600160501b82041690612774906001600160401b031642615911565b11905090565b609c5460995460009173__$9842325bb1826b70c2ef476a1c714a02a7$__9163757d5fd6916001600160a01b0364010000000082048116926127c89291169063ffffffff9081169061398b16565b609e54609f5460405160e086901b6001600160e01b03191681526001600160a01b03909416600485015263ffffffff9092166024840152600160401b900461ffff166044830152600160a01b8104600290810b6064840152600160b81b909104900b608482015260a401602060405180830381865af415801561284f573d6000803e3d6000fd5b505050506040513d601f19601f820116820180604052508101906128739190615589565b905080612883576109c382613584565b919050565b612899612893610863565b83613a1b565b610ab582613b2f565b6001600160a01b0382166129025760405162461bcd60e51b815260206004820152602160248201527f45524332303a206275726e2066726f6d20746865207a65726f206164647265736044820152607360f81b6064820152608401610a6f565b6001600160a01b038216600090815260336020526040902054818110156129765760405162461bcd60e51b815260206004820152602260248201527f45524332303a206275726e20616d6f756e7420657863656564732062616c616e604482015261636560f01b6064820152608401610a6f565b6001600160a01b03831660009081526033602052604081208383039055603580548492906129a5908490615911565b90915550506040518281526000906001600160a01b038516907fddf252ad1be2c89b69c2b068fc378daa952ba7f163c4a11628f55a4df523b3ef9060200160405180910390a3505050565b6125d18363a9059cbb60e01b8484604051602401612a0f929190615570565b60408051601f198184030181529190526020810180516001600160e01b03166001600160e01b031990931692909217909152613c33565b609a5460995460405163095ea7b360e01b81526001600160a01b039283169263095ea7b392612a7e9291169060001990600401615570565b6020604051808303816000875af1158015612a9d573d6000803e3d6000fd5b505050506040513d601f19601f82011682018060405250810190612ac19190615589565b5060985460995460405163095ea7b360e01b81526001600160a01b039283169263095ea7b3926119b19291169060001990600401615570565b600054610100900460ff16612b215760405162461bcd60e51b8152600401610a6f90615928565b8051612b2c90613d05565b60208181015160a0805460408086015160608088015163ffffffff60881b19909416600160881b61ffff97881690810261ffff60981b191691909117600160981b979093169687029290921767ffffffffffffffff60a81b1916600160a81b6001600160401b0390951694850217909455815190815294850193909352918301919091527f4a9bdb3bab9a7cff0ea02e1428a3901c565a962f3b99b7d8d2b02787ca4f93f99101610b14565b6040516001600160a01b0380851660248301528316604482015260648101829052611faa9085906323b872dd60e01b90608401612a0f565b6001600160a01b038216612c665760405162461bcd60e51b815260206004820152601f60248201527f45524332303a206d696e7420746f20746865207a65726f2061646472657373006044820152606401610a6f565b8060356000828254612c7891906154e9565b90915550506001600160a01b03821660009081526033602052604081208054839290612ca59084906154e9565b90915550506040518181526001600160a01b038316906000907fddf252ad1be2c89b69c2b068fc378daa952ba7f163c4a11628f55a4df523b3ef9060200160405180910390a35050565b609d54612cfa610863565b1115612d2d57609d54612d0b610863565b6040516301b25d0360e41b815260048101929092526024820152604401610a6f565b612d3682613ed0565b610ab5612d41610863565b83613f77565b609c5460995460009173__$9842325bb1826b70c2ef476a1c714a02a7$__9163e54c8fd8916001600160a01b036401000000008204811692612d959291169063ffffffff9081169061398b16565b6040516001600160e01b031960e085901b1681526001600160a01b03909216600483015263ffffffff166024820152604401602060405180830381865af4158015612de4573d6000803e3d6000fd5b505050506040513d601f19601f820116820180604052508101906108e39190615aca565b60006109a8612e316001600160a01b038416600160601b612e2a8783836141b8565b91906141b8565b6141fa565b600080600080861315612e7857612e71612e6c612e5586612710615ae7565b6001600160a01b0388169061ffff16612710614205565b6142b7565b9050612e8d565b612e8a612e6c612e5586612710615b0d565b90505b6040805160a0810182528781526001600160a01b0383811660208301908152600083850181815260016060860190815260808601928352609954609b54609c5498516383d778eb60e01b8152600481019190915263ffffffff90981660248901528651604489015293518516606488015290511515608487015251151560a486015251151560c485015291929116906383d778eb9060e40160408051808303816000875af1158015612f43573d6000803e3d6000fd5b505050506040513d601f19601f82011682018060405250810190612f679190615a65565b909890975095505050505050565b60a55460a454604051630cff5bdd60e21b81523060048201526001600160a01b03918216602482015260009291909116906333fd6f7490604401602060405180830381865afa158015612fcc573d6000803e3d6000fd5b505050506040513d601f19601f82011682018060405250810190612ff091906154ba565b905060ab5481111561105f57600061271060ac548361300f9190615b30565b6130199190615b4f565b6130239083615911565b60a554604051634274debf60e11b81523060048201529192506001600160a01b0316906384e9bd7e90602401600060405180830381600087803b15801561306957600080fd5b505af115801561307d573d6000803e3d6000fd5b505050507f8e55ccfc9778ff8eba1646d765cf1982537ce0f9257054a17b48aad745250183826040516130b291815260200190565b60405180910390a160a45460a25460a1546040516bffffffffffffffffffffffff19606094851b8116602083015261017760eb1b603483015292841b83166037820152607d60ea1b604b820152921b16604e82015260009060620160408051808303601f190181529082905260aa5460a95460a65460a854631a6dbd7760e21b865293955073__$f09208ef53137b379b85ea4a8d399069d8$__946369b6f5dc9461317994899490936001600160a01b03918216938a939183169290911690600401615b71565b602060405180830381865af4158015613196573d6000803e3d6000fd5b505050506040513d601f19601f820116820180604052508101906131ba91906154ba565b506065546040516370a0823160e01b81523060048201526125d1916001600160a01b0316906370a0823190602401612452565b609954609b54604051631c7a838360e31b815260048101919091526000916001600160a01b03169063e3d41c1890602401602060405180830381865afa15801561323b573d6000803e3d6000fd5b505050506040513d601f19601f8201168201806040525081019061325f91906154ba565b905060008113156132f257609954609b546001600160a01b0390911690639cd1be589061328e84600019615bba565b6040516001600160e01b031960e085901b16815260048101929092526024820152604401600060405180830381600087803b1580156132cc57600080fd5b505af11580156132e0573d6000803e3d6000fd5b505050506132ed816142e0565b613393565b600081121561339357600061331161330c83600019615bba565b6143df565b9050801561339157609954609b546001600160a01b0390911690639cd1be589061333a846125d6565b6040516001600160e01b031960e085901b16815260048101929092526024820152604401600060405180830381600087803b15801561337857600080fd5b505af115801561338c573d6000803e3d6000fd5b505050505b505b8251600090156134e2576000846000815181106133b2576133b26158ba565b602002602001015190506134d0609860009054906101000a90046001600160a01b03166001600160a01b031663313ce5676040518163ffffffff1660e01b8152600401602060405180830381865afa158015613412573d6000803e3d6000fd5b505050506040513d601f19601f820116820180604052508101906134369190615c3f565b61344190600a615d46565b609a60009054906101000a90046001600160a01b03166001600160a01b031663313ce5676040518163ffffffff1660e01b8152600401602060405180830381865afa158015613494573d6000803e3d6000fd5b505050506040513d601f19601f820116820180604052508101906134b89190615c3f565b6134c390600a615d46565b612e2a84602001516125d6565b6134da9085615d55565b9150506134e5565b50815b611faa81614464565b60a55460405163b6b55f2560e01b8152600481018390526001600160a01b039091169063b6b55f2590602401600060405180830381600087803b15801561353457600080fd5b505af1158015613548573d6000803e3d6000fd5b50506040518381523392507f6e47dcdd359b6cd69456f0f97d394bd4540a2e7c4adc1b9da076859df53756c7915060200160405180910390a250565b609954609b54609c54604051633524324160e11b8152600481019290925263ffffffff16602482015260009182916001600160a01b0390911690636a48648290604401602060405180830381865afa1580156135e4573d6000803e3d6000fd5b505050506040513d601f19601f8201168201806040525081019061360891906154ba565b9050600061361d82613618612d47565b612e08565b60a05490915061364590600160981b900461ffff1661271061363e876141fa565b9190614205565b109392505050565b613655614c8c565b60a0546000906001600160801b0316156136d357609f5460a0546136ab91600160a01b8104600290810b92600160b81b909204900b9061369d906001600160801b0316614759565b6136a690615d94565b614787565b828260ff16600281106136c0576136c06158ba565b6020020152806136cf81615a89565b9150505b60006136dd612d47565b604051630ad6ed5b60e41b81526001600160a01b038216600482015260248101869052620c3500604482015290915060009073__$9842325bb1826b70c2ef476a1c714a02a7$__9063ad6ed5b090606401606060405180830381865af415801561374b573d6000803e3d6000fd5b505050506040513d601f19601f8201168201806040525081019061376f9190615dc3565b609f805465ffffffffffff60a01b1916600160b81b62ffffff9485160262ffffff60a01b191617600160a01b94909316939093029190911790915560a0549091506001600160801b031615806137ce575060a054600160801b900460ff165b156137ef5760a080546001600160801b0319166001600160801b0383161790555b609f5460a05461382391600160a01b8104600290810b92600160b81b909204900b906136a6906001600160801b0316614759565b848460ff1660028110613838576138386158ba565b60200201528261384781615a89565b935050505050919050565b60008061385d612d47565b609954609b54609c54604051633524324160e11b8152600481019290925263ffffffff1660248201529192506000916001600160a01b0390911690636a48648290604401602060405180830381865afa1580156138be573d6000803e3d6000fd5b505050506040513d601f19601f820116820180604052508101906138e291906154ba565b905060006138f18286886141b8565b6138fa90615973565b905060006139088385612e08565b60a054909150600160a81b90046001600160401b031681111561397d576000613942838660a060119054906101000a900461ffff16612e36565b50905082810361395457869550613977565b600061396a6139628a6125d6565b8390876147ff565b61397390615973565b9650505b50613981565b8594505b5050505092915050565b600080836001600160a01b0316631e2eaeaf6139a68561485c565b6040518263ffffffff1660e01b81526004016139c491815260200190565b602060405180830381865afa1580156139e1573d6000803e3d6000fd5b505050506040513d601f19601f82011682018060405250810190613a0591906154ba565b905063ffffffff60b082901c165b949350505050565b6000613a2983836001614884565b90508060400151613a3990615d94565b60a08054600090613a549084906001600160801b0316615dfd565b82546101009290920a6001600160801b0381810219909316918316021790915560a054166000039050613a8957600160a08201525b609954609b54609c5460405163c7505c1560e01b81526001600160a01b039093169263c7505c1592613aca92909163ffffffff9091169086906004016159c7565b60408051808303816000875af1158015613ae8573d6000803e3d6000fd5b505050506040513d601f19601f82011682018060405250810190613b0c9190615a65565b50506000613b1c61125584610db0565b9050611faa613b2a82615973565b614464565b60a754604080516354f0f7d560e01b815290517fc852a00896bd42656c7822f2f6c850502574cfdbb70db38df4ea5eb56f5af8fd926001600160a01b0316916354f0f7d59160048083019260209291908290030181865afa158015613b98573d6000803e3d6000fd5b505050506040513d601f19601f82011682018060405250810190613bbc91906154ba565b60405190815260200160405180910390a160a554604051632e1a7d4d60e01b8152600481018390526001600160a01b0390911690632e1a7d4d90602401600060405180830381600087803b158015613c1357600080fd5b505af1158015613c27573d6000803e3d6000fd5b5050505061105f612f75565b6000613c88826040518060400160405280602081526020017f5361666545524332303a206c6f772d6c6576656c2063616c6c206661696c6564815250856001600160a01b03166148ec9092919063ffffffff16565b8051909150156125d15780806020019051810190613ca69190615589565b6125d15760405162461bcd60e51b815260206004820152602a60248201527f5361666545524332303a204552433230206f7065726174696f6e20646964206e6044820152691bdd081cdd58d8d9595960b21b6064820152608401610a6f565b600054610100900460ff16613d2c5760405162461bcd60e51b8152600401610a6f90615928565b613d346148fb565b8051613d3f9061492a565b602081810151609c805463ffffffff191663ffffffff909216919091179055604080830151609980546001600160a01b0319166001600160a01b0390921691821790558151639dca362f60e01b815291519092639dca362f926004808201939182900301816000875af1158015613dba573d6000803e3d6000fd5b505050506040513d601f19601f82011682018060405250810190613dde91906154ba565b609b556060810151609a80546001600160a01b03199081166001600160a01b0393841617909155608083015160988054909216908316179055609c54609954613e3292169063ffffffff9081169061494116565b609c80546001600160a01b039290921664010000000002640100000000600160c01b0319909216919091179055609e80546c01518001f4000000000000000065ffffffffffff60401b19909116179081905560408051600160501b830463ffffffff168152600160401b90920461ffff1660208301527f9af00b5d3a5006b7a36e8fe4a8f67a155aa897efbee30711b474e18eed2215559101610b14565b60a754604080516354f0f7d560e01b815290517fc852a00896bd42656c7822f2f6c850502574cfdbb70db38df4ea5eb56f5af8fd926001600160a01b0316916354f0f7d59160048083019260209291908290030181865afa158015613f39573d6000803e3d6000fd5b505050506040513d601f19601f82011682018060405250810190613f5d91906154ba565b60405190815260200160405180910390a161105f816134ee565b6000613f8561125583610db0565b9050613f9081614464565b613f98614cb9565b60a0546001600160801b0316158015613fb057508284145b156140ce576000613fbf612d47565b604051630ad6ed5b60e41b81526001600160a01b038216600482015260248101859052620c3500604482015290915073__$9842325bb1826b70c2ef476a1c714a02a7$__9063ad6ed5b090606401606060405180830381865af415801561402a573d6000803e3d6000fd5b505050506040513d601f19601f8201168201806040525081019061404e9190615dc3565b60a080546001600160801b0319166001600160801b03929092169182179055609f805465ffffffffffff60a01b1916600160b81b62ffffff948516810262ffffff60a01b191691909117600160a01b95909416850293909317908190556140c6938104600290810b93909104900b906136a690614759565b91505061412d565b6140e36140db8486615911565b846000614884565b604081015160a0805492935090916000906141089084906001600160801b0316615e1d565b92506101000a8154816001600160801b0302191690836001600160801b031602179055505b609954609b54609c5460405163c7505c1560e01b81526001600160a01b039093169263c7505c159261416e92909163ffffffff9091169086906004016159c7565b60408051808303816000875af115801561418c573d6000803e3d6000fd5b505050506040513d601f19601f820116820180604052508101906141b09190615a65565b505050505050565b60006141e66141e1600086126141ce57856141da565b6141da86600019615bba565b8585614205565b6149bb565b905060008412156109a857613a1381615973565b60006109c3826149cd565b600080806000198587098587029250828110838203039150508060000361423e576000841161423357600080fd5b5082900490506109a8565b80841161424a57600080fd5b6000848688096000868103871696879004966002600389028118808a02820302808a02820302808a02820302808a02820302808a02820302808a02909103029181900381900460010186841190950394909402919094039290920491909117919091029150509392505050565b806001600160a01b03811681146128835760405162461bcd60e51b8152600401610a6f90615aa8565b60a35460a1546040516bffffffffffffffffffffffff19606093841b81166020830152607d60ea1b60348301529190921b166037820152600090604b0160408051601f198184030181529082905260a65460a854638b8f9f0f60e01b845291935073__$f09208ef53137b379b85ea4a8d399069d8$__92638b8f9f0f9261437b92879287926001600160a01b03928316921690600401615e3f565b60006040518083038186803b15801561439357600080fd5b505af41580156143a7573d6000803e3d6000fd5b50506065546040516370a0823160e01b8152306004820152610ab593506001600160a01b0390911691506370a0823190602401612452565b60a75460a55460a85460a15460a65460a3546040516303d0ed4560e31b8152600481018890526001600160a01b039687166024820152948616604486015292851660648501529084166084840152831660a48301529190911660c482015260009073__$9842325bb1826b70c2ef476a1c714a02a7$__90631e876a289060e401610dfa565b6000614575609a60009054906101000a90046001600160a01b03166001600160a01b031663313ce5676040518163ffffffff1660e01b8152600401602060405180830381865afa1580156144bc573d6000803e3d6000fd5b505050506040513d601f19601f820116820180604052508101906144e09190615c3f565b6144eb90600a615d46565b609860009054906101000a90046001600160a01b03166001600160a01b031663313ce5676040518163ffffffff1660e01b8152600401602060405180830381865afa15801561453e573d6000803e3d6000fd5b505050506040513d601f19601f820116820180604052508101906145629190615c3f565b61456d90600a615d46565b8491906141b8565b90506000614582826141fa565b9050600082131561467b57609a546040516340c10f1960e01b81526001600160a01b03909116906340c10f19906145bf9030908590600401615570565b600060405180830381600087803b1580156145d957600080fd5b505af11580156145ed573d6000803e3d6000fd5b5050609954609b54609a546001600160a01b039092169350637d2efe0792509063ffffffff166040516001600160e01b031960e085901b168152600481019290925263ffffffff16602482015260448101849052606401600060405180830381600087803b15801561465e57600080fd5b505af1158015614672573d6000803e3d6000fd5b50505050505050565b60008212156125d157609954609b54609a546001600160a01b0390921691637d2efe07919063ffffffff166146af85615973565b6040516001600160e01b031960e086901b168152600481019390935263ffffffff9190911660248301526044820152606401600060405180830381600087803b1580156146fb57600080fd5b505af115801561470f573d6000803e3d6000fd5b5050609a54604051630852cd8d60e31b8152600481018590526001600160a01b0390911692506342966c689150602401600060405180830381600087803b15801561465e57600080fd5b60006001607f1b826001600160801b0316106125fb5760405162461bcd60e51b8152600401610a6f90615aa8565b61478f614cb9565b6040518061010001604052808560020b81526020018460020b815260200183600f0b815260200160006001600160a01b03168152602001600061ffff168152602001600015158152602001600060028111156147ed576147ed61598f565b81526000602090910152949350505050565b6000600181808061481088856149e4565b9450925061481e87856149e4565b9450915061482c86856149e4565b9450905061483e6141e1848484614205565b9450836148515761484e85615973565b94505b505050509392505050565b60006109c36003614880606463ffffffff86165b9060009182526020526040902090565b0190565b61488c614cb9565b60a0546000906148b5906148b09086908890612e2a906001600160801b03166125d6565b614a0e565b905082156148c9576148c681615d94565b90505b609f5461141c90600160a01b8104600290810b91600160b81b9004900b83614787565b6060613a138484600085614a32565b600054610100900460ff166149225760405162461bcd60e51b8152600401610a6f90615928565b610f05614b63565b61105f816000015182602001518360400151614b93565b600080836001600160a01b0316631e2eaeaf61495c85614bc1565b6040518263ffffffff1660e01b815260040161497a91815260200190565b602060405180830381865afa158015614997573d6000803e3d6000fd5b505050506040513d601f19601f82011682018060405250810190613a1391906154ba565b6000600160ff1b82106125fb57600080fd5b60008082136125fb576149df82615973565b6109c3565b6000806000841215614a03579115916149fc84615973565b9150614a07565b8391505b5092909150565b80600f81900b81146128835760405162461bcd60e51b8152600401610a6f90615aa8565b606082471015614a935760405162461bcd60e51b815260206004820152602660248201527f416464726573733a20696e73756666696369656e742062616c616e636520666f6044820152651c8818d85b1b60d21b6064820152608401610a6f565b6001600160a01b0385163b614aea5760405162461bcd60e51b815260206004820152601d60248201527f416464726573733a2063616c6c20746f206e6f6e2d636f6e74726163740000006044820152606401610a6f565b600080866001600160a01b03168587604051614b069190615e79565b60006040518083038185875af1925050503d8060008114614b43576040519150601f19603f3d011682016040523d82523d6000602084013e614b48565b606091505b5091509150614b58828286614bd9565b979650505050505050565b600054610100900460ff16614b8a5760405162461bcd60e51b8152600401610a6f90615928565b610f0533612243565b614b9d8282614c12565b5050606580546001600160a01b0319166001600160a01b0392909216919091179055565b60006109c36001614880606463ffffffff8616614870565b60608315614be85750816109a8565b825115614bf85782518084602001fd5b8160405162461bcd60e51b8152600401610a6f9190614de6565b600054610100900460ff16614c395760405162461bcd60e51b8152600401610a6f90615928565b610ab58282600054610100900460ff16614c655760405162461bcd60e51b8152600401610a6f90615928565b8151614c78906036906020850190614cfe565b5080516125d1906037906020840190614cfe565b60405180604001604052806002905b614ca3614cb9565b815260200190600190039081614c9b5790505090565b6040805161010081018252600080825260208201819052918101829052606081018290526080810182905260a081018290529060c08201908152600060209091015290565b828054614d0a90615501565b90600052602060002090601f016020900481019282614d2c5760008555614d72565b82601f10614d4557805160ff1916838001178555614d72565b82800160010185558215614d72579182015b82811115614d72578251825591602001919060010190614d57565b506125fb9291505b808211156125fb5760008155600101614d7a565b60005b83811015614da9578181015183820152602001614d91565b83811115611faa5750506000910152565b60008151808452614dd2816020860160208601614d8e565b601f01601f19169290920160200192915050565b6020815260006109a86020830184614dba565b600060208284031215614e0b57600080fd5b5035919050565b6001600160a01b038116811461105f57600080fd5b803561288381614e12565b60008060408385031215614e4557600080fd5b8235614e5081614e12565b946020939093013593505050565b634e487b7160e01b600052604160045260246000fd5b604051608081016001600160401b0381118282101715614e9657614e96614e5e565b60405290565b60405160a081016001600160401b0381118282101715614e9657614e96614e5e565b604051606081016001600160401b0381118282101715614e9657614e96614e5e565b60405161012081016001600160401b0381118282101715614e9657614e96614e5e565b604080519081016001600160401b0381118282101715614e9657614e96614e5e565b604051601f8201601f191681016001600160401b0381118282101715614f4d57614f4d614e5e565b604052919050565b600082601f830112614f6657600080fd5b81356001600160401b03811115614f7f57614f7f614e5e565b614f92601f8201601f1916602001614f25565b818152846020838601011115614fa757600080fd5b816020850160208301376000918101602001919091529392505050565b63ffffffff8116811461105f57600080fd5b803561288381614fc4565b803561ffff8116811461288357600080fd5b80356001600160401b038116811461288357600080fd5b60006080828403121561501c57600080fd5b615024614e74565b905081356001600160401b038082111561503d57600080fd5b9083019060a0828603121561505157600080fd5b615059614e9c565b82358281111561506857600080fd5b83016060818803121561507a57600080fd5b615082614ebe565b813561508d81614e12565b8152602082810135858111156150a257600080fd5b6150ae8a828601614f55565b8284015250604080840135868111156150c657600080fd5b6150d28b828701614f55565b82850152508285526150e5828801614fd6565b828601526150f4818801614e27565b8186015261510460608801614e27565b606086015261511560808801614e27565b6080860152848852615128828a01614fe1565b82890152615137818a01614fe1565b818901525050505050505061514e60608301614ff3565b606082015292915050565b60006020828403121561516b57600080fd5b81356001600160401b038082111561518257600080fd5b90830190610120828603121561519757600080fd5b61519f614ee0565b8235828111156151ae57600080fd5b6151ba8782860161500a565b8252506151c960208401614e27565b60208201526151da60408401614e27565b60408201526151eb60608401614e27565b60608201526151fc60808401614e27565b608082015261520d60a08401614e27565b60a082015261521e60c08401614e27565b60c082015261522f60e08401614e27565b60e08201526101009150615244828401614e27565b91810191909152949350505050565b60008060006060848603121561526857600080fd5b833561527381614e12565b9250602084013561528381614e12565b929592945050506040919091013590565b6000602082840312156152a657600080fd5b81356109a881614e12565b600080604083850312156152c457600080fd5b8235915060208301356152d681614e12565b809150509250929050565b600080604083850312156152f457600080fd5b82356152ff81614fc4565b915061530d60208401614fe1565b90509250929050565b60008060006060848603121561532b57600080fd5b83359250602084013561533d81614e12565b9150604084013561534d81614e12565b809150509250925092565b60006001600160401b0382111561537157615371614e5e565b5060051b60200190565b6000602080838503121561538e57600080fd5b82356001600160401b038111156153a457600080fd5b8301601f810185136153b557600080fd5b80356153c86153c382615358565b614f25565b81815260059190911b820183019083810190878311156153e757600080fd5b928401925b82841015614b58578335825292840192908401906153ec565b6020808252825182820181905260009190848201906040850190845b8181101561543d57835183529284019291840191600101615421565b50909695505050505050565b6000806040838503121561545c57600080fd5b823561546781614e12565b915060208301356152d681614e12565b60008060006060848603121561548c57600080fd5b61549584614fe1565b92506154a360208501614fe1565b91506154b160408501614ff3565b90509250925092565b6000602082840312156154cc57600080fd5b5051919050565b634e487b7160e01b600052601160045260246000fd5b600082198211156154fc576154fc6154d3565b500190565b600181811c9082168061551557607f821691505b60208210810361553557634e487b7160e01b600052602260045260246000fd5b50919050565b6020808252818101527f4f776e61626c653a2063616c6c6572206973206e6f7420746865206f776e6572604082015260600190565b6001600160a01b03929092168252602082015260400190565b60006020828403121561559b57600080fd5b815180151581146109a857600080fd5b8051600281900b811461288357600080fd5b80516001600160801b038116811461288357600080fd5b80516003811061288357600080fd5b600082601f8301126155f457600080fd5b815160206156046153c383615358565b82815260059290921b8401810191818101908684111561562357600080fd5b8286015b848110156157a95780516001600160401b038082111561564657600080fd5b9088019060a0828b03601f1901121561565e57600080fd5b615666614e9c565b8683015161567381614fc4565b80825250604083015187820152606083015160408201526080830151606082015260a0830151828111156156a657600080fd5b8084019350508a603f8401126156bb57600080fd5b8683015191506156cd6153c383615358565b82815261012092830284016040019288820191908d8511156156ee57600080fd5b6040860195505b848610156157935780868f03121561570c57600080fd5b615714614ee0565b61571d876155ab565b815261572a8b88016155ab565b8b82015261573a604088016155bd565b6040820152606087015160608201526080870151608082015260a087015160a082015260c087015160c082015260e087015160e082015261577e61010088016155d4565b610100820152835294850194918901916156f5565b5060808301525085525050918301918301615627565b509695505050505050565b600080600080608085870312156157ca57600080fd5b84516157d581614e12565b8094505060208086015193506040808701516001600160401b03808211156157fc57600080fd5b818901915089601f83011261581057600080fd5b815161581e6153c382615358565b81815260069190911b8301850190858101908c83111561583d57600080fd5b938601935b828510156158865785858e03121561585a5760008081fd5b615862614f03565b855161586d81614e12565b8152858801518882015282529385019390860190615842565b60608c0151909850955050508084111561589f57600080fd5b5050506158ae878288016155e3565b91505092959194509250565b634e487b7160e01b600052603260045260246000fd5b600080821280156001600160ff1b03849003851316156158f2576158f26154d3565b600160ff1b839003841281161561590b5761590b6154d3565b50500190565b600082821015615923576159236154d3565b500390565b6020808252602b908201527f496e697469616c697a61626c653a20636f6e7472616374206973206e6f74206960408201526a6e697469616c697a696e6760a81b606082015260800190565b6000600160ff1b8201615988576159886154d3565b5060000390565b634e487b7160e01b600052602160045260246000fd5b600381106159c357634e487b7160e01b600052602160045260246000fd5b9052565b60006101408201905084825263ffffffff84166020830152825160020b6040830152602083015160020b60608301526040830151600f0b60808301526060830151615a1d60a08401826001600160a01b03169052565b50608083015161ffff1660c08381019190915260a0840151151560e0840152830151615a4d6101008401826159a5565b5060e083015180151561012084015250949350505050565b60008060408385031215615a7857600080fd5b505080516020909101519092909150565b600060ff821660ff8103615a9f57615a9f6154d3565b60010192915050565b6020808252600890820152674f766572666c6f7760c01b604082015260600190565b600060208284031215615adc57600080fd5b81516109a881614e12565b600061ffff808316818516808303821115615b0457615b046154d3565b01949350505050565b600061ffff83811690831681811015615b2857615b286154d3565b039392505050565b6000816000190483118215151615615b4a57615b4a6154d3565b500290565b600082615b6c57634e487b7160e01b600052601260045260246000fd5b500490565b868152856020820152600060018060a01b03808716604084015260c06060840152615b9f60c0840187614dba565b94811660808401529290921660a09091015250949350505050565b60006001600160ff1b0381841382841380821686840486111615615be057615be06154d3565b600160ff1b6000871282811687830589121615615bff57615bff6154d3565b60008712925087820587128484161615615c1b57615c1b6154d3565b87850587128184161615615c3157615c316154d3565b505050929093029392505050565b600060208284031215615c5157600080fd5b815160ff811681146109a857600080fd5b600181815b80851115615c9d578160001904821115615c8357615c836154d3565b80851615615c9057918102915b93841c9390800290615c67565b509250929050565b600082615cb4575060016109c3565b81615cc1575060006109c3565b8160018114615cd75760028114615ce157615cfd565b60019150506109c3565b60ff841115615cf257615cf26154d3565b50506001821b6109c3565b5060208310610133831016604e8410600b8410161715615d20575081810a6109c3565b615d2a8383615c62565b8060001904821115615d3e57615d3e6154d3565b029392505050565b60006109a860ff841683615ca5565b60008083128015600160ff1b850184121615615d7357615d736154d3565b6001600160ff1b0384018313811615615d8e57615d8e6154d3565b50500390565b600081600f0b6f7fffffffffffffffffffffffffffffff198103615dba57615dba6154d3565b60000392915050565b600080600060608486031215615dd857600080fd5b615de1846155ab565b9250615def602085016155ab565b91506154b1604085016155bd565b60006001600160801b0383811690831681811015615b2857615b286154d3565b60006001600160801b03808316818516808303821115615b0457615b046154d3565b848152608060208201526000615e586080830186614dba565b6001600160a01b039485166040840152929093166060909101529392505050565b60008251615e8b818460208701614d8e565b919091019291505056fea164736f6c634300080d000a",
  "libraries": {
    "SwapManager": "0xa6fD01D0F8b366beDa3C35a6E8bDE296Da11a199",
    "Logic": "0xC88bBEa708B5748DAB3b6729f3Bfb16b1b6188f1"
  },
  "userdoc": {
    "kind": "user",
    "methods": {
      "changeFee(uint256)": {
        "notice": "changes the fee value for CRV yield generated"
      },
      "closeTokenPosition()": {
        "notice": "closes remaining token position (To be used when reset condition is hit)"
      },
      "extsload(bytes32)": {
        "notice": "Returns a value from the storage."
      },
      "extsload(bytes32[])": {
        "notice": "Returns multiple values from storage."
      },
      "getMarketValue(uint256)": {
        "notice": "compute notional value for given amount of LP tokens"
      },
      "getPriceX128()": {
        "notice": "gives x128 price of 1 tricrypto LP token"
      },
      "getVaultMarketValue()": {
        "notice": "Returns account market value of vault in USDC (settlement token)"
      },
      "grantAllowances()": {
        "notice": "grants one time max allowance to various third parties"
      },
      "rebalance()": {
        "notice": "Rebalance the vault assets"
      },
      "setCrvOracle(address)": {
        "notice": "Sets the CRV to USD oracle address"
      },
      "setCrvSwapSlippageTolerance(uint256)": {
        "notice": "Sets the max allowed slippage tolerance for CRV->WETH->USDT swap"
      },
      "setNotionalCrvHarvestThreshold(uint256)": {
        "notice": "Sets the minimum threshold to harvest CRV rewards"
      },
      "totalAssets()": {
        "notice": "returns the total vault asset balance + staked balance"
      },
      "updateDepositCap(uint256)": {
        "notice": "Set the deposit cap for the vault in asset amount"
      },
      "withdrawFees()": {
        "notice": "withdraw accumulated CRV fees"
      }
    },
    "version": 1
  },
  "storageLayout": {
    "storage": [
      {
        "astId": 217,
        "contract": "contracts/yieldStrategy/CurveYieldStrategy.sol:CurveYieldStrategy",
        "label": "_initialized",
        "offset": 0,
        "slot": "0",
        "type": "t_bool"
      },
      {
        "astId": 220,
        "contract": "contracts/yieldStrategy/CurveYieldStrategy.sol:CurveYieldStrategy",
        "label": "_initializing",
        "offset": 1,
        "slot": "0",
        "type": "t_bool"
      },
      {
        "astId": 1395,
        "contract": "contracts/yieldStrategy/CurveYieldStrategy.sol:CurveYieldStrategy",
        "label": "__gap",
        "offset": 0,
        "slot": "1",
        "type": "t_array(t_uint256)50_storage"
      },
      {
        "astId": 414,
        "contract": "contracts/yieldStrategy/CurveYieldStrategy.sol:CurveYieldStrategy",
        "label": "_balances",
        "offset": 0,
        "slot": "51",
        "type": "t_mapping(t_address,t_uint256)"
      },
      {
        "astId": 420,
        "contract": "contracts/yieldStrategy/CurveYieldStrategy.sol:CurveYieldStrategy",
        "label": "_allowances",
        "offset": 0,
        "slot": "52",
        "type": "t_mapping(t_address,t_mapping(t_address,t_uint256))"
      },
      {
        "astId": 422,
        "contract": "contracts/yieldStrategy/CurveYieldStrategy.sol:CurveYieldStrategy",
        "label": "_totalSupply",
        "offset": 0,
        "slot": "53",
        "type": "t_uint256"
      },
      {
        "astId": 424,
        "contract": "contracts/yieldStrategy/CurveYieldStrategy.sol:CurveYieldStrategy",
        "label": "_name",
        "offset": 0,
        "slot": "54",
        "type": "t_string_storage"
      },
      {
        "astId": 426,
        "contract": "contracts/yieldStrategy/CurveYieldStrategy.sol:CurveYieldStrategy",
        "label": "_symbol",
        "offset": 0,
        "slot": "55",
        "type": "t_string_storage"
      },
      {
        "astId": 1007,
        "contract": "contracts/yieldStrategy/CurveYieldStrategy.sol:CurveYieldStrategy",
        "label": "__gap",
        "offset": 0,
        "slot": "56",
        "type": "t_array(t_uint256)45_storage"
      },
      {
        "astId": 29940,
        "contract": "contracts/yieldStrategy/CurveYieldStrategy.sol:CurveYieldStrategy",
        "label": "asset",
        "offset": 0,
        "slot": "101",
        "type": "t_contract(IERC20Metadata)3643"
      },
      {
        "astId": 97,
        "contract": "contracts/yieldStrategy/CurveYieldStrategy.sol:CurveYieldStrategy",
        "label": "_owner",
        "offset": 0,
        "slot": "102",
        "type": "t_address"
      },
      {
        "astId": 209,
        "contract": "contracts/yieldStrategy/CurveYieldStrategy.sol:CurveYieldStrategy",
        "label": "__gap",
        "offset": 0,
        "slot": "103",
        "type": "t_array(t_uint256)49_storage"
      },
      {
        "astId": 24921,
        "contract": "contracts/yieldStrategy/CurveYieldStrategy.sol:CurveYieldStrategy",
        "label": "rageSettlementToken",
        "offset": 0,
        "slot": "152",
        "type": "t_contract(IERC20Metadata)3643"
      },
      {
        "astId": 24924,
        "contract": "contracts/yieldStrategy/CurveYieldStrategy.sol:CurveYieldStrategy",
        "label": "rageClearingHouse",
        "offset": 0,
        "slot": "153",
        "type": "t_contract(IClearingHouse)5742"
      },
      {
        "astId": 24927,
        "contract": "contracts/yieldStrategy/CurveYieldStrategy.sol:CurveYieldStrategy",
        "label": "rageCollateralToken",
        "offset": 0,
        "slot": "154",
        "type": "t_contract(ERC20PresetMinterPauser)3779"
      },
      {
        "astId": 24929,
        "contract": "contracts/yieldStrategy/CurveYieldStrategy.sol:CurveYieldStrategy",
        "label": "rageAccountNo",
        "offset": 0,
        "slot": "155",
        "type": "t_uint256"
      },
      {
        "astId": 24931,
        "contract": "contracts/yieldStrategy/CurveYieldStrategy.sol:CurveYieldStrategy",
        "label": "ethPoolId",
        "offset": 0,
        "slot": "156",
        "type": "t_uint32"
      },
      {
        "astId": 24934,
        "contract": "contracts/yieldStrategy/CurveYieldStrategy.sol:CurveYieldStrategy",
        "label": "rageVPool",
        "offset": 4,
        "slot": "156",
        "type": "t_contract(IUniswapV3Pool)22317"
      },
      {
        "astId": 24936,
        "contract": "contracts/yieldStrategy/CurveYieldStrategy.sol:CurveYieldStrategy",
        "label": "depositCap",
        "offset": 0,
        "slot": "157",
        "type": "t_uint256"
      },
      {
        "astId": 24938,
        "contract": "contracts/yieldStrategy/CurveYieldStrategy.sol:CurveYieldStrategy",
        "label": "lastRebalanceTS",
        "offset": 0,
        "slot": "158",
        "type": "t_uint64"
      },
      {
        "astId": 24940,
        "contract": "contracts/yieldStrategy/CurveYieldStrategy.sol:CurveYieldStrategy",
        "label": "rebalancePriceThresholdBps",
        "offset": 8,
        "slot": "158",
        "type": "t_uint16"
      },
      {
        "astId": 24942,
        "contract": "contracts/yieldStrategy/CurveYieldStrategy.sol:CurveYieldStrategy",
        "label": "rebalanceTimeThreshold",
        "offset": 10,
        "slot": "158",
        "type": "t_uint32"
      },
      {
        "astId": 24944,
        "contract": "contracts/yieldStrategy/CurveYieldStrategy.sol:CurveYieldStrategy",
        "label": "keeper",
        "offset": 0,
        "slot": "159",
        "type": "t_address"
      },
      {
        "astId": 27395,
        "contract": "contracts/yieldStrategy/CurveYieldStrategy.sol:CurveYieldStrategy",
        "label": "baseTickLower",
        "offset": 20,
        "slot": "159",
        "type": "t_int24"
      },
      {
        "astId": 27397,
        "contract": "contracts/yieldStrategy/CurveYieldStrategy.sol:CurveYieldStrategy",
        "label": "baseTickUpper",
        "offset": 23,
        "slot": "159",
        "type": "t_int24"
      },
      {
        "astId": 27399,
        "contract": "contracts/yieldStrategy/CurveYieldStrategy.sol:CurveYieldStrategy",
        "label": "baseLiquidity",
        "offset": 0,
        "slot": "160",
        "type": "t_uint128"
      },
      {
        "astId": 27401,
        "contract": "contracts/yieldStrategy/CurveYieldStrategy.sol:CurveYieldStrategy",
        "label": "isReset",
        "offset": 16,
        "slot": "160",
        "type": "t_bool"
      },
      {
        "astId": 27403,
        "contract": "contracts/yieldStrategy/CurveYieldStrategy.sol:CurveYieldStrategy",
        "label": "closePositionSlippageSqrtToleranceBps",
        "offset": 17,
        "slot": "160",
        "type": "t_uint16"
      },
      {
        "astId": 27405,
        "contract": "contracts/yieldStrategy/CurveYieldStrategy.sol:CurveYieldStrategy",
        "label": "resetPositionThresholdBps",
        "offset": 19,
        "slot": "160",
        "type": "t_uint16"
      },
      {
        "astId": 27407,
        "contract": "contracts/yieldStrategy/CurveYieldStrategy.sol:CurveYieldStrategy",
        "label": "minNotionalPositionToCloseThreshold",
        "offset": 21,
        "slot": "160",
        "type": "t_uint64"
      },
      {
        "astId": 30450,
        "contract": "contracts/yieldStrategy/CurveYieldStrategy.sol:CurveYieldStrategy",
        "label": "usdt",
        "offset": 0,
        "slot": "161",
        "type": "t_contract(IERC20)3537"
      },
      {
        "astId": 30453,
        "contract": "contracts/yieldStrategy/CurveYieldStrategy.sol:CurveYieldStrategy",
        "label": "weth",
        "offset": 0,
        "slot": "162",
        "type": "t_contract(IERC20)3537"
      },
      {
        "astId": 30456,
        "contract": "contracts/yieldStrategy/CurveYieldStrategy.sol:CurveYieldStrategy",
        "label": "usdc",
        "offset": 0,
        "slot": "163",
        "type": "t_contract(IERC20)3537"
      },
      {
        "astId": 30459,
        "contract": "contracts/yieldStrategy/CurveYieldStrategy.sol:CurveYieldStrategy",
        "label": "crvToken",
        "offset": 0,
        "slot": "164",
        "type": "t_contract(IERC20)3537"
      },
      {
        "astId": 30462,
        "contract": "contracts/yieldStrategy/CurveYieldStrategy.sol:CurveYieldStrategy",
        "label": "gauge",
        "offset": 0,
        "slot": "165",
        "type": "t_contract(ICurveGauge)26322"
      },
      {
        "astId": 30465,
        "contract": "contracts/yieldStrategy/CurveYieldStrategy.sol:CurveYieldStrategy",
        "label": "uniV3Router",
        "offset": 0,
        "slot": "166",
        "type": "t_contract(ISwapRouter)24833"
      },
      {
        "astId": 30468,
        "contract": "contracts/yieldStrategy/CurveYieldStrategy.sol:CurveYieldStrategy",
        "label": "lpPriceHolder",
        "offset": 0,
        "slot": "167",
        "type": "t_contract(ILPPriceGetter)26427"
      },
      {
        "astId": 30471,
        "contract": "contracts/yieldStrategy/CurveYieldStrategy.sol:CurveYieldStrategy",
        "label": "triCryptoPool",
        "offset": 0,
        "slot": "168",
        "type": "t_contract(ICurveStableSwap)26419"
      },
      {
        "astId": 30474,
        "contract": "contracts/yieldStrategy/CurveYieldStrategy.sol:CurveYieldStrategy",
        "label": "crvOracle",
        "offset": 0,
        "slot": "169",
        "type": "t_contract(AggregatorV3Interface)45"
      },
      {
        "astId": 30476,
        "contract": "contracts/yieldStrategy/CurveYieldStrategy.sol:CurveYieldStrategy",
        "label": "crvSwapSlippageTolerance",
        "offset": 0,
        "slot": "170",
        "type": "t_uint256"
      },
      {
        "astId": 30478,
        "contract": "contracts/yieldStrategy/CurveYieldStrategy.sol:CurveYieldStrategy",
        "label": "notionalCrvHarvestThreshold",
        "offset": 0,
        "slot": "171",
        "type": "t_uint256"
      },
      {
        "astId": 30484,
        "contract": "contracts/yieldStrategy/CurveYieldStrategy.sol:CurveYieldStrategy",
        "label": "FEE",
        "offset": 0,
        "slot": "172",
        "type": "t_uint256"
      }
    ],
    "types": {
      "t_address": {
        "encoding": "inplace",
        "label": "address",
        "numberOfBytes": "20"
      },
      "t_array(t_uint256)45_storage": {
        "base": "t_uint256",
        "encoding": "inplace",
        "label": "uint256[45]",
        "numberOfBytes": "1440"
      },
      "t_array(t_uint256)49_storage": {
        "base": "t_uint256",
        "encoding": "inplace",
        "label": "uint256[49]",
        "numberOfBytes": "1568"
      },
      "t_array(t_uint256)50_storage": {
        "base": "t_uint256",
        "encoding": "inplace",
        "label": "uint256[50]",
        "numberOfBytes": "1600"
      },
      "t_bool": {
        "encoding": "inplace",
        "label": "bool",
        "numberOfBytes": "1"
      },
      "t_contract(AggregatorV3Interface)45": {
        "encoding": "inplace",
        "label": "contract AggregatorV3Interface",
        "numberOfBytes": "20"
      },
      "t_contract(ERC20PresetMinterPauser)3779": {
        "encoding": "inplace",
        "label": "contract ERC20PresetMinterPauser",
        "numberOfBytes": "20"
      },
      "t_contract(IClearingHouse)5742": {
        "encoding": "inplace",
        "label": "contract IClearingHouse",
        "numberOfBytes": "20"
      },
      "t_contract(ICurveGauge)26322": {
        "encoding": "inplace",
        "label": "contract ICurveGauge",
        "numberOfBytes": "20"
      },
      "t_contract(ICurveStableSwap)26419": {
        "encoding": "inplace",
        "label": "contract ICurveStableSwap",
        "numberOfBytes": "20"
      },
      "t_contract(IERC20)3537": {
        "encoding": "inplace",
        "label": "contract IERC20",
        "numberOfBytes": "20"
      },
      "t_contract(IERC20Metadata)3643": {
        "encoding": "inplace",
        "label": "contract IERC20Metadata",
        "numberOfBytes": "20"
      },
      "t_contract(ILPPriceGetter)26427": {
        "encoding": "inplace",
        "label": "contract ILPPriceGetter",
        "numberOfBytes": "20"
      },
      "t_contract(ISwapRouter)24833": {
        "encoding": "inplace",
        "label": "contract ISwapRouter",
        "numberOfBytes": "20"
      },
      "t_contract(IUniswapV3Pool)22317": {
        "encoding": "inplace",
        "label": "contract IUniswapV3Pool",
        "numberOfBytes": "20"
      },
      "t_int24": {
        "encoding": "inplace",
        "label": "int24",
        "numberOfBytes": "3"
      },
      "t_mapping(t_address,t_mapping(t_address,t_uint256))": {
        "encoding": "mapping",
        "key": "t_address",
        "label": "mapping(address => mapping(address => uint256))",
        "numberOfBytes": "32",
        "value": "t_mapping(t_address,t_uint256)"
      },
      "t_mapping(t_address,t_uint256)": {
        "encoding": "mapping",
        "key": "t_address",
        "label": "mapping(address => uint256)",
        "numberOfBytes": "32",
        "value": "t_uint256"
      },
      "t_string_storage": {
        "encoding": "bytes",
        "label": "string",
        "numberOfBytes": "32"
      },
      "t_uint128": {
        "encoding": "inplace",
        "label": "uint128",
        "numberOfBytes": "16"
      },
      "t_uint16": {
        "encoding": "inplace",
        "label": "uint16",
        "numberOfBytes": "2"
      },
      "t_uint256": {
        "encoding": "inplace",
        "label": "uint256",
        "numberOfBytes": "32"
      },
      "t_uint32": {
        "encoding": "inplace",
        "label": "uint32",
        "numberOfBytes": "4"
      },
      "t_uint64": {
        "encoding": "inplace",
        "label": "uint64",
        "numberOfBytes": "8"
      }
    }
  }
}