{
  "address": "0x926DFA6F00E83E6098805Dbd84A3F473f990fef7",
  "abi": [
    {
      "inputs": [
        {
          "internalType": "uint256",
          "name": "depositCap",
          "type": "uint256"
        },
        {
          "internalType": "uint256",
          "name": "depositAmount",
          "type": "uint256"
        }
      ],
      "name": "BV_DepositCap",
      "type": "error"
    },
    {
      "inputs": [],
      "name": "BV_InvalidRebalance",
      "type": "error"
    },
    {
      "inputs": [],
      "name": "BV_NoPositionToRebalance",
      "type": "error"
    },
    {
      "inputs": [
        {
          "internalType": "address",
          "name": "msgSender",
          "type": "address"
        },
        {
          "internalType": "address",
          "name": "authorisedKeeperAddress",
          "type": "address"
        }
      ],
      "name": "BV_OnlyKeeperAllowed",
      "type": "error"
    },
    {
      "inputs": [
        {
          "internalType": "string",
          "name": "reason",
          "type": "string"
        }
      ],
      "name": "CYS_EXTERAL_CALL_FAILED",
      "type": "error"
    },
    {
      "inputs": [],
      "name": "CYS_INVALID_SETTER_VALUE",
      "type": "error"
    },
    {
      "inputs": [],
      "name": "ETRS_INVALID_CLOSE",
      "type": "error"
    },
    {
      "anonymous": false,
      "inputs": [
        {
          "indexed": true,
          "internalType": "address",
          "name": "owner",
          "type": "address"
        },
        {
          "indexed": true,
          "internalType": "address",
          "name": "spender",
          "type": "address"
        },
        {
          "indexed": false,
          "internalType": "uint256",
          "name": "value",
          "type": "uint256"
        }
      ],
      "name": "Approval",
      "type": "event"
    },
    {
      "anonymous": false,
      "inputs": [
        {
          "indexed": true,
          "internalType": "address",
          "name": "caller",
          "type": "address"
        },
        {
          "indexed": true,
          "internalType": "address",
          "name": "owner",
          "type": "address"
        },
        {
          "indexed": false,
          "internalType": "uint256",
          "name": "assets",
          "type": "uint256"
        },
        {
          "indexed": false,
          "internalType": "uint256",
          "name": "shares",
          "type": "uint256"
        }
      ],
      "name": "Deposit",
      "type": "event"
    },
    {
      "anonymous": false,
      "inputs": [
        {
          "indexed": false,
          "internalType": "uint8",
          "name": "version",
          "type": "uint8"
        }
      ],
      "name": "Initialized",
      "type": "event"
    },
    {
      "anonymous": false,
      "inputs": [
        {
          "indexed": true,
          "internalType": "address",
          "name": "previousOwner",
          "type": "address"
        },
        {
          "indexed": true,
          "internalType": "address",
          "name": "newOwner",
          "type": "address"
        }
      ],
      "name": "OwnershipTransferred",
      "type": "event"
    },
    {
      "anonymous": false,
      "inputs": [
        {
          "indexed": true,
          "internalType": "address",
          "name": "from",
          "type": "address"
        },
        {
          "indexed": true,
          "internalType": "address",
          "name": "to",
          "type": "address"
        },
        {
          "indexed": false,
          "internalType": "uint256",
          "name": "value",
          "type": "uint256"
        }
      ],
      "name": "Transfer",
      "type": "event"
    },
    {
      "anonymous": false,
      "inputs": [
        {
          "indexed": true,
          "internalType": "address",
          "name": "caller",
          "type": "address"
        },
        {
          "indexed": true,
          "internalType": "address",
          "name": "receiver",
          "type": "address"
        },
        {
          "indexed": true,
          "internalType": "address",
          "name": "owner",
          "type": "address"
        },
        {
          "indexed": false,
          "internalType": "uint256",
          "name": "assets",
          "type": "uint256"
        },
        {
          "indexed": false,
          "internalType": "uint256",
          "name": "shares",
          "type": "uint256"
        }
      ],
      "name": "Withdraw",
      "type": "event"
    },
    {
      "inputs": [],
      "name": "FEE",
      "outputs": [
        {
          "internalType": "uint256",
          "name": "",
          "type": "uint256"
        }
      ],
      "stateMutability": "view",
      "type": "function"
    },
    {
      "inputs": [],
      "name": "MAX_BPS",
      "outputs": [
        {
          "internalType": "uint256",
          "name": "",
          "type": "uint256"
        }
      ],
      "stateMutability": "view",
      "type": "function"
    },
    {
      "inputs": [
        {
          "internalType": "address",
          "name": "owner",
          "type": "address"
        },
        {
          "internalType": "address",
          "name": "spender",
          "type": "address"
        }
      ],
      "name": "allowance",
      "outputs": [
        {
          "internalType": "uint256",
          "name": "",
          "type": "uint256"
        }
      ],
      "stateMutability": "view",
      "type": "function"
    },
    {
      "inputs": [
        {
          "internalType": "address",
          "name": "spender",
          "type": "address"
        },
        {
          "internalType": "uint256",
          "name": "amount",
          "type": "uint256"
        }
      ],
      "name": "approve",
      "outputs": [
        {
          "internalType": "bool",
          "name": "",
          "type": "bool"
        }
      ],
      "stateMutability": "nonpayable",
      "type": "function"
    },
    {
      "inputs": [],
      "name": "asset",
      "outputs": [
        {
          "internalType": "contract IERC20Metadata",
          "name": "",
          "type": "address"
        }
      ],
      "stateMutability": "view",
      "type": "function"
    },
    {
      "inputs": [
        {
          "internalType": "address",
          "name": "account",
          "type": "address"
        }
      ],
      "name": "balanceOf",
      "outputs": [
        {
          "internalType": "uint256",
          "name": "",
          "type": "uint256"
        }
      ],
      "stateMutability": "view",
      "type": "function"
    },
    {
      "inputs": [],
      "name": "baseLiquidity",
      "outputs": [
        {
          "internalType": "uint128",
          "name": "",
          "type": "uint128"
        }
      ],
      "stateMutability": "view",
      "type": "function"
    },
    {
      "inputs": [],
      "name": "baseTickLower",
      "outputs": [
        {
          "internalType": "int24",
          "name": "",
          "type": "int24"
        }
      ],
      "stateMutability": "view",
      "type": "function"
    },
    {
      "inputs": [],
      "name": "baseTickUpper",
      "outputs": [
        {
          "internalType": "int24",
          "name": "",
          "type": "int24"
        }
      ],
      "stateMutability": "view",
      "type": "function"
    },
    {
      "inputs": [],
      "name": "closePositionSlippageSqrtToleranceBps",
      "outputs": [
        {
          "internalType": "uint16",
          "name": "",
          "type": "uint16"
        }
      ],
      "stateMutability": "view",
      "type": "function"
    },
    {
      "inputs": [],
      "name": "closeTokenPosition",
      "outputs": [],
      "stateMutability": "nonpayable",
      "type": "function"
    },
    {
      "inputs": [
        {
          "internalType": "uint256",
          "name": "shares",
          "type": "uint256"
        }
      ],
      "name": "convertToAssets",
      "outputs": [
        {
          "internalType": "uint256",
          "name": "",
          "type": "uint256"
        }
      ],
      "stateMutability": "view",
      "type": "function"
    },
    {
      "inputs": [
        {
          "internalType": "uint256",
          "name": "assets",
          "type": "uint256"
        }
      ],
      "name": "convertToShares",
      "outputs": [
        {
          "internalType": "uint256",
          "name": "",
          "type": "uint256"
        }
      ],
      "stateMutability": "view",
      "type": "function"
    },
    {
      "inputs": [],
      "name": "decimals",
      "outputs": [
        {
          "internalType": "uint8",
          "name": "",
          "type": "uint8"
        }
      ],
      "stateMutability": "view",
      "type": "function"
    },
    {
      "inputs": [
        {
          "internalType": "address",
          "name": "spender",
          "type": "address"
        },
        {
          "internalType": "uint256",
          "name": "subtractedValue",
          "type": "uint256"
        }
      ],
      "name": "decreaseAllowance",
      "outputs": [
        {
          "internalType": "bool",
          "name": "",
          "type": "bool"
        }
      ],
      "stateMutability": "nonpayable",
      "type": "function"
    },
    {
      "inputs": [
        {
          "internalType": "uint256",
          "name": "amount",
          "type": "uint256"
        },
        {
          "internalType": "address",
          "name": "to",
          "type": "address"
        }
      ],
      "name": "deposit",
      "outputs": [
        {
          "internalType": "uint256",
          "name": "shares",
          "type": "uint256"
        }
      ],
      "stateMutability": "nonpayable",
      "type": "function"
    },
    {
      "inputs": [],
      "name": "depositCap",
      "outputs": [
        {
          "internalType": "uint256",
          "name": "",
          "type": "uint256"
        }
      ],
      "stateMutability": "view",
      "type": "function"
    },
    {
      "inputs": [],
      "name": "ethPoolId",
      "outputs": [
        {
          "internalType": "uint32",
          "name": "",
          "type": "uint32"
        }
      ],
      "stateMutability": "view",
      "type": "function"
    },
    {
      "inputs": [
        {
          "internalType": "bytes32",
          "name": "slot",
          "type": "bytes32"
        }
      ],
      "name": "extsload",
      "outputs": [
        {
          "internalType": "bytes32",
          "name": "val",
          "type": "bytes32"
        }
      ],
      "stateMutability": "view",
      "type": "function"
    },
    {
      "inputs": [
        {
          "internalType": "bytes32[]",
          "name": "slots",
          "type": "bytes32[]"
        }
      ],
      "name": "extsload",
      "outputs": [
        {
          "internalType": "bytes32[]",
          "name": "",
          "type": "bytes32[]"
        }
      ],
      "stateMutability": "view",
      "type": "function"
    },
    {
      "inputs": [
        {
          "internalType": "uint256",
          "name": "amount",
          "type": "uint256"
        }
      ],
      "name": "getMarketValue",
      "outputs": [
        {
          "internalType": "uint256",
          "name": "marketValue",
          "type": "uint256"
        }
      ],
      "stateMutability": "view",
      "type": "function"
    },
    {
      "inputs": [],
      "name": "getPriceX128",
      "outputs": [
        {
          "internalType": "uint256",
          "name": "priceX128",
          "type": "uint256"
        }
      ],
      "stateMutability": "view",
      "type": "function"
    },
    {
      "inputs": [],
      "name": "getVaultMarketValue",
      "outputs": [
        {
          "internalType": "int256",
          "name": "vaultMarketValue",
          "type": "int256"
        }
      ],
      "stateMutability": "view",
      "type": "function"
    },
    {
      "inputs": [],
      "name": "grantAllowances",
      "outputs": [],
      "stateMutability": "nonpayable",
      "type": "function"
    },
    {
      "inputs": [
        {
          "internalType": "address",
          "name": "spender",
          "type": "address"
        },
        {
          "internalType": "uint256",
          "name": "addedValue",
          "type": "uint256"
        }
      ],
      "name": "increaseAllowance",
      "outputs": [
        {
          "internalType": "bool",
          "name": "",
          "type": "bool"
        }
      ],
      "stateMutability": "nonpayable",
      "type": "function"
    },
    {
      "inputs": [
        {
          "components": [
            {
              "components": [
                {
                  "components": [
                    {
                      "components": [
                        {
                          "internalType": "contract IERC20Metadata",
                          "name": "asset",
                          "type": "address"
                        },
                        {
                          "internalType": "string",
                          "name": "name",
                          "type": "string"
                        },
                        {
                          "internalType": "string",
                          "name": "symbol",
                          "type": "string"
                        }
                      ],
                      "internalType": "struct RageERC4626.RageERC4626InitParams",
                      "name": "rageErc4626InitParams",
                      "type": "tuple"
                    },
                    {
                      "internalType": "uint32",
                      "name": "ethPoolId",
                      "type": "uint32"
                    },
                    {
                      "internalType": "address",
                      "name": "swapSimulator",
                      "type": "address"
                    },
                    {
                      "internalType": "address",
                      "name": "rageClearingHouse",
                      "type": "address"
                    },
                    {
                      "internalType": "address",
                      "name": "clearingHouseLens",
                      "type": "address"
                    },
                    {
                      "internalType": "address",
                      "name": "rageCollateralToken",
                      "type": "address"
                    },
                    {
                      "internalType": "address",
                      "name": "rageSettlementToken",
                      "type": "address"
                    }
                  ],
                  "internalType": "struct BaseVault.BaseVaultInitParams",
                  "name": "baseVaultInitParams",
                  "type": "tuple"
                },
                {
                  "internalType": "uint16",
                  "name": "closePositionSlippageSqrtToleranceBps",
                  "type": "uint16"
                },
                {
                  "internalType": "uint16",
                  "name": "resetPositionThresholdBps",
                  "type": "uint16"
                },
                {
                  "internalType": "uint64",
                  "name": "minNotionalPositionToCloseThreshold",
                  "type": "uint64"
                }
              ],
              "internalType": "struct EightyTwentyRangeStrategyVault.EightyTwentyRangeStrategyVaultInitParams",
              "name": "eightyTwentyRangeStrategyVaultInitParams",
              "type": "tuple"
            },
            {
              "internalType": "contract IERC20",
              "name": "usdt",
              "type": "address"
            },
            {
              "internalType": "contract IERC20",
              "name": "usdc",
              "type": "address"
            },
            {
              "internalType": "contract IERC20",
              "name": "weth",
              "type": "address"
            },
            {
              "internalType": "contract IERC20",
              "name": "crvToken",
              "type": "address"
            },
            {
              "internalType": "contract ICurveGauge",
              "name": "gauge",
              "type": "address"
            },
            {
              "internalType": "contract ISwapRouter",
              "name": "uniV3Router",
              "type": "address"
            },
            {
              "internalType": "contract ILPPriceGetter",
              "name": "lpPriceHolder",
              "type": "address"
            },
            {
              "internalType": "contract ICurveStableSwap",
              "name": "tricryptoPool",
              "type": "address"
            }
          ],
          "internalType": "struct CurveYieldStrategy.CurveYieldStrategyInitParams",
          "name": "curveYieldStrategyInitParams",
          "type": "tuple"
        }
      ],
      "name": "initialize",
      "outputs": [],
      "stateMutability": "nonpayable",
      "type": "function"
    },
    {
      "inputs": [],
      "name": "isReset",
      "outputs": [
        {
          "internalType": "bool",
          "name": "",
          "type": "bool"
        }
      ],
      "stateMutability": "view",
      "type": "function"
    },
    {
      "inputs": [
        {
          "internalType": "int256",
          "name": "vaultMarketValue",
          "type": "int256"
        }
      ],
      "name": "isValidRebalance",
      "outputs": [
        {
          "internalType": "bool",
          "name": "isValid",
          "type": "bool"
        }
      ],
      "stateMutability": "view",
      "type": "function"
    },
    {
      "inputs": [],
      "name": "keeper",
      "outputs": [
        {
          "internalType": "address",
          "name": "",
          "type": "address"
        }
      ],
      "stateMutability": "view",
      "type": "function"
    },
    {
      "inputs": [],
      "name": "lastRebalanceTS",
      "outputs": [
        {
          "internalType": "uint64",
          "name": "",
          "type": "uint64"
        }
      ],
      "stateMutability": "view",
      "type": "function"
    },
    {
      "inputs": [
        {
          "internalType": "address",
          "name": "",
          "type": "address"
        }
      ],
      "name": "maxDeposit",
      "outputs": [
        {
          "internalType": "uint256",
          "name": "",
          "type": "uint256"
        }
      ],
      "stateMutability": "view",
      "type": "function"
    },
    {
      "inputs": [
        {
          "internalType": "address",
          "name": "",
          "type": "address"
        }
      ],
      "name": "maxMint",
      "outputs": [
        {
          "internalType": "uint256",
          "name": "",
          "type": "uint256"
        }
      ],
      "stateMutability": "view",
      "type": "function"
    },
    {
      "inputs": [
        {
          "internalType": "address",
          "name": "owner",
          "type": "address"
        }
      ],
      "name": "maxRedeem",
      "outputs": [
        {
          "internalType": "uint256",
          "name": "",
          "type": "uint256"
        }
      ],
      "stateMutability": "view",
      "type": "function"
    },
    {
      "inputs": [
        {
          "internalType": "address",
          "name": "owner",
          "type": "address"
        }
      ],
      "name": "maxWithdraw",
      "outputs": [
        {
          "internalType": "uint256",
          "name": "",
          "type": "uint256"
        }
      ],
      "stateMutability": "view",
      "type": "function"
    },
    {
      "inputs": [],
      "name": "migrate",
      "outputs": [],
      "stateMutability": "nonpayable",
      "type": "function"
    },
    {
      "inputs": [],
      "name": "minNotionalPositionToCloseThreshold",
      "outputs": [
        {
          "internalType": "uint64",
          "name": "",
          "type": "uint64"
        }
      ],
      "stateMutability": "view",
      "type": "function"
    },
    {
      "inputs": [
        {
          "internalType": "uint256",
          "name": "shares",
          "type": "uint256"
        },
        {
          "internalType": "address",
          "name": "to",
          "type": "address"
        }
      ],
      "name": "mint",
      "outputs": [
        {
          "internalType": "uint256",
          "name": "amount",
          "type": "uint256"
        }
      ],
      "stateMutability": "nonpayable",
      "type": "function"
    },
    {
      "inputs": [],
      "name": "name",
      "outputs": [
        {
          "internalType": "string",
          "name": "",
          "type": "string"
        }
      ],
      "stateMutability": "view",
      "type": "function"
    },
    {
      "inputs": [],
      "name": "owner",
      "outputs": [
        {
          "internalType": "address",
          "name": "",
          "type": "address"
        }
      ],
      "stateMutability": "view",
      "type": "function"
    },
    {
      "inputs": [
        {
          "internalType": "uint256",
          "name": "assets",
          "type": "uint256"
        }
      ],
      "name": "previewDeposit",
      "outputs": [
        {
          "internalType": "uint256",
          "name": "",
          "type": "uint256"
        }
      ],
      "stateMutability": "view",
      "type": "function"
    },
    {
      "inputs": [
        {
          "internalType": "uint256",
          "name": "shares",
          "type": "uint256"
        }
      ],
      "name": "previewMint",
      "outputs": [
        {
          "internalType": "uint256",
          "name": "",
          "type": "uint256"
        }
      ],
      "stateMutability": "view",
      "type": "function"
    },
    {
      "inputs": [
        {
          "internalType": "uint256",
          "name": "shares",
          "type": "uint256"
        }
      ],
      "name": "previewRedeem",
      "outputs": [
        {
          "internalType": "uint256",
          "name": "",
          "type": "uint256"
        }
      ],
      "stateMutability": "view",
      "type": "function"
    },
    {
      "inputs": [
        {
          "internalType": "uint256",
          "name": "assets",
          "type": "uint256"
        }
      ],
      "name": "previewWithdraw",
      "outputs": [
        {
          "internalType": "uint256",
          "name": "",
          "type": "uint256"
        }
      ],
      "stateMutability": "view",
      "type": "function"
    },
    {
      "inputs": [],
      "name": "rageAccountNo",
      "outputs": [
        {
          "internalType": "uint256",
          "name": "",
          "type": "uint256"
        }
      ],
      "stateMutability": "view",
      "type": "function"
    },
    {
      "inputs": [],
      "name": "rageClearingHouse",
      "outputs": [
        {
          "internalType": "contract IClearingHouse",
          "name": "",
          "type": "address"
        }
      ],
      "stateMutability": "view",
      "type": "function"
    },
    {
      "inputs": [],
      "name": "rageVPool",
      "outputs": [
        {
          "internalType": "contract IUniswapV3Pool",
          "name": "",
          "type": "address"
        }
      ],
      "stateMutability": "view",
      "type": "function"
    },
    {
      "inputs": [],
      "name": "rebalance",
      "outputs": [],
      "stateMutability": "nonpayable",
      "type": "function"
    },
    {
      "inputs": [],
      "name": "rebalancePriceThresholdBps",
      "outputs": [
        {
          "internalType": "uint16",
          "name": "",
          "type": "uint16"
        }
      ],
      "stateMutability": "view",
      "type": "function"
    },
    {
      "inputs": [],
      "name": "rebalanceTimeThreshold",
      "outputs": [
        {
          "internalType": "uint32",
          "name": "",
          "type": "uint32"
        }
      ],
      "stateMutability": "view",
      "type": "function"
    },
    {
      "inputs": [
        {
          "internalType": "uint256",
          "name": "shares",
          "type": "uint256"
        },
        {
          "internalType": "address",
          "name": "to",
          "type": "address"
        },
        {
          "internalType": "address",
          "name": "from",
          "type": "address"
        }
      ],
      "name": "redeem",
      "outputs": [
        {
          "internalType": "uint256",
          "name": "amount",
          "type": "uint256"
        }
      ],
      "stateMutability": "nonpayable",
      "type": "function"
    },
    {
      "inputs": [],
      "name": "renounceOwnership",
      "outputs": [],
      "stateMutability": "nonpayable",
      "type": "function"
    },
    {
      "inputs": [
        {
          "internalType": "uint16",
          "name": "_closePositionSlippageSqrtToleranceBps",
          "type": "uint16"
        },
        {
          "internalType": "uint16",
          "name": "_resetPositionThresholdBps",
          "type": "uint16"
        },
        {
          "internalType": "uint64",
          "name": "_minNotionalPositionToCloseThreshold",
          "type": "uint64"
        }
      ],
      "name": "setEightTwentyParams",
      "outputs": [],
      "stateMutability": "nonpayable",
      "type": "function"
    },
    {
      "inputs": [],
      "name": "swapSimulator",
      "outputs": [
        {
          "internalType": "contract ISwapSimulator",
          "name": "",
          "type": "address"
        }
      ],
      "stateMutability": "view",
      "type": "function"
    },
    {
      "inputs": [],
      "name": "symbol",
      "outputs": [
        {
          "internalType": "string",
          "name": "",
          "type": "string"
        }
      ],
      "stateMutability": "view",
      "type": "function"
    },
    {
      "inputs": [],
      "name": "totalAssets",
      "outputs": [
        {
          "internalType": "uint256",
          "name": "",
          "type": "uint256"
        }
      ],
      "stateMutability": "view",
      "type": "function"
    },
    {
      "inputs": [],
      "name": "totalSupply",
      "outputs": [
        {
          "internalType": "uint256",
          "name": "",
          "type": "uint256"
        }
      ],
      "stateMutability": "view",
      "type": "function"
    },
    {
      "inputs": [
        {
          "internalType": "address",
          "name": "to",
          "type": "address"
        },
        {
          "internalType": "uint256",
          "name": "amount",
          "type": "uint256"
        }
      ],
      "name": "transfer",
      "outputs": [
        {
          "internalType": "bool",
          "name": "",
          "type": "bool"
        }
      ],
      "stateMutability": "nonpayable",
      "type": "function"
    },
    {
      "inputs": [
        {
          "internalType": "address",
          "name": "from",
          "type": "address"
        },
        {
          "internalType": "address",
          "name": "to",
          "type": "address"
        },
        {
          "internalType": "uint256",
          "name": "amount",
          "type": "uint256"
        }
      ],
      "name": "transferFrom",
      "outputs": [
        {
          "internalType": "bool",
          "name": "",
          "type": "bool"
        }
      ],
      "stateMutability": "nonpayable",
      "type": "function"
    },
    {
      "inputs": [
        {
          "internalType": "address",
          "name": "newOwner",
          "type": "address"
        }
      ],
      "name": "transferOwnership",
      "outputs": [],
      "stateMutability": "nonpayable",
      "type": "function"
    },
    {
      "inputs": [
        {
          "internalType": "uint256",
          "name": "newDepositCap",
          "type": "uint256"
        },
        {
          "internalType": "address",
          "name": "newKeeperAddress",
          "type": "address"
        },
        {
          "internalType": "uint32",
          "name": "_rebalanceTimeThreshold",
          "type": "uint32"
        },
        {
          "internalType": "uint16",
          "name": "_rebalancePriceThresholdBps",
          "type": "uint16"
        }
      ],
      "name": "updateBaseParams",
      "outputs": [],
      "stateMutability": "nonpayable",
      "type": "function"
    },
    {
      "inputs": [
        {
          "internalType": "uint256",
          "name": "_feeBps",
          "type": "uint256"
        },
        {
          "internalType": "uint256",
          "name": "_stablecoinSlippage",
          "type": "uint256"
        },
        {
          "internalType": "uint256",
          "name": "_crvHarvestThreshold",
          "type": "uint256"
        },
        {
          "internalType": "uint256",
          "name": "_crvSlippageTolerance",
          "type": "uint256"
        },
        {
          "internalType": "contract ICurveGauge",
          "name": "_gauge",
          "type": "address"
        },
        {
          "internalType": "contract AggregatorV3Interface",
          "name": "_crvOracle",
          "type": "address"
        }
      ],
      "name": "updateCurveParams",
      "outputs": [],
      "stateMutability": "nonpayable",
      "type": "function"
    },
    {
      "inputs": [
        {
          "internalType": "uint256",
          "name": "amount",
          "type": "uint256"
        },
        {
          "internalType": "address",
          "name": "to",
          "type": "address"
        },
        {
          "internalType": "address",
          "name": "from",
          "type": "address"
        }
      ],
      "name": "withdraw",
      "outputs": [
        {
          "internalType": "uint256",
          "name": "shares",
          "type": "uint256"
        }
      ],
      "stateMutability": "nonpayable",
      "type": "function"
    },
    {
      "inputs": [
        {
          "internalType": "address",
          "name": "feeRecipient",
          "type": "address"
        }
      ],
      "name": "withdrawFees",
      "outputs": [],
      "stateMutability": "nonpayable",
      "type": "function"
    },
    {
      "inputs": [],
      "name": "R",
      "type": "error"
    },
    {
      "inputs": [],
      "name": "T",
      "type": "error"
    },
    {
      "anonymous": false,
      "inputs": [
        {
          "indexed": false,
          "internalType": "uint256",
          "name": "newDepositCap",
          "type": "uint256"
        },
        {
          "indexed": false,
          "internalType": "address",
          "name": "newKeeperAddress",
          "type": "address"
        },
        {
          "indexed": false,
          "internalType": "uint32",
          "name": "rebalanceTimeThreshold",
          "type": "uint32"
        },
        {
          "indexed": false,
          "internalType": "uint16",
          "name": "rebalancePriceThresholdBps",
          "type": "uint16"
        }
      ],
      "name": "BaseParamsUpdated",
      "type": "event"
    },
    {
      "anonymous": false,
      "inputs": [
        {
          "indexed": false,
          "internalType": "uint256",
          "name": "crvSlippageTolerance",
          "type": "uint256"
        }
      ],
      "name": "CrvSwapFailedDueToSlippage",
      "type": "event"
    },
    {
      "anonymous": false,
      "inputs": [
        {
          "indexed": false,
          "internalType": "uint256",
          "name": "feeBps",
          "type": "uint256"
        },
        {
          "indexed": false,
          "internalType": "uint256",
          "name": "stablecoinSlippage",
          "type": "uint256"
        },
        {
          "indexed": false,
          "internalType": "uint256",
          "name": "crvHarvestThreshold",
          "type": "uint256"
        },
        {
          "indexed": false,
          "internalType": "uint256",
          "name": "crvSlippageTolerance",
          "type": "uint256"
        },
        {
          "indexed": true,
          "internalType": "address",
          "name": "gauge",
          "type": "address"
        },
        {
          "indexed": true,
          "internalType": "address",
          "name": "crvOracle",
          "type": "address"
        }
      ],
      "name": "CurveParamsUpdated",
      "type": "event"
    },
    {
      "anonymous": false,
      "inputs": [
        {
          "indexed": false,
          "internalType": "uint16",
          "name": "closePositionSlippageSqrtToleranceBps",
          "type": "uint16"
        },
        {
          "indexed": false,
          "internalType": "uint16",
          "name": "resetPositionThresholdBps",
          "type": "uint16"
        },
        {
          "indexed": false,
          "internalType": "uint64",
          "name": "minNotionalPositionToCloseThreshold",
          "type": "uint64"
        }
      ],
      "name": "EightyTwentyParamsUpdated",
      "type": "event"
    },
    {
      "anonymous": false,
      "inputs": [
        {
          "indexed": false,
          "internalType": "uint256",
          "name": "fee",
          "type": "uint256"
        }
      ],
      "name": "FeesUpdated",
      "type": "event"
    },
    {
      "anonymous": false,
      "inputs": [
        {
          "indexed": false,
          "internalType": "uint256",
          "name": "total",
          "type": "uint256"
        }
      ],
      "name": "FeesWithdrawn",
      "type": "event"
    },
    {
      "anonymous": false,
      "inputs": [
        {
          "indexed": false,
          "internalType": "uint256",
          "name": "crvAmount",
          "type": "uint256"
        }
      ],
      "name": "Harvested",
      "type": "event"
    },
    {
      "anonymous": false,
      "inputs": [],
      "name": "Rebalance",
      "type": "event"
    },
    {
      "anonymous": false,
      "inputs": [
        {
          "indexed": false,
          "internalType": "uint256",
          "name": "amount",
          "type": "uint256"
        },
        {
          "indexed": true,
          "internalType": "address",
          "name": "depositor",
          "type": "address"
        }
      ],
      "name": "Staked",
      "type": "event"
    },
    {
      "anonymous": false,
      "inputs": [
        {
          "indexed": false,
          "internalType": "uint256",
          "name": "lpPrice",
          "type": "uint256"
        }
      ],
      "name": "StateInfo",
      "type": "event"
    },
    {
      "anonymous": false,
      "inputs": [],
      "name": "TokenPositionClosed",
      "type": "event"
    },
    {
      "inputs": [],
      "name": "CYS_NEGATIVE_CRV_PRICE",
      "type": "error"
    }
  ],
  "transactionHash": "0xa3aafff87b7aebcb10d44b30ab2d87d4849b6f3ddf1fcfa513670c2dcb79875d",
  "args": [],
  "numDeployments": 2,
  "solcInputHash": "a81dad55d9ef702459440505f8bbaaf3",
  "bytecode": "0x60806040526103e860b05534801561001657600080fd5b50615f1a80620000276000396000f3fe608060405234801561001057600080fd5b50600436106103c55760003560e01c80637d7c2a1c116101ff578063c57981b51161011a578063dd62ed3e116100ad578063f2fde38b1161007c578063f2fde38b14610883578063fcb777ef14610896578063fd967f47146108a9578063ff928153146108b257600080fd5b8063dd62ed3e14610839578063e66488531461084c578063ee3a98ff14610855578063ef8b30f71461087057600080fd5b8063d4406e89116100e9578063d4406e89146107e6578063d905777e146107fd578063dbd035ff14610810578063dbd5edc71461083057600080fd5b8063c57981b5146107a4578063c63d75b6146107ad578063c6e6f592146107c0578063ce96cb77146107d357600080fd5b8063a9059cbb11610192578063b6cdc2d511610161578063b6cdc2d514610762578063b81aecd914610776578063ba08765214610789578063bf9571f11461079c57600080fd5b8063a9059cbb14610716578063aced166114610729578063b3d7f6b91461073c578063b460af941461074f57600080fd5b80638fd3ab80116101ce5780638fd3ab80146106e057806394bf804d146106e857806395d89b41146106fb578063a457c2d71461070357600080fd5b80637d7c2a1c146106ac5780638d315d7b146106b45780638da5cb5b146106bc5780638f1d6868146106cd57600080fd5b80633d672a45116102ef57806357b082fc116102825780636e553f65116102515780636e553f651461066057806370a0823114610673578063715018a61461069c5780637999e84e146106a457600080fd5b806357b082fc146105fc5780635f63e06614610610578063620bc225146106235780636a8db81d1461064b57600080fd5b80634cdad506116102be5780634cdad506146105985780635053145f146105ab578063554070bc146105d657806356501144146105e957600080fd5b80633d672a451461053e5780633f6be82214610546578063402d267d146105595780634afe813e1461056c57600080fd5b8063164e68de1161036757806323b872dd1161033657806323b872dd146104de578063313ce567146104f157806338d52e0f14610500578063395093511461052b57600080fd5b8063164e68de1461047f57806318160ddd146104925780631aa3dfbb1461049a5780631e2eaeaf146104cc57600080fd5b8063095ea7b3116103a3578063095ea7b31461040d57806309a68a92146104305780630a28a477146104575780631273a17d1461046a57600080fd5b806301e1d114146103ca57806306fdde03146103e557806307a2d13a146103fa575b600080fd5b6103d26108c5565b6040519081526020015b60405180910390f35b6103ed61094a565b6040516103dc9190614fb4565b6103d2610408366004614fc7565b6109dc565b61042061041b366004615000565b610a11565b60405190151581526020016103dc565b60a15461044490600160b81b900460020b81565b60405160029190910b81526020016103dc565b6103d2610465366004614fc7565b610a2b565b61047d610478366004615343565b610a43565b005b61047d61048d36600461543d565b610abb565b6035546103d2565b60a2546104b490600160a81b90046001600160401b031681565b6040516001600160401b0390911681526020016103dc565b6103d26104da366004614fc7565b5490565b6104206104ec36600461545a565b610c13565b604051601281526020016103dc565b606554610513906001600160a01b031681565b6040516001600160a01b0390911681526020016103dc565b610420610539366004615000565b610c37565b6103d2610c59565b60a0546104b4906001600160401b031681565b6103d261056736600461543d565b610cdf565b60a05461058390600160501b900463ffffffff1681565b60405163ffffffff90911681526020016103dc565b6103d26105a6366004614fc7565b610d55565b60a2546105be906001600160801b031681565b6040516001600160801b0390911681526020016103dc565b6103d26105e4366004614fc7565b610d77565b61047d6105f736600461549b565b610e02565b60a25461042090600160801b900460ff1681565b609a54610513906001600160a01b031681565b60a05461063890600160401b900461ffff1681565b60405161ffff90911681526020016103dc565b60a25461063890600160881b900461ffff1681565b6103d261066e3660046154ea565b610edd565b6103d261068136600461543d565b6001600160a01b031660009081526033602052604090205490565b61047d610ef1565b61047d610f27565b61047d610ffe565b6103d26110d0565b6066546001600160a01b0316610513565b61047d6106db36600461551a565b611161565b61047d611271565b6103d26106f63660046154ea565b6112f9565b6103ed61130d565b610420610711366004615000565b61131c565b610420610724366004615000565b611397565b60a154610513906001600160a01b031681565b6103d261074a366004614fc7565b6113a5565b6103d261075d366004615578565b6113cc565b60a15461044490600160a01b900460020b81565b610420610784366004614fc7565b6114b1565b6103d2610797366004615578565b6114ca565b61047d6115fd565b6103d260b05481565b6103d26107bb36600461543d565b611a7f565b6103d26107ce366004614fc7565b611a8e565b6103d26107e136600461543d565b611ab6565b609c5461058390600160a01b900463ffffffff1681565b6103d261080b36600461543d565b611add565b61082361081e3660046155ba565b611aff565b6040516103dc9190615660565b6103d2609f5481565b6103d26108473660046156a4565b611b2d565b6103d2609d5481565b609e546105139064010000000090046001600160a01b031681565b6103d261087e366004614fc7565b611b58565b61047d61089136600461543d565b611b63565b609954610513906001600160a01b031681565b6103d261271081565b61047d6108c03660046156d2565b611bfb565b60006108cf611cc8565b6065546040516370a0823160e01b81523060048201526001600160a01b03909116906370a0823190602401602060405180830381865afa158015610917573d6000803e3d6000fd5b505050506040513d601f19601f8201168201806040525081019061093b9190615715565b6109459190615744565b905090565b6060603680546109599061575c565b80601f01602080910402602001604051908101604052809291908181526020018280546109859061575c565b80156109d25780601f106109a7576101008083540402835291602001916109d2565b820191906000526020600020905b8154815290600101906020018083116109b557829003601f168201915b5050505050905090565b6000806109e860355490565b90508015610a0857610a036109fb6108c5565b849083611d11565b610a0a565b825b9392505050565b600033610a1f818585611d30565b60019150505b92915050565b600080610a3783611e54565b509050610a0a81611ef6565b6000610a4f6001611f1e565b90508015610a67576000805461ff0019166101001790555b610a7082611fab565b8015610ab7576000805461ff0019169055604051600181527f7f26b83ff96e1f2b6a682f133852f6798a09c465da95921460cefb3847402498906020015b60405180910390a15b5050565b6066546001600160a01b03163314610aee5760405162461bcd60e51b8152600401610ae590615796565b60405180910390fd5b60ac5460a6546040516370a0823160e01b8152306004820152600092916001600160a01b0316906370a0823190602401602060405180830381865afa158015610b3b573d6000803e3d6000fd5b505050506040513d601f19601f82011682018060405250810190610b5f9190615715565b610b6991906157cb565b60a65460405163a9059cbb60e01b81526001600160a01b0385811660048301526024820184905292935091169063a9059cbb906044016020604051808303816000875af1158015610bbe573d6000803e3d6000fd5b505050506040513d601f19601f82011682018060405250810190610be291906157e2565b506040518181527f9800e6f57aeb4360eaa72295a820a4293e1e66fbfcabcd8874ae141304a76deb90602001610aae565b600033610c2185828561208e565b610c2c858585612102565b506001949350505050565b600033610a1f818585610c4a8383611b2d565b610c549190615744565b611d30565b60a9546040516001620e8cb360e11b031981526001600160a01b03909116600482015260009073B8Cb70aa127AA5322285e5A826874239C616ED379063ffe2e69a90602401602060405180830381865af4158015610cbb573d6000803e3d6000fd5b505050506040513d601f19601f820116820180604052508101906109459190615715565b6000610ce96108c5565b306001600160a01b031663dbd5edc76040518163ffffffff1660e01b8152600401602060405180830381865afa158015610d27573d6000803e3d6000fd5b505050506040513d601f19601f82011682018060405250810190610d4b9190615715565b610a2591906157cb565b600080610d61836109dc565b90506000610d6e82611e54565b50949350505050565b60a954604051637a5fda7960e01b8152600481018390526001600160a01b03909116602482015260009073B8Cb70aa127AA5322285e5A826874239C616ED3790637a5fda79906044015b602060405180830381865af4158015610dde573d6000803e3d6000fd5b505050506040513d601f19601f82011682018060405250810190610a259190615715565b6066546001600160a01b03163314610e2c5760405162461bcd60e51b8152600401610ae590615796565b60a180546001600160a01b0319166001600160a01b038516908117909155609f85905560a0805465ffffffffffff60401b1916600160501b63ffffffff861690810269ffff0000000000000000191691909117600160401b61ffff86169081029190911790925560408051888152602081019490945283015260608201527f69a94cb0b737928b3387da2d3d2a8d288ec329d009d2b769142dd314cc026ecd9060800160405180910390a150505050565b6000610ee76122d0565b610a0a83836122d8565b6066546001600160a01b03163314610f1b5760405162461bcd60e51b8152600401610ae590615796565b610f256000612395565b565b60a1546001600160a01b03163314610f675760a1546040516369958c7360e01b81523360048201526001600160a01b039091166024820152604401610ae5565b609854609d54609c5460405163e9b7c36760e01b81526004810192909252600160a01b900463ffffffff1660248201526000916001600160a01b03169063e9b7c36790604401606060405180830381865afa158015610fca573d6000803e3d6000fd5b505050506040513d601f19601f82011682018060405250810190610fee9190615804565b50915050610ffb816123e7565b50565b60a1546001600160a01b0316331461103e5760a1546040516369958c7360e01b81523360048201526001600160a01b039091166024820152604401610ae5565b60006110486110d0565b9050611053816114b1565b61107057604051636fa1adc360e01b815260040160405180910390fd5b600061107a6124cb565b9150506110878183612671565b60a0805467ffffffffffffffff1916426001600160401b03161790556040517ff57243a1fddfdc9fa2c7de26cc3503b1b94cfd4368d2b82d0970bfbb2fbce3a490600090a15050565b609a54609d54604051631c7a838360e31b815260048101919091526000916001600160a01b03169063e3d41c1890602401602060405180830381865afa15801561111e573d6000803e3d6000fd5b505050506040513d601f19601f820116820180604052508101906111429190615715565b90506111576111526105e46108c5565b6127b1565b6109459082615832565b6066546001600160a01b0316331461118b5760405162461bcd60e51b8152600401610ae590615796565b6127108610801561119d575061271085105b80156111aa575061271083105b156111f85760b086905560a780546001600160a01b038085166001600160a01b03199283161790925560ab80549284169290911691909117905560ad84905560ae83905560af859055611211565b60405163255c70a960e01b815260040160405180910390fd5b6040805187815260208101879052908101859052606081018490526001600160a01b0380831691908416907fba273f2d1d90cb33cc49c5d227727a39642d18436d4c4562d9efc4db1b5205d19060800160405180910390a3505050505050565b6066546001600160a01b0316331461129b5760405162461bcd60e51b8152600401610ae590615796565b73B8Cb70aa127AA5322285e5A826874239C616ED37638fd3ab806040518163ffffffff1660e01b815260040160006040518083038186803b1580156112df57600080fd5b505af41580156112f3573d6000803e3d6000fd5b50505050565b60006113036122d0565b610a0a83836127da565b6060603780546109599061575c565b6000338161132a8286611b2d565b90508381101561138a5760405162461bcd60e51b815260206004820152602560248201527f45524332303a2064656372656173656420616c6c6f77616e63652062656c6f77604482015264207a65726f60d81b6064820152608401610ae5565b610c2c8286868403611d30565b600033610a1f818585612102565b6000806113b160355490565b90508015610a0857610a036113c46108c5565b84908361285a565b60006113d66122d0565b6000806113e286611e54565b915091506113ef82611ef6565b92506113fa81612888565b336001600160a01b038516146114325760006114168533611b2d565b90506000198114611430576114308533610c5487856157cb565b505b61143c8284612891565b61144684846128ab565b60408051838152602081018590526001600160a01b03808716929088169133917ffbde797d201c681b91056529119e0b02407c7bb96a4a2c75c01fc9667232c8db910160405180910390a46065546114a8906001600160a01b031686846129f9565b50509392505050565b60006114bb612a5c565b80610a255750610a2582612a89565b60006114d46122d0565b60006114df856109dc565b905060006114ec82611e54565b909350905060006114fc84611ef6565b90508360000361153c5760405162461bcd60e51b815260206004820152600b60248201526a5a45524f5f41535345545360a81b6044820152606401610ae5565b336001600160a01b038616146115745760006115588633611b2d565b90506000198114611572576115728633610c5485856157cb565b505b61157d82612888565b6115878482612891565b61159185826128ab565b60408051858152602081018390526001600160a01b03808816929089169133917ffbde797d201c681b91056529119e0b02407c7bb96a4a2c75c01fc9667232c8db910160405180910390a46065546115f3906001600160a01b031687866129f9565b5050509392505050565b6066546001600160a01b031633146116275760405162461bcd60e51b8152600401610ae590615796565b61162f612b9d565b60655460a75460405163095ea7b360e01b81526001600160a01b039182166004820152600019602482015291169063095ea7b3906044016020604051808303816000875af1158015611685573d6000803e3d6000fd5b505050506040513d601f19601f820116820180604052508101906116a991906157e2565b5060655460aa5460405163095ea7b360e01b81526001600160a01b039182166004820152600019602482015291169063095ea7b3906044016020604051808303816000875af1158015611700573d6000803e3d6000fd5b505050506040513d601f19601f8201168201806040525081019061172491906157e2565b5060a55460a85460405163095ea7b360e01b81526001600160a01b0391821660048201526000602482015291169063095ea7b3906044016020604051808303816000875af115801561177a573d6000803e3d6000fd5b505050506040513d601f19601f8201168201806040525081019061179e91906157e2565b5060a35460a85460405163095ea7b360e01b81526001600160a01b0391821660048201526000602482015291169063095ea7b3906044016020604051808303816000875af11580156117f4573d6000803e3d6000fd5b505050506040513d601f19601f8201168201806040525081019061181891906157e2565b5060a35460aa5460405163095ea7b360e01b81526001600160a01b0391821660048201526000602482015291169063095ea7b3906044016020604051808303816000875af115801561186e573d6000803e3d6000fd5b505050506040513d601f19601f8201168201806040525081019061189291906157e2565b5060a55460a85460405163095ea7b360e01b81526001600160a01b039182166004820152600019602482015291169063095ea7b3906044016020604051808303816000875af11580156118e9573d6000803e3d6000fd5b505050506040513d601f19601f8201168201806040525081019061190d91906157e2565b5060a35460a85460405163095ea7b360e01b81526001600160a01b039182166004820152600019602482015291169063095ea7b3906044016020604051808303816000875af1158015611964573d6000803e3d6000fd5b505050506040513d601f19601f8201168201806040525081019061198891906157e2565b5060a35460aa5460405163095ea7b360e01b81526001600160a01b039182166004820152600019602482015291169063095ea7b3906044016020604051808303816000875af11580156119df573d6000803e3d6000fd5b505050506040513d601f19601f82011682018060405250810190611a0391906157e2565b5060a65460a85460405163095ea7b360e01b81526001600160a01b039182166004820152600019602482015291169063095ea7b3906044015b6020604051808303816000875af1158015611a5b573d6000803e3d6000fd5b505050506040513d601f19601f82011682018060405250810190610ffb91906157e2565b6000610a256107ce6000610cdf565b600080611a9a60355490565b90508015610a0857610a0381611aae6108c5565b859190611d11565b6000610a25610465610408846001600160a01b031660009081526033602052604090205490565b6001600160a01b038116600090815260336020526040812054610a2590610d55565b606060208251028201602001602083015b81811015611b25578051548152602001611b10565b509192915050565b6001600160a01b03918216600090815260346020908152604080832093909416825291909152205490565b6000610a2582611a8e565b6066546001600160a01b03163314611b8d5760405162461bcd60e51b8152600401610ae590615796565b6001600160a01b038116611bf25760405162461bcd60e51b815260206004820152602660248201527f4f776e61626c653a206e6577206f776e657220697320746865207a65726f206160448201526564647265737360d01b6064820152608401610ae5565b610ffb81612395565b6066546001600160a01b03163314611c255760405162461bcd60e51b8152600401610ae590615796565b60a2805463ffffffff60881b1916600160881b61ffff86811691820261ffff60981b191692909217600160981b9286169283021767ffffffffffffffff60a81b1916600160a81b6001600160401b03861690810291909117909355604080519182526020820192909252908101919091527f4a9bdb3bab9a7cff0ea02e1428a3901c565a962f3b99b7d8d2b02787ca4f93f99060600160405180910390a1505050565b60a7546040516370a0823160e01b81523060048201526000916001600160a01b0316906370a0823190602401602060405180830381865afa158015610cbb573d6000803e3d6000fd5b828202811515841585830485141716611d2957600080fd5b0492915050565b6001600160a01b038316611d925760405162461bcd60e51b8152602060048201526024808201527f45524332303a20617070726f76652066726f6d20746865207a65726f206164646044820152637265737360e01b6064820152608401610ae5565b6001600160a01b038216611df35760405162461bcd60e51b815260206004820152602260248201527f45524332303a20617070726f766520746f20746865207a65726f206164647265604482015261737360f01b6064820152608401610ae5565b6001600160a01b0383811660008181526034602090815260408083209487168084529482529182902085905590518481527f8c5be1e5ebec7d5bd14f71427d1e84f3dd0314c0f7b2291e5b200ac8c7c3b925910160405180910390a3505050565b60008073B8Cb70aa127AA5322285e5A826874239C616ED37632780ee3130611e7a6108c5565b6040516001600160e01b031960e085901b1681526001600160a01b0390921660048301526024820152604481018690526064016040805180830381865af4158015611ec9573d6000803e3d6000fd5b505050506040513d601f19601f82011682018060405250810190611eed9190615873565b91509150915091565b600080611f0260355490565b90508015610a0857610a0381611f166108c5565b85919061285a565b60008054610100900460ff1615611f65578160ff166001148015611f415750303b155b611f5d5760405162461bcd60e51b8152600401610ae590615897565b506000919050565b60005460ff808416911610611f8c5760405162461bcd60e51b8152600401610ae590615897565b506000805460ff191660ff92909216919091179055600190565b919050565b600054610100900460ff16611fd25760405162461bcd60e51b8152600401610ae5906158e5565b8051611fdd90612c54565b602081015160a380546001600160a01b03199081166001600160a01b0393841617909155604083015160a580548316918416919091179055606083015160a48054831691841691909117905560a083015160a780548316918416919091179055608083015160a68054831691841691909117905560c083015160a88054831691841691909117905561010083015160aa8054831691841691909117905560e09092015160a980549093169116179055565b600061209a8484611b2d565b905060001981146112f357818110156120f55760405162461bcd60e51b815260206004820152601d60248201527f45524332303a20696e73756666696369656e7420616c6c6f77616e63650000006044820152606401610ae5565b6112f38484848403611d30565b6001600160a01b0383166121665760405162461bcd60e51b815260206004820152602560248201527f45524332303a207472616e736665722066726f6d20746865207a65726f206164604482015264647265737360d81b6064820152608401610ae5565b6001600160a01b0382166121c85760405162461bcd60e51b815260206004820152602360248201527f45524332303a207472616e7366657220746f20746865207a65726f206164647260448201526265737360e81b6064820152608401610ae5565b6001600160a01b038316600090815260336020526040902054818110156122405760405162461bcd60e51b815260206004820152602660248201527f45524332303a207472616e7366657220616d6f756e7420657863656564732062604482015265616c616e636560d01b6064820152608401610ae5565b6001600160a01b03808516600090815260336020526040808220858503905591851681529081208054849290612277908490615744565b92505081905550826001600160a01b0316846001600160a01b03167fddf252ad1be2c89b69c2b068fc378daa952ba7f163c4a11628f55a4df523b3ef846040516122c391815260200190565b60405180910390a36112f3565b610ab76124cb565b60006122e383611b58565b9050806000036123235760405162461bcd60e51b815260206004820152600b60248201526a5a45524f5f53484152455360a81b6044820152606401610ae5565b60655461233b906001600160a01b0316333086612d38565b6123458282612d70565b60408051848152602081018390526001600160a01b0384169133917fdcbc1c05240f31ff3ad067ef1ee35ce4997762752e3a095284754544f4c709d7910160405180910390a3610a258382612e4f565b606680546001600160a01b038381166001600160a01b0319831681179093556040519116919082907f8be0079c531659141344cd1fd0a4f28419497f9722a3daafe3b4186f6b6457e090600090a35050565b60a254600160801b900460ff1661241157604051632f0c3e3160e11b815260040160405180910390fd5b600061241c82615930565b90506000612428612ea7565b905060006124368383612f73565b60a254909150600160a81b90046001600160401b031681111561248e576000612470848460a260119054906101000a900461ffff16612fa1565b5090508084036124885760a2805460ff60801b191690555b5061249c565b60a2805460ff60801b191690555b6040517f9a94a63b02012d6753ed863b962aceb756429b4265fc327391dd05fb24d4502b90600090a150505050565b609854609d54609c5460405163e9b7c36760e01b81526004810192909252600160a01b900463ffffffff16602482015260009182916001600160a01b039091169063e9b7c36790604401606060405180830381865afa158015612532573d6000803e3d6000fd5b505050506040513d601f19601f820116820180604052508101906125569190615804565b50609854609d54609e54604051630ad444cb60e21b8152600481019290925263ffffffff1660248201529193506001600160a01b03169150632b51132c90604401602060405180830381865afa1580156125b4573d6000803e3d6000fd5b505050506040513d601f19601f820116820180604052508101906125d89190615715565b915060006125e46110d0565b90506125ee61300f565b6125f88382613476565b6065546040516370a0823160e01b815230600482015261266c916001600160a01b0316906370a08231906024015b602060405180830381865afa158015612643573d6000803e3d6000fd5b505050506040513d601f19601f820116820180604052508101906126679190615715565b613746565b509091565b61267a816137dc565b60a28054911515600160801b0260ff60801b1990921691909117905560006126a1826138ac565b905060005b60028160ff16101561279057818160ff16600281106126c7576126c761594c565b602002015160400151600f0b1561279057609a54609d54609c546001600160a01b039092169163c7505c159190600160a01b900463ffffffff168560ff8616600281106127165761271661594c565b60200201516040518463ffffffff1660e01b81526004016127399392919061599a565b60408051808303816000875af1158015612757573d6000803e3d6000fd5b505050506040513d601f19601f8201168201806040525081019061277b9190615873565b5050808061278890615a34565b9150506126a6565b5060a254600160801b900460ff16156127ac576127ac836123e7565b505050565b6000600160ff1b82106127d65760405162461bcd60e51b8152600401610ae590615a53565b5090565b60006127e5836113a5565b606554909150612800906001600160a01b0316333084612d38565b61280a8284612d70565b60408051828152602081018590526001600160a01b0384169133917fdcbc1c05240f31ff3ad067ef1ee35ce4997762752e3a095284754544f4c709d7910160405180910390a3610a258184612e4f565b82820281151584158583048514171661287257600080fd5b6001826001830304018115150290509392505050565b610ffb81613ab1565b6128a261289c6108c5565b83613ac2565b610ab782613bdc565b6001600160a01b03821661290b5760405162461bcd60e51b815260206004820152602160248201527f45524332303a206275726e2066726f6d20746865207a65726f206164647265736044820152607360f81b6064820152608401610ae5565b6001600160a01b0382166000908152603360205260409020548181101561297f5760405162461bcd60e51b815260206004820152602260248201527f45524332303a206275726e20616d6f756e7420657863656564732062616c616e604482015261636560f01b6064820152608401610ae5565b6001600160a01b03831660009081526033602052604081208383039055603580548492906129ae9084906157cb565b90915550506040518281526000906001600160a01b038516907fddf252ad1be2c89b69c2b068fc378daa952ba7f163c4a11628f55a4df523b3ef9060200160405180910390a3505050565b6040516001600160a01b0383166024820152604481018290526127ac90849063a9059cbb60e01b906064015b60408051601f198184030181529190526020810180516001600160e01b03166001600160e01b031990931692909217909152613ce0565b60a05460009063ffffffff600160501b82041690612a83906001600160401b0316426157cb565b11905090565b609e54609c54609a5460009273B8Cb70aa127AA5322285e5A826874239C616ED379263757d5fd6926001600160a01b03640100000000909304831692612ae29291169063ffffffff600160a01b909104811690613db216565b60a05460a15460405160e086901b6001600160e01b03191681526001600160a01b03909416600485015263ffffffff9092166024840152600160401b900461ffff166044830152600160a01b8104600290810b6064840152600160b81b909104900b608482015260a401602060405180830381865af4158015612b69573d6000803e3d6000fd5b505050506040513d601f19601f82011682018060405250810190612b8d91906157e2565b905080611fa657610a25826137dc565b609c54609a5460405163095ea7b360e01b81526001600160a01b039182166004820152600019602482015291169063095ea7b3906044016020604051808303816000875af1158015612bf3573d6000803e3d6000fd5b505050506040513d601f19601f82011682018060405250810190612c1791906157e2565b50609b54609a5460405163095ea7b360e01b81526001600160a01b039182166004820152600019602482015291169063095ea7b390604401611a3c565b600054610100900460ff16612c7b5760405162461bcd60e51b8152600401610ae5906158e5565b8051612c8690613e52565b60208181015160a2805460408086015160608088015163ffffffff60881b19909416600160881b61ffff97881690810261ffff60981b191691909117600160981b979093169687029290921767ffffffffffffffff60a81b1916600160a81b6001600160401b0390951694850217909455815190815294850193909352918301919091527f4a9bdb3bab9a7cff0ea02e1428a3901c565a962f3b99b7d8d2b02787ca4f93f9910160405180910390a150565b6040516001600160a01b03808516602483015283166044820152606481018290526112f39085906323b872dd60e01b90608401612a25565b6001600160a01b038216612dc65760405162461bcd60e51b815260206004820152601f60248201527f45524332303a206d696e7420746f20746865207a65726f2061646472657373006044820152606401610ae5565b8060356000828254612dd89190615744565b90915550506001600160a01b03821660009081526033602052604081208054839290612e05908490615744565b90915550506040518181526001600160a01b038316906000907fddf252ad1be2c89b69c2b068fc378daa952ba7f163c4a11628f55a4df523b3ef9060200160405180910390a35050565b609f54612e5a6108c5565b1115612e8d57609f54612e6b6108c5565b6040516301b25d0360e41b815260048101929092526024820152604401610ae5565b612e9682614040565b610ab7612ea16108c5565b836140e7565b609e54609c54609a5460009273B8Cb70aa127AA5322285e5A826874239C616ED379263e54c8fd8926001600160a01b03640100000000909304831692612f009291169063ffffffff600160a01b909104811690613db216565b6040516001600160e01b031960e085901b1681526001600160a01b03909216600483015263ffffffff166024820152604401602060405180830381865af4158015612f4f573d6000803e3d6000fd5b505050506040513d601f19601f820116820180604052508101906109459190615a75565b6000610a0a612f9c6001600160a01b038416600160601b612f9587838361432e565b919061432e565b614370565b600080600080861315612fe357612fdc612fd7612fc086612710615a92565b6001600160a01b0388169061ffff1661271061437b565b61442d565b9050612ff8565b612ff5612fd7612fc086612710615ab8565b90505b6130028682614456565b9097909650945050505050565b60a6546040516370a0823160e01b81523060048201526000916001600160a01b0316906370a0823190602401602060405180830381865afa158015613058573d6000803e3d6000fd5b505050506040513d601f19601f8201168201806040525081019061307c9190615715565b60a7546040516335313c2160e11b81526001600160a01b03909116600482015290915073abc000d88f23bb45525e447528dbf656a9d55bf590636a62784290602401600060405180830381600087803b1580156130d857600080fd5b505af11580156130ec573d6000803e3d6000fd5b5050505060a760009054906101000a90046001600160a01b03166001600160a01b031663e6f1daf26040518163ffffffff1660e01b8152600401600060405180830381600087803b15801561314057600080fd5b505af1158015613154573d6000803e3d6000fd5b505060a6546040516370a0823160e01b8152306004820152600093506001600160a01b0390911691506370a0823190602401602060405180830381865afa1580156131a3573d6000803e3d6000fd5b505050506040513d601f19601f820116820180604052508101906131c79190615715565b9050600060ac5483836131da91906157cb565b6131e49190615744565b905060ad5481111561346f57600061271060b054836132039190615adb565b61320d9190615afa565b61321790836157cb565b90507f8e55ccfc9778ff8eba1646d765cf1982537ce0f9257054a17b48aad7452501838260405161324a91815260200190565b60405180910390a160a65460a45460a3546040516bffffffffffffffffffffffff19606094851b8116602083015261017760eb1b603483015292841b83166037820152607d60ea1b604b820152921b16604e82015260009060620160408051808303601f190181529082905260ae5460ab5460a85460aa54631a6dbd7760e21b86529395507391F1299F15A7a1f2f033798756274006C58a3e2B946369b6f5dc9461331194899490936001600160a01b03918216938a939183169290911690600401615b1c565b602060405180830381865af492505050801561334a575060408051601f3d908101601f1916820190925261334791810190615715565b60015b61342f57613356615b66565b806308c379a003613423575061336a615b82565b806133755750613425565b7ff037a9cbca9be03859489f289f0cf5f85c0414bbfdd9785bc7ab31bd734e249c816040516020016133a79190615c0b565b60405160208183030381529060405280519060200120036134025760ac84905560ae546040519081527fcb3fb020a2ef5ed123410dbb49ba59bd63d9120125437350973dc53691d166f59060200160405180910390a161341d565b8060405163f6e3573b60e01b8152600401610ae59190614fb4565b50613468565b505b3d6000803e3d6000fd5b506065546040516370a0823160e01b8152306004820152613462916001600160a01b0316906370a0823190602401612626565b600060ac555b5050505050565b60ac555050565b609a54609d54604051631c7a838360e31b815260048101919091526000916001600160a01b03169063e3d41c1890602401602060405180830381865afa1580156134c4573d6000803e3d6000fd5b505050506040513d601f19601f820116820180604052508101906134e89190615715565b9050600081131561357b57609a54609d546001600160a01b0390911690639cd1be589061351784600019615c27565b6040516001600160e01b031960e085901b16815260048101929092526024820152604401600060405180830381600087803b15801561355557600080fd5b505af1158015613569573d6000803e3d6000fd5b5050505061357681614546565b61361c565b600081121561361c57600061359a61359583600019615c27565b61464a565b9050801561361a57609a54609d546001600160a01b0390911690639cd1be58906135c3846127b1565b6040516001600160e01b031960e085901b16815260048101929092526024820152604401600060405180830381600087803b15801561360157600080fd5b505af1158015613615573d6000803e3d6000fd5b505050505b505b6000831561373a57609b546040805163313ce56760e01b81529051613729926001600160a01b03169163313ce5679160048083019260209291908290030181865afa15801561366f573d6000803e3d6000fd5b505050506040513d601f19601f820116820180604052508101906136939190615cac565b61369e90600a615db3565b609c60009054906101000a90046001600160a01b03166001600160a01b031663313ce5676040518163ffffffff1660e01b8152600401602060405180830381865afa1580156136f1573d6000803e3d6000fd5b505050506040513d601f19601f820116820180604052508101906137159190615cac565b61372090600a615db3565b612f95876127b1565b6137339084615dc2565b905061373d565b50815b6112f3816146d7565b60a75460405163b6b55f2560e01b8152600481018390526001600160a01b039091169063b6b55f2590602401600060405180830381600087803b15801561378c57600080fd5b505af11580156137a0573d6000803e3d6000fd5b50506040518381523392507f6e47dcdd359b6cd69456f0f97d394bd4540a2e7c4adc1b9da076859df53756c7915060200160405180910390a250565b609a54609d54609c54604051633524324160e11b81526004810192909252600160a01b900463ffffffff16602482015260009182916001600160a01b0390911690636a48648290604401602060405180830381865afa158015613843573d6000803e3d6000fd5b505050506040513d601f19601f820116820180604052508101906138679190615715565b9050600061387c82613877612ea7565b612f73565b60a2549091506138a490600160981b900461ffff1661271061389d87614370565b919061437b565b109392505050565b6138b4614e5a565b60a2546000906001600160801b0316156139325760a15460a25461390a91600160a01b8104600290810b92600160b81b909204900b906138fc906001600160801b03166149be565b61390590615e01565b6149ec565b828260ff166002811061391f5761391f61594c565b60200201528061392e81615a34565b9150505b600061393c612ea7565b604051630ad6ed5b60e41b81526001600160a01b038216600482015260248101869052620c3500604482015290915060009073B8Cb70aa127AA5322285e5A826874239C616ED379063ad6ed5b090606401606060405180830381865af41580156139aa573d6000803e3d6000fd5b505050506040513d601f19601f820116820180604052508101906139ce9190615e42565b60a1805465ffffffffffff60a01b1916600160b81b62ffffff9485160262ffffff60a01b191617600160a01b94909316939093029190911790915560a2549091506001600160801b03161580613a2d575060a254600160801b900460ff165b15613a4e5760a280546001600160801b0319166001600160801b0383161790555b60a15460a254613a8291600160a01b8104600290810b92600160b81b909204900b90613905906001600160801b03166149be565b848460ff1660028110613a9757613a9761594c565b602002015282613aa681615a34565b935050505050919050565b8015610ffb576127ac816000614456565b6000613ad083836001614a64565b90508060400151613ae090615e01565b60a28054600090613afb9084906001600160801b0316615e8a565b82546101009290920a6001600160801b0381810219909316918316021790915560a254166000039050613b3057600160a08201525b609a54609d54609c5460405163c7505c1560e01b81526001600160a01b039093169263c7505c1592613b77929091600160a01b90910463ffffffff1690869060040161599a565b60408051808303816000875af1158015613b95573d6000803e3d6000fd5b505050506040513d601f19601f82011682018060405250810190613bb99190615873565b50506000613bc961115284610d77565b90506112f3613bd782615930565b6146d7565b60a954604080516354f0f7d560e01b815290517fc852a00896bd42656c7822f2f6c850502574cfdbb70db38df4ea5eb56f5af8fd926001600160a01b0316916354f0f7d59160048083019260209291908290030181865afa158015613c45573d6000803e3d6000fd5b505050506040513d601f19601f82011682018060405250810190613c699190615715565b60405190815260200160405180910390a160a754604051632e1a7d4d60e01b8152600481018390526001600160a01b0390911690632e1a7d4d90602401600060405180830381600087803b158015613cc057600080fd5b505af1158015613cd4573d6000803e3d6000fd5b50505050610ffb61300f565b6000613d35826040518060400160405280602081526020017f5361666545524332303a206c6f772d6c6576656c2063616c6c206661696c6564815250856001600160a01b0316614ad59092919063ffffffff16565b8051909150156127ac5780806020019051810190613d5391906157e2565b6127ac5760405162461bcd60e51b815260206004820152602a60248201527f5361666545524332303a204552433230206f7065726174696f6e20646964206e6044820152691bdd081cdd58d8d9595960b21b6064820152608401610ae5565b600080836001600160a01b0316631e2eaeaf613dd66003613dd287614ae4565b0190565b6040518263ffffffff1660e01b8152600401613df491815260200190565b602060405180830381865afa158015613e11573d6000803e3d6000fd5b505050506040513d601f19601f82011682018060405250810190613e359190615715565b9050613e4a63ffffffff60b083901c16614afe565b949350505050565b600054610100900460ff16613e795760405162461bcd60e51b8152600401610ae5906158e5565b613e81614b06565b8051613e8c90614b35565b602081810151609c805463ffffffff60a01b1916600160a01b63ffffffff909316929092029190911790556080820151609880546001600160a01b03199081166001600160a01b03938416179091556040808501516099805484169185169190911790556060850151609a805490931693169283179091558051639dca362f60e01b815290519192639dca362f9260048381019382900301816000875af1158015613f3b573d6000803e3d6000fd5b505050506040513d601f19601f82011682018060405250810190613f5f9190615715565b609d5560c0810151609b80546001600160a01b03199081166001600160a01b039384161790915560a0830151609c80549092169083161790819055609a54613fb9921690600160a01b900463ffffffff90811690614b4c16565b609e80546001600160a01b039283166401000000000277ffffffffffffffffffffffffffffffffffffffff000000001990911617905560a0820151614002911663ffffffff1690565b609e805463ffffffff191663ffffffff929092169190911790555060a0805465ffffffffffff60401b19166c01518001f40000000000000000179055565b60a954604080516354f0f7d560e01b815290517fc852a00896bd42656c7822f2f6c850502574cfdbb70db38df4ea5eb56f5af8fd926001600160a01b0316916354f0f7d59160048083019260209291908290030181865afa1580156140a9573d6000803e3d6000fd5b505050506040513d601f19601f820116820180604052508101906140cd9190615715565b60405190815260200160405180910390a1610ffb81613746565b60006140f561115283610d77565b9050614100816146d7565b614108614e87565b60a2546001600160801b031615801561412057508284145b1561423e57600061412f612ea7565b604051630ad6ed5b60e41b81526001600160a01b038216600482015260248101859052620c3500604482015290915073B8Cb70aa127AA5322285e5A826874239C616ED379063ad6ed5b090606401606060405180830381865af415801561419a573d6000803e3d6000fd5b505050506040513d601f19601f820116820180604052508101906141be9190615e42565b60a280546001600160801b0319166001600160801b0392909216918217905560a1805465ffffffffffff60a01b1916600160b81b62ffffff948516810262ffffff60a01b191691909117600160a01b9590941685029390931790819055614236938104600290810b93909104900b90613905906149be565b91505061429d565b61425361424b84866157cb565b846000614a64565b604081015160a2805492935090916000906142789084906001600160801b0316615eaa565b92506101000a8154816001600160801b0302191690836001600160801b031602179055505b609a54609d54609c5460405163c7505c1560e01b81526001600160a01b039093169263c7505c15926142e4929091600160a01b90910463ffffffff1690869060040161599a565b60408051808303816000875af1158015614302573d6000803e3d6000fd5b505050506040513d601f19601f820116820180604052508101906143269190615873565b505050505050565b600061435c614357600086126143445785614350565b61435086600019615c27565b858561437b565b614bcb565b90506000841215610a0a57613e4a81615930565b6000610a2582614bdd565b60008080600019858709858702925082811083820303915050806000036143b457600084116143a957600080fd5b508290049050610a0a565b8084116143c057600080fd5b6000848688096000868103871696879004966002600389028118808a02820302808a02820302808a02820302808a02820302808a02820302808a02909103029181900381900460010186841190950394909402919094039290920491909117919091029150509392505050565b806001600160a01b0381168114611fa65760405162461bcd60e51b8152600401610ae590615a53565b6040805160a0810182528381526001600160a01b0383811660208301908152600083850181815260016060860190815260808601838152609a54609d54609c5499516383d778eb60e01b81526004810191909152600160a01b90990463ffffffff1660248a0152875160448a015294518616606489015291511515608488015251151560a487015251151560c48601529384939291909116906383d778eb9060e40160408051808303816000875af1158015614516573d6000803e3d6000fd5b505050506040513d601f19601f8201168201806040525081019061453a9190615873565b90969095509350505050565b60a55460a3546040516bffffffffffffffffffffffff19606093841b81166020830152607d60ea1b60348301529190921b166037820152600090604b0160408051601f198184030181529082905260af5460a85460aa546330267db960e01b85529294507391F1299F15A7a1f2f033798756274006C58a3e2B936330267db9936145e6938893909288926001600160a01b03928316921690600401615ecc565b60006040518083038186803b1580156145fe57600080fd5b505af4158015614612573d6000803e3d6000fd5b50506065546040516370a0823160e01b8152306004820152610ab793506001600160a01b0390911691506370a0823190602401612626565b60af5460a95460a75460aa5460a35460a85460a55460405163e4a66f3f60e01b81526004810189905260248101979097526001600160a01b03958616604488015293851660648701529184166084860152831660a4850152821660c48401521660e482015260009073B8Cb70aa127AA5322285e5A826874239C616ED379063e4a66f3f9061010401610dc1565b60006147e8609c60009054906101000a90046001600160a01b03166001600160a01b031663313ce5676040518163ffffffff1660e01b8152600401602060405180830381865afa15801561472f573d6000803e3d6000fd5b505050506040513d601f19601f820116820180604052508101906147539190615cac565b61475e90600a615db3565b609b60009054906101000a90046001600160a01b03166001600160a01b031663313ce5676040518163ffffffff1660e01b8152600401602060405180830381865afa1580156147b1573d6000803e3d6000fd5b505050506040513d601f19601f820116820180604052508101906147d59190615cac565b6147e090600a615db3565b84919061432e565b905060006147f582614370565b905060008213156148e057609c546040516340c10f1960e01b8152306004820152602481018390526001600160a01b03909116906340c10f1990604401600060405180830381600087803b15801561484c57600080fd5b505af1158015614860573d6000803e3d6000fd5b5050609a54609d54609e54604051637d2efe0760e01b8152600481019290925263ffffffff166024820152604481018590526001600160a01b039091169250637d2efe079150606401600060405180830381600087803b1580156148c357600080fd5b505af11580156148d7573d6000803e3d6000fd5b50505050505050565b60008212156127ac57609a54609d54609e546001600160a01b0390921691637d2efe07919063ffffffff1661491485615930565b6040516001600160e01b031960e086901b168152600481019390935263ffffffff9190911660248301526044820152606401600060405180830381600087803b15801561496057600080fd5b505af1158015614974573d6000803e3d6000fd5b5050609c54604051630852cd8d60e31b8152600481018590526001600160a01b0390911692506342966c689150602401600060405180830381600087803b1580156148c357600080fd5b60006001607f1b826001600160801b0316106127d65760405162461bcd60e51b8152600401610ae590615a53565b6149f4614e87565b6040518061010001604052808560020b81526020018460020b815260200183600f0b815260200160006001600160a01b03168152602001600061ffff16815260200160001515815260200160006002811115614a5257614a52615962565b81526000602090910152949350505050565b614a6c614e87565b60a254600090614a9590614a909086908890612f95906001600160801b03166127b1565b614bf4565b90508215614aa957614aa681615e01565b90505b60a154614acc90600160a01b8104600290810b91600160b81b9004900b836149ec565b95945050505050565b6060613e4a8484600085614c18565b63ffffffff81166000908152606460205260408120610a25565b600081610a25565b600054610100900460ff16614b2d5760405162461bcd60e51b8152600401610ae5906158e5565b610f25614d49565b610ffb816000015182602001518360400151614d79565b600080836001600160a01b0316631e2eaeaf614b6c6001613dd287614ae4565b6040518263ffffffff1660e01b8152600401614b8a91815260200190565b602060405180830381865afa158015614ba7573d6000803e3d6000fd5b505050506040513d601f19601f82011682018060405250810190613e4a9190615715565b6000600160ff1b82106127d657600080fd5b60008082136127d657614bef82615930565b610a25565b80600f81900b8114611fa65760405162461bcd60e51b8152600401610ae590615a53565b606082471015614c795760405162461bcd60e51b815260206004820152602660248201527f416464726573733a20696e73756666696369656e742062616c616e636520666f6044820152651c8818d85b1b60d21b6064820152608401610ae5565b6001600160a01b0385163b614cd05760405162461bcd60e51b815260206004820152601d60248201527f416464726573733a2063616c6c20746f206e6f6e2d636f6e74726163740000006044820152606401610ae5565b600080866001600160a01b03168587604051614cec9190615c0b565b60006040518083038185875af1925050503d8060008114614d29576040519150601f19603f3d011682016040523d82523d6000602084013e614d2e565b606091505b5091509150614d3e828286614da7565b979650505050505050565b600054610100900460ff16614d705760405162461bcd60e51b8152600401610ae5906158e5565b610f2533612395565b614d838282614de0565b5050606580546001600160a01b0319166001600160a01b0392909216919091179055565b60608315614db6575081610a0a565b825115614dc65782518084602001fd5b8160405162461bcd60e51b8152600401610ae59190614fb4565b600054610100900460ff16614e075760405162461bcd60e51b8152600401610ae5906158e5565b610ab78282600054610100900460ff16614e335760405162461bcd60e51b8152600401610ae5906158e5565b8151614e46906036906020850190614ecc565b5080516127ac906037906020840190614ecc565b60405180604001604052806002905b614e71614e87565b815260200190600190039081614e695790505090565b6040805161010081018252600080825260208201819052918101829052606081018290526080810182905260a081018290529060c08201908152600060209091015290565b828054614ed89061575c565b90600052602060002090601f016020900481019282614efa5760008555614f40565b82601f10614f1357805160ff1916838001178555614f40565b82800160010185558215614f40579182015b82811115614f40578251825591602001919060010190614f25565b506127d69291505b808211156127d65760008155600101614f48565b60005b83811015614f77578181015183820152602001614f5f565b838111156112f35750506000910152565b60008151808452614fa0816020860160208601614f5c565b601f01601f19169290920160200192915050565b602081526000610a0a6020830184614f88565b600060208284031215614fd957600080fd5b5035919050565b6001600160a01b0381168114610ffb57600080fd5b8035611fa681614fe0565b6000806040838503121561501357600080fd5b823561501e81614fe0565b946020939093013593505050565b634e487b7160e01b600052604160045260246000fd5b608081018181106001600160401b03821117156150615761506161502c565b60405250565b601f8201601f191681016001600160401b038111828210171561508c5761508c61502c565b6040525050565b60405160e081016001600160401b03811182821017156150b5576150b561502c565b60405290565b60405161012081016001600160401b03811182821017156150b5576150b561502c565b600082601f8301126150ef57600080fd5b81356001600160401b038111156151085761510861502c565b60405161511f601f8301601f191660200182615067565b81815284602083860101111561513457600080fd5b816020850160208301376000918101602001919091529392505050565b60006060828403121561516357600080fd5b604051606081016001600160401b0382821081831117156151865761518661502c565b816040528293508435915061519a82614fe0565b908252602084013590808211156151b057600080fd5b6151bc868387016150de565b602084015260408501359150808211156151d557600080fd5b506151e2858286016150de565b6040830152505092915050565b803563ffffffff81168114611fa657600080fd5b803561ffff81168114611fa657600080fd5b80356001600160401b0381168114611fa657600080fd5b60006080828403121561523e57600080fd5b60405161524a81615042565b80915082356001600160401b038082111561526457600080fd5b9084019060e0828703121561527857600080fd5b615280615093565b82358281111561528f57600080fd5b61529b88828601615151565b8252506152aa602084016151ef565b60208201526152bb60408401614ff5565b60408201526152cc60608401614ff5565b60608201526152dd60808401614ff5565b60808201526152ee60a08401614ff5565b60a08201526152ff60c08401614ff5565b60c0820152835250615315905060208401615203565b602082015261532660408401615203565b604082015261533760608401615215565b60608201525092915050565b60006020828403121561535557600080fd5b81356001600160401b038082111561536c57600080fd5b90830190610120828603121561538157600080fd5b6153896150bb565b82358281111561539857600080fd5b6153a48782860161522c565b8252506153b360208401614ff5565b60208201526153c460408401614ff5565b60408201526153d560608401614ff5565b60608201526153e660808401614ff5565b60808201526153f760a08401614ff5565b60a082015261540860c08401614ff5565b60c082015261541960e08401614ff5565b60e0820152610100915061542e828401614ff5565b91810191909152949350505050565b60006020828403121561544f57600080fd5b8135610a0a81614fe0565b60008060006060848603121561546f57600080fd5b833561547a81614fe0565b9250602084013561548a81614fe0565b929592945050506040919091013590565b600080600080608085870312156154b157600080fd5b8435935060208501356154c381614fe0565b92506154d1604086016151ef565b91506154df60608601615203565b905092959194509250565b600080604083850312156154fd57600080fd5b82359150602083013561550f81614fe0565b809150509250929050565b60008060008060008060c0878903121561553357600080fd5b86359550602087013594506040870135935060608701359250608087013561555a81614fe0565b915060a087013561556a81614fe0565b809150509295509295509295565b60008060006060848603121561558d57600080fd5b83359250602084013561559f81614fe0565b915060408401356155af81614fe0565b809150509250925092565b600060208083850312156155cd57600080fd5b82356001600160401b03808211156155e457600080fd5b818501915085601f8301126155f857600080fd5b81358181111561560a5761560a61502c565b8060051b915060405161561f85840182615067565b8181529183018401918481018884111561563857600080fd5b938501935b83851015615654578435815293850193850161563d565b50979650505050505050565b6020808252825182820181905260009190848201906040850190845b818110156156985783518352928401929184019160010161567c565b50909695505050505050565b600080604083850312156156b757600080fd5b82356156c281614fe0565b9150602083013561550f81614fe0565b6000806000606084860312156156e757600080fd5b6156f084615203565b92506156fe60208501615203565b915061570c60408501615215565b90509250925092565b60006020828403121561572757600080fd5b5051919050565b634e487b7160e01b600052601160045260246000fd5b600082198211156157575761575761572e565b500190565b600181811c9082168061577057607f821691505b60208210810361579057634e487b7160e01b600052602260045260246000fd5b50919050565b6020808252818101527f4f776e61626c653a2063616c6c6572206973206e6f7420746865206f776e6572604082015260600190565b6000828210156157dd576157dd61572e565b500390565b6000602082840312156157f457600080fd5b81518015158114610a0a57600080fd5b60008060006060848603121561581957600080fd5b8351925060208401519150604084015190509250925092565b600080821280156001600160ff1b03849003851316156158545761585461572e565b600160ff1b839003841281161561586d5761586d61572e565b50500190565b6000806040838503121561588657600080fd5b505080516020909101519092909150565b6020808252602e908201527f496e697469616c697a61626c653a20636f6e747261637420697320616c72656160408201526d191e481a5b9a5d1a585b1a5e995960921b606082015260800190565b6020808252602b908201527f496e697469616c697a61626c653a20636f6e7472616374206973206e6f74206960408201526a6e697469616c697a696e6760a81b606082015260800190565b6000600160ff1b82016159455761594561572e565b5060000390565b634e487b7160e01b600052603260045260246000fd5b634e487b7160e01b600052602160045260246000fd5b6003811061599657634e487b7160e01b600052602160045260246000fd5b9052565b60006101408201905084825263ffffffff84166020830152825160020b6040830152602083015160020b60608301526040830151600f0b608083015260608301516159f060a08401826001600160a01b03169052565b50608083015161ffff1660c08381019190915260a0840151151560e0840152830151615a20610100840182615978565b5060e0830151801515610120840152610d6e565b600060ff821660ff8103615a4a57615a4a61572e565b60010192915050565b6020808252600890820152674f766572666c6f7760c01b604082015260600190565b600060208284031215615a8757600080fd5b8151610a0a81614fe0565b600061ffff808316818516808303821115615aaf57615aaf61572e565b01949350505050565b600061ffff83811690831681811015615ad357615ad361572e565b039392505050565b6000816000190483118215151615615af557615af561572e565b500290565b600082615b1757634e487b7160e01b600052601260045260246000fd5b500490565b86815285602082015260006001600160a01b03808716604084015260c06060840152615b4b60c0840187614f88565b94811660808401529290921660a09091015250949350505050565b600060033d1115615b7f5760046000803e5060005160e01c5b90565b600060443d1015615b905790565b6040516003193d81016004833e81513d6001600160401b038160248401118184111715615bbf57505050505090565b8285019150815181811115615bd75750505050505090565b843d8701016020828501011115615bf15750505050505090565b615c0060208286010187615067565b509095945050505050565b60008251615c1d818460208701614f5c565b9190910192915050565b60006001600160ff1b0381841382841380821686840486111615615c4d57615c4d61572e565b600160ff1b6000871282811687830589121615615c6c57615c6c61572e565b60008712925087820587128484161615615c8857615c8861572e565b87850587128184161615615c9e57615c9e61572e565b505050929093029392505050565b600060208284031215615cbe57600080fd5b815160ff81168114610a0a57600080fd5b600181815b80851115615d0a578160001904821115615cf057615cf061572e565b80851615615cfd57918102915b93841c9390800290615cd4565b509250929050565b600082615d2157506001610a25565b81615d2e57506000610a25565b8160018114615d445760028114615d4e57615d6a565b6001915050610a25565b60ff841115615d5f57615d5f61572e565b50506001821b610a25565b5060208310610133831016604e8410600b8410161715615d8d575081810a610a25565b615d978383615ccf565b8060001904821115615dab57615dab61572e565b029392505050565b6000610a0a60ff841683615d12565b60008083128015600160ff1b850184121615615de057615de061572e565b6001600160ff1b0384018313811615615dfb57615dfb61572e565b50500390565b600081600f0b6f7fffffffffffffffffffffffffffffff198103615e2757615e2761572e565b60000392915050565b8051600281900b8114611fa657600080fd5b600080600060608486031215615e5757600080fd5b615e6084615e30565b9250615e6e60208501615e30565b915060408401516001600160801b03811681146155af57600080fd5b60006001600160801b0383811690831681811015615ad357615ad361572e565b60006001600160801b03808316818516808303821115615aaf57615aaf61572e565b85815284602082015260a060408201526000615eeb60a0830186614f88565b6001600160a01b0394851660608401529290931660809091015294935050505056fea164736f6c634300080e000a",
  "deployedBytecode": "0x608060405234801561001057600080fd5b50600436106103c55760003560e01c80637d7c2a1c116101ff578063c57981b51161011a578063dd62ed3e116100ad578063f2fde38b1161007c578063f2fde38b14610883578063fcb777ef14610896578063fd967f47146108a9578063ff928153146108b257600080fd5b8063dd62ed3e14610839578063e66488531461084c578063ee3a98ff14610855578063ef8b30f71461087057600080fd5b8063d4406e89116100e9578063d4406e89146107e6578063d905777e146107fd578063dbd035ff14610810578063dbd5edc71461083057600080fd5b8063c57981b5146107a4578063c63d75b6146107ad578063c6e6f592146107c0578063ce96cb77146107d357600080fd5b8063a9059cbb11610192578063b6cdc2d511610161578063b6cdc2d514610762578063b81aecd914610776578063ba08765214610789578063bf9571f11461079c57600080fd5b8063a9059cbb14610716578063aced166114610729578063b3d7f6b91461073c578063b460af941461074f57600080fd5b80638fd3ab80116101ce5780638fd3ab80146106e057806394bf804d146106e857806395d89b41146106fb578063a457c2d71461070357600080fd5b80637d7c2a1c146106ac5780638d315d7b146106b45780638da5cb5b146106bc5780638f1d6868146106cd57600080fd5b80633d672a45116102ef57806357b082fc116102825780636e553f65116102515780636e553f651461066057806370a0823114610673578063715018a61461069c5780637999e84e146106a457600080fd5b806357b082fc146105fc5780635f63e06614610610578063620bc225146106235780636a8db81d1461064b57600080fd5b80634cdad506116102be5780634cdad506146105985780635053145f146105ab578063554070bc146105d657806356501144146105e957600080fd5b80633d672a451461053e5780633f6be82214610546578063402d267d146105595780634afe813e1461056c57600080fd5b8063164e68de1161036757806323b872dd1161033657806323b872dd146104de578063313ce567146104f157806338d52e0f14610500578063395093511461052b57600080fd5b8063164e68de1461047f57806318160ddd146104925780631aa3dfbb1461049a5780631e2eaeaf146104cc57600080fd5b8063095ea7b3116103a3578063095ea7b31461040d57806309a68a92146104305780630a28a477146104575780631273a17d1461046a57600080fd5b806301e1d114146103ca57806306fdde03146103e557806307a2d13a146103fa575b600080fd5b6103d26108c5565b6040519081526020015b60405180910390f35b6103ed61094a565b6040516103dc9190614fb4565b6103d2610408366004614fc7565b6109dc565b61042061041b366004615000565b610a11565b60405190151581526020016103dc565b60a15461044490600160b81b900460020b81565b60405160029190910b81526020016103dc565b6103d2610465366004614fc7565b610a2b565b61047d610478366004615343565b610a43565b005b61047d61048d36600461543d565b610abb565b6035546103d2565b60a2546104b490600160a81b90046001600160401b031681565b6040516001600160401b0390911681526020016103dc565b6103d26104da366004614fc7565b5490565b6104206104ec36600461545a565b610c13565b604051601281526020016103dc565b606554610513906001600160a01b031681565b6040516001600160a01b0390911681526020016103dc565b610420610539366004615000565b610c37565b6103d2610c59565b60a0546104b4906001600160401b031681565b6103d261056736600461543d565b610cdf565b60a05461058390600160501b900463ffffffff1681565b60405163ffffffff90911681526020016103dc565b6103d26105a6366004614fc7565b610d55565b60a2546105be906001600160801b031681565b6040516001600160801b0390911681526020016103dc565b6103d26105e4366004614fc7565b610d77565b61047d6105f736600461549b565b610e02565b60a25461042090600160801b900460ff1681565b609a54610513906001600160a01b031681565b60a05461063890600160401b900461ffff1681565b60405161ffff90911681526020016103dc565b60a25461063890600160881b900461ffff1681565b6103d261066e3660046154ea565b610edd565b6103d261068136600461543d565b6001600160a01b031660009081526033602052604090205490565b61047d610ef1565b61047d610f27565b61047d610ffe565b6103d26110d0565b6066546001600160a01b0316610513565b61047d6106db36600461551a565b611161565b61047d611271565b6103d26106f63660046154ea565b6112f9565b6103ed61130d565b610420610711366004615000565b61131c565b610420610724366004615000565b611397565b60a154610513906001600160a01b031681565b6103d261074a366004614fc7565b6113a5565b6103d261075d366004615578565b6113cc565b60a15461044490600160a01b900460020b81565b610420610784366004614fc7565b6114b1565b6103d2610797366004615578565b6114ca565b61047d6115fd565b6103d260b05481565b6103d26107bb36600461543d565b611a7f565b6103d26107ce366004614fc7565b611a8e565b6103d26107e136600461543d565b611ab6565b609c5461058390600160a01b900463ffffffff1681565b6103d261080b36600461543d565b611add565b61082361081e3660046155ba565b611aff565b6040516103dc9190615660565b6103d2609f5481565b6103d26108473660046156a4565b611b2d565b6103d2609d5481565b609e546105139064010000000090046001600160a01b031681565b6103d261087e366004614fc7565b611b58565b61047d61089136600461543d565b611b63565b609954610513906001600160a01b031681565b6103d261271081565b61047d6108c03660046156d2565b611bfb565b60006108cf611cc8565b6065546040516370a0823160e01b81523060048201526001600160a01b03909116906370a0823190602401602060405180830381865afa158015610917573d6000803e3d6000fd5b505050506040513d601f19601f8201168201806040525081019061093b9190615715565b6109459190615744565b905090565b6060603680546109599061575c565b80601f01602080910402602001604051908101604052809291908181526020018280546109859061575c565b80156109d25780601f106109a7576101008083540402835291602001916109d2565b820191906000526020600020905b8154815290600101906020018083116109b557829003601f168201915b5050505050905090565b6000806109e860355490565b90508015610a0857610a036109fb6108c5565b849083611d11565b610a0a565b825b9392505050565b600033610a1f818585611d30565b60019150505b92915050565b600080610a3783611e54565b509050610a0a81611ef6565b6000610a4f6001611f1e565b90508015610a67576000805461ff0019166101001790555b610a7082611fab565b8015610ab7576000805461ff0019169055604051600181527f7f26b83ff96e1f2b6a682f133852f6798a09c465da95921460cefb3847402498906020015b60405180910390a15b5050565b6066546001600160a01b03163314610aee5760405162461bcd60e51b8152600401610ae590615796565b60405180910390fd5b60ac5460a6546040516370a0823160e01b8152306004820152600092916001600160a01b0316906370a0823190602401602060405180830381865afa158015610b3b573d6000803e3d6000fd5b505050506040513d601f19601f82011682018060405250810190610b5f9190615715565b610b6991906157cb565b60a65460405163a9059cbb60e01b81526001600160a01b0385811660048301526024820184905292935091169063a9059cbb906044016020604051808303816000875af1158015610bbe573d6000803e3d6000fd5b505050506040513d601f19601f82011682018060405250810190610be291906157e2565b506040518181527f9800e6f57aeb4360eaa72295a820a4293e1e66fbfcabcd8874ae141304a76deb90602001610aae565b600033610c2185828561208e565b610c2c858585612102565b506001949350505050565b600033610a1f818585610c4a8383611b2d565b610c549190615744565b611d30565b60a9546040516001620e8cb360e11b031981526001600160a01b03909116600482015260009073__$9842325bb1826b70c2ef476a1c714a02a7$__9063ffe2e69a90602401602060405180830381865af4158015610cbb573d6000803e3d6000fd5b505050506040513d601f19601f820116820180604052508101906109459190615715565b6000610ce96108c5565b306001600160a01b031663dbd5edc76040518163ffffffff1660e01b8152600401602060405180830381865afa158015610d27573d6000803e3d6000fd5b505050506040513d601f19601f82011682018060405250810190610d4b9190615715565b610a2591906157cb565b600080610d61836109dc565b90506000610d6e82611e54565b50949350505050565b60a954604051637a5fda7960e01b8152600481018390526001600160a01b03909116602482015260009073__$9842325bb1826b70c2ef476a1c714a02a7$__90637a5fda79906044015b602060405180830381865af4158015610dde573d6000803e3d6000fd5b505050506040513d601f19601f82011682018060405250810190610a259190615715565b6066546001600160a01b03163314610e2c5760405162461bcd60e51b8152600401610ae590615796565b60a180546001600160a01b0319166001600160a01b038516908117909155609f85905560a0805465ffffffffffff60401b1916600160501b63ffffffff861690810269ffff0000000000000000191691909117600160401b61ffff86169081029190911790925560408051888152602081019490945283015260608201527f69a94cb0b737928b3387da2d3d2a8d288ec329d009d2b769142dd314cc026ecd9060800160405180910390a150505050565b6000610ee76122d0565b610a0a83836122d8565b6066546001600160a01b03163314610f1b5760405162461bcd60e51b8152600401610ae590615796565b610f256000612395565b565b60a1546001600160a01b03163314610f675760a1546040516369958c7360e01b81523360048201526001600160a01b039091166024820152604401610ae5565b609854609d54609c5460405163e9b7c36760e01b81526004810192909252600160a01b900463ffffffff1660248201526000916001600160a01b03169063e9b7c36790604401606060405180830381865afa158015610fca573d6000803e3d6000fd5b505050506040513d601f19601f82011682018060405250810190610fee9190615804565b50915050610ffb816123e7565b50565b60a1546001600160a01b0316331461103e5760a1546040516369958c7360e01b81523360048201526001600160a01b039091166024820152604401610ae5565b60006110486110d0565b9050611053816114b1565b61107057604051636fa1adc360e01b815260040160405180910390fd5b600061107a6124cb565b9150506110878183612671565b60a0805467ffffffffffffffff1916426001600160401b03161790556040517ff57243a1fddfdc9fa2c7de26cc3503b1b94cfd4368d2b82d0970bfbb2fbce3a490600090a15050565b609a54609d54604051631c7a838360e31b815260048101919091526000916001600160a01b03169063e3d41c1890602401602060405180830381865afa15801561111e573d6000803e3d6000fd5b505050506040513d601f19601f820116820180604052508101906111429190615715565b90506111576111526105e46108c5565b6127b1565b6109459082615832565b6066546001600160a01b0316331461118b5760405162461bcd60e51b8152600401610ae590615796565b6127108610801561119d575061271085105b80156111aa575061271083105b156111f85760b086905560a780546001600160a01b038085166001600160a01b03199283161790925560ab80549284169290911691909117905560ad84905560ae83905560af859055611211565b60405163255c70a960e01b815260040160405180910390fd5b6040805187815260208101879052908101859052606081018490526001600160a01b0380831691908416907fba273f2d1d90cb33cc49c5d227727a39642d18436d4c4562d9efc4db1b5205d19060800160405180910390a3505050505050565b6066546001600160a01b0316331461129b5760405162461bcd60e51b8152600401610ae590615796565b73__$9842325bb1826b70c2ef476a1c714a02a7$__638fd3ab806040518163ffffffff1660e01b815260040160006040518083038186803b1580156112df57600080fd5b505af41580156112f3573d6000803e3d6000fd5b50505050565b60006113036122d0565b610a0a83836127da565b6060603780546109599061575c565b6000338161132a8286611b2d565b90508381101561138a5760405162461bcd60e51b815260206004820152602560248201527f45524332303a2064656372656173656420616c6c6f77616e63652062656c6f77604482015264207a65726f60d81b6064820152608401610ae5565b610c2c8286868403611d30565b600033610a1f818585612102565b6000806113b160355490565b90508015610a0857610a036113c46108c5565b84908361285a565b60006113d66122d0565b6000806113e286611e54565b915091506113ef82611ef6565b92506113fa81612888565b336001600160a01b038516146114325760006114168533611b2d565b90506000198114611430576114308533610c5487856157cb565b505b61143c8284612891565b61144684846128ab565b60408051838152602081018590526001600160a01b03808716929088169133917ffbde797d201c681b91056529119e0b02407c7bb96a4a2c75c01fc9667232c8db910160405180910390a46065546114a8906001600160a01b031686846129f9565b50509392505050565b60006114bb612a5c565b80610a255750610a2582612a89565b60006114d46122d0565b60006114df856109dc565b905060006114ec82611e54565b909350905060006114fc84611ef6565b90508360000361153c5760405162461bcd60e51b815260206004820152600b60248201526a5a45524f5f41535345545360a81b6044820152606401610ae5565b336001600160a01b038616146115745760006115588633611b2d565b90506000198114611572576115728633610c5485856157cb565b505b61157d82612888565b6115878482612891565b61159185826128ab565b60408051858152602081018390526001600160a01b03808816929089169133917ffbde797d201c681b91056529119e0b02407c7bb96a4a2c75c01fc9667232c8db910160405180910390a46065546115f3906001600160a01b031687866129f9565b5050509392505050565b6066546001600160a01b031633146116275760405162461bcd60e51b8152600401610ae590615796565b61162f612b9d565b60655460a75460405163095ea7b360e01b81526001600160a01b039182166004820152600019602482015291169063095ea7b3906044016020604051808303816000875af1158015611685573d6000803e3d6000fd5b505050506040513d601f19601f820116820180604052508101906116a991906157e2565b5060655460aa5460405163095ea7b360e01b81526001600160a01b039182166004820152600019602482015291169063095ea7b3906044016020604051808303816000875af1158015611700573d6000803e3d6000fd5b505050506040513d601f19601f8201168201806040525081019061172491906157e2565b5060a55460a85460405163095ea7b360e01b81526001600160a01b0391821660048201526000602482015291169063095ea7b3906044016020604051808303816000875af115801561177a573d6000803e3d6000fd5b505050506040513d601f19601f8201168201806040525081019061179e91906157e2565b5060a35460a85460405163095ea7b360e01b81526001600160a01b0391821660048201526000602482015291169063095ea7b3906044016020604051808303816000875af11580156117f4573d6000803e3d6000fd5b505050506040513d601f19601f8201168201806040525081019061181891906157e2565b5060a35460aa5460405163095ea7b360e01b81526001600160a01b0391821660048201526000602482015291169063095ea7b3906044016020604051808303816000875af115801561186e573d6000803e3d6000fd5b505050506040513d601f19601f8201168201806040525081019061189291906157e2565b5060a55460a85460405163095ea7b360e01b81526001600160a01b039182166004820152600019602482015291169063095ea7b3906044016020604051808303816000875af11580156118e9573d6000803e3d6000fd5b505050506040513d601f19601f8201168201806040525081019061190d91906157e2565b5060a35460a85460405163095ea7b360e01b81526001600160a01b039182166004820152600019602482015291169063095ea7b3906044016020604051808303816000875af1158015611964573d6000803e3d6000fd5b505050506040513d601f19601f8201168201806040525081019061198891906157e2565b5060a35460aa5460405163095ea7b360e01b81526001600160a01b039182166004820152600019602482015291169063095ea7b3906044016020604051808303816000875af11580156119df573d6000803e3d6000fd5b505050506040513d601f19601f82011682018060405250810190611a0391906157e2565b5060a65460a85460405163095ea7b360e01b81526001600160a01b039182166004820152600019602482015291169063095ea7b3906044015b6020604051808303816000875af1158015611a5b573d6000803e3d6000fd5b505050506040513d601f19601f82011682018060405250810190610ffb91906157e2565b6000610a256107ce6000610cdf565b600080611a9a60355490565b90508015610a0857610a0381611aae6108c5565b859190611d11565b6000610a25610465610408846001600160a01b031660009081526033602052604090205490565b6001600160a01b038116600090815260336020526040812054610a2590610d55565b606060208251028201602001602083015b81811015611b25578051548152602001611b10565b509192915050565b6001600160a01b03918216600090815260346020908152604080832093909416825291909152205490565b6000610a2582611a8e565b6066546001600160a01b03163314611b8d5760405162461bcd60e51b8152600401610ae590615796565b6001600160a01b038116611bf25760405162461bcd60e51b815260206004820152602660248201527f4f776e61626c653a206e6577206f776e657220697320746865207a65726f206160448201526564647265737360d01b6064820152608401610ae5565b610ffb81612395565b6066546001600160a01b03163314611c255760405162461bcd60e51b8152600401610ae590615796565b60a2805463ffffffff60881b1916600160881b61ffff86811691820261ffff60981b191692909217600160981b9286169283021767ffffffffffffffff60a81b1916600160a81b6001600160401b03861690810291909117909355604080519182526020820192909252908101919091527f4a9bdb3bab9a7cff0ea02e1428a3901c565a962f3b99b7d8d2b02787ca4f93f99060600160405180910390a1505050565b60a7546040516370a0823160e01b81523060048201526000916001600160a01b0316906370a0823190602401602060405180830381865afa158015610cbb573d6000803e3d6000fd5b828202811515841585830485141716611d2957600080fd5b0492915050565b6001600160a01b038316611d925760405162461bcd60e51b8152602060048201526024808201527f45524332303a20617070726f76652066726f6d20746865207a65726f206164646044820152637265737360e01b6064820152608401610ae5565b6001600160a01b038216611df35760405162461bcd60e51b815260206004820152602260248201527f45524332303a20617070726f766520746f20746865207a65726f206164647265604482015261737360f01b6064820152608401610ae5565b6001600160a01b0383811660008181526034602090815260408083209487168084529482529182902085905590518481527f8c5be1e5ebec7d5bd14f71427d1e84f3dd0314c0f7b2291e5b200ac8c7c3b925910160405180910390a3505050565b60008073__$9842325bb1826b70c2ef476a1c714a02a7$__632780ee3130611e7a6108c5565b6040516001600160e01b031960e085901b1681526001600160a01b0390921660048301526024820152604481018690526064016040805180830381865af4158015611ec9573d6000803e3d6000fd5b505050506040513d601f19601f82011682018060405250810190611eed9190615873565b91509150915091565b600080611f0260355490565b90508015610a0857610a0381611f166108c5565b85919061285a565b60008054610100900460ff1615611f65578160ff166001148015611f415750303b155b611f5d5760405162461bcd60e51b8152600401610ae590615897565b506000919050565b60005460ff808416911610611f8c5760405162461bcd60e51b8152600401610ae590615897565b506000805460ff191660ff92909216919091179055600190565b919050565b600054610100900460ff16611fd25760405162461bcd60e51b8152600401610ae5906158e5565b8051611fdd90612c54565b602081015160a380546001600160a01b03199081166001600160a01b0393841617909155604083015160a580548316918416919091179055606083015160a48054831691841691909117905560a083015160a780548316918416919091179055608083015160a68054831691841691909117905560c083015160a88054831691841691909117905561010083015160aa8054831691841691909117905560e09092015160a980549093169116179055565b600061209a8484611b2d565b905060001981146112f357818110156120f55760405162461bcd60e51b815260206004820152601d60248201527f45524332303a20696e73756666696369656e7420616c6c6f77616e63650000006044820152606401610ae5565b6112f38484848403611d30565b6001600160a01b0383166121665760405162461bcd60e51b815260206004820152602560248201527f45524332303a207472616e736665722066726f6d20746865207a65726f206164604482015264647265737360d81b6064820152608401610ae5565b6001600160a01b0382166121c85760405162461bcd60e51b815260206004820152602360248201527f45524332303a207472616e7366657220746f20746865207a65726f206164647260448201526265737360e81b6064820152608401610ae5565b6001600160a01b038316600090815260336020526040902054818110156122405760405162461bcd60e51b815260206004820152602660248201527f45524332303a207472616e7366657220616d6f756e7420657863656564732062604482015265616c616e636560d01b6064820152608401610ae5565b6001600160a01b03808516600090815260336020526040808220858503905591851681529081208054849290612277908490615744565b92505081905550826001600160a01b0316846001600160a01b03167fddf252ad1be2c89b69c2b068fc378daa952ba7f163c4a11628f55a4df523b3ef846040516122c391815260200190565b60405180910390a36112f3565b610ab76124cb565b60006122e383611b58565b9050806000036123235760405162461bcd60e51b815260206004820152600b60248201526a5a45524f5f53484152455360a81b6044820152606401610ae5565b60655461233b906001600160a01b0316333086612d38565b6123458282612d70565b60408051848152602081018390526001600160a01b0384169133917fdcbc1c05240f31ff3ad067ef1ee35ce4997762752e3a095284754544f4c709d7910160405180910390a3610a258382612e4f565b606680546001600160a01b038381166001600160a01b0319831681179093556040519116919082907f8be0079c531659141344cd1fd0a4f28419497f9722a3daafe3b4186f6b6457e090600090a35050565b60a254600160801b900460ff1661241157604051632f0c3e3160e11b815260040160405180910390fd5b600061241c82615930565b90506000612428612ea7565b905060006124368383612f73565b60a254909150600160a81b90046001600160401b031681111561248e576000612470848460a260119054906101000a900461ffff16612fa1565b5090508084036124885760a2805460ff60801b191690555b5061249c565b60a2805460ff60801b191690555b6040517f9a94a63b02012d6753ed863b962aceb756429b4265fc327391dd05fb24d4502b90600090a150505050565b609854609d54609c5460405163e9b7c36760e01b81526004810192909252600160a01b900463ffffffff16602482015260009182916001600160a01b039091169063e9b7c36790604401606060405180830381865afa158015612532573d6000803e3d6000fd5b505050506040513d601f19601f820116820180604052508101906125569190615804565b50609854609d54609e54604051630ad444cb60e21b8152600481019290925263ffffffff1660248201529193506001600160a01b03169150632b51132c90604401602060405180830381865afa1580156125b4573d6000803e3d6000fd5b505050506040513d601f19601f820116820180604052508101906125d89190615715565b915060006125e46110d0565b90506125ee61300f565b6125f88382613476565b6065546040516370a0823160e01b815230600482015261266c916001600160a01b0316906370a08231906024015b602060405180830381865afa158015612643573d6000803e3d6000fd5b505050506040513d601f19601f820116820180604052508101906126679190615715565b613746565b509091565b61267a816137dc565b60a28054911515600160801b0260ff60801b1990921691909117905560006126a1826138ac565b905060005b60028160ff16101561279057818160ff16600281106126c7576126c761594c565b602002015160400151600f0b1561279057609a54609d54609c546001600160a01b039092169163c7505c159190600160a01b900463ffffffff168560ff8616600281106127165761271661594c565b60200201516040518463ffffffff1660e01b81526004016127399392919061599a565b60408051808303816000875af1158015612757573d6000803e3d6000fd5b505050506040513d601f19601f8201168201806040525081019061277b9190615873565b5050808061278890615a34565b9150506126a6565b5060a254600160801b900460ff16156127ac576127ac836123e7565b505050565b6000600160ff1b82106127d65760405162461bcd60e51b8152600401610ae590615a53565b5090565b60006127e5836113a5565b606554909150612800906001600160a01b0316333084612d38565b61280a8284612d70565b60408051828152602081018590526001600160a01b0384169133917fdcbc1c05240f31ff3ad067ef1ee35ce4997762752e3a095284754544f4c709d7910160405180910390a3610a258184612e4f565b82820281151584158583048514171661287257600080fd5b6001826001830304018115150290509392505050565b610ffb81613ab1565b6128a261289c6108c5565b83613ac2565b610ab782613bdc565b6001600160a01b03821661290b5760405162461bcd60e51b815260206004820152602160248201527f45524332303a206275726e2066726f6d20746865207a65726f206164647265736044820152607360f81b6064820152608401610ae5565b6001600160a01b0382166000908152603360205260409020548181101561297f5760405162461bcd60e51b815260206004820152602260248201527f45524332303a206275726e20616d6f756e7420657863656564732062616c616e604482015261636560f01b6064820152608401610ae5565b6001600160a01b03831660009081526033602052604081208383039055603580548492906129ae9084906157cb565b90915550506040518281526000906001600160a01b038516907fddf252ad1be2c89b69c2b068fc378daa952ba7f163c4a11628f55a4df523b3ef9060200160405180910390a3505050565b6040516001600160a01b0383166024820152604481018290526127ac90849063a9059cbb60e01b906064015b60408051601f198184030181529190526020810180516001600160e01b03166001600160e01b031990931692909217909152613ce0565b60a05460009063ffffffff600160501b82041690612a83906001600160401b0316426157cb565b11905090565b609e54609c54609a5460009273__$9842325bb1826b70c2ef476a1c714a02a7$__9263757d5fd6926001600160a01b03640100000000909304831692612ae29291169063ffffffff600160a01b909104811690613db216565b60a05460a15460405160e086901b6001600160e01b03191681526001600160a01b03909416600485015263ffffffff9092166024840152600160401b900461ffff166044830152600160a01b8104600290810b6064840152600160b81b909104900b608482015260a401602060405180830381865af4158015612b69573d6000803e3d6000fd5b505050506040513d601f19601f82011682018060405250810190612b8d91906157e2565b905080611fa657610a25826137dc565b609c54609a5460405163095ea7b360e01b81526001600160a01b039182166004820152600019602482015291169063095ea7b3906044016020604051808303816000875af1158015612bf3573d6000803e3d6000fd5b505050506040513d601f19601f82011682018060405250810190612c1791906157e2565b50609b54609a5460405163095ea7b360e01b81526001600160a01b039182166004820152600019602482015291169063095ea7b390604401611a3c565b600054610100900460ff16612c7b5760405162461bcd60e51b8152600401610ae5906158e5565b8051612c8690613e52565b60208181015160a2805460408086015160608088015163ffffffff60881b19909416600160881b61ffff97881690810261ffff60981b191691909117600160981b979093169687029290921767ffffffffffffffff60a81b1916600160a81b6001600160401b0390951694850217909455815190815294850193909352918301919091527f4a9bdb3bab9a7cff0ea02e1428a3901c565a962f3b99b7d8d2b02787ca4f93f9910160405180910390a150565b6040516001600160a01b03808516602483015283166044820152606481018290526112f39085906323b872dd60e01b90608401612a25565b6001600160a01b038216612dc65760405162461bcd60e51b815260206004820152601f60248201527f45524332303a206d696e7420746f20746865207a65726f2061646472657373006044820152606401610ae5565b8060356000828254612dd89190615744565b90915550506001600160a01b03821660009081526033602052604081208054839290612e05908490615744565b90915550506040518181526001600160a01b038316906000907fddf252ad1be2c89b69c2b068fc378daa952ba7f163c4a11628f55a4df523b3ef9060200160405180910390a35050565b609f54612e5a6108c5565b1115612e8d57609f54612e6b6108c5565b6040516301b25d0360e41b815260048101929092526024820152604401610ae5565b612e9682614040565b610ab7612ea16108c5565b836140e7565b609e54609c54609a5460009273__$9842325bb1826b70c2ef476a1c714a02a7$__9263e54c8fd8926001600160a01b03640100000000909304831692612f009291169063ffffffff600160a01b909104811690613db216565b6040516001600160e01b031960e085901b1681526001600160a01b03909216600483015263ffffffff166024820152604401602060405180830381865af4158015612f4f573d6000803e3d6000fd5b505050506040513d601f19601f820116820180604052508101906109459190615a75565b6000610a0a612f9c6001600160a01b038416600160601b612f9587838361432e565b919061432e565b614370565b600080600080861315612fe357612fdc612fd7612fc086612710615a92565b6001600160a01b0388169061ffff1661271061437b565b61442d565b9050612ff8565b612ff5612fd7612fc086612710615ab8565b90505b6130028682614456565b9097909650945050505050565b60a6546040516370a0823160e01b81523060048201526000916001600160a01b0316906370a0823190602401602060405180830381865afa158015613058573d6000803e3d6000fd5b505050506040513d601f19601f8201168201806040525081019061307c9190615715565b60a7546040516335313c2160e11b81526001600160a01b03909116600482015290915073abc000d88f23bb45525e447528dbf656a9d55bf590636a62784290602401600060405180830381600087803b1580156130d857600080fd5b505af11580156130ec573d6000803e3d6000fd5b5050505060a760009054906101000a90046001600160a01b03166001600160a01b031663e6f1daf26040518163ffffffff1660e01b8152600401600060405180830381600087803b15801561314057600080fd5b505af1158015613154573d6000803e3d6000fd5b505060a6546040516370a0823160e01b8152306004820152600093506001600160a01b0390911691506370a0823190602401602060405180830381865afa1580156131a3573d6000803e3d6000fd5b505050506040513d601f19601f820116820180604052508101906131c79190615715565b9050600060ac5483836131da91906157cb565b6131e49190615744565b905060ad5481111561346f57600061271060b054836132039190615adb565b61320d9190615afa565b61321790836157cb565b90507f8e55ccfc9778ff8eba1646d765cf1982537ce0f9257054a17b48aad7452501838260405161324a91815260200190565b60405180910390a160a65460a45460a3546040516bffffffffffffffffffffffff19606094851b8116602083015261017760eb1b603483015292841b83166037820152607d60ea1b604b820152921b16604e82015260009060620160408051808303601f190181529082905260ae5460ab5460a85460aa54631a6dbd7760e21b865293955073__$f09208ef53137b379b85ea4a8d399069d8$__946369b6f5dc9461331194899490936001600160a01b03918216938a939183169290911690600401615b1c565b602060405180830381865af492505050801561334a575060408051601f3d908101601f1916820190925261334791810190615715565b60015b61342f57613356615b66565b806308c379a003613423575061336a615b82565b806133755750613425565b7ff037a9cbca9be03859489f289f0cf5f85c0414bbfdd9785bc7ab31bd734e249c816040516020016133a79190615c0b565b60405160208183030381529060405280519060200120036134025760ac84905560ae546040519081527fcb3fb020a2ef5ed123410dbb49ba59bd63d9120125437350973dc53691d166f59060200160405180910390a161341d565b8060405163f6e3573b60e01b8152600401610ae59190614fb4565b50613468565b505b3d6000803e3d6000fd5b506065546040516370a0823160e01b8152306004820152613462916001600160a01b0316906370a0823190602401612626565b600060ac555b5050505050565b60ac555050565b609a54609d54604051631c7a838360e31b815260048101919091526000916001600160a01b03169063e3d41c1890602401602060405180830381865afa1580156134c4573d6000803e3d6000fd5b505050506040513d601f19601f820116820180604052508101906134e89190615715565b9050600081131561357b57609a54609d546001600160a01b0390911690639cd1be589061351784600019615c27565b6040516001600160e01b031960e085901b16815260048101929092526024820152604401600060405180830381600087803b15801561355557600080fd5b505af1158015613569573d6000803e3d6000fd5b5050505061357681614546565b61361c565b600081121561361c57600061359a61359583600019615c27565b61464a565b9050801561361a57609a54609d546001600160a01b0390911690639cd1be58906135c3846127b1565b6040516001600160e01b031960e085901b16815260048101929092526024820152604401600060405180830381600087803b15801561360157600080fd5b505af1158015613615573d6000803e3d6000fd5b505050505b505b6000831561373a57609b546040805163313ce56760e01b81529051613729926001600160a01b03169163313ce5679160048083019260209291908290030181865afa15801561366f573d6000803e3d6000fd5b505050506040513d601f19601f820116820180604052508101906136939190615cac565b61369e90600a615db3565b609c60009054906101000a90046001600160a01b03166001600160a01b031663313ce5676040518163ffffffff1660e01b8152600401602060405180830381865afa1580156136f1573d6000803e3d6000fd5b505050506040513d601f19601f820116820180604052508101906137159190615cac565b61372090600a615db3565b612f95876127b1565b6137339084615dc2565b905061373d565b50815b6112f3816146d7565b60a75460405163b6b55f2560e01b8152600481018390526001600160a01b039091169063b6b55f2590602401600060405180830381600087803b15801561378c57600080fd5b505af11580156137a0573d6000803e3d6000fd5b50506040518381523392507f6e47dcdd359b6cd69456f0f97d394bd4540a2e7c4adc1b9da076859df53756c7915060200160405180910390a250565b609a54609d54609c54604051633524324160e11b81526004810192909252600160a01b900463ffffffff16602482015260009182916001600160a01b0390911690636a48648290604401602060405180830381865afa158015613843573d6000803e3d6000fd5b505050506040513d601f19601f820116820180604052508101906138679190615715565b9050600061387c82613877612ea7565b612f73565b60a2549091506138a490600160981b900461ffff1661271061389d87614370565b919061437b565b109392505050565b6138b4614e5a565b60a2546000906001600160801b0316156139325760a15460a25461390a91600160a01b8104600290810b92600160b81b909204900b906138fc906001600160801b03166149be565b61390590615e01565b6149ec565b828260ff166002811061391f5761391f61594c565b60200201528061392e81615a34565b9150505b600061393c612ea7565b604051630ad6ed5b60e41b81526001600160a01b038216600482015260248101869052620c3500604482015290915060009073__$9842325bb1826b70c2ef476a1c714a02a7$__9063ad6ed5b090606401606060405180830381865af41580156139aa573d6000803e3d6000fd5b505050506040513d601f19601f820116820180604052508101906139ce9190615e42565b60a1805465ffffffffffff60a01b1916600160b81b62ffffff9485160262ffffff60a01b191617600160a01b94909316939093029190911790915560a2549091506001600160801b03161580613a2d575060a254600160801b900460ff165b15613a4e5760a280546001600160801b0319166001600160801b0383161790555b60a15460a254613a8291600160a01b8104600290810b92600160b81b909204900b90613905906001600160801b03166149be565b848460ff1660028110613a9757613a9761594c565b602002015282613aa681615a34565b935050505050919050565b8015610ffb576127ac816000614456565b6000613ad083836001614a64565b90508060400151613ae090615e01565b60a28054600090613afb9084906001600160801b0316615e8a565b82546101009290920a6001600160801b0381810219909316918316021790915560a254166000039050613b3057600160a08201525b609a54609d54609c5460405163c7505c1560e01b81526001600160a01b039093169263c7505c1592613b77929091600160a01b90910463ffffffff1690869060040161599a565b60408051808303816000875af1158015613b95573d6000803e3d6000fd5b505050506040513d601f19601f82011682018060405250810190613bb99190615873565b50506000613bc961115284610d77565b90506112f3613bd782615930565b6146d7565b60a954604080516354f0f7d560e01b815290517fc852a00896bd42656c7822f2f6c850502574cfdbb70db38df4ea5eb56f5af8fd926001600160a01b0316916354f0f7d59160048083019260209291908290030181865afa158015613c45573d6000803e3d6000fd5b505050506040513d601f19601f82011682018060405250810190613c699190615715565b60405190815260200160405180910390a160a754604051632e1a7d4d60e01b8152600481018390526001600160a01b0390911690632e1a7d4d90602401600060405180830381600087803b158015613cc057600080fd5b505af1158015613cd4573d6000803e3d6000fd5b50505050610ffb61300f565b6000613d35826040518060400160405280602081526020017f5361666545524332303a206c6f772d6c6576656c2063616c6c206661696c6564815250856001600160a01b0316614ad59092919063ffffffff16565b8051909150156127ac5780806020019051810190613d5391906157e2565b6127ac5760405162461bcd60e51b815260206004820152602a60248201527f5361666545524332303a204552433230206f7065726174696f6e20646964206e6044820152691bdd081cdd58d8d9595960b21b6064820152608401610ae5565b600080836001600160a01b0316631e2eaeaf613dd66003613dd287614ae4565b0190565b6040518263ffffffff1660e01b8152600401613df491815260200190565b602060405180830381865afa158015613e11573d6000803e3d6000fd5b505050506040513d601f19601f82011682018060405250810190613e359190615715565b9050613e4a63ffffffff60b083901c16614afe565b949350505050565b600054610100900460ff16613e795760405162461bcd60e51b8152600401610ae5906158e5565b613e81614b06565b8051613e8c90614b35565b602081810151609c805463ffffffff60a01b1916600160a01b63ffffffff909316929092029190911790556080820151609880546001600160a01b03199081166001600160a01b03938416179091556040808501516099805484169185169190911790556060850151609a805490931693169283179091558051639dca362f60e01b815290519192639dca362f9260048381019382900301816000875af1158015613f3b573d6000803e3d6000fd5b505050506040513d601f19601f82011682018060405250810190613f5f9190615715565b609d5560c0810151609b80546001600160a01b03199081166001600160a01b039384161790915560a0830151609c80549092169083161790819055609a54613fb9921690600160a01b900463ffffffff90811690614b4c16565b609e80546001600160a01b039283166401000000000277ffffffffffffffffffffffffffffffffffffffff000000001990911617905560a0820151614002911663ffffffff1690565b609e805463ffffffff191663ffffffff929092169190911790555060a0805465ffffffffffff60401b19166c01518001f40000000000000000179055565b60a954604080516354f0f7d560e01b815290517fc852a00896bd42656c7822f2f6c850502574cfdbb70db38df4ea5eb56f5af8fd926001600160a01b0316916354f0f7d59160048083019260209291908290030181865afa1580156140a9573d6000803e3d6000fd5b505050506040513d601f19601f820116820180604052508101906140cd9190615715565b60405190815260200160405180910390a1610ffb81613746565b60006140f561115283610d77565b9050614100816146d7565b614108614e87565b60a2546001600160801b031615801561412057508284145b1561423e57600061412f612ea7565b604051630ad6ed5b60e41b81526001600160a01b038216600482015260248101859052620c3500604482015290915073__$9842325bb1826b70c2ef476a1c714a02a7$__9063ad6ed5b090606401606060405180830381865af415801561419a573d6000803e3d6000fd5b505050506040513d601f19601f820116820180604052508101906141be9190615e42565b60a280546001600160801b0319166001600160801b0392909216918217905560a1805465ffffffffffff60a01b1916600160b81b62ffffff948516810262ffffff60a01b191691909117600160a01b9590941685029390931790819055614236938104600290810b93909104900b90613905906149be565b91505061429d565b61425361424b84866157cb565b846000614a64565b604081015160a2805492935090916000906142789084906001600160801b0316615eaa565b92506101000a8154816001600160801b0302191690836001600160801b031602179055505b609a54609d54609c5460405163c7505c1560e01b81526001600160a01b039093169263c7505c15926142e4929091600160a01b90910463ffffffff1690869060040161599a565b60408051808303816000875af1158015614302573d6000803e3d6000fd5b505050506040513d601f19601f820116820180604052508101906143269190615873565b505050505050565b600061435c614357600086126143445785614350565b61435086600019615c27565b858561437b565b614bcb565b90506000841215610a0a57613e4a81615930565b6000610a2582614bdd565b60008080600019858709858702925082811083820303915050806000036143b457600084116143a957600080fd5b508290049050610a0a565b8084116143c057600080fd5b6000848688096000868103871696879004966002600389028118808a02820302808a02820302808a02820302808a02820302808a02820302808a02909103029181900381900460010186841190950394909402919094039290920491909117919091029150509392505050565b806001600160a01b0381168114611fa65760405162461bcd60e51b8152600401610ae590615a53565b6040805160a0810182528381526001600160a01b0383811660208301908152600083850181815260016060860190815260808601838152609a54609d54609c5499516383d778eb60e01b81526004810191909152600160a01b90990463ffffffff1660248a0152875160448a015294518616606489015291511515608488015251151560a487015251151560c48601529384939291909116906383d778eb9060e40160408051808303816000875af1158015614516573d6000803e3d6000fd5b505050506040513d601f19601f8201168201806040525081019061453a9190615873565b90969095509350505050565b60a55460a3546040516bffffffffffffffffffffffff19606093841b81166020830152607d60ea1b60348301529190921b166037820152600090604b0160408051601f198184030181529082905260af5460a85460aa546330267db960e01b855292945073__$f09208ef53137b379b85ea4a8d399069d8$__936330267db9936145e6938893909288926001600160a01b03928316921690600401615ecc565b60006040518083038186803b1580156145fe57600080fd5b505af4158015614612573d6000803e3d6000fd5b50506065546040516370a0823160e01b8152306004820152610ab793506001600160a01b0390911691506370a0823190602401612626565b60af5460a95460a75460aa5460a35460a85460a55460405163e4a66f3f60e01b81526004810189905260248101979097526001600160a01b03958616604488015293851660648701529184166084860152831660a4850152821660c48401521660e482015260009073__$9842325bb1826b70c2ef476a1c714a02a7$__9063e4a66f3f9061010401610dc1565b60006147e8609c60009054906101000a90046001600160a01b03166001600160a01b031663313ce5676040518163ffffffff1660e01b8152600401602060405180830381865afa15801561472f573d6000803e3d6000fd5b505050506040513d601f19601f820116820180604052508101906147539190615cac565b61475e90600a615db3565b609b60009054906101000a90046001600160a01b03166001600160a01b031663313ce5676040518163ffffffff1660e01b8152600401602060405180830381865afa1580156147b1573d6000803e3d6000fd5b505050506040513d601f19601f820116820180604052508101906147d59190615cac565b6147e090600a615db3565b84919061432e565b905060006147f582614370565b905060008213156148e057609c546040516340c10f1960e01b8152306004820152602481018390526001600160a01b03909116906340c10f1990604401600060405180830381600087803b15801561484c57600080fd5b505af1158015614860573d6000803e3d6000fd5b5050609a54609d54609e54604051637d2efe0760e01b8152600481019290925263ffffffff166024820152604481018590526001600160a01b039091169250637d2efe079150606401600060405180830381600087803b1580156148c357600080fd5b505af11580156148d7573d6000803e3d6000fd5b50505050505050565b60008212156127ac57609a54609d54609e546001600160a01b0390921691637d2efe07919063ffffffff1661491485615930565b6040516001600160e01b031960e086901b168152600481019390935263ffffffff9190911660248301526044820152606401600060405180830381600087803b15801561496057600080fd5b505af1158015614974573d6000803e3d6000fd5b5050609c54604051630852cd8d60e31b8152600481018590526001600160a01b0390911692506342966c689150602401600060405180830381600087803b1580156148c357600080fd5b60006001607f1b826001600160801b0316106127d65760405162461bcd60e51b8152600401610ae590615a53565b6149f4614e87565b6040518061010001604052808560020b81526020018460020b815260200183600f0b815260200160006001600160a01b03168152602001600061ffff16815260200160001515815260200160006002811115614a5257614a52615962565b81526000602090910152949350505050565b614a6c614e87565b60a254600090614a9590614a909086908890612f95906001600160801b03166127b1565b614bf4565b90508215614aa957614aa681615e01565b90505b60a154614acc90600160a01b8104600290810b91600160b81b9004900b836149ec565b95945050505050565b6060613e4a8484600085614c18565b63ffffffff81166000908152606460205260408120610a25565b600081610a25565b600054610100900460ff16614b2d5760405162461bcd60e51b8152600401610ae5906158e5565b610f25614d49565b610ffb816000015182602001518360400151614d79565b600080836001600160a01b0316631e2eaeaf614b6c6001613dd287614ae4565b6040518263ffffffff1660e01b8152600401614b8a91815260200190565b602060405180830381865afa158015614ba7573d6000803e3d6000fd5b505050506040513d601f19601f82011682018060405250810190613e4a9190615715565b6000600160ff1b82106127d657600080fd5b60008082136127d657614bef82615930565b610a25565b80600f81900b8114611fa65760405162461bcd60e51b8152600401610ae590615a53565b606082471015614c795760405162461bcd60e51b815260206004820152602660248201527f416464726573733a20696e73756666696369656e742062616c616e636520666f6044820152651c8818d85b1b60d21b6064820152608401610ae5565b6001600160a01b0385163b614cd05760405162461bcd60e51b815260206004820152601d60248201527f416464726573733a2063616c6c20746f206e6f6e2d636f6e74726163740000006044820152606401610ae5565b600080866001600160a01b03168587604051614cec9190615c0b565b60006040518083038185875af1925050503d8060008114614d29576040519150601f19603f3d011682016040523d82523d6000602084013e614d2e565b606091505b5091509150614d3e828286614da7565b979650505050505050565b600054610100900460ff16614d705760405162461bcd60e51b8152600401610ae5906158e5565b610f2533612395565b614d838282614de0565b5050606580546001600160a01b0319166001600160a01b0392909216919091179055565b60608315614db6575081610a0a565b825115614dc65782518084602001fd5b8160405162461bcd60e51b8152600401610ae59190614fb4565b600054610100900460ff16614e075760405162461bcd60e51b8152600401610ae5906158e5565b610ab78282600054610100900460ff16614e335760405162461bcd60e51b8152600401610ae5906158e5565b8151614e46906036906020850190614ecc565b5080516127ac906037906020840190614ecc565b60405180604001604052806002905b614e71614e87565b815260200190600190039081614e695790505090565b6040805161010081018252600080825260208201819052918101829052606081018290526080810182905260a081018290529060c08201908152600060209091015290565b828054614ed89061575c565b90600052602060002090601f016020900481019282614efa5760008555614f40565b82601f10614f1357805160ff1916838001178555614f40565b82800160010185558215614f40579182015b82811115614f40578251825591602001919060010190614f25565b506127d69291505b808211156127d65760008155600101614f48565b60005b83811015614f77578181015183820152602001614f5f565b838111156112f35750506000910152565b60008151808452614fa0816020860160208601614f5c565b601f01601f19169290920160200192915050565b602081526000610a0a6020830184614f88565b600060208284031215614fd957600080fd5b5035919050565b6001600160a01b0381168114610ffb57600080fd5b8035611fa681614fe0565b6000806040838503121561501357600080fd5b823561501e81614fe0565b946020939093013593505050565b634e487b7160e01b600052604160045260246000fd5b608081018181106001600160401b03821117156150615761506161502c565b60405250565b601f8201601f191681016001600160401b038111828210171561508c5761508c61502c565b6040525050565b60405160e081016001600160401b03811182821017156150b5576150b561502c565b60405290565b60405161012081016001600160401b03811182821017156150b5576150b561502c565b600082601f8301126150ef57600080fd5b81356001600160401b038111156151085761510861502c565b60405161511f601f8301601f191660200182615067565b81815284602083860101111561513457600080fd5b816020850160208301376000918101602001919091529392505050565b60006060828403121561516357600080fd5b604051606081016001600160401b0382821081831117156151865761518661502c565b816040528293508435915061519a82614fe0565b908252602084013590808211156151b057600080fd5b6151bc868387016150de565b602084015260408501359150808211156151d557600080fd5b506151e2858286016150de565b6040830152505092915050565b803563ffffffff81168114611fa657600080fd5b803561ffff81168114611fa657600080fd5b80356001600160401b0381168114611fa657600080fd5b60006080828403121561523e57600080fd5b60405161524a81615042565b80915082356001600160401b038082111561526457600080fd5b9084019060e0828703121561527857600080fd5b615280615093565b82358281111561528f57600080fd5b61529b88828601615151565b8252506152aa602084016151ef565b60208201526152bb60408401614ff5565b60408201526152cc60608401614ff5565b60608201526152dd60808401614ff5565b60808201526152ee60a08401614ff5565b60a08201526152ff60c08401614ff5565b60c0820152835250615315905060208401615203565b602082015261532660408401615203565b604082015261533760608401615215565b60608201525092915050565b60006020828403121561535557600080fd5b81356001600160401b038082111561536c57600080fd5b90830190610120828603121561538157600080fd5b6153896150bb565b82358281111561539857600080fd5b6153a48782860161522c565b8252506153b360208401614ff5565b60208201526153c460408401614ff5565b60408201526153d560608401614ff5565b60608201526153e660808401614ff5565b60808201526153f760a08401614ff5565b60a082015261540860c08401614ff5565b60c082015261541960e08401614ff5565b60e0820152610100915061542e828401614ff5565b91810191909152949350505050565b60006020828403121561544f57600080fd5b8135610a0a81614fe0565b60008060006060848603121561546f57600080fd5b833561547a81614fe0565b9250602084013561548a81614fe0565b929592945050506040919091013590565b600080600080608085870312156154b157600080fd5b8435935060208501356154c381614fe0565b92506154d1604086016151ef565b91506154df60608601615203565b905092959194509250565b600080604083850312156154fd57600080fd5b82359150602083013561550f81614fe0565b809150509250929050565b60008060008060008060c0878903121561553357600080fd5b86359550602087013594506040870135935060608701359250608087013561555a81614fe0565b915060a087013561556a81614fe0565b809150509295509295509295565b60008060006060848603121561558d57600080fd5b83359250602084013561559f81614fe0565b915060408401356155af81614fe0565b809150509250925092565b600060208083850312156155cd57600080fd5b82356001600160401b03808211156155e457600080fd5b818501915085601f8301126155f857600080fd5b81358181111561560a5761560a61502c565b8060051b915060405161561f85840182615067565b8181529183018401918481018884111561563857600080fd5b938501935b83851015615654578435815293850193850161563d565b50979650505050505050565b6020808252825182820181905260009190848201906040850190845b818110156156985783518352928401929184019160010161567c565b50909695505050505050565b600080604083850312156156b757600080fd5b82356156c281614fe0565b9150602083013561550f81614fe0565b6000806000606084860312156156e757600080fd5b6156f084615203565b92506156fe60208501615203565b915061570c60408501615215565b90509250925092565b60006020828403121561572757600080fd5b5051919050565b634e487b7160e01b600052601160045260246000fd5b600082198211156157575761575761572e565b500190565b600181811c9082168061577057607f821691505b60208210810361579057634e487b7160e01b600052602260045260246000fd5b50919050565b6020808252818101527f4f776e61626c653a2063616c6c6572206973206e6f7420746865206f776e6572604082015260600190565b6000828210156157dd576157dd61572e565b500390565b6000602082840312156157f457600080fd5b81518015158114610a0a57600080fd5b60008060006060848603121561581957600080fd5b8351925060208401519150604084015190509250925092565b600080821280156001600160ff1b03849003851316156158545761585461572e565b600160ff1b839003841281161561586d5761586d61572e565b50500190565b6000806040838503121561588657600080fd5b505080516020909101519092909150565b6020808252602e908201527f496e697469616c697a61626c653a20636f6e747261637420697320616c72656160408201526d191e481a5b9a5d1a585b1a5e995960921b606082015260800190565b6020808252602b908201527f496e697469616c697a61626c653a20636f6e7472616374206973206e6f74206960408201526a6e697469616c697a696e6760a81b606082015260800190565b6000600160ff1b82016159455761594561572e565b5060000390565b634e487b7160e01b600052603260045260246000fd5b634e487b7160e01b600052602160045260246000fd5b6003811061599657634e487b7160e01b600052602160045260246000fd5b9052565b60006101408201905084825263ffffffff84166020830152825160020b6040830152602083015160020b60608301526040830151600f0b608083015260608301516159f060a08401826001600160a01b03169052565b50608083015161ffff1660c08381019190915260a0840151151560e0840152830151615a20610100840182615978565b5060e0830151801515610120840152610d6e565b600060ff821660ff8103615a4a57615a4a61572e565b60010192915050565b6020808252600890820152674f766572666c6f7760c01b604082015260600190565b600060208284031215615a8757600080fd5b8151610a0a81614fe0565b600061ffff808316818516808303821115615aaf57615aaf61572e565b01949350505050565b600061ffff83811690831681811015615ad357615ad361572e565b039392505050565b6000816000190483118215151615615af557615af561572e565b500290565b600082615b1757634e487b7160e01b600052601260045260246000fd5b500490565b86815285602082015260006001600160a01b03808716604084015260c06060840152615b4b60c0840187614f88565b94811660808401529290921660a09091015250949350505050565b600060033d1115615b7f5760046000803e5060005160e01c5b90565b600060443d1015615b905790565b6040516003193d81016004833e81513d6001600160401b038160248401118184111715615bbf57505050505090565b8285019150815181811115615bd75750505050505090565b843d8701016020828501011115615bf15750505050505090565b615c0060208286010187615067565b509095945050505050565b60008251615c1d818460208701614f5c565b9190910192915050565b60006001600160ff1b0381841382841380821686840486111615615c4d57615c4d61572e565b600160ff1b6000871282811687830589121615615c6c57615c6c61572e565b60008712925087820587128484161615615c8857615c8861572e565b87850587128184161615615c9e57615c9e61572e565b505050929093029392505050565b600060208284031215615cbe57600080fd5b815160ff81168114610a0a57600080fd5b600181815b80851115615d0a578160001904821115615cf057615cf061572e565b80851615615cfd57918102915b93841c9390800290615cd4565b509250929050565b600082615d2157506001610a25565b81615d2e57506000610a25565b8160018114615d445760028114615d4e57615d6a565b6001915050610a25565b60ff841115615d5f57615d5f61572e565b50506001821b610a25565b5060208310610133831016604e8410600b8410161715615d8d575081810a610a25565b615d978383615ccf565b8060001904821115615dab57615dab61572e565b029392505050565b6000610a0a60ff841683615d12565b60008083128015600160ff1b850184121615615de057615de061572e565b6001600160ff1b0384018313811615615dfb57615dfb61572e565b50500390565b600081600f0b6f7fffffffffffffffffffffffffffffff198103615e2757615e2761572e565b60000392915050565b8051600281900b8114611fa657600080fd5b600080600060608486031215615e5757600080fd5b615e6084615e30565b9250615e6e60208501615e30565b915060408401516001600160801b03811681146155af57600080fd5b60006001600160801b0383811690831681811015615ad357615ad361572e565b60006001600160801b03808316818516808303821115615aaf57615aaf61572e565b85815284602082015260a060408201526000615eeb60a0830186614f88565b6001600160a01b0394851660608401529290931660809091015294935050505056fea164736f6c634300080e000a",
  "libraries": {
    "SwapManager": "0x91F1299F15A7a1f2f033798756274006C58a3e2B",
    "Logic": "0xB8Cb70aa127AA5322285e5A826874239C616ED37"
  },
  "userdoc": {
    "kind": "user",
    "methods": {
      "closeTokenPosition()": {
        "notice": "closes remaining token position (To be used when reset condition is hit)"
      },
      "extsload(bytes32)": {
        "notice": "Returns a value from the storage."
      },
      "extsload(bytes32[])": {
        "notice": "Returns multiple values from storage."
      },
      "getMarketValue(uint256)": {
        "notice": "compute notional value for given amount of LP tokens"
      },
      "getPriceX128()": {
        "notice": "gives x128 price of 1 tricrypto LP token"
      },
      "getVaultMarketValue()": {
        "notice": "Returns account market value of vault in USDC (settlement token)"
      },
      "grantAllowances()": {
        "notice": "grants one time max allowance to various third parties"
      },
      "migrate()": {
        "notice": "migrates funds from curvefi's old gauge to new gauge"
      },
      "rebalance()": {
        "notice": "Rebalance the vault assets"
      },
      "totalAssets()": {
        "notice": "returns the total vault asset balance + staked balance"
      },
      "withdrawFees(address)": {
        "notice": "withdraw accumulated CRV fees"
      }
    },
    "version": 1
  },
  "storageLayout": {
    "storage": [
      {
        "astId": 217,
        "contract": "contracts/yieldStrategy/CurveYieldStrategy.sol:CurveYieldStrategy",
        "label": "_initialized",
        "offset": 0,
        "slot": "0",
        "type": "t_uint8"
      },
      {
        "astId": 220,
        "contract": "contracts/yieldStrategy/CurveYieldStrategy.sol:CurveYieldStrategy",
        "label": "_initializing",
        "offset": 1,
        "slot": "0",
        "type": "t_bool"
      },
      {
        "astId": 1461,
        "contract": "contracts/yieldStrategy/CurveYieldStrategy.sol:CurveYieldStrategy",
        "label": "__gap",
        "offset": 0,
        "slot": "1",
        "type": "t_array(t_uint256)50_storage"
      },
      {
        "astId": 482,
        "contract": "contracts/yieldStrategy/CurveYieldStrategy.sol:CurveYieldStrategy",
        "label": "_balances",
        "offset": 0,
        "slot": "51",
        "type": "t_mapping(t_address,t_uint256)"
      },
      {
        "astId": 488,
        "contract": "contracts/yieldStrategy/CurveYieldStrategy.sol:CurveYieldStrategy",
        "label": "_allowances",
        "offset": 0,
        "slot": "52",
        "type": "t_mapping(t_address,t_mapping(t_address,t_uint256))"
      },
      {
        "astId": 490,
        "contract": "contracts/yieldStrategy/CurveYieldStrategy.sol:CurveYieldStrategy",
        "label": "_totalSupply",
        "offset": 0,
        "slot": "53",
        "type": "t_uint256"
      },
      {
        "astId": 492,
        "contract": "contracts/yieldStrategy/CurveYieldStrategy.sol:CurveYieldStrategy",
        "label": "_name",
        "offset": 0,
        "slot": "54",
        "type": "t_string_storage"
      },
      {
        "astId": 494,
        "contract": "contracts/yieldStrategy/CurveYieldStrategy.sol:CurveYieldStrategy",
        "label": "_symbol",
        "offset": 0,
        "slot": "55",
        "type": "t_string_storage"
      },
      {
        "astId": 1073,
        "contract": "contracts/yieldStrategy/CurveYieldStrategy.sol:CurveYieldStrategy",
        "label": "__gap",
        "offset": 0,
        "slot": "56",
        "type": "t_array(t_uint256)45_storage"
      },
      {
        "astId": 35004,
        "contract": "contracts/yieldStrategy/CurveYieldStrategy.sol:CurveYieldStrategy",
        "label": "asset",
        "offset": 0,
        "slot": "101",
        "type": "t_contract(IERC20Metadata)3718"
      },
      {
        "astId": 97,
        "contract": "contracts/yieldStrategy/CurveYieldStrategy.sol:CurveYieldStrategy",
        "label": "_owner",
        "offset": 0,
        "slot": "102",
        "type": "t_address"
      },
      {
        "astId": 209,
        "contract": "contracts/yieldStrategy/CurveYieldStrategy.sol:CurveYieldStrategy",
        "label": "__gap",
        "offset": 0,
        "slot": "103",
        "type": "t_array(t_uint256)49_storage"
      },
      {
        "astId": 29283,
        "contract": "contracts/yieldStrategy/CurveYieldStrategy.sol:CurveYieldStrategy",
        "label": "lens",
        "offset": 0,
        "slot": "152",
        "type": "t_contract(ClearingHouseLens)8546"
      },
      {
        "astId": 29286,
        "contract": "contracts/yieldStrategy/CurveYieldStrategy.sol:CurveYieldStrategy",
        "label": "swapSimulator",
        "offset": 0,
        "slot": "153",
        "type": "t_contract(ISwapSimulator)30850"
      },
      {
        "astId": 29289,
        "contract": "contracts/yieldStrategy/CurveYieldStrategy.sol:CurveYieldStrategy",
        "label": "rageClearingHouse",
        "offset": 0,
        "slot": "154",
        "type": "t_contract(IClearingHouse)7317"
      },
      {
        "astId": 29292,
        "contract": "contracts/yieldStrategy/CurveYieldStrategy.sol:CurveYieldStrategy",
        "label": "rageSettlementToken",
        "offset": 0,
        "slot": "155",
        "type": "t_contract(IERC20Metadata)3718"
      },
      {
        "astId": 29295,
        "contract": "contracts/yieldStrategy/CurveYieldStrategy.sol:CurveYieldStrategy",
        "label": "rageCollateralToken",
        "offset": 0,
        "slot": "156",
        "type": "t_contract(ERC20PresetMinterPauser)3854"
      },
      {
        "astId": 29297,
        "contract": "contracts/yieldStrategy/CurveYieldStrategy.sol:CurveYieldStrategy",
        "label": "ethPoolId",
        "offset": 20,
        "slot": "156",
        "type": "t_uint32"
      },
      {
        "astId": 29299,
        "contract": "contracts/yieldStrategy/CurveYieldStrategy.sol:CurveYieldStrategy",
        "label": "rageAccountNo",
        "offset": 0,
        "slot": "157",
        "type": "t_uint256"
      },
      {
        "astId": 29301,
        "contract": "contracts/yieldStrategy/CurveYieldStrategy.sol:CurveYieldStrategy",
        "label": "collateralId",
        "offset": 0,
        "slot": "158",
        "type": "t_uint32"
      },
      {
        "astId": 29304,
        "contract": "contracts/yieldStrategy/CurveYieldStrategy.sol:CurveYieldStrategy",
        "label": "rageVPool",
        "offset": 4,
        "slot": "158",
        "type": "t_contract(IUniswapV3Pool)25808"
      },
      {
        "astId": 29306,
        "contract": "contracts/yieldStrategy/CurveYieldStrategy.sol:CurveYieldStrategy",
        "label": "depositCap",
        "offset": 0,
        "slot": "159",
        "type": "t_uint256"
      },
      {
        "astId": 29308,
        "contract": "contracts/yieldStrategy/CurveYieldStrategy.sol:CurveYieldStrategy",
        "label": "lastRebalanceTS",
        "offset": 0,
        "slot": "160",
        "type": "t_uint64"
      },
      {
        "astId": 29310,
        "contract": "contracts/yieldStrategy/CurveYieldStrategy.sol:CurveYieldStrategy",
        "label": "rebalancePriceThresholdBps",
        "offset": 8,
        "slot": "160",
        "type": "t_uint16"
      },
      {
        "astId": 29312,
        "contract": "contracts/yieldStrategy/CurveYieldStrategy.sol:CurveYieldStrategy",
        "label": "rebalanceTimeThreshold",
        "offset": 10,
        "slot": "160",
        "type": "t_uint32"
      },
      {
        "astId": 29314,
        "contract": "contracts/yieldStrategy/CurveYieldStrategy.sol:CurveYieldStrategy",
        "label": "keeper",
        "offset": 0,
        "slot": "161",
        "type": "t_address"
      },
      {
        "astId": 32416,
        "contract": "contracts/yieldStrategy/CurveYieldStrategy.sol:CurveYieldStrategy",
        "label": "baseTickLower",
        "offset": 20,
        "slot": "161",
        "type": "t_int24"
      },
      {
        "astId": 32418,
        "contract": "contracts/yieldStrategy/CurveYieldStrategy.sol:CurveYieldStrategy",
        "label": "baseTickUpper",
        "offset": 23,
        "slot": "161",
        "type": "t_int24"
      },
      {
        "astId": 32420,
        "contract": "contracts/yieldStrategy/CurveYieldStrategy.sol:CurveYieldStrategy",
        "label": "baseLiquidity",
        "offset": 0,
        "slot": "162",
        "type": "t_uint128"
      },
      {
        "astId": 32422,
        "contract": "contracts/yieldStrategy/CurveYieldStrategy.sol:CurveYieldStrategy",
        "label": "isReset",
        "offset": 16,
        "slot": "162",
        "type": "t_bool"
      },
      {
        "astId": 32424,
        "contract": "contracts/yieldStrategy/CurveYieldStrategy.sol:CurveYieldStrategy",
        "label": "closePositionSlippageSqrtToleranceBps",
        "offset": 17,
        "slot": "162",
        "type": "t_uint16"
      },
      {
        "astId": 32426,
        "contract": "contracts/yieldStrategy/CurveYieldStrategy.sol:CurveYieldStrategy",
        "label": "resetPositionThresholdBps",
        "offset": 19,
        "slot": "162",
        "type": "t_uint16"
      },
      {
        "astId": 32428,
        "contract": "contracts/yieldStrategy/CurveYieldStrategy.sol:CurveYieldStrategy",
        "label": "minNotionalPositionToCloseThreshold",
        "offset": 21,
        "slot": "162",
        "type": "t_uint64"
      },
      {
        "astId": 35526,
        "contract": "contracts/yieldStrategy/CurveYieldStrategy.sol:CurveYieldStrategy",
        "label": "usdt",
        "offset": 0,
        "slot": "163",
        "type": "t_contract(IERC20)3612"
      },
      {
        "astId": 35529,
        "contract": "contracts/yieldStrategy/CurveYieldStrategy.sol:CurveYieldStrategy",
        "label": "weth",
        "offset": 0,
        "slot": "164",
        "type": "t_contract(IERC20)3612"
      },
      {
        "astId": 35532,
        "contract": "contracts/yieldStrategy/CurveYieldStrategy.sol:CurveYieldStrategy",
        "label": "usdc",
        "offset": 0,
        "slot": "165",
        "type": "t_contract(IERC20)3612"
      },
      {
        "astId": 35535,
        "contract": "contracts/yieldStrategy/CurveYieldStrategy.sol:CurveYieldStrategy",
        "label": "crvToken",
        "offset": 0,
        "slot": "166",
        "type": "t_contract(IERC20)3612"
      },
      {
        "astId": 35538,
        "contract": "contracts/yieldStrategy/CurveYieldStrategy.sol:CurveYieldStrategy",
        "label": "gauge",
        "offset": 0,
        "slot": "167",
        "type": "t_contract(ICurveGauge)30941"
      },
      {
        "astId": 35541,
        "contract": "contracts/yieldStrategy/CurveYieldStrategy.sol:CurveYieldStrategy",
        "label": "uniV3Router",
        "offset": 0,
        "slot": "168",
        "type": "t_contract(ISwapRouter)29213"
      },
      {
        "astId": 35544,
        "contract": "contracts/yieldStrategy/CurveYieldStrategy.sol:CurveYieldStrategy",
        "label": "lpPriceHolder",
        "offset": 0,
        "slot": "169",
        "type": "t_contract(ILPPriceGetter)31061"
      },
      {
        "astId": 35547,
        "contract": "contracts/yieldStrategy/CurveYieldStrategy.sol:CurveYieldStrategy",
        "label": "triCryptoPool",
        "offset": 0,
        "slot": "170",
        "type": "t_contract(ICurveStableSwap)31038"
      },
      {
        "astId": 35550,
        "contract": "contracts/yieldStrategy/CurveYieldStrategy.sol:CurveYieldStrategy",
        "label": "crvOracle",
        "offset": 0,
        "slot": "171",
        "type": "t_contract(AggregatorV3Interface)45"
      },
      {
        "astId": 35552,
        "contract": "contracts/yieldStrategy/CurveYieldStrategy.sol:CurveYieldStrategy",
        "label": "crvPendingToSwap",
        "offset": 0,
        "slot": "172",
        "type": "t_uint256"
      },
      {
        "astId": 35554,
        "contract": "contracts/yieldStrategy/CurveYieldStrategy.sol:CurveYieldStrategy",
        "label": "crvHarvestThreshold",
        "offset": 0,
        "slot": "173",
        "type": "t_uint256"
      },
      {
        "astId": 35556,
        "contract": "contracts/yieldStrategy/CurveYieldStrategy.sol:CurveYieldStrategy",
        "label": "crvSwapSlippageTolerance",
        "offset": 0,
        "slot": "174",
        "type": "t_uint256"
      },
      {
        "astId": 35558,
        "contract": "contracts/yieldStrategy/CurveYieldStrategy.sol:CurveYieldStrategy",
        "label": "stablecoinSlippageTolerance",
        "offset": 0,
        "slot": "175",
        "type": "t_uint256"
      },
      {
        "astId": 35564,
        "contract": "contracts/yieldStrategy/CurveYieldStrategy.sol:CurveYieldStrategy",
        "label": "FEE",
        "offset": 0,
        "slot": "176",
        "type": "t_uint256"
      }
    ],
    "types": {
      "t_address": {
        "encoding": "inplace",
        "label": "address",
        "numberOfBytes": "20"
      },
      "t_array(t_uint256)45_storage": {
        "base": "t_uint256",
        "encoding": "inplace",
        "label": "uint256[45]",
        "numberOfBytes": "1440"
      },
      "t_array(t_uint256)49_storage": {
        "base": "t_uint256",
        "encoding": "inplace",
        "label": "uint256[49]",
        "numberOfBytes": "1568"
      },
      "t_array(t_uint256)50_storage": {
        "base": "t_uint256",
        "encoding": "inplace",
        "label": "uint256[50]",
        "numberOfBytes": "1600"
      },
      "t_bool": {
        "encoding": "inplace",
        "label": "bool",
        "numberOfBytes": "1"
      },
      "t_contract(AggregatorV3Interface)45": {
        "encoding": "inplace",
        "label": "contract AggregatorV3Interface",
        "numberOfBytes": "20"
      },
      "t_contract(ClearingHouseLens)8546": {
        "encoding": "inplace",
        "label": "contract ClearingHouseLens",
        "numberOfBytes": "20"
      },
      "t_contract(ERC20PresetMinterPauser)3854": {
        "encoding": "inplace",
        "label": "contract ERC20PresetMinterPauser",
        "numberOfBytes": "20"
      },
      "t_contract(IClearingHouse)7317": {
        "encoding": "inplace",
        "label": "contract IClearingHouse",
        "numberOfBytes": "20"
      },
      "t_contract(ICurveGauge)30941": {
        "encoding": "inplace",
        "label": "contract ICurveGauge",
        "numberOfBytes": "20"
      },
      "t_contract(ICurveStableSwap)31038": {
        "encoding": "inplace",
        "label": "contract ICurveStableSwap",
        "numberOfBytes": "20"
      },
      "t_contract(IERC20)3612": {
        "encoding": "inplace",
        "label": "contract IERC20",
        "numberOfBytes": "20"
      },
      "t_contract(IERC20Metadata)3718": {
        "encoding": "inplace",
        "label": "contract IERC20Metadata",
        "numberOfBytes": "20"
      },
      "t_contract(ILPPriceGetter)31061": {
        "encoding": "inplace",
        "label": "contract ILPPriceGetter",
        "numberOfBytes": "20"
      },
      "t_contract(ISwapRouter)29213": {
        "encoding": "inplace",
        "label": "contract ISwapRouter",
        "numberOfBytes": "20"
      },
      "t_contract(ISwapSimulator)30850": {
        "encoding": "inplace",
        "label": "contract ISwapSimulator",
        "numberOfBytes": "20"
      },
      "t_contract(IUniswapV3Pool)25808": {
        "encoding": "inplace",
        "label": "contract IUniswapV3Pool",
        "numberOfBytes": "20"
      },
      "t_int24": {
        "encoding": "inplace",
        "label": "int24",
        "numberOfBytes": "3"
      },
      "t_mapping(t_address,t_mapping(t_address,t_uint256))": {
        "encoding": "mapping",
        "key": "t_address",
        "label": "mapping(address => mapping(address => uint256))",
        "numberOfBytes": "32",
        "value": "t_mapping(t_address,t_uint256)"
      },
      "t_mapping(t_address,t_uint256)": {
        "encoding": "mapping",
        "key": "t_address",
        "label": "mapping(address => uint256)",
        "numberOfBytes": "32",
        "value": "t_uint256"
      },
      "t_string_storage": {
        "encoding": "bytes",
        "label": "string",
        "numberOfBytes": "32"
      },
      "t_uint128": {
        "encoding": "inplace",
        "label": "uint128",
        "numberOfBytes": "16"
      },
      "t_uint16": {
        "encoding": "inplace",
        "label": "uint16",
        "numberOfBytes": "2"
      },
      "t_uint256": {
        "encoding": "inplace",
        "label": "uint256",
        "numberOfBytes": "32"
      },
      "t_uint32": {
        "encoding": "inplace",
        "label": "uint32",
        "numberOfBytes": "4"
      },
      "t_uint64": {
        "encoding": "inplace",
        "label": "uint64",
        "numberOfBytes": "8"
      },
      "t_uint8": {
        "encoding": "inplace",
        "label": "uint8",
        "numberOfBytes": "1"
      }
    }
  }
}