{
  "address": "0x809053fa7EF9dB861a980c02eE57b33744E4cA13",
  "abi": [
    {
      "inputs": [
        {
          "internalType": "address",
          "name": "_lpToken",
          "type": "address"
        },
        {
          "internalType": "address[3]",
          "name": "_tokens",
          "type": "address[3]"
        },
        {
          "internalType": "address[3]",
          "name": "_oracles",
          "type": "address[3]"
        }
      ],
      "stateMutability": "nonpayable",
      "type": "constructor"
    },
    {
      "inputs": [],
      "name": "NEGATIVE_PRICE",
      "type": "error"
    },
    {
      "inputs": [
        {
          "internalType": "uint256[3]",
          "name": "amounts",
          "type": "uint256[3]"
        },
        {
          "internalType": "uint256",
          "name": "",
          "type": "uint256"
        }
      ],
      "name": "add_liquidity",
      "outputs": [],
      "stateMutability": "nonpayable",
      "type": "function"
    },
    {
      "inputs": [
        {
          "internalType": "uint256",
          "name": "",
          "type": "uint256"
        }
      ],
      "name": "decimals",
      "outputs": [
        {
          "internalType": "uint256",
          "name": "",
          "type": "uint256"
        }
      ],
      "stateMutability": "view",
      "type": "function"
    },
    {
      "inputs": [
        {
          "internalType": "int128",
          "name": "from",
          "type": "int128"
        },
        {
          "internalType": "int128",
          "name": "to",
          "type": "int128"
        },
        {
          "internalType": "uint256",
          "name": "_from_amount",
          "type": "uint256"
        },
        {
          "internalType": "uint256",
          "name": "",
          "type": "uint256"
        }
      ],
      "name": "exchange",
      "outputs": [],
      "stateMutability": "nonpayable",
      "type": "function"
    },
    {
      "inputs": [],
      "name": "lpToken",
      "outputs": [
        {
          "internalType": "address",
          "name": "",
          "type": "address"
        }
      ],
      "stateMutability": "view",
      "type": "function"
    },
    {
      "inputs": [],
      "name": "lp_price",
      "outputs": [
        {
          "internalType": "uint256",
          "name": "",
          "type": "uint256"
        }
      ],
      "stateMutability": "view",
      "type": "function"
    },
    {
      "inputs": [
        {
          "internalType": "uint256",
          "name": "",
          "type": "uint256"
        }
      ],
      "name": "oracles",
      "outputs": [
        {
          "internalType": "address",
          "name": "",
          "type": "address"
        }
      ],
      "stateMutability": "view",
      "type": "function"
    },
    {
      "inputs": [
        {
          "internalType": "uint256",
          "name": "",
          "type": "uint256"
        }
      ],
      "name": "quantities",
      "outputs": [
        {
          "internalType": "uint256",
          "name": "",
          "type": "uint256"
        }
      ],
      "stateMutability": "view",
      "type": "function"
    },
    {
      "inputs": [
        {
          "internalType": "uint256",
          "name": "token_amount",
          "type": "uint256"
        },
        {
          "internalType": "uint256",
          "name": "index",
          "type": "uint256"
        },
        {
          "internalType": "uint256",
          "name": "",
          "type": "uint256"
        }
      ],
      "name": "remove_liquidity_one_coin",
      "outputs": [],
      "stateMutability": "nonpayable",
      "type": "function"
    },
    {
      "inputs": [
        {
          "internalType": "uint256",
          "name": "",
          "type": "uint256"
        }
      ],
      "name": "tokens",
      "outputs": [
        {
          "internalType": "address",
          "name": "",
          "type": "address"
        }
      ],
      "stateMutability": "view",
      "type": "function"
    }
  ],
  "transactionHash": "0x3eada2ed4ae6e7f73c09edadd0fdcd6af203a84a0580d7f2725551a8941884c6",
  "args": [
    "0x881D869e58a359f46c6075D09c2ef3D134ba561B",
    [
      "0x348Aa16C0537ad3458bbc6aAe989c13b7a7bd707",
      "0x51E87926b1549a287803821F4Ef3bdFC37AE3885",
      "0x71c214B1232E881613f7E9fA36f4ddaA50f33e23"
    ],
    [
      "0xb1Ac85E779d05C2901812d812210F6dE144b2df0",
      "0x0c9973e7a27d00e656B9f153348dA46CaD70d03d",
      "0x5f0423B1a6935dc5596e7A24d98532b67A0AeFd8"
    ]
  ],
  "numDeployments": 1,
  "solcInputHash": "31ddf44bfb5126624902c4ada7d2b7a7",
  "bytecode": "0x60806040523480156200001157600080fd5b5060405162000fca38038062000fca8339810160408190526200003491620001fa565b620000436000836003620000aa565b506200005260038281620000aa565b5060408051606081018252600680825260086020830152601292820192909252620000809190600362000107565b5050600c80546001600160a01b0319166001600160a01b0393909316929092179091555062000246565b8260038101928215620000f5579160200282015b82811115620000f557825182546001600160a01b0319166001600160a01b03909116178255602090920191600190910190620000be565b50620001039291506200013d565b5090565b8260038101928215620000f5579160200282015b82811115620000f5578251829060ff169055916020019190600101906200011b565b5b808211156200010357600081556001016200013e565b80516001600160a01b03811681146200016c57600080fd5b919050565b600082601f8301126200018357600080fd5b604051606081016001600160401b0381118282101715620001b457634e487b7160e01b600052604160045260246000fd5b604052806060840185811115620001ca57600080fd5b845b81811015620001ef57620001e08162000154565b835260209283019201620001cc565b509195945050505050565b600080600060e084860312156200021057600080fd5b6200021b8462000154565b92506200022c856020860162000171565b91506200023d856080860162000171565b90509250925092565b610d7480620002566000396000f3fe608060405234801561001057600080fd5b50600436106100935760003560e01c806354f0f7d51161006657806354f0f7d5146101115780635b69a7d8146101195780635fcbd2851461012c578063a41254031461013f578063f1dc3cc91461015257600080fd5b80633df02124146100985780633f47e662146100ad5780634515cef3146100d35780634f64b2be146100e6575b600080fd5b6100ab6100a6366004610b4c565b610165565b005b6100c06100bb366004610b8e565b61041c565b6040519081526020015b60405180910390f35b6100ab6100e1366004610ba7565b610433565b6100f96100f4366004610b8e565b6106d9565b6040516001600160a01b0390911681526020016100ca565b6100c06106f9565b6100f9610127366004610b8e565b610881565b600c546100f9906001600160a01b031681565b6100c061014d366004610b8e565b610891565b6100ab610160366004610bd5565b6108a1565b6fffffffffffffffffffffffffffffffff808516908416600080836003811061019057610190610c01565b0160009054906101000a90046001600160a01b03166001600160a01b031663313ce5676040518163ffffffff1660e01b8152600401602060405180830381865afa1580156101e2573d6000803e3d6000fd5b505050506040513d601f19601f820116820180604052508101906102069190610c17565b9050600080836003811061021c5761021c610c01565b0160009054906101000a90046001600160a01b03166001600160a01b031663313ce5676040518163ffffffff1660e01b8152600401602060405180830381865afa15801561026e573d6000803e3d6000fd5b505050506040513d601f19601f820116820180604052508101906102929190610c17565b9050600084600381106102a7576102a7610c01565b01546040516323b872dd60e01b8152336004820152306024820152604481018890526001600160a01b03909116906323b872dd906064016020604051808303816000875af11580156102fd573d6000803e3d6000fd5b505050506040513d601f19601f820116820180604052508101906103219190610c3a565b5060006103878260ff166103516000886003811061034157610341610c01565b01546001600160a01b03166109ef565b61035b9190610c72565b8460ff166103756000886003811061034157610341610c01565b61037f9190610c72565b899190610a82565b90506000846003811061039c5761039c610c01565b015460405163a9059cbb60e01b8152336004820152602481018390526001600160a01b039091169063a9059cbb906044016020604051808303816000875af11580156103ec573d6000803e3d6000fd5b505050506040513d601f19601f820116820180604052508101906104109190610c3a565b50505050505050505050565b6006816003811061042c57600080fd5b0154905081565b60036000805b8281101561065557600085826003811061045557610455610c01565b60200201351115610645576000816003811061047357610473610c01565b01546001600160a01b03166323b872dd333088856003811061049757610497610c01565b6040516001600160e01b031960e087901b1681526001600160a01b039485166004820152939092166024840152602091909102013560448201526064016020604051808303816000875af11580156104f3573d6000803e3d6000fd5b505050506040513d601f19601f820116820180604052508101906105179190610c3a565b5084816003811061052a5761052a610c01565b60200201356009826003811061054257610542610c01565b0160008282546105529190610c91565b909155506000905080826003811061056c5761056c610c01565b0160009054906101000a90046001600160a01b03166001600160a01b031663313ce5676040518163ffffffff1660e01b8152600401602060405180830381865afa1580156105be573d6000803e3d6000fd5b505050506040513d601f19601f820116820180604052508101906105e29190610c17565b60ff168683600381106105f7576105f7610c01565b60200201356106126003856003811061034157610341610c01565b610621906402540be400610c72565b61062b9190610c72565b6106359190610ca9565b90506106418184610c91565b9250505b61064e81610ccb565b9050610439565b50600061066d60016106656106f9565b849190610a82565b600c546040516340c10f1960e01b8152336004820152602481018390529192506001600160a01b0316906340c10f1990604401600060405180830381600087803b1580156106ba57600080fd5b505af11580156106ce573d6000803e3d6000fd5b505050505050505050565b600081600381106106e957600080fd5b01546001600160a01b0316905081565b600080600c60009054906101000a90046001600160a01b03166001600160a01b03166318160ddd6040518163ffffffff1660e01b8152600401602060405180830381865afa15801561074f573d6000803e3d6000fd5b505050506040513d601f19601f820116820180604052508101906107739190610ce4565b90508015610872576000620f4240600982015461079260036000610341565b6107a1906402540be400610c72565b6107ab9190610c72565b6107b59190610ca9565b905060006305f5e1006009600101546107d060036001610341565b6107df906402540be400610c72565b6107e99190610c72565b6107f39190610ca9565b90506000670de0b6b3a764000060096002015461081260036002610341565b610821906402540be400610c72565b61082b9190610c72565b6108359190610ca9565b905083816108438486610c91565b61084d9190610c91565b61085f90670de0b6b3a7640000610c72565b6108699190610ca9565b94505050505090565b670de0b6b3a764000091505090565b600381600381106106e957600080fd5b6009816003811061042c57600080fd5b600c5460405163079cc67960e41b8152336004820152602481018590526001600160a01b03909116906379cc679090604401600060405180830381600087803b1580156108ed57600080fd5b505af1158015610901573d6000803e3d6000fd5b505050506000670de0b6b3a76400006109186106f9565b6109229086610c72565b61092c9190610ca9565b905060006109466003856003811061034157610341610c01565b610954836305f5e100610c72565b61095e9190610ca9565b90506000846003811061097357610973610c01565b015460405163a9059cbb60e01b8152336004820152602481018390526001600160a01b039091169063a9059cbb906044016020604051808303816000875af11580156109c3573d6000803e3d6000fd5b505050506040513d601f19601f820116820180604052508101906109e79190610c3a565b505050505050565b600080826001600160a01b031663feaf968c6040518163ffffffff1660e01b815260040160a060405180830381865afa158015610a30573d6000803e3d6000fd5b505050506040513d601f19601f82011682018060405250810190610a549190610d17565b5050509150506000811215610a7c5760405163b6cc0ca160e01b815260040160405180910390fd5b92915050565b6000808060001985870985870292508281108382030391505080600003610abb5760008411610ab057600080fd5b508290049050610b2e565b808411610ac757600080fd5b6000848688096000868103871696879004966002600389028118808a02820302808a02820302808a02820302808a02820302808a02820302808a02909103029181900381900460010186841190950394909402919094039290920491909117919091029150505b9392505050565b8035600f81900b8114610b4757600080fd5b919050565b60008060008060808587031215610b6257600080fd5b610b6b85610b35565b9350610b7960208601610b35565b93969395505050506040820135916060013590565b600060208284031215610ba057600080fd5b5035919050565b60008060808385031215610bba57600080fd5b6060830184811115610bcb57600080fd5b9294923593505050565b600080600060608486031215610bea57600080fd5b505081359360208301359350604090920135919050565b634e487b7160e01b600052603260045260246000fd5b600060208284031215610c2957600080fd5b815160ff81168114610b2e57600080fd5b600060208284031215610c4c57600080fd5b81518015158114610b2e57600080fd5b634e487b7160e01b600052601160045260246000fd5b6000816000190483118215151615610c8c57610c8c610c5c565b500290565b60008219821115610ca457610ca4610c5c565b500190565b600082610cc657634e487b7160e01b600052601260045260246000fd5b500490565b600060018201610cdd57610cdd610c5c565b5060010190565b600060208284031215610cf657600080fd5b5051919050565b805169ffffffffffffffffffff81168114610b4757600080fd5b600080600080600060a08688031215610d2f57600080fd5b610d3886610cfd565b9450602086015193506040860151925060608601519150610d5b60808701610cfd565b9050929550929590935056fea164736f6c634300080d000a",
  "userdoc": {
    "kind": "user",
    "methods": {},
    "version": 1
  },
  "storageLayout": {
    "storage": [
      {
        "astId": 29114,
        "contract": "contracts/test/curve-mocks/StableSwapMock.sol:StableSwapMock",
        "label": "tokens",
        "offset": 0,
        "slot": "0",
        "type": "t_array(t_address)3_storage"
      },
      {
        "astId": 29118,
        "contract": "contracts/test/curve-mocks/StableSwapMock.sol:StableSwapMock",
        "label": "oracles",
        "offset": 0,
        "slot": "3",
        "type": "t_array(t_address)3_storage"
      },
      {
        "astId": 29122,
        "contract": "contracts/test/curve-mocks/StableSwapMock.sol:StableSwapMock",
        "label": "decimals",
        "offset": 0,
        "slot": "6",
        "type": "t_array(t_uint256)3_storage"
      },
      {
        "astId": 29126,
        "contract": "contracts/test/curve-mocks/StableSwapMock.sol:StableSwapMock",
        "label": "quantities",
        "offset": 0,
        "slot": "9",
        "type": "t_array(t_uint256)3_storage"
      },
      {
        "astId": 29128,
        "contract": "contracts/test/curve-mocks/StableSwapMock.sol:StableSwapMock",
        "label": "lpToken",
        "offset": 0,
        "slot": "12",
        "type": "t_address"
      }
    ],
    "types": {
      "t_address": {
        "encoding": "inplace",
        "label": "address",
        "numberOfBytes": "20"
      },
      "t_array(t_address)3_storage": {
        "base": "t_address",
        "encoding": "inplace",
        "label": "address[3]",
        "numberOfBytes": "96"
      },
      "t_array(t_uint256)3_storage": {
        "base": "t_uint256",
        "encoding": "inplace",
        "label": "uint256[3]",
        "numberOfBytes": "96"
      },
      "t_uint256": {
        "encoding": "inplace",
        "label": "uint256",
        "numberOfBytes": "32"
      }
    }
  }
}