{
  "address": "0x583A911B55d43BFBa83Fe9D69786e9D27AbD323A",
  "abi": [
    {
      "inputs": [],
      "name": "CallerNotKeeper",
      "type": "error"
    },
    {
      "inputs": [],
      "name": "CallerNotStakingManager",
      "type": "error"
    },
    {
      "inputs": [
        {
          "internalType": "uint256",
          "name": "balance",
          "type": "uint256"
        }
      ],
      "name": "InsufficientShares",
      "type": "error"
    },
    {
      "inputs": [
        {
          "internalType": "uint256",
          "name": "errorCode",
          "type": "uint256"
        }
      ],
      "name": "InvalidInput",
      "type": "error"
    },
    {
      "inputs": [
        {
          "internalType": "bool",
          "name": "currentValue",
          "type": "bool"
        }
      ],
      "name": "InvalidSetDepositPaused",
      "type": "error"
    },
    {
      "inputs": [
        {
          "internalType": "address",
          "name": "vault",
          "type": "address"
        }
      ],
      "name": "InvalidVault",
      "type": "error"
    },
    {
      "inputs": [],
      "name": "VaultAlreadyAdded",
      "type": "error"
    },
    {
      "inputs": [],
      "name": "VaultsLimitExceeded",
      "type": "error"
    },
    {
      "inputs": [],
      "name": "ZeroBalance",
      "type": "error"
    },
    {
      "anonymous": false,
      "inputs": [
        {
          "indexed": true,
          "internalType": "uint256",
          "name": "round",
          "type": "uint256"
        },
        {
          "indexed": false,
          "internalType": "uint256",
          "name": "userGlpAmount",
          "type": "uint256"
        },
        {
          "indexed": false,
          "internalType": "uint256",
          "name": "userShareAmount",
          "type": "uint256"
        }
      ],
      "name": "BatchDeposit",
      "type": "event"
    },
    {
      "anonymous": false,
      "inputs": [
        {
          "indexed": true,
          "internalType": "uint256",
          "name": "round",
          "type": "uint256"
        },
        {
          "indexed": true,
          "internalType": "address",
          "name": "token",
          "type": "address"
        },
        {
          "indexed": true,
          "internalType": "address",
          "name": "receiver",
          "type": "address"
        },
        {
          "indexed": false,
          "internalType": "uint256",
          "name": "amount",
          "type": "uint256"
        },
        {
          "indexed": false,
          "internalType": "uint256",
          "name": "glpStaked",
          "type": "uint256"
        }
      ],
      "name": "DepositToken",
      "type": "event"
    },
    {
      "anonymous": false,
      "inputs": [
        {
          "indexed": false,
          "internalType": "uint8",
          "name": "version",
          "type": "uint8"
        }
      ],
      "name": "Initialized",
      "type": "event"
    },
    {
      "anonymous": false,
      "inputs": [
        {
          "indexed": false,
          "internalType": "address",
          "name": "newKeeper",
          "type": "address"
        }
      ],
      "name": "KeeperUpdated",
      "type": "event"
    },
    {
      "anonymous": false,
      "inputs": [
        {
          "indexed": true,
          "internalType": "address",
          "name": "previousOwner",
          "type": "address"
        },
        {
          "indexed": true,
          "internalType": "address",
          "name": "newOwner",
          "type": "address"
        }
      ],
      "name": "OwnershipTransferred",
      "type": "event"
    },
    {
      "anonymous": false,
      "inputs": [
        {
          "indexed": false,
          "internalType": "address",
          "name": "account",
          "type": "address"
        }
      ],
      "name": "Paused",
      "type": "event"
    },
    {
      "anonymous": false,
      "inputs": [
        {
          "indexed": true,
          "internalType": "address",
          "name": "from",
          "type": "address"
        },
        {
          "indexed": true,
          "internalType": "address",
          "name": "receiver",
          "type": "address"
        },
        {
          "indexed": false,
          "internalType": "uint256",
          "name": "claimAmount",
          "type": "uint256"
        }
      ],
      "name": "SharesClaimed",
      "type": "event"
    },
    {
      "anonymous": false,
      "inputs": [
        {
          "indexed": false,
          "internalType": "address",
          "name": "account",
          "type": "address"
        }
      ],
      "name": "Unpaused",
      "type": "event"
    },
    {
      "anonymous": false,
      "inputs": [
        {
          "indexed": false,
          "internalType": "address",
          "name": "vault",
          "type": "address"
        }
      ],
      "name": "VaultAdded",
      "type": "event"
    },
    {
      "anonymous": false,
      "inputs": [
        {
          "indexed": false,
          "internalType": "uint256",
          "name": "vaultGlpAmount",
          "type": "uint256"
        }
      ],
      "name": "VaultDeposit",
      "type": "event"
    },
    {
      "inputs": [
        {
          "internalType": "contract IERC4626",
          "name": "vault",
          "type": "address"
        }
      ],
      "name": "addVault",
      "outputs": [],
      "stateMutability": "nonpayable",
      "type": "function"
    },
    {
      "inputs": [
        {
          "internalType": "contract IERC4626",
          "name": "gmxVault",
          "type": "address"
        },
        {
          "internalType": "address",
          "name": "receiver",
          "type": "address"
        },
        {
          "internalType": "uint256",
          "name": "amount",
          "type": "uint256"
        }
      ],
      "name": "claim",
      "outputs": [],
      "stateMutability": "nonpayable",
      "type": "function"
    },
    {
      "inputs": [
        {
          "internalType": "contract IERC4626",
          "name": "vault",
          "type": "address"
        }
      ],
      "name": "currentRound",
      "outputs": [
        {
          "internalType": "uint256",
          "name": "",
          "type": "uint256"
        }
      ],
      "stateMutability": "view",
      "type": "function"
    },
    {
      "inputs": [
        {
          "internalType": "address",
          "name": "token",
          "type": "address"
        },
        {
          "internalType": "uint256",
          "name": "amount",
          "type": "uint256"
        },
        {
          "internalType": "uint256",
          "name": "minUSDG",
          "type": "uint256"
        }
      ],
      "name": "depositToken",
      "outputs": [
        {
          "internalType": "uint256",
          "name": "glpStaked",
          "type": "uint256"
        }
      ],
      "stateMutability": "nonpayable",
      "type": "function"
    },
    {
      "inputs": [
        {
          "internalType": "contract IERC4626",
          "name": "gmxVault",
          "type": "address"
        },
        {
          "internalType": "address",
          "name": "token",
          "type": "address"
        },
        {
          "internalType": "uint256",
          "name": "amount",
          "type": "uint256"
        },
        {
          "internalType": "uint256",
          "name": "minUSDG",
          "type": "uint256"
        },
        {
          "internalType": "address",
          "name": "receiver",
          "type": "address"
        }
      ],
      "name": "depositToken",
      "outputs": [
        {
          "internalType": "uint256",
          "name": "glpStaked",
          "type": "uint256"
        }
      ],
      "stateMutability": "nonpayable",
      "type": "function"
    },
    {
      "inputs": [],
      "name": "executeBatchDeposit",
      "outputs": [],
      "stateMutability": "nonpayable",
      "type": "function"
    },
    {
      "inputs": [
        {
          "internalType": "contract IERC4626",
          "name": "gmxVault",
          "type": "address"
        },
        {
          "internalType": "address",
          "name": "account",
          "type": "address"
        }
      ],
      "name": "glpBalance",
      "outputs": [
        {
          "internalType": "uint256",
          "name": "balance",
          "type": "uint256"
        }
      ],
      "stateMutability": "view",
      "type": "function"
    },
    {
      "inputs": [
        {
          "internalType": "address",
          "name": "account",
          "type": "address"
        }
      ],
      "name": "glpBalanceAllVaults",
      "outputs": [
        {
          "internalType": "uint256",
          "name": "balance",
          "type": "uint256"
        }
      ],
      "stateMutability": "view",
      "type": "function"
    },
    {
      "inputs": [
        {
          "internalType": "contract IERC4626",
          "name": "gmxVault",
          "type": "address"
        }
      ],
      "name": "grantAllowances",
      "outputs": [],
      "stateMutability": "nonpayable",
      "type": "function"
    },
    {
      "inputs": [
        {
          "internalType": "contract IERC20",
          "name": "_sGlp",
          "type": "address"
        },
        {
          "internalType": "contract IRewardRouterV2",
          "name": "_rewardRouter",
          "type": "address"
        },
        {
          "internalType": "contract IGlpManager",
          "name": "_glpManager",
          "type": "address"
        },
        {
          "internalType": "address",
          "name": "_stakingManager",
          "type": "address"
        },
        {
          "internalType": "address",
          "name": "_keeper",
          "type": "address"
        }
      ],
      "name": "initialize",
      "outputs": [],
      "stateMutability": "nonpayable",
      "type": "function"
    },
    {
      "inputs": [
        {
          "internalType": "contract IERC4626",
          "name": "vault",
          "type": "address"
        }
      ],
      "name": "isVaultValid",
      "outputs": [
        {
          "internalType": "bool",
          "name": "",
          "type": "bool"
        }
      ],
      "stateMutability": "view",
      "type": "function"
    },
    {
      "inputs": [],
      "name": "keeper",
      "outputs": [
        {
          "internalType": "address",
          "name": "",
          "type": "address"
        }
      ],
      "stateMutability": "view",
      "type": "function"
    },
    {
      "inputs": [],
      "name": "owner",
      "outputs": [
        {
          "internalType": "address",
          "name": "",
          "type": "address"
        }
      ],
      "stateMutability": "view",
      "type": "function"
    },
    {
      "inputs": [],
      "name": "pauseDeposit",
      "outputs": [],
      "stateMutability": "nonpayable",
      "type": "function"
    },
    {
      "inputs": [],
      "name": "paused",
      "outputs": [
        {
          "internalType": "bool",
          "name": "",
          "type": "bool"
        }
      ],
      "stateMutability": "view",
      "type": "function"
    },
    {
      "inputs": [],
      "name": "renounceOwnership",
      "outputs": [],
      "stateMutability": "nonpayable",
      "type": "function"
    },
    {
      "inputs": [
        {
          "internalType": "contract IERC4626",
          "name": "vault",
          "type": "address"
        },
        {
          "internalType": "uint256",
          "name": "round",
          "type": "uint256"
        }
      ],
      "name": "roundDeposits",
      "outputs": [
        {
          "components": [
            {
              "internalType": "uint128",
              "name": "totalGlp",
              "type": "uint128"
            },
            {
              "internalType": "uint128",
              "name": "totalShares",
              "type": "uint128"
            }
          ],
          "internalType": "struct IGMXBatchingManager.RoundDeposit",
          "name": "",
          "type": "tuple"
        }
      ],
      "stateMutability": "view",
      "type": "function"
    },
    {
      "inputs": [
        {
          "internalType": "contract IERC4626",
          "name": "vault",
          "type": "address"
        }
      ],
      "name": "roundGlpBalance",
      "outputs": [
        {
          "internalType": "uint256",
          "name": "",
          "type": "uint256"
        }
      ],
      "stateMutability": "view",
      "type": "function"
    },
    {
      "inputs": [
        {
          "internalType": "address",
          "name": "_keeper",
          "type": "address"
        }
      ],
      "name": "setKeeper",
      "outputs": [],
      "stateMutability": "nonpayable",
      "type": "function"
    },
    {
      "inputs": [],
      "name": "stakingManager",
      "outputs": [
        {
          "internalType": "address",
          "name": "",
          "type": "address"
        }
      ],
      "stateMutability": "view",
      "type": "function"
    },
    {
      "inputs": [],
      "name": "stakingManagerGlpBalance",
      "outputs": [
        {
          "internalType": "uint256",
          "name": "",
          "type": "uint256"
        }
      ],
      "stateMutability": "view",
      "type": "function"
    },
    {
      "inputs": [
        {
          "internalType": "address",
          "name": "newOwner",
          "type": "address"
        }
      ],
      "name": "transferOwnership",
      "outputs": [],
      "stateMutability": "nonpayable",
      "type": "function"
    },
    {
      "inputs": [
        {
          "internalType": "contract IERC4626",
          "name": "gmxVault",
          "type": "address"
        },
        {
          "internalType": "address",
          "name": "account",
          "type": "address"
        }
      ],
      "name": "unclaimedShares",
      "outputs": [
        {
          "internalType": "uint256",
          "name": "shares",
          "type": "uint256"
        }
      ],
      "stateMutability": "view",
      "type": "function"
    },
    {
      "inputs": [],
      "name": "unpauseDeposit",
      "outputs": [],
      "stateMutability": "nonpayable",
      "type": "function"
    },
    {
      "inputs": [
        {
          "internalType": "contract IERC4626",
          "name": "vault",
          "type": "address"
        },
        {
          "internalType": "address",
          "name": "account",
          "type": "address"
        }
      ],
      "name": "userDeposits",
      "outputs": [
        {
          "components": [
            {
              "internalType": "uint256",
              "name": "round",
              "type": "uint256"
            },
            {
              "internalType": "uint128",
              "name": "glpBalance",
              "type": "uint128"
            },
            {
              "internalType": "uint128",
              "name": "unclaimedShares",
              "type": "uint128"
            }
          ],
          "internalType": "struct IGMXBatchingManager.UserDeposit",
          "name": "",
          "type": "tuple"
        }
      ],
      "stateMutability": "view",
      "type": "function"
    },
    {
      "inputs": [
        {
          "internalType": "contract IERC4626",
          "name": "",
          "type": "address"
        }
      ],
      "name": "vaultBatchingState",
      "outputs": [
        {
          "internalType": "uint256",
          "name": "currentRound",
          "type": "uint256"
        },
        {
          "internalType": "uint256",
          "name": "roundGlpBalance",
          "type": "uint256"
        }
      ],
      "stateMutability": "view",
      "type": "function"
    },
    {
      "inputs": [],
      "name": "vaultCount",
      "outputs": [
        {
          "internalType": "uint16",
          "name": "",
          "type": "uint16"
        }
      ],
      "stateMutability": "view",
      "type": "function"
    },
    {
      "inputs": [
        {
          "internalType": "uint256",
          "name": "",
          "type": "uint256"
        }
      ],
      "name": "vaults",
      "outputs": [
        {
          "internalType": "contract IERC4626",
          "name": "",
          "type": "address"
        }
      ],
      "stateMutability": "view",
      "type": "function"
    }
  ],
  "transactionHash": "0xfd550345bac0ba306fdbc23f42d1e1d22eaf6441a0f97b17bdde57a8e7ca1052",
  "args": [],
  "numDeployments": 1,
  "solcInputHash": "7529bff7d4b041a5e32b81fabd5ea9d2",
  "bytecode": "0x608060405234801561001057600080fd5b50611f28806100206000396000f3fe608060405234801561001057600080fd5b50600436106101c45760003560e01c8063715018a6116100f9578063a7c6a10011610097578063c5384e6b11610071578063c5384e6b14610516578063da5678bd14610529578063dda07f42146105be578063f2fde38b146105ea57600080fd5b8063a7c6a100146104c8578063aced1661146104f0578063b2a83bd31461050357600080fd5b80638da5cb5b116100d35780638da5cb5b14610467578063996cba681461047857806399c6d2de1461048b578063a7b23fcf1461049e57600080fd5b8063715018a614610439578063748747e6146104415780638c64ea4a1461045457600080fd5b80633ca7de9211610166578063557ab43111610140578063557ab431146103da5780635c975abb146103ed57806369026e88146104045780636b03787c1461040c57600080fd5b80633ca7de92146102ce578063436d8039146103185780635157ced5146103d257600080fd5b806322828cc2116101a257806322828cc21461024a578063256b5a02146102755780632a906a4514610288578063361ed04a1461029157600080fd5b80631459457a146101c9578063180282b3146101de57806320d9caad146101e6575b600080fd5b6101dc6101d7366004611bd1565b6105fd565b005b6101dc61068c565b6102376101f4366004611c42565b6001600160a01b0391821660009081526101016020908152604080832093909416825260029092019091522060010154600160801b90046001600160801b031690565b6040519081526020015b60405180910390f35b60fc5461025d906001600160a01b031681565b6040516001600160a01b039091168152602001610241565b6101dc610283366004611c7b565b6107b8565b61023760fd5481565b6102b961029f366004611c7b565b610101602052600090815260409020805460019091015482565b60408051928352602083019190915201610241565b6102376102dc366004611c42565b6001600160a01b03918216600090815261010160209081526040808320939094168252600290920190915220600101546001600160801b031690565b61039f610326366004611c42565b6040805160608082018352600080835260208084018290529284018190526001600160a01b039586168152610101835283812094909516855260029093018152928190208151928301825280548352600101546001600160801b0380821694840194909452600160801b90049092169181019190915290565b60408051825181526020808401516001600160801b03908116918301919091529282015190921690820152606001610241565b6101dc6109bd565b6102376103e8366004611c7b565b6109f0565b60655460ff165b6040519015158152602001610241565b6101dc610a74565b61023761041a366004611c7b565b6001600160a01b03166000908152610101602052604090206001015490565b6101dc610aa7565b6101dc61044f366004611c7b565b610af9565b61025d610462366004611c98565b610b8f565b6033546001600160a01b031661025d565b6101dc610486366004611cb1565b610bb0565b610237610499366004611cf2565b610dfb565b6102376104ac366004611c7b565b6001600160a01b03166000908152610101602052604090205490565b60fc546104dd90600160a01b900461ffff1681565b60405161ffff9091168152602001610241565b60fb5461025d906001600160a01b031681565b6101dc610511366004611c7b565b610fbf565b610237610524366004611d27565b61108c565b610597610537366004611d78565b604080518082018252600080825260209182018190526001600160a01b03949094168452610101815281842092845260039092018252918290208251808401909352546001600160801b038082168452600160801b909104169082015290565b6040805182516001600160801b039081168252602093840151169281019290925201610241565b6103f46105cc366004611c7b565b6001600160a01b031660009081526101016020526040902054151590565b6101dc6105f8366004611c7b565b61138b565b60006106096001611444565b90508015610621576000805461ff0019166101001790555b61062961155f565b61063161158e565b61063e86868686866115bd565b8015610684576000805461ff0019169055604051600181527f7f26b83ff96e1f2b6a682f133852f6798a09c465da95921460cefb38474024989060200160405180910390a15b505050505050565b60fd541561074c5760fd8054600090915560fe5460fc5460405163a9059cbb60e01b81526001600160a01b0391821660048201526024810184905291169063a9059cbb906044016020604051808303816000875af11580156106f2573d6000803e3d6000fd5b505050506040513d601f19601f820116820180604052508101906107169190611da4565b506040518181527fabf360404ae6ccd945919fc14edb22686b6941aeee15d786c7047e4a0107eba59060200160405180910390a1505b60005b600a8110156107a257600061010282600a811061076e5761076e611dc6565b01546001600160a01b031690508061078657506107a2565b61078f81611674565b508061079a81611df2565b91505061074f565b5060655460ff16156107b6576107b66117dd565b565b6033546001600160a01b031633146108055760405162461bcd60e51b81526020600482018190526024820152600080516020611efc83398151915260448201526064015b60405180910390fd5b60fc54600160a01b900461ffff1660091901610834576040516309f4d7ab60e21b815260040160405180910390fd5b6001600160a01b038116600090815261010160205260409020541561086c57604051630cb3e97f60e31b815260040160405180910390fd5b6001600160a01b0381166000908152610101602052604090206001905560fc54819061010290600160a01b900461ffff16600a81106108ad576108ad611dc6565b0180546001600160a01b0319166001600160a01b039290921691909117905560fc80546014906108e790600160a01b900461ffff16611e0b565b825461ffff9182166101009390930a928302919092021990911617905560fe5460405163095ea7b360e01b81526001600160a01b03838116600483015260001960248301529091169063095ea7b3906044016020604051808303816000875af1158015610958573d6000803e3d6000fd5b505050506040513d601f19601f8201168201806040525081019061097c9190611da4565b506040516001600160a01b03821681527f7b7ef7a864d96a85497a1ed846adb39940dd6ccef678ff6ac8d55505e09b8cc4906020015b60405180910390a150565b60fb546001600160a01b031633146109e8576040516304e1fa9f60e01b815260040160405180910390fd5b6107b66117dd565b6000805b600a811015610a6e57610a5061010282600a8110610a1457610a14611dc6565b01546001600160a01b0390811660009081526101016020908152604080832093881683526002909301905220600101546001600160801b031690565b610a5a9083611e2c565b915080610a6681611df2565b9150506109f4565b50919050565b60fb546001600160a01b03163314610a9f576040516304e1fa9f60e01b815260040160405180910390fd5b6107b6611879565b6033546001600160a01b03163314610aef5760405162461bcd60e51b81526020600482018190526024820152600080516020611efc83398151915260448201526064016107fc565b6107b660006118f4565b6033546001600160a01b03163314610b415760405162461bcd60e51b81526020600482018190526024820152600080516020611efc83398151915260448201526064016107fc565b60fb80546001600160a01b0319166001600160a01b0383169081179091556040519081527f0425bcd291db1d48816f2a98edc7ecaf6dd5c64b973d9e4b3b6b750763dc6c2e906020016109b2565b61010281600a8110610ba057600080fd5b01546001600160a01b0316905081565b6001600160a01b038216610bda5760405163b80480b160e01b8152601060048201526024016107fc565b80600003610bfe5760405163b80480b160e01b8152601160048201526024016107fc565b6001600160a01b038316600090815261010160209081526040808320338452600281019092529091206001810154815483546001600160801b03600160801b840481169316919081108015610c5c57506000826001600160801b0316115b15610cc557600081815260038601602052604090208054610c9c90610c97906001600160801b0386811691600160801b810482169116611946565b6119f9565b610ca69085611e44565b6001860180546fffffffffffffffffffffffffffffffff191690559350505b50610ccf856119f9565b6001600160801b0316826001600160801b03161015610d0c576040516307f885ff60e21b81526001600160801b03831660048201526024016107fc565b610d15856119f9565b610d1f9083611e6f565b6001840180546001600160801b03928316600160801b02921691909117905560405163a9059cbb60e01b81526001600160a01b0387811660048301526024820187905288169063a9059cbb906044016020604051808303816000875af1158015610d8d573d6000803e3d6000fd5b505050506040513d601f19601f82011682018060405250810190610db19190611da4565b506040518581526001600160a01b0387169033907f5c88b328c5b2ad9ebdf6ff97006b8557bd45f26293da0252d9a34931c684007a9060200160405180910390a350505050505050565b6000610e0960655460ff1690565b15610e495760405162461bcd60e51b815260206004820152601060248201526f14185d5cd8589b194e881c185d5cd95960821b60448201526064016107fc565b60fc546001600160a01b03163314610e7457604051635d3958b360e01b815260040160405180910390fd5b6001600160a01b038416610e9e5760405163b80480b160e01b8152603060048201526024016107fc565b82600003610ec25760405163b80480b160e01b8152603160048201526024016107fc565b6040516323b872dd60e01b8152336004820152306024820152604481018490526001600160a01b038516906323b872dd906064016020604051808303816000875af1158015610f15573d6000803e3d6000fd5b505050506040513d601f19601f82011682018060405250810190610f399190611da4565b50610f45848484611a0f565b9050610f50816119f9565b6001600160801b031660fd6000828254610f6a9190611e2c565b9091555050604080518481526020810183905233916001600160a01b038716916000917f3b7ce5782971bc1c2a722cba69f6f8bccbe8dd1a68d213ea39f1b681726092d4910160405180910390a49392505050565b6033546001600160a01b031633146110075760405162461bcd60e51b81526020600482018190526024820152600080516020611efc83398151915260448201526064016107fc565b61101081611b17565b60fe5460405163095ea7b360e01b81526001600160a01b03838116600483015260001960248301529091169063095ea7b3906044016020604051808303816000875af1158015611064573d6000803e3d6000fd5b505050506040513d601f19601f820116820180604052508101906110889190611da4565b5050565b600061109a60655460ff1690565b156110da5760405162461bcd60e51b815260206004820152601060248201526f14185d5cd8589b194e881c185d5cd95960821b60448201526064016107fc565b6001600160a01b0385166111045760405163b80480b160e01b8152602060048201526024016107fc565b836000036111285760405163b80480b160e01b8152602160048201526024016107fc565b6001600160a01b0382166111525760405163b80480b160e01b8152602260048201526024016107fc565b61115b86611b17565b6040516323b872dd60e01b8152336004820152306024820152604481018590526001600160a01b038616906323b872dd906064016020604051808303816000875af11580156111ae573d6000803e3d6000fd5b505050506040513d601f19601f820116820180604052508101906111d29190611da4565b506001600160a01b0380871660009081526101016020908152604080832093861683526002840190915290206001810154815483546001600160801b03909216918110801561122a57506000826001600160801b0316115b156112b857600081815260038501602052604090208054600185015461126a91610c97916001600160801b0390811691600160801b810482169116611946565b60018501805460109061128e908490600160801b90046001600160801b0316611e44565b92506101000a8154816001600160801b0302191690836001600160801b0316021790555060009250505b6112c3898989611a0f565b8454845594506112d2856119f9565b6112dc9083611e44565b6001840180546fffffffffffffffffffffffffffffffff19166001600160801b0392909216919091179055611310856119f9565b6001600160801b031684600101600082825461132c9190611e2c565b90915550508354604080518a8152602081018890526001600160a01b03808a1693908d169290917f3b7ce5782971bc1c2a722cba69f6f8bccbe8dd1a68d213ea39f1b681726092d4910160405180910390a45050505095945050505050565b6033546001600160a01b031633146113d35760405162461bcd60e51b81526020600482018190526024820152600080516020611efc83398151915260448201526064016107fc565b6001600160a01b0381166114385760405162461bcd60e51b815260206004820152602660248201527f4f776e61626c653a206e6577206f776e657220697320746865207a65726f206160448201526564647265737360d01b60648201526084016107fc565b611441816118f4565b50565b60008054610100900460ff16156114d2578160ff1660011480156114675750303b155b6114ca5760405162461bcd60e51b815260206004820152602e60248201527f496e697469616c697a61626c653a20636f6e747261637420697320616c72656160448201526d191e481a5b9a5d1a585b1a5e995960921b60648201526084016107fc565b506000919050565b60005460ff8084169116106115405760405162461bcd60e51b815260206004820152602e60248201527f496e697469616c697a61626c653a20636f6e747261637420697320616c72656160448201526d191e481a5b9a5d1a585b1a5e995960921b60648201526084016107fc565b506000805460ff191660ff92909216919091179055600190565b919050565b600054610100900460ff166115865760405162461bcd60e51b81526004016107fc90611e97565b6107b6611b59565b600054610100900460ff166115b55760405162461bcd60e51b81526004016107fc90611e97565b6107b6611b89565b600054610100900460ff166115e45760405162461bcd60e51b81526004016107fc90611e97565b60fe80546001600160a01b03199081166001600160a01b03888116919091179092556101008054821687841617905560ff8054821686841617905560fc8054821685841617905560fb805490911691831691821790556040519081527f0425bcd291db1d48816f2a98edc7ecaf6dd5c64b973d9e4b3b6b750763dc6c2e9060200160405180910390a15050505050565b6001600160a01b038116600090815261010160205260409020600181015415611088576001810154604051636e553f6560e01b815260048101919091523060248201526000906001600160a01b03841690636e553f65906044016020604051808303816000875af11580156116ed573d6000803e3d6000fd5b505050506040513d601f19601f820116820180604052508101906117119190611ee2565b9050604051806040016040528061172b84600101546119f9565b6001600160801b03168152602001611742836119f9565b6001600160801b03908116909152835460009081526003850160209081526040918290208451948201518416600160801b029490931693909317909155835460018501548251908152928301849052917f91535f424d5c4759427ba90b0ffa33a39d42edf0a1014fd35ae8b7d5925c984d910160405180910390a260006001830181905582548391906117d490611df2565b90915550505050565b60655460ff1661182f5760405162461bcd60e51b815260206004820152601460248201527f5061757361626c653a206e6f742070617573656400000000000000000000000060448201526064016107fc565b6065805460ff191690557f5db9ee0a495bf2e6ff9c91a7834c1ba4fdd244a5e8aa4e537bd38aeae4b073aa335b6040516001600160a01b03909116815260200160405180910390a1565b60655460ff16156118bf5760405162461bcd60e51b815260206004820152601060248201526f14185d5cd8589b194e881c185d5cd95960821b60448201526064016107fc565b6065805460ff191660011790557f62e78cea01bee320cd4e420270b5ea74000d11b0c9f74754ebdbfc544b05a25861185c3390565b603380546001600160a01b038381166001600160a01b0319831681179093556040519116919082907f8be0079c531659141344cd1fd0a4f28419497f9722a3daafe3b4186f6b6457e090600090a35050565b600080806000198587098587029250828110838203039150508060000361197f576000841161197457600080fd5b5082900490506119f2565b80841161198b57600080fd5b6000848688096000868103871696879004966002600389028118808a02820302808a02820302808a02820302808a02820302808a02820302808a02909103029181900381900460010186841190950394909402919094039290920491909117919091029150505b9392505050565b806001600160801b038116811461155a57600080fd5b60ff5460405163095ea7b360e01b81526001600160a01b0391821660048201526024810184905260009185169063095ea7b3906044016020604051808303816000875af1158015611a64573d6000803e3d6000fd5b505050506040513d601f19601f82011682018060405250810190611a889190611da4565b506101005460405163364e231160e01b81526001600160a01b0386811660048301526024820186905260448201859052600060648301529091169063364e2311906084016020604051808303816000875af1158015611aeb573d6000803e3d6000fd5b505050506040513d601f19601f82011682018060405250810190611b0f9190611ee2565b949350505050565b6001600160a01b03811660009081526101016020526040902054611441576040516357b980d760e11b81526001600160a01b03821660048201526024016107fc565b600054610100900460ff16611b805760405162461bcd60e51b81526004016107fc90611e97565b6107b6336118f4565b600054610100900460ff16611bb05760405162461bcd60e51b81526004016107fc90611e97565b6065805460ff19169055565b6001600160a01b038116811461144157600080fd5b600080600080600060a08688031215611be957600080fd5b8535611bf481611bbc565b94506020860135611c0481611bbc565b93506040860135611c1481611bbc565b92506060860135611c2481611bbc565b91506080860135611c3481611bbc565b809150509295509295909350565b60008060408385031215611c5557600080fd5b8235611c6081611bbc565b91506020830135611c7081611bbc565b809150509250929050565b600060208284031215611c8d57600080fd5b81356119f281611bbc565b600060208284031215611caa57600080fd5b5035919050565b600080600060608486031215611cc657600080fd5b8335611cd181611bbc565b92506020840135611ce181611bbc565b929592945050506040919091013590565b600080600060608486031215611d0757600080fd5b8335611d1281611bbc565b95602085013595506040909401359392505050565b600080600080600060a08688031215611d3f57600080fd5b8535611d4a81611bbc565b94506020860135611d5a81611bbc565b935060408601359250606086013591506080860135611c3481611bbc565b60008060408385031215611d8b57600080fd5b8235611d9681611bbc565b946020939093013593505050565b600060208284031215611db657600080fd5b815180151581146119f257600080fd5b634e487b7160e01b600052603260045260246000fd5b634e487b7160e01b600052601160045260246000fd5b600060018201611e0457611e04611ddc565b5060010190565b600061ffff808316818103611e2257611e22611ddc565b6001019392505050565b60008219821115611e3f57611e3f611ddc565b500190565b60006001600160801b03808316818516808303821115611e6657611e66611ddc565b01949350505050565b60006001600160801b0383811690831681811015611e8f57611e8f611ddc565b039392505050565b6020808252602b908201527f496e697469616c697a61626c653a20636f6e7472616374206973206e6f74206960408201526a6e697469616c697a696e6760a81b606082015260800190565b600060208284031215611ef457600080fd5b505191905056fe4f776e61626c653a2063616c6c6572206973206e6f7420746865206f776e6572a164736f6c634300080e000a",
  "userdoc": {
    "kind": "user",
    "methods": {
      "addVault(address)": {
        "notice": "adds new vault to which deposits can be batched"
      },
      "claim(address,address,uint256)": {
        "notice": "claim the shares received from depositing batch"
      },
      "currentRound(address)": {
        "notice": "gets the current active round"
      },
      "depositToken(address,address,uint256,uint256,address)": {
        "notice": "convert the token into glp and obtain staked glp and deposits sGLP into vault"
      },
      "depositToken(address,uint256,uint256)": {
        "notice": "convert the token into glp and obtain staked glp"
      },
      "executeBatchDeposit()": {
        "notice": "executes batch and deposits into appropriate vault with/without minting shares"
      },
      "glpBalance(address,address)": {
        "notice": "get the glp balance for a given vault and account address"
      },
      "glpBalanceAllVaults(address)": {
        "notice": "gives the combined pending glp balance from all registered vaults"
      },
      "grantAllowances(address)": {
        "notice": "grants the allowance to the vault to pull sGLP (via safeTransfer from in vault.deposit)"
      },
      "isVaultValid(address)": {
        "notice": "checks if vault is valid"
      },
      "pauseDeposit()": {
        "notice": "pauses deposits (to prevent DOS due to GMX 15 min cooldown)"
      },
      "roundDeposits(address,uint256)": {
        "notice": "get the info for given vault and round"
      },
      "roundGlpBalance(address)": {
        "notice": "get the glp balance for current active round"
      },
      "setKeeper(address)": {
        "notice": "sets the keeper address (to pause & unpause deposits)"
      },
      "unclaimedShares(address,address)": {
        "notice": "get the unclaimed shares for a given vault and account address"
      },
      "unpauseDeposit()": {
        "notice": "unpauses the deposit function"
      },
      "userDeposits(address,address)": {
        "notice": "get the state of user deposits"
      }
    },
    "version": 1
  },
  "storageLayout": {
    "storage": [
      {
        "astId": 217,
        "contract": "contracts/yieldStrategy/gmx/GMXBatchingManager.sol:GMXBatchingManager",
        "label": "_initialized",
        "offset": 0,
        "slot": "0",
        "type": "t_uint8"
      },
      {
        "astId": 220,
        "contract": "contracts/yieldStrategy/gmx/GMXBatchingManager.sol:GMXBatchingManager",
        "label": "_initializing",
        "offset": 1,
        "slot": "0",
        "type": "t_bool"
      },
      {
        "astId": 1461,
        "contract": "contracts/yieldStrategy/gmx/GMXBatchingManager.sol:GMXBatchingManager",
        "label": "__gap",
        "offset": 0,
        "slot": "1",
        "type": "t_array(t_uint256)50_storage"
      },
      {
        "astId": 97,
        "contract": "contracts/yieldStrategy/gmx/GMXBatchingManager.sol:GMXBatchingManager",
        "label": "_owner",
        "offset": 0,
        "slot": "51",
        "type": "t_address"
      },
      {
        "astId": 209,
        "contract": "contracts/yieldStrategy/gmx/GMXBatchingManager.sol:GMXBatchingManager",
        "label": "__gap",
        "offset": 0,
        "slot": "52",
        "type": "t_array(t_uint256)49_storage"
      },
      {
        "astId": 373,
        "contract": "contracts/yieldStrategy/gmx/GMXBatchingManager.sol:GMXBatchingManager",
        "label": "_paused",
        "offset": 0,
        "slot": "101",
        "type": "t_bool"
      },
      {
        "astId": 462,
        "contract": "contracts/yieldStrategy/gmx/GMXBatchingManager.sol:GMXBatchingManager",
        "label": "__gap",
        "offset": 0,
        "slot": "102",
        "type": "t_array(t_uint256)49_storage"
      },
      {
        "astId": 38042,
        "contract": "contracts/yieldStrategy/gmx/GMXBatchingManager.sol:GMXBatchingManager",
        "label": "_gaps",
        "offset": 0,
        "slot": "151",
        "type": "t_array(t_uint256)100_storage"
      },
      {
        "astId": 38044,
        "contract": "contracts/yieldStrategy/gmx/GMXBatchingManager.sol:GMXBatchingManager",
        "label": "keeper",
        "offset": 0,
        "slot": "251",
        "type": "t_address"
      },
      {
        "astId": 38046,
        "contract": "contracts/yieldStrategy/gmx/GMXBatchingManager.sol:GMXBatchingManager",
        "label": "stakingManager",
        "offset": 0,
        "slot": "252",
        "type": "t_address"
      },
      {
        "astId": 38048,
        "contract": "contracts/yieldStrategy/gmx/GMXBatchingManager.sol:GMXBatchingManager",
        "label": "vaultCount",
        "offset": 20,
        "slot": "252",
        "type": "t_uint16"
      },
      {
        "astId": 38050,
        "contract": "contracts/yieldStrategy/gmx/GMXBatchingManager.sol:GMXBatchingManager",
        "label": "stakingManagerGlpBalance",
        "offset": 0,
        "slot": "253",
        "type": "t_uint256"
      },
      {
        "astId": 38053,
        "contract": "contracts/yieldStrategy/gmx/GMXBatchingManager.sol:GMXBatchingManager",
        "label": "sGlp",
        "offset": 0,
        "slot": "254",
        "type": "t_contract(IERC20)3612"
      },
      {
        "astId": 38056,
        "contract": "contracts/yieldStrategy/gmx/GMXBatchingManager.sol:GMXBatchingManager",
        "label": "glpManager",
        "offset": 0,
        "slot": "255",
        "type": "t_contract(IGlpManager)31297"
      },
      {
        "astId": 38059,
        "contract": "contracts/yieldStrategy/gmx/GMXBatchingManager.sol:GMXBatchingManager",
        "label": "rewardRouter",
        "offset": 0,
        "slot": "256",
        "type": "t_contract(IRewardRouterV2)31476"
      },
      {
        "astId": 38065,
        "contract": "contracts/yieldStrategy/gmx/GMXBatchingManager.sol:GMXBatchingManager",
        "label": "vaultBatchingState",
        "offset": 0,
        "slot": "257",
        "type": "t_mapping(t_contract(IERC4626)30826,t_struct(VaultBatchingState)38038_storage)"
      },
      {
        "astId": 38070,
        "contract": "contracts/yieldStrategy/gmx/GMXBatchingManager.sol:GMXBatchingManager",
        "label": "vaults",
        "offset": 0,
        "slot": "258",
        "type": "t_array(t_contract(IERC4626)30826)10_storage"
      },
      {
        "astId": 38074,
        "contract": "contracts/yieldStrategy/gmx/GMXBatchingManager.sol:GMXBatchingManager",
        "label": "_gaps2",
        "offset": 0,
        "slot": "268",
        "type": "t_array(t_uint256)100_storage"
      }
    ],
    "types": {
      "t_address": {
        "encoding": "inplace",
        "label": "address",
        "numberOfBytes": "20"
      },
      "t_array(t_contract(IERC4626)30826)10_storage": {
        "base": "t_contract(IERC4626)30826",
        "encoding": "inplace",
        "label": "contract IERC4626[10]",
        "numberOfBytes": "320"
      },
      "t_array(t_uint256)100_storage": {
        "base": "t_uint256",
        "encoding": "inplace",
        "label": "uint256[100]",
        "numberOfBytes": "3200"
      },
      "t_array(t_uint256)49_storage": {
        "base": "t_uint256",
        "encoding": "inplace",
        "label": "uint256[49]",
        "numberOfBytes": "1568"
      },
      "t_array(t_uint256)50_storage": {
        "base": "t_uint256",
        "encoding": "inplace",
        "label": "uint256[50]",
        "numberOfBytes": "1600"
      },
      "t_bool": {
        "encoding": "inplace",
        "label": "bool",
        "numberOfBytes": "1"
      },
      "t_contract(IERC20)3612": {
        "encoding": "inplace",
        "label": "contract IERC20",
        "numberOfBytes": "20"
      },
      "t_contract(IERC4626)30826": {
        "encoding": "inplace",
        "label": "contract IERC4626",
        "numberOfBytes": "20"
      },
      "t_contract(IGlpManager)31297": {
        "encoding": "inplace",
        "label": "contract IGlpManager",
        "numberOfBytes": "20"
      },
      "t_contract(IRewardRouterV2)31476": {
        "encoding": "inplace",
        "label": "contract IRewardRouterV2",
        "numberOfBytes": "20"
      },
      "t_mapping(t_address,t_struct(UserDeposit)31121_storage)": {
        "encoding": "mapping",
        "key": "t_address",
        "label": "mapping(address => struct IGMXBatchingManager.UserDeposit)",
        "numberOfBytes": "32",
        "value": "t_struct(UserDeposit)31121_storage"
      },
      "t_mapping(t_contract(IERC4626)30826,t_struct(VaultBatchingState)38038_storage)": {
        "encoding": "mapping",
        "key": "t_contract(IERC4626)30826",
        "label": "mapping(contract IERC4626 => struct GMXBatchingManager.VaultBatchingState)",
        "numberOfBytes": "32",
        "value": "t_struct(VaultBatchingState)38038_storage"
      },
      "t_mapping(t_uint256,t_struct(RoundDeposit)31126_storage)": {
        "encoding": "mapping",
        "key": "t_uint256",
        "label": "mapping(uint256 => struct IGMXBatchingManager.RoundDeposit)",
        "numberOfBytes": "32",
        "value": "t_struct(RoundDeposit)31126_storage"
      },
      "t_struct(RoundDeposit)31126_storage": {
        "encoding": "inplace",
        "label": "struct IGMXBatchingManager.RoundDeposit",
        "members": [
          {
            "astId": 31123,
            "contract": "contracts/yieldStrategy/gmx/GMXBatchingManager.sol:GMXBatchingManager",
            "label": "totalGlp",
            "offset": 0,
            "slot": "0",
            "type": "t_uint128"
          },
          {
            "astId": 31125,
            "contract": "contracts/yieldStrategy/gmx/GMXBatchingManager.sol:GMXBatchingManager",
            "label": "totalShares",
            "offset": 16,
            "slot": "0",
            "type": "t_uint128"
          }
        ],
        "numberOfBytes": "32"
      },
      "t_struct(UserDeposit)31121_storage": {
        "encoding": "inplace",
        "label": "struct IGMXBatchingManager.UserDeposit",
        "members": [
          {
            "astId": 31116,
            "contract": "contracts/yieldStrategy/gmx/GMXBatchingManager.sol:GMXBatchingManager",
            "label": "round",
            "offset": 0,
            "slot": "0",
            "type": "t_uint256"
          },
          {
            "astId": 31118,
            "contract": "contracts/yieldStrategy/gmx/GMXBatchingManager.sol:GMXBatchingManager",
            "label": "glpBalance",
            "offset": 0,
            "slot": "1",
            "type": "t_uint128"
          },
          {
            "astId": 31120,
            "contract": "contracts/yieldStrategy/gmx/GMXBatchingManager.sol:GMXBatchingManager",
            "label": "unclaimedShares",
            "offset": 16,
            "slot": "1",
            "type": "t_uint128"
          }
        ],
        "numberOfBytes": "64"
      },
      "t_struct(VaultBatchingState)38038_storage": {
        "encoding": "inplace",
        "label": "struct GMXBatchingManager.VaultBatchingState",
        "members": [
          {
            "astId": 38025,
            "contract": "contracts/yieldStrategy/gmx/GMXBatchingManager.sol:GMXBatchingManager",
            "label": "currentRound",
            "offset": 0,
            "slot": "0",
            "type": "t_uint256"
          },
          {
            "astId": 38027,
            "contract": "contracts/yieldStrategy/gmx/GMXBatchingManager.sol:GMXBatchingManager",
            "label": "roundGlpBalance",
            "offset": 0,
            "slot": "1",
            "type": "t_uint256"
          },
          {
            "astId": 38032,
            "contract": "contracts/yieldStrategy/gmx/GMXBatchingManager.sol:GMXBatchingManager",
            "label": "userDeposits",
            "offset": 0,
            "slot": "2",
            "type": "t_mapping(t_address,t_struct(UserDeposit)31121_storage)"
          },
          {
            "astId": 38037,
            "contract": "contracts/yieldStrategy/gmx/GMXBatchingManager.sol:GMXBatchingManager",
            "label": "roundDeposits",
            "offset": 0,
            "slot": "3",
            "type": "t_mapping(t_uint256,t_struct(RoundDeposit)31126_storage)"
          }
        ],
        "numberOfBytes": "128"
      },
      "t_uint128": {
        "encoding": "inplace",
        "label": "uint128",
        "numberOfBytes": "16"
      },
      "t_uint16": {
        "encoding": "inplace",
        "label": "uint16",
        "numberOfBytes": "2"
      },
      "t_uint256": {
        "encoding": "inplace",
        "label": "uint256",
        "numberOfBytes": "32"
      },
      "t_uint8": {
        "encoding": "inplace",
        "label": "uint8",
        "numberOfBytes": "1"
      }
    }
  }
}