{
  "address": "0xf17BD8342862de086b9871771224C5d3Bc180D3F",
  "abi": [
    {
      "inputs": [
        {
          "internalType": "uint256",
          "name": "depositCap",
          "type": "uint256"
        },
        {
          "internalType": "uint256",
          "name": "depositAmount",
          "type": "uint256"
        }
      ],
      "name": "BV_DepositCap",
      "type": "error"
    },
    {
      "inputs": [],
      "name": "BV_InvalidRebalance",
      "type": "error"
    },
    {
      "inputs": [],
      "name": "BV_NoPositionToRebalance",
      "type": "error"
    },
    {
      "inputs": [
        {
          "internalType": "address",
          "name": "msgSender",
          "type": "address"
        },
        {
          "internalType": "address",
          "name": "authorisedKeeperAddress",
          "type": "address"
        }
      ],
      "name": "BV_OnlyKeeperAllowed",
      "type": "error"
    },
    {
      "inputs": [],
      "name": "ETRS_INVALID_CLOSE",
      "type": "error"
    },
    {
      "inputs": [],
      "name": "GYS_INVALID_SETTER_VALUES",
      "type": "error"
    },
    {
      "anonymous": false,
      "inputs": [
        {
          "indexed": true,
          "internalType": "address",
          "name": "owner",
          "type": "address"
        },
        {
          "indexed": true,
          "internalType": "address",
          "name": "spender",
          "type": "address"
        },
        {
          "indexed": false,
          "internalType": "uint256",
          "name": "value",
          "type": "uint256"
        }
      ],
      "name": "Approval",
      "type": "event"
    },
    {
      "anonymous": false,
      "inputs": [
        {
          "indexed": true,
          "internalType": "address",
          "name": "caller",
          "type": "address"
        },
        {
          "indexed": true,
          "internalType": "address",
          "name": "owner",
          "type": "address"
        },
        {
          "indexed": false,
          "internalType": "uint256",
          "name": "assets",
          "type": "uint256"
        },
        {
          "indexed": false,
          "internalType": "uint256",
          "name": "shares",
          "type": "uint256"
        }
      ],
      "name": "Deposit",
      "type": "event"
    },
    {
      "anonymous": false,
      "inputs": [
        {
          "indexed": false,
          "internalType": "address",
          "name": "stakingManager",
          "type": "address"
        },
        {
          "indexed": false,
          "internalType": "uint256",
          "name": "usdcReedemSlippage",
          "type": "uint256"
        },
        {
          "indexed": false,
          "internalType": "uint240",
          "name": "usdcConversionThreshold",
          "type": "uint240"
        }
      ],
      "name": "GmxParamsUpdated",
      "type": "event"
    },
    {
      "anonymous": false,
      "inputs": [
        {
          "indexed": false,
          "internalType": "uint8",
          "name": "version",
          "type": "uint8"
        }
      ],
      "name": "Initialized",
      "type": "event"
    },
    {
      "anonymous": false,
      "inputs": [
        {
          "indexed": true,
          "internalType": "address",
          "name": "previousOwner",
          "type": "address"
        },
        {
          "indexed": true,
          "internalType": "address",
          "name": "newOwner",
          "type": "address"
        }
      ],
      "name": "OwnershipTransferred",
      "type": "event"
    },
    {
      "anonymous": false,
      "inputs": [
        {
          "indexed": false,
          "internalType": "address",
          "name": "token",
          "type": "address"
        },
        {
          "indexed": false,
          "internalType": "uint256",
          "name": "sGLPQuantity",
          "type": "uint256"
        },
        {
          "indexed": false,
          "internalType": "uint256",
          "name": "shares",
          "type": "uint256"
        },
        {
          "indexed": false,
          "internalType": "address",
          "name": "receiver",
          "type": "address"
        }
      ],
      "name": "TokenRedeemded",
      "type": "event"
    },
    {
      "anonymous": false,
      "inputs": [
        {
          "indexed": false,
          "internalType": "address",
          "name": "token",
          "type": "address"
        },
        {
          "indexed": false,
          "internalType": "uint256",
          "name": "sGLPQuantity",
          "type": "uint256"
        },
        {
          "indexed": false,
          "internalType": "uint256",
          "name": "shares",
          "type": "uint256"
        },
        {
          "indexed": false,
          "internalType": "address",
          "name": "receiver",
          "type": "address"
        }
      ],
      "name": "TokenWithdrawn",
      "type": "event"
    },
    {
      "anonymous": false,
      "inputs": [
        {
          "indexed": true,
          "internalType": "address",
          "name": "from",
          "type": "address"
        },
        {
          "indexed": true,
          "internalType": "address",
          "name": "to",
          "type": "address"
        },
        {
          "indexed": false,
          "internalType": "uint256",
          "name": "value",
          "type": "uint256"
        }
      ],
      "name": "Transfer",
      "type": "event"
    },
    {
      "anonymous": false,
      "inputs": [
        {
          "indexed": true,
          "internalType": "address",
          "name": "caller",
          "type": "address"
        },
        {
          "indexed": true,
          "internalType": "address",
          "name": "receiver",
          "type": "address"
        },
        {
          "indexed": true,
          "internalType": "address",
          "name": "owner",
          "type": "address"
        },
        {
          "indexed": false,
          "internalType": "uint256",
          "name": "assets",
          "type": "uint256"
        },
        {
          "indexed": false,
          "internalType": "uint256",
          "name": "shares",
          "type": "uint256"
        }
      ],
      "name": "Withdraw",
      "type": "event"
    },
    {
      "inputs": [],
      "name": "MAX_BPS",
      "outputs": [
        {
          "internalType": "uint16",
          "name": "",
          "type": "uint16"
        }
      ],
      "stateMutability": "view",
      "type": "function"
    },
    {
      "inputs": [
        {
          "internalType": "address",
          "name": "owner",
          "type": "address"
        },
        {
          "internalType": "address",
          "name": "spender",
          "type": "address"
        }
      ],
      "name": "allowance",
      "outputs": [
        {
          "internalType": "uint256",
          "name": "",
          "type": "uint256"
        }
      ],
      "stateMutability": "view",
      "type": "function"
    },
    {
      "inputs": [
        {
          "internalType": "address",
          "name": "spender",
          "type": "address"
        },
        {
          "internalType": "uint256",
          "name": "amount",
          "type": "uint256"
        }
      ],
      "name": "approve",
      "outputs": [
        {
          "internalType": "bool",
          "name": "",
          "type": "bool"
        }
      ],
      "stateMutability": "nonpayable",
      "type": "function"
    },
    {
      "inputs": [],
      "name": "asset",
      "outputs": [
        {
          "internalType": "contract IERC20Metadata",
          "name": "",
          "type": "address"
        }
      ],
      "stateMutability": "view",
      "type": "function"
    },
    {
      "inputs": [
        {
          "internalType": "address",
          "name": "account",
          "type": "address"
        }
      ],
      "name": "balanceOf",
      "outputs": [
        {
          "internalType": "uint256",
          "name": "",
          "type": "uint256"
        }
      ],
      "stateMutability": "view",
      "type": "function"
    },
    {
      "inputs": [],
      "name": "baseLiquidity",
      "outputs": [
        {
          "internalType": "uint128",
          "name": "",
          "type": "uint128"
        }
      ],
      "stateMutability": "view",
      "type": "function"
    },
    {
      "inputs": [],
      "name": "baseTickLower",
      "outputs": [
        {
          "internalType": "int24",
          "name": "",
          "type": "int24"
        }
      ],
      "stateMutability": "view",
      "type": "function"
    },
    {
      "inputs": [],
      "name": "baseTickUpper",
      "outputs": [
        {
          "internalType": "int24",
          "name": "",
          "type": "int24"
        }
      ],
      "stateMutability": "view",
      "type": "function"
    },
    {
      "inputs": [],
      "name": "closePositionSlippageSqrtToleranceBps",
      "outputs": [
        {
          "internalType": "uint16",
          "name": "",
          "type": "uint16"
        }
      ],
      "stateMutability": "view",
      "type": "function"
    },
    {
      "inputs": [],
      "name": "closeTokenPosition",
      "outputs": [],
      "stateMutability": "nonpayable",
      "type": "function"
    },
    {
      "inputs": [
        {
          "internalType": "uint256",
          "name": "shares",
          "type": "uint256"
        }
      ],
      "name": "convertToAssets",
      "outputs": [
        {
          "internalType": "uint256",
          "name": "",
          "type": "uint256"
        }
      ],
      "stateMutability": "view",
      "type": "function"
    },
    {
      "inputs": [
        {
          "internalType": "uint256",
          "name": "assets",
          "type": "uint256"
        }
      ],
      "name": "convertToShares",
      "outputs": [
        {
          "internalType": "uint256",
          "name": "",
          "type": "uint256"
        }
      ],
      "stateMutability": "view",
      "type": "function"
    },
    {
      "inputs": [],
      "name": "decimals",
      "outputs": [
        {
          "internalType": "uint8",
          "name": "",
          "type": "uint8"
        }
      ],
      "stateMutability": "view",
      "type": "function"
    },
    {
      "inputs": [
        {
          "internalType": "address",
          "name": "spender",
          "type": "address"
        },
        {
          "internalType": "uint256",
          "name": "subtractedValue",
          "type": "uint256"
        }
      ],
      "name": "decreaseAllowance",
      "outputs": [
        {
          "internalType": "bool",
          "name": "",
          "type": "bool"
        }
      ],
      "stateMutability": "nonpayable",
      "type": "function"
    },
    {
      "inputs": [
        {
          "internalType": "uint256",
          "name": "amount",
          "type": "uint256"
        },
        {
          "internalType": "address",
          "name": "to",
          "type": "address"
        }
      ],
      "name": "deposit",
      "outputs": [
        {
          "internalType": "uint256",
          "name": "shares",
          "type": "uint256"
        }
      ],
      "stateMutability": "nonpayable",
      "type": "function"
    },
    {
      "inputs": [],
      "name": "depositCap",
      "outputs": [
        {
          "internalType": "uint256",
          "name": "",
          "type": "uint256"
        }
      ],
      "stateMutability": "view",
      "type": "function"
    },
    {
      "inputs": [],
      "name": "ethPoolId",
      "outputs": [
        {
          "internalType": "uint32",
          "name": "",
          "type": "uint32"
        }
      ],
      "stateMutability": "view",
      "type": "function"
    },
    {
      "inputs": [
        {
          "internalType": "bytes32",
          "name": "slot",
          "type": "bytes32"
        }
      ],
      "name": "extsload",
      "outputs": [
        {
          "internalType": "bytes32",
          "name": "val",
          "type": "bytes32"
        }
      ],
      "stateMutability": "view",
      "type": "function"
    },
    {
      "inputs": [
        {
          "internalType": "bytes32[]",
          "name": "slots",
          "type": "bytes32[]"
        }
      ],
      "name": "extsload",
      "outputs": [
        {
          "internalType": "bytes32[]",
          "name": "",
          "type": "bytes32[]"
        }
      ],
      "stateMutability": "view",
      "type": "function"
    },
    {
      "inputs": [
        {
          "internalType": "uint256",
          "name": "assetAmount",
          "type": "uint256"
        }
      ],
      "name": "getMarketValue",
      "outputs": [
        {
          "internalType": "uint256",
          "name": "marketValue",
          "type": "uint256"
        }
      ],
      "stateMutability": "view",
      "type": "function"
    },
    {
      "inputs": [],
      "name": "getPriceX128",
      "outputs": [
        {
          "internalType": "uint256",
          "name": "priceX128",
          "type": "uint256"
        }
      ],
      "stateMutability": "view",
      "type": "function"
    },
    {
      "inputs": [],
      "name": "getVaultMarketValue",
      "outputs": [
        {
          "internalType": "int256",
          "name": "vaultMarketValue",
          "type": "int256"
        }
      ],
      "stateMutability": "view",
      "type": "function"
    },
    {
      "inputs": [],
      "name": "grantAllowances",
      "outputs": [],
      "stateMutability": "nonpayable",
      "type": "function"
    },
    {
      "inputs": [
        {
          "internalType": "address",
          "name": "spender",
          "type": "address"
        },
        {
          "internalType": "uint256",
          "name": "addedValue",
          "type": "uint256"
        }
      ],
      "name": "increaseAllowance",
      "outputs": [
        {
          "internalType": "bool",
          "name": "",
          "type": "bool"
        }
      ],
      "stateMutability": "nonpayable",
      "type": "function"
    },
    {
      "inputs": [
        {
          "components": [
            {
              "components": [
                {
                  "components": [
                    {
                      "components": [
                        {
                          "internalType": "contract IERC20Metadata",
                          "name": "asset",
                          "type": "address"
                        },
                        {
                          "internalType": "string",
                          "name": "name",
                          "type": "string"
                        },
                        {
                          "internalType": "string",
                          "name": "symbol",
                          "type": "string"
                        }
                      ],
                      "internalType": "struct RageERC4626.RageERC4626InitParams",
                      "name": "rageErc4626InitParams",
                      "type": "tuple"
                    },
                    {
                      "internalType": "uint32",
                      "name": "ethPoolId",
                      "type": "uint32"
                    },
                    {
                      "internalType": "address",
                      "name": "swapSimulator",
                      "type": "address"
                    },
                    {
                      "internalType": "address",
                      "name": "rageClearingHouse",
                      "type": "address"
                    },
                    {
                      "internalType": "address",
                      "name": "clearingHouseLens",
                      "type": "address"
                    },
                    {
                      "internalType": "address",
                      "name": "rageCollateralToken",
                      "type": "address"
                    },
                    {
                      "internalType": "address",
                      "name": "rageSettlementToken",
                      "type": "address"
                    }
                  ],
                  "internalType": "struct BaseVault.BaseVaultInitParams",
                  "name": "baseVaultInitParams",
                  "type": "tuple"
                },
                {
                  "internalType": "uint16",
                  "name": "closePositionSlippageSqrtToleranceBps",
                  "type": "uint16"
                },
                {
                  "internalType": "uint16",
                  "name": "resetPositionThresholdBps",
                  "type": "uint16"
                },
                {
                  "internalType": "uint64",
                  "name": "minNotionalPositionToCloseThreshold",
                  "type": "uint64"
                }
              ],
              "internalType": "struct EightyTwentyRangeStrategyVault.EightyTwentyRangeStrategyVaultInitParams",
              "name": "eightyTwentyRangeStrategyVaultInitParams",
              "type": "tuple"
            },
            {
              "internalType": "contract IRewardRouterV2",
              "name": "rewardRouter",
              "type": "address"
            }
          ],
          "internalType": "struct GMXYieldStrategy.GMXYieldStrategyInitParams",
          "name": "gmxYieldStrategyInitParams",
          "type": "tuple"
        }
      ],
      "name": "initialize",
      "outputs": [],
      "stateMutability": "nonpayable",
      "type": "function"
    },
    {
      "inputs": [],
      "name": "isReset",
      "outputs": [
        {
          "internalType": "bool",
          "name": "",
          "type": "bool"
        }
      ],
      "stateMutability": "view",
      "type": "function"
    },
    {
      "inputs": [
        {
          "internalType": "int256",
          "name": "vaultMarketValue",
          "type": "int256"
        }
      ],
      "name": "isValidRebalance",
      "outputs": [
        {
          "internalType": "bool",
          "name": "isValid",
          "type": "bool"
        }
      ],
      "stateMutability": "view",
      "type": "function"
    },
    {
      "inputs": [],
      "name": "keeper",
      "outputs": [
        {
          "internalType": "address",
          "name": "",
          "type": "address"
        }
      ],
      "stateMutability": "view",
      "type": "function"
    },
    {
      "inputs": [],
      "name": "lastRebalanceTS",
      "outputs": [
        {
          "internalType": "uint64",
          "name": "",
          "type": "uint64"
        }
      ],
      "stateMutability": "view",
      "type": "function"
    },
    {
      "inputs": [
        {
          "internalType": "address",
          "name": "",
          "type": "address"
        }
      ],
      "name": "maxDeposit",
      "outputs": [
        {
          "internalType": "uint256",
          "name": "",
          "type": "uint256"
        }
      ],
      "stateMutability": "view",
      "type": "function"
    },
    {
      "inputs": [
        {
          "internalType": "address",
          "name": "",
          "type": "address"
        }
      ],
      "name": "maxMint",
      "outputs": [
        {
          "internalType": "uint256",
          "name": "",
          "type": "uint256"
        }
      ],
      "stateMutability": "view",
      "type": "function"
    },
    {
      "inputs": [
        {
          "internalType": "address",
          "name": "owner",
          "type": "address"
        }
      ],
      "name": "maxRedeem",
      "outputs": [
        {
          "internalType": "uint256",
          "name": "",
          "type": "uint256"
        }
      ],
      "stateMutability": "view",
      "type": "function"
    },
    {
      "inputs": [
        {
          "internalType": "address",
          "name": "owner",
          "type": "address"
        }
      ],
      "name": "maxWithdraw",
      "outputs": [
        {
          "internalType": "uint256",
          "name": "",
          "type": "uint256"
        }
      ],
      "stateMutability": "view",
      "type": "function"
    },
    {
      "inputs": [],
      "name": "minNotionalPositionToCloseThreshold",
      "outputs": [
        {
          "internalType": "uint64",
          "name": "",
          "type": "uint64"
        }
      ],
      "stateMutability": "view",
      "type": "function"
    },
    {
      "inputs": [
        {
          "internalType": "uint256",
          "name": "shares",
          "type": "uint256"
        },
        {
          "internalType": "address",
          "name": "to",
          "type": "address"
        }
      ],
      "name": "mint",
      "outputs": [
        {
          "internalType": "uint256",
          "name": "amount",
          "type": "uint256"
        }
      ],
      "stateMutability": "nonpayable",
      "type": "function"
    },
    {
      "inputs": [],
      "name": "name",
      "outputs": [
        {
          "internalType": "string",
          "name": "",
          "type": "string"
        }
      ],
      "stateMutability": "view",
      "type": "function"
    },
    {
      "inputs": [],
      "name": "owner",
      "outputs": [
        {
          "internalType": "address",
          "name": "",
          "type": "address"
        }
      ],
      "stateMutability": "view",
      "type": "function"
    },
    {
      "inputs": [
        {
          "internalType": "uint256",
          "name": "assets",
          "type": "uint256"
        }
      ],
      "name": "previewDeposit",
      "outputs": [
        {
          "internalType": "uint256",
          "name": "",
          "type": "uint256"
        }
      ],
      "stateMutability": "view",
      "type": "function"
    },
    {
      "inputs": [
        {
          "internalType": "uint256",
          "name": "shares",
          "type": "uint256"
        }
      ],
      "name": "previewMint",
      "outputs": [
        {
          "internalType": "uint256",
          "name": "",
          "type": "uint256"
        }
      ],
      "stateMutability": "view",
      "type": "function"
    },
    {
      "inputs": [
        {
          "internalType": "uint256",
          "name": "shares",
          "type": "uint256"
        }
      ],
      "name": "previewRedeem",
      "outputs": [
        {
          "internalType": "uint256",
          "name": "",
          "type": "uint256"
        }
      ],
      "stateMutability": "view",
      "type": "function"
    },
    {
      "inputs": [
        {
          "internalType": "uint256",
          "name": "assets",
          "type": "uint256"
        }
      ],
      "name": "previewWithdraw",
      "outputs": [
        {
          "internalType": "uint256",
          "name": "",
          "type": "uint256"
        }
      ],
      "stateMutability": "view",
      "type": "function"
    },
    {
      "inputs": [],
      "name": "rageAccountNo",
      "outputs": [
        {
          "internalType": "uint256",
          "name": "",
          "type": "uint256"
        }
      ],
      "stateMutability": "view",
      "type": "function"
    },
    {
      "inputs": [],
      "name": "rageClearingHouse",
      "outputs": [
        {
          "internalType": "contract IClearingHouse",
          "name": "",
          "type": "address"
        }
      ],
      "stateMutability": "view",
      "type": "function"
    },
    {
      "inputs": [],
      "name": "rageVPool",
      "outputs": [
        {
          "internalType": "contract IUniswapV3Pool",
          "name": "",
          "type": "address"
        }
      ],
      "stateMutability": "view",
      "type": "function"
    },
    {
      "inputs": [],
      "name": "rebalance",
      "outputs": [],
      "stateMutability": "nonpayable",
      "type": "function"
    },
    {
      "inputs": [],
      "name": "rebalancePriceThresholdBps",
      "outputs": [
        {
          "internalType": "uint16",
          "name": "",
          "type": "uint16"
        }
      ],
      "stateMutability": "view",
      "type": "function"
    },
    {
      "inputs": [],
      "name": "rebalanceTimeThreshold",
      "outputs": [
        {
          "internalType": "uint32",
          "name": "",
          "type": "uint32"
        }
      ],
      "stateMutability": "view",
      "type": "function"
    },
    {
      "inputs": [
        {
          "internalType": "uint256",
          "name": "shares",
          "type": "uint256"
        },
        {
          "internalType": "address",
          "name": "to",
          "type": "address"
        },
        {
          "internalType": "address",
          "name": "from",
          "type": "address"
        }
      ],
      "name": "redeem",
      "outputs": [
        {
          "internalType": "uint256",
          "name": "amount",
          "type": "uint256"
        }
      ],
      "stateMutability": "nonpayable",
      "type": "function"
    },
    {
      "inputs": [
        {
          "internalType": "contract IERC20",
          "name": "token",
          "type": "address"
        },
        {
          "internalType": "uint256",
          "name": "shares",
          "type": "uint256"
        },
        {
          "internalType": "uint256",
          "name": "minTokenOut",
          "type": "uint256"
        },
        {
          "internalType": "address",
          "name": "receiver",
          "type": "address"
        }
      ],
      "name": "redeemToken",
      "outputs": [],
      "stateMutability": "nonpayable",
      "type": "function"
    },
    {
      "inputs": [],
      "name": "renounceOwnership",
      "outputs": [],
      "stateMutability": "nonpayable",
      "type": "function"
    },
    {
      "inputs": [
        {
          "internalType": "uint16",
          "name": "_closePositionSlippageSqrtToleranceBps",
          "type": "uint16"
        },
        {
          "internalType": "uint16",
          "name": "_resetPositionThresholdBps",
          "type": "uint16"
        },
        {
          "internalType": "uint64",
          "name": "_minNotionalPositionToCloseThreshold",
          "type": "uint64"
        }
      ],
      "name": "setEightTwentyParams",
      "outputs": [],
      "stateMutability": "nonpayable",
      "type": "function"
    },
    {
      "inputs": [],
      "name": "swapSimulator",
      "outputs": [
        {
          "internalType": "contract ISwapSimulator",
          "name": "",
          "type": "address"
        }
      ],
      "stateMutability": "view",
      "type": "function"
    },
    {
      "inputs": [],
      "name": "symbol",
      "outputs": [
        {
          "internalType": "string",
          "name": "",
          "type": "string"
        }
      ],
      "stateMutability": "view",
      "type": "function"
    },
    {
      "inputs": [],
      "name": "totalAssets",
      "outputs": [
        {
          "internalType": "uint256",
          "name": "",
          "type": "uint256"
        }
      ],
      "stateMutability": "view",
      "type": "function"
    },
    {
      "inputs": [],
      "name": "totalSupply",
      "outputs": [
        {
          "internalType": "uint256",
          "name": "",
          "type": "uint256"
        }
      ],
      "stateMutability": "view",
      "type": "function"
    },
    {
      "inputs": [
        {
          "internalType": "address",
          "name": "to",
          "type": "address"
        },
        {
          "internalType": "uint256",
          "name": "amount",
          "type": "uint256"
        }
      ],
      "name": "transfer",
      "outputs": [
        {
          "internalType": "bool",
          "name": "",
          "type": "bool"
        }
      ],
      "stateMutability": "nonpayable",
      "type": "function"
    },
    {
      "inputs": [
        {
          "internalType": "address",
          "name": "from",
          "type": "address"
        },
        {
          "internalType": "address",
          "name": "to",
          "type": "address"
        },
        {
          "internalType": "uint256",
          "name": "amount",
          "type": "uint256"
        }
      ],
      "name": "transferFrom",
      "outputs": [
        {
          "internalType": "bool",
          "name": "",
          "type": "bool"
        }
      ],
      "stateMutability": "nonpayable",
      "type": "function"
    },
    {
      "inputs": [
        {
          "internalType": "address",
          "name": "newOwner",
          "type": "address"
        }
      ],
      "name": "transferOwnership",
      "outputs": [],
      "stateMutability": "nonpayable",
      "type": "function"
    },
    {
      "inputs": [
        {
          "internalType": "uint256",
          "name": "newDepositCap",
          "type": "uint256"
        },
        {
          "internalType": "address",
          "name": "newKeeperAddress",
          "type": "address"
        },
        {
          "internalType": "uint32",
          "name": "_rebalanceTimeThreshold",
          "type": "uint32"
        },
        {
          "internalType": "uint16",
          "name": "_rebalancePriceThresholdBps",
          "type": "uint16"
        }
      ],
      "name": "updateBaseParams",
      "outputs": [],
      "stateMutability": "nonpayable",
      "type": "function"
    },
    {
      "inputs": [
        {
          "internalType": "address",
          "name": "_stakingManager",
          "type": "address"
        },
        {
          "internalType": "uint16",
          "name": "_usdcReedemSlippage",
          "type": "uint16"
        },
        {
          "internalType": "uint240",
          "name": "_usdcConversionThreshold",
          "type": "uint240"
        }
      ],
      "name": "updateGMXParams",
      "outputs": [],
      "stateMutability": "nonpayable",
      "type": "function"
    },
    {
      "inputs": [],
      "name": "usdcConversionThreshold",
      "outputs": [
        {
          "internalType": "uint240",
          "name": "",
          "type": "uint240"
        }
      ],
      "stateMutability": "view",
      "type": "function"
    },
    {
      "inputs": [],
      "name": "usdcReedemSlippage",
      "outputs": [
        {
          "internalType": "uint16",
          "name": "",
          "type": "uint16"
        }
      ],
      "stateMutability": "view",
      "type": "function"
    },
    {
      "inputs": [
        {
          "internalType": "uint256",
          "name": "amount",
          "type": "uint256"
        },
        {
          "internalType": "address",
          "name": "to",
          "type": "address"
        },
        {
          "internalType": "address",
          "name": "from",
          "type": "address"
        }
      ],
      "name": "withdraw",
      "outputs": [
        {
          "internalType": "uint256",
          "name": "shares",
          "type": "uint256"
        }
      ],
      "stateMutability": "nonpayable",
      "type": "function"
    },
    {
      "inputs": [
        {
          "internalType": "contract IERC20",
          "name": "token",
          "type": "address"
        },
        {
          "internalType": "uint256",
          "name": "_sGLP",
          "type": "uint256"
        },
        {
          "internalType": "uint256",
          "name": "minTokenOut",
          "type": "uint256"
        },
        {
          "internalType": "address",
          "name": "receiver",
          "type": "address"
        }
      ],
      "name": "withdrawToken",
      "outputs": [],
      "stateMutability": "nonpayable",
      "type": "function"
    }
  ],
  "transactionHash": "0xb400b7f7a39ddc1444392b284d8cc81f2413fbd5c4a8ca1dcc9afd6c73aa8b9e",
  "args": [],
  "numDeployments": 2,
  "solcInputHash": "1e4c8fcd63c9e7ec20aeb700aeb57a50",
  "bytecode": "0x608060405234801561001057600080fd5b506159f180620000216000396000f3fe608060405234801561001057600080fd5b50600436106103d05760003560e01c80637d7c2a1c116101ff578063c63d75b61161011a578063e6648853116100ad578063f2fde38b1161007c578063f2fde38b146108fa578063fcb777ef1461090d578063fd967f4714610920578063ff9281531461092957600080fd5b8063e6648853146108b0578063ee3a98ff146108b9578063ef8b30f7146108d4578063f0c4e886146108e757600080fd5b8063d905777e116100e9578063d905777e1461083b578063dbd035ff1461084e578063dbd5edc71461086e578063dd62ed3e1461087757600080fd5b8063c63d75b6146107eb578063c6e6f592146107fe578063ce96cb7714610811578063d4406e891461082457600080fd5b8063a9059cbb11610192578063b6cdc2d511610161578063b6cdc2d5146107a9578063b81aecd9146107bd578063ba087652146107d0578063bf9571f1146107e357600080fd5b8063a9059cbb1461075d578063aced166114610770578063b3d7f6b914610783578063b460af941461079657600080fd5b806395d89b41116101ce57806395d89b4114610720578063999693281461072857806399a26af91461073b578063a457c2d71461074a57600080fd5b80637d7c2a1c146106ec5780638d315d7b146106f45780638da5cb5b146106fc57806394bf804d1461070d57600080fd5b8063402d267d116102ef5780635f63e0661161028257806370a082311161025157806370a0823114610681578063715018a6146106aa57806376533b92146106b25780637999e84e146106e457600080fd5b80635f63e0661461061e578063620bc225146106315780636a8db81d146106595780636e553f651461066e57600080fd5b80635285ec39116102be5780635285ec39146105d1578063554070bc146105e457806356501144146105f757806357b082fc1461060a57600080fd5b8063402d267d146105545780634afe813e146105675780634cdad506146105935780635053145f146105a657600080fd5b80631e2eaeaf1161036757806338d52e0f1161033657806338d52e0f146104fa57806339509351146105255780633d672a45146105385780633f6be8221461054057600080fd5b80631e2eaeaf146104b157806323b872dd146104c35780632717d25b146104d6578063313ce567146104eb57600080fd5b806309a68a92116103a357806309a68a921461043b5780630a28a4771461046257806318160ddd146104755780631aa3dfbb1461047d57600080fd5b806301e1d114146103d557806306fdde03146103f057806307a2d13a14610405578063095ea7b314610418575b600080fd5b6103dd61093c565b6040519081526020015b60405180910390f35b6103f86109c2565b6040516103e79190614cac565b6103dd610413366004614cdf565b610a54565b61042b610426366004614d18565b610a89565b60405190151581526020016103e7565b60a15461044f90600160b81b900460020b81565b60405160029190910b81526020016103e7565b6103dd610470366004614cdf565b610aa3565b6035546103dd565b60a25461049890600160a81b900467ffffffffffffffff1681565b60405167ffffffffffffffff90911681526020016103e7565b6103dd6104bf366004614cdf565b5490565b61042b6104d1366004614d44565b610abb565b6104e96104e4366004614d97565b610adf565b005b604051601281526020016103e7565b60655461050d906001600160a01b031681565b6040516001600160a01b0390911681526020016103e7565b61042b610533366004614d18565b610bff565b6103dd610c3e565b60a0546104989067ffffffffffffffff1681565b6103dd610562366004614dec565b610d5a565b60a05461057e90600160501b900463ffffffff1681565b60405163ffffffff90911681526020016103e7565b6103dd6105a1366004614cdf565b610dd0565b60a2546105b9906001600160801b031681565b6040516001600160801b0390911681526020016103e7565b6104e96105df366004614e09565b610df2565b6103dd6105f2366004614cdf565b610f5f565b6104e9610605366004614e67565b610f78565b60a25461042b90600160801b900460ff1681565b609a5461050d906001600160a01b031681565b60a05461064690600160401b900461ffff1681565b60405161ffff90911681526020016103e7565b60a25461064690600160881b900461ffff1681565b6103dd61067c366004614eb6565b611076565b6103dd61068f366004614dec565b6001600160a01b031660009081526033602052604090205490565b6104e961108a565b610107546106cc906201000090046001600160f01b031681565b6040516001600160f01b0390911681526020016103e7565b6104e96110de565b6104e96111b5565b6103dd611288565b6066546001600160a01b031661050d565b6103dd61071b366004614eb6565b611319565b6103f861132d565b6104e96107363660046150c3565b61133c565b610107546106469061ffff1681565b61042b610758366004614d18565b6113b3565b61042b61076b366004614d18565b611445565b60a15461050d906001600160a01b031681565b6103dd610791366004614cdf565b611453565b6103dd6107a4366004615231565b61147a565b60a15461044f90600160a01b900460020b81565b61042b6107cb366004614cdf565b611575565b6103dd6107de366004615231565b61158e565b6104e96116d7565b6103dd6107f9366004614dec565b611917565b6103dd61080c366004614cdf565b611926565b6103dd61081f366004614dec565b61194e565b609c5461057e90600160a01b900463ffffffff1681565b6103dd610849366004614dec565b611975565b61086161085c366004615268565b611997565b6040516103e7919061530e565b6103dd609f5481565b6103dd610885366004615352565b6001600160a01b03918216600090815260346020908152604080832093909416825291909152205490565b6103dd609d5481565b609e5461050d9064010000000090046001600160a01b031681565b6103dd6108e2366004614cdf565b6119c5565b6104e96108f5366004614e09565b6119d0565b6104e9610908366004614dec565b611b32565b60995461050d906001600160a01b031681565b61064661271081565b6104e9610937366004615380565b611be8565b6000610946611ccc565b6065546040516370a0823160e01b81523060048201526001600160a01b03909116906370a08231906024015b602060405180830381865afa15801561098f573d6000803e3d6000fd5b505050506040513d601f19601f820116820180604052508101906109b391906153c3565b6109bd91906153f2565b905090565b6060603680546109d19061540a565b80601f01602080910402602001604051908101604052809291908181526020018280546109fd9061540a565b8015610a4a5780601f10610a1f57610100808354040283529160200191610a4a565b820191906000526020600020905b815481529060010190602001808311610a2d57829003601f168201915b5050505050905090565b600080610a6060355490565b90508015610a8057610a7b610a7361093c565b849083611d6b565b610a82565b825b9392505050565b600033610a97818585611d8a565b60019150505b92915050565b600080610aaf83611eae565b509050610a8281611ec3565b600033610ac9858285611eeb565b610ad4858585611f7d565b506001949350505050565b6066546001600160a01b03163314610b2c5760405162461bcd60e51b815260206004820181905260248201526000805160206159c583398151915260448201526064015b60405180910390fd5b6001600160a01b03831615801590610b49575061271061ffff8316105b15610b885761ffff8216620100006001600160f01b03831602176101075561010c80546001600160a01b0319166001600160a01b038516179055610ba1565b604051638a4b893760e01b815260040160405180910390fd5b604080516001600160a01b038516815261ffff841660208201526001600160f01b038316918101919091527f5051898c1d1dd86f8ddd55eb56a9f5249cf39f767c9498b9c8cf8cfa50a24cd1906060015b60405180910390a1505050565b3360008181526034602090815260408083206001600160a01b0387168452909152812054909190610a979082908690610c399087906153f2565b611d8a565b61010a5460405163019c8a3b60e11b81526000600482018190529182916001600160a01b0390911690630339147690602401602060405180830381865afa158015610c8d573d6000803e3d6000fd5b505050506040513d601f19601f82011682018060405250810190610cb191906153c3565b9050600061010860009054906101000a90046001600160a01b03166001600160a01b03166318160ddd6040518163ffffffff1660e01b8152600401602060405180830381865afa158015610d09573d6000803e3d6000fd5b505050506040513d601f19601f82011682018060405250810190610d2d91906153c3565b9050610d53600160801b610d4b8369d3c21bcecceda1000000615444565b84919061214b565b9250505090565b6000610d6461093c565b306001600160a01b031663dbd5edc76040518163ffffffff1660e01b8152600401602060405180830381865afa158015610da2573d6000803e3d6000fd5b505050506040513d601f19601f82011682018060405250810190610dc691906153c3565b610a9d9190615463565b600080610ddc83610a54565b90506000610de982611eae565b50949350505050565b6000610dff84303361158e565b60655461010a5460405163095ea7b360e01b81526001600160a01b03918216600482015260248101849052929350169063095ea7b3906044016020604051808303816000875af1158015610e57573d6000803e3d6000fd5b505050506040513d601f19601f82011682018060405250810190610e7b919061547a565b5061010b546040516303cea95560e21b81526001600160a01b0387811660048301526024820184905260448201869052848116606483015290911690630f3aa554906084016020604051808303816000875af1158015610edf573d6000803e3d6000fd5b505050506040513d601f19601f82011682018060405250810190610f0391906153c3565b50604080516001600160a01b0380881682526020820184905291810186905290831660608201527fcd01aacdb76551c07c78c2bb8eb70ea47e39d303786ccf8c95e9afcdcf17920f906080015b60405180910390a15050505050565b6000610a9d610f6c610c3e565b8390600160801b61214b565b6066546001600160a01b03163314610fc05760405162461bcd60e51b815260206004820181905260248201526000805160206159c58339815191526044820152606401610b23565b60a180546001600160a01b0319166001600160a01b038516908117909155609f85905560a080546dffffffffffff00000000000000001916600160501b63ffffffff861690810269ffff0000000000000000191691909117600160401b61ffff86169081029190911790925560408051888152602081019490945283015260608201527f69a94cb0b737928b3387da2d3d2a8d288ec329d009d2b769142dd314cc026ecd9060800160405180910390a150505050565b60006110806121fd565b610a828383612205565b6066546001600160a01b031633146110d25760405162461bcd60e51b815260206004820181905260248201526000805160206159c58339815191526044820152606401610b23565b6110dc60006122c2565b565b60a1546001600160a01b0316331461111e5760a1546040516369958c7360e01b81523360048201526001600160a01b039091166024820152604401610b23565b609854609d54609c5460405163e9b7c36760e01b81526004810192909252600160a01b900463ffffffff1660248201526000916001600160a01b03169063e9b7c36790604401606060405180830381865afa158015611181573d6000803e3d6000fd5b505050506040513d601f19601f820116820180604052508101906111a5919061549c565b509150506111b281612314565b50565b60a1546001600160a01b031633146111f55760a1546040516369958c7360e01b81523360048201526001600160a01b039091166024820152604401610b23565b60006111ff611288565b905061120a81611575565b61122757604051636fa1adc360e01b815260040160405180910390fd5b60006112316123f9565b91505061123e8183612591565b60a0805467ffffffffffffffff19164267ffffffffffffffff161790556040517ff57243a1fddfdc9fa2c7de26cc3503b1b94cfd4368d2b82d0970bfbb2fbce3a490600090a15050565b609a54609d54604051631c7a838360e31b815260048101919091526000916001600160a01b03169063e3d41c1890602401602060405180830381865afa1580156112d6573d6000803e3d6000fd5b505050506040513d601f19601f820116820180604052508101906112fa91906153c3565b905061130f61130a6105f261093c565b6126d1565b6109bd90826154ca565b60006113236121fd565b610a828383612715565b6060603780546109d19061540a565b60006113486001612795565b90508015611360576000805461ff0019166101001790555b611369826128b0565b80156113af576000805461ff0019169055604051600181527f7f26b83ff96e1f2b6a682f133852f6798a09c465da95921460cefb38474024989060200160405180910390a15b5050565b3360008181526034602090815260408083206001600160a01b0387168452909152812054909190838110156114385760405162461bcd60e51b815260206004820152602560248201527f45524332303a2064656372656173656420616c6c6f77616e63652062656c6f77604482015264207a65726f60d81b6064820152608401610b23565b610ad48286868403611d8a565b600033610a97818585611f7d565b60008061145f60355490565b90508015610a8057610a7b61147261093c565b849083612a90565b60006114846121fd565b60008061149086611eae565b9150915061149d82611ec3565b92506114a881612abe565b336001600160a01b038516146114f6576001600160a01b038416600090815260346020908152604080832033845290915290205460001981146114f4576114f48533610c398785615463565b505b6115008284612ac7565b61150a8484612ae1565b60408051838152602081018590526001600160a01b03808716929088169133917ffbde797d201c681b91056529119e0b02407c7bb96a4a2c75c01fc9667232c8db910160405180910390a460655461156c906001600160a01b03168684612c2f565b50509392505050565b600061157f612c92565b80610a9d5750610a9d82612cc0565b60006115986121fd565b60006115a385610a54565b905060006115b082611eae565b909350905060006115c084611ec3565b9050836000036116005760405162461bcd60e51b815260206004820152600b60248201526a5a45524f5f41535345545360a81b6044820152606401610b23565b336001600160a01b0386161461164e576001600160a01b0385166000908152603460209081526040808320338452909152902054600019811461164c5761164c8633610c398585615463565b505b61165782612abe565b6116618482612ac7565b61166b8582612ae1565b60408051858152602081018390526001600160a01b03808816929089169133917ffbde797d201c681b91056529119e0b02407c7bb96a4a2c75c01fc9667232c8db910160405180910390a46065546116cd906001600160a01b03168786612c2f565b5050509392505050565b6066546001600160a01b0316331461171f5760405162461bcd60e51b815260206004820181905260248201526000805160206159c58339815191526044820152606401610b23565b611727612dd4565b60655461010a5460405163095ea7b360e01b81526001600160a01b039182166004820152600019602482015291169063095ea7b3906044016020604051808303816000875af115801561177e573d6000803e3d6000fd5b505050506040513d601f19601f820116820180604052508101906117a2919061547a565b5060655461010c5460405163095ea7b360e01b81526001600160a01b039182166004820152600019602482015291169063095ea7b3906044016020604051808303816000875af11580156117fa573d6000803e3d6000fd5b505050506040513d601f19601f8201168201806040525081019061181e919061547a565b50609b5461010a5460405163095ea7b360e01b81526001600160a01b039182166004820152600019602482015291169063095ea7b3906044016020604051808303816000875af1158015611876573d6000803e3d6000fd5b505050506040513d601f19601f8201168201806040525081019061189a919061547a565b50609b5461010c5460405163095ea7b360e01b81526001600160a01b039182166004820152600019602482015291169063095ea7b3906044015b6020604051808303816000875af11580156118f3573d6000803e3d6000fd5b505050506040513d601f19601f820116820180604052508101906111b2919061547a565b6000610a9d61080c6000610d5a565b60008061193260355490565b90508015610a8057610a7b8161194661093c565b859190611d6b565b6000610a9d610470610413846001600160a01b031660009081526033602052604090205490565b6001600160a01b038116600090815260336020526040812054610a9d90610dd0565b606060208251028201602001602083015b818110156119bd5780515481526020016119a8565b509192915050565b6000610a9d82611926565b60006119dd84303361147a565b60655461010a5460405163095ea7b360e01b81526001600160a01b03918216600482015260248101889052929350169063095ea7b3906044016020604051808303816000875af1158015611a35573d6000803e3d6000fd5b505050506040513d601f19601f82011682018060405250810190611a59919061547a565b5061010b546040516303cea95560e21b81526001600160a01b0387811660048301526024820187905260448201869052848116606483015290911690630f3aa554906084016020604051808303816000875af1158015611abd573d6000803e3d6000fd5b505050506040513d601f19601f82011682018060405250810190611ae191906153c3565b50604080516001600160a01b0380881682526020820187905291810183905290831660608201527f557dddd873c3943ee57068879c42e940597f6472fe0912c9104843ff8274ff3c90608001610f50565b6066546001600160a01b03163314611b7a5760405162461bcd60e51b815260206004820181905260248201526000805160206159c58339815191526044820152606401610b23565b6001600160a01b038116611bdf5760405162461bcd60e51b815260206004820152602660248201527f4f776e61626c653a206e6577206f776e657220697320746865207a65726f206160448201526564647265737360d01b6064820152608401610b23565b6111b2816122c2565b6066546001600160a01b03163314611c305760405162461bcd60e51b815260206004820181905260248201526000805160206159c58339815191526044820152606401610b23565b60a2805463ffffffff60881b1916600160881b61ffff86811691820261ffff60981b191692909217600160981b9286169283021767ffffffffffffffff60a81b1916600160a81b67ffffffffffffffff861690810291909117909355604080519182526020820192909252908101919091527f4a9bdb3bab9a7cff0ea02e1428a3901c565a962f3b99b7d8d2b02787ca4f93f990606001610bf2565b61010c54604051636c82bbbf60e11b81523060048201526000916001600160a01b03169063d905777e90602401602060405180830381865afa158015611d16573d6000803e3d6000fd5b505050506040513d601f19601f82011682018060405250810190611d3a91906153c3565b610109546040516370a0823160e01b81523060048201526001600160a01b03909116906370a0823190602401610972565b828202811515841585830485141716611d8357600080fd5b0492915050565b6001600160a01b038316611dec5760405162461bcd60e51b8152602060048201526024808201527f45524332303a20617070726f76652066726f6d20746865207a65726f206164646044820152637265737360e01b6064820152608401610b23565b6001600160a01b038216611e4d5760405162461bcd60e51b815260206004820152602260248201527f45524332303a20617070726f766520746f20746865207a65726f206164647265604482015261737360f01b6064820152608401610b23565b6001600160a01b0383811660008181526034602090815260408083209487168084529482529182902085905590518481527f8c5be1e5ebec7d5bd14f71427d1e84f3dd0314c0f7b2291e5b200ac8c7c3b925910160405180910390a3505050565b600080611eba83612e8b565b91509150915091565b600080611ecf60355490565b90508015610a8057610a7b81611ee361093c565b859190612a90565b6001600160a01b038381166000908152603460209081526040808320938616835292905220546000198114611f775781811015611f6a5760405162461bcd60e51b815260206004820152601d60248201527f45524332303a20696e73756666696369656e7420616c6c6f77616e63650000006044820152606401610b23565b611f778484848403611d8a565b50505050565b6001600160a01b038316611fe15760405162461bcd60e51b815260206004820152602560248201527f45524332303a207472616e736665722066726f6d20746865207a65726f206164604482015264647265737360d81b6064820152608401610b23565b6001600160a01b0382166120435760405162461bcd60e51b815260206004820152602360248201527f45524332303a207472616e7366657220746f20746865207a65726f206164647260448201526265737360e81b6064820152608401610b23565b6001600160a01b038316600090815260336020526040902054818110156120bb5760405162461bcd60e51b815260206004820152602660248201527f45524332303a207472616e7366657220616d6f756e7420657863656564732062604482015265616c616e636560d01b6064820152608401610b23565b6001600160a01b038085166000908152603360205260408082208585039055918516815290812080548492906120f29084906153f2565b92505081905550826001600160a01b0316846001600160a01b03167fddf252ad1be2c89b69c2b068fc378daa952ba7f163c4a11628f55a4df523b3ef8460405161213e91815260200190565b60405180910390a3611f77565b6000808060001985870985870292508281108382030391505080600003612184576000841161217957600080fd5b508290049050610a82565b80841161219057600080fd5b6000848688096000868103871696879004966002600389028118808a02820302808a02820302808a02820302808a02820302808a02820302808a02909103029181900381900460010186841190950394909402919094039290920491909117919091029150509392505050565b6113af6123f9565b6000612210836119c5565b9050806000036122505760405162461bcd60e51b815260206004820152600b60248201526a5a45524f5f53484152455360a81b6044820152606401610b23565b606554612268906001600160a01b0316333086612f24565b6122728282612f5c565b60408051848152602081018390526001600160a01b0384169133917fdcbc1c05240f31ff3ad067ef1ee35ce4997762752e3a095284754544f4c709d7910160405180910390a3610a9d838261303b565b606680546001600160a01b038381166001600160a01b0319831681179093556040519116919082907f8be0079c531659141344cd1fd0a4f28419497f9722a3daafe3b4186f6b6457e090600090a35050565b60a254600160801b900460ff1661233e57604051632f0c3e3160e11b815260040160405180910390fd5b60006123498261550b565b90506000612355613093565b90506000612363838361315f565b60a254909150600160a81b900467ffffffffffffffff168111156123bc57600061239e848460a260119054906101000a900461ffff16613196565b5090508084036123b65760a2805460ff60801b191690555b506123ca565b60a2805460ff60801b191690555b6040517f9a94a63b02012d6753ed863b962aceb756429b4265fc327391dd05fb24d4502b90600090a150505050565b609854609d54609c5460405163e9b7c36760e01b81526004810192909252600160a01b900463ffffffff16602482015260009182916001600160a01b039091169063e9b7c36790604401606060405180830381865afa158015612460573d6000803e3d6000fd5b505050506040513d601f19601f82011682018060405250810190612484919061549c565b50609854609d54609e54604051630ad444cb60e21b8152600481019290925263ffffffff1660248201529193506001600160a01b03169150632b51132c90604401602060405180830381865afa1580156124e2573d6000803e3d6000fd5b505050506040513d601f19601f8201168201806040525081019061250691906153c3565b91506000612512611288565b905061251e8382613204565b6065546040516370a0823160e01b815230600482015261258c916001600160a01b0316906370a0823190602401602060405180830381865afa158015612568573d6000803e3d6000fd5b505050506040513d601f19601f820116820180604052508101906111b291906153c3565b509091565b61259a816134d4565b60a28054911515600160801b0260ff60801b1990921691909117905560006125c1826135a4565b905060005b60028160ff1610156126b057818160ff16600281106125e7576125e7615527565b602002015160400151600f0b156126b057609a54609d54609c546001600160a01b039092169163c7505c159190600160a01b900463ffffffff168560ff86166002811061263657612636615527565b60200201516040518463ffffffff1660e01b815260040161265993929190615575565b60408051808303816000875af1158015612677573d6000803e3d6000fd5b505050506040513d601f19601f8201168201806040525081019061269b919061560f565b505080806126a890615633565b9150506125c6565b5060a254600160801b900460ff16156126cc576126cc83612314565b505050565b6000600160ff1b82106127115760405162461bcd60e51b81526020600482015260086024820152674f766572666c6f7760c01b6044820152606401610b23565b5090565b600061272083611453565b60655490915061273b906001600160a01b0316333084612f24565b6127458284612f5c565b60408051828152602081018590526001600160a01b0384169133917fdcbc1c05240f31ff3ad067ef1ee35ce4997762752e3a095284754544f4c709d7910160405180910390a3610a9d818461303b565b60008054610100900460ff1615612823578160ff1660011480156127b85750303b155b61281b5760405162461bcd60e51b815260206004820152602e60248201527f496e697469616c697a61626c653a20636f6e747261637420697320616c72656160448201526d191e481a5b9a5d1a585b1a5e995960921b6064820152608401610b23565b506000919050565b60005460ff8084169116106128915760405162461bcd60e51b815260206004820152602e60248201527f496e697469616c697a61626c653a20636f6e747261637420697320616c72656160448201526d191e481a5b9a5d1a585b1a5e995960921b6064820152608401610b23565b506000805460ff191660ff92909216919091179055600190565b919050565b600054610100900460ff166128d75760405162461bcd60e51b8152600401610b2390615652565b80516128e2906137b2565b60208181015161010b80546001600160a01b0319166001600160a01b0392831617905560655460408051633c5103f760e11b8152905191909216926378a207ee92600480820193918290030181865afa158015612943573d6000803e3d6000fd5b505050506040513d601f19601f82011682018060405250810190612967919061569d565b61010880546001600160a01b0319166001600160a01b039283161790556065546040805162af394d60e81b81529051919092169163af394d009160048083019260209291908290030181865afa1580156129c5573d6000803e3d6000fd5b505050506040513d601f19601f820116820180604052508101906129e9919061569d565b61010980546001600160a01b0319166001600160a01b0392831617905560655460408051633e9b6c6f60e21b81529051919092169163fa6db1bc9160048083019260209291908290030181865afa158015612a48573d6000803e3d6000fd5b505050506040513d601f19601f82011682018060405250810190612a6c919061569d565b61010a80546001600160a01b0319166001600160a01b039290921691909117905550565b828202811515841585830485141716612aa857600080fd5b6001826001830304018115150290509392505050565b6111b281613897565b612ad8612ad261093c565b836138a8565b6113af826139c2565b6001600160a01b038216612b415760405162461bcd60e51b815260206004820152602160248201527f45524332303a206275726e2066726f6d20746865207a65726f206164647265736044820152607360f81b6064820152608401610b23565b6001600160a01b03821660009081526033602052604090205481811015612bb55760405162461bcd60e51b815260206004820152602260248201527f45524332303a206275726e20616d6f756e7420657863656564732062616c616e604482015261636560f01b6064820152608401610b23565b6001600160a01b0383166000908152603360205260408120838303905560358054849290612be4908490615463565b90915550506040518281526000906001600160a01b038516907fddf252ad1be2c89b69c2b068fc378daa952ba7f163c4a11628f55a4df523b3ef9060200160405180910390a3505050565b6040516001600160a01b0383166024820152604481018290526126cc90849063a9059cbb60e01b906064015b60408051601f198184030181529190526020810180516001600160e01b03166001600160e01b031990931692909217909152613a40565b60a05460009063ffffffff600160501b82041690612cba9067ffffffffffffffff1642615463565b11905090565b609e54609c54609a5460009273C0B9535c29849DB21b56F8F7CB8180B400e0eb7e9263757d5fd6926001600160a01b03640100000000909304831692612d199291169063ffffffff600160a01b909104811690613b1216565b60a05460a15460405160e086901b6001600160e01b03191681526001600160a01b03909416600485015263ffffffff9092166024840152600160401b900461ffff166044830152600160a01b8104600290810b6064840152600160b81b909104900b608482015260a401602060405180830381865af4158015612da0573d6000803e3d6000fd5b505050506040513d601f19601f82011682018060405250810190612dc4919061547a565b9050806128ab57610a9d826134d4565b609c54609a5460405163095ea7b360e01b81526001600160a01b039182166004820152600019602482015291169063095ea7b3906044016020604051808303816000875af1158015612e2a573d6000803e3d6000fd5b505050506040513d601f19601f82011682018060405250810190612e4e919061547a565b50609b54609a5460405163095ea7b360e01b81526001600160a01b039182166004820152600019602482015291169063095ea7b3906044016118d4565b60008073C0B9535c29849DB21b56F8F7CB8180B400e0eb7e632780ee3130612eb161093c565b6040516001600160e01b031960e085901b1681526001600160a01b0390921660048301526024820152604481018690526064016040805180830381865af4158015612f00573d6000803e3d6000fd5b505050506040513d601f19601f82011682018060405250810190611eba919061560f565b6040516001600160a01b0380851660248301528316604482015260648101829052611f779085906323b872dd60e01b90608401612c5b565b6001600160a01b038216612fb25760405162461bcd60e51b815260206004820152601f60248201527f45524332303a206d696e7420746f20746865207a65726f2061646472657373006044820152606401610b23565b8060356000828254612fc491906153f2565b90915550506001600160a01b03821660009081526033602052604081208054839290612ff19084906153f2565b90915550506040518181526001600160a01b038316906000907fddf252ad1be2c89b69c2b068fc378daa952ba7f163c4a11628f55a4df523b3ef9060200160405180910390a35050565b609f5461304661093c565b111561307957609f5461305761093c565b6040516301b25d0360e41b815260048101929092526024820152604401610b23565b61308282613bb2565b6113af61308d61093c565b83613bea565b609e54609c54609a5460009273C0B9535c29849DB21b56F8F7CB8180B400e0eb7e9263e54c8fd8926001600160a01b036401000000009093048316926130ec9291169063ffffffff600160a01b909104811690613b1216565b6040516001600160e01b031960e085901b1681526001600160a01b03909216600483015263ffffffff166024820152604401602060405180830381865af415801561313b573d6000803e3d6000fd5b505050506040513d601f19601f820116820180604052508101906109bd919061569d565b6000610a826131916001600160a01b0384166c0100000000000000000000000061318a878383613e3a565b9190613e3a565b613e7c565b6000806000808613156131d8576131d16131cc6131b5866127106156ba565b6001600160a01b0388169061ffff1661271061214b565b613e87565b90506131ed565b6131ea6131cc6131b5866127106156e0565b90505b6131f78682613ecb565b9097909650945050505050565b609a54609d54604051631c7a838360e31b815260048101919091526000916001600160a01b03169063e3d41c1890602401602060405180830381865afa158015613252573d6000803e3d6000fd5b505050506040513d601f19601f8201168201806040525081019061327691906153c3565b9050600081131561330957609a54609d546001600160a01b0390911690639cd1be58906132a584600019615703565b6040516001600160e01b031960e085901b16815260048101929092526024820152604401600060405180830381600087803b1580156132e357600080fd5b505af11580156132f7573d6000803e3d6000fd5b5050505061330481613fbb565b6133aa565b60008112156133aa57600061332861332383600019615703565b613ff7565b905080156133a857609a54609d546001600160a01b0390911690639cd1be5890613351846126d1565b6040516001600160e01b031960e085901b16815260048101929092526024820152604401600060405180830381600087803b15801561338f57600080fd5b505af11580156133a3573d6000803e3d6000fd5b505050505b505b600083156134c857609b546040805163313ce56760e01b815290516134b7926001600160a01b03169163313ce5679160048083019260209291908290030181865afa1580156133fd573d6000803e3d6000fd5b505050506040513d601f19601f820116820180604052508101906134219190615788565b61342c90600a61588f565b609c60009054906101000a90046001600160a01b03166001600160a01b031663313ce5676040518163ffffffff1660e01b8152600401602060405180830381865afa15801561347f573d6000803e3d6000fd5b505050506040513d601f19601f820116820180604052508101906134a39190615788565b6134ae90600a61588f565b61318a876126d1565b6134c1908461589e565b90506134cb565b50815b611f77816141d2565b609a54609d54609c54604051633524324160e11b81526004810192909252600160a01b900463ffffffff16602482015260009182916001600160a01b0390911690636a48648290604401602060405180830381865afa15801561353b573d6000803e3d6000fd5b505050506040513d601f19601f8201168201806040525081019061355f91906153c3565b905060006135748261356f613093565b61315f565b60a25490915061359c90600160981b900461ffff1661271061359587613e7c565b919061214b565b109392505050565b6135ac614b7e565b60a2546000906001600160801b03161561362a5760a15460a25461360291600160a01b8104600290810b92600160b81b909204900b906135f4906001600160801b03166144b9565b6135fd906158dd565b614502565b828260ff166002811061361757613617615527565b60200201528061362681615633565b9150505b6000613634613093565b604051630ad6ed5b60e41b81526001600160a01b038216600482015260248101869052620c3500604482015290915060009073C0B9535c29849DB21b56F8F7CB8180B400e0eb7e9063ad6ed5b090606401606060405180830381865af41580156136a2573d6000803e3d6000fd5b505050506040513d601f19601f820116820180604052508101906136c6919061591e565b60a1805465ffffffffffff60a01b1916600160b81b62ffffff9485160262ffffff60a01b191617600160a01b94909316939093029190911790915560a2549091506001600160801b03161580613725575060a254600160801b900460ff165b1561374f5760a280546fffffffffffffffffffffffffffffffff19166001600160801b0383161790555b60a15460a25461378391600160a01b8104600290810b92600160b81b909204900b906135fd906001600160801b03166144b9565b848460ff166002811061379857613798615527565b6020020152826137a781615633565b935050505050919050565b600054610100900460ff166137d95760405162461bcd60e51b8152600401610b2390615652565b80516137e49061457a565b60208181015160a2805460408086015160608088015163ffffffff60881b19909416600160881b61ffff97881690810261ffff60981b191691909117600160981b979093169687029290921767ffffffffffffffff60a81b1916600160a81b67ffffffffffffffff90951694850217909455815190815294850193909352918301919091527f4a9bdb3bab9a7cff0ea02e1428a3901c565a962f3b99b7d8d2b02787ca4f93f9910160405180910390a150565b80156111b2576126cc816000613ecb565b60006138b68383600161476d565b905080604001516138c6906158dd565b60a280546000906138e19084906001600160801b0316615966565b82546101009290920a6001600160801b0381810219909316918316021790915560a25416600003905061391657600160a08201525b609a54609d54609c5460405163c7505c1560e01b81526001600160a01b039093169263c7505c159261395d929091600160a01b90910463ffffffff16908690600401615575565b60408051808303816000875af115801561397b573d6000803e3d6000fd5b505050506040513d601f19601f8201168201806040525081019061399f919061560f565b505060006139af61130a84610f5f565b9050611f776139bd8261550b565b6141d2565b61010c54604051632d182be560e21b815260048101839052306024820181905260448201526001600160a01b039091169063b460af94906064015b6020604051808303816000875af1158015613a1c573d6000803e3d6000fd5b505050506040513d601f19601f820116820180604052508101906113af91906153c3565b6000613a95826040518060400160405280602081526020017f5361666545524332303a206c6f772d6c6576656c2063616c6c206661696c6564815250856001600160a01b03166147de9092919063ffffffff16565b8051909150156126cc5780806020019051810190613ab3919061547a565b6126cc5760405162461bcd60e51b815260206004820152602a60248201527f5361666545524332303a204552433230206f7065726174696f6e20646964206e6044820152691bdd081cdd58d8d9595960b21b6064820152608401610b23565b600080836001600160a01b0316631e2eaeaf613b366003613b32876147ed565b0190565b6040518263ffffffff1660e01b8152600401613b5491815260200190565b602060405180830381865afa158015613b71573d6000803e3d6000fd5b505050506040513d601f19601f82011682018060405250810190613b9591906153c3565b9050613baa63ffffffff60b083901c16614807565b949350505050565b61010c54604051636e553f6560e01b8152600481018390523060248201526001600160a01b0390911690636e553f65906044016139fd565b6000613bf861130a83610f5f565b9050613c03816141d2565b613c0b614bab565b60a2546001600160801b0316158015613c2357508284145b15613d4a576000613c32613093565b604051630ad6ed5b60e41b81526001600160a01b038216600482015260248101859052620c3500604482015290915073C0B9535c29849DB21b56F8F7CB8180B400e0eb7e9063ad6ed5b090606401606060405180830381865af4158015613c9d573d6000803e3d6000fd5b505050506040513d601f19601f82011682018060405250810190613cc1919061591e565b60a280546fffffffffffffffffffffffffffffffff19166001600160801b0392909216918217905560a1805465ffffffffffff60a01b1916600160b81b62ffffff948516810262ffffff60a01b191691909117600160a01b9590941685029390931790819055613d42938104600290810b93909104900b906135fd906144b9565b915050613da9565b613d5f613d578486615463565b84600061476d565b604081015160a280549293509091600090613d849084906001600160801b0316615986565b92506101000a8154816001600160801b0302191690836001600160801b031602179055505b609a54609d54609c5460405163c7505c1560e01b81526001600160a01b039093169263c7505c1592613df0929091600160a01b90910463ffffffff16908690600401615575565b60408051808303816000875af1158015613e0e573d6000803e3d6000fd5b505050506040513d601f19601f82011682018060405250810190613e32919061560f565b505050505050565b6000613e68613e6360008612613e505785613e5c565b613e5c86600019615703565b858561214b565b61480f565b90506000841215610a8257613baa8161550b565b6000610a9d82614821565b806001600160a01b03811681146128ab5760405162461bcd60e51b81526020600482015260086024820152674f766572666c6f7760c01b6044820152606401610b23565b6040805160a0810182528381526001600160a01b0383811660208301908152600083850181815260016060860190815260808601838152609a54609d54609c5499516383d778eb60e01b81526004810191909152600160a01b90990463ffffffff1660248a0152875160448a015294518616606489015291511515608488015251151560a487015251151560c48601529384939291909116906383d778eb9060e40160408051808303816000875af1158015613f8b573d6000803e3d6000fd5b505050506040513d601f19601f82011682018060405250810190613faf919061560f565b90969095509350505050565b61010c54609b546040516319c5aef560e11b81526001600160a01b0391821660048201526024810184905291169063338b5dea906044016139fd565b610107546000906201000090046001600160f01b031682101561401c57506000919050565b6000614036600160801b61402e610c3e565b85919061214b565b61010c54604051632d182be560e21b815260048101839052306024820181905260448201529192506001600160a01b03169063b460af94906064016020604051808303816000875af1158015614090573d6000803e3d6000fd5b505050506040513d601f19601f820116820180604052508101906140b491906153c3565b5061010b54609b54610107546001600160a01b0392831692630f3aa55492169084906140e890889061ffff1661271061214b565b6040516001600160e01b031960e086901b1681526001600160a01b039093166004840152602483019190915260448201523060648201526084016020604051808303816000875af1158015614141573d6000803e3d6000fd5b505050506040513d601f19601f8201168201806040525081019061416591906153c3565b50609b546040516370a0823160e01b81523060048201526001600160a01b03909116906370a0823190602401602060405180830381865afa1580156141ae573d6000803e3d6000fd5b505050506040513d601f19601f82011682018060405250810190610a8291906153c3565b60006142e3609c60009054906101000a90046001600160a01b03166001600160a01b031663313ce5676040518163ffffffff1660e01b8152600401602060405180830381865afa15801561422a573d6000803e3d6000fd5b505050506040513d601f19601f8201168201806040525081019061424e9190615788565b61425990600a61588f565b609b60009054906101000a90046001600160a01b03166001600160a01b031663313ce5676040518163ffffffff1660e01b8152600401602060405180830381865afa1580156142ac573d6000803e3d6000fd5b505050506040513d601f19601f820116820180604052508101906142d09190615788565b6142db90600a61588f565b849190613e3a565b905060006142f082613e7c565b905060008213156143db57609c546040516340c10f1960e01b8152306004820152602481018390526001600160a01b03909116906340c10f1990604401600060405180830381600087803b15801561434757600080fd5b505af115801561435b573d6000803e3d6000fd5b5050609a54609d54609e54604051637d2efe0760e01b8152600481019290925263ffffffff166024820152604481018590526001600160a01b039091169250637d2efe079150606401600060405180830381600087803b1580156143be57600080fd5b505af11580156143d2573d6000803e3d6000fd5b50505050505050565b60008212156126cc57609a54609d54609e546001600160a01b0390921691637d2efe07919063ffffffff1661440f8561550b565b6040516001600160e01b031960e086901b168152600481019390935263ffffffff9190911660248301526044820152606401600060405180830381600087803b15801561445b57600080fd5b505af115801561446f573d6000803e3d6000fd5b5050609c54604051630852cd8d60e31b8152600481018590526001600160a01b0390911692506342966c689150602401600060405180830381600087803b1580156143be57600080fd5b60006001607f1b826001600160801b0316106127115760405162461bcd60e51b81526020600482015260086024820152674f766572666c6f7760c01b6044820152606401610b23565b61450a614bab565b6040518061010001604052808560020b81526020018460020b815260200183600f0b815260200160006001600160a01b03168152602001600061ffff168152602001600015158152602001600060028111156145685761456861553d565b81526000602090910152949350505050565b600054610100900460ff166145a15760405162461bcd60e51b8152600401610b2390615652565b6145a9614838565b80516145b490614867565b602081810151609c805463ffffffff60a01b1916600160a01b63ffffffff909316929092029190911790556080820151609880546001600160a01b03199081166001600160a01b03938416179091556040808501516099805484169185169190911790556060850151609a805490931693169283179091558051639dca362f60e01b815290519192639dca362f9260048381019382900301816000875af1158015614663573d6000803e3d6000fd5b505050506040513d601f19601f8201168201806040525081019061468791906153c3565b609d5560c0810151609b80546001600160a01b03199081166001600160a01b039384161790915560a0830151609c80549092169083161790819055609a546146e1921690600160a01b900463ffffffff9081169061487e16565b609e80546001600160a01b039283166401000000000277ffffffffffffffffffffffffffffffffffffffff000000001990911617905560a082015161472a911663ffffffff1690565b609e805463ffffffff191663ffffffff929092169190911790555060a080546dffffffffffff000000000000000019166c01518001f40000000000000000179055565b614775614bab565b60a25460009061479e90614799908690889061318a906001600160801b03166126d1565b6148fd565b905082156147b2576147af816158dd565b90505b60a1546147d590600160a01b8104600290810b91600160b81b9004900b83614502565b95945050505050565b6060613baa848460008561493c565b63ffffffff81166000908152606460205260408120610a9d565b600081610a9d565b6000600160ff1b821061271157600080fd5b6000808213612711576148338261550b565b610a9d565b600054610100900460ff1661485f5760405162461bcd60e51b8152600401610b2390615652565b6110dc614a6d565b6111b2816000015182602001518360400151614a9d565b600080836001600160a01b0316631e2eaeaf61489e6001613b32876147ed565b6040518263ffffffff1660e01b81526004016148bc91815260200190565b602060405180830381865afa1580156148d9573d6000803e3d6000fd5b505050506040513d601f19601f82011682018060405250810190613baa91906153c3565b80600f81900b81146128ab5760405162461bcd60e51b81526020600482015260086024820152674f766572666c6f7760c01b6044820152606401610b23565b60608247101561499d5760405162461bcd60e51b815260206004820152602660248201527f416464726573733a20696e73756666696369656e742062616c616e636520666f6044820152651c8818d85b1b60d21b6064820152608401610b23565b6001600160a01b0385163b6149f45760405162461bcd60e51b815260206004820152601d60248201527f416464726573733a2063616c6c20746f206e6f6e2d636f6e74726163740000006044820152606401610b23565b600080866001600160a01b03168587604051614a1091906159a8565b60006040518083038185875af1925050503d8060008114614a4d576040519150601f19603f3d011682016040523d82523d6000602084013e614a52565b606091505b5091509150614a62828286614acb565b979650505050505050565b600054610100900460ff16614a945760405162461bcd60e51b8152600401610b2390615652565b6110dc336122c2565b614aa78282614b04565b5050606580546001600160a01b0319166001600160a01b0392909216919091179055565b60608315614ada575081610a82565b825115614aea5782518084602001fd5b8160405162461bcd60e51b8152600401610b239190614cac565b600054610100900460ff16614b2b5760405162461bcd60e51b8152600401610b2390615652565b6113af8282600054610100900460ff16614b575760405162461bcd60e51b8152600401610b2390615652565b8151614b6a906036906020850190614bf0565b5080516126cc906037906020840190614bf0565b60405180604001604052806002905b614b95614bab565b815260200190600190039081614b8d5790505090565b6040805161010081018252600080825260208201819052918101829052606081018290526080810182905260a081018290529060c08201908152600060209091015290565b828054614bfc9061540a565b90600052602060002090601f016020900481019282614c1e5760008555614c64565b82601f10614c3757805160ff1916838001178555614c64565b82800160010185558215614c64579182015b82811115614c64578251825591602001919060010190614c49565b506127119291505b808211156127115760008155600101614c6c565b60005b83811015614c9b578181015183820152602001614c83565b83811115611f775750506000910152565b6020815260008251806020840152614ccb816040850160208701614c80565b601f01601f19169190910160400192915050565b600060208284031215614cf157600080fd5b5035919050565b6001600160a01b03811681146111b257600080fd5b80356128ab81614cf8565b60008060408385031215614d2b57600080fd5b8235614d3681614cf8565b946020939093013593505050565b600080600060608486031215614d5957600080fd5b8335614d6481614cf8565b92506020840135614d7481614cf8565b929592945050506040919091013590565b803561ffff811681146128ab57600080fd5b600080600060608486031215614dac57600080fd5b8335614db781614cf8565b9250614dc560208501614d85565b915060408401356001600160f01b0381168114614de157600080fd5b809150509250925092565b600060208284031215614dfe57600080fd5b8135610a8281614cf8565b60008060008060808587031215614e1f57600080fd5b8435614e2a81614cf8565b935060208501359250604085013591506060850135614e4881614cf8565b939692955090935050565b803563ffffffff811681146128ab57600080fd5b60008060008060808587031215614e7d57600080fd5b843593506020850135614e8f81614cf8565b9250614e9d60408601614e53565b9150614eab60608601614d85565b905092959194509250565b60008060408385031215614ec957600080fd5b823591506020830135614edb81614cf8565b809150509250929050565b634e487b7160e01b600052604160045260246000fd5b6040805190810167ffffffffffffffff81118282101715614f1f57614f1f614ee6565b60405290565b6040516080810167ffffffffffffffff81118282101715614f1f57614f1f614ee6565b60405160e0810167ffffffffffffffff81118282101715614f1f57614f1f614ee6565b604051601f8201601f1916810167ffffffffffffffff81118282101715614f9457614f94614ee6565b604052919050565b600082601f830112614fad57600080fd5b813567ffffffffffffffff811115614fc757614fc7614ee6565b614fda601f8201601f1916602001614f6b565b818152846020838601011115614fef57600080fd5b816020850160208301376000918101602001919091529392505050565b60006060828403121561501e57600080fd5b6040516060810167ffffffffffffffff828210818311171561504257615042614ee6565b816040528293508435915061505682614cf8565b9082526020840135908082111561506c57600080fd5b61507886838701614f9c565b6020840152604085013591508082111561509157600080fd5b5061509e85828601614f9c565b6040830152505092915050565b803567ffffffffffffffff811681146128ab57600080fd5b600060208083850312156150d657600080fd5b823567ffffffffffffffff808211156150ee57600080fd5b908401906040828703121561510257600080fd5b61510a614efc565b82358281111561511957600080fd5b83016080818903121561512b57600080fd5b615133614f25565b81358481111561514257600080fd5b820160e0818b03121561515457600080fd5b61515c614f48565b81358681111561516b57600080fd5b6151778c82850161500c565b825250615185888301614e53565b8882015261519560408301614d0d565b60408201526151a660608301614d0d565b60608201526151b760808301614d0d565b60808201526151c860a08301614d0d565b60a08201526151d960c08301614d0d565b60c08201528252506151ec828701614d85565b868201526151fc60408301614d85565b604082015261520d606083016150ab565b6060820152825250615220838501614d0d565b848201528094505050505092915050565b60008060006060848603121561524657600080fd5b83359250602084013561525881614cf8565b91506040840135614de181614cf8565b6000602080838503121561527b57600080fd5b823567ffffffffffffffff8082111561529357600080fd5b818501915085601f8301126152a757600080fd5b8135818111156152b9576152b9614ee6565b8060051b91506152ca848301614f6b565b81815291830184019184810190888411156152e457600080fd5b938501935b83851015615302578435825293850193908501906152e9565b98975050505050505050565b6020808252825182820181905260009190848201906040850190845b818110156153465783518352928401929184019160010161532a565b50909695505050505050565b6000806040838503121561536557600080fd5b823561537081614cf8565b91506020830135614edb81614cf8565b60008060006060848603121561539557600080fd5b61539e84614d85565b92506153ac60208501614d85565b91506153ba604085016150ab565b90509250925092565b6000602082840312156153d557600080fd5b5051919050565b634e487b7160e01b600052601160045260246000fd5b60008219821115615405576154056153dc565b500190565b600181811c9082168061541e57607f821691505b60208210810361543e57634e487b7160e01b600052602260045260246000fd5b50919050565b600081600019048311821515161561545e5761545e6153dc565b500290565b600082821015615475576154756153dc565b500390565b60006020828403121561548c57600080fd5b81518015158114610a8257600080fd5b6000806000606084860312156154b157600080fd5b8351925060208401519150604084015190509250925092565b600080821280156001600160ff1b03849003851316156154ec576154ec6153dc565b600160ff1b8390038412811615615505576155056153dc565b50500190565b6000600160ff1b8201615520576155206153dc565b5060000390565b634e487b7160e01b600052603260045260246000fd5b634e487b7160e01b600052602160045260246000fd5b6003811061557157634e487b7160e01b600052602160045260246000fd5b9052565b60006101408201905084825263ffffffff84166020830152825160020b6040830152602083015160020b60608301526040830151600f0b608083015260608301516155cb60a08401826001600160a01b03169052565b50608083015161ffff1660c08381019190915260a0840151151560e08401528301516155fb610100840182615553565b5060e0830151801515610120840152610de9565b6000806040838503121561562257600080fd5b505080516020909101519092909150565b600060ff821660ff8103615649576156496153dc565b60010192915050565b6020808252602b908201527f496e697469616c697a61626c653a20636f6e7472616374206973206e6f74206960408201526a6e697469616c697a696e6760a81b606082015260800190565b6000602082840312156156af57600080fd5b8151610a8281614cf8565b600061ffff8083168185168083038211156156d7576156d76153dc565b01949350505050565b600061ffff838116908316818110156156fb576156fb6153dc565b039392505050565b60006001600160ff1b0381841382841380821686840486111615615729576157296153dc565b600160ff1b6000871282811687830589121615615748576157486153dc565b60008712925087820587128484161615615764576157646153dc565b8785058712818416161561577a5761577a6153dc565b505050929093029392505050565b60006020828403121561579a57600080fd5b815160ff81168114610a8257600080fd5b600181815b808511156157e65781600019048211156157cc576157cc6153dc565b808516156157d957918102915b93841c93908002906157b0565b509250929050565b6000826157fd57506001610a9d565b8161580a57506000610a9d565b8160018114615820576002811461582a57615846565b6001915050610a9d565b60ff84111561583b5761583b6153dc565b50506001821b610a9d565b5060208310610133831016604e8410600b8410161715615869575081810a610a9d565b61587383836157ab565b8060001904821115615887576158876153dc565b029392505050565b6000610a8260ff8416836157ee565b60008083128015600160ff1b8501841216156158bc576158bc6153dc565b6001600160ff1b03840183138116156158d7576158d76153dc565b50500390565b600081600f0b6f7fffffffffffffffffffffffffffffff198103615903576159036153dc565b60000392915050565b8051600281900b81146128ab57600080fd5b60008060006060848603121561593357600080fd5b61593c8461590c565b925061594a6020850161590c565b915060408401516001600160801b0381168114614de157600080fd5b60006001600160801b03838116908316818110156156fb576156fb6153dc565b60006001600160801b038083168185168083038211156156d7576156d76153dc565b600082516159ba818460208701614c80565b919091019291505056fe4f776e61626c653a2063616c6c6572206973206e6f7420746865206f776e6572a164736f6c634300080e000a",
  "deployedBytecode": "0x608060405234801561001057600080fd5b50600436106103d05760003560e01c80637d7c2a1c116101ff578063c63d75b61161011a578063e6648853116100ad578063f2fde38b1161007c578063f2fde38b146108fa578063fcb777ef1461090d578063fd967f4714610920578063ff9281531461092957600080fd5b8063e6648853146108b0578063ee3a98ff146108b9578063ef8b30f7146108d4578063f0c4e886146108e757600080fd5b8063d905777e116100e9578063d905777e1461083b578063dbd035ff1461084e578063dbd5edc71461086e578063dd62ed3e1461087757600080fd5b8063c63d75b6146107eb578063c6e6f592146107fe578063ce96cb7714610811578063d4406e891461082457600080fd5b8063a9059cbb11610192578063b6cdc2d511610161578063b6cdc2d5146107a9578063b81aecd9146107bd578063ba087652146107d0578063bf9571f1146107e357600080fd5b8063a9059cbb1461075d578063aced166114610770578063b3d7f6b914610783578063b460af941461079657600080fd5b806395d89b41116101ce57806395d89b4114610720578063999693281461072857806399a26af91461073b578063a457c2d71461074a57600080fd5b80637d7c2a1c146106ec5780638d315d7b146106f45780638da5cb5b146106fc57806394bf804d1461070d57600080fd5b8063402d267d116102ef5780635f63e0661161028257806370a082311161025157806370a0823114610681578063715018a6146106aa57806376533b92146106b25780637999e84e146106e457600080fd5b80635f63e0661461061e578063620bc225146106315780636a8db81d146106595780636e553f651461066e57600080fd5b80635285ec39116102be5780635285ec39146105d1578063554070bc146105e457806356501144146105f757806357b082fc1461060a57600080fd5b8063402d267d146105545780634afe813e146105675780634cdad506146105935780635053145f146105a657600080fd5b80631e2eaeaf1161036757806338d52e0f1161033657806338d52e0f146104fa57806339509351146105255780633d672a45146105385780633f6be8221461054057600080fd5b80631e2eaeaf146104b157806323b872dd146104c35780632717d25b146104d6578063313ce567146104eb57600080fd5b806309a68a92116103a357806309a68a921461043b5780630a28a4771461046257806318160ddd146104755780631aa3dfbb1461047d57600080fd5b806301e1d114146103d557806306fdde03146103f057806307a2d13a14610405578063095ea7b314610418575b600080fd5b6103dd61093c565b6040519081526020015b60405180910390f35b6103f86109c2565b6040516103e79190614cac565b6103dd610413366004614cdf565b610a54565b61042b610426366004614d18565b610a89565b60405190151581526020016103e7565b60a15461044f90600160b81b900460020b81565b60405160029190910b81526020016103e7565b6103dd610470366004614cdf565b610aa3565b6035546103dd565b60a25461049890600160a81b900467ffffffffffffffff1681565b60405167ffffffffffffffff90911681526020016103e7565b6103dd6104bf366004614cdf565b5490565b61042b6104d1366004614d44565b610abb565b6104e96104e4366004614d97565b610adf565b005b604051601281526020016103e7565b60655461050d906001600160a01b031681565b6040516001600160a01b0390911681526020016103e7565b61042b610533366004614d18565b610bff565b6103dd610c3e565b60a0546104989067ffffffffffffffff1681565b6103dd610562366004614dec565b610d5a565b60a05461057e90600160501b900463ffffffff1681565b60405163ffffffff90911681526020016103e7565b6103dd6105a1366004614cdf565b610dd0565b60a2546105b9906001600160801b031681565b6040516001600160801b0390911681526020016103e7565b6104e96105df366004614e09565b610df2565b6103dd6105f2366004614cdf565b610f5f565b6104e9610605366004614e67565b610f78565b60a25461042b90600160801b900460ff1681565b609a5461050d906001600160a01b031681565b60a05461064690600160401b900461ffff1681565b60405161ffff90911681526020016103e7565b60a25461064690600160881b900461ffff1681565b6103dd61067c366004614eb6565b611076565b6103dd61068f366004614dec565b6001600160a01b031660009081526033602052604090205490565b6104e961108a565b610107546106cc906201000090046001600160f01b031681565b6040516001600160f01b0390911681526020016103e7565b6104e96110de565b6104e96111b5565b6103dd611288565b6066546001600160a01b031661050d565b6103dd61071b366004614eb6565b611319565b6103f861132d565b6104e96107363660046150c3565b61133c565b610107546106469061ffff1681565b61042b610758366004614d18565b6113b3565b61042b61076b366004614d18565b611445565b60a15461050d906001600160a01b031681565b6103dd610791366004614cdf565b611453565b6103dd6107a4366004615231565b61147a565b60a15461044f90600160a01b900460020b81565b61042b6107cb366004614cdf565b611575565b6103dd6107de366004615231565b61158e565b6104e96116d7565b6103dd6107f9366004614dec565b611917565b6103dd61080c366004614cdf565b611926565b6103dd61081f366004614dec565b61194e565b609c5461057e90600160a01b900463ffffffff1681565b6103dd610849366004614dec565b611975565b61086161085c366004615268565b611997565b6040516103e7919061530e565b6103dd609f5481565b6103dd610885366004615352565b6001600160a01b03918216600090815260346020908152604080832093909416825291909152205490565b6103dd609d5481565b609e5461050d9064010000000090046001600160a01b031681565b6103dd6108e2366004614cdf565b6119c5565b6104e96108f5366004614e09565b6119d0565b6104e9610908366004614dec565b611b32565b60995461050d906001600160a01b031681565b61064661271081565b6104e9610937366004615380565b611be8565b6000610946611ccc565b6065546040516370a0823160e01b81523060048201526001600160a01b03909116906370a08231906024015b602060405180830381865afa15801561098f573d6000803e3d6000fd5b505050506040513d601f19601f820116820180604052508101906109b391906153c3565b6109bd91906153f2565b905090565b6060603680546109d19061540a565b80601f01602080910402602001604051908101604052809291908181526020018280546109fd9061540a565b8015610a4a5780601f10610a1f57610100808354040283529160200191610a4a565b820191906000526020600020905b815481529060010190602001808311610a2d57829003601f168201915b5050505050905090565b600080610a6060355490565b90508015610a8057610a7b610a7361093c565b849083611d6b565b610a82565b825b9392505050565b600033610a97818585611d8a565b60019150505b92915050565b600080610aaf83611eae565b509050610a8281611ec3565b600033610ac9858285611eeb565b610ad4858585611f7d565b506001949350505050565b6066546001600160a01b03163314610b2c5760405162461bcd60e51b815260206004820181905260248201526000805160206159c583398151915260448201526064015b60405180910390fd5b6001600160a01b03831615801590610b49575061271061ffff8316105b15610b885761ffff8216620100006001600160f01b03831602176101075561010c80546001600160a01b0319166001600160a01b038516179055610ba1565b604051638a4b893760e01b815260040160405180910390fd5b604080516001600160a01b038516815261ffff841660208201526001600160f01b038316918101919091527f5051898c1d1dd86f8ddd55eb56a9f5249cf39f767c9498b9c8cf8cfa50a24cd1906060015b60405180910390a1505050565b3360008181526034602090815260408083206001600160a01b0387168452909152812054909190610a979082908690610c399087906153f2565b611d8a565b61010a5460405163019c8a3b60e11b81526000600482018190529182916001600160a01b0390911690630339147690602401602060405180830381865afa158015610c8d573d6000803e3d6000fd5b505050506040513d601f19601f82011682018060405250810190610cb191906153c3565b9050600061010860009054906101000a90046001600160a01b03166001600160a01b03166318160ddd6040518163ffffffff1660e01b8152600401602060405180830381865afa158015610d09573d6000803e3d6000fd5b505050506040513d601f19601f82011682018060405250810190610d2d91906153c3565b9050610d53600160801b610d4b8369d3c21bcecceda1000000615444565b84919061214b565b9250505090565b6000610d6461093c565b306001600160a01b031663dbd5edc76040518163ffffffff1660e01b8152600401602060405180830381865afa158015610da2573d6000803e3d6000fd5b505050506040513d601f19601f82011682018060405250810190610dc691906153c3565b610a9d9190615463565b600080610ddc83610a54565b90506000610de982611eae565b50949350505050565b6000610dff84303361158e565b60655461010a5460405163095ea7b360e01b81526001600160a01b03918216600482015260248101849052929350169063095ea7b3906044016020604051808303816000875af1158015610e57573d6000803e3d6000fd5b505050506040513d601f19601f82011682018060405250810190610e7b919061547a565b5061010b546040516303cea95560e21b81526001600160a01b0387811660048301526024820184905260448201869052848116606483015290911690630f3aa554906084016020604051808303816000875af1158015610edf573d6000803e3d6000fd5b505050506040513d601f19601f82011682018060405250810190610f0391906153c3565b50604080516001600160a01b0380881682526020820184905291810186905290831660608201527fcd01aacdb76551c07c78c2bb8eb70ea47e39d303786ccf8c95e9afcdcf17920f906080015b60405180910390a15050505050565b6000610a9d610f6c610c3e565b8390600160801b61214b565b6066546001600160a01b03163314610fc05760405162461bcd60e51b815260206004820181905260248201526000805160206159c58339815191526044820152606401610b23565b60a180546001600160a01b0319166001600160a01b038516908117909155609f85905560a080546dffffffffffff00000000000000001916600160501b63ffffffff861690810269ffff0000000000000000191691909117600160401b61ffff86169081029190911790925560408051888152602081019490945283015260608201527f69a94cb0b737928b3387da2d3d2a8d288ec329d009d2b769142dd314cc026ecd9060800160405180910390a150505050565b60006110806121fd565b610a828383612205565b6066546001600160a01b031633146110d25760405162461bcd60e51b815260206004820181905260248201526000805160206159c58339815191526044820152606401610b23565b6110dc60006122c2565b565b60a1546001600160a01b0316331461111e5760a1546040516369958c7360e01b81523360048201526001600160a01b039091166024820152604401610b23565b609854609d54609c5460405163e9b7c36760e01b81526004810192909252600160a01b900463ffffffff1660248201526000916001600160a01b03169063e9b7c36790604401606060405180830381865afa158015611181573d6000803e3d6000fd5b505050506040513d601f19601f820116820180604052508101906111a5919061549c565b509150506111b281612314565b50565b60a1546001600160a01b031633146111f55760a1546040516369958c7360e01b81523360048201526001600160a01b039091166024820152604401610b23565b60006111ff611288565b905061120a81611575565b61122757604051636fa1adc360e01b815260040160405180910390fd5b60006112316123f9565b91505061123e8183612591565b60a0805467ffffffffffffffff19164267ffffffffffffffff161790556040517ff57243a1fddfdc9fa2c7de26cc3503b1b94cfd4368d2b82d0970bfbb2fbce3a490600090a15050565b609a54609d54604051631c7a838360e31b815260048101919091526000916001600160a01b03169063e3d41c1890602401602060405180830381865afa1580156112d6573d6000803e3d6000fd5b505050506040513d601f19601f820116820180604052508101906112fa91906153c3565b905061130f61130a6105f261093c565b6126d1565b6109bd90826154ca565b60006113236121fd565b610a828383612715565b6060603780546109d19061540a565b60006113486001612795565b90508015611360576000805461ff0019166101001790555b611369826128b0565b80156113af576000805461ff0019169055604051600181527f7f26b83ff96e1f2b6a682f133852f6798a09c465da95921460cefb38474024989060200160405180910390a15b5050565b3360008181526034602090815260408083206001600160a01b0387168452909152812054909190838110156114385760405162461bcd60e51b815260206004820152602560248201527f45524332303a2064656372656173656420616c6c6f77616e63652062656c6f77604482015264207a65726f60d81b6064820152608401610b23565b610ad48286868403611d8a565b600033610a97818585611f7d565b60008061145f60355490565b90508015610a8057610a7b61147261093c565b849083612a90565b60006114846121fd565b60008061149086611eae565b9150915061149d82611ec3565b92506114a881612abe565b336001600160a01b038516146114f6576001600160a01b038416600090815260346020908152604080832033845290915290205460001981146114f4576114f48533610c398785615463565b505b6115008284612ac7565b61150a8484612ae1565b60408051838152602081018590526001600160a01b03808716929088169133917ffbde797d201c681b91056529119e0b02407c7bb96a4a2c75c01fc9667232c8db910160405180910390a460655461156c906001600160a01b03168684612c2f565b50509392505050565b600061157f612c92565b80610a9d5750610a9d82612cc0565b60006115986121fd565b60006115a385610a54565b905060006115b082611eae565b909350905060006115c084611ec3565b9050836000036116005760405162461bcd60e51b815260206004820152600b60248201526a5a45524f5f41535345545360a81b6044820152606401610b23565b336001600160a01b0386161461164e576001600160a01b0385166000908152603460209081526040808320338452909152902054600019811461164c5761164c8633610c398585615463565b505b61165782612abe565b6116618482612ac7565b61166b8582612ae1565b60408051858152602081018390526001600160a01b03808816929089169133917ffbde797d201c681b91056529119e0b02407c7bb96a4a2c75c01fc9667232c8db910160405180910390a46065546116cd906001600160a01b03168786612c2f565b5050509392505050565b6066546001600160a01b0316331461171f5760405162461bcd60e51b815260206004820181905260248201526000805160206159c58339815191526044820152606401610b23565b611727612dd4565b60655461010a5460405163095ea7b360e01b81526001600160a01b039182166004820152600019602482015291169063095ea7b3906044016020604051808303816000875af115801561177e573d6000803e3d6000fd5b505050506040513d601f19601f820116820180604052508101906117a2919061547a565b5060655461010c5460405163095ea7b360e01b81526001600160a01b039182166004820152600019602482015291169063095ea7b3906044016020604051808303816000875af11580156117fa573d6000803e3d6000fd5b505050506040513d601f19601f8201168201806040525081019061181e919061547a565b50609b5461010a5460405163095ea7b360e01b81526001600160a01b039182166004820152600019602482015291169063095ea7b3906044016020604051808303816000875af1158015611876573d6000803e3d6000fd5b505050506040513d601f19601f8201168201806040525081019061189a919061547a565b50609b5461010c5460405163095ea7b360e01b81526001600160a01b039182166004820152600019602482015291169063095ea7b3906044015b6020604051808303816000875af11580156118f3573d6000803e3d6000fd5b505050506040513d601f19601f820116820180604052508101906111b2919061547a565b6000610a9d61080c6000610d5a565b60008061193260355490565b90508015610a8057610a7b8161194661093c565b859190611d6b565b6000610a9d610470610413846001600160a01b031660009081526033602052604090205490565b6001600160a01b038116600090815260336020526040812054610a9d90610dd0565b606060208251028201602001602083015b818110156119bd5780515481526020016119a8565b509192915050565b6000610a9d82611926565b60006119dd84303361147a565b60655461010a5460405163095ea7b360e01b81526001600160a01b03918216600482015260248101889052929350169063095ea7b3906044016020604051808303816000875af1158015611a35573d6000803e3d6000fd5b505050506040513d601f19601f82011682018060405250810190611a59919061547a565b5061010b546040516303cea95560e21b81526001600160a01b0387811660048301526024820187905260448201869052848116606483015290911690630f3aa554906084016020604051808303816000875af1158015611abd573d6000803e3d6000fd5b505050506040513d601f19601f82011682018060405250810190611ae191906153c3565b50604080516001600160a01b0380881682526020820187905291810183905290831660608201527f557dddd873c3943ee57068879c42e940597f6472fe0912c9104843ff8274ff3c90608001610f50565b6066546001600160a01b03163314611b7a5760405162461bcd60e51b815260206004820181905260248201526000805160206159c58339815191526044820152606401610b23565b6001600160a01b038116611bdf5760405162461bcd60e51b815260206004820152602660248201527f4f776e61626c653a206e6577206f776e657220697320746865207a65726f206160448201526564647265737360d01b6064820152608401610b23565b6111b2816122c2565b6066546001600160a01b03163314611c305760405162461bcd60e51b815260206004820181905260248201526000805160206159c58339815191526044820152606401610b23565b60a2805463ffffffff60881b1916600160881b61ffff86811691820261ffff60981b191692909217600160981b9286169283021767ffffffffffffffff60a81b1916600160a81b67ffffffffffffffff861690810291909117909355604080519182526020820192909252908101919091527f4a9bdb3bab9a7cff0ea02e1428a3901c565a962f3b99b7d8d2b02787ca4f93f990606001610bf2565b61010c54604051636c82bbbf60e11b81523060048201526000916001600160a01b03169063d905777e90602401602060405180830381865afa158015611d16573d6000803e3d6000fd5b505050506040513d601f19601f82011682018060405250810190611d3a91906153c3565b610109546040516370a0823160e01b81523060048201526001600160a01b03909116906370a0823190602401610972565b828202811515841585830485141716611d8357600080fd5b0492915050565b6001600160a01b038316611dec5760405162461bcd60e51b8152602060048201526024808201527f45524332303a20617070726f76652066726f6d20746865207a65726f206164646044820152637265737360e01b6064820152608401610b23565b6001600160a01b038216611e4d5760405162461bcd60e51b815260206004820152602260248201527f45524332303a20617070726f766520746f20746865207a65726f206164647265604482015261737360f01b6064820152608401610b23565b6001600160a01b0383811660008181526034602090815260408083209487168084529482529182902085905590518481527f8c5be1e5ebec7d5bd14f71427d1e84f3dd0314c0f7b2291e5b200ac8c7c3b925910160405180910390a3505050565b600080611eba83612e8b565b91509150915091565b600080611ecf60355490565b90508015610a8057610a7b81611ee361093c565b859190612a90565b6001600160a01b038381166000908152603460209081526040808320938616835292905220546000198114611f775781811015611f6a5760405162461bcd60e51b815260206004820152601d60248201527f45524332303a20696e73756666696369656e7420616c6c6f77616e63650000006044820152606401610b23565b611f778484848403611d8a565b50505050565b6001600160a01b038316611fe15760405162461bcd60e51b815260206004820152602560248201527f45524332303a207472616e736665722066726f6d20746865207a65726f206164604482015264647265737360d81b6064820152608401610b23565b6001600160a01b0382166120435760405162461bcd60e51b815260206004820152602360248201527f45524332303a207472616e7366657220746f20746865207a65726f206164647260448201526265737360e81b6064820152608401610b23565b6001600160a01b038316600090815260336020526040902054818110156120bb5760405162461bcd60e51b815260206004820152602660248201527f45524332303a207472616e7366657220616d6f756e7420657863656564732062604482015265616c616e636560d01b6064820152608401610b23565b6001600160a01b038085166000908152603360205260408082208585039055918516815290812080548492906120f29084906153f2565b92505081905550826001600160a01b0316846001600160a01b03167fddf252ad1be2c89b69c2b068fc378daa952ba7f163c4a11628f55a4df523b3ef8460405161213e91815260200190565b60405180910390a3611f77565b6000808060001985870985870292508281108382030391505080600003612184576000841161217957600080fd5b508290049050610a82565b80841161219057600080fd5b6000848688096000868103871696879004966002600389028118808a02820302808a02820302808a02820302808a02820302808a02820302808a02909103029181900381900460010186841190950394909402919094039290920491909117919091029150509392505050565b6113af6123f9565b6000612210836119c5565b9050806000036122505760405162461bcd60e51b815260206004820152600b60248201526a5a45524f5f53484152455360a81b6044820152606401610b23565b606554612268906001600160a01b0316333086612f24565b6122728282612f5c565b60408051848152602081018390526001600160a01b0384169133917fdcbc1c05240f31ff3ad067ef1ee35ce4997762752e3a095284754544f4c709d7910160405180910390a3610a9d838261303b565b606680546001600160a01b038381166001600160a01b0319831681179093556040519116919082907f8be0079c531659141344cd1fd0a4f28419497f9722a3daafe3b4186f6b6457e090600090a35050565b60a254600160801b900460ff1661233e57604051632f0c3e3160e11b815260040160405180910390fd5b60006123498261550b565b90506000612355613093565b90506000612363838361315f565b60a254909150600160a81b900467ffffffffffffffff168111156123bc57600061239e848460a260119054906101000a900461ffff16613196565b5090508084036123b65760a2805460ff60801b191690555b506123ca565b60a2805460ff60801b191690555b6040517f9a94a63b02012d6753ed863b962aceb756429b4265fc327391dd05fb24d4502b90600090a150505050565b609854609d54609c5460405163e9b7c36760e01b81526004810192909252600160a01b900463ffffffff16602482015260009182916001600160a01b039091169063e9b7c36790604401606060405180830381865afa158015612460573d6000803e3d6000fd5b505050506040513d601f19601f82011682018060405250810190612484919061549c565b50609854609d54609e54604051630ad444cb60e21b8152600481019290925263ffffffff1660248201529193506001600160a01b03169150632b51132c90604401602060405180830381865afa1580156124e2573d6000803e3d6000fd5b505050506040513d601f19601f8201168201806040525081019061250691906153c3565b91506000612512611288565b905061251e8382613204565b6065546040516370a0823160e01b815230600482015261258c916001600160a01b0316906370a0823190602401602060405180830381865afa158015612568573d6000803e3d6000fd5b505050506040513d601f19601f820116820180604052508101906111b291906153c3565b509091565b61259a816134d4565b60a28054911515600160801b0260ff60801b1990921691909117905560006125c1826135a4565b905060005b60028160ff1610156126b057818160ff16600281106125e7576125e7615527565b602002015160400151600f0b156126b057609a54609d54609c546001600160a01b039092169163c7505c159190600160a01b900463ffffffff168560ff86166002811061263657612636615527565b60200201516040518463ffffffff1660e01b815260040161265993929190615575565b60408051808303816000875af1158015612677573d6000803e3d6000fd5b505050506040513d601f19601f8201168201806040525081019061269b919061560f565b505080806126a890615633565b9150506125c6565b5060a254600160801b900460ff16156126cc576126cc83612314565b505050565b6000600160ff1b82106127115760405162461bcd60e51b81526020600482015260086024820152674f766572666c6f7760c01b6044820152606401610b23565b5090565b600061272083611453565b60655490915061273b906001600160a01b0316333084612f24565b6127458284612f5c565b60408051828152602081018590526001600160a01b0384169133917fdcbc1c05240f31ff3ad067ef1ee35ce4997762752e3a095284754544f4c709d7910160405180910390a3610a9d818461303b565b60008054610100900460ff1615612823578160ff1660011480156127b85750303b155b61281b5760405162461bcd60e51b815260206004820152602e60248201527f496e697469616c697a61626c653a20636f6e747261637420697320616c72656160448201526d191e481a5b9a5d1a585b1a5e995960921b6064820152608401610b23565b506000919050565b60005460ff8084169116106128915760405162461bcd60e51b815260206004820152602e60248201527f496e697469616c697a61626c653a20636f6e747261637420697320616c72656160448201526d191e481a5b9a5d1a585b1a5e995960921b6064820152608401610b23565b506000805460ff191660ff92909216919091179055600190565b919050565b600054610100900460ff166128d75760405162461bcd60e51b8152600401610b2390615652565b80516128e2906137b2565b60208181015161010b80546001600160a01b0319166001600160a01b0392831617905560655460408051633c5103f760e11b8152905191909216926378a207ee92600480820193918290030181865afa158015612943573d6000803e3d6000fd5b505050506040513d601f19601f82011682018060405250810190612967919061569d565b61010880546001600160a01b0319166001600160a01b039283161790556065546040805162af394d60e81b81529051919092169163af394d009160048083019260209291908290030181865afa1580156129c5573d6000803e3d6000fd5b505050506040513d601f19601f820116820180604052508101906129e9919061569d565b61010980546001600160a01b0319166001600160a01b0392831617905560655460408051633e9b6c6f60e21b81529051919092169163fa6db1bc9160048083019260209291908290030181865afa158015612a48573d6000803e3d6000fd5b505050506040513d601f19601f82011682018060405250810190612a6c919061569d565b61010a80546001600160a01b0319166001600160a01b039290921691909117905550565b828202811515841585830485141716612aa857600080fd5b6001826001830304018115150290509392505050565b6111b281613897565b612ad8612ad261093c565b836138a8565b6113af826139c2565b6001600160a01b038216612b415760405162461bcd60e51b815260206004820152602160248201527f45524332303a206275726e2066726f6d20746865207a65726f206164647265736044820152607360f81b6064820152608401610b23565b6001600160a01b03821660009081526033602052604090205481811015612bb55760405162461bcd60e51b815260206004820152602260248201527f45524332303a206275726e20616d6f756e7420657863656564732062616c616e604482015261636560f01b6064820152608401610b23565b6001600160a01b0383166000908152603360205260408120838303905560358054849290612be4908490615463565b90915550506040518281526000906001600160a01b038516907fddf252ad1be2c89b69c2b068fc378daa952ba7f163c4a11628f55a4df523b3ef9060200160405180910390a3505050565b6040516001600160a01b0383166024820152604481018290526126cc90849063a9059cbb60e01b906064015b60408051601f198184030181529190526020810180516001600160e01b03166001600160e01b031990931692909217909152613a40565b60a05460009063ffffffff600160501b82041690612cba9067ffffffffffffffff1642615463565b11905090565b609e54609c54609a5460009273__$9842325bb1826b70c2ef476a1c714a02a7$__9263757d5fd6926001600160a01b03640100000000909304831692612d199291169063ffffffff600160a01b909104811690613b1216565b60a05460a15460405160e086901b6001600160e01b03191681526001600160a01b03909416600485015263ffffffff9092166024840152600160401b900461ffff166044830152600160a01b8104600290810b6064840152600160b81b909104900b608482015260a401602060405180830381865af4158015612da0573d6000803e3d6000fd5b505050506040513d601f19601f82011682018060405250810190612dc4919061547a565b9050806128ab57610a9d826134d4565b609c54609a5460405163095ea7b360e01b81526001600160a01b039182166004820152600019602482015291169063095ea7b3906044016020604051808303816000875af1158015612e2a573d6000803e3d6000fd5b505050506040513d601f19601f82011682018060405250810190612e4e919061547a565b50609b54609a5460405163095ea7b360e01b81526001600160a01b039182166004820152600019602482015291169063095ea7b3906044016118d4565b60008073__$9842325bb1826b70c2ef476a1c714a02a7$__632780ee3130612eb161093c565b6040516001600160e01b031960e085901b1681526001600160a01b0390921660048301526024820152604481018690526064016040805180830381865af4158015612f00573d6000803e3d6000fd5b505050506040513d601f19601f82011682018060405250810190611eba919061560f565b6040516001600160a01b0380851660248301528316604482015260648101829052611f779085906323b872dd60e01b90608401612c5b565b6001600160a01b038216612fb25760405162461bcd60e51b815260206004820152601f60248201527f45524332303a206d696e7420746f20746865207a65726f2061646472657373006044820152606401610b23565b8060356000828254612fc491906153f2565b90915550506001600160a01b03821660009081526033602052604081208054839290612ff19084906153f2565b90915550506040518181526001600160a01b038316906000907fddf252ad1be2c89b69c2b068fc378daa952ba7f163c4a11628f55a4df523b3ef9060200160405180910390a35050565b609f5461304661093c565b111561307957609f5461305761093c565b6040516301b25d0360e41b815260048101929092526024820152604401610b23565b61308282613bb2565b6113af61308d61093c565b83613bea565b609e54609c54609a5460009273__$9842325bb1826b70c2ef476a1c714a02a7$__9263e54c8fd8926001600160a01b036401000000009093048316926130ec9291169063ffffffff600160a01b909104811690613b1216565b6040516001600160e01b031960e085901b1681526001600160a01b03909216600483015263ffffffff166024820152604401602060405180830381865af415801561313b573d6000803e3d6000fd5b505050506040513d601f19601f820116820180604052508101906109bd919061569d565b6000610a826131916001600160a01b0384166c0100000000000000000000000061318a878383613e3a565b9190613e3a565b613e7c565b6000806000808613156131d8576131d16131cc6131b5866127106156ba565b6001600160a01b0388169061ffff1661271061214b565b613e87565b90506131ed565b6131ea6131cc6131b5866127106156e0565b90505b6131f78682613ecb565b9097909650945050505050565b609a54609d54604051631c7a838360e31b815260048101919091526000916001600160a01b03169063e3d41c1890602401602060405180830381865afa158015613252573d6000803e3d6000fd5b505050506040513d601f19601f8201168201806040525081019061327691906153c3565b9050600081131561330957609a54609d546001600160a01b0390911690639cd1be58906132a584600019615703565b6040516001600160e01b031960e085901b16815260048101929092526024820152604401600060405180830381600087803b1580156132e357600080fd5b505af11580156132f7573d6000803e3d6000fd5b5050505061330481613fbb565b6133aa565b60008112156133aa57600061332861332383600019615703565b613ff7565b905080156133a857609a54609d546001600160a01b0390911690639cd1be5890613351846126d1565b6040516001600160e01b031960e085901b16815260048101929092526024820152604401600060405180830381600087803b15801561338f57600080fd5b505af11580156133a3573d6000803e3d6000fd5b505050505b505b600083156134c857609b546040805163313ce56760e01b815290516134b7926001600160a01b03169163313ce5679160048083019260209291908290030181865afa1580156133fd573d6000803e3d6000fd5b505050506040513d601f19601f820116820180604052508101906134219190615788565b61342c90600a61588f565b609c60009054906101000a90046001600160a01b03166001600160a01b031663313ce5676040518163ffffffff1660e01b8152600401602060405180830381865afa15801561347f573d6000803e3d6000fd5b505050506040513d601f19601f820116820180604052508101906134a39190615788565b6134ae90600a61588f565b61318a876126d1565b6134c1908461589e565b90506134cb565b50815b611f77816141d2565b609a54609d54609c54604051633524324160e11b81526004810192909252600160a01b900463ffffffff16602482015260009182916001600160a01b0390911690636a48648290604401602060405180830381865afa15801561353b573d6000803e3d6000fd5b505050506040513d601f19601f8201168201806040525081019061355f91906153c3565b905060006135748261356f613093565b61315f565b60a25490915061359c90600160981b900461ffff1661271061359587613e7c565b919061214b565b109392505050565b6135ac614b7e565b60a2546000906001600160801b03161561362a5760a15460a25461360291600160a01b8104600290810b92600160b81b909204900b906135f4906001600160801b03166144b9565b6135fd906158dd565b614502565b828260ff166002811061361757613617615527565b60200201528061362681615633565b9150505b6000613634613093565b604051630ad6ed5b60e41b81526001600160a01b038216600482015260248101869052620c3500604482015290915060009073__$9842325bb1826b70c2ef476a1c714a02a7$__9063ad6ed5b090606401606060405180830381865af41580156136a2573d6000803e3d6000fd5b505050506040513d601f19601f820116820180604052508101906136c6919061591e565b60a1805465ffffffffffff60a01b1916600160b81b62ffffff9485160262ffffff60a01b191617600160a01b94909316939093029190911790915560a2549091506001600160801b03161580613725575060a254600160801b900460ff165b1561374f5760a280546fffffffffffffffffffffffffffffffff19166001600160801b0383161790555b60a15460a25461378391600160a01b8104600290810b92600160b81b909204900b906135fd906001600160801b03166144b9565b848460ff166002811061379857613798615527565b6020020152826137a781615633565b935050505050919050565b600054610100900460ff166137d95760405162461bcd60e51b8152600401610b2390615652565b80516137e49061457a565b60208181015160a2805460408086015160608088015163ffffffff60881b19909416600160881b61ffff97881690810261ffff60981b191691909117600160981b979093169687029290921767ffffffffffffffff60a81b1916600160a81b67ffffffffffffffff90951694850217909455815190815294850193909352918301919091527f4a9bdb3bab9a7cff0ea02e1428a3901c565a962f3b99b7d8d2b02787ca4f93f9910160405180910390a150565b80156111b2576126cc816000613ecb565b60006138b68383600161476d565b905080604001516138c6906158dd565b60a280546000906138e19084906001600160801b0316615966565b82546101009290920a6001600160801b0381810219909316918316021790915560a25416600003905061391657600160a08201525b609a54609d54609c5460405163c7505c1560e01b81526001600160a01b039093169263c7505c159261395d929091600160a01b90910463ffffffff16908690600401615575565b60408051808303816000875af115801561397b573d6000803e3d6000fd5b505050506040513d601f19601f8201168201806040525081019061399f919061560f565b505060006139af61130a84610f5f565b9050611f776139bd8261550b565b6141d2565b61010c54604051632d182be560e21b815260048101839052306024820181905260448201526001600160a01b039091169063b460af94906064015b6020604051808303816000875af1158015613a1c573d6000803e3d6000fd5b505050506040513d601f19601f820116820180604052508101906113af91906153c3565b6000613a95826040518060400160405280602081526020017f5361666545524332303a206c6f772d6c6576656c2063616c6c206661696c6564815250856001600160a01b03166147de9092919063ffffffff16565b8051909150156126cc5780806020019051810190613ab3919061547a565b6126cc5760405162461bcd60e51b815260206004820152602a60248201527f5361666545524332303a204552433230206f7065726174696f6e20646964206e6044820152691bdd081cdd58d8d9595960b21b6064820152608401610b23565b600080836001600160a01b0316631e2eaeaf613b366003613b32876147ed565b0190565b6040518263ffffffff1660e01b8152600401613b5491815260200190565b602060405180830381865afa158015613b71573d6000803e3d6000fd5b505050506040513d601f19601f82011682018060405250810190613b9591906153c3565b9050613baa63ffffffff60b083901c16614807565b949350505050565b61010c54604051636e553f6560e01b8152600481018390523060248201526001600160a01b0390911690636e553f65906044016139fd565b6000613bf861130a83610f5f565b9050613c03816141d2565b613c0b614bab565b60a2546001600160801b0316158015613c2357508284145b15613d4a576000613c32613093565b604051630ad6ed5b60e41b81526001600160a01b038216600482015260248101859052620c3500604482015290915073__$9842325bb1826b70c2ef476a1c714a02a7$__9063ad6ed5b090606401606060405180830381865af4158015613c9d573d6000803e3d6000fd5b505050506040513d601f19601f82011682018060405250810190613cc1919061591e565b60a280546fffffffffffffffffffffffffffffffff19166001600160801b0392909216918217905560a1805465ffffffffffff60a01b1916600160b81b62ffffff948516810262ffffff60a01b191691909117600160a01b9590941685029390931790819055613d42938104600290810b93909104900b906135fd906144b9565b915050613da9565b613d5f613d578486615463565b84600061476d565b604081015160a280549293509091600090613d849084906001600160801b0316615986565b92506101000a8154816001600160801b0302191690836001600160801b031602179055505b609a54609d54609c5460405163c7505c1560e01b81526001600160a01b039093169263c7505c1592613df0929091600160a01b90910463ffffffff16908690600401615575565b60408051808303816000875af1158015613e0e573d6000803e3d6000fd5b505050506040513d601f19601f82011682018060405250810190613e32919061560f565b505050505050565b6000613e68613e6360008612613e505785613e5c565b613e5c86600019615703565b858561214b565b61480f565b90506000841215610a8257613baa8161550b565b6000610a9d82614821565b806001600160a01b03811681146128ab5760405162461bcd60e51b81526020600482015260086024820152674f766572666c6f7760c01b6044820152606401610b23565b6040805160a0810182528381526001600160a01b0383811660208301908152600083850181815260016060860190815260808601838152609a54609d54609c5499516383d778eb60e01b81526004810191909152600160a01b90990463ffffffff1660248a0152875160448a015294518616606489015291511515608488015251151560a487015251151560c48601529384939291909116906383d778eb9060e40160408051808303816000875af1158015613f8b573d6000803e3d6000fd5b505050506040513d601f19601f82011682018060405250810190613faf919061560f565b90969095509350505050565b61010c54609b546040516319c5aef560e11b81526001600160a01b0391821660048201526024810184905291169063338b5dea906044016139fd565b610107546000906201000090046001600160f01b031682101561401c57506000919050565b6000614036600160801b61402e610c3e565b85919061214b565b61010c54604051632d182be560e21b815260048101839052306024820181905260448201529192506001600160a01b03169063b460af94906064016020604051808303816000875af1158015614090573d6000803e3d6000fd5b505050506040513d601f19601f820116820180604052508101906140b491906153c3565b5061010b54609b54610107546001600160a01b0392831692630f3aa55492169084906140e890889061ffff1661271061214b565b6040516001600160e01b031960e086901b1681526001600160a01b039093166004840152602483019190915260448201523060648201526084016020604051808303816000875af1158015614141573d6000803e3d6000fd5b505050506040513d601f19601f8201168201806040525081019061416591906153c3565b50609b546040516370a0823160e01b81523060048201526001600160a01b03909116906370a0823190602401602060405180830381865afa1580156141ae573d6000803e3d6000fd5b505050506040513d601f19601f82011682018060405250810190610a8291906153c3565b60006142e3609c60009054906101000a90046001600160a01b03166001600160a01b031663313ce5676040518163ffffffff1660e01b8152600401602060405180830381865afa15801561422a573d6000803e3d6000fd5b505050506040513d601f19601f8201168201806040525081019061424e9190615788565b61425990600a61588f565b609b60009054906101000a90046001600160a01b03166001600160a01b031663313ce5676040518163ffffffff1660e01b8152600401602060405180830381865afa1580156142ac573d6000803e3d6000fd5b505050506040513d601f19601f820116820180604052508101906142d09190615788565b6142db90600a61588f565b849190613e3a565b905060006142f082613e7c565b905060008213156143db57609c546040516340c10f1960e01b8152306004820152602481018390526001600160a01b03909116906340c10f1990604401600060405180830381600087803b15801561434757600080fd5b505af115801561435b573d6000803e3d6000fd5b5050609a54609d54609e54604051637d2efe0760e01b8152600481019290925263ffffffff166024820152604481018590526001600160a01b039091169250637d2efe079150606401600060405180830381600087803b1580156143be57600080fd5b505af11580156143d2573d6000803e3d6000fd5b50505050505050565b60008212156126cc57609a54609d54609e546001600160a01b0390921691637d2efe07919063ffffffff1661440f8561550b565b6040516001600160e01b031960e086901b168152600481019390935263ffffffff9190911660248301526044820152606401600060405180830381600087803b15801561445b57600080fd5b505af115801561446f573d6000803e3d6000fd5b5050609c54604051630852cd8d60e31b8152600481018590526001600160a01b0390911692506342966c689150602401600060405180830381600087803b1580156143be57600080fd5b60006001607f1b826001600160801b0316106127115760405162461bcd60e51b81526020600482015260086024820152674f766572666c6f7760c01b6044820152606401610b23565b61450a614bab565b6040518061010001604052808560020b81526020018460020b815260200183600f0b815260200160006001600160a01b03168152602001600061ffff168152602001600015158152602001600060028111156145685761456861553d565b81526000602090910152949350505050565b600054610100900460ff166145a15760405162461bcd60e51b8152600401610b2390615652565b6145a9614838565b80516145b490614867565b602081810151609c805463ffffffff60a01b1916600160a01b63ffffffff909316929092029190911790556080820151609880546001600160a01b03199081166001600160a01b03938416179091556040808501516099805484169185169190911790556060850151609a805490931693169283179091558051639dca362f60e01b815290519192639dca362f9260048381019382900301816000875af1158015614663573d6000803e3d6000fd5b505050506040513d601f19601f8201168201806040525081019061468791906153c3565b609d5560c0810151609b80546001600160a01b03199081166001600160a01b039384161790915560a0830151609c80549092169083161790819055609a546146e1921690600160a01b900463ffffffff9081169061487e16565b609e80546001600160a01b039283166401000000000277ffffffffffffffffffffffffffffffffffffffff000000001990911617905560a082015161472a911663ffffffff1690565b609e805463ffffffff191663ffffffff929092169190911790555060a080546dffffffffffff000000000000000019166c01518001f40000000000000000179055565b614775614bab565b60a25460009061479e90614799908690889061318a906001600160801b03166126d1565b6148fd565b905082156147b2576147af816158dd565b90505b60a1546147d590600160a01b8104600290810b91600160b81b9004900b83614502565b95945050505050565b6060613baa848460008561493c565b63ffffffff81166000908152606460205260408120610a9d565b600081610a9d565b6000600160ff1b821061271157600080fd5b6000808213612711576148338261550b565b610a9d565b600054610100900460ff1661485f5760405162461bcd60e51b8152600401610b2390615652565b6110dc614a6d565b6111b2816000015182602001518360400151614a9d565b600080836001600160a01b0316631e2eaeaf61489e6001613b32876147ed565b6040518263ffffffff1660e01b81526004016148bc91815260200190565b602060405180830381865afa1580156148d9573d6000803e3d6000fd5b505050506040513d601f19601f82011682018060405250810190613baa91906153c3565b80600f81900b81146128ab5760405162461bcd60e51b81526020600482015260086024820152674f766572666c6f7760c01b6044820152606401610b23565b60608247101561499d5760405162461bcd60e51b815260206004820152602660248201527f416464726573733a20696e73756666696369656e742062616c616e636520666f6044820152651c8818d85b1b60d21b6064820152608401610b23565b6001600160a01b0385163b6149f45760405162461bcd60e51b815260206004820152601d60248201527f416464726573733a2063616c6c20746f206e6f6e2d636f6e74726163740000006044820152606401610b23565b600080866001600160a01b03168587604051614a1091906159a8565b60006040518083038185875af1925050503d8060008114614a4d576040519150601f19603f3d011682016040523d82523d6000602084013e614a52565b606091505b5091509150614a62828286614acb565b979650505050505050565b600054610100900460ff16614a945760405162461bcd60e51b8152600401610b2390615652565b6110dc336122c2565b614aa78282614b04565b5050606580546001600160a01b0319166001600160a01b0392909216919091179055565b60608315614ada575081610a82565b825115614aea5782518084602001fd5b8160405162461bcd60e51b8152600401610b239190614cac565b600054610100900460ff16614b2b5760405162461bcd60e51b8152600401610b2390615652565b6113af8282600054610100900460ff16614b575760405162461bcd60e51b8152600401610b2390615652565b8151614b6a906036906020850190614bf0565b5080516126cc906037906020840190614bf0565b60405180604001604052806002905b614b95614bab565b815260200190600190039081614b8d5790505090565b6040805161010081018252600080825260208201819052918101829052606081018290526080810182905260a081018290529060c08201908152600060209091015290565b828054614bfc9061540a565b90600052602060002090601f016020900481019282614c1e5760008555614c64565b82601f10614c3757805160ff1916838001178555614c64565b82800160010185558215614c64579182015b82811115614c64578251825591602001919060010190614c49565b506127119291505b808211156127115760008155600101614c6c565b60005b83811015614c9b578181015183820152602001614c83565b83811115611f775750506000910152565b6020815260008251806020840152614ccb816040850160208701614c80565b601f01601f19169190910160400192915050565b600060208284031215614cf157600080fd5b5035919050565b6001600160a01b03811681146111b257600080fd5b80356128ab81614cf8565b60008060408385031215614d2b57600080fd5b8235614d3681614cf8565b946020939093013593505050565b600080600060608486031215614d5957600080fd5b8335614d6481614cf8565b92506020840135614d7481614cf8565b929592945050506040919091013590565b803561ffff811681146128ab57600080fd5b600080600060608486031215614dac57600080fd5b8335614db781614cf8565b9250614dc560208501614d85565b915060408401356001600160f01b0381168114614de157600080fd5b809150509250925092565b600060208284031215614dfe57600080fd5b8135610a8281614cf8565b60008060008060808587031215614e1f57600080fd5b8435614e2a81614cf8565b935060208501359250604085013591506060850135614e4881614cf8565b939692955090935050565b803563ffffffff811681146128ab57600080fd5b60008060008060808587031215614e7d57600080fd5b843593506020850135614e8f81614cf8565b9250614e9d60408601614e53565b9150614eab60608601614d85565b905092959194509250565b60008060408385031215614ec957600080fd5b823591506020830135614edb81614cf8565b809150509250929050565b634e487b7160e01b600052604160045260246000fd5b6040805190810167ffffffffffffffff81118282101715614f1f57614f1f614ee6565b60405290565b6040516080810167ffffffffffffffff81118282101715614f1f57614f1f614ee6565b60405160e0810167ffffffffffffffff81118282101715614f1f57614f1f614ee6565b604051601f8201601f1916810167ffffffffffffffff81118282101715614f9457614f94614ee6565b604052919050565b600082601f830112614fad57600080fd5b813567ffffffffffffffff811115614fc757614fc7614ee6565b614fda601f8201601f1916602001614f6b565b818152846020838601011115614fef57600080fd5b816020850160208301376000918101602001919091529392505050565b60006060828403121561501e57600080fd5b6040516060810167ffffffffffffffff828210818311171561504257615042614ee6565b816040528293508435915061505682614cf8565b9082526020840135908082111561506c57600080fd5b61507886838701614f9c565b6020840152604085013591508082111561509157600080fd5b5061509e85828601614f9c565b6040830152505092915050565b803567ffffffffffffffff811681146128ab57600080fd5b600060208083850312156150d657600080fd5b823567ffffffffffffffff808211156150ee57600080fd5b908401906040828703121561510257600080fd5b61510a614efc565b82358281111561511957600080fd5b83016080818903121561512b57600080fd5b615133614f25565b81358481111561514257600080fd5b820160e0818b03121561515457600080fd5b61515c614f48565b81358681111561516b57600080fd5b6151778c82850161500c565b825250615185888301614e53565b8882015261519560408301614d0d565b60408201526151a660608301614d0d565b60608201526151b760808301614d0d565b60808201526151c860a08301614d0d565b60a08201526151d960c08301614d0d565b60c08201528252506151ec828701614d85565b868201526151fc60408301614d85565b604082015261520d606083016150ab565b6060820152825250615220838501614d0d565b848201528094505050505092915050565b60008060006060848603121561524657600080fd5b83359250602084013561525881614cf8565b91506040840135614de181614cf8565b6000602080838503121561527b57600080fd5b823567ffffffffffffffff8082111561529357600080fd5b818501915085601f8301126152a757600080fd5b8135818111156152b9576152b9614ee6565b8060051b91506152ca848301614f6b565b81815291830184019184810190888411156152e457600080fd5b938501935b83851015615302578435825293850193908501906152e9565b98975050505050505050565b6020808252825182820181905260009190848201906040850190845b818110156153465783518352928401929184019160010161532a565b50909695505050505050565b6000806040838503121561536557600080fd5b823561537081614cf8565b91506020830135614edb81614cf8565b60008060006060848603121561539557600080fd5b61539e84614d85565b92506153ac60208501614d85565b91506153ba604085016150ab565b90509250925092565b6000602082840312156153d557600080fd5b5051919050565b634e487b7160e01b600052601160045260246000fd5b60008219821115615405576154056153dc565b500190565b600181811c9082168061541e57607f821691505b60208210810361543e57634e487b7160e01b600052602260045260246000fd5b50919050565b600081600019048311821515161561545e5761545e6153dc565b500290565b600082821015615475576154756153dc565b500390565b60006020828403121561548c57600080fd5b81518015158114610a8257600080fd5b6000806000606084860312156154b157600080fd5b8351925060208401519150604084015190509250925092565b600080821280156001600160ff1b03849003851316156154ec576154ec6153dc565b600160ff1b8390038412811615615505576155056153dc565b50500190565b6000600160ff1b8201615520576155206153dc565b5060000390565b634e487b7160e01b600052603260045260246000fd5b634e487b7160e01b600052602160045260246000fd5b6003811061557157634e487b7160e01b600052602160045260246000fd5b9052565b60006101408201905084825263ffffffff84166020830152825160020b6040830152602083015160020b60608301526040830151600f0b608083015260608301516155cb60a08401826001600160a01b03169052565b50608083015161ffff1660c08381019190915260a0840151151560e08401528301516155fb610100840182615553565b5060e0830151801515610120840152610de9565b6000806040838503121561562257600080fd5b505080516020909101519092909150565b600060ff821660ff8103615649576156496153dc565b60010192915050565b6020808252602b908201527f496e697469616c697a61626c653a20636f6e7472616374206973206e6f74206960408201526a6e697469616c697a696e6760a81b606082015260800190565b6000602082840312156156af57600080fd5b8151610a8281614cf8565b600061ffff8083168185168083038211156156d7576156d76153dc565b01949350505050565b600061ffff838116908316818110156156fb576156fb6153dc565b039392505050565b60006001600160ff1b0381841382841380821686840486111615615729576157296153dc565b600160ff1b6000871282811687830589121615615748576157486153dc565b60008712925087820587128484161615615764576157646153dc565b8785058712818416161561577a5761577a6153dc565b505050929093029392505050565b60006020828403121561579a57600080fd5b815160ff81168114610a8257600080fd5b600181815b808511156157e65781600019048211156157cc576157cc6153dc565b808516156157d957918102915b93841c93908002906157b0565b509250929050565b6000826157fd57506001610a9d565b8161580a57506000610a9d565b8160018114615820576002811461582a57615846565b6001915050610a9d565b60ff84111561583b5761583b6153dc565b50506001821b610a9d565b5060208310610133831016604e8410600b8410161715615869575081810a610a9d565b61587383836157ab565b8060001904821115615887576158876153dc565b029392505050565b6000610a8260ff8416836157ee565b60008083128015600160ff1b8501841216156158bc576158bc6153dc565b6001600160ff1b03840183138116156158d7576158d76153dc565b50500390565b600081600f0b6f7fffffffffffffffffffffffffffffff198103615903576159036153dc565b60000392915050565b8051600281900b81146128ab57600080fd5b60008060006060848603121561593357600080fd5b61593c8461590c565b925061594a6020850161590c565b915060408401516001600160801b0381168114614de157600080fd5b60006001600160801b03838116908316818110156156fb576156fb6153dc565b60006001600160801b038083168185168083038211156156d7576156d76153dc565b600082516159ba818460208701614c80565b919091019291505056fe4f776e61626c653a2063616c6c6572206973206e6f7420746865206f776e6572a164736f6c634300080e000a",
  "libraries": {
    "Logic": "0xC0B9535c29849DB21b56F8F7CB8180B400e0eb7e"
  },
  "userdoc": {
    "kind": "user",
    "methods": {
      "closeTokenPosition()": {
        "notice": "closes remaining token position (To be used when reset condition is hit)"
      },
      "extsload(bytes32)": {
        "notice": "Returns a value from the storage."
      },
      "extsload(bytes32[])": {
        "notice": "Returns multiple values from storage."
      },
      "getMarketValue(uint256)": {
        "notice": "compute notional value for given amount of LP tokens"
      },
      "getPriceX128()": {
        "notice": "gives x128 price of 1 ASSET token in USDC unit (10**6)"
      },
      "getVaultMarketValue()": {
        "notice": "Returns account market value of vault in USDC (settlement token)"
      },
      "grantAllowances()": {
        "notice": "grants one time max allowance to various third parties"
      },
      "rebalance()": {
        "notice": "Rebalance the vault assets"
      },
      "redeemToken(address,uint256,uint256,address)": {
        "notice": "allows to redeem shares for tokens available on gmx"
      },
      "totalAssets()": {
        "notice": "returns the total vault asset balance + staked balance"
      },
      "updateGMXParams(address,uint16,uint240)": {
        "notice": "updates several state variables related to external addresses, slippage, fee, threshold, etc."
      },
      "withdrawToken(address,uint256,uint256,address)": {
        "notice": "allows to withdraw amount for tokens available on gmx"
      }
    },
    "version": 1
  },
  "storageLayout": {
    "storage": [
      {
        "astId": 217,
        "contract": "contracts/yieldStrategy/gmx/GMXYieldStrategy.sol:GMXYieldStrategy",
        "label": "_initialized",
        "offset": 0,
        "slot": "0",
        "type": "t_uint8"
      },
      {
        "astId": 220,
        "contract": "contracts/yieldStrategy/gmx/GMXYieldStrategy.sol:GMXYieldStrategy",
        "label": "_initializing",
        "offset": 1,
        "slot": "0",
        "type": "t_bool"
      },
      {
        "astId": 1461,
        "contract": "contracts/yieldStrategy/gmx/GMXYieldStrategy.sol:GMXYieldStrategy",
        "label": "__gap",
        "offset": 0,
        "slot": "1",
        "type": "t_array(t_uint256)50_storage"
      },
      {
        "astId": 482,
        "contract": "contracts/yieldStrategy/gmx/GMXYieldStrategy.sol:GMXYieldStrategy",
        "label": "_balances",
        "offset": 0,
        "slot": "51",
        "type": "t_mapping(t_address,t_uint256)"
      },
      {
        "astId": 488,
        "contract": "contracts/yieldStrategy/gmx/GMXYieldStrategy.sol:GMXYieldStrategy",
        "label": "_allowances",
        "offset": 0,
        "slot": "52",
        "type": "t_mapping(t_address,t_mapping(t_address,t_uint256))"
      },
      {
        "astId": 490,
        "contract": "contracts/yieldStrategy/gmx/GMXYieldStrategy.sol:GMXYieldStrategy",
        "label": "_totalSupply",
        "offset": 0,
        "slot": "53",
        "type": "t_uint256"
      },
      {
        "astId": 492,
        "contract": "contracts/yieldStrategy/gmx/GMXYieldStrategy.sol:GMXYieldStrategy",
        "label": "_name",
        "offset": 0,
        "slot": "54",
        "type": "t_string_storage"
      },
      {
        "astId": 494,
        "contract": "contracts/yieldStrategy/gmx/GMXYieldStrategy.sol:GMXYieldStrategy",
        "label": "_symbol",
        "offset": 0,
        "slot": "55",
        "type": "t_string_storage"
      },
      {
        "astId": 1073,
        "contract": "contracts/yieldStrategy/gmx/GMXYieldStrategy.sol:GMXYieldStrategy",
        "label": "__gap",
        "offset": 0,
        "slot": "56",
        "type": "t_array(t_uint256)45_storage"
      },
      {
        "astId": 36401,
        "contract": "contracts/yieldStrategy/gmx/GMXYieldStrategy.sol:GMXYieldStrategy",
        "label": "asset",
        "offset": 0,
        "slot": "101",
        "type": "t_contract(IERC20Metadata)3718"
      },
      {
        "astId": 97,
        "contract": "contracts/yieldStrategy/gmx/GMXYieldStrategy.sol:GMXYieldStrategy",
        "label": "_owner",
        "offset": 0,
        "slot": "102",
        "type": "t_address"
      },
      {
        "astId": 209,
        "contract": "contracts/yieldStrategy/gmx/GMXYieldStrategy.sol:GMXYieldStrategy",
        "label": "__gap",
        "offset": 0,
        "slot": "103",
        "type": "t_array(t_uint256)49_storage"
      },
      {
        "astId": 29599,
        "contract": "contracts/yieldStrategy/gmx/GMXYieldStrategy.sol:GMXYieldStrategy",
        "label": "lens",
        "offset": 0,
        "slot": "152",
        "type": "t_contract(ClearingHouseLens)8541"
      },
      {
        "astId": 29602,
        "contract": "contracts/yieldStrategy/gmx/GMXYieldStrategy.sol:GMXYieldStrategy",
        "label": "swapSimulator",
        "offset": 0,
        "slot": "153",
        "type": "t_contract(ISwapSimulator)31173"
      },
      {
        "astId": 29605,
        "contract": "contracts/yieldStrategy/gmx/GMXYieldStrategy.sol:GMXYieldStrategy",
        "label": "rageClearingHouse",
        "offset": 0,
        "slot": "154",
        "type": "t_contract(IClearingHouse)7317"
      },
      {
        "astId": 29608,
        "contract": "contracts/yieldStrategy/gmx/GMXYieldStrategy.sol:GMXYieldStrategy",
        "label": "rageSettlementToken",
        "offset": 0,
        "slot": "155",
        "type": "t_contract(IERC20Metadata)3718"
      },
      {
        "astId": 29611,
        "contract": "contracts/yieldStrategy/gmx/GMXYieldStrategy.sol:GMXYieldStrategy",
        "label": "rageCollateralToken",
        "offset": 0,
        "slot": "156",
        "type": "t_contract(ERC20PresetMinterPauser)3854"
      },
      {
        "astId": 29613,
        "contract": "contracts/yieldStrategy/gmx/GMXYieldStrategy.sol:GMXYieldStrategy",
        "label": "ethPoolId",
        "offset": 20,
        "slot": "156",
        "type": "t_uint32"
      },
      {
        "astId": 29615,
        "contract": "contracts/yieldStrategy/gmx/GMXYieldStrategy.sol:GMXYieldStrategy",
        "label": "rageAccountNo",
        "offset": 0,
        "slot": "157",
        "type": "t_uint256"
      },
      {
        "astId": 29617,
        "contract": "contracts/yieldStrategy/gmx/GMXYieldStrategy.sol:GMXYieldStrategy",
        "label": "collateralId",
        "offset": 0,
        "slot": "158",
        "type": "t_uint32"
      },
      {
        "astId": 29620,
        "contract": "contracts/yieldStrategy/gmx/GMXYieldStrategy.sol:GMXYieldStrategy",
        "label": "rageVPool",
        "offset": 4,
        "slot": "158",
        "type": "t_contract(IUniswapV3Pool)26124"
      },
      {
        "astId": 29622,
        "contract": "contracts/yieldStrategy/gmx/GMXYieldStrategy.sol:GMXYieldStrategy",
        "label": "depositCap",
        "offset": 0,
        "slot": "159",
        "type": "t_uint256"
      },
      {
        "astId": 29624,
        "contract": "contracts/yieldStrategy/gmx/GMXYieldStrategy.sol:GMXYieldStrategy",
        "label": "lastRebalanceTS",
        "offset": 0,
        "slot": "160",
        "type": "t_uint64"
      },
      {
        "astId": 29626,
        "contract": "contracts/yieldStrategy/gmx/GMXYieldStrategy.sol:GMXYieldStrategy",
        "label": "rebalancePriceThresholdBps",
        "offset": 8,
        "slot": "160",
        "type": "t_uint16"
      },
      {
        "astId": 29628,
        "contract": "contracts/yieldStrategy/gmx/GMXYieldStrategy.sol:GMXYieldStrategy",
        "label": "rebalanceTimeThreshold",
        "offset": 10,
        "slot": "160",
        "type": "t_uint32"
      },
      {
        "astId": 29630,
        "contract": "contracts/yieldStrategy/gmx/GMXYieldStrategy.sol:GMXYieldStrategy",
        "label": "keeper",
        "offset": 0,
        "slot": "161",
        "type": "t_address"
      },
      {
        "astId": 33657,
        "contract": "contracts/yieldStrategy/gmx/GMXYieldStrategy.sol:GMXYieldStrategy",
        "label": "baseTickLower",
        "offset": 20,
        "slot": "161",
        "type": "t_int24"
      },
      {
        "astId": 33659,
        "contract": "contracts/yieldStrategy/gmx/GMXYieldStrategy.sol:GMXYieldStrategy",
        "label": "baseTickUpper",
        "offset": 23,
        "slot": "161",
        "type": "t_int24"
      },
      {
        "astId": 33661,
        "contract": "contracts/yieldStrategy/gmx/GMXYieldStrategy.sol:GMXYieldStrategy",
        "label": "baseLiquidity",
        "offset": 0,
        "slot": "162",
        "type": "t_uint128"
      },
      {
        "astId": 33663,
        "contract": "contracts/yieldStrategy/gmx/GMXYieldStrategy.sol:GMXYieldStrategy",
        "label": "isReset",
        "offset": 16,
        "slot": "162",
        "type": "t_bool"
      },
      {
        "astId": 33665,
        "contract": "contracts/yieldStrategy/gmx/GMXYieldStrategy.sol:GMXYieldStrategy",
        "label": "closePositionSlippageSqrtToleranceBps",
        "offset": 17,
        "slot": "162",
        "type": "t_uint16"
      },
      {
        "astId": 33667,
        "contract": "contracts/yieldStrategy/gmx/GMXYieldStrategy.sol:GMXYieldStrategy",
        "label": "resetPositionThresholdBps",
        "offset": 19,
        "slot": "162",
        "type": "t_uint16"
      },
      {
        "astId": 33669,
        "contract": "contracts/yieldStrategy/gmx/GMXYieldStrategy.sol:GMXYieldStrategy",
        "label": "minNotionalPositionToCloseThreshold",
        "offset": 21,
        "slot": "162",
        "type": "t_uint64"
      },
      {
        "astId": 39429,
        "contract": "contracts/yieldStrategy/gmx/GMXYieldStrategy.sol:GMXYieldStrategy",
        "label": "_gaps",
        "offset": 0,
        "slot": "163",
        "type": "t_array(t_uint256)100_storage"
      },
      {
        "astId": 39434,
        "contract": "contracts/yieldStrategy/gmx/GMXYieldStrategy.sol:GMXYieldStrategy",
        "label": "usdcReedemSlippage",
        "offset": 0,
        "slot": "263",
        "type": "t_uint16"
      },
      {
        "astId": 39436,
        "contract": "contracts/yieldStrategy/gmx/GMXYieldStrategy.sol:GMXYieldStrategy",
        "label": "usdcConversionThreshold",
        "offset": 2,
        "slot": "263",
        "type": "t_uint240"
      },
      {
        "astId": 39439,
        "contract": "contracts/yieldStrategy/gmx/GMXYieldStrategy.sol:GMXYieldStrategy",
        "label": "glp",
        "offset": 0,
        "slot": "264",
        "type": "t_contract(IERC20)3612"
      },
      {
        "astId": 39442,
        "contract": "contracts/yieldStrategy/gmx/GMXYieldStrategy.sol:GMXYieldStrategy",
        "label": "fsGlp",
        "offset": 0,
        "slot": "265",
        "type": "t_contract(IERC20)3612"
      },
      {
        "astId": 39445,
        "contract": "contracts/yieldStrategy/gmx/GMXYieldStrategy.sol:GMXYieldStrategy",
        "label": "glpManager",
        "offset": 0,
        "slot": "266",
        "type": "t_contract(IGlpManager)31620"
      },
      {
        "astId": 39448,
        "contract": "contracts/yieldStrategy/gmx/GMXYieldStrategy.sol:GMXYieldStrategy",
        "label": "rewardRouter",
        "offset": 0,
        "slot": "267",
        "type": "t_contract(IRewardRouterV2)31799"
      },
      {
        "astId": 39451,
        "contract": "contracts/yieldStrategy/gmx/GMXYieldStrategy.sol:GMXYieldStrategy",
        "label": "stakingManager",
        "offset": 0,
        "slot": "268",
        "type": "t_contract(IGlpStakingManager)31636"
      },
      {
        "astId": 39455,
        "contract": "contracts/yieldStrategy/gmx/GMXYieldStrategy.sol:GMXYieldStrategy",
        "label": "_gaps2",
        "offset": 0,
        "slot": "269",
        "type": "t_array(t_uint256)100_storage"
      }
    ],
    "types": {
      "t_address": {
        "encoding": "inplace",
        "label": "address",
        "numberOfBytes": "20"
      },
      "t_array(t_uint256)100_storage": {
        "base": "t_uint256",
        "encoding": "inplace",
        "label": "uint256[100]",
        "numberOfBytes": "3200"
      },
      "t_array(t_uint256)45_storage": {
        "base": "t_uint256",
        "encoding": "inplace",
        "label": "uint256[45]",
        "numberOfBytes": "1440"
      },
      "t_array(t_uint256)49_storage": {
        "base": "t_uint256",
        "encoding": "inplace",
        "label": "uint256[49]",
        "numberOfBytes": "1568"
      },
      "t_array(t_uint256)50_storage": {
        "base": "t_uint256",
        "encoding": "inplace",
        "label": "uint256[50]",
        "numberOfBytes": "1600"
      },
      "t_bool": {
        "encoding": "inplace",
        "label": "bool",
        "numberOfBytes": "1"
      },
      "t_contract(ClearingHouseLens)8541": {
        "encoding": "inplace",
        "label": "contract ClearingHouseLens",
        "numberOfBytes": "20"
      },
      "t_contract(ERC20PresetMinterPauser)3854": {
        "encoding": "inplace",
        "label": "contract ERC20PresetMinterPauser",
        "numberOfBytes": "20"
      },
      "t_contract(IClearingHouse)7317": {
        "encoding": "inplace",
        "label": "contract IClearingHouse",
        "numberOfBytes": "20"
      },
      "t_contract(IERC20)3612": {
        "encoding": "inplace",
        "label": "contract IERC20",
        "numberOfBytes": "20"
      },
      "t_contract(IERC20Metadata)3718": {
        "encoding": "inplace",
        "label": "contract IERC20Metadata",
        "numberOfBytes": "20"
      },
      "t_contract(IGlpManager)31620": {
        "encoding": "inplace",
        "label": "contract IGlpManager",
        "numberOfBytes": "20"
      },
      "t_contract(IGlpStakingManager)31636": {
        "encoding": "inplace",
        "label": "contract IGlpStakingManager",
        "numberOfBytes": "20"
      },
      "t_contract(IRewardRouterV2)31799": {
        "encoding": "inplace",
        "label": "contract IRewardRouterV2",
        "numberOfBytes": "20"
      },
      "t_contract(ISwapSimulator)31173": {
        "encoding": "inplace",
        "label": "contract ISwapSimulator",
        "numberOfBytes": "20"
      },
      "t_contract(IUniswapV3Pool)26124": {
        "encoding": "inplace",
        "label": "contract IUniswapV3Pool",
        "numberOfBytes": "20"
      },
      "t_int24": {
        "encoding": "inplace",
        "label": "int24",
        "numberOfBytes": "3"
      },
      "t_mapping(t_address,t_mapping(t_address,t_uint256))": {
        "encoding": "mapping",
        "key": "t_address",
        "label": "mapping(address => mapping(address => uint256))",
        "numberOfBytes": "32",
        "value": "t_mapping(t_address,t_uint256)"
      },
      "t_mapping(t_address,t_uint256)": {
        "encoding": "mapping",
        "key": "t_address",
        "label": "mapping(address => uint256)",
        "numberOfBytes": "32",
        "value": "t_uint256"
      },
      "t_string_storage": {
        "encoding": "bytes",
        "label": "string",
        "numberOfBytes": "32"
      },
      "t_uint128": {
        "encoding": "inplace",
        "label": "uint128",
        "numberOfBytes": "16"
      },
      "t_uint16": {
        "encoding": "inplace",
        "label": "uint16",
        "numberOfBytes": "2"
      },
      "t_uint240": {
        "encoding": "inplace",
        "label": "uint240",
        "numberOfBytes": "30"
      },
      "t_uint256": {
        "encoding": "inplace",
        "label": "uint256",
        "numberOfBytes": "32"
      },
      "t_uint32": {
        "encoding": "inplace",
        "label": "uint32",
        "numberOfBytes": "4"
      },
      "t_uint64": {
        "encoding": "inplace",
        "label": "uint64",
        "numberOfBytes": "8"
      },
      "t_uint8": {
        "encoding": "inplace",
        "label": "uint8",
        "numberOfBytes": "1"
      }
    }
  }
}