{
  "address": "0x5DF75230275AD0073E422536B360D05556Ff41B5",
  "abi": [
    {
      "inputs": [],
      "name": "R",
      "type": "error"
    },
    {
      "inputs": [],
      "name": "T",
      "type": "error"
    },
    {
      "anonymous": false,
      "inputs": [
        {
          "indexed": true,
          "internalType": "address",
          "name": "oracle",
          "type": "address"
        }
      ],
      "name": "CrvOracleUpdated",
      "type": "event"
    },
    {
      "anonymous": false,
      "inputs": [
        {
          "indexed": false,
          "internalType": "uint256",
          "name": "tolerance",
          "type": "uint256"
        }
      ],
      "name": "CrvSwapSlippageToleranceUpdated",
      "type": "event"
    },
    {
      "anonymous": false,
      "inputs": [
        {
          "indexed": false,
          "internalType": "uint256",
          "name": "depositCap",
          "type": "uint256"
        }
      ],
      "name": "DepositCapUpdated",
      "type": "event"
    },
    {
      "anonymous": false,
      "inputs": [
        {
          "indexed": false,
          "internalType": "uint16",
          "name": "closePositionSlippageSqrtToleranceBps",
          "type": "uint16"
        },
        {
          "indexed": false,
          "internalType": "uint16",
          "name": "resetPositionThresholdBps",
          "type": "uint16"
        },
        {
          "indexed": false,
          "internalType": "uint64",
          "name": "minNotionalPositionToCloseThreshold",
          "type": "uint64"
        }
      ],
      "name": "EightyTwentyParamsUpdated",
      "type": "event"
    },
    {
      "anonymous": false,
      "inputs": [
        {
          "indexed": false,
          "internalType": "uint256",
          "name": "fee",
          "type": "uint256"
        }
      ],
      "name": "FeesUpdated",
      "type": "event"
    },
    {
      "anonymous": false,
      "inputs": [
        {
          "indexed": false,
          "internalType": "uint256",
          "name": "total",
          "type": "uint256"
        }
      ],
      "name": "FeesWithdrawn",
      "type": "event"
    },
    {
      "anonymous": false,
      "inputs": [
        {
          "indexed": false,
          "internalType": "uint256",
          "name": "crvAmount",
          "type": "uint256"
        }
      ],
      "name": "Harvested",
      "type": "event"
    },
    {
      "anonymous": false,
      "inputs": [
        {
          "indexed": false,
          "internalType": "address",
          "name": "keeper",
          "type": "address"
        }
      ],
      "name": "KeeperUpdated",
      "type": "event"
    },
    {
      "anonymous": false,
      "inputs": [
        {
          "indexed": false,
          "internalType": "uint256",
          "name": "threshold",
          "type": "uint256"
        }
      ],
      "name": "NotionalCrvHarvestThresholdUpdated",
      "type": "event"
    },
    {
      "anonymous": false,
      "inputs": [],
      "name": "Rebalance",
      "type": "event"
    },
    {
      "anonymous": false,
      "inputs": [
        {
          "indexed": false,
          "internalType": "uint32",
          "name": "rebalanceTimeThreshold",
          "type": "uint32"
        },
        {
          "indexed": false,
          "internalType": "uint16",
          "name": "rebalancePriceThresholdBps",
          "type": "uint16"
        }
      ],
      "name": "RebalanceThresholdUpdated",
      "type": "event"
    },
    {
      "anonymous": false,
      "inputs": [
        {
          "indexed": false,
          "internalType": "uint256",
          "name": "amount",
          "type": "uint256"
        },
        {
          "indexed": true,
          "internalType": "address",
          "name": "depositor",
          "type": "address"
        }
      ],
      "name": "Staked",
      "type": "event"
    },
    {
      "anonymous": false,
      "inputs": [
        {
          "indexed": false,
          "internalType": "uint256",
          "name": "lpPrice",
          "type": "uint256"
        }
      ],
      "name": "StateInfo",
      "type": "event"
    },
    {
      "anonymous": false,
      "inputs": [],
      "name": "TokenPositionClosed",
      "type": "event"
    },
    {
      "inputs": [
        {
          "internalType": "uint256",
          "name": "amount",
          "type": "uint256"
        },
        {
          "internalType": "contract ILPPriceGetter",
          "name": "lpPriceHolder",
          "type": "ILPPriceGetter"
        }
      ],
      "name": "getMarketValue",
      "outputs": [
        {
          "internalType": "uint256",
          "name": "marketValue",
          "type": "uint256"
        }
      ],
      "stateMutability": "view",
      "type": "function"
    },
    {
      "inputs": [
        {
          "internalType": "contract ILPPriceGetter",
          "name": "lpPriceHolder",
          "type": "ILPPriceGetter"
        }
      ],
      "name": "getPriceX128",
      "outputs": [
        {
          "internalType": "uint256",
          "name": "priceX128",
          "type": "uint256"
        }
      ],
      "stateMutability": "view",
      "type": "function"
    },
    {
      "inputs": [
        {
          "internalType": "contract IUniswapV3Pool",
          "name": "rageVPool",
          "type": "IUniswapV3Pool"
        },
        {
          "internalType": "uint32",
          "name": "rageTwapDuration",
          "type": "uint32"
        }
      ],
      "name": "getTwapSqrtPriceX96",
      "outputs": [
        {
          "internalType": "uint160",
          "name": "twapSqrtPriceX96",
          "type": "uint160"
        }
      ],
      "stateMutability": "view",
      "type": "function"
    },
    {
      "inputs": [
        {
          "internalType": "uint160",
          "name": "sqrtPriceX96",
          "type": "uint160"
        },
        {
          "internalType": "int256",
          "name": "vaultMarketValue",
          "type": "int256"
        },
        {
          "internalType": "uint64",
          "name": "SQRT_PRICE_FACTOR_PIPS",
          "type": "uint64"
        }
      ],
      "name": "getUpdatedBaseRangeParams",
      "outputs": [
        {
          "internalType": "int24",
          "name": "baseTickLowerUpdate",
          "type": "int24"
        },
        {
          "internalType": "int24",
          "name": "baseTickUpperUpdate",
          "type": "int24"
        },
        {
          "internalType": "uint128",
          "name": "baseLiquidityUpdate",
          "type": "uint128"
        }
      ],
      "stateMutability": "pure",
      "type": "function"
    },
    {
      "inputs": [
        {
          "internalType": "contract IUniswapV3Pool",
          "name": "rageVPool",
          "type": "IUniswapV3Pool"
        },
        {
          "internalType": "uint32",
          "name": "rageTwapDuration",
          "type": "uint32"
        },
        {
          "internalType": "uint16",
          "name": "rebalancePriceThresholdBps",
          "type": "uint16"
        },
        {
          "internalType": "int24",
          "name": "baseTickLower",
          "type": "int24"
        },
        {
          "internalType": "int24",
          "name": "baseTickUpper",
          "type": "int24"
        }
      ],
      "name": "isValidRebalanceRangeWithoutCheckReset",
      "outputs": [
        {
          "internalType": "bool",
          "name": "isValid",
          "type": "bool"
        }
      ],
      "stateMutability": "view",
      "type": "function"
    },
    {
      "inputs": [
        {
          "internalType": "uint160",
          "name": "sqrtPriceX96",
          "type": "uint160"
        },
        {
          "internalType": "bool",
          "name": "isTickUpper",
          "type": "bool"
        }
      ],
      "name": "sqrtPriceX96ToValidTick",
      "outputs": [
        {
          "internalType": "int24",
          "name": "roundedTick",
          "type": "int24"
        }
      ],
      "stateMutability": "pure",
      "type": "function"
    }
  ],
  "transactionHash": "0x079ca6ae65368b315d2d3a3ce503994ec303b5feb4689eb855f1d61e3c9f430c",
  "args": [],
  "numDeployments": 1,
  "solcInputHash": "55f3ffec01d9b71de1d1d839861f8f9a",
  "bytecode": "0x61185361003a600b82828239805160001a60731461002d57634e487b7160e01b600052600060045260246000fd5b30600052607381538281f3fe73000000000000000000000000000000000000000030146080604052600436106100875760003560e01c8063854292c711610065578063854292c7146100f5578063ad6ed5b01461011b578063e54c8fd81461015a578063ffe2e69a1461018557600080fd5b80631e876a281461008c578063757d5fd6146100bf5780637a5fda79146100e2575b600080fd5b81801561009857600080fd5b506100ac6100a73660046110b6565b610198565b6040519081526020015b60405180910390f35b6100d26100cd366004611176565b610432565b60405190151581526020016100b6565b6100ac6100f03660046111e5565b6104b7565b610108610103366004611223565b6104d8565b60405160029190910b81526020016100b6565b61012e610129366004611251565b61054c565b60408051600294850b81529290930b60208301526001600160801b0316918101919091526060016100b6565b61016d6101683660046112a0565b610609565b6040516001600160a01b0390911681526020016100b6565b6100ac6101933660046112d5565b61061e565b600080876001600160a01b03166354f0f7d56040518163ffffffff1660e01b8152600401602060405180830381865afa1580156101d9573d6000803e3d6000fd5b505050506040513d601f19601f820116820180604052508101906101fd91906112f2565b90506000816102118b64e8d4a51000611321565b61022390670de0b6b3a7640000611321565b61022d9190611356565b604051632e1a7d4d60e01b8152600481018290529091506001600160a01b03891690632e1a7d4d90602401600060405180830381600087803b15801561027257600080fd5b505af1158015610286573d6000803e3d6000fd5b505060405163f1dc3cc960e01b81526004810184905260006024820181905260448201526001600160a01b038a16925063f1dc3cc99150606401600060405180830381600087803b1580156102da57600080fd5b505af11580156102ee573d6000803e3d6000fd5b50506040516370a0823160e01b8152306004820152600092506001600160a01b03891691506370a0823190602401602060405180830381865afa158015610339573d6000803e3d6000fd5b505050506040513d601f19601f8201168201806040525081019061035d91906112f2565b6040516bffffffffffffffffffffffff1960608a811b82166020840152607d60ea1b603484015288901b166037820152909150600090604b0160408051601f198184030181529082905263585f5c6960e01b82529150737f90594e547566ceFA8D6D63f824Df220E83bdF69063585f5c69906103e190859085908c9060040161136a565b602060405180830381865af41580156103fe573d6000803e3d6000fd5b505050506040513d601f19601f8201168201806040525081019061042291906112f2565b9c9b505050505050505050505050565b60008061043f8787610609565b6001600160a01b03169050600061045d8261ffff881661271061062f565b9050600284900b61047e61047961047484866113d8565b6106e1565b61072e565b60020b13806104a25750600285900b61049d61047961047484866113f0565b60020b125b156104ac57600192505b505095945050505050565b60006104d16104c583610a34565b8490600160801b61062f565b9392505050565b6000806104e48461072e565b90508215610513576104f7600a82611407565b61050282600a611429565b61050c9190611470565b915061052b565b61051e600a82611407565b6105289082611470565b91505b60008160020b121561054557610542600a83611470565b91505b5092915050565b60008080806105756104746001600160a01b03891667ffffffffffffffff8816620f424061062f565b9050600061059d6104746001600160a01b038a16620f424067ffffffffffffffff8a1661062f565b90506105aa8260006104d8565b94506105b78160016104d8565b9350505060006105c684610ab7565b90506105fd6105f86105dd600a600160601b611356565b6105e7848b6114b8565b8991906001600160a01b031661062f565b610dda565b91505093509350939050565b60006104d16001600160a01b03841683610df0565b600061062982610a34565b92915050565b6000808060001985870985870292508281108382030391505080600003610668576000841161065d57600080fd5b5082900490506104d1565b80841161067457600080fd5b6000848688096000868103871696879004966002600389028118808a02820302808a02820302808a02820302808a02820302808a02820302808a02909103029181900381900460010186841190950394909402919094039290920491909117919091029150509392505050565b806001600160a01b03811681146107295760405162461bcd60e51b81526020600482015260086024820152674f766572666c6f7760c01b604482015260640160405180910390fd5b919050565b60006401000276a36001600160a01b0383161080159061076a575073fffd8963efd1fc6a506488495d951d5263988d266001600160a01b038316105b610787576040516324c070df60e11b815260040160405180910390fd5b640100000000600160c01b03602083901b166001600160801b03811160071b81811c67ffffffffffffffff811160061b90811c63ffffffff811160051b90811c61ffff811160041b90811c60ff8111600390811b91821c600f811160021b90811c918211600190811b92831c9790881196179094179092171790911717176080811061081b57607f810383901c9150610825565b80607f0383901b91505b908002607f81811c60ff83811c9190911c800280831c81831c1c800280841c81841c1c800280851c81851c1c800280861c81861c1c800280871c81871c1c800280881c81881c1c800280891c81891c1c8002808a1c818a1c1c8002808b1c818b1c1c8002808c1c818c1c1c8002808d1c818d1c1c8002808e1c9c81901c9c909c1c80029c8d901c9e9d607f198f0160401b60c09190911c678000000000000000161760c19b909b1c674000000000000000169a909a1760c29990991c672000000000000000169890981760c39790971c671000000000000000169690961760c49590951c670800000000000000169490941760c59390931c670400000000000000169290921760c69190911c670200000000000000161760c79190911c670100000000000000161760c89190911c6680000000000000161760c99190911c6640000000000000161760ca9190911c6620000000000000161760cb9190911c6610000000000000161760cc9190911c6608000000000000161760cd9190911c66040000000000001617693627a301d71055774c8581026f028f6481ab7f045a5af012a19d003aa9198101608090811d906fdb2df09e81959a81455e260799a0632f8301901d600281810b9083900b14610a2557886001600160a01b0316610a0a82610ab7565b6001600160a01b03161115610a1f5781610a27565b80610a27565b815b9998505050505050505050565b600080826001600160a01b03166354f0f7d56040518163ffffffff1660e01b8152600401602060405180830381865afa158015610a75573d6000803e3d6000fd5b505050506040513d601f19601f82011682018060405250810190610a9991906112f2565b90506104d181600160801b6c0c9f2c9cd04674edea4000000061062f565b60008060008360020b12610ace578260020b610ad6565b8260020b6000035b9050620d89e8811115610afc576040516315e4079d60e11b815260040160405180910390fd5b600081600116600003610b1357600160801b610b25565b6ffffcb933bd6fad37aa2d162d1a5940015b70ffffffffffffffffffffffffffffffffff1690506002821615610b59576ffff97272373d413259a46990580e213a0260801c5b6004821615610b78576ffff2e50f5f656932ef12357cf3c7fdcc0260801c5b6008821615610b97576fffe5caca7e10e4e61c3624eaa0941cd00260801c5b6010821615610bb6576fffcb9843d60f6159c9db58835c9266440260801c5b6020821615610bd5576fff973b41fa98c081472e6896dfb254c00260801c5b6040821615610bf4576fff2ea16466c96a3843ec78b326b528610260801c5b6080821615610c13576ffe5dee046a99a2a811c461f1969c30530260801c5b610100821615610c33576ffcbe86c7900a88aedcffc83b479aa3a40260801c5b610200821615610c53576ff987a7253ac413176f2b074cf7815e540260801c5b610400821615610c73576ff3392b0822b70005940c7a398e4b70f30260801c5b610800821615610c93576fe7159475a2c29b7443b29c7fa6e889d90260801c5b611000821615610cb3576fd097f3bdfd2022b8845ad8f792aa58250260801c5b612000821615610cd3576fa9f746462d870fdf8a65dc1f90e061e50260801c5b614000821615610cf3576f70d869a156d2a1b890bb3df62baf32f70260801c5b618000821615610d13576f31be135f97d08fd981231505542fcfa60260801c5b62010000821615610d34576f09aa508b5b7a84e1c677de54f3e99bc90260801c5b62020000821615610d54576e5d6af8dedb81196699c329225ee6040260801c5b62040000821615610d73576d2216e584f5fa1ea926041bedfe980260801c5b62080000821615610d90576b048a170391f7dc42444e8fa20260801c5b60008460020b1315610db1578060001981610dad57610dad611340565b0490505b640100000000810615610dc5576001610dc8565b60005b60ff16602082901c0192505050919050565b806001600160801b038116811461072957600080fd5b600080610e066001600160a01b03851684610e11565b905061054281610ab7565b60008163ffffffff16600003610e3a57610e33836001600160a01b031661102d565b9050610629565b6040805160028082526060820183526000926020830190803683370190505090508281600081518110610e6f57610e6f6114f6565b602002602001019063ffffffff16908163ffffffff1681525050600081600181518110610e9e57610e9e6114f6565b63ffffffff9092166020928302919091019091015260405163883bdbfd60e01b81526001600160a01b0385169063883bdbfd90610edf90849060040161150c565b600060405180830381865afa925050508015610f1d57506040513d6000823e601f3d908101601f19168201604052610f1a919081019061161f565b60015b610f9257836001600160a01b0316633850c7bd6040518163ffffffff1660e01b815260040160e060405180830381865afa158015610f5f573d6000803e3d6000fd5b505050506040513d601f19601f82011682018060405250810190610f8391906116eb565b50939650610545945050505050565b600082600081518110610fa757610fa76114f6565b602002602001015183600181518110610fc257610fc26114f6565b6020026020010151610fd4919061177d565b90506000610fe863ffffffff8816836117c3565b905060008260060b12801561100e575061100863ffffffff881683611801565b60060b15155b15611021578061101d81611823565b9150505b94506106299350505050565b6000816001600160a01b0316633850c7bd6040518163ffffffff1660e01b815260040160e060405180830381865afa15801561106d573d6000803e3d6000fd5b505050506040513d601f19601f8201168201806040525081019061109191906116eb565b5093979650505050505050565b6001600160a01b03811681146110b357600080fd5b50565b600080600080600080600060e0888a0312156110d157600080fd5b8735965060208801356110e38161109e565b955060408801356110f38161109e565b945060608801356111038161109e565b935060808801356111138161109e565b925060a08801356111238161109e565b915060c08801356111338161109e565b8091505092959891949750929550565b803563ffffffff8116811461072957600080fd5b61ffff811681146110b357600080fd5b8060020b81146110b357600080fd5b600080600080600060a0868803121561118e57600080fd5b85356111998161109e565b94506111a760208701611143565b935060408601356111b781611157565b925060608601356111c781611167565b915060808601356111d781611167565b809150509295509295909350565b600080604083850312156111f857600080fd5b82359150602083013561120a8161109e565b809150509250929050565b80151581146110b357600080fd5b6000806040838503121561123657600080fd5b82356112418161109e565b9150602083013561120a81611215565b60008060006060848603121561126657600080fd5b83356112718161109e565b925060208401359150604084013567ffffffffffffffff8116811461129557600080fd5b809150509250925092565b600080604083850312156112b357600080fd5b82356112be8161109e565b91506112cc60208401611143565b90509250929050565b6000602082840312156112e757600080fd5b81356104d18161109e565b60006020828403121561130457600080fd5b5051919050565b634e487b7160e01b600052601160045260246000fd5b600081600019048311821515161561133b5761133b61130b565b500290565b634e487b7160e01b600052601260045260246000fd5b60008261136557611365611340565b500490565b83815260006020606081840152845180606085015260005b8181101561139e57868101830151858201608001528201611382565b818111156113b0576000608083870101525b506001600160a01b039490941660408401525050601f91909101601f19160160800192915050565b600082198211156113eb576113eb61130b565b500190565b6000828210156114025761140261130b565b500390565b60008260020b8061141a5761141a611340565b808360020b0791505092915050565b60008160020b8360020b6000821282627fffff0382138115161561144f5761144f61130b565b82627fffff190382128116156114675761146761130b565b50019392505050565b60008160020b8360020b6000811281627fffff19018312811516156114975761149761130b565b81627fffff0183138116156114ae576114ae61130b565b5090039392505050565b60006001600160a01b03838116908316818110156114d8576114d861130b565b039392505050565b634e487b7160e01b600052604160045260246000fd5b634e487b7160e01b600052603260045260246000fd5b6020808252825182820181905260009190848201906040850190845b8181101561154a57835163ffffffff1683529284019291840191600101611528565b50909695505050505050565b604051601f8201601f1916810167ffffffffffffffff8111828210171561157f5761157f6114e0565b604052919050565b600067ffffffffffffffff8211156115a1576115a16114e0565b5060051b60200190565b600082601f8301126115bc57600080fd5b815160206115d16115cc83611587565b611556565b82815260059290921b840181019181810190868411156115f057600080fd5b8286015b848110156116145780516116078161109e565b83529183019183016115f4565b509695505050505050565b6000806040838503121561163257600080fd5b825167ffffffffffffffff8082111561164a57600080fd5b818501915085601f83011261165e57600080fd5b8151602061166e6115cc83611587565b82815260059290921b8401810191818101908984111561168d57600080fd5b948201945b838610156116bb5785518060060b81146116ac5760008081fd5b82529482019490820190611692565b918801519196509093505050808211156116d457600080fd5b506116e1858286016115ab565b9150509250929050565b600080600080600080600060e0888a03121561170657600080fd5b87516117118161109e565b602089015190975061172281611167565b604089015190965061173381611157565b606089015190955061174481611157565b608089015190945061175581611157565b60a089015190935060ff8116811461176c57600080fd5b60c089015190925061113381611215565b60008160060b8360060b6000811281667fffffffffffff19018312811516156117a8576117a861130b565b81667fffffffffffff0183138116156114ae576114ae61130b565b60008160060b8360060b806117da576117da611340565b667fffffffffffff198214600019821416156117f8576117f861130b565b90059392505050565b60008260060b8061181457611814611340565b808360060b0791505092915050565b60008160020b627fffff19810361183c5761183c61130b565b600019019291505056fea164736f6c634300080d000a",
  "deployedBytecode": "0x73000000000000000000000000000000000000000030146080604052600436106100875760003560e01c8063854292c711610065578063854292c7146100f5578063ad6ed5b01461011b578063e54c8fd81461015a578063ffe2e69a1461018557600080fd5b80631e876a281461008c578063757d5fd6146100bf5780637a5fda79146100e2575b600080fd5b81801561009857600080fd5b506100ac6100a73660046110b6565b610198565b6040519081526020015b60405180910390f35b6100d26100cd366004611176565b610432565b60405190151581526020016100b6565b6100ac6100f03660046111e5565b6104b7565b610108610103366004611223565b6104d8565b60405160029190910b81526020016100b6565b61012e610129366004611251565b61054c565b60408051600294850b81529290930b60208301526001600160801b0316918101919091526060016100b6565b61016d6101683660046112a0565b610609565b6040516001600160a01b0390911681526020016100b6565b6100ac6101933660046112d5565b61061e565b600080876001600160a01b03166354f0f7d56040518163ffffffff1660e01b8152600401602060405180830381865afa1580156101d9573d6000803e3d6000fd5b505050506040513d601f19601f820116820180604052508101906101fd91906112f2565b90506000816102118b64e8d4a51000611321565b61022390670de0b6b3a7640000611321565b61022d9190611356565b604051632e1a7d4d60e01b8152600481018290529091506001600160a01b03891690632e1a7d4d90602401600060405180830381600087803b15801561027257600080fd5b505af1158015610286573d6000803e3d6000fd5b505060405163f1dc3cc960e01b81526004810184905260006024820181905260448201526001600160a01b038a16925063f1dc3cc99150606401600060405180830381600087803b1580156102da57600080fd5b505af11580156102ee573d6000803e3d6000fd5b50506040516370a0823160e01b8152306004820152600092506001600160a01b03891691506370a0823190602401602060405180830381865afa158015610339573d6000803e3d6000fd5b505050506040513d601f19601f8201168201806040525081019061035d91906112f2565b6040516bffffffffffffffffffffffff1960608a811b82166020840152607d60ea1b603484015288901b166037820152909150600090604b0160408051601f198184030181529082905263585f5c6960e01b8252915073__$f09208ef53137b379b85ea4a8d399069d8$__9063585f5c69906103e190859085908c9060040161136a565b602060405180830381865af41580156103fe573d6000803e3d6000fd5b505050506040513d601f19601f8201168201806040525081019061042291906112f2565b9c9b505050505050505050505050565b60008061043f8787610609565b6001600160a01b03169050600061045d8261ffff881661271061062f565b9050600284900b61047e61047961047484866113d8565b6106e1565b61072e565b60020b13806104a25750600285900b61049d61047961047484866113f0565b60020b125b156104ac57600192505b505095945050505050565b60006104d16104c583610a34565b8490600160801b61062f565b9392505050565b6000806104e48461072e565b90508215610513576104f7600a82611407565b61050282600a611429565b61050c9190611470565b915061052b565b61051e600a82611407565b6105289082611470565b91505b60008160020b121561054557610542600a83611470565b91505b5092915050565b60008080806105756104746001600160a01b03891667ffffffffffffffff8816620f424061062f565b9050600061059d6104746001600160a01b038a16620f424067ffffffffffffffff8a1661062f565b90506105aa8260006104d8565b94506105b78160016104d8565b9350505060006105c684610ab7565b90506105fd6105f86105dd600a600160601b611356565b6105e7848b6114b8565b8991906001600160a01b031661062f565b610dda565b91505093509350939050565b60006104d16001600160a01b03841683610df0565b600061062982610a34565b92915050565b6000808060001985870985870292508281108382030391505080600003610668576000841161065d57600080fd5b5082900490506104d1565b80841161067457600080fd5b6000848688096000868103871696879004966002600389028118808a02820302808a02820302808a02820302808a02820302808a02820302808a02909103029181900381900460010186841190950394909402919094039290920491909117919091029150509392505050565b806001600160a01b03811681146107295760405162461bcd60e51b81526020600482015260086024820152674f766572666c6f7760c01b604482015260640160405180910390fd5b919050565b60006401000276a36001600160a01b0383161080159061076a575073fffd8963efd1fc6a506488495d951d5263988d266001600160a01b038316105b610787576040516324c070df60e11b815260040160405180910390fd5b640100000000600160c01b03602083901b166001600160801b03811160071b81811c67ffffffffffffffff811160061b90811c63ffffffff811160051b90811c61ffff811160041b90811c60ff8111600390811b91821c600f811160021b90811c918211600190811b92831c9790881196179094179092171790911717176080811061081b57607f810383901c9150610825565b80607f0383901b91505b908002607f81811c60ff83811c9190911c800280831c81831c1c800280841c81841c1c800280851c81851c1c800280861c81861c1c800280871c81871c1c800280881c81881c1c800280891c81891c1c8002808a1c818a1c1c8002808b1c818b1c1c8002808c1c818c1c1c8002808d1c818d1c1c8002808e1c9c81901c9c909c1c80029c8d901c9e9d607f198f0160401b60c09190911c678000000000000000161760c19b909b1c674000000000000000169a909a1760c29990991c672000000000000000169890981760c39790971c671000000000000000169690961760c49590951c670800000000000000169490941760c59390931c670400000000000000169290921760c69190911c670200000000000000161760c79190911c670100000000000000161760c89190911c6680000000000000161760c99190911c6640000000000000161760ca9190911c6620000000000000161760cb9190911c6610000000000000161760cc9190911c6608000000000000161760cd9190911c66040000000000001617693627a301d71055774c8581026f028f6481ab7f045a5af012a19d003aa9198101608090811d906fdb2df09e81959a81455e260799a0632f8301901d600281810b9083900b14610a2557886001600160a01b0316610a0a82610ab7565b6001600160a01b03161115610a1f5781610a27565b80610a27565b815b9998505050505050505050565b600080826001600160a01b03166354f0f7d56040518163ffffffff1660e01b8152600401602060405180830381865afa158015610a75573d6000803e3d6000fd5b505050506040513d601f19601f82011682018060405250810190610a9991906112f2565b90506104d181600160801b6c0c9f2c9cd04674edea4000000061062f565b60008060008360020b12610ace578260020b610ad6565b8260020b6000035b9050620d89e8811115610afc576040516315e4079d60e11b815260040160405180910390fd5b600081600116600003610b1357600160801b610b25565b6ffffcb933bd6fad37aa2d162d1a5940015b70ffffffffffffffffffffffffffffffffff1690506002821615610b59576ffff97272373d413259a46990580e213a0260801c5b6004821615610b78576ffff2e50f5f656932ef12357cf3c7fdcc0260801c5b6008821615610b97576fffe5caca7e10e4e61c3624eaa0941cd00260801c5b6010821615610bb6576fffcb9843d60f6159c9db58835c9266440260801c5b6020821615610bd5576fff973b41fa98c081472e6896dfb254c00260801c5b6040821615610bf4576fff2ea16466c96a3843ec78b326b528610260801c5b6080821615610c13576ffe5dee046a99a2a811c461f1969c30530260801c5b610100821615610c33576ffcbe86c7900a88aedcffc83b479aa3a40260801c5b610200821615610c53576ff987a7253ac413176f2b074cf7815e540260801c5b610400821615610c73576ff3392b0822b70005940c7a398e4b70f30260801c5b610800821615610c93576fe7159475a2c29b7443b29c7fa6e889d90260801c5b611000821615610cb3576fd097f3bdfd2022b8845ad8f792aa58250260801c5b612000821615610cd3576fa9f746462d870fdf8a65dc1f90e061e50260801c5b614000821615610cf3576f70d869a156d2a1b890bb3df62baf32f70260801c5b618000821615610d13576f31be135f97d08fd981231505542fcfa60260801c5b62010000821615610d34576f09aa508b5b7a84e1c677de54f3e99bc90260801c5b62020000821615610d54576e5d6af8dedb81196699c329225ee6040260801c5b62040000821615610d73576d2216e584f5fa1ea926041bedfe980260801c5b62080000821615610d90576b048a170391f7dc42444e8fa20260801c5b60008460020b1315610db1578060001981610dad57610dad611340565b0490505b640100000000810615610dc5576001610dc8565b60005b60ff16602082901c0192505050919050565b806001600160801b038116811461072957600080fd5b600080610e066001600160a01b03851684610e11565b905061054281610ab7565b60008163ffffffff16600003610e3a57610e33836001600160a01b031661102d565b9050610629565b6040805160028082526060820183526000926020830190803683370190505090508281600081518110610e6f57610e6f6114f6565b602002602001019063ffffffff16908163ffffffff1681525050600081600181518110610e9e57610e9e6114f6565b63ffffffff9092166020928302919091019091015260405163883bdbfd60e01b81526001600160a01b0385169063883bdbfd90610edf90849060040161150c565b600060405180830381865afa925050508015610f1d57506040513d6000823e601f3d908101601f19168201604052610f1a919081019061161f565b60015b610f9257836001600160a01b0316633850c7bd6040518163ffffffff1660e01b815260040160e060405180830381865afa158015610f5f573d6000803e3d6000fd5b505050506040513d601f19601f82011682018060405250810190610f8391906116eb565b50939650610545945050505050565b600082600081518110610fa757610fa76114f6565b602002602001015183600181518110610fc257610fc26114f6565b6020026020010151610fd4919061177d565b90506000610fe863ffffffff8816836117c3565b905060008260060b12801561100e575061100863ffffffff881683611801565b60060b15155b15611021578061101d81611823565b9150505b94506106299350505050565b6000816001600160a01b0316633850c7bd6040518163ffffffff1660e01b815260040160e060405180830381865afa15801561106d573d6000803e3d6000fd5b505050506040513d601f19601f8201168201806040525081019061109191906116eb565b5093979650505050505050565b6001600160a01b03811681146110b357600080fd5b50565b600080600080600080600060e0888a0312156110d157600080fd5b8735965060208801356110e38161109e565b955060408801356110f38161109e565b945060608801356111038161109e565b935060808801356111138161109e565b925060a08801356111238161109e565b915060c08801356111338161109e565b8091505092959891949750929550565b803563ffffffff8116811461072957600080fd5b61ffff811681146110b357600080fd5b8060020b81146110b357600080fd5b600080600080600060a0868803121561118e57600080fd5b85356111998161109e565b94506111a760208701611143565b935060408601356111b781611157565b925060608601356111c781611167565b915060808601356111d781611167565b809150509295509295909350565b600080604083850312156111f857600080fd5b82359150602083013561120a8161109e565b809150509250929050565b80151581146110b357600080fd5b6000806040838503121561123657600080fd5b82356112418161109e565b9150602083013561120a81611215565b60008060006060848603121561126657600080fd5b83356112718161109e565b925060208401359150604084013567ffffffffffffffff8116811461129557600080fd5b809150509250925092565b600080604083850312156112b357600080fd5b82356112be8161109e565b91506112cc60208401611143565b90509250929050565b6000602082840312156112e757600080fd5b81356104d18161109e565b60006020828403121561130457600080fd5b5051919050565b634e487b7160e01b600052601160045260246000fd5b600081600019048311821515161561133b5761133b61130b565b500290565b634e487b7160e01b600052601260045260246000fd5b60008261136557611365611340565b500490565b83815260006020606081840152845180606085015260005b8181101561139e57868101830151858201608001528201611382565b818111156113b0576000608083870101525b506001600160a01b039490941660408401525050601f91909101601f19160160800192915050565b600082198211156113eb576113eb61130b565b500190565b6000828210156114025761140261130b565b500390565b60008260020b8061141a5761141a611340565b808360020b0791505092915050565b60008160020b8360020b6000821282627fffff0382138115161561144f5761144f61130b565b82627fffff190382128116156114675761146761130b565b50019392505050565b60008160020b8360020b6000811281627fffff19018312811516156114975761149761130b565b81627fffff0183138116156114ae576114ae61130b565b5090039392505050565b60006001600160a01b03838116908316818110156114d8576114d861130b565b039392505050565b634e487b7160e01b600052604160045260246000fd5b634e487b7160e01b600052603260045260246000fd5b6020808252825182820181905260009190848201906040850190845b8181101561154a57835163ffffffff1683529284019291840191600101611528565b50909695505050505050565b604051601f8201601f1916810167ffffffffffffffff8111828210171561157f5761157f6114e0565b604052919050565b600067ffffffffffffffff8211156115a1576115a16114e0565b5060051b60200190565b600082601f8301126115bc57600080fd5b815160206115d16115cc83611587565b611556565b82815260059290921b840181019181810190868411156115f057600080fd5b8286015b848110156116145780516116078161109e565b83529183019183016115f4565b509695505050505050565b6000806040838503121561163257600080fd5b825167ffffffffffffffff8082111561164a57600080fd5b818501915085601f83011261165e57600080fd5b8151602061166e6115cc83611587565b82815260059290921b8401810191818101908984111561168d57600080fd5b948201945b838610156116bb5785518060060b81146116ac5760008081fd5b82529482019490820190611692565b918801519196509093505050808211156116d457600080fd5b506116e1858286016115ab565b9150509250929050565b600080600080600080600060e0888a03121561170657600080fd5b87516117118161109e565b602089015190975061172281611167565b604089015190965061173381611157565b606089015190955061174481611157565b608089015190945061175581611157565b60a089015190935060ff8116811461176c57600080fd5b60c089015190925061113381611215565b60008160060b8360060b6000811281667fffffffffffff19018312811516156117a8576117a861130b565b81667fffffffffffff0183138116156114ae576114ae61130b565b60008160060b8360060b806117da576117da611340565b667fffffffffffff198214600019821416156117f8576117f861130b565b90059392505050565b60008260060b8061181457611814611340565b808360060b0791505092915050565b60008160020b627fffff19810361183c5761183c61130b565b600019019291505056fea164736f6c634300080d000a",
  "libraries": {
    "SwapManager": "0x7f90594e547566ceFA8D6D63f824Df220E83bdF6"
  },
  "userdoc": {
    "kind": "user",
    "methods": {
      "getUpdatedBaseRangeParams(uint160,int256,uint64)": {
        "notice": "Get updated base range params"
      },
      "sqrtPriceX96ToValidTick(uint160,bool)": {
        "notice": "convert sqrt price in X96 to initializable tick"
      }
    },
    "version": 1
  },
  "storageLayout": {
    "storage": [],
    "types": null
  }
}