{
  "address": "0x9bbDE042F686F204bcEc141801573cd68C49B105",
  "abi": [
    {
      "inputs": [],
      "name": "NegativePrice",
      "type": "error"
    },
    {
      "inputs": [],
      "name": "OutOfBounds",
      "type": "error"
    },
    {
      "inputs": [],
      "name": "SlippageToleranceBreached",
      "type": "error"
    },
    {
      "inputs": [],
      "name": "ZeroValue",
      "type": "error"
    },
    {
      "anonymous": false,
      "inputs": [
        {
          "indexed": true,
          "internalType": "address",
          "name": "owner",
          "type": "address"
        },
        {
          "indexed": true,
          "internalType": "address",
          "name": "token",
          "type": "address"
        },
        {
          "indexed": false,
          "internalType": "uint256",
          "name": "amount",
          "type": "uint256"
        },
        {
          "indexed": false,
          "internalType": "uint256",
          "name": "asset",
          "type": "uint256"
        },
        {
          "indexed": false,
          "internalType": "uint256",
          "name": "shares",
          "type": "uint256"
        }
      ],
      "name": "DepositPeriphery",
      "type": "event"
    },
    {
      "anonymous": false,
      "inputs": [
        {
          "indexed": true,
          "internalType": "address",
          "name": "previousOwner",
          "type": "address"
        },
        {
          "indexed": true,
          "internalType": "address",
          "name": "newOwner",
          "type": "address"
        }
      ],
      "name": "OwnershipTransferred",
      "type": "event"
    },
    {
      "anonymous": false,
      "inputs": [
        {
          "indexed": false,
          "internalType": "uint256",
          "name": "balance",
          "type": "uint256"
        },
        {
          "indexed": false,
          "internalType": "uint256",
          "name": "breforeSwapLpPrice",
          "type": "uint256"
        },
        {
          "indexed": false,
          "internalType": "uint256",
          "name": "amount",
          "type": "uint256"
        },
        {
          "indexed": false,
          "internalType": "uint256",
          "name": "MAX_BPS",
          "type": "uint256"
        },
        {
          "indexed": false,
          "internalType": "uint256",
          "name": "MAX_TOLERANCE",
          "type": "uint256"
        }
      ],
      "name": "SlippageToleranceBreachedEvent",
      "type": "event"
    },
    {
      "inputs": [],
      "name": "depositEth",
      "outputs": [
        {
          "internalType": "uint256",
          "name": "sharesMinted",
          "type": "uint256"
        }
      ],
      "stateMutability": "payable",
      "type": "function"
    },
    {
      "inputs": [
        {
          "internalType": "uint256",
          "name": "amount",
          "type": "uint256"
        }
      ],
      "name": "depositUsdc",
      "outputs": [
        {
          "internalType": "uint256",
          "name": "sharesMinted",
          "type": "uint256"
        }
      ],
      "stateMutability": "nonpayable",
      "type": "function"
    },
    {
      "inputs": [
        {
          "internalType": "uint256",
          "name": "amount",
          "type": "uint256"
        }
      ],
      "name": "depositWeth",
      "outputs": [
        {
          "internalType": "uint256",
          "name": "sharesMinted",
          "type": "uint256"
        }
      ],
      "stateMutability": "nonpayable",
      "type": "function"
    },
    {
      "inputs": [
        {
          "internalType": "contract IERC20",
          "name": "_usdc",
          "type": "address"
        },
        {
          "internalType": "contract IERC20",
          "name": "_usdt",
          "type": "address"
        },
        {
          "internalType": "contract IERC20",
          "name": "_weth",
          "type": "address"
        },
        {
          "internalType": "contract IERC20",
          "name": "_lpToken",
          "type": "address"
        },
        {
          "internalType": "contract IERC4626",
          "name": "_vault",
          "type": "address"
        },
        {
          "internalType": "contract ISwapRouter",
          "name": "_swapRouter",
          "type": "address"
        },
        {
          "internalType": "contract ILPPriceGetter",
          "name": "_lpOracle",
          "type": "address"
        },
        {
          "internalType": "contract ICurveStableSwap",
          "name": "_stableSwap",
          "type": "address"
        },
        {
          "internalType": "contract AggregatorV3Interface",
          "name": "_ethOracle",
          "type": "address"
        }
      ],
      "name": "initialize",
      "outputs": [],
      "stateMutability": "nonpayable",
      "type": "function"
    },
    {
      "inputs": [],
      "name": "lpOracle",
      "outputs": [
        {
          "internalType": "contract ILPPriceGetter",
          "name": "",
          "type": "address"
        }
      ],
      "stateMutability": "view",
      "type": "function"
    },
    {
      "inputs": [],
      "name": "lpToken",
      "outputs": [
        {
          "internalType": "contract IERC20",
          "name": "",
          "type": "address"
        }
      ],
      "stateMutability": "view",
      "type": "function"
    },
    {
      "inputs": [],
      "name": "owner",
      "outputs": [
        {
          "internalType": "address",
          "name": "",
          "type": "address"
        }
      ],
      "stateMutability": "view",
      "type": "function"
    },
    {
      "inputs": [],
      "name": "renounceOwnership",
      "outputs": [],
      "stateMutability": "nonpayable",
      "type": "function"
    },
    {
      "inputs": [],
      "name": "stableSwap",
      "outputs": [
        {
          "internalType": "contract ICurveStableSwap",
          "name": "",
          "type": "address"
        }
      ],
      "stateMutability": "view",
      "type": "function"
    },
    {
      "inputs": [],
      "name": "swapRouter",
      "outputs": [
        {
          "internalType": "contract ISwapRouter",
          "name": "",
          "type": "address"
        }
      ],
      "stateMutability": "view",
      "type": "function"
    },
    {
      "inputs": [
        {
          "internalType": "address",
          "name": "newOwner",
          "type": "address"
        }
      ],
      "name": "transferOwnership",
      "outputs": [],
      "stateMutability": "nonpayable",
      "type": "function"
    },
    {
      "inputs": [
        {
          "internalType": "address",
          "name": "newOracle",
          "type": "address"
        }
      ],
      "name": "updateEthOracle",
      "outputs": [],
      "stateMutability": "nonpayable",
      "type": "function"
    },
    {
      "inputs": [
        {
          "internalType": "address",
          "name": "newRouter",
          "type": "address"
        }
      ],
      "name": "updateSwapRouter",
      "outputs": [],
      "stateMutability": "nonpayable",
      "type": "function"
    },
    {
      "inputs": [
        {
          "internalType": "uint256",
          "name": "newTolerance",
          "type": "uint256"
        }
      ],
      "name": "updateTolerance",
      "outputs": [],
      "stateMutability": "nonpayable",
      "type": "function"
    },
    {
      "inputs": [],
      "name": "usdc",
      "outputs": [
        {
          "internalType": "contract IERC20",
          "name": "",
          "type": "address"
        }
      ],
      "stateMutability": "view",
      "type": "function"
    },
    {
      "inputs": [],
      "name": "usdt",
      "outputs": [
        {
          "internalType": "contract IERC20",
          "name": "",
          "type": "address"
        }
      ],
      "stateMutability": "view",
      "type": "function"
    },
    {
      "inputs": [],
      "name": "vault",
      "outputs": [
        {
          "internalType": "contract IERC4626",
          "name": "",
          "type": "address"
        }
      ],
      "stateMutability": "view",
      "type": "function"
    },
    {
      "inputs": [],
      "name": "weth",
      "outputs": [
        {
          "internalType": "contract IERC20",
          "name": "",
          "type": "address"
        }
      ],
      "stateMutability": "view",
      "type": "function"
    }
  ],
  "transactionHash": "0x8e245327c3cd17ee21343e72d706ada08489c72084fab84f1cd652e7127c08a8",
  "args": [],
  "numDeployments": 1,
  "solcInputHash": "39e3343bd211f4891f3ccb6661d16469",
  "bytecode": "0x60806040526032606e55612710606f5534801561001b57600080fd5b506119918061002b6000396000f3fe6080604052600436106101095760003560e01c8063715018a611610095578063b98b677f11610064578063b98b677f146102b6578063c31c9c07146102d6578063f2fde38b146102f6578063f5e95acb14610316578063fbfa77cf1461033657600080fd5b8063715018a6146102435780638da5cb5b1461025857806398733df0146102765780639e548b7f1461029657600080fd5b80633fc8cef3116100dc5780633fc8cef3146101b9578063439370b1146101d95780635fcbd285146101e1578063690e0dda146102015780636c13f8d71461022157600080fd5b8063062b032f1461010e5780632357928e1461014b5780632f48ab7d146101795780633e413bee14610199575b600080fd5b34801561011a57600080fd5b50606b5461012e906001600160a01b031681565b6040516001600160a01b0390911681526020015b60405180910390f35b34801561015757600080fd5b5061016b61016636600461161a565b610356565b604051908152602001610142565b34801561018557600080fd5b5060665461012e906001600160a01b031681565b3480156101a557600080fd5b5060655461012e906001600160a01b031681565b3480156101c557600080fd5b5060675461012e906001600160a01b031681565b61016b6107b9565b3480156101ed57600080fd5b5060685461012e906001600160a01b031681565b34801561020d57600080fd5b5061016b61021c36600461161a565b610b21565b34801561022d57600080fd5b5061024161023c36600461161a565b610ee3565b005b34801561024f57600080fd5b50610241610f3e565b34801561026457600080fd5b506033546001600160a01b031661012e565b34801561028257600080fd5b50610241610291366004611648565b610f74565b3480156102a257600080fd5b50606c5461012e906001600160a01b031681565b3480156102c257600080fd5b506102416102d1366004611648565b610fe7565b3480156102e257600080fd5b50606a5461012e906001600160a01b031681565b34801561030257600080fd5b50610241610311366004611648565b61105a565b34801561032257600080fd5b50610241610331366004611665565b6110f5565b34801561034257600080fd5b5060695461012e906001600160a01b031681565b60008160000361037957604051637c946ed760e01b815260040160405180910390fd5b6065546040516323b872dd60e01b8152336004820152306024820152604481018490526001600160a01b03909116906323b872dd906064016020604051808303816000875af11580156103d0573d6000803e3d6000fd5b505050506040513d601f19601f820116820180604052508101906103f49190611721565b506065546066546040516bffffffffffffffffffffffff19606093841b81166020830152607d60ea1b60348301529190921b166037820152600090604b0160408051601f1981840301815260a083018252808352306020840152428383015260608301869052600060808401819052606a54925163c04b8d5960e01b8152919450916001600160a01b03169063c04b8d5990610494908590600401611743565b6020604051808303816000875af11580156104b3573d6000803e3d6000fd5b505050506040513d601f19601f820116820180604052508101906104d791906117d6565b90506000606b60009054906101000a90046001600160a01b03166001600160a01b03166354f0f7d56040518163ffffffff1660e01b8152600401602060405180830381865afa15801561052e573d6000803e3d6000fd5b505050506040513d601f19601f8201168201806040525081019061055291906117d6565b606c54604080516060810182528581526000602082018190528183018190529151634515cef360e01b81529394506001600160a01b0390921692634515cef3926105a09290916004016117ef565b600060405180830381600087803b1580156105ba57600080fd5b505af11580156105ce573d6000803e3d6000fd5b50506068546040516370a0823160e01b8152306004820152600093506001600160a01b0390911691506370a0823190602401602060405180830381865afa15801561061d573d6000803e3d6000fd5b505050506040513d601f19601f8201168201806040525081019061064191906117d6565b9050606f54606e54606f54610656919061183d565b6106609089611854565b61066f9064e8d4a51000611854565b6106799190611873565b61068c8284670de0b6b3a7640000611428565b10156106e757606f54606e5460408051848152602081018690529081018a9052606081019290925260808201527f31eff883f84456179a3ff3133408f0908c5ebcae4219c9c47ce66670051f46129060a00160405180910390a15b606954604051636e553f6560e01b8152600481018390523360248201526001600160a01b0390911690636e553f65906044016020604051808303816000875af1158015610738573d6000803e3d6000fd5b505050506040513d601f19601f8201168201806040525081019061075c91906117d6565b606554604080518a8152602081018590529081018390529197506001600160a01b03169033907fe9cbb4acfef5baa4563d0097e70de6d95804f768674f44f7f58096a6bb0fe03c9060600160405180910390a35050505050919050565b6000348082036107dc57604051637c946ed760e01b815260040160405180910390fd5b606b54604080516354f0f7d560e01b815290516000926001600160a01b0316916354f0f7d59160048083019260209291908290030181865afa158015610826573d6000803e3d6000fd5b505050506040513d601f19601f8201168201806040525081019061084a91906117d6565b606c54604080516060810182526000808252602082018190528183018790529151634515cef360e01b81529394506001600160a01b0390921692634515cef3926108989290916004016117ef565b600060405180830381600087803b1580156108b257600080fd5b505af11580156108c6573d6000803e3d6000fd5b50506068546040516370a0823160e01b8152306004820152600093506001600160a01b0390911691506370a0823190602401602060405180830381865afa158015610915573d6000803e3d6000fd5b505050506040513d601f19601f8201168201806040525081019061093991906117d6565b9050610985606e54606f5461094e919061183d565b6109589085611854565b606f54610969906305f5e100611854565b606d5461097e906001600160a01b03166114db565b9190611428565b6109988284670de0b6b3a7640000611428565b10156109f357606f54606e546040805184815260208101869052908101869052606081019290925260808201527f31eff883f84456179a3ff3133408f0908c5ebcae4219c9c47ce66670051f46129060a00160405180910390a15b6069546068546040516370a0823160e01b81523060048201526001600160a01b0392831692636e553f659216906370a0823190602401602060405180830381865afa158015610a46573d6000803e3d6000fd5b505050506040513d601f19601f82011682018060405250810190610a6a91906117d6565b6040516001600160e01b031960e084901b16815260048101919091523360248201526044016020604051808303816000875af1158015610aae573d6000803e3d6000fd5b505050506040513d601f19601f82011682018060405250810190610ad291906117d6565b604080518581526020810184905290810182905290945060009033907fe9cbb4acfef5baa4563d0097e70de6d95804f768674f44f7f58096a6bb0fe03c9060600160405180910390a350505090565b600081600003610b4457604051637c946ed760e01b815260040160405180910390fd5b6067546040516323b872dd60e01b8152336004820152306024820152604481018490526001600160a01b03909116906323b872dd906064016020604051808303816000875af1158015610b9b573d6000803e3d6000fd5b505050506040513d601f19601f82011682018060405250810190610bbf9190611721565b50606b54604080516354f0f7d560e01b815290516000926001600160a01b0316916354f0f7d59160048083019260209291908290030181865afa158015610c0a573d6000803e3d6000fd5b505050506040513d601f19601f82011682018060405250810190610c2e91906117d6565b606c54604080516060810182526000808252602082018190528183018890529151634515cef360e01b81529394506001600160a01b0390921692634515cef392610c7c9290916004016117ef565b600060405180830381600087803b158015610c9657600080fd5b505af1158015610caa573d6000803e3d6000fd5b50506068546040516370a0823160e01b8152306004820152600093506001600160a01b0390911691506370a0823190602401602060405180830381865afa158015610cf9573d6000803e3d6000fd5b505050506040513d601f19601f82011682018060405250810190610d1d91906117d6565b9050610d3c606e54606f54610d32919061183d565b6109589086611854565b610d4f8284670de0b6b3a7640000611428565b1015610daa57606f54606e546040805184815260208101869052908101879052606081019290925260808201527f31eff883f84456179a3ff3133408f0908c5ebcae4219c9c47ce66670051f46129060a00160405180910390a15b6069546068546040516370a0823160e01b81523060048201526001600160a01b0392831692636e553f659216906370a0823190602401602060405180830381865afa158015610dfd573d6000803e3d6000fd5b505050506040513d601f19601f82011682018060405250810190610e2191906117d6565b6040516001600160e01b031960e084901b16815260048101919091523360248201526044016020604051808303816000875af1158015610e65573d6000803e3d6000fd5b505050506040513d601f19601f82011682018060405250810190610e8991906117d6565b60655460408051878152602081018590529081018390529194506001600160a01b03169033907fe9cbb4acfef5baa4563d0097e70de6d95804f768674f44f7f58096a6bb0fe03c9060600160405180910390a35050919050565b6033546001600160a01b03163314610f165760405162461bcd60e51b8152600401610f0d90611895565b60405180910390fd5b606f54811115610f3957604051632d0483c560e21b815260040160405180910390fd5b606e55565b6033546001600160a01b03163314610f685760405162461bcd60e51b8152600401610f0d90611895565b610f72600061156e565b565b6033546001600160a01b03163314610f9e5760405162461bcd60e51b8152600401610f0d90611895565b6001600160a01b038116610fc557604051637c946ed760e01b815260040160405180910390fd5b606d80546001600160a01b0319166001600160a01b0392909216919091179055565b6033546001600160a01b031633146110115760405162461bcd60e51b8152600401610f0d90611895565b6001600160a01b03811661103857604051637c946ed760e01b815260040160405180910390fd5b606a80546001600160a01b0319166001600160a01b0392909216919091179055565b6033546001600160a01b031633146110845760405162461bcd60e51b8152600401610f0d90611895565b6001600160a01b0381166110e95760405162461bcd60e51b815260206004820152602660248201527f4f776e61626c653a206e6577206f776e657220697320746865207a65726f206160448201526564647265737360d01b6064820152608401610f0d565b6110f28161156e565b50565b600054610100900460ff166111105760005460ff1615611114565b303b155b6111775760405162461bcd60e51b815260206004820152602e60248201527f496e697469616c697a61626c653a20636f6e747261637420697320616c72656160448201526d191e481a5b9a5d1a585b1a5e995960921b6064820152608401610f0d565b600054610100900460ff16158015611199576000805461ffff19166101011790555b6111a16115c0565b606580546001600160a01b03199081166001600160a01b038d8116919091179092556066805482168c84161790556067805482168b84169081179091556069805483168a85161790556068805483168b8516179055606b80548316888516179055606c80548316878516908117909155606a805484168a8616179055606d80549093169386169390931790915560405163095ea7b360e01b8152600481019290925260001960248301529063095ea7b3906044016020604051808303816000875af1158015611274573d6000803e3d6000fd5b505050506040513d601f19601f820116820180604052508101906112989190611721565b50606654606c5460405163095ea7b360e01b81526001600160a01b039182166004820152600019602482015291169063095ea7b3906044016020604051808303816000875af11580156112ef573d6000803e3d6000fd5b505050506040513d601f19601f820116820180604052508101906113139190611721565b50606554606a5460405163095ea7b360e01b81526001600160a01b039182166004820152600019602482015291169063095ea7b3906044016020604051808303816000875af115801561136a573d6000803e3d6000fd5b505050506040513d601f19601f8201168201806040525081019061138e9190611721565b5060685460695460405163095ea7b360e01b81526001600160a01b039182166004820152600019602482015291169063095ea7b3906044016020604051808303816000875af11580156113e5573d6000803e3d6000fd5b505050506040513d601f19601f820116820180604052508101906114099190611721565b50801561141c576000805461ff00191690555b50505050505050505050565b6000808060001985870985870292508281108382030391505080600003611461576000841161145657600080fd5b5082900490506114d4565b80841161146d57600080fd5b6000848688096000868103871696879004966002600389028118808a02820302808a02820302808a02820302808a02820302808a02820302808a02909103029181900381900460010186841190950394909402919094039290920491909117919091029150505b9392505050565b600080826001600160a01b031663feaf968c6040518163ffffffff1660e01b815260040160a060405180830381865afa15801561151c573d6000803e3d6000fd5b505050506040513d601f19601f8201168201806040525081019061154091906118e9565b5050509150506000811215611568576040516330e53b6960e11b815260040160405180910390fd5b92915050565b603380546001600160a01b038381166001600160a01b0319831681179093556040519116919082907f8be0079c531659141344cd1fd0a4f28419497f9722a3daafe3b4186f6b6457e090600090a35050565b600054610100900460ff166115e75760405162461bcd60e51b8152600401610f0d90611939565b610f72600054610100900460ff166116115760405162461bcd60e51b8152600401610f0d90611939565b610f723361156e565b60006020828403121561162c57600080fd5b5035919050565b6001600160a01b03811681146110f257600080fd5b60006020828403121561165a57600080fd5b81356114d481611633565b60008060008060008060008060006101208a8c03121561168457600080fd5b893561168f81611633565b985060208a013561169f81611633565b975060408a01356116af81611633565b965060608a01356116bf81611633565b955060808a01356116cf81611633565b945060a08a01356116df81611633565b935060c08a01356116ef81611633565b925060e08a01356116ff81611633565b91506101008a013561171081611633565b809150509295985092959850929598565b60006020828403121561173357600080fd5b815180151581146114d457600080fd5b60006020808352835160a08285015280518060c086015260005b818110156117795782810184015186820160e00152830161175d565b8181111561178b57600060e083880101525b50918501516001600160a01b0381166040860152916040860151606086015260608601516080860152608086015160a086015260e0601f19601f830116860101935050505092915050565b6000602082840312156117e857600080fd5b5051919050565b60808101818460005b60038110156118175781518352602092830192909101906001016117f8565b5050508260608301529392505050565b634e487b7160e01b600052601160045260246000fd5b60008282101561184f5761184f611827565b500390565b600081600019048311821515161561186e5761186e611827565b500290565b60008261189057634e487b7160e01b600052601260045260246000fd5b500490565b6020808252818101527f4f776e61626c653a2063616c6c6572206973206e6f7420746865206f776e6572604082015260600190565b805169ffffffffffffffffffff811681146118e457600080fd5b919050565b600080600080600060a0868803121561190157600080fd5b61190a866118ca565b945060208601519350604086015192506060860151915061192d608087016118ca565b90509295509295909350565b6020808252602b908201527f496e697469616c697a61626c653a20636f6e7472616374206973206e6f74206960408201526a6e697469616c697a696e6760a81b60608201526080019056fea164736f6c634300080d000a",
  "userdoc": {
    "kind": "user",
    "methods": {},
    "version": 1
  },
  "storageLayout": {
    "storage": [
      {
        "astId": 217,
        "contract": "contracts/yieldStrategy/VaultPeriphery.sol:VaultPeriphery",
        "label": "_initialized",
        "offset": 0,
        "slot": "0",
        "type": "t_bool"
      },
      {
        "astId": 220,
        "contract": "contracts/yieldStrategy/VaultPeriphery.sol:VaultPeriphery",
        "label": "_initializing",
        "offset": 1,
        "slot": "0",
        "type": "t_bool"
      },
      {
        "astId": 1395,
        "contract": "contracts/yieldStrategy/VaultPeriphery.sol:VaultPeriphery",
        "label": "__gap",
        "offset": 0,
        "slot": "1",
        "type": "t_array(t_uint256)50_storage"
      },
      {
        "astId": 97,
        "contract": "contracts/yieldStrategy/VaultPeriphery.sol:VaultPeriphery",
        "label": "_owner",
        "offset": 0,
        "slot": "51",
        "type": "t_address"
      },
      {
        "astId": 209,
        "contract": "contracts/yieldStrategy/VaultPeriphery.sol:VaultPeriphery",
        "label": "__gap",
        "offset": 0,
        "slot": "52",
        "type": "t_array(t_uint256)49_storage"
      },
      {
        "astId": 31583,
        "contract": "contracts/yieldStrategy/VaultPeriphery.sol:VaultPeriphery",
        "label": "usdc",
        "offset": 0,
        "slot": "101",
        "type": "t_contract(IERC20)3537"
      },
      {
        "astId": 31586,
        "contract": "contracts/yieldStrategy/VaultPeriphery.sol:VaultPeriphery",
        "label": "usdt",
        "offset": 0,
        "slot": "102",
        "type": "t_contract(IERC20)3537"
      },
      {
        "astId": 31589,
        "contract": "contracts/yieldStrategy/VaultPeriphery.sol:VaultPeriphery",
        "label": "weth",
        "offset": 0,
        "slot": "103",
        "type": "t_contract(IERC20)3537"
      },
      {
        "astId": 31592,
        "contract": "contracts/yieldStrategy/VaultPeriphery.sol:VaultPeriphery",
        "label": "lpToken",
        "offset": 0,
        "slot": "104",
        "type": "t_contract(IERC20)3537"
      },
      {
        "astId": 31595,
        "contract": "contracts/yieldStrategy/VaultPeriphery.sol:VaultPeriphery",
        "label": "vault",
        "offset": 0,
        "slot": "105",
        "type": "t_contract(IERC4626)26691"
      },
      {
        "astId": 31598,
        "contract": "contracts/yieldStrategy/VaultPeriphery.sol:VaultPeriphery",
        "label": "swapRouter",
        "offset": 0,
        "slot": "106",
        "type": "t_contract(ISwapRouter)25276"
      },
      {
        "astId": 31601,
        "contract": "contracts/yieldStrategy/VaultPeriphery.sol:VaultPeriphery",
        "label": "lpOracle",
        "offset": 0,
        "slot": "107",
        "type": "t_contract(ILPPriceGetter)26870"
      },
      {
        "astId": 31604,
        "contract": "contracts/yieldStrategy/VaultPeriphery.sol:VaultPeriphery",
        "label": "stableSwap",
        "offset": 0,
        "slot": "108",
        "type": "t_contract(ICurveStableSwap)26862"
      },
      {
        "astId": 31607,
        "contract": "contracts/yieldStrategy/VaultPeriphery.sol:VaultPeriphery",
        "label": "ethOracle",
        "offset": 0,
        "slot": "109",
        "type": "t_contract(AggregatorV3Interface)45"
      },
      {
        "astId": 31611,
        "contract": "contracts/yieldStrategy/VaultPeriphery.sol:VaultPeriphery",
        "label": "MAX_TOLERANCE",
        "offset": 0,
        "slot": "110",
        "type": "t_uint256"
      },
      {
        "astId": 31614,
        "contract": "contracts/yieldStrategy/VaultPeriphery.sol:VaultPeriphery",
        "label": "MAX_BPS",
        "offset": 0,
        "slot": "111",
        "type": "t_uint256"
      }
    ],
    "types": {
      "t_address": {
        "encoding": "inplace",
        "label": "address",
        "numberOfBytes": "20"
      },
      "t_array(t_uint256)49_storage": {
        "base": "t_uint256",
        "encoding": "inplace",
        "label": "uint256[49]",
        "numberOfBytes": "1568"
      },
      "t_array(t_uint256)50_storage": {
        "base": "t_uint256",
        "encoding": "inplace",
        "label": "uint256[50]",
        "numberOfBytes": "1600"
      },
      "t_bool": {
        "encoding": "inplace",
        "label": "bool",
        "numberOfBytes": "1"
      },
      "t_contract(AggregatorV3Interface)45": {
        "encoding": "inplace",
        "label": "contract AggregatorV3Interface",
        "numberOfBytes": "20"
      },
      "t_contract(ICurveStableSwap)26862": {
        "encoding": "inplace",
        "label": "contract ICurveStableSwap",
        "numberOfBytes": "20"
      },
      "t_contract(IERC20)3537": {
        "encoding": "inplace",
        "label": "contract IERC20",
        "numberOfBytes": "20"
      },
      "t_contract(IERC4626)26691": {
        "encoding": "inplace",
        "label": "contract IERC4626",
        "numberOfBytes": "20"
      },
      "t_contract(ILPPriceGetter)26870": {
        "encoding": "inplace",
        "label": "contract ILPPriceGetter",
        "numberOfBytes": "20"
      },
      "t_contract(ISwapRouter)25276": {
        "encoding": "inplace",
        "label": "contract ISwapRouter",
        "numberOfBytes": "20"
      },
      "t_uint256": {
        "encoding": "inplace",
        "label": "uint256",
        "numberOfBytes": "32"
      }
    }
  }
}