{
  "address": "0x4045F1524C57857D316a3b7471eF11987Bda2037",
  "abi": [
    {
      "inputs": [
        {
          "internalType": "address",
          "name": "senderAddress",
          "type": "address"
        }
      ],
      "name": "AccessDenied",
      "type": "error"
    },
    {
      "inputs": [
        {
          "internalType": "uint256",
          "name": "length",
          "type": "uint256"
        },
        {
          "internalType": "uint256",
          "name": "limit",
          "type": "uint256"
        }
      ],
      "name": "CalldataLengthExceeded",
      "type": "error"
    },
    {
      "inputs": [
        {
          "internalType": "uint256",
          "name": "gasUsedClaim",
          "type": "uint256"
        },
        {
          "internalType": "uint256",
          "name": "gasUsedActual",
          "type": "uint256"
        }
      ],
      "name": "ExcessGasUsedClaim",
      "type": "error"
    },
    {
      "inputs": [
        {
          "internalType": "uint256",
          "name": "txGasPrice",
          "type": "uint256"
        },
        {
          "internalType": "uint256",
          "name": "limit",
          "type": "uint256"
        }
      ],
      "name": "ExcessTxGasPrice",
      "type": "error"
    },
    {
      "inputs": [
        {
          "internalType": "uint160",
          "name": "sqrtPriceX96",
          "type": "uint160"
        }
      ],
      "name": "IllegalSqrtPrice",
      "type": "error"
    },
    {
      "inputs": [
        {
          "internalType": "uint32",
          "name": "period",
          "type": "uint32"
        }
      ],
      "name": "IllegalTwapDuration",
      "type": "error"
    },
    {
      "inputs": [],
      "name": "InvalidTokenLiquidationParameters",
      "type": "error"
    },
    {
      "inputs": [
        {
          "internalType": "uint256",
          "name": "notionalValue",
          "type": "uint256"
        }
      ],
      "name": "LowNotionalValue",
      "type": "error"
    },
    {
      "inputs": [],
      "name": "NotRageTradeFactory",
      "type": "error"
    },
    {
      "inputs": [],
      "name": "Paused",
      "type": "error"
    },
    {
      "inputs": [],
      "name": "SlippageBeyondTolerance",
      "type": "error"
    },
    {
      "inputs": [],
      "name": "Unauthorised",
      "type": "error"
    },
    {
      "inputs": [
        {
          "internalType": "uint32",
          "name": "vTokenTruncatedAddress",
          "type": "uint32"
        }
      ],
      "name": "UninitializedToken",
      "type": "error"
    },
    {
      "inputs": [
        {
          "internalType": "address",
          "name": "rTokenAddress",
          "type": "address"
        }
      ],
      "name": "UnsupportedRToken",
      "type": "error"
    },
    {
      "inputs": [
        {
          "internalType": "contract IVToken",
          "name": "vToken",
          "type": "address"
        }
      ],
      "name": "UnsupportedVToken",
      "type": "error"
    },
    {
      "inputs": [],
      "name": "ZeroAddress",
      "type": "error"
    },
    {
      "anonymous": false,
      "inputs": [
        {
          "indexed": true,
          "internalType": "address",
          "name": "previousGovernance",
          "type": "address"
        },
        {
          "indexed": true,
          "internalType": "address",
          "name": "newGovernance",
          "type": "address"
        }
      ],
      "name": "GovernanceTransferred",
      "type": "event"
    },
    {
      "anonymous": false,
      "inputs": [
        {
          "indexed": true,
          "internalType": "address",
          "name": "previousTeamMultisig",
          "type": "address"
        },
        {
          "indexed": true,
          "internalType": "address",
          "name": "newTeamMultisig",
          "type": "address"
        }
      ],
      "name": "TeamMultisigTransferred",
      "type": "event"
    },
    {
      "inputs": [
        {
          "internalType": "address",
          "name": "_rageTradeFactoryAddress",
          "type": "address"
        },
        {
          "internalType": "contract IERC20",
          "name": "_rBase",
          "type": "address"
        },
        {
          "internalType": "contract IInsuranceFund",
          "name": "_insuranceFund",
          "type": "address"
        },
        {
          "internalType": "contract IVBase",
          "name": "_vBase",
          "type": "address"
        },
        {
          "internalType": "contract IOracle",
          "name": "_nativeOracle",
          "type": "address"
        }
      ],
      "name": "__ClearingHouse_init",
      "outputs": [],
      "stateMutability": "nonpayable",
      "type": "function"
    },
    {
      "inputs": [
        {
          "internalType": "address",
          "name": "rTokenAddress",
          "type": "address"
        },
        {
          "internalType": "address",
          "name": "oracleAddress",
          "type": "address"
        },
        {
          "internalType": "uint32",
          "name": "twapDuration",
          "type": "uint32"
        }
      ],
      "name": "addCollateralSupport",
      "outputs": [],
      "stateMutability": "nonpayable",
      "type": "function"
    },
    {
      "inputs": [
        {
          "internalType": "uint256",
          "name": "accountNo",
          "type": "uint256"
        },
        {
          "internalType": "uint32",
          "name": "rTokenTruncatedAddress",
          "type": "uint32"
        },
        {
          "internalType": "uint256",
          "name": "amount",
          "type": "uint256"
        }
      ],
      "name": "addMargin",
      "outputs": [],
      "stateMutability": "nonpayable",
      "type": "function"
    },
    {
      "inputs": [],
      "name": "createAccount",
      "outputs": [
        {
          "internalType": "uint256",
          "name": "newAccountId",
          "type": "uint256"
        }
      ],
      "stateMutability": "nonpayable",
      "type": "function"
    },
    {
      "inputs": [
        {
          "internalType": "bytes32",
          "name": "slot",
          "type": "bytes32"
        }
      ],
      "name": "extsload",
      "outputs": [
        {
          "internalType": "bytes32",
          "name": "val",
          "type": "bytes32"
        }
      ],
      "stateMutability": "view",
      "type": "function"
    },
    {
      "inputs": [
        {
          "internalType": "bytes32[]",
          "name": "slots",
          "type": "bytes32[]"
        }
      ],
      "name": "extsload",
      "outputs": [
        {
          "internalType": "bytes32[]",
          "name": "",
          "type": "bytes32[]"
        }
      ],
      "stateMutability": "view",
      "type": "function"
    },
    {
      "inputs": [
        {
          "internalType": "uint256",
          "name": "accountNo",
          "type": "uint256"
        },
        {
          "internalType": "bool",
          "name": "isInitialMargin",
          "type": "bool"
        }
      ],
      "name": "getAccountMarketValueAndRequiredMargin",
      "outputs": [
        {
          "internalType": "int256",
          "name": "accountMarketValue",
          "type": "int256"
        },
        {
          "internalType": "int256",
          "name": "requiredMargin",
          "type": "int256"
        }
      ],
      "stateMutability": "view",
      "type": "function"
    },
    {
      "inputs": [
        {
          "internalType": "uint256",
          "name": "accountNo",
          "type": "uint256"
        }
      ],
      "name": "getAccountView",
      "outputs": [
        {
          "internalType": "address",
          "name": "owner",
          "type": "address"
        },
        {
          "internalType": "int256",
          "name": "vBaseBalance",
          "type": "int256"
        },
        {
          "components": [
            {
              "internalType": "address",
              "name": "rTokenAddress",
              "type": "address"
            },
            {
              "internalType": "uint256",
              "name": "balance",
              "type": "uint256"
            }
          ],
          "internalType": "struct IClearingHouse.DepositTokenView[]",
          "name": "tokenDeposits",
          "type": "tuple[]"
        },
        {
          "components": [
            {
              "internalType": "address",
              "name": "vTokenAddress",
              "type": "address"
            },
            {
              "internalType": "int256",
              "name": "balance",
              "type": "int256"
            },
            {
              "internalType": "int256",
              "name": "netTraderPosition",
              "type": "int256"
            },
            {
              "internalType": "int256",
              "name": "sumAX128Ckpt",
              "type": "int256"
            },
            {
              "components": [
                {
                  "internalType": "enum IClearingHouse.LimitOrderType",
                  "name": "limitOrderType",
                  "type": "uint8"
                },
                {
                  "internalType": "int24",
                  "name": "tickLower",
                  "type": "int24"
                },
                {
                  "internalType": "int24",
                  "name": "tickUpper",
                  "type": "int24"
                },
                {
                  "internalType": "uint128",
                  "name": "liquidity",
                  "type": "uint128"
                },
                {
                  "internalType": "int256",
                  "name": "vTokenAmountIn",
                  "type": "int256"
                },
                {
                  "internalType": "int256",
                  "name": "sumALastX128",
                  "type": "int256"
                },
                {
                  "internalType": "int256",
                  "name": "sumBInsideLastX128",
                  "type": "int256"
                },
                {
                  "internalType": "int256",
                  "name": "sumFpInsideLastX128",
                  "type": "int256"
                },
                {
                  "internalType": "uint256",
                  "name": "sumFeeInsideLastX128",
                  "type": "uint256"
                }
              ],
              "internalType": "struct IClearingHouse.LiquidityPositionView[]",
              "name": "liquidityPositions",
              "type": "tuple[]"
            }
          ],
          "internalType": "struct IClearingHouse.VTokenPositionView[]",
          "name": "tokenPositions",
          "type": "tuple[]"
        }
      ],
      "stateMutability": "view",
      "type": "function"
    },
    {
      "inputs": [
        {
          "internalType": "contract IVToken",
          "name": "vToken",
          "type": "address"
        }
      ],
      "name": "getTwapSqrtPricesForSetDuration",
      "outputs": [
        {
          "internalType": "uint256",
          "name": "realPriceX128",
          "type": "uint256"
        },
        {
          "internalType": "uint256",
          "name": "virtualPriceX128",
          "type": "uint256"
        }
      ],
      "stateMutability": "view",
      "type": "function"
    },
    {
      "inputs": [],
      "name": "governance",
      "outputs": [
        {
          "internalType": "address",
          "name": "",
          "type": "address"
        }
      ],
      "stateMutability": "view",
      "type": "function"
    },
    {
      "inputs": [
        {
          "internalType": "address",
          "name": "realToken",
          "type": "address"
        }
      ],
      "name": "initRealToken",
      "outputs": [],
      "stateMutability": "nonpayable",
      "type": "function"
    },
    {
      "inputs": [],
      "name": "insuranceFund",
      "outputs": [
        {
          "internalType": "contract IInsuranceFund",
          "name": "",
          "type": "address"
        }
      ],
      "stateMutability": "view",
      "type": "function"
    },
    {
      "inputs": [
        {
          "internalType": "address",
          "name": "realToken",
          "type": "address"
        }
      ],
      "name": "isRealTokenAlreadyInitilized",
      "outputs": [
        {
          "internalType": "bool",
          "name": "",
          "type": "bool"
        }
      ],
      "stateMutability": "view",
      "type": "function"
    },
    {
      "inputs": [
        {
          "internalType": "uint32",
          "name": "truncated",
          "type": "uint32"
        }
      ],
      "name": "isVTokenAddressAvailable",
      "outputs": [
        {
          "internalType": "bool",
          "name": "",
          "type": "bool"
        }
      ],
      "stateMutability": "view",
      "type": "function"
    },
    {
      "inputs": [
        {
          "internalType": "uint256",
          "name": "accountNo",
          "type": "uint256"
        }
      ],
      "name": "liquidateLiquidityPositions",
      "outputs": [
        {
          "internalType": "int256",
          "name": "keeperFee",
          "type": "int256"
        }
      ],
      "stateMutability": "nonpayable",
      "type": "function"
    },
    {
      "inputs": [
        {
          "internalType": "uint256",
          "name": "accountNo",
          "type": "uint256"
        },
        {
          "internalType": "uint256",
          "name": "gasComputationUnitsClaim",
          "type": "uint256"
        }
      ],
      "name": "liquidateLiquidityPositionsWithGasClaim",
      "outputs": [
        {
          "internalType": "int256",
          "name": "keeperFee",
          "type": "int256"
        }
      ],
      "stateMutability": "nonpayable",
      "type": "function"
    },
    {
      "inputs": [
        {
          "internalType": "uint256",
          "name": "liquidatorAccountNo",
          "type": "uint256"
        },
        {
          "internalType": "uint256",
          "name": "accountNo",
          "type": "uint256"
        },
        {
          "internalType": "uint32",
          "name": "vTokenTruncatedAddress",
          "type": "uint32"
        },
        {
          "internalType": "uint16",
          "name": "liquidationBps",
          "type": "uint16"
        }
      ],
      "name": "liquidateTokenPosition",
      "outputs": [
        {
          "components": [
            {
              "internalType": "int256",
              "name": "vBaseIncrease",
              "type": "int256"
            },
            {
              "internalType": "int256",
              "name": "vTokenIncrease",
              "type": "int256"
            },
            {
              "internalType": "int256",
              "name": "traderPositionIncrease",
              "type": "int256"
            }
          ],
          "internalType": "struct IClearingHouse.BalanceAdjustments",
          "name": "liquidatorBalanceAdjustments",
          "type": "tuple"
        }
      ],
      "stateMutability": "nonpayable",
      "type": "function"
    },
    {
      "inputs": [
        {
          "internalType": "uint256",
          "name": "liquidatorAccountNo",
          "type": "uint256"
        },
        {
          "internalType": "uint256",
          "name": "accountNo",
          "type": "uint256"
        },
        {
          "internalType": "uint32",
          "name": "vTokenTruncatedAddress",
          "type": "uint32"
        },
        {
          "internalType": "uint16",
          "name": "liquidationBps",
          "type": "uint16"
        },
        {
          "internalType": "uint256",
          "name": "gasComputationUnitsClaim",
          "type": "uint256"
        }
      ],
      "name": "liquidateTokenPositionWithGasClaim",
      "outputs": [
        {
          "components": [
            {
              "internalType": "int256",
              "name": "vBaseIncrease",
              "type": "int256"
            },
            {
              "internalType": "int256",
              "name": "vTokenIncrease",
              "type": "int256"
            },
            {
              "internalType": "int256",
              "name": "traderPositionIncrease",
              "type": "int256"
            }
          ],
          "internalType": "struct IClearingHouse.BalanceAdjustments",
          "name": "liquidatorBalanceAdjustments",
          "type": "tuple"
        }
      ],
      "stateMutability": "nonpayable",
      "type": "function"
    },
    {
      "inputs": [],
      "name": "nativeOracle",
      "outputs": [
        {
          "internalType": "contract IOracle",
          "name": "",
          "type": "address"
        }
      ],
      "stateMutability": "view",
      "type": "function"
    },
    {
      "inputs": [],
      "name": "numAccounts",
      "outputs": [
        {
          "internalType": "uint256",
          "name": "",
          "type": "uint256"
        }
      ],
      "stateMutability": "view",
      "type": "function"
    },
    {
      "inputs": [],
      "name": "paused",
      "outputs": [
        {
          "internalType": "bool",
          "name": "",
          "type": "bool"
        }
      ],
      "stateMutability": "view",
      "type": "function"
    },
    {
      "inputs": [
        {
          "internalType": "contract IVToken",
          "name": "vToken",
          "type": "address"
        }
      ],
      "name": "pools",
      "outputs": [
        {
          "components": [
            {
              "internalType": "contract IUniswapV3Pool",
              "name": "vPool",
              "type": "address"
            },
            {
              "internalType": "contract IVPoolWrapper",
              "name": "vPoolWrapper",
              "type": "address"
            },
            {
              "components": [
                {
                  "internalType": "uint16",
                  "name": "initialMarginRatio",
                  "type": "uint16"
                },
                {
                  "internalType": "uint16",
                  "name": "maintainanceMarginRatio",
                  "type": "uint16"
                },
                {
                  "internalType": "uint32",
                  "name": "twapDuration",
                  "type": "uint32"
                },
                {
                  "internalType": "bool",
                  "name": "whitelisted",
                  "type": "bool"
                },
                {
                  "internalType": "contract IOracle",
                  "name": "oracle",
                  "type": "address"
                }
              ],
              "internalType": "struct IClearingHouse.RageTradePoolSettings",
              "name": "settings",
              "type": "tuple"
            }
          ],
          "internalType": "struct IClearingHouse.RageTradePool",
          "name": "",
          "type": "tuple"
        }
      ],
      "stateMutability": "view",
      "type": "function"
    },
    {
      "inputs": [],
      "name": "protocolInfo",
      "outputs": [
        {
          "internalType": "contract IVBase",
          "name": "vBase",
          "type": "address"
        },
        {
          "components": [
            {
              "internalType": "uint16",
              "name": "liquidationFeeFraction",
              "type": "uint16"
            },
            {
              "internalType": "uint16",
              "name": "tokenLiquidationPriceDeltaBps",
              "type": "uint16"
            },
            {
              "internalType": "uint16",
              "name": "insuranceFundFeeShareBps",
              "type": "uint16"
            }
          ],
          "internalType": "struct Account.LiquidationParams",
          "name": "liquidationParams",
          "type": "tuple"
        },
        {
          "internalType": "uint256",
          "name": "minRequiredMargin",
          "type": "uint256"
        },
        {
          "internalType": "uint256",
          "name": "removeLimitOrderFee",
          "type": "uint256"
        },
        {
          "internalType": "uint256",
          "name": "minimumOrderNotional",
          "type": "uint256"
        }
      ],
      "stateMutability": "view",
      "type": "function"
    },
    {
      "inputs": [],
      "name": "rBase",
      "outputs": [
        {
          "internalType": "contract IERC20",
          "name": "",
          "type": "address"
        }
      ],
      "stateMutability": "view",
      "type": "function"
    },
    {
      "inputs": [
        {
          "internalType": "uint32",
          "name": "rTokenId",
          "type": "uint32"
        }
      ],
      "name": "rTokens",
      "outputs": [
        {
          "components": [
            {
              "internalType": "address",
              "name": "tokenAddress",
              "type": "address"
            },
            {
              "internalType": "address",
              "name": "oracleAddress",
              "type": "address"
            },
            {
              "internalType": "uint32",
              "name": "oracleTimeHorizon",
              "type": "uint32"
            }
          ],
          "internalType": "struct RTokenLib.RToken",
          "name": "",
          "type": "tuple"
        }
      ],
      "stateMutability": "view",
      "type": "function"
    },
    {
      "inputs": [],
      "name": "rageTradeFactoryAddress",
      "outputs": [
        {
          "internalType": "address",
          "name": "",
          "type": "address"
        }
      ],
      "stateMutability": "view",
      "type": "function"
    },
    {
      "inputs": [
        {
          "internalType": "address",
          "name": "",
          "type": "address"
        }
      ],
      "name": "realTokenInitilized",
      "outputs": [
        {
          "internalType": "bool",
          "name": "",
          "type": "bool"
        }
      ],
      "stateMutability": "view",
      "type": "function"
    },
    {
      "inputs": [
        {
          "internalType": "address",
          "name": "full",
          "type": "address"
        },
        {
          "components": [
            {
              "internalType": "contract IUniswapV3Pool",
              "name": "vPool",
              "type": "address"
            },
            {
              "internalType": "contract IVPoolWrapper",
              "name": "vPoolWrapper",
              "type": "address"
            },
            {
              "components": [
                {
                  "internalType": "uint16",
                  "name": "initialMarginRatio",
                  "type": "uint16"
                },
                {
                  "internalType": "uint16",
                  "name": "maintainanceMarginRatio",
                  "type": "uint16"
                },
                {
                  "internalType": "uint32",
                  "name": "twapDuration",
                  "type": "uint32"
                },
                {
                  "internalType": "bool",
                  "name": "whitelisted",
                  "type": "bool"
                },
                {
                  "internalType": "contract IOracle",
                  "name": "oracle",
                  "type": "address"
                }
              ],
              "internalType": "struct IClearingHouse.RageTradePoolSettings",
              "name": "settings",
              "type": "tuple"
            }
          ],
          "internalType": "struct IClearingHouse.RageTradePool",
          "name": "rageTradePool",
          "type": "tuple"
        }
      ],
      "name": "registerPool",
      "outputs": [],
      "stateMutability": "nonpayable",
      "type": "function"
    },
    {
      "inputs": [
        {
          "internalType": "uint256",
          "name": "accountNo",
          "type": "uint256"
        },
        {
          "internalType": "uint32",
          "name": "vTokenTruncatedAddress",
          "type": "uint32"
        },
        {
          "internalType": "int24",
          "name": "tickLower",
          "type": "int24"
        },
        {
          "internalType": "int24",
          "name": "tickUpper",
          "type": "int24"
        }
      ],
      "name": "removeLimitOrder",
      "outputs": [
        {
          "internalType": "uint256",
          "name": "keeperFee",
          "type": "uint256"
        }
      ],
      "stateMutability": "nonpayable",
      "type": "function"
    },
    {
      "inputs": [
        {
          "internalType": "uint256",
          "name": "accountNo",
          "type": "uint256"
        },
        {
          "internalType": "uint32",
          "name": "vTokenTruncatedAddress",
          "type": "uint32"
        },
        {
          "internalType": "int24",
          "name": "tickLower",
          "type": "int24"
        },
        {
          "internalType": "int24",
          "name": "tickUpper",
          "type": "int24"
        },
        {
          "internalType": "uint256",
          "name": "gasComputationUnitsClaim",
          "type": "uint256"
        }
      ],
      "name": "removeLimitOrderWithGasClaim",
      "outputs": [
        {
          "internalType": "uint256",
          "name": "keeperFee",
          "type": "uint256"
        }
      ],
      "stateMutability": "nonpayable",
      "type": "function"
    },
    {
      "inputs": [
        {
          "internalType": "uint256",
          "name": "accountNo",
          "type": "uint256"
        },
        {
          "internalType": "uint32",
          "name": "rTokenTruncatedAddress",
          "type": "uint32"
        },
        {
          "internalType": "uint256",
          "name": "amount",
          "type": "uint256"
        }
      ],
      "name": "removeMargin",
      "outputs": [],
      "stateMutability": "nonpayable",
      "type": "function"
    },
    {
      "inputs": [
        {
          "internalType": "uint256",
          "name": "accountNo",
          "type": "uint256"
        },
        {
          "internalType": "uint256",
          "name": "amount",
          "type": "uint256"
        }
      ],
      "name": "removeProfit",
      "outputs": [],
      "stateMutability": "nonpayable",
      "type": "function"
    },
    {
      "inputs": [
        {
          "internalType": "bool",
          "name": "_pause",
          "type": "bool"
        }
      ],
      "name": "setPaused",
      "outputs": [],
      "stateMutability": "nonpayable",
      "type": "function"
    },
    {
      "inputs": [
        {
          "components": [
            {
              "internalType": "uint16",
              "name": "liquidationFeeFraction",
              "type": "uint16"
            },
            {
              "internalType": "uint16",
              "name": "tokenLiquidationPriceDeltaBps",
              "type": "uint16"
            },
            {
              "internalType": "uint16",
              "name": "insuranceFundFeeShareBps",
              "type": "uint16"
            }
          ],
          "internalType": "struct Account.LiquidationParams",
          "name": "_liquidationParams",
          "type": "tuple"
        },
        {
          "internalType": "uint256",
          "name": "_removeLimitOrderFee",
          "type": "uint256"
        },
        {
          "internalType": "uint256",
          "name": "_minimumOrderNotional",
          "type": "uint256"
        },
        {
          "internalType": "uint256",
          "name": "_minRequiredMargin",
          "type": "uint256"
        }
      ],
      "name": "setPlatformParameters",
      "outputs": [],
      "stateMutability": "nonpayable",
      "type": "function"
    },
    {
      "inputs": [
        {
          "internalType": "uint256",
          "name": "_txGasPriceLimit",
          "type": "uint256"
        }
      ],
      "name": "setTxGasPriceLimit",
      "outputs": [],
      "stateMutability": "nonpayable",
      "type": "function"
    },
    {
      "inputs": [
        {
          "internalType": "address",
          "name": "",
          "type": "address"
        }
      ],
      "name": "supportedDeposits",
      "outputs": [
        {
          "internalType": "bool",
          "name": "",
          "type": "bool"
        }
      ],
      "stateMutability": "view",
      "type": "function"
    },
    {
      "inputs": [
        {
          "internalType": "contract IVToken",
          "name": "",
          "type": "address"
        }
      ],
      "name": "supportedVTokens",
      "outputs": [
        {
          "internalType": "bool",
          "name": "",
          "type": "bool"
        }
      ],
      "stateMutability": "view",
      "type": "function"
    },
    {
      "inputs": [
        {
          "internalType": "uint256",
          "name": "accountNo",
          "type": "uint256"
        },
        {
          "internalType": "uint32",
          "name": "vTokenTruncatedAddress",
          "type": "uint32"
        },
        {
          "components": [
            {
              "internalType": "int256",
              "name": "amount",
              "type": "int256"
            },
            {
              "internalType": "uint160",
              "name": "sqrtPriceLimit",
              "type": "uint160"
            },
            {
              "internalType": "bool",
              "name": "isNotional",
              "type": "bool"
            },
            {
              "internalType": "bool",
              "name": "isPartialAllowed",
              "type": "bool"
            }
          ],
          "internalType": "struct IClearingHouse.SwapParams",
          "name": "swapParams",
          "type": "tuple"
        }
      ],
      "name": "swapToken",
      "outputs": [
        {
          "internalType": "int256",
          "name": "vTokenAmountOut",
          "type": "int256"
        },
        {
          "internalType": "int256",
          "name": "vBaseAmountOut",
          "type": "int256"
        }
      ],
      "stateMutability": "nonpayable",
      "type": "function"
    },
    {
      "inputs": [],
      "name": "teamMultisig",
      "outputs": [
        {
          "internalType": "address",
          "name": "",
          "type": "address"
        }
      ],
      "stateMutability": "view",
      "type": "function"
    },
    {
      "inputs": [
        {
          "internalType": "address",
          "name": "newGovernance",
          "type": "address"
        }
      ],
      "name": "transferGovernance",
      "outputs": [],
      "stateMutability": "nonpayable",
      "type": "function"
    },
    {
      "inputs": [
        {
          "internalType": "address",
          "name": "newTeamMultisig",
          "type": "address"
        }
      ],
      "name": "transferTeamMultisig",
      "outputs": [],
      "stateMutability": "nonpayable",
      "type": "function"
    },
    {
      "inputs": [],
      "name": "txGasPriceLimit",
      "outputs": [
        {
          "internalType": "uint256",
          "name": "",
          "type": "uint256"
        }
      ],
      "stateMutability": "view",
      "type": "function"
    },
    {
      "inputs": [
        {
          "internalType": "contract IVToken",
          "name": "vToken",
          "type": "address"
        },
        {
          "components": [
            {
              "internalType": "uint16",
              "name": "initialMarginRatio",
              "type": "uint16"
            },
            {
              "internalType": "uint16",
              "name": "maintainanceMarginRatio",
              "type": "uint16"
            },
            {
              "internalType": "uint32",
              "name": "twapDuration",
              "type": "uint32"
            },
            {
              "internalType": "bool",
              "name": "whitelisted",
              "type": "bool"
            },
            {
              "internalType": "contract IOracle",
              "name": "oracle",
              "type": "address"
            }
          ],
          "internalType": "struct IClearingHouse.RageTradePoolSettings",
          "name": "newSettings",
          "type": "tuple"
        }
      ],
      "name": "updateRageTradePoolSettings",
      "outputs": [],
      "stateMutability": "nonpayable",
      "type": "function"
    },
    {
      "inputs": [
        {
          "internalType": "uint256",
          "name": "accountNo",
          "type": "uint256"
        },
        {
          "internalType": "uint32",
          "name": "vTokenTruncatedAddress",
          "type": "uint32"
        },
        {
          "components": [
            {
              "internalType": "int24",
              "name": "tickLower",
              "type": "int24"
            },
            {
              "internalType": "int24",
              "name": "tickUpper",
              "type": "int24"
            },
            {
              "internalType": "int128",
              "name": "liquidityDelta",
              "type": "int128"
            },
            {
              "internalType": "uint160",
              "name": "sqrtPriceCurrent",
              "type": "uint160"
            },
            {
              "internalType": "uint16",
              "name": "slippageToleranceBps",
              "type": "uint16"
            },
            {
              "internalType": "bool",
              "name": "closeTokenPosition",
              "type": "bool"
            },
            {
              "internalType": "enum IClearingHouse.LimitOrderType",
              "name": "limitOrderType",
              "type": "uint8"
            }
          ],
          "internalType": "struct IClearingHouse.LiquidityChangeParams",
          "name": "liquidityChangeParams",
          "type": "tuple"
        }
      ],
      "name": "updateRangeOrder",
      "outputs": [
        {
          "internalType": "int256",
          "name": "vTokenAmountOut",
          "type": "int256"
        },
        {
          "internalType": "int256",
          "name": "vBaseAmountOut",
          "type": "int256"
        }
      ],
      "stateMutability": "nonpayable",
      "type": "function"
    },
    {
      "inputs": [
        {
          "internalType": "address",
          "name": "add",
          "type": "address"
        },
        {
          "internalType": "bool",
          "name": "status",
          "type": "bool"
        }
      ],
      "name": "updateSupportedDeposits",
      "outputs": [],
      "stateMutability": "nonpayable",
      "type": "function"
    },
    {
      "inputs": [
        {
          "internalType": "contract IVToken",
          "name": "add",
          "type": "address"
        },
        {
          "internalType": "bool",
          "name": "status",
          "type": "bool"
        }
      ],
      "name": "updateSupportedVTokens",
      "outputs": [],
      "stateMutability": "nonpayable",
      "type": "function"
    },
    {
      "inputs": [
        {
          "internalType": "uint32",
          "name": "vTokenAddressTruncated",
          "type": "uint32"
        }
      ],
      "name": "vTokens",
      "outputs": [
        {
          "internalType": "contract IVToken",
          "name": "",
          "type": "address"
        }
      ],
      "stateMutability": "view",
      "type": "function"
    },
    {
      "inputs": [
        {
          "internalType": "address[]",
          "name": "wrapperAddresses",
          "type": "address[]"
        }
      ],
      "name": "withdrawProtocolFee",
      "outputs": [],
      "stateMutability": "nonpayable",
      "type": "function"
    }
  ],
  "transactionHash": "0x91f46a7471ae4a8e5052339382a4c34b51b0321daf0e4957014e7f478ff069b2",
  "args": [],
  "solcInputHash": "2b10bad2875f4a354e92cabb9abb20d2",
  "bytecode": "0x60806040523480156200001157600080fd5b506200001c62000022565b6200018a565b336200002f818062000032565b50565b600054610100900460ff16806200004c575060005460ff16155b620000b45760405162461bcd60e51b815260206004820152602e60248201527f496e697469616c697a61626c653a20636f6e747261637420697320616c72656160448201526d191e481a5b9a5d1a585b1a5e995960921b606482015260840160405180910390fd5b600054610100900460ff16158015620000d7576000805461ffff19166101011790555b6000805462010000600160b01b031916620100006001600160a01b0386169081029190911782556040519091907f5f56bee8cffbe9a78652a74a60705edede02af10b0bbb888ca44b79a0d42ce80908290a3600180546001600160a01b0319166001600160a01b0384169081179091556040516000907f39355f2f5c8206286978f443aa8126bbd29fa09c53c04569502647f3a59c8cb2908290a3801562000185576000805461ff00191690555b505050565b615e2d806200019a6000396000f3fe608060405234801561001057600080fd5b50600436106102a05760003560e01c80637cc2f4f511610167578063b7902303116100ce578063e1f1671311610087578063e1f167131461079e578063e67ed1df146107b1578063eb7c987d146107c4578063ee6cd5ee1461086f578063fcd0a50614610882578063fe6f083a1461089557600080fd5b8063b790230314610721578063d257be2b14610734578063d38bfff414610747578063dac42a961461075a578063dbc0c0851461076d578063dbd035ff1461077e57600080fd5b806394c8c71d1161012057806394c8c71d1461064557806398f5c527146106585780639dca362f1461066b578063a26f7ca714610673578063a4063dbc14610686578063a5cf76881461070957600080fd5b80637cc2f4f5146105285780637ec6ba311461053b5780637f64d6631461054e57806384088b65146105615780638ce25a931461059657806393420cf41461059f57600080fd5b80633fc42d801161020b5780635aa6e675116101c45780635aa6e675146104a85780635c318ad9146104bf5780635c975abb146104d257806364f36801146104df57806373cceb9d146104f25780637938d8a31461051557600080fd5b80633fc42d80146103d157806342be9fca1461040457806343233d2e146104175780634e10b6e3146104465780635616847614610469578063569634d31461049557600080fd5b80632a66e9ca1161025d5780632a66e9ca1461034a5780632afaea371461035d57806332a72d981461037057806336fadead1461039857806339359029146103ab5780633d56a35e146103be57600080fd5b8063127fec13146102a557806316c38b3c146102d55780631a1feae1146102ea5780631e2eaeaf1461030257806321df4c0e14610314578063261f806714610337575b600080fd5b60d8546102b8906001600160a01b031681565b6040516001600160a01b0390911681526020015b60405180910390f35b6102e86102e3366004614a72565b6108a8565b005b6102f461013d5481565b6040519081526020016102cc565b6102f4610310366004614a8f565b5490565b610327610322366004614a8f565b610906565b6040516102cc9493929190614ae0565b6102e8610345366004614c82565b610951565b6102e8610358366004614cb1565b6109a0565b6102e861036b366004614cfa565b610a63565b61038361037e366004614d84565b610bcb565b604080519283526020830191909152016102cc565b6102e86103a6366004614e33565b610dc4565b6102e86103b9366004614cfa565b610e3a565b60d6546102b8906001600160a01b031681565b6103f46103df366004614c82565b60d26020526000908152604090205460ff1681565b60405190151581526020016102cc565b6102f4610412366004614e6c565b610f96565b6102b8610425366004614e8e565b63ffffffff166000908152606660205260409020546001600160a01b031690565b6103f4610454366004614c82565b60d06020526000908152604090205460ff1681565b6103f4610477366004614c82565b6001600160a01b0316600090815260d0602052604090205460ff1690565b6102f46104a3366004614a8f565b61103d565b6000546201000090046001600160a01b03166102b8565b6102e86104cd366004614eab565b611050565b60d5546103f49060ff1681565b6102e86104ed366004614e33565b6110b9565b6103f4610500366004614c82565b60d16020526000908152604090205460ff1681565b6102e8610523366004614e6c565b61112f565b6102f4610536366004614efc565b611259565b6102e8610549366004614a8f565b611272565b6102e861055c366004614c82565b6112c3565b61057461056f366004614f6a565b611391565b60408051825181526020808401519082015291810151908201526060016102cc565b6102f460d35481565b604080516060808201835260008083526020808401829052928401526067548351808301855260685461ffff80821683526201000082048116838701908152600160201b9092048116838801908152606954606a54606b548a516001600160a01b03909816885295518416988701989098529251821697850197909752955190951692820192909252608081019390935260a083019190915260c082015260e0016102cc565b610574610653366004614fa9565b6113c3565b6102e8610666366004614ffb565b611495565b6102f4611570565b6102e861068136600461506c565b61160f565b610699610694366004614c82565b611687565b6040805182516001600160a01b03908116825260208085015182168184015293830151805161ffff90811684860152948101519094166060808401919091529284015163ffffffff1660808084019190915292840151151560a083015291909201511660c082015260e0016102cc565b60d5546102b89061010090046001600160a01b031681565b60d7546102b8906001600160a01b031681565b610383610742366004614c82565b611763565b6102e8610755366004614c82565b611797565b6103f4610768366004614e8e565b611859565b6001546001600160a01b03166102b8565b61079161078c3660046150d1565b611888565b6040516102cc919061515c565b6102e86107ac3660046151a0565b6118b3565b6103836107bf366004615215565b611a09565b6108396107d2366004614e8e565b60408051606080820183526000808352602080840182905292840181905263ffffffff9485168152606583528390208351918201845280546001600160a01b03908116835260019091015490811692820192909252600160a01b9091049092169082015290565b6040805182516001600160a01b039081168252602080850151909116908201529181015163ffffffff16908201526060016102cc565b61038361087d36600461523a565b611a30565b6102e861089036600461527a565b611ba2565b6102f46108a33660046152c5565b611c73565b6001546001600160a01b031633148015906108d557506000546001600160a01b0362010000909104163314155b156108f357604051636bd1573560e11b815260040160405180910390fd5b60d5805460ff1916911515919091179055565b600081815260d46020526040812080546001600160a01b031691906060908190610934606882016064611cc1565b9250610944600182016064611e43565b9597909650929493505050565b60d6546001600160a01b0316331461097c576040516385734f3160e01b815260040160405180910390fd5b6001600160a01b0316600090815260d060205260409020805460ff19166001179055565b60d6546001600160a01b031633146109cb576040516385734f3160e01b815260040160405180910390fd5b8160006001600160a01b03821663ffffffff808216600090815260666020526040812054929350610a06926001600160a01b03169161218316565b610a1257610a1261530f565b63ffffffff8116600090815260666020908152604080832080546001600160a01b0319166001600160a01b0387169081179091558352606490915290208390610a5b828261544e565b505050505050565b60d55460ff1615610a87576040516313d0ff5960e31b815260040160405180910390fd5b600083815260d46020526040902080546001600160a01b03163314610ac657604051630504a20d60e01b81523360048201526024015b60405180910390fd5b6000610ad184612194565b9050610afb333085610aea85546001600160a01b031690565b6001600160a01b031692919061222a565b8054604051631b2d4e8960e01b8152600481018490526001600160a01b03909116602482015260448101849052730D0DF62aA9f3D950e6B8a2aECb70E3Fff03E217A90631b2d4e899060640160006040518083038186803b158015610b5f57600080fd5b505af4158015610b73573d6000803e3d6000fd5b50508254604080518981526001600160a01b03909216602083015281018690527fdce3cf2323481f6a4ecd26864872ec536609f1ad0788710e5786c65b8e51ee75925060600190505b60405180910390a15050505050565b60d554600090819060ff1615610bf4576040516313d0ff5960e31b815260040160405180910390fd5b600085815260d46020526040902080546001600160a01b03163314610c2e57604051630504a20d60e01b8152336004820152602401610abd565b6000610c3986612295565b6040805163edd75e2160e01b8152600481018590526001600160a01b0380841660248301528851604483015260208901511660648083019190915291880151151560848201526060880151151560a482015260c4810191909152909150730D0DF62aA9f3D950e6B8a2aECb70E3Fff03E217A9063edd75e219060e4016040805180830381865af4158015610cd1573d6000803e3d6000fd5b505050506040513d601f19601f82011682018060405250810190610cf5919061553c565b90945092506000610d058461232c565b606b54909150811015610d2e576040516312b6b5cd60e11b815260048101829052602401610abd565b60208601516001600160a01b031615801590610d4c57508560600151155b15610db95785604001518015610d7357508551610d689061232c565b610d718561232c565b145b80610d9c57508560400151158015610d9c57508551610d919061232c565b610d9a8661232c565b145b610db9576040516307a1db0760e01b815260040160405180910390fd5b505050935093915050565b6001546001600160a01b03163314801590610df157506000546001600160a01b0362010000909104163314155b15610e0f57604051636bd1573560e11b815260040160405180910390fd5b6001600160a01b0391909116600090815260d160205260409020805460ff1916911515919091179055565b60d55460ff1615610e5e576040516313d0ff5960e31b815260040160405180910390fd5b600083815260d46020526040902080546001600160a01b03163314610e9857604051630504a20d60e01b8152336004820152602401610abd565b6000610ea384612194565b8054604051634de2913360e11b8152600481018590526001600160a01b03909116602482015260448101859052606480820152909150730D0DF62aA9f3D950e6B8a2aECb70E3Fff03E217A90639bc522669060840160006040518083038186803b158015610f1057600080fd5b505af4158015610f24573d6000803e3d6000fd5b50505050610f4e3384610f3e84546001600160a01b031690565b6001600160a01b03169190612347565b8054604080518781526001600160a01b03909216602083015281018490527fbe29a6b389df4dde99b5e61c229ee4fcb393f7f54c362aa57d8c92200183094690606001610bbc565b600081801561101f576000610fa9612377565b5a610fb49190615576565b9050610fc0604461242f565b610fca858561245b565b92506000610fd6612377565b5a610fe19190615576565b610feb908361558e565b90508083111561101857604051634010928f60e01b81526004810184905260248101829052604401610abd565b5050611036565b611029604461242f565b611033848461245b565b91505b5092915050565b600061104a82600061245b565b92915050565b6001546001600160a01b0316331480159061107d57506000546001600160a01b0362010000909104163314155b1561109b57604051636bd1573560e11b815260040160405180910390fd5b8360686110a882826155a5565b5050606a92909255606b5560695550565b6001546001600160a01b031633148015906110e657506000546001600160a01b0362010000909104163314155b1561110457604051636bd1573560e11b815260040160405180910390fd5b6001600160a01b0391909116600090815260d260205260409020805460ff1916911515919091179055565b60d55460ff1615611153576040516313d0ff5960e31b815260040160405180910390fd5b600082815260d46020526040902080546001600160a01b0316331461118d57604051630504a20d60e01b8152336004820152602401610abd565b604051634042e78f60e01b81526004810182905260248101839052606460448201819052730D0DF62aA9f3D950e6B8a2aECb70E3Fff03E217A91634042e78f910160006040518083038186803b1580156111e657600080fd5b505af41580156111fa573d6000803e3d6000fd5b505060d55461121b925061010090046001600160a01b031690503384612347565b60408051848152602081018490527fb8635fe5938466cc626f7c214bf818f090e2b736368828f448cd2b379cf0174e910160405180910390a1505050565b60006112698585858560006125b0565b95945050505050565b6001546001600160a01b0316331480159061129f57506000546001600160a01b0362010000909104163314155b156112bd57604051636bd1573560e11b815260040160405180910390fd5b61013d55565b6001546001600160a01b031633148015906112f057506000546001600160a01b0362010000909104163314155b1561130e57604051636bd1573560e11b815260040160405180910390fd5b6001600160a01b0381166113355760405163d92e233d60e01b815260040160405180910390fd5b6001546040516001600160a01b038084169216907f39355f2f5c8206286978f443aa8126bbd29fa09c53c04569502647f3a59c8cb290600090a3600180546001600160a01b0319166001600160a01b0392909216919091179055565b6113b560405180606001604052806000815260200160008152602001600081525090565b6112698585858560006126c6565b6113e760405180606001604052806000815260200160008152602001600081525090565b8180156114715760006113f8612377565b5a6114039190615576565b905061140f60a461242f565b61141c88888888886126c6565b92506000611428612377565b5a6114339190615576565b61143d908361558e565b90508083111561146a57604051634010928f60e01b81526004810184905260248101829052604401610abd565b505061148b565b61147b60a461242f565b61148887878787876126c6565b91505b5095945050505050565b600054610100900460ff16806114ae575060005460ff16155b6114ca5760405162461bcd60e51b8152600401610abd90615613565b600054610100900460ff161580156114ec576000805461ffff19166101011790555b60d680546001600160a01b03199081166001600160a01b038981169190911790925560d58054610100600160a81b0319166101008985160217905560d78054821687841617905560d88054821685841617905560678054909116918516919091179055611557612835565b8015610a5b576000805461ff0019169055505050505050565b60d55460009060ff1615611597576040516313d0ff5960e31b815260040160405180910390fd5b5060d3546115a6816001615576565b60d355600081815260d4602090815260409182902080546001600160a01b031916339081178255600182018590558351908152918201849052917f7325fb14450d3e5eb288c620b4ff1d6b43a41b33b4a4f143ae88cd4c12f99ea3910160405180910390a15090565b6001546001600160a01b0316331480159061163c57506000546001600160a01b0362010000909104163314155b1561165a57604051636bd1573560e11b815260040160405180910390fd5b6001600160a01b038216600090815260646020526040902081906002016116818282615396565b50505050565b6116cc604080516060808201835260008083526020808401829052845160a0810186528281529081018290528085018290529182018190526080820152909182015290565b506001600160a01b039081166000908152606460209081526040918290208251606080820185528254861682526001830154861682850152845160a08101865260029093015461ffff8082168552620100008204169484019490945263ffffffff600160201b8504168386015260ff600160401b850416151590830152600160481b90920490931660808401529081019190915290565b60008061177a6001600160a01b0384166064612840565b91506117906001600160a01b038416606461286d565b9050915091565b6000546001600160a01b03620100009091041633146117c957604051636bd1573560e11b815260040160405180910390fd5b6001600160a01b0381166117f05760405163d92e233d60e01b815260040160405180910390fd5b600080546040516001600160a01b03808516936201000090930416917f5f56bee8cffbe9a78652a74a60705edede02af10b0bbb888ca44b79a0d42ce8091a3600080546001600160a01b03909216620100000262010000600160b01b0319909216919091179055565b63ffffffff808216600090815260666020526040812054909161104a916001600160a01b031690839061218316565b606060208251028201602001825b818110156118ab576020018051548152611896565b509192915050565b6000805b828110156119d65760008484838181106118d3576118d3615661565b90506020020160208101906118e89190614c82565b6001600160a01b0316635e622abc6040518163ffffffff1660e01b81526004016020604051808303816000875af1158015611927573d6000803e3d6000fd5b505050506040513d601f19601f8201168201806040525081019061194b9190615677565b90507f4b5237f428d31406cf0f93a4ab5fd11482f2fe9a1420271368d67e83496346c485858481811061198057611980615661565b90506020020160208101906119959190614c82565b604080516001600160a01b039092168252602082018490520160405180910390a16119c08184615576565b92505080806119ce90615690565b9150506118b7565b50611a046119ec6001546001600160a01b031690565b60d55461010090046001600160a01b03169083612347565b505050565b600082815260d4602052604081208190611a2590846064612885565b909590945092505050565b60d554600090819060ff1615611a59576040516313d0ff5960e31b815260040160405180910390fd5b600085815260d46020526040902080546001600160a01b03163314611a9357604051630504a20d60e01b8152336004820152602401610abd565b6000611a9e86612295565b9050611ab06080860160608701614c82565b6001600160a01b031615611ae757611ae781611ad26080880160608901614c82565b611ae260a0890160808a016156ab565b6128db565b6040516349e373d360e01b8152730D0DF62aA9f3D950e6B8a2aECb70E3Fff03E217A906349e373d390611b2590859085908a906064906004016156d7565b6040805180830381865af4158015611b41573d6000803e3d6000fd5b505050506040513d601f19601f82011682018060405250810190611b65919061553c565b90945092506000611b79828686606461297d565b606b54909150811015610db9576040516312b6b5cd60e11b815260048101829052602401610abd565b6001546001600160a01b03163314801590611bcf57506000546001600160a01b0362010000909104163314155b15611bed57604051636bd1573560e11b815260040160405180910390fd5b604080516060810182526001600160a01b038086168252938416602080830191825263ffffffff9485168385019081529685166000908152606590915292909220905181549085166001600160a01b0319909116178155905160019190910180549451909216600160a01b026001600160c01b0319909416921691909117919091179055565b6000818015611caa576000611c86612377565b5a611c919190615576565b9050611c9d60a461242f565b61141c88888888886125b0565b611cb460a461242f565b61148887878787876125b0565b60606000611cce846129bd565b90508067ffffffffffffffff811115611ce957611ce9614d32565b604051908082528060200260200182016040528015611d2e57816020015b6040805180820190915260008082526020820152815260200190600190039081611d075790505b50915060005b81811015611e3b57600184016000868360088110611d5457611d54615661565b60088104919091015460079091166004026101000a900463ffffffff16815260208101919091526040016000205483516001600160a01b0390911690849083908110611da257611da2615661565b60209081029190910101516001600160a01b039091169052600185016000868360088110611dd257611dd2615661565b600891828204019190066004029054906101000a900463ffffffff1663ffffffff1663ffffffff16815260200190815260200160002054838281518110611e1b57611e1b615661565b602090810291909101810151015280611e3381615690565b915050611d34565b505092915050565b600381015463ffffffff16600090815260028301602052604081205490606090611e6f600186016129bd565b90508067ffffffffffffffff811115611e8a57611e8a614d32565b604051908082528060200260200182016040528015611ef657816020015b611ee36040518060a0016040528060006001600160a01b03168152602001600081526020016000815260200160008152602001606081525090565b815260200190600190039081611ea85790505b50915060005b8181101561217a57846002016000876001018360088110611f1f57611f1f615661565b60088104919091015460079091166004026101000a900463ffffffff16815260208101919091526040016000205483516001600160a01b0390911690849083908110611f6d57611f6d615661565b60209081029190910101516001600160a01b039091169052600286016000600188018360088110611fa057611fa0615661565b600891828204019190066004029054906101000a900463ffffffff1663ffffffff1663ffffffff16815260200190815260200160002060000154838281518110611fec57611fec615661565b6020026020010151602001818152505085600201600087600101836008811061201757612017615661565b600891828204019190066004029054906101000a900463ffffffff1663ffffffff1663ffffffff1681526020019081526020016000206001015483828151811061206357612063615661565b6020026020010151604001818152505085600201600087600101836008811061208e5761208e615661565b600891828204019190066004029054906101000a900463ffffffff1663ffffffff1663ffffffff168152602001908152602001600020600201548382815181106120da576120da615661565b6020026020010151606001818152505061214686600201600088600101846008811061210857612108615661565b600891828204019190066004029054906101000a900463ffffffff1663ffffffff1663ffffffff168152602001908152602001600020600301612a27565b83828151811061215857612158615661565b602002602001015160800181905250808061217290615690565b915050611efc565b50509250929050565b6001600160a01b0390811691161490565b63ffffffff8082166000908152606560205260408120916121b7918391612fab16565b156121dd5760405163b087c8c360e01b815263ffffffff83166004820152602401610abd565b80546001600160a01b0316600090815260d2602052604090205460ff1661222557805460405163340e1b9160e21b81526001600160a01b039091166004820152602401610abd565b919050565b6040516001600160a01b03808516602483015283166044820152606481018290526116819085906323b872dd60e01b906084015b60408051601f198184030181529190526020810180516001600160e01b03166001600160e01b031990931692909217909152612fbe565b63ffffffff8082166000908152606660205260408120546001600160a01b0316916122c291839161218316565b156122e85760405163b087c8c360e01b815263ffffffff83166004820152602401610abd565b6001600160a01b038116600090815260d1602052604090205460ff1661222557604051631079472960e21b81526001600160a01b0382166004820152602401610abd565b60008082136123435761233e826157a9565b61104a565b5090565b6040516001600160a01b038316602482015260448101829052611a0490849063a9059cbb60e01b9060640161225e565b60408051600481526024810182526020810180516001600160e01b031663a94597ff60e01b1790529051600091829182916064916123b591906157f2565b600060405180830381855afa9150503d80600081146123f0576040519150601f19603f3d011682016040523d82523d6000602084013e6123f5565b606091505b509150915081158061240657508051155b156124145760009250505090565b808060200190518101906124289190615677565b9250505090565b36811061245857604051634219202560e01b815236600482015260248101829052604401610abd565b50565b60d55460009060ff1615612482576040516313d0ff5960e31b815260040160405180910390fd5b600083815260d46020526040812090730D0DF62aA9f3D950e6B8a2aECb70E3Fff03E217A6379452b23836124b587613090565b6040516001600160e01b031960e085901b16815260048101929092526024820152606460448201819052016040805180830381865af41580156124fc573d6000803e3d6000fd5b505050506040513d601f19601f82011682018060405250810190612520919061553c565b90935090506000612531828561580e565b60d5549091506125509061010090046001600160a01b03163386612347565b612559826131a9565b6040805187815233602082015290810182905260608101859052608081018390527f914a6aef8c0c1a591157ee7d71dfbd71d1d7df090d3ec047f8eac01fc21b2f439060a00160405180910390a150505092915050565b60d55460009060ff16156125d7576040516313d0ff5960e31b815260040160405180910390fd5b600086815260d460205260408120906125ef87612295565b90506125fa84613090565b606a546126079190615576565b6040516343c74e9360e01b8152600481018490526001600160a01b0383166024820152600288810b604483015287900b6064808301919091526084820183905260a4820152909350730D0DF62aA9f3D950e6B8a2aECb70E3Fff03E217A906343c74e939060c40160006040518083038186803b15801561268657600080fd5b505af415801561269a573d6000803e3d6000fd5b505060d5546126bb925061010090046001600160a01b031690503385612347565b505095945050505050565b6126ea60405180606001604052806000815260200160008152602001600081525090565b60d55460ff161561270e576040516313d0ff5960e31b815260040160405180910390fd5b6127108361ffff161115612735576040516348d69f3560e01b815260040160405180910390fd5b600085815260d4602052604081209061274d86612295565b600089815260d46020526040812091925090730D0DF62aA9f3D950e6B8a2aECb70E3Fff03E217A9063487e8af190859089866127888b613090565b60646040518763ffffffff1660e01b81526004016127db96959493929190958652602086019490945261ffff9290921660408501526001600160a01b03166060840152608083015260a082015260c00190565b608060405180830381865af41580156127f8573d6000803e3d6000fd5b505050506040513d601f19601f8201168201806040525081019061281c919061584f565b94509050612829816131a9565b50505095945050505050565b33612458818061323a565b60006128666128586001600160a01b03851684613342565b6001600160a01b03166133d4565b9392505050565b60006128666128586001600160a01b03851684613450565b600080612892858461348e565b91506128a6600186018560028601866134ba565b600286015490915063ffffffff16156128d357826005015481126128ca57806128d0565b82600501545b90505b935093915050565b60006128f16001600160a01b038516606461360f565b90506000836001600160a01b0316826001600160a01b03161161291d5761291882856158c8565b612927565b61292784836158c8565b905061271061293a8561ffff86166158f0565b6129449190615935565b6001600160a01b0316816001600160a01b03161115612976576040516307a1db0760e01b815260040160405180910390fd5b5050505050565b60006129888361232c565b6129b361299e6001600160a01b0388168561286d565b600160801b6129ac8861232c565b9190613635565b611269919061580e565b6000805b60088160ff161015612a1e57828160ff16600881106129e2576129e2615661565b60088104919091015460079091166004026101000a900463ffffffff16612a0c5760ff1692915050565b80612a168161595b565b9150506129c1565b50600892915050565b60606000612a3483613677565b90508067ffffffffffffffff811115612a4f57612a4f614d32565b604051908082528060200260200182016040528015612adf57816020015b612acc6040805161012081019091528060008152602001600060020b8152602001600060020b815260200160006001600160801b0316815260200160008152602001600081526020016000815260200160008152602001600081525090565b815260200190600190039081612a6d5790505b50915060005b81811015612fa457600184016000858360058110612b0557612b05615661565b600580820492909201549190066006026101000a900465ffffffffffff168152602081019190915260400160002054835160ff90911690849083908110612b4e57612b4e615661565b6020026020010151600001906002811115612b6b57612b6b614aa8565b90816002811115612b7e57612b7e614aa8565b905250600184016000858360058110612b9957612b99615661565b600591828204019190066006029054906101000a900465ffffffffffff1665ffffffffffff1665ffffffffffff16815260200190815260200160002060000160019054906101000a900460020b838281518110612bf857612bf8615661565b60209081029190910181015160029290920b910152600184016000858360058110612c2557612c25615661565b600591828204019190066006029054906101000a900465ffffffffffff1665ffffffffffff1665ffffffffffff16815260200190815260200160002060000160049054906101000a900460020b838281518110612c8457612c84615661565b602090810291909101015160029190910b604090910152600184016000858360058110612cb357612cb3615661565b600591828204019190066006029054906101000a900465ffffffffffff1665ffffffffffff1665ffffffffffff16815260200190815260200160002060000160079054906101000a90046001600160801b0316838281518110612d1857612d18615661565b60209081029190910101516001600160801b03909116606090910152600184016000858360058110612d4c57612d4c615661565b600591828204019190066006029054906101000a900465ffffffffffff1665ffffffffffff1665ffffffffffff16815260200190815260200160002060010154838281518110612d9e57612d9e615661565b602090810291909101015160800152600184016000858360058110612dc557612dc5615661565b600591828204019190066006029054906101000a900465ffffffffffff1665ffffffffffff1665ffffffffffff16815260200190815260200160002060020154838281518110612e1757612e17615661565b602090810291909101015160a00152600184016000858360058110612e3e57612e3e615661565b600591828204019190066006029054906101000a900465ffffffffffff1665ffffffffffff1665ffffffffffff16815260200190815260200160002060030154838281518110612e9057612e90615661565b602090810291909101015160c00152600184016000858360058110612eb757612eb7615661565b600591828204019190066006029054906101000a900465ffffffffffff1665ffffffffffff1665ffffffffffff16815260200190815260200160002060040154838281518110612f0957612f09615661565b602090810291909101015160e00152600184016000858360058110612f3057612f30615661565b600591828204019190066006029054906101000a900465ffffffffffff1665ffffffffffff1665ffffffffffff16815260200190815260200160002060050154838281518110612f8257612f82615661565b6020908102919091010151610100015280612f9c81615690565b915050612ae5565b5050919050565b90546001600160a01b0391821691161490565b6000613013826040518060400160405280602081526020017f5361666545524332303a206c6f772d6c6576656c2063616c6c206661696c6564815250856001600160a01b03166136ee9092919063ffffffff16565b805190915015611a045780806020019051810190613031919061597b565b611a045760405162461bcd60e51b815260206004820152602a60248201527f5361666545524332303a204552433230206f7065726174696f6e20646964206e6044820152691bdd081cdd58d8d9595960b21b6064820152608401610abd565b60003a61013d548111156130c65761013d54604051638dfe587d60e01b8152610abd918391600401918252602082015260400190565b8215806130dc575060d8546001600160a01b0316155b156130ea57600091506131a3565b6000333214156130ff576130fc6136fd565b90505b600061310b3a86615998565b60d854604051630e56d76760e31b815261012c6004820152919250600091613181916001600160a01b0316906372b6bb3890602401602060405180830381865afa15801561315d573d6000803e3d6000fd5b505050506040513d601f19601f8201168201806040525081019061285891906159b7565b905061319d81600160801b6131968587615576565b919061373b565b94505050505b50919050565b60008113156131d45760d75460d554612458916001600160a01b036101009092048216911683612347565b60d7546001600160a01b031663379607f56131ee836157a9565b6040518263ffffffff1660e01b815260040161320c91815260200190565b600060405180830381600087803b15801561322657600080fd5b505af1158015612976573d6000803e3d6000fd5b600054610100900460ff1680613253575060005460ff16155b61326f5760405162461bcd60e51b8152600401610abd90615613565b600054610100900460ff16158015613291576000805461ffff19166101011790555b6000805462010000600160b01b031916620100006001600160a01b0386169081029190911782556040519091907f5f56bee8cffbe9a78652a74a60705edede02af10b0bbb888ca44b79a0d42ce80908290a3600180546001600160a01b0319166001600160a01b0384169081179091556040516000907f39355f2f5c8206286978f443aa8126bbd29fa09c53c04569502647f3a59c8cb2908290a38015611a04576000805461ff0019169055505050565b6001600160a01b03828116600090815260208390526040808220600201549051630e56d76760e31b8152600160201b820463ffffffff1660048201529192600160481b90910416906372b6bb3890602401602060405180830381865afa1580156133b0573d6000803e3d6000fd5b505050506040513d601f19601f8201168201806040525081019061286691906159b7565b60006401000276a36001600160a01b038316108061340f575073fffd8963efd1fc6a506488495d951d5263988d266001600160a01b03831610155b1561343857604051635d236c4560e01b81526001600160a01b0383166004820152602401610abd565b61104a6001600160a01b03831680600160401b61373b565b6001600160a01b03808316600090815260208390526040812060028101549054919261286692169063ffffffff600160201b9091048116906137e916565b60006134a160018401600284018461380a565b90506134b06068840183613918565b612866908261580e565b600080808080805b60088160ff1610156135ed57896001018160ff16600881106134e6576134e6615661565b60088104919091015460079091166004026101000a900463ffffffff1661350c576135ed565b60008860008c6001018460ff166008811061352957613529615661565b60088104919091015460079091166004026101000a900463ffffffff90811682526020820192909252604001600020546001600160a01b03169150613576908c908c9084908c906139de16565b6001600160a01b038316600090815260208b905260409020600201549195509350600160401b900460ff16156135c3576135b0848761580e565b95506135bc838661580e565b94506135da565b6135cd8484613a99565b6135d7908861580e565b96505b50806135e58161595b565b9150506134c2565b506135f88484613a99565b613602908661580e565b9998505050505050505050565b6001600160a01b0380831660009081526020839052604081205490916128669116613aaa565b600061365b600085126136485784613654565b613654856000196159d4565b848461373b565b905060008412156128665761366f816157a9565b949350505050565b6000805b60058160ff1610156136e557828160ff166005811061369c5761369c615661565b600591828204019190066006029054906101000a900465ffffffffffff1665ffffffffffff16600014156136d35760ff1692915050565b806136dd8161595b565b91505061367b565b50600592915050565b606061366f8484600085613b34565b60408051600481526024810182526020810180516001600160e01b031663637bef0760e11b1790529051600091829182916064916123b591906157f2565b600080806000198587098587029250828110838203039150508060001415613775576000841161376a57600080fd5b508290049050612866565b80841161378157600080fd5b600084868809851960019081018716968790046003810260029081188083028203028083028203028083028203028083028203028083028203029182029003026000889003889004909101858311909403939093029303949094049190911702949350505050565b6000806137ff6001600160a01b03851684613c5c565b905061103381613e78565b6000805b60088160ff1610156138f1576000856001018260ff166008811061383457613834615661565b60088104919091015460079091166004026101000a900463ffffffff1690508061385e57506138f1565b63ffffffff8082166000908152602087815260408083205460028b019092529091206001600160a01b039091169161389c908290849089906141aa16565b6138a6908661580e565b945060006138bd6001600160a01b03841688613450565b90506138ce6003830182858a6141ce565b6138d8908761580e565b95505050505080806138e99061595b565b91505061380e565b50600382015463ffffffff16600090815260028501602052604090205461366f908261580e565b60008060005b60088160ff1610156139d65760008560ff83166008811061394157613941615661565b60088104919091015460079091166004026101000a900463ffffffff1690508061396b57506139d6565b63ffffffff8116600090815260018601602052604090206139b561398e826141fb565b63ffffffff808516600090815260018b0160205260409020549190600160801b9061363516565b6139bf908561580e565b9350505080806139ce9061595b565b91505061391e565b509392505050565b63ffffffff8083166000908152600286016020526040812090918291908290613a14906001600160a01b03881690879061286d16565b90506000613a2c6001600160a01b0388168988614209565b83549091506000613a3f60038601614263565b9050613a6861ffff8416620186a06129ac87600160801b82613a61888a61580e565b6000613a99565b9650613a8961ffff8416620186a06129ac87600160801b82613a61896157a9565b9550505050505094509492505050565b6000818313156131a357508161104a565b600080826001600160a01b0316633850c7bd6040518163ffffffff1660e01b815260040160e060405180830381865afa158015613aeb573d6000803e3d6000fd5b505050506040513d601f19601f82011682018060405250810190613b0f9190615a59565b509496509294505050506001600160a01b038316151590506131a35761286681613e78565b606082471015613b955760405162461bcd60e51b815260206004820152602660248201527f416464726573733a20696e73756666696369656e742062616c616e636520666f6044820152651c8818d85b1b60d21b6064820152608401610abd565b843b613be35760405162461bcd60e51b815260206004820152601d60248201527f416464726573733a2063616c6c20746f206e6f6e2d636f6e74726163740000006044820152606401610abd565b600080866001600160a01b03168587604051613bff91906157f2565b60006040518083038185875af1925050503d8060008114613c3c576040519150601f19603f3d011682016040523d82523d6000602084013e613c41565b606091505b5091509150613c518282866142de565b979650505050505050565b600063ffffffff8216613c85576040516351a4d88160e01b815260006004820152602401610abd565b6040805160028082526060820183526000926020830190803683370190505090508281600081518110613cba57613cba615661565b602002602001019063ffffffff16908163ffffffff1681525050600081600181518110613ce957613ce9615661565b63ffffffff9092166020928302919091019091015260405163883bdbfd60e01b81526001600160a01b0385169063883bdbfd90613d2a908490600401615afb565b600060405180830381865afa925050508015613d6857506040513d6000823e601f3d908101601f19168201604052613d659190810190615ba8565b60015b613ddd57836001600160a01b0316633850c7bd6040518163ffffffff1660e01b815260040160e060405180830381865afa158015613daa573d6000803e3d6000fd5b505050506040513d601f19601f82011682018060405250810190613dce9190615a59565b50939650611036945050505050565b600082600081518110613df257613df2615661565b602002602001015183600181518110613e0d57613e0d615661565b6020026020010151613e1f9190615c74565b90506000613e3363ffffffff881683615cc4565b905060008260060b128015613e595750613e5363ffffffff881683615d02565b60060b15155b15613e6c5780613e6881615d24565b9150505b945061104a9350505050565b60008060008360020b12613e8f578260020b613e97565b8260020b6000035b9050620d89e8811115613ed05760405162461bcd60e51b81526020600482015260016024820152601560fa1b6044820152606401610abd565b600060018216613ee457600160801b613ef6565b6ffffcb933bd6fad37aa2d162d1a5940015b70ffffffffffffffffffffffffffffffffff1690506002821615613f2a576ffff97272373d413259a46990580e213a0260801c5b6004821615613f49576ffff2e50f5f656932ef12357cf3c7fdcc0260801c5b6008821615613f68576fffe5caca7e10e4e61c3624eaa0941cd00260801c5b6010821615613f87576fffcb9843d60f6159c9db58835c9266440260801c5b6020821615613fa6576fff973b41fa98c081472e6896dfb254c00260801c5b6040821615613fc5576fff2ea16466c96a3843ec78b326b528610260801c5b6080821615613fe4576ffe5dee046a99a2a811c461f1969c30530260801c5b610100821615614004576ffcbe86c7900a88aedcffc83b479aa3a40260801c5b610200821615614024576ff987a7253ac413176f2b074cf7815e540260801c5b610400821615614044576ff3392b0822b70005940c7a398e4b70f30260801c5b610800821615614064576fe7159475a2c29b7443b29c7fa6e889d90260801c5b611000821615614084576fd097f3bdfd2022b8845ad8f792aa58250260801c5b6120008216156140a4576fa9f746462d870fdf8a65dc1f90e061e50260801c5b6140008216156140c4576f70d869a156d2a1b890bb3df62baf32f70260801c5b6180008216156140e4576f31be135f97d08fd981231505542fcfa60260801c5b62010000821615614105576f09aa508b5b7a84e1c677de54f3e99bc90260801c5b62020000821615614125576e5d6af8dedb81196699c329225ee6040260801c5b62040000821615614144576d2216e584f5fa1ea926041bedfe980260801c5b62080000821615614161576b048a170391f7dc42444e8fa20260801c5b60008460020b131561418257806000198161417e5761417e61591f565b0490505b600160201b810615614195576001614198565b60005b60ff16602082901c0192505050919050565b6000806141c06001600160a01b0385168461286d565b905061126985858386614317565b6001600160a01b038281166000908152602083905260408120600101549091611269918791879116614344565b600061104a612858836143e0565b6000821561423757506001600160a01b03831660009081526020829052604090206002015461ffff16612866565b506001600160a01b03831660009081526020829052604090206002015462010000900461ffff16612866565b6000805b60058110156131a357600083826005811061428457614284615661565b600580820492909201549190066006026101000a900465ffffffffffff16600081815260018601602052604090209091506142be90614472565b6142c89084615576565b92505080806142d690615690565b915050614267565b606083156142ed575081612866565b8251156142fd5782518084602001fd5b8160405162461bcd60e51b8152600401610abd9190615d48565b6001600160a01b0383811660009081526020839052604081206001015490916112699187918691166144c9565b6000805b60058110156139d657600085826005811061436557614365615661565b600591828204019190066006029054906101000a900465ffffffffffff1690508065ffffffffffff166000141561439c57506139d6565b65ffffffffffff8116600090815260018701602052604090206143c09086866144f3565b6143ca908461580e565b92505080806143d890615690565b915050614348565b60006143f682600101546001600160a01b031690565b6001830154604051630e56d76760e31b8152600160a01b90910463ffffffff1660048201526001600160a01b0391909116906372b6bb3890602401602060405180830381865afa15801561444e573d6000803e3d6000fd5b505050506040513d601f19601f8201168201806040525081019061104a91906159b7565b8054600090819061448a90610100900460020b613e78565b83549091506000906144a590600160201b900460020b613e78565b845490915061366f9083908390600160381b90046001600160801b0316600161460c565b82546000906144dd9084600160801b613635565b90506144e984836146c1565b61366f908261580e565b600080806145018686614746565b915091506000614519866001600160a01b03166133d4565b90508161452b8483600160801b613635565b614535919061580e565b875460405163154cd3c960e11b81526101008204600290810b6004830152600160201b90920490910b6024820152909450600093506001600160a01b0386169250632a99a7929150604401608060405180830381865afa15801561459d573d6000803e3d6000fd5b505050506040513d601f19601f820116820180604052508101906145c19190615d7b565b90506145e26145dd82606001518761481090919063ffffffff16565b614840565b6145ec908361580e565b8151604083015191935061460291879190614852565b611269908361580e565b6000836001600160a01b0316856001600160a01b0316111561462c579293925b6fffffffffffffffffffffffffffffffff60601b606084901b166001600160a01b03868603811690871661465f57600080fd5b8361469557866001600160a01b03166146828383896001600160a01b031661373b565b8161468f5761468f61591f565b04613c51565b613c516146ac8383896001600160a01b031661488c565b886001600160a01b0316808204910615150190565b600080826001600160a01b031663a3a1e7e96040518163ffffffff1660e01b8152600401602060405180830381865afa158015614702573d6000803e3d6000fd5b505050506040513d601f19601f820116820180604052508101906147269190615677565b9050600061473d82866002015487600101546148cc565b611269906157a9565b81546000908190819061476090610100900460020b613e78565b855490915060009061477b90600160201b900460020b613e78565b9050846001600160a01b0380841690821610156147995750816147b6565b816001600160a01b0316866001600160a01b031611156147b65750805b86546147db906145dd9083908590600160381b90046001600160801b0316600061460c565b94506148046145dd84838a60000160079054906101000a90046001600160801b031660006148e7565b93505050509250929050565b8154600583015460009161286691600160381b9091046001600160801b031690600160801b90613196908661558e565b6000600160ff1b821061234357600080fd5b60028301546003840154600485015485546000936148839387938793600160381b90046001600160801b0316614957565b61366f906157a9565b600061489984848461373b565b9050600082806148ab576148ab61591f565b84860911156128665760001981106148c257600080fd5b6001019392505050565b600061366f6148db8486615de1565b8390600160801b61497f565b6000836001600160a01b0316856001600160a01b03161115614907579293925b816149345761492f836001600160801b03168686036001600160a01b0316600160601b61373b565b611269565b611269836001600160801b03168686036001600160a01b0316600160601b61488c565b6000613c5182600160801b61496e8888888d614a10565b614978908a615de1565b9190614a35565b60006001818080808812156149a15792159261499a886157a9565b92506149a5565b8792505b60008712156149c1579215926149ba876157a9565b91506149c5565b8691505b60008612156149e4579215926149dd866000196159d4565b90506149e7565b50845b6149f283838361373b565b945083614a0557614a02856157a9565b94505b505050509392505050565b6000614a2b614a1f8684615de1565b8590600160801b61497f565b611269908461580e565b6000614a42848484613635565b905060008112156128665761366f6000198261580e565b801515811461245857600080fd5b803561222581614a59565b600060208284031215614a8457600080fd5b813561286681614a59565b600060208284031215614aa157600080fd5b5035919050565b634e487b7160e01b600052602160045260246000fd5b60038110614adc57634e487b7160e01b600052602160045260246000fd5b9052565b6000608080830160018060a01b038089168552602088818701526040848188015283895180865260a089019150838b01955060005b81811015614b3c578651805187168452850151858401529584019591830191600101614b15565b5050878103606089015288518082528382019550600581901b82018401848b0160005b83811015614c5957848303601f19018952815180518916845287810151888501528681015187850152606080820151908501528a015160a08b850181905281519085018190529088019060009060c08601905b80831015614c44578351614bc7838251614abe565b8b8101518060020b8d850152508a81015160020b8b8401526060810151614bf960608501826001600160801b03169052565b508e8101518f84015260a081015160a084015260c081015160c084015260e081015160e084015261010080820151818501525050610120820191508a84019350600183019250614bb2565b509a89019a9450505090860190600101614b5f565b50909e9d5050505050505050505050505050565b6001600160a01b038116811461245857600080fd5b600060208284031215614c9457600080fd5b813561286681614c6d565b600060e082840312156131a357600080fd5b6000806101008385031215614cc557600080fd5b8235614cd081614c6d565b9150614cdf8460208501614c9f565b90509250929050565b63ffffffff8116811461245857600080fd5b600080600060608486031215614d0f57600080fd5b833592506020840135614d2181614ce8565b929592945050506040919091013590565b634e487b7160e01b600052604160045260246000fd5b604051601f8201601f1916810167ffffffffffffffff81118282101715614d7157614d71614d32565b604052919050565b803561222581614c6d565b600080600083850360c0811215614d9a57600080fd5b843593506020850135614dac81614ce8565b92506080603f1982011215614dc057600080fd5b506040516080810181811067ffffffffffffffff82111715614de457614de4614d32565b604090815285013581526060850135614dfc81614c6d565b60208201526080850135614e0f81614a59565b604082015260a0850135614e2281614a59565b606082015292959194509192509050565b60008060408385031215614e4657600080fd5b8235614e5181614c6d565b91506020830135614e6181614a59565b809150509250929050565b60008060408385031215614e7f57600080fd5b50508035926020909101359150565b600060208284031215614ea057600080fd5b813561286681614ce8565b60008060008084860360c0811215614ec257600080fd5b6060811215614ed057600080fd5b509395606087013595506080870135945060a08701359350915050565b8060020b811461245857600080fd5b60008060008060808587031215614f1257600080fd5b843593506020850135614f2481614ce8565b92506040850135614f3481614eed565b91506060850135614f4481614eed565b939692955090935050565b61ffff8116811461245857600080fd5b803561222581614f4f565b60008060008060808587031215614f8057600080fd5b84359350602085013592506040850135614f9981614ce8565b91506060850135614f4481614f4f565b600080600080600060a08688031215614fc157600080fd5b85359450602086013593506040860135614fda81614ce8565b92506060860135614fea81614f4f565b949793965091946080013592915050565b600080600080600060a0868803121561501357600080fd5b853561501e81614c6d565b9450602086013561502e81614c6d565b9350604086013561503e81614c6d565b9250606086013561504e81614c6d565b9150608086013561505e81614c6d565b809150509295509295909350565b60008082840360c081121561508057600080fd5b833561508b81614c6d565b925060a0601f198201121561509f57600080fd5b506020830190509250929050565b600067ffffffffffffffff8211156150c7576150c7614d32565b5060051b60200190565b600060208083850312156150e457600080fd5b823567ffffffffffffffff8111156150fb57600080fd5b8301601f8101851361510c57600080fd5b803561511f61511a826150ad565b614d48565b81815260059190911b8201830190838101908783111561513e57600080fd5b928401925b82841015613c5157833582529284019290840190615143565b6020808252825182820181905260009190848201906040850190845b8181101561519457835183529284019291840191600101615178565b50909695505050505050565b600080602083850312156151b357600080fd5b823567ffffffffffffffff808211156151cb57600080fd5b818501915085601f8301126151df57600080fd5b8135818111156151ee57600080fd5b8660208260051b850101111561520357600080fd5b60209290920196919550909350505050565b6000806040838503121561522857600080fd5b823591506020830135614e6181614a59565b6000806000610120848603121561525057600080fd5b83359250602084013561526281614ce8565b91506152718560408601614c9f565b90509250925092565b60008060006060848603121561528f57600080fd5b833561529a81614c6d565b925060208401356152aa81614c6d565b915060408401356152ba81614ce8565b809150509250925092565b600080600080600060a086880312156152dd57600080fd5b8535945060208601356152ef81614ce8565b935060408601356152ff81614eed565b92506060860135614fea81614eed565b634e487b7160e01b600052600160045260246000fd5b80546001600160a01b0319166001600160a01b0392909216919091179055565b6000813561104a81614c6d565b80547fffffff0000000000000000000000000000000000000000ffffffffffffffffff1660489290921b6901000000000000000000600160e81b0316919091179055565b81356153a181614f4f565b815461ffff191661ffff82161782555060208201356153bf81614f4f565b815463ffff00001916601082901b63ffff0000161782555060408201356153e581614ce8565b815467ffffffff000000008260201b1691508167ffffffff00000000198216178355606084013561541581614a59565b68ffffffffff00000000199190911690911790151560401b60ff60401b16178155608082013561544481614c6d565b611a048183615352565b813561545981614c6d565b6154638183615325565b50602082013561547281614c6d565b61547f8160018401615325565b5060028101604083013561549281614f4f565b815461ffff191661ffff82161782555060608301356154b081614f4f565b815463ffff00001916601082901b63ffff0000161782555060808301356154d681614ce8565b815467ffffffff000000008260201b1691508167ffffffff0000000019821617835560a085013561550681614a59565b68ffffffffff00000000199190911690911790151560401b60ff60401b16178155611a0461553660c08501615345565b82615352565b6000806040838503121561554f57600080fd5b505080516020909101519092909150565b634e487b7160e01b600052601160045260246000fd5b6000821982111561558957615589615560565b500190565b6000828210156155a0576155a0615560565b500390565b81356155b081614f4f565b815461ffff191661ffff82161782555060208201356155ce81614f4f565b815463ffff00001916601082901b63ffff0000161782555060408201356155f481614f4f565b815465ffff00000000191660209190911b65ffff000000001617905550565b6020808252602e908201527f496e697469616c697a61626c653a20636f6e747261637420697320616c72656160408201526d191e481a5b9a5d1a585b1a5e995960921b606082015260800190565b634e487b7160e01b600052603260045260246000fd5b60006020828403121561568957600080fd5b5051919050565b60006000198214156156a4576156a4615560565b5060010190565b6000602082840312156156bd57600080fd5b813561286681614f4f565b80356003811061222557600080fd5b8481526001600160a01b0384166020820152610140810183356156f981614eed565b60020b6040830152602084013561570f81614eed565b60020b60608301526040840135600f81900b811461572c57600080fd5b61573b6080840182600f0b9052565b5061574860608501614d79565b6001600160a01b031660a083015261576260808501614f5f565b61ffff1660c083015261577760a08501614a67565b151560e083015261578a60c085016156c8565b615798610100840182614abe565b508261012083015295945050505050565b6000600160ff1b8214156157bf576157bf615560565b5060000390565b60005b838110156157e15781810151838201526020016157c9565b838111156116815750506000910152565b600082516158048184602087016157c6565b9190910192915050565b600080821280156001600160ff1b038490038513161561583057615830615560565b600160ff1b839003841281161561584957615849615560565b50500190565b600080828403608081121561586357600080fd5b835192506060601f198201121561587957600080fd5b506040516060810181811067ffffffffffffffff8211171561589d5761589d614d32565b8060405250602084015181526040840151602082015260608401516040820152809150509250929050565b60006001600160a01b03838116908316818110156158e8576158e8615560565b039392505050565b60006001600160a01b038281168482168115158284048211161561591657615916615560565b02949350505050565b634e487b7160e01b600052601260045260246000fd5b60006001600160a01b038381168061594f5761594f61591f565b92169190910492915050565b600060ff821660ff81141561597257615972615560565b60010192915050565b60006020828403121561598d57600080fd5b815161286681614a59565b60008160001904831182151516156159b2576159b2615560565b500290565b6000602082840312156159c957600080fd5b815161286681614c6d565b60006001600160ff1b03818413828413808216868404861116156159fa576159fa615560565b600160ff1b6000871282811687830589121615615a1957615a19615560565b60008712925087820587128484161615615a3557615a35615560565b87850587128184161615615a4b57615a4b615560565b505050929093029392505050565b600080600080600080600060e0888a031215615a7457600080fd5b8751615a7f81614c6d565b6020890151909750615a9081614eed565b6040890151909650615aa181614f4f565b6060890151909550615ab281614f4f565b6080890151909450615ac381614f4f565b60a089015190935060ff81168114615ada57600080fd5b60c0890151909250615aeb81614a59565b8091505092959891949750929550565b6020808252825182820181905260009190848201906040850190845b8181101561519457835163ffffffff1683529284019291840191600101615b17565b600082601f830112615b4a57600080fd5b81516020615b5a61511a836150ad565b82815260059290921b84018101918181019086841115615b7957600080fd5b8286015b84811015615b9d578051615b9081614c6d565b8352918301918301615b7d565b509695505050505050565b60008060408385031215615bbb57600080fd5b825167ffffffffffffffff80821115615bd357600080fd5b818501915085601f830112615be757600080fd5b81516020615bf761511a836150ad565b82815260059290921b84018101918181019089841115615c1657600080fd5b948201945b83861015615c445785518060060b8114615c355760008081fd5b82529482019490820190615c1b565b91880151919650909350505080821115615c5d57600080fd5b50615c6a85828601615b39565b9150509250929050565b60008160060b8360060b6000811281667fffffffffffff1901831281151615615c9f57615c9f615560565b81667fffffffffffff018313811615615cba57615cba615560565b5090039392505050565b60008160060b8360060b80615cdb57615cdb61591f565b667fffffffffffff19821460001982141615615cf957615cf9615560565b90059392505050565b60008260060b80615d1557615d1561591f565b808360060b0791505092915050565b60008160020b627fffff19811415615d3e57615d3e615560565b6000190192915050565b6020815260008251806020840152615d678160408501602087016157c6565b601f01601f19169190910160400192915050565b600060808284031215615d8d57600080fd5b6040516080810181811067ffffffffffffffff82111715615db057615db0614d32565b8060405250825181526020830151602082015260408301516040820152606083015160608201528091505092915050565b60008083128015600160ff1b850184121615615dff57615dff615560565b6001600160ff1b0384018313811615615e1a57615e1a615560565b5050039056fea164736f6c634300080a000a",
  "deployedBytecode": "0x608060405234801561001057600080fd5b50600436106102a05760003560e01c80637cc2f4f511610167578063b7902303116100ce578063e1f1671311610087578063e1f167131461079e578063e67ed1df146107b1578063eb7c987d146107c4578063ee6cd5ee1461086f578063fcd0a50614610882578063fe6f083a1461089557600080fd5b8063b790230314610721578063d257be2b14610734578063d38bfff414610747578063dac42a961461075a578063dbc0c0851461076d578063dbd035ff1461077e57600080fd5b806394c8c71d1161012057806394c8c71d1461064557806398f5c527146106585780639dca362f1461066b578063a26f7ca714610673578063a4063dbc14610686578063a5cf76881461070957600080fd5b80637cc2f4f5146105285780637ec6ba311461053b5780637f64d6631461054e57806384088b65146105615780638ce25a931461059657806393420cf41461059f57600080fd5b80633fc42d801161020b5780635aa6e675116101c45780635aa6e675146104a85780635c318ad9146104bf5780635c975abb146104d257806364f36801146104df57806373cceb9d146104f25780637938d8a31461051557600080fd5b80633fc42d80146103d157806342be9fca1461040457806343233d2e146104175780634e10b6e3146104465780635616847614610469578063569634d31461049557600080fd5b80632a66e9ca1161025d5780632a66e9ca1461034a5780632afaea371461035d57806332a72d981461037057806336fadead1461039857806339359029146103ab5780633d56a35e146103be57600080fd5b8063127fec13146102a557806316c38b3c146102d55780631a1feae1146102ea5780631e2eaeaf1461030257806321df4c0e14610314578063261f806714610337575b600080fd5b60d8546102b8906001600160a01b031681565b6040516001600160a01b0390911681526020015b60405180910390f35b6102e86102e3366004614a72565b6108a8565b005b6102f461013d5481565b6040519081526020016102cc565b6102f4610310366004614a8f565b5490565b610327610322366004614a8f565b610906565b6040516102cc9493929190614ae0565b6102e8610345366004614c82565b610951565b6102e8610358366004614cb1565b6109a0565b6102e861036b366004614cfa565b610a63565b61038361037e366004614d84565b610bcb565b604080519283526020830191909152016102cc565b6102e86103a6366004614e33565b610dc4565b6102e86103b9366004614cfa565b610e3a565b60d6546102b8906001600160a01b031681565b6103f46103df366004614c82565b60d26020526000908152604090205460ff1681565b60405190151581526020016102cc565b6102f4610412366004614e6c565b610f96565b6102b8610425366004614e8e565b63ffffffff166000908152606660205260409020546001600160a01b031690565b6103f4610454366004614c82565b60d06020526000908152604090205460ff1681565b6103f4610477366004614c82565b6001600160a01b0316600090815260d0602052604090205460ff1690565b6102f46104a3366004614a8f565b61103d565b6000546201000090046001600160a01b03166102b8565b6102e86104cd366004614eab565b611050565b60d5546103f49060ff1681565b6102e86104ed366004614e33565b6110b9565b6103f4610500366004614c82565b60d16020526000908152604090205460ff1681565b6102e8610523366004614e6c565b61112f565b6102f4610536366004614efc565b611259565b6102e8610549366004614a8f565b611272565b6102e861055c366004614c82565b6112c3565b61057461056f366004614f6a565b611391565b60408051825181526020808401519082015291810151908201526060016102cc565b6102f460d35481565b604080516060808201835260008083526020808401829052928401526067548351808301855260685461ffff80821683526201000082048116838701908152600160201b9092048116838801908152606954606a54606b548a516001600160a01b03909816885295518416988701989098529251821697850197909752955190951692820192909252608081019390935260a083019190915260c082015260e0016102cc565b610574610653366004614fa9565b6113c3565b6102e8610666366004614ffb565b611495565b6102f4611570565b6102e861068136600461506c565b61160f565b610699610694366004614c82565b611687565b6040805182516001600160a01b03908116825260208085015182168184015293830151805161ffff90811684860152948101519094166060808401919091529284015163ffffffff1660808084019190915292840151151560a083015291909201511660c082015260e0016102cc565b60d5546102b89061010090046001600160a01b031681565b60d7546102b8906001600160a01b031681565b610383610742366004614c82565b611763565b6102e8610755366004614c82565b611797565b6103f4610768366004614e8e565b611859565b6001546001600160a01b03166102b8565b61079161078c3660046150d1565b611888565b6040516102cc919061515c565b6102e86107ac3660046151a0565b6118b3565b6103836107bf366004615215565b611a09565b6108396107d2366004614e8e565b60408051606080820183526000808352602080840182905292840181905263ffffffff9485168152606583528390208351918201845280546001600160a01b03908116835260019091015490811692820192909252600160a01b9091049092169082015290565b6040805182516001600160a01b039081168252602080850151909116908201529181015163ffffffff16908201526060016102cc565b61038361087d36600461523a565b611a30565b6102e861089036600461527a565b611ba2565b6102f46108a33660046152c5565b611c73565b6001546001600160a01b031633148015906108d557506000546001600160a01b0362010000909104163314155b156108f357604051636bd1573560e11b815260040160405180910390fd5b60d5805460ff1916911515919091179055565b600081815260d46020526040812080546001600160a01b031691906060908190610934606882016064611cc1565b9250610944600182016064611e43565b9597909650929493505050565b60d6546001600160a01b0316331461097c576040516385734f3160e01b815260040160405180910390fd5b6001600160a01b0316600090815260d060205260409020805460ff19166001179055565b60d6546001600160a01b031633146109cb576040516385734f3160e01b815260040160405180910390fd5b8160006001600160a01b03821663ffffffff808216600090815260666020526040812054929350610a06926001600160a01b03169161218316565b610a1257610a1261530f565b63ffffffff8116600090815260666020908152604080832080546001600160a01b0319166001600160a01b0387169081179091558352606490915290208390610a5b828261544e565b505050505050565b60d55460ff1615610a87576040516313d0ff5960e31b815260040160405180910390fd5b600083815260d46020526040902080546001600160a01b03163314610ac657604051630504a20d60e01b81523360048201526024015b60405180910390fd5b6000610ad184612194565b9050610afb333085610aea85546001600160a01b031690565b6001600160a01b031692919061222a565b8054604051631b2d4e8960e01b8152600481018490526001600160a01b0390911660248201526044810184905273__$86182d6e9eac51236f2aa8dd2a3ddeab6c$__90631b2d4e899060640160006040518083038186803b158015610b5f57600080fd5b505af4158015610b73573d6000803e3d6000fd5b50508254604080518981526001600160a01b03909216602083015281018690527fdce3cf2323481f6a4ecd26864872ec536609f1ad0788710e5786c65b8e51ee75925060600190505b60405180910390a15050505050565b60d554600090819060ff1615610bf4576040516313d0ff5960e31b815260040160405180910390fd5b600085815260d46020526040902080546001600160a01b03163314610c2e57604051630504a20d60e01b8152336004820152602401610abd565b6000610c3986612295565b6040805163edd75e2160e01b8152600481018590526001600160a01b0380841660248301528851604483015260208901511660648083019190915291880151151560848201526060880151151560a482015260c481019190915290915073__$86182d6e9eac51236f2aa8dd2a3ddeab6c$__9063edd75e219060e4016040805180830381865af4158015610cd1573d6000803e3d6000fd5b505050506040513d601f19601f82011682018060405250810190610cf5919061553c565b90945092506000610d058461232c565b606b54909150811015610d2e576040516312b6b5cd60e11b815260048101829052602401610abd565b60208601516001600160a01b031615801590610d4c57508560600151155b15610db95785604001518015610d7357508551610d689061232c565b610d718561232c565b145b80610d9c57508560400151158015610d9c57508551610d919061232c565b610d9a8661232c565b145b610db9576040516307a1db0760e01b815260040160405180910390fd5b505050935093915050565b6001546001600160a01b03163314801590610df157506000546001600160a01b0362010000909104163314155b15610e0f57604051636bd1573560e11b815260040160405180910390fd5b6001600160a01b0391909116600090815260d160205260409020805460ff1916911515919091179055565b60d55460ff1615610e5e576040516313d0ff5960e31b815260040160405180910390fd5b600083815260d46020526040902080546001600160a01b03163314610e9857604051630504a20d60e01b8152336004820152602401610abd565b6000610ea384612194565b8054604051634de2913360e11b8152600481018590526001600160a01b0390911660248201526044810185905260648082015290915073__$86182d6e9eac51236f2aa8dd2a3ddeab6c$__90639bc522669060840160006040518083038186803b158015610f1057600080fd5b505af4158015610f24573d6000803e3d6000fd5b50505050610f4e3384610f3e84546001600160a01b031690565b6001600160a01b03169190612347565b8054604080518781526001600160a01b03909216602083015281018490527fbe29a6b389df4dde99b5e61c229ee4fcb393f7f54c362aa57d8c92200183094690606001610bbc565b600081801561101f576000610fa9612377565b5a610fb49190615576565b9050610fc0604461242f565b610fca858561245b565b92506000610fd6612377565b5a610fe19190615576565b610feb908361558e565b90508083111561101857604051634010928f60e01b81526004810184905260248101829052604401610abd565b5050611036565b611029604461242f565b611033848461245b565b91505b5092915050565b600061104a82600061245b565b92915050565b6001546001600160a01b0316331480159061107d57506000546001600160a01b0362010000909104163314155b1561109b57604051636bd1573560e11b815260040160405180910390fd5b8360686110a882826155a5565b5050606a92909255606b5560695550565b6001546001600160a01b031633148015906110e657506000546001600160a01b0362010000909104163314155b1561110457604051636bd1573560e11b815260040160405180910390fd5b6001600160a01b0391909116600090815260d260205260409020805460ff1916911515919091179055565b60d55460ff1615611153576040516313d0ff5960e31b815260040160405180910390fd5b600082815260d46020526040902080546001600160a01b0316331461118d57604051630504a20d60e01b8152336004820152602401610abd565b604051634042e78f60e01b8152600481018290526024810183905260646044820181905273__$86182d6e9eac51236f2aa8dd2a3ddeab6c$__91634042e78f910160006040518083038186803b1580156111e657600080fd5b505af41580156111fa573d6000803e3d6000fd5b505060d55461121b925061010090046001600160a01b031690503384612347565b60408051848152602081018490527fb8635fe5938466cc626f7c214bf818f090e2b736368828f448cd2b379cf0174e910160405180910390a1505050565b60006112698585858560006125b0565b95945050505050565b6001546001600160a01b0316331480159061129f57506000546001600160a01b0362010000909104163314155b156112bd57604051636bd1573560e11b815260040160405180910390fd5b61013d55565b6001546001600160a01b031633148015906112f057506000546001600160a01b0362010000909104163314155b1561130e57604051636bd1573560e11b815260040160405180910390fd5b6001600160a01b0381166113355760405163d92e233d60e01b815260040160405180910390fd5b6001546040516001600160a01b038084169216907f39355f2f5c8206286978f443aa8126bbd29fa09c53c04569502647f3a59c8cb290600090a3600180546001600160a01b0319166001600160a01b0392909216919091179055565b6113b560405180606001604052806000815260200160008152602001600081525090565b6112698585858560006126c6565b6113e760405180606001604052806000815260200160008152602001600081525090565b8180156114715760006113f8612377565b5a6114039190615576565b905061140f60a461242f565b61141c88888888886126c6565b92506000611428612377565b5a6114339190615576565b61143d908361558e565b90508083111561146a57604051634010928f60e01b81526004810184905260248101829052604401610abd565b505061148b565b61147b60a461242f565b61148887878787876126c6565b91505b5095945050505050565b600054610100900460ff16806114ae575060005460ff16155b6114ca5760405162461bcd60e51b8152600401610abd90615613565b600054610100900460ff161580156114ec576000805461ffff19166101011790555b60d680546001600160a01b03199081166001600160a01b038981169190911790925560d58054610100600160a81b0319166101008985160217905560d78054821687841617905560d88054821685841617905560678054909116918516919091179055611557612835565b8015610a5b576000805461ff0019169055505050505050565b60d55460009060ff1615611597576040516313d0ff5960e31b815260040160405180910390fd5b5060d3546115a6816001615576565b60d355600081815260d4602090815260409182902080546001600160a01b031916339081178255600182018590558351908152918201849052917f7325fb14450d3e5eb288c620b4ff1d6b43a41b33b4a4f143ae88cd4c12f99ea3910160405180910390a15090565b6001546001600160a01b0316331480159061163c57506000546001600160a01b0362010000909104163314155b1561165a57604051636bd1573560e11b815260040160405180910390fd5b6001600160a01b038216600090815260646020526040902081906002016116818282615396565b50505050565b6116cc604080516060808201835260008083526020808401829052845160a0810186528281529081018290528085018290529182018190526080820152909182015290565b506001600160a01b039081166000908152606460209081526040918290208251606080820185528254861682526001830154861682850152845160a08101865260029093015461ffff8082168552620100008204169484019490945263ffffffff600160201b8504168386015260ff600160401b850416151590830152600160481b90920490931660808401529081019190915290565b60008061177a6001600160a01b0384166064612840565b91506117906001600160a01b038416606461286d565b9050915091565b6000546001600160a01b03620100009091041633146117c957604051636bd1573560e11b815260040160405180910390fd5b6001600160a01b0381166117f05760405163d92e233d60e01b815260040160405180910390fd5b600080546040516001600160a01b03808516936201000090930416917f5f56bee8cffbe9a78652a74a60705edede02af10b0bbb888ca44b79a0d42ce8091a3600080546001600160a01b03909216620100000262010000600160b01b0319909216919091179055565b63ffffffff808216600090815260666020526040812054909161104a916001600160a01b031690839061218316565b606060208251028201602001825b818110156118ab576020018051548152611896565b509192915050565b6000805b828110156119d65760008484838181106118d3576118d3615661565b90506020020160208101906118e89190614c82565b6001600160a01b0316635e622abc6040518163ffffffff1660e01b81526004016020604051808303816000875af1158015611927573d6000803e3d6000fd5b505050506040513d601f19601f8201168201806040525081019061194b9190615677565b90507f4b5237f428d31406cf0f93a4ab5fd11482f2fe9a1420271368d67e83496346c485858481811061198057611980615661565b90506020020160208101906119959190614c82565b604080516001600160a01b039092168252602082018490520160405180910390a16119c08184615576565b92505080806119ce90615690565b9150506118b7565b50611a046119ec6001546001600160a01b031690565b60d55461010090046001600160a01b03169083612347565b505050565b600082815260d4602052604081208190611a2590846064612885565b909590945092505050565b60d554600090819060ff1615611a59576040516313d0ff5960e31b815260040160405180910390fd5b600085815260d46020526040902080546001600160a01b03163314611a9357604051630504a20d60e01b8152336004820152602401610abd565b6000611a9e86612295565b9050611ab06080860160608701614c82565b6001600160a01b031615611ae757611ae781611ad26080880160608901614c82565b611ae260a0890160808a016156ab565b6128db565b6040516349e373d360e01b815273__$86182d6e9eac51236f2aa8dd2a3ddeab6c$__906349e373d390611b2590859085908a906064906004016156d7565b6040805180830381865af4158015611b41573d6000803e3d6000fd5b505050506040513d601f19601f82011682018060405250810190611b65919061553c565b90945092506000611b79828686606461297d565b606b54909150811015610db9576040516312b6b5cd60e11b815260048101829052602401610abd565b6001546001600160a01b03163314801590611bcf57506000546001600160a01b0362010000909104163314155b15611bed57604051636bd1573560e11b815260040160405180910390fd5b604080516060810182526001600160a01b038086168252938416602080830191825263ffffffff9485168385019081529685166000908152606590915292909220905181549085166001600160a01b0319909116178155905160019190910180549451909216600160a01b026001600160c01b0319909416921691909117919091179055565b6000818015611caa576000611c86612377565b5a611c919190615576565b9050611c9d60a461242f565b61141c88888888886125b0565b611cb460a461242f565b61148887878787876125b0565b60606000611cce846129bd565b90508067ffffffffffffffff811115611ce957611ce9614d32565b604051908082528060200260200182016040528015611d2e57816020015b6040805180820190915260008082526020820152815260200190600190039081611d075790505b50915060005b81811015611e3b57600184016000868360088110611d5457611d54615661565b60088104919091015460079091166004026101000a900463ffffffff16815260208101919091526040016000205483516001600160a01b0390911690849083908110611da257611da2615661565b60209081029190910101516001600160a01b039091169052600185016000868360088110611dd257611dd2615661565b600891828204019190066004029054906101000a900463ffffffff1663ffffffff1663ffffffff16815260200190815260200160002054838281518110611e1b57611e1b615661565b602090810291909101810151015280611e3381615690565b915050611d34565b505092915050565b600381015463ffffffff16600090815260028301602052604081205490606090611e6f600186016129bd565b90508067ffffffffffffffff811115611e8a57611e8a614d32565b604051908082528060200260200182016040528015611ef657816020015b611ee36040518060a0016040528060006001600160a01b03168152602001600081526020016000815260200160008152602001606081525090565b815260200190600190039081611ea85790505b50915060005b8181101561217a57846002016000876001018360088110611f1f57611f1f615661565b60088104919091015460079091166004026101000a900463ffffffff16815260208101919091526040016000205483516001600160a01b0390911690849083908110611f6d57611f6d615661565b60209081029190910101516001600160a01b039091169052600286016000600188018360088110611fa057611fa0615661565b600891828204019190066004029054906101000a900463ffffffff1663ffffffff1663ffffffff16815260200190815260200160002060000154838281518110611fec57611fec615661565b6020026020010151602001818152505085600201600087600101836008811061201757612017615661565b600891828204019190066004029054906101000a900463ffffffff1663ffffffff1663ffffffff1681526020019081526020016000206001015483828151811061206357612063615661565b6020026020010151604001818152505085600201600087600101836008811061208e5761208e615661565b600891828204019190066004029054906101000a900463ffffffff1663ffffffff1663ffffffff168152602001908152602001600020600201548382815181106120da576120da615661565b6020026020010151606001818152505061214686600201600088600101846008811061210857612108615661565b600891828204019190066004029054906101000a900463ffffffff1663ffffffff1663ffffffff168152602001908152602001600020600301612a27565b83828151811061215857612158615661565b602002602001015160800181905250808061217290615690565b915050611efc565b50509250929050565b6001600160a01b0390811691161490565b63ffffffff8082166000908152606560205260408120916121b7918391612fab16565b156121dd5760405163b087c8c360e01b815263ffffffff83166004820152602401610abd565b80546001600160a01b0316600090815260d2602052604090205460ff1661222557805460405163340e1b9160e21b81526001600160a01b039091166004820152602401610abd565b919050565b6040516001600160a01b03808516602483015283166044820152606481018290526116819085906323b872dd60e01b906084015b60408051601f198184030181529190526020810180516001600160e01b03166001600160e01b031990931692909217909152612fbe565b63ffffffff8082166000908152606660205260408120546001600160a01b0316916122c291839161218316565b156122e85760405163b087c8c360e01b815263ffffffff83166004820152602401610abd565b6001600160a01b038116600090815260d1602052604090205460ff1661222557604051631079472960e21b81526001600160a01b0382166004820152602401610abd565b60008082136123435761233e826157a9565b61104a565b5090565b6040516001600160a01b038316602482015260448101829052611a0490849063a9059cbb60e01b9060640161225e565b60408051600481526024810182526020810180516001600160e01b031663a94597ff60e01b1790529051600091829182916064916123b591906157f2565b600060405180830381855afa9150503d80600081146123f0576040519150601f19603f3d011682016040523d82523d6000602084013e6123f5565b606091505b509150915081158061240657508051155b156124145760009250505090565b808060200190518101906124289190615677565b9250505090565b36811061245857604051634219202560e01b815236600482015260248101829052604401610abd565b50565b60d55460009060ff1615612482576040516313d0ff5960e31b815260040160405180910390fd5b600083815260d4602052604081209073__$86182d6e9eac51236f2aa8dd2a3ddeab6c$__6379452b23836124b587613090565b6040516001600160e01b031960e085901b16815260048101929092526024820152606460448201819052016040805180830381865af41580156124fc573d6000803e3d6000fd5b505050506040513d601f19601f82011682018060405250810190612520919061553c565b90935090506000612531828561580e565b60d5549091506125509061010090046001600160a01b03163386612347565b612559826131a9565b6040805187815233602082015290810182905260608101859052608081018390527f914a6aef8c0c1a591157ee7d71dfbd71d1d7df090d3ec047f8eac01fc21b2f439060a00160405180910390a150505092915050565b60d55460009060ff16156125d7576040516313d0ff5960e31b815260040160405180910390fd5b600086815260d460205260408120906125ef87612295565b90506125fa84613090565b606a546126079190615576565b6040516343c74e9360e01b8152600481018490526001600160a01b0383166024820152600288810b604483015287900b6064808301919091526084820183905260a482015290935073__$86182d6e9eac51236f2aa8dd2a3ddeab6c$__906343c74e939060c40160006040518083038186803b15801561268657600080fd5b505af415801561269a573d6000803e3d6000fd5b505060d5546126bb925061010090046001600160a01b031690503385612347565b505095945050505050565b6126ea60405180606001604052806000815260200160008152602001600081525090565b60d55460ff161561270e576040516313d0ff5960e31b815260040160405180910390fd5b6127108361ffff161115612735576040516348d69f3560e01b815260040160405180910390fd5b600085815260d4602052604081209061274d86612295565b600089815260d4602052604081209192509073__$86182d6e9eac51236f2aa8dd2a3ddeab6c$__9063487e8af190859089866127888b613090565b60646040518763ffffffff1660e01b81526004016127db96959493929190958652602086019490945261ffff9290921660408501526001600160a01b03166060840152608083015260a082015260c00190565b608060405180830381865af41580156127f8573d6000803e3d6000fd5b505050506040513d601f19601f8201168201806040525081019061281c919061584f565b94509050612829816131a9565b50505095945050505050565b33612458818061323a565b60006128666128586001600160a01b03851684613342565b6001600160a01b03166133d4565b9392505050565b60006128666128586001600160a01b03851684613450565b600080612892858461348e565b91506128a6600186018560028601866134ba565b600286015490915063ffffffff16156128d357826005015481126128ca57806128d0565b82600501545b90505b935093915050565b60006128f16001600160a01b038516606461360f565b90506000836001600160a01b0316826001600160a01b03161161291d5761291882856158c8565b612927565b61292784836158c8565b905061271061293a8561ffff86166158f0565b6129449190615935565b6001600160a01b0316816001600160a01b03161115612976576040516307a1db0760e01b815260040160405180910390fd5b5050505050565b60006129888361232c565b6129b361299e6001600160a01b0388168561286d565b600160801b6129ac8861232c565b9190613635565b611269919061580e565b6000805b60088160ff161015612a1e57828160ff16600881106129e2576129e2615661565b60088104919091015460079091166004026101000a900463ffffffff16612a0c5760ff1692915050565b80612a168161595b565b9150506129c1565b50600892915050565b60606000612a3483613677565b90508067ffffffffffffffff811115612a4f57612a4f614d32565b604051908082528060200260200182016040528015612adf57816020015b612acc6040805161012081019091528060008152602001600060020b8152602001600060020b815260200160006001600160801b0316815260200160008152602001600081526020016000815260200160008152602001600081525090565b815260200190600190039081612a6d5790505b50915060005b81811015612fa457600184016000858360058110612b0557612b05615661565b600580820492909201549190066006026101000a900465ffffffffffff168152602081019190915260400160002054835160ff90911690849083908110612b4e57612b4e615661565b6020026020010151600001906002811115612b6b57612b6b614aa8565b90816002811115612b7e57612b7e614aa8565b905250600184016000858360058110612b9957612b99615661565b600591828204019190066006029054906101000a900465ffffffffffff1665ffffffffffff1665ffffffffffff16815260200190815260200160002060000160019054906101000a900460020b838281518110612bf857612bf8615661565b60209081029190910181015160029290920b910152600184016000858360058110612c2557612c25615661565b600591828204019190066006029054906101000a900465ffffffffffff1665ffffffffffff1665ffffffffffff16815260200190815260200160002060000160049054906101000a900460020b838281518110612c8457612c84615661565b602090810291909101015160029190910b604090910152600184016000858360058110612cb357612cb3615661565b600591828204019190066006029054906101000a900465ffffffffffff1665ffffffffffff1665ffffffffffff16815260200190815260200160002060000160079054906101000a90046001600160801b0316838281518110612d1857612d18615661565b60209081029190910101516001600160801b03909116606090910152600184016000858360058110612d4c57612d4c615661565b600591828204019190066006029054906101000a900465ffffffffffff1665ffffffffffff1665ffffffffffff16815260200190815260200160002060010154838281518110612d9e57612d9e615661565b602090810291909101015160800152600184016000858360058110612dc557612dc5615661565b600591828204019190066006029054906101000a900465ffffffffffff1665ffffffffffff1665ffffffffffff16815260200190815260200160002060020154838281518110612e1757612e17615661565b602090810291909101015160a00152600184016000858360058110612e3e57612e3e615661565b600591828204019190066006029054906101000a900465ffffffffffff1665ffffffffffff1665ffffffffffff16815260200190815260200160002060030154838281518110612e9057612e90615661565b602090810291909101015160c00152600184016000858360058110612eb757612eb7615661565b600591828204019190066006029054906101000a900465ffffffffffff1665ffffffffffff1665ffffffffffff16815260200190815260200160002060040154838281518110612f0957612f09615661565b602090810291909101015160e00152600184016000858360058110612f3057612f30615661565b600591828204019190066006029054906101000a900465ffffffffffff1665ffffffffffff1665ffffffffffff16815260200190815260200160002060050154838281518110612f8257612f82615661565b6020908102919091010151610100015280612f9c81615690565b915050612ae5565b5050919050565b90546001600160a01b0391821691161490565b6000613013826040518060400160405280602081526020017f5361666545524332303a206c6f772d6c6576656c2063616c6c206661696c6564815250856001600160a01b03166136ee9092919063ffffffff16565b805190915015611a045780806020019051810190613031919061597b565b611a045760405162461bcd60e51b815260206004820152602a60248201527f5361666545524332303a204552433230206f7065726174696f6e20646964206e6044820152691bdd081cdd58d8d9595960b21b6064820152608401610abd565b60003a61013d548111156130c65761013d54604051638dfe587d60e01b8152610abd918391600401918252602082015260400190565b8215806130dc575060d8546001600160a01b0316155b156130ea57600091506131a3565b6000333214156130ff576130fc6136fd565b90505b600061310b3a86615998565b60d854604051630e56d76760e31b815261012c6004820152919250600091613181916001600160a01b0316906372b6bb3890602401602060405180830381865afa15801561315d573d6000803e3d6000fd5b505050506040513d601f19601f8201168201806040525081019061285891906159b7565b905061319d81600160801b6131968587615576565b919061373b565b94505050505b50919050565b60008113156131d45760d75460d554612458916001600160a01b036101009092048216911683612347565b60d7546001600160a01b031663379607f56131ee836157a9565b6040518263ffffffff1660e01b815260040161320c91815260200190565b600060405180830381600087803b15801561322657600080fd5b505af1158015612976573d6000803e3d6000fd5b600054610100900460ff1680613253575060005460ff16155b61326f5760405162461bcd60e51b8152600401610abd90615613565b600054610100900460ff16158015613291576000805461ffff19166101011790555b6000805462010000600160b01b031916620100006001600160a01b0386169081029190911782556040519091907f5f56bee8cffbe9a78652a74a60705edede02af10b0bbb888ca44b79a0d42ce80908290a3600180546001600160a01b0319166001600160a01b0384169081179091556040516000907f39355f2f5c8206286978f443aa8126bbd29fa09c53c04569502647f3a59c8cb2908290a38015611a04576000805461ff0019169055505050565b6001600160a01b03828116600090815260208390526040808220600201549051630e56d76760e31b8152600160201b820463ffffffff1660048201529192600160481b90910416906372b6bb3890602401602060405180830381865afa1580156133b0573d6000803e3d6000fd5b505050506040513d601f19601f8201168201806040525081019061286691906159b7565b60006401000276a36001600160a01b038316108061340f575073fffd8963efd1fc6a506488495d951d5263988d266001600160a01b03831610155b1561343857604051635d236c4560e01b81526001600160a01b0383166004820152602401610abd565b61104a6001600160a01b03831680600160401b61373b565b6001600160a01b03808316600090815260208390526040812060028101549054919261286692169063ffffffff600160201b9091048116906137e916565b60006134a160018401600284018461380a565b90506134b06068840183613918565b612866908261580e565b600080808080805b60088160ff1610156135ed57896001018160ff16600881106134e6576134e6615661565b60088104919091015460079091166004026101000a900463ffffffff1661350c576135ed565b60008860008c6001018460ff166008811061352957613529615661565b60088104919091015460079091166004026101000a900463ffffffff90811682526020820192909252604001600020546001600160a01b03169150613576908c908c9084908c906139de16565b6001600160a01b038316600090815260208b905260409020600201549195509350600160401b900460ff16156135c3576135b0848761580e565b95506135bc838661580e565b94506135da565b6135cd8484613a99565b6135d7908861580e565b96505b50806135e58161595b565b9150506134c2565b506135f88484613a99565b613602908661580e565b9998505050505050505050565b6001600160a01b0380831660009081526020839052604081205490916128669116613aaa565b600061365b600085126136485784613654565b613654856000196159d4565b848461373b565b905060008412156128665761366f816157a9565b949350505050565b6000805b60058160ff1610156136e557828160ff166005811061369c5761369c615661565b600591828204019190066006029054906101000a900465ffffffffffff1665ffffffffffff16600014156136d35760ff1692915050565b806136dd8161595b565b91505061367b565b50600592915050565b606061366f8484600085613b34565b60408051600481526024810182526020810180516001600160e01b031663637bef0760e11b1790529051600091829182916064916123b591906157f2565b600080806000198587098587029250828110838203039150508060001415613775576000841161376a57600080fd5b508290049050612866565b80841161378157600080fd5b600084868809851960019081018716968790046003810260029081188083028203028083028203028083028203028083028203028083028203029182029003026000889003889004909101858311909403939093029303949094049190911702949350505050565b6000806137ff6001600160a01b03851684613c5c565b905061103381613e78565b6000805b60088160ff1610156138f1576000856001018260ff166008811061383457613834615661565b60088104919091015460079091166004026101000a900463ffffffff1690508061385e57506138f1565b63ffffffff8082166000908152602087815260408083205460028b019092529091206001600160a01b039091169161389c908290849089906141aa16565b6138a6908661580e565b945060006138bd6001600160a01b03841688613450565b90506138ce6003830182858a6141ce565b6138d8908761580e565b95505050505080806138e99061595b565b91505061380e565b50600382015463ffffffff16600090815260028501602052604090205461366f908261580e565b60008060005b60088160ff1610156139d65760008560ff83166008811061394157613941615661565b60088104919091015460079091166004026101000a900463ffffffff1690508061396b57506139d6565b63ffffffff8116600090815260018601602052604090206139b561398e826141fb565b63ffffffff808516600090815260018b0160205260409020549190600160801b9061363516565b6139bf908561580e565b9350505080806139ce9061595b565b91505061391e565b509392505050565b63ffffffff8083166000908152600286016020526040812090918291908290613a14906001600160a01b03881690879061286d16565b90506000613a2c6001600160a01b0388168988614209565b83549091506000613a3f60038601614263565b9050613a6861ffff8416620186a06129ac87600160801b82613a61888a61580e565b6000613a99565b9650613a8961ffff8416620186a06129ac87600160801b82613a61896157a9565b9550505050505094509492505050565b6000818313156131a357508161104a565b600080826001600160a01b0316633850c7bd6040518163ffffffff1660e01b815260040160e060405180830381865afa158015613aeb573d6000803e3d6000fd5b505050506040513d601f19601f82011682018060405250810190613b0f9190615a59565b509496509294505050506001600160a01b038316151590506131a35761286681613e78565b606082471015613b955760405162461bcd60e51b815260206004820152602660248201527f416464726573733a20696e73756666696369656e742062616c616e636520666f6044820152651c8818d85b1b60d21b6064820152608401610abd565b843b613be35760405162461bcd60e51b815260206004820152601d60248201527f416464726573733a2063616c6c20746f206e6f6e2d636f6e74726163740000006044820152606401610abd565b600080866001600160a01b03168587604051613bff91906157f2565b60006040518083038185875af1925050503d8060008114613c3c576040519150601f19603f3d011682016040523d82523d6000602084013e613c41565b606091505b5091509150613c518282866142de565b979650505050505050565b600063ffffffff8216613c85576040516351a4d88160e01b815260006004820152602401610abd565b6040805160028082526060820183526000926020830190803683370190505090508281600081518110613cba57613cba615661565b602002602001019063ffffffff16908163ffffffff1681525050600081600181518110613ce957613ce9615661565b63ffffffff9092166020928302919091019091015260405163883bdbfd60e01b81526001600160a01b0385169063883bdbfd90613d2a908490600401615afb565b600060405180830381865afa925050508015613d6857506040513d6000823e601f3d908101601f19168201604052613d659190810190615ba8565b60015b613ddd57836001600160a01b0316633850c7bd6040518163ffffffff1660e01b815260040160e060405180830381865afa158015613daa573d6000803e3d6000fd5b505050506040513d601f19601f82011682018060405250810190613dce9190615a59565b50939650611036945050505050565b600082600081518110613df257613df2615661565b602002602001015183600181518110613e0d57613e0d615661565b6020026020010151613e1f9190615c74565b90506000613e3363ffffffff881683615cc4565b905060008260060b128015613e595750613e5363ffffffff881683615d02565b60060b15155b15613e6c5780613e6881615d24565b9150505b945061104a9350505050565b60008060008360020b12613e8f578260020b613e97565b8260020b6000035b9050620d89e8811115613ed05760405162461bcd60e51b81526020600482015260016024820152601560fa1b6044820152606401610abd565b600060018216613ee457600160801b613ef6565b6ffffcb933bd6fad37aa2d162d1a5940015b70ffffffffffffffffffffffffffffffffff1690506002821615613f2a576ffff97272373d413259a46990580e213a0260801c5b6004821615613f49576ffff2e50f5f656932ef12357cf3c7fdcc0260801c5b6008821615613f68576fffe5caca7e10e4e61c3624eaa0941cd00260801c5b6010821615613f87576fffcb9843d60f6159c9db58835c9266440260801c5b6020821615613fa6576fff973b41fa98c081472e6896dfb254c00260801c5b6040821615613fc5576fff2ea16466c96a3843ec78b326b528610260801c5b6080821615613fe4576ffe5dee046a99a2a811c461f1969c30530260801c5b610100821615614004576ffcbe86c7900a88aedcffc83b479aa3a40260801c5b610200821615614024576ff987a7253ac413176f2b074cf7815e540260801c5b610400821615614044576ff3392b0822b70005940c7a398e4b70f30260801c5b610800821615614064576fe7159475a2c29b7443b29c7fa6e889d90260801c5b611000821615614084576fd097f3bdfd2022b8845ad8f792aa58250260801c5b6120008216156140a4576fa9f746462d870fdf8a65dc1f90e061e50260801c5b6140008216156140c4576f70d869a156d2a1b890bb3df62baf32f70260801c5b6180008216156140e4576f31be135f97d08fd981231505542fcfa60260801c5b62010000821615614105576f09aa508b5b7a84e1c677de54f3e99bc90260801c5b62020000821615614125576e5d6af8dedb81196699c329225ee6040260801c5b62040000821615614144576d2216e584f5fa1ea926041bedfe980260801c5b62080000821615614161576b048a170391f7dc42444e8fa20260801c5b60008460020b131561418257806000198161417e5761417e61591f565b0490505b600160201b810615614195576001614198565b60005b60ff16602082901c0192505050919050565b6000806141c06001600160a01b0385168461286d565b905061126985858386614317565b6001600160a01b038281166000908152602083905260408120600101549091611269918791879116614344565b600061104a612858836143e0565b6000821561423757506001600160a01b03831660009081526020829052604090206002015461ffff16612866565b506001600160a01b03831660009081526020829052604090206002015462010000900461ffff16612866565b6000805b60058110156131a357600083826005811061428457614284615661565b600580820492909201549190066006026101000a900465ffffffffffff16600081815260018601602052604090209091506142be90614472565b6142c89084615576565b92505080806142d690615690565b915050614267565b606083156142ed575081612866565b8251156142fd5782518084602001fd5b8160405162461bcd60e51b8152600401610abd9190615d48565b6001600160a01b0383811660009081526020839052604081206001015490916112699187918691166144c9565b6000805b60058110156139d657600085826005811061436557614365615661565b600591828204019190066006029054906101000a900465ffffffffffff1690508065ffffffffffff166000141561439c57506139d6565b65ffffffffffff8116600090815260018701602052604090206143c09086866144f3565b6143ca908461580e565b92505080806143d890615690565b915050614348565b60006143f682600101546001600160a01b031690565b6001830154604051630e56d76760e31b8152600160a01b90910463ffffffff1660048201526001600160a01b0391909116906372b6bb3890602401602060405180830381865afa15801561444e573d6000803e3d6000fd5b505050506040513d601f19601f8201168201806040525081019061104a91906159b7565b8054600090819061448a90610100900460020b613e78565b83549091506000906144a590600160201b900460020b613e78565b845490915061366f9083908390600160381b90046001600160801b0316600161460c565b82546000906144dd9084600160801b613635565b90506144e984836146c1565b61366f908261580e565b600080806145018686614746565b915091506000614519866001600160a01b03166133d4565b90508161452b8483600160801b613635565b614535919061580e565b875460405163154cd3c960e11b81526101008204600290810b6004830152600160201b90920490910b6024820152909450600093506001600160a01b0386169250632a99a7929150604401608060405180830381865afa15801561459d573d6000803e3d6000fd5b505050506040513d601f19601f820116820180604052508101906145c19190615d7b565b90506145e26145dd82606001518761481090919063ffffffff16565b614840565b6145ec908361580e565b8151604083015191935061460291879190614852565b611269908361580e565b6000836001600160a01b0316856001600160a01b0316111561462c579293925b6fffffffffffffffffffffffffffffffff60601b606084901b166001600160a01b03868603811690871661465f57600080fd5b8361469557866001600160a01b03166146828383896001600160a01b031661373b565b8161468f5761468f61591f565b04613c51565b613c516146ac8383896001600160a01b031661488c565b886001600160a01b0316808204910615150190565b600080826001600160a01b031663a3a1e7e96040518163ffffffff1660e01b8152600401602060405180830381865afa158015614702573d6000803e3d6000fd5b505050506040513d601f19601f820116820180604052508101906147269190615677565b9050600061473d82866002015487600101546148cc565b611269906157a9565b81546000908190819061476090610100900460020b613e78565b855490915060009061477b90600160201b900460020b613e78565b9050846001600160a01b0380841690821610156147995750816147b6565b816001600160a01b0316866001600160a01b031611156147b65750805b86546147db906145dd9083908590600160381b90046001600160801b0316600061460c565b94506148046145dd84838a60000160079054906101000a90046001600160801b031660006148e7565b93505050509250929050565b8154600583015460009161286691600160381b9091046001600160801b031690600160801b90613196908661558e565b6000600160ff1b821061234357600080fd5b60028301546003840154600485015485546000936148839387938793600160381b90046001600160801b0316614957565b61366f906157a9565b600061489984848461373b565b9050600082806148ab576148ab61591f565b84860911156128665760001981106148c257600080fd5b6001019392505050565b600061366f6148db8486615de1565b8390600160801b61497f565b6000836001600160a01b0316856001600160a01b03161115614907579293925b816149345761492f836001600160801b03168686036001600160a01b0316600160601b61373b565b611269565b611269836001600160801b03168686036001600160a01b0316600160601b61488c565b6000613c5182600160801b61496e8888888d614a10565b614978908a615de1565b9190614a35565b60006001818080808812156149a15792159261499a886157a9565b92506149a5565b8792505b60008712156149c1579215926149ba876157a9565b91506149c5565b8691505b60008612156149e4579215926149dd866000196159d4565b90506149e7565b50845b6149f283838361373b565b945083614a0557614a02856157a9565b94505b505050509392505050565b6000614a2b614a1f8684615de1565b8590600160801b61497f565b611269908461580e565b6000614a42848484613635565b905060008112156128665761366f6000198261580e565b801515811461245857600080fd5b803561222581614a59565b600060208284031215614a8457600080fd5b813561286681614a59565b600060208284031215614aa157600080fd5b5035919050565b634e487b7160e01b600052602160045260246000fd5b60038110614adc57634e487b7160e01b600052602160045260246000fd5b9052565b6000608080830160018060a01b038089168552602088818701526040848188015283895180865260a089019150838b01955060005b81811015614b3c578651805187168452850151858401529584019591830191600101614b15565b5050878103606089015288518082528382019550600581901b82018401848b0160005b83811015614c5957848303601f19018952815180518916845287810151888501528681015187850152606080820151908501528a015160a08b850181905281519085018190529088019060009060c08601905b80831015614c44578351614bc7838251614abe565b8b8101518060020b8d850152508a81015160020b8b8401526060810151614bf960608501826001600160801b03169052565b508e8101518f84015260a081015160a084015260c081015160c084015260e081015160e084015261010080820151818501525050610120820191508a84019350600183019250614bb2565b509a89019a9450505090860190600101614b5f565b50909e9d5050505050505050505050505050565b6001600160a01b038116811461245857600080fd5b600060208284031215614c9457600080fd5b813561286681614c6d565b600060e082840312156131a357600080fd5b6000806101008385031215614cc557600080fd5b8235614cd081614c6d565b9150614cdf8460208501614c9f565b90509250929050565b63ffffffff8116811461245857600080fd5b600080600060608486031215614d0f57600080fd5b833592506020840135614d2181614ce8565b929592945050506040919091013590565b634e487b7160e01b600052604160045260246000fd5b604051601f8201601f1916810167ffffffffffffffff81118282101715614d7157614d71614d32565b604052919050565b803561222581614c6d565b600080600083850360c0811215614d9a57600080fd5b843593506020850135614dac81614ce8565b92506080603f1982011215614dc057600080fd5b506040516080810181811067ffffffffffffffff82111715614de457614de4614d32565b604090815285013581526060850135614dfc81614c6d565b60208201526080850135614e0f81614a59565b604082015260a0850135614e2281614a59565b606082015292959194509192509050565b60008060408385031215614e4657600080fd5b8235614e5181614c6d565b91506020830135614e6181614a59565b809150509250929050565b60008060408385031215614e7f57600080fd5b50508035926020909101359150565b600060208284031215614ea057600080fd5b813561286681614ce8565b60008060008084860360c0811215614ec257600080fd5b6060811215614ed057600080fd5b509395606087013595506080870135945060a08701359350915050565b8060020b811461245857600080fd5b60008060008060808587031215614f1257600080fd5b843593506020850135614f2481614ce8565b92506040850135614f3481614eed565b91506060850135614f4481614eed565b939692955090935050565b61ffff8116811461245857600080fd5b803561222581614f4f565b60008060008060808587031215614f8057600080fd5b84359350602085013592506040850135614f9981614ce8565b91506060850135614f4481614f4f565b600080600080600060a08688031215614fc157600080fd5b85359450602086013593506040860135614fda81614ce8565b92506060860135614fea81614f4f565b949793965091946080013592915050565b600080600080600060a0868803121561501357600080fd5b853561501e81614c6d565b9450602086013561502e81614c6d565b9350604086013561503e81614c6d565b9250606086013561504e81614c6d565b9150608086013561505e81614c6d565b809150509295509295909350565b60008082840360c081121561508057600080fd5b833561508b81614c6d565b925060a0601f198201121561509f57600080fd5b506020830190509250929050565b600067ffffffffffffffff8211156150c7576150c7614d32565b5060051b60200190565b600060208083850312156150e457600080fd5b823567ffffffffffffffff8111156150fb57600080fd5b8301601f8101851361510c57600080fd5b803561511f61511a826150ad565b614d48565b81815260059190911b8201830190838101908783111561513e57600080fd5b928401925b82841015613c5157833582529284019290840190615143565b6020808252825182820181905260009190848201906040850190845b8181101561519457835183529284019291840191600101615178565b50909695505050505050565b600080602083850312156151b357600080fd5b823567ffffffffffffffff808211156151cb57600080fd5b818501915085601f8301126151df57600080fd5b8135818111156151ee57600080fd5b8660208260051b850101111561520357600080fd5b60209290920196919550909350505050565b6000806040838503121561522857600080fd5b823591506020830135614e6181614a59565b6000806000610120848603121561525057600080fd5b83359250602084013561526281614ce8565b91506152718560408601614c9f565b90509250925092565b60008060006060848603121561528f57600080fd5b833561529a81614c6d565b925060208401356152aa81614c6d565b915060408401356152ba81614ce8565b809150509250925092565b600080600080600060a086880312156152dd57600080fd5b8535945060208601356152ef81614ce8565b935060408601356152ff81614eed565b92506060860135614fea81614eed565b634e487b7160e01b600052600160045260246000fd5b80546001600160a01b0319166001600160a01b0392909216919091179055565b6000813561104a81614c6d565b80547fffffff0000000000000000000000000000000000000000ffffffffffffffffff1660489290921b6901000000000000000000600160e81b0316919091179055565b81356153a181614f4f565b815461ffff191661ffff82161782555060208201356153bf81614f4f565b815463ffff00001916601082901b63ffff0000161782555060408201356153e581614ce8565b815467ffffffff000000008260201b1691508167ffffffff00000000198216178355606084013561541581614a59565b68ffffffffff00000000199190911690911790151560401b60ff60401b16178155608082013561544481614c6d565b611a048183615352565b813561545981614c6d565b6154638183615325565b50602082013561547281614c6d565b61547f8160018401615325565b5060028101604083013561549281614f4f565b815461ffff191661ffff82161782555060608301356154b081614f4f565b815463ffff00001916601082901b63ffff0000161782555060808301356154d681614ce8565b815467ffffffff000000008260201b1691508167ffffffff0000000019821617835560a085013561550681614a59565b68ffffffffff00000000199190911690911790151560401b60ff60401b16178155611a0461553660c08501615345565b82615352565b6000806040838503121561554f57600080fd5b505080516020909101519092909150565b634e487b7160e01b600052601160045260246000fd5b6000821982111561558957615589615560565b500190565b6000828210156155a0576155a0615560565b500390565b81356155b081614f4f565b815461ffff191661ffff82161782555060208201356155ce81614f4f565b815463ffff00001916601082901b63ffff0000161782555060408201356155f481614f4f565b815465ffff00000000191660209190911b65ffff000000001617905550565b6020808252602e908201527f496e697469616c697a61626c653a20636f6e747261637420697320616c72656160408201526d191e481a5b9a5d1a585b1a5e995960921b606082015260800190565b634e487b7160e01b600052603260045260246000fd5b60006020828403121561568957600080fd5b5051919050565b60006000198214156156a4576156a4615560565b5060010190565b6000602082840312156156bd57600080fd5b813561286681614f4f565b80356003811061222557600080fd5b8481526001600160a01b0384166020820152610140810183356156f981614eed565b60020b6040830152602084013561570f81614eed565b60020b60608301526040840135600f81900b811461572c57600080fd5b61573b6080840182600f0b9052565b5061574860608501614d79565b6001600160a01b031660a083015261576260808501614f5f565b61ffff1660c083015261577760a08501614a67565b151560e083015261578a60c085016156c8565b615798610100840182614abe565b508261012083015295945050505050565b6000600160ff1b8214156157bf576157bf615560565b5060000390565b60005b838110156157e15781810151838201526020016157c9565b838111156116815750506000910152565b600082516158048184602087016157c6565b9190910192915050565b600080821280156001600160ff1b038490038513161561583057615830615560565b600160ff1b839003841281161561584957615849615560565b50500190565b600080828403608081121561586357600080fd5b835192506060601f198201121561587957600080fd5b506040516060810181811067ffffffffffffffff8211171561589d5761589d614d32565b8060405250602084015181526040840151602082015260608401516040820152809150509250929050565b60006001600160a01b03838116908316818110156158e8576158e8615560565b039392505050565b60006001600160a01b038281168482168115158284048211161561591657615916615560565b02949350505050565b634e487b7160e01b600052601260045260246000fd5b60006001600160a01b038381168061594f5761594f61591f565b92169190910492915050565b600060ff821660ff81141561597257615972615560565b60010192915050565b60006020828403121561598d57600080fd5b815161286681614a59565b60008160001904831182151516156159b2576159b2615560565b500290565b6000602082840312156159c957600080fd5b815161286681614c6d565b60006001600160ff1b03818413828413808216868404861116156159fa576159fa615560565b600160ff1b6000871282811687830589121615615a1957615a19615560565b60008712925087820587128484161615615a3557615a35615560565b87850587128184161615615a4b57615a4b615560565b505050929093029392505050565b600080600080600080600060e0888a031215615a7457600080fd5b8751615a7f81614c6d565b6020890151909750615a9081614eed565b6040890151909650615aa181614f4f565b6060890151909550615ab281614f4f565b6080890151909450615ac381614f4f565b60a089015190935060ff81168114615ada57600080fd5b60c0890151909250615aeb81614a59565b8091505092959891949750929550565b6020808252825182820181905260009190848201906040850190845b8181101561519457835163ffffffff1683529284019291840191600101615b17565b600082601f830112615b4a57600080fd5b81516020615b5a61511a836150ad565b82815260059290921b84018101918181019086841115615b7957600080fd5b8286015b84811015615b9d578051615b9081614c6d565b8352918301918301615b7d565b509695505050505050565b60008060408385031215615bbb57600080fd5b825167ffffffffffffffff80821115615bd357600080fd5b818501915085601f830112615be757600080fd5b81516020615bf761511a836150ad565b82815260059290921b84018101918181019089841115615c1657600080fd5b948201945b83861015615c445785518060060b8114615c355760008081fd5b82529482019490820190615c1b565b91880151919650909350505080821115615c5d57600080fd5b50615c6a85828601615b39565b9150509250929050565b60008160060b8360060b6000811281667fffffffffffff1901831281151615615c9f57615c9f615560565b81667fffffffffffff018313811615615cba57615cba615560565b5090039392505050565b60008160060b8360060b80615cdb57615cdb61591f565b667fffffffffffff19821460001982141615615cf957615cf9615560565b90059392505050565b60008260060b80615d1557615d1561591f565b808360060b0791505092915050565b60008160020b627fffff19811415615d3e57615d3e615560565b6000190192915050565b6020815260008251806020840152615d678160408501602087016157c6565b601f01601f19169190910160400192915050565b600060808284031215615d8d57600080fd5b6040516080810181811067ffffffffffffffff82111715615db057615db0614d32565b8060405250825181526020830151602082015260408301516040820152606083015160608201528091505092915050565b60008083128015600160ff1b850184121615615dff57615dff615560565b6001600160ff1b0384018313811615615e1a57615e1a615560565b5050039056fea164736f6c634300080a000a",
  "libraries": {
    "Account": "0x0D0DF62aA9f3D950e6B8a2aECb70E3Fff03E217A"
  },
  "userdoc": {
    "errors": {
      "AccessDenied(address)": [
        {
          "notice": "error to denote invalid account access"
        }
      ],
      "InvalidTokenLiquidationParameters()": [
        {
          "notice": "error to denote invalid token liquidation (fraction to liquidate> 1)"
        }
      ],
      "LowNotionalValue(uint256)": [
        {
          "notice": "error to denote low notional value of txn"
        }
      ],
      "SlippageBeyondTolerance()": [
        {
          "notice": "error to denote slippage of txn beyond set threshold"
        }
      ],
      "UninitializedToken(uint32)": [
        {
          "notice": "error to denote usage of unitialized token"
        }
      ],
      "UnsupportedRToken(address)": [
        {
          "notice": "error to denote usage of unsupported token"
        }
      ],
      "UnsupportedVToken(address)": [
        {
          "notice": "error to denote usage of unsupported token"
        }
      ]
    },
    "kind": "user",
    "methods": {
      "__ClearingHouse_init(address,address,address,address,address)": {
        "notice": "PLATFORM FUNCTIONS"
      },
      "addCollateralSupport(address,address,uint32)": {
        "notice": "ADMIN FUNCTIONS"
      },
      "addMargin(uint256,uint32,uint256)": {
        "notice": "deposits 'amount' of token associated with 'vTokenTruncatedAddress'"
      },
      "createAccount()": {
        "notice": "creates a new account and adds it to the accounts map"
      },
      "getAccountView(uint256)": {
        "notice": "Account.UserInfo VIEW"
      },
      "liquidateLiquidityPositions(uint256)": {
        "notice": "keeper call for liquidation of range position"
      },
      "protocolInfo()": {
        "notice": "Account.ProtocolInfo VIEW"
      },
      "removeLimitOrder(uint256,uint32,int24,int24)": {
        "notice": "keeper call to remove a limit order"
      },
      "removeLimitOrderWithGasClaim(uint256,uint32,int24,int24,uint256)": {
        "notice": "ALTERNATE LIQUIDATION METHODS FOR FIX FEE CLAIM"
      },
      "removeMargin(uint256,uint32,uint256)": {
        "notice": "withdraws 'amount' of token associated with 'vTokenTruncatedAddress'"
      },
      "removeProfit(uint256,uint256)": {
        "notice": "withdraws 'amount' of base token from the profit made"
      },
      "swapToken(uint256,uint32,(int256,uint160,bool,bool))": {
        "notice": "swaps token associated with 'vTokenTruncatedAddress' by 'amount' (Long if amount>0 else Short)"
      },
      "updateRangeOrder(uint256,uint32,(int24,int24,int128,uint160,uint16,bool,uint8))": {
        "notice": "updates range order of token associated with 'vTokenTruncatedAddress' by 'liquidityDelta' (Adds if amount>0 else Removes)also can be used to update limitOrderType"
      },
      "withdrawProtocolFee(address[])": {
        "notice": "withdraws protocol fees collected in the supplied wrappers to team multisig"
      }
    },
    "version": 1
  },
  "storageLayout": {
    "storage": [
      {
        "astId": 252,
        "contract": "contracts/protocol/clearinghouse/ClearingHouseArbitrum.sol:ClearingHouseArbitrum",
        "label": "_initialized",
        "offset": 0,
        "slot": "0",
        "type": "t_bool"
      },
      {
        "astId": 255,
        "contract": "contracts/protocol/clearinghouse/ClearingHouseArbitrum.sol:ClearingHouseArbitrum",
        "label": "_initializing",
        "offset": 1,
        "slot": "0",
        "type": "t_bool"
      },
      {
        "astId": 26649,
        "contract": "contracts/protocol/clearinghouse/ClearingHouseArbitrum.sol:ClearingHouseArbitrum",
        "label": "_governance",
        "offset": 2,
        "slot": "0",
        "type": "t_address"
      },
      {
        "astId": 26651,
        "contract": "contracts/protocol/clearinghouse/ClearingHouseArbitrum.sol:ClearingHouseArbitrum",
        "label": "_teamMultisig",
        "offset": 0,
        "slot": "1",
        "type": "t_address"
      },
      {
        "astId": 19215,
        "contract": "contracts/protocol/clearinghouse/ClearingHouseArbitrum.sol:ClearingHouseArbitrum",
        "label": "_emptySlots1",
        "offset": 0,
        "slot": "2",
        "type": "t_array(t_uint256)98_storage"
      },
      {
        "astId": 19218,
        "contract": "contracts/protocol/clearinghouse/ClearingHouseArbitrum.sol:ClearingHouseArbitrum",
        "label": "protocol",
        "offset": 0,
        "slot": "100",
        "type": "t_struct(ProtocolInfo)8237_storage"
      },
      {
        "astId": 19222,
        "contract": "contracts/protocol/clearinghouse/ClearingHouseArbitrum.sol:ClearingHouseArbitrum",
        "label": "realTokenInitilized",
        "offset": 0,
        "slot": "208",
        "type": "t_mapping(t_address,t_bool)"
      },
      {
        "astId": 19227,
        "contract": "contracts/protocol/clearinghouse/ClearingHouseArbitrum.sol:ClearingHouseArbitrum",
        "label": "supportedVTokens",
        "offset": 0,
        "slot": "209",
        "type": "t_mapping(t_contract(IVToken)8121,t_bool)"
      },
      {
        "astId": 19231,
        "contract": "contracts/protocol/clearinghouse/ClearingHouseArbitrum.sol:ClearingHouseArbitrum",
        "label": "supportedDeposits",
        "offset": 0,
        "slot": "210",
        "type": "t_mapping(t_address,t_bool)"
      },
      {
        "astId": 19233,
        "contract": "contracts/protocol/clearinghouse/ClearingHouseArbitrum.sol:ClearingHouseArbitrum",
        "label": "numAccounts",
        "offset": 0,
        "slot": "211",
        "type": "t_uint256"
      },
      {
        "astId": 19238,
        "contract": "contracts/protocol/clearinghouse/ClearingHouseArbitrum.sol:ClearingHouseArbitrum",
        "label": "accounts",
        "offset": 0,
        "slot": "212",
        "type": "t_mapping(t_uint256,t_struct(UserInfo)8204_storage)"
      },
      {
        "astId": 19240,
        "contract": "contracts/protocol/clearinghouse/ClearingHouseArbitrum.sol:ClearingHouseArbitrum",
        "label": "paused",
        "offset": 0,
        "slot": "213",
        "type": "t_bool"
      },
      {
        "astId": 19243,
        "contract": "contracts/protocol/clearinghouse/ClearingHouseArbitrum.sol:ClearingHouseArbitrum",
        "label": "rBase",
        "offset": 1,
        "slot": "213",
        "type": "t_contract(IERC20)3180"
      },
      {
        "astId": 19245,
        "contract": "contracts/protocol/clearinghouse/ClearingHouseArbitrum.sol:ClearingHouseArbitrum",
        "label": "rageTradeFactoryAddress",
        "offset": 0,
        "slot": "214",
        "type": "t_address"
      },
      {
        "astId": 19248,
        "contract": "contracts/protocol/clearinghouse/ClearingHouseArbitrum.sol:ClearingHouseArbitrum",
        "label": "insuranceFund",
        "offset": 0,
        "slot": "215",
        "type": "t_contract(IInsuranceFund)7933"
      },
      {
        "astId": 19251,
        "contract": "contracts/protocol/clearinghouse/ClearingHouseArbitrum.sol:ClearingHouseArbitrum",
        "label": "nativeOracle",
        "offset": 0,
        "slot": "216",
        "type": "t_contract(IOracle)7943"
      },
      {
        "astId": 19255,
        "contract": "contracts/protocol/clearinghouse/ClearingHouseArbitrum.sol:ClearingHouseArbitrum",
        "label": "_emptySlots2",
        "offset": 0,
        "slot": "217",
        "type": "t_array(t_uint256)100_storage"
      },
      {
        "astId": 26914,
        "contract": "contracts/protocol/clearinghouse/ClearingHouseArbitrum.sol:ClearingHouseArbitrum",
        "label": "txGasPriceLimit",
        "offset": 0,
        "slot": "317",
        "type": "t_uint256"
      }
    ],
    "types": {
      "t_address": {
        "encoding": "inplace",
        "label": "address",
        "numberOfBytes": "20"
      },
      "t_array(t_uint256)100_storage": {
        "base": "t_uint256",
        "encoding": "inplace",
        "label": "uint256[100]",
        "numberOfBytes": "3200"
      },
      "t_array(t_uint256)98_storage": {
        "base": "t_uint256",
        "encoding": "inplace",
        "label": "uint256[98]",
        "numberOfBytes": "3136"
      },
      "t_array(t_uint32)8_storage": {
        "base": "t_uint32",
        "encoding": "inplace",
        "label": "uint32[8]",
        "numberOfBytes": "32"
      },
      "t_array(t_uint48)5_storage": {
        "base": "t_uint48",
        "encoding": "inplace",
        "label": "uint48[5]",
        "numberOfBytes": "32"
      },
      "t_bool": {
        "encoding": "inplace",
        "label": "bool",
        "numberOfBytes": "1"
      },
      "t_contract(IERC20)3180": {
        "encoding": "inplace",
        "label": "contract IERC20",
        "numberOfBytes": "20"
      },
      "t_contract(IInsuranceFund)7933": {
        "encoding": "inplace",
        "label": "contract IInsuranceFund",
        "numberOfBytes": "20"
      },
      "t_contract(IOracle)7943": {
        "encoding": "inplace",
        "label": "contract IOracle",
        "numberOfBytes": "20"
      },
      "t_contract(IUniswapV3Pool)5097": {
        "encoding": "inplace",
        "label": "contract IUniswapV3Pool",
        "numberOfBytes": "20"
      },
      "t_contract(IVBase)7967": {
        "encoding": "inplace",
        "label": "contract IVBase",
        "numberOfBytes": "20"
      },
      "t_contract(IVPoolWrapper)8097": {
        "encoding": "inplace",
        "label": "contract IVPoolWrapper",
        "numberOfBytes": "20"
      },
      "t_contract(IVToken)8121": {
        "encoding": "inplace",
        "label": "contract IVToken",
        "numberOfBytes": "20"
      },
      "t_enum(LimitOrderType)7620": {
        "encoding": "inplace",
        "label": "enum IClearingHouse.LimitOrderType",
        "numberOfBytes": "1"
      },
      "t_int24": {
        "encoding": "inplace",
        "label": "int24",
        "numberOfBytes": "3"
      },
      "t_int256": {
        "encoding": "inplace",
        "label": "int256",
        "numberOfBytes": "32"
      },
      "t_mapping(t_address,t_bool)": {
        "encoding": "mapping",
        "key": "t_address",
        "label": "mapping(address => bool)",
        "numberOfBytes": "32",
        "value": "t_bool"
      },
      "t_mapping(t_contract(IVToken)8121,t_bool)": {
        "encoding": "mapping",
        "key": "t_contract(IVToken)8121",
        "label": "mapping(contract IVToken => bool)",
        "numberOfBytes": "32",
        "value": "t_bool"
      },
      "t_mapping(t_contract(IVToken)8121,t_struct(RageTradePool)7604_storage)": {
        "encoding": "mapping",
        "key": "t_contract(IVToken)8121",
        "label": "mapping(contract IVToken => struct IClearingHouse.RageTradePool)",
        "numberOfBytes": "32",
        "value": "t_struct(RageTradePool)7604_storage"
      },
      "t_mapping(t_uint256,t_struct(UserInfo)8204_storage)": {
        "encoding": "mapping",
        "key": "t_uint256",
        "label": "mapping(uint256 => struct Account.UserInfo)",
        "numberOfBytes": "32",
        "value": "t_struct(UserInfo)8204_storage"
      },
      "t_mapping(t_uint32,t_contract(IVToken)8121)": {
        "encoding": "mapping",
        "key": "t_uint32",
        "label": "mapping(uint32 => contract IVToken)",
        "numberOfBytes": "32",
        "value": "t_contract(IVToken)8121"
      },
      "t_mapping(t_uint32,t_struct(Position)15343_storage)": {
        "encoding": "mapping",
        "key": "t_uint32",
        "label": "mapping(uint32 => struct VTokenPosition.Position)",
        "numberOfBytes": "32",
        "value": "t_struct(Position)15343_storage"
      },
      "t_mapping(t_uint32,t_struct(RToken)11933_storage)": {
        "encoding": "mapping",
        "key": "t_uint32",
        "label": "mapping(uint32 => struct RTokenLib.RToken)",
        "numberOfBytes": "32",
        "value": "t_struct(RToken)11933_storage"
      },
      "t_mapping(t_uint32,t_uint256)": {
        "encoding": "mapping",
        "key": "t_uint32",
        "label": "mapping(uint32 => uint256)",
        "numberOfBytes": "32",
        "value": "t_uint256"
      },
      "t_mapping(t_uint48,t_struct(Info)10300_storage)": {
        "encoding": "mapping",
        "key": "t_uint48",
        "label": "mapping(uint48 => struct LiquidityPosition.Info)",
        "numberOfBytes": "32",
        "value": "t_struct(Info)10300_storage"
      },
      "t_struct(Info)10300_storage": {
        "encoding": "inplace",
        "label": "struct LiquidityPosition.Info",
        "members": [
          {
            "astId": 10279,
            "contract": "contracts/protocol/clearinghouse/ClearingHouseArbitrum.sol:ClearingHouseArbitrum",
            "label": "limitOrderType",
            "offset": 0,
            "slot": "0",
            "type": "t_enum(LimitOrderType)7620"
          },
          {
            "astId": 10281,
            "contract": "contracts/protocol/clearinghouse/ClearingHouseArbitrum.sol:ClearingHouseArbitrum",
            "label": "tickLower",
            "offset": 1,
            "slot": "0",
            "type": "t_int24"
          },
          {
            "astId": 10283,
            "contract": "contracts/protocol/clearinghouse/ClearingHouseArbitrum.sol:ClearingHouseArbitrum",
            "label": "tickUpper",
            "offset": 4,
            "slot": "0",
            "type": "t_int24"
          },
          {
            "astId": 10285,
            "contract": "contracts/protocol/clearinghouse/ClearingHouseArbitrum.sol:ClearingHouseArbitrum",
            "label": "liquidity",
            "offset": 7,
            "slot": "0",
            "type": "t_uint128"
          },
          {
            "astId": 10287,
            "contract": "contracts/protocol/clearinghouse/ClearingHouseArbitrum.sol:ClearingHouseArbitrum",
            "label": "vTokenAmountIn",
            "offset": 0,
            "slot": "1",
            "type": "t_int256"
          },
          {
            "astId": 10289,
            "contract": "contracts/protocol/clearinghouse/ClearingHouseArbitrum.sol:ClearingHouseArbitrum",
            "label": "sumALastX128",
            "offset": 0,
            "slot": "2",
            "type": "t_int256"
          },
          {
            "astId": 10291,
            "contract": "contracts/protocol/clearinghouse/ClearingHouseArbitrum.sol:ClearingHouseArbitrum",
            "label": "sumBInsideLastX128",
            "offset": 0,
            "slot": "3",
            "type": "t_int256"
          },
          {
            "astId": 10293,
            "contract": "contracts/protocol/clearinghouse/ClearingHouseArbitrum.sol:ClearingHouseArbitrum",
            "label": "sumFpInsideLastX128",
            "offset": 0,
            "slot": "4",
            "type": "t_int256"
          },
          {
            "astId": 10295,
            "contract": "contracts/protocol/clearinghouse/ClearingHouseArbitrum.sol:ClearingHouseArbitrum",
            "label": "sumFeeInsideLastX128",
            "offset": 0,
            "slot": "5",
            "type": "t_uint256"
          },
          {
            "astId": 10299,
            "contract": "contracts/protocol/clearinghouse/ClearingHouseArbitrum.sol:ClearingHouseArbitrum",
            "label": "_emptySlots",
            "offset": 0,
            "slot": "6",
            "type": "t_array(t_uint256)100_storage"
          }
        ],
        "numberOfBytes": "3392"
      },
      "t_struct(Info)11012_storage": {
        "encoding": "inplace",
        "label": "struct LiquidityPositionSet.Info",
        "members": [
          {
            "astId": 11002,
            "contract": "contracts/protocol/clearinghouse/ClearingHouseArbitrum.sol:ClearingHouseArbitrum",
            "label": "active",
            "offset": 0,
            "slot": "0",
            "type": "t_array(t_uint48)5_storage"
          },
          {
            "astId": 11007,
            "contract": "contracts/protocol/clearinghouse/ClearingHouseArbitrum.sol:ClearingHouseArbitrum",
            "label": "positions",
            "offset": 0,
            "slot": "1",
            "type": "t_mapping(t_uint48,t_struct(Info)10300_storage)"
          },
          {
            "astId": 11011,
            "contract": "contracts/protocol/clearinghouse/ClearingHouseArbitrum.sol:ClearingHouseArbitrum",
            "label": "_emptySlots",
            "offset": 0,
            "slot": "2",
            "type": "t_array(t_uint256)100_storage"
          }
        ],
        "numberOfBytes": "3264"
      },
      "t_struct(Info)9630_storage": {
        "encoding": "inplace",
        "label": "struct DepositTokenSet.Info",
        "members": [
          {
            "astId": 9621,
            "contract": "contracts/protocol/clearinghouse/ClearingHouseArbitrum.sol:ClearingHouseArbitrum",
            "label": "active",
            "offset": 0,
            "slot": "0",
            "type": "t_array(t_uint32)8_storage"
          },
          {
            "astId": 9625,
            "contract": "contracts/protocol/clearinghouse/ClearingHouseArbitrum.sol:ClearingHouseArbitrum",
            "label": "deposits",
            "offset": 0,
            "slot": "1",
            "type": "t_mapping(t_uint32,t_uint256)"
          },
          {
            "astId": 9629,
            "contract": "contracts/protocol/clearinghouse/ClearingHouseArbitrum.sol:ClearingHouseArbitrum",
            "label": "_emptySlots",
            "offset": 0,
            "slot": "2",
            "type": "t_array(t_uint256)100_storage"
          }
        ],
        "numberOfBytes": "3264"
      },
      "t_struct(LiquidationParams)8244_storage": {
        "encoding": "inplace",
        "label": "struct Account.LiquidationParams",
        "members": [
          {
            "astId": 8239,
            "contract": "contracts/protocol/clearinghouse/ClearingHouseArbitrum.sol:ClearingHouseArbitrum",
            "label": "liquidationFeeFraction",
            "offset": 0,
            "slot": "0",
            "type": "t_uint16"
          },
          {
            "astId": 8241,
            "contract": "contracts/protocol/clearinghouse/ClearingHouseArbitrum.sol:ClearingHouseArbitrum",
            "label": "tokenLiquidationPriceDeltaBps",
            "offset": 2,
            "slot": "0",
            "type": "t_uint16"
          },
          {
            "astId": 8243,
            "contract": "contracts/protocol/clearinghouse/ClearingHouseArbitrum.sol:ClearingHouseArbitrum",
            "label": "insuranceFundFeeShareBps",
            "offset": 4,
            "slot": "0",
            "type": "t_uint16"
          }
        ],
        "numberOfBytes": "32"
      },
      "t_struct(Position)15343_storage": {
        "encoding": "inplace",
        "label": "struct VTokenPosition.Position",
        "members": [
          {
            "astId": 15331,
            "contract": "contracts/protocol/clearinghouse/ClearingHouseArbitrum.sol:ClearingHouseArbitrum",
            "label": "balance",
            "offset": 0,
            "slot": "0",
            "type": "t_int256"
          },
          {
            "astId": 15333,
            "contract": "contracts/protocol/clearinghouse/ClearingHouseArbitrum.sol:ClearingHouseArbitrum",
            "label": "netTraderPosition",
            "offset": 0,
            "slot": "1",
            "type": "t_int256"
          },
          {
            "astId": 15335,
            "contract": "contracts/protocol/clearinghouse/ClearingHouseArbitrum.sol:ClearingHouseArbitrum",
            "label": "sumAX128Ckpt",
            "offset": 0,
            "slot": "2",
            "type": "t_int256"
          },
          {
            "astId": 15338,
            "contract": "contracts/protocol/clearinghouse/ClearingHouseArbitrum.sol:ClearingHouseArbitrum",
            "label": "liquidityPositions",
            "offset": 0,
            "slot": "3",
            "type": "t_struct(Info)11012_storage"
          },
          {
            "astId": 15342,
            "contract": "contracts/protocol/clearinghouse/ClearingHouseArbitrum.sol:ClearingHouseArbitrum",
            "label": "_emptySlots",
            "offset": 0,
            "slot": "105",
            "type": "t_array(t_uint256)100_storage"
          }
        ],
        "numberOfBytes": "6560"
      },
      "t_struct(ProtocolInfo)8237_storage": {
        "encoding": "inplace",
        "label": "struct Account.ProtocolInfo",
        "members": [
          {
            "astId": 8210,
            "contract": "contracts/protocol/clearinghouse/ClearingHouseArbitrum.sol:ClearingHouseArbitrum",
            "label": "pools",
            "offset": 0,
            "slot": "0",
            "type": "t_mapping(t_contract(IVToken)8121,t_struct(RageTradePool)7604_storage)"
          },
          {
            "astId": 8215,
            "contract": "contracts/protocol/clearinghouse/ClearingHouseArbitrum.sol:ClearingHouseArbitrum",
            "label": "rTokens",
            "offset": 0,
            "slot": "1",
            "type": "t_mapping(t_uint32,t_struct(RToken)11933_storage)"
          },
          {
            "astId": 8220,
            "contract": "contracts/protocol/clearinghouse/ClearingHouseArbitrum.sol:ClearingHouseArbitrum",
            "label": "vTokens",
            "offset": 0,
            "slot": "2",
            "type": "t_mapping(t_uint32,t_contract(IVToken)8121)"
          },
          {
            "astId": 8223,
            "contract": "contracts/protocol/clearinghouse/ClearingHouseArbitrum.sol:ClearingHouseArbitrum",
            "label": "vBase",
            "offset": 0,
            "slot": "3",
            "type": "t_contract(IVBase)7967"
          },
          {
            "astId": 8226,
            "contract": "contracts/protocol/clearinghouse/ClearingHouseArbitrum.sol:ClearingHouseArbitrum",
            "label": "liquidationParams",
            "offset": 0,
            "slot": "4",
            "type": "t_struct(LiquidationParams)8244_storage"
          },
          {
            "astId": 8228,
            "contract": "contracts/protocol/clearinghouse/ClearingHouseArbitrum.sol:ClearingHouseArbitrum",
            "label": "minRequiredMargin",
            "offset": 0,
            "slot": "5",
            "type": "t_uint256"
          },
          {
            "astId": 8230,
            "contract": "contracts/protocol/clearinghouse/ClearingHouseArbitrum.sol:ClearingHouseArbitrum",
            "label": "removeLimitOrderFee",
            "offset": 0,
            "slot": "6",
            "type": "t_uint256"
          },
          {
            "astId": 8232,
            "contract": "contracts/protocol/clearinghouse/ClearingHouseArbitrum.sol:ClearingHouseArbitrum",
            "label": "minimumOrderNotional",
            "offset": 0,
            "slot": "7",
            "type": "t_uint256"
          },
          {
            "astId": 8236,
            "contract": "contracts/protocol/clearinghouse/ClearingHouseArbitrum.sol:ClearingHouseArbitrum",
            "label": "_emptySlots",
            "offset": 0,
            "slot": "8",
            "type": "t_array(t_uint256)100_storage"
          }
        ],
        "numberOfBytes": "3456"
      },
      "t_struct(RToken)11933_storage": {
        "encoding": "inplace",
        "label": "struct RTokenLib.RToken",
        "members": [
          {
            "astId": 11928,
            "contract": "contracts/protocol/clearinghouse/ClearingHouseArbitrum.sol:ClearingHouseArbitrum",
            "label": "tokenAddress",
            "offset": 0,
            "slot": "0",
            "type": "t_address"
          },
          {
            "astId": 11930,
            "contract": "contracts/protocol/clearinghouse/ClearingHouseArbitrum.sol:ClearingHouseArbitrum",
            "label": "oracleAddress",
            "offset": 0,
            "slot": "1",
            "type": "t_address"
          },
          {
            "astId": 11932,
            "contract": "contracts/protocol/clearinghouse/ClearingHouseArbitrum.sol:ClearingHouseArbitrum",
            "label": "oracleTimeHorizon",
            "offset": 20,
            "slot": "1",
            "type": "t_uint32"
          }
        ],
        "numberOfBytes": "64"
      },
      "t_struct(RageTradePool)7604_storage": {
        "encoding": "inplace",
        "label": "struct IClearingHouse.RageTradePool",
        "members": [
          {
            "astId": 7597,
            "contract": "contracts/protocol/clearinghouse/ClearingHouseArbitrum.sol:ClearingHouseArbitrum",
            "label": "vPool",
            "offset": 0,
            "slot": "0",
            "type": "t_contract(IUniswapV3Pool)5097"
          },
          {
            "astId": 7600,
            "contract": "contracts/protocol/clearinghouse/ClearingHouseArbitrum.sol:ClearingHouseArbitrum",
            "label": "vPoolWrapper",
            "offset": 0,
            "slot": "1",
            "type": "t_contract(IVPoolWrapper)8097"
          },
          {
            "astId": 7603,
            "contract": "contracts/protocol/clearinghouse/ClearingHouseArbitrum.sol:ClearingHouseArbitrum",
            "label": "settings",
            "offset": 0,
            "slot": "2",
            "type": "t_struct(RageTradePoolSettings)7616_storage"
          }
        ],
        "numberOfBytes": "96"
      },
      "t_struct(RageTradePoolSettings)7616_storage": {
        "encoding": "inplace",
        "label": "struct IClearingHouse.RageTradePoolSettings",
        "members": [
          {
            "astId": 7606,
            "contract": "contracts/protocol/clearinghouse/ClearingHouseArbitrum.sol:ClearingHouseArbitrum",
            "label": "initialMarginRatio",
            "offset": 0,
            "slot": "0",
            "type": "t_uint16"
          },
          {
            "astId": 7608,
            "contract": "contracts/protocol/clearinghouse/ClearingHouseArbitrum.sol:ClearingHouseArbitrum",
            "label": "maintainanceMarginRatio",
            "offset": 2,
            "slot": "0",
            "type": "t_uint16"
          },
          {
            "astId": 7610,
            "contract": "contracts/protocol/clearinghouse/ClearingHouseArbitrum.sol:ClearingHouseArbitrum",
            "label": "twapDuration",
            "offset": 4,
            "slot": "0",
            "type": "t_uint32"
          },
          {
            "astId": 7612,
            "contract": "contracts/protocol/clearinghouse/ClearingHouseArbitrum.sol:ClearingHouseArbitrum",
            "label": "whitelisted",
            "offset": 8,
            "slot": "0",
            "type": "t_bool"
          },
          {
            "astId": 7615,
            "contract": "contracts/protocol/clearinghouse/ClearingHouseArbitrum.sol:ClearingHouseArbitrum",
            "label": "oracle",
            "offset": 9,
            "slot": "0",
            "type": "t_contract(IOracle)7943"
          }
        ],
        "numberOfBytes": "32"
      },
      "t_struct(Set)15604_storage": {
        "encoding": "inplace",
        "label": "struct VTokenPositionSet.Set",
        "members": [
          {
            "astId": 15590,
            "contract": "contracts/protocol/clearinghouse/ClearingHouseArbitrum.sol:ClearingHouseArbitrum",
            "label": "accountNo",
            "offset": 0,
            "slot": "0",
            "type": "t_uint256"
          },
          {
            "astId": 15594,
            "contract": "contracts/protocol/clearinghouse/ClearingHouseArbitrum.sol:ClearingHouseArbitrum",
            "label": "active",
            "offset": 0,
            "slot": "1",
            "type": "t_array(t_uint32)8_storage"
          },
          {
            "astId": 15599,
            "contract": "contracts/protocol/clearinghouse/ClearingHouseArbitrum.sol:ClearingHouseArbitrum",
            "label": "positions",
            "offset": 0,
            "slot": "2",
            "type": "t_mapping(t_uint32,t_struct(Position)15343_storage)"
          },
          {
            "astId": 15603,
            "contract": "contracts/protocol/clearinghouse/ClearingHouseArbitrum.sol:ClearingHouseArbitrum",
            "label": "_emptySlots",
            "offset": 0,
            "slot": "3",
            "type": "t_array(t_uint256)100_storage"
          }
        ],
        "numberOfBytes": "3296"
      },
      "t_struct(UserInfo)8204_storage": {
        "encoding": "inplace",
        "label": "struct Account.UserInfo",
        "members": [
          {
            "astId": 8193,
            "contract": "contracts/protocol/clearinghouse/ClearingHouseArbitrum.sol:ClearingHouseArbitrum",
            "label": "owner",
            "offset": 0,
            "slot": "0",
            "type": "t_address"
          },
          {
            "astId": 8196,
            "contract": "contracts/protocol/clearinghouse/ClearingHouseArbitrum.sol:ClearingHouseArbitrum",
            "label": "tokenPositions",
            "offset": 0,
            "slot": "1",
            "type": "t_struct(Set)15604_storage"
          },
          {
            "astId": 8199,
            "contract": "contracts/protocol/clearinghouse/ClearingHouseArbitrum.sol:ClearingHouseArbitrum",
            "label": "tokenDeposits",
            "offset": 0,
            "slot": "104",
            "type": "t_struct(Info)9630_storage"
          },
          {
            "astId": 8203,
            "contract": "contracts/protocol/clearinghouse/ClearingHouseArbitrum.sol:ClearingHouseArbitrum",
            "label": "_emptySlots",
            "offset": 0,
            "slot": "206",
            "type": "t_array(t_uint256)100_storage"
          }
        ],
        "numberOfBytes": "9792"
      },
      "t_uint128": {
        "encoding": "inplace",
        "label": "uint128",
        "numberOfBytes": "16"
      },
      "t_uint16": {
        "encoding": "inplace",
        "label": "uint16",
        "numberOfBytes": "2"
      },
      "t_uint256": {
        "encoding": "inplace",
        "label": "uint256",
        "numberOfBytes": "32"
      },
      "t_uint32": {
        "encoding": "inplace",
        "label": "uint32",
        "numberOfBytes": "4"
      },
      "t_uint48": {
        "encoding": "inplace",
        "label": "uint48",
        "numberOfBytes": "6"
      }
    }
  }
}