{
  "address": "0xb681f1BEdBAfd4dcdF5248ef310E58af3fe76963",
  "abi": [
    {
      "inputs": [
        {
          "internalType": "address",
          "name": "_aggregator",
          "type": "address"
        },
        {
          "internalType": "uint8",
          "name": "_vTokenDecimals",
          "type": "uint8"
        },
        {
          "internalType": "uint8",
          "name": "_vQuoteDecimals",
          "type": "uint8"
        }
      ],
      "stateMutability": "nonpayable",
      "type": "constructor"
    },
    {
      "inputs": [
        {
          "internalType": "address",
          "name": "aggregator",
          "type": "address"
        }
      ],
      "name": "IllegalAggregatorAddress",
      "type": "error"
    },
    {
      "inputs": [],
      "name": "NotEnoughHistory",
      "type": "error"
    },
    {
      "inputs": [],
      "name": "aggregator",
      "outputs": [
        {
          "internalType": "contract AggregatorV3Interface",
          "name": "",
          "type": "address"
        }
      ],
      "stateMutability": "view",
      "type": "function"
    },
    {
      "inputs": [
        {
          "internalType": "uint32",
          "name": "twapDuration",
          "type": "uint32"
        }
      ],
      "name": "getTwapPriceX128",
      "outputs": [
        {
          "internalType": "uint256",
          "name": "priceX128",
          "type": "uint256"
        }
      ],
      "stateMutability": "view",
      "type": "function"
    }
  ],
  "transactionHash": "0x840de1adc9ffe96cb464d0dcb580854fe6f28e86abbd2d35022aa9f9ae3bf050",
  "args": [
    "0x5f0423B1a6935dc5596e7A24d98532b67A0AeFd8",
    "18",
    "6"
  ],
  "numDeployments": 1,
  "solcInputHash": "97c2ac41bdbb1817cc5efce63d1431e3",
  "bytecode": "0x60c060405234801561001057600080fd5b506040516109df3803806109df83398101604081905261002f916100c5565b61004b836001600160a01b03166100a260201b6101931760201c565b156100705760405163091b998160e11b81526000600482015260240160405180910390fd5b600080546001600160a01b0319166001600160a01b03949094169390931790925560ff9081166080521660a052610116565b6001600160a01b03161590565b805160ff811681146100c057600080fd5b919050565b6000806000606084860312156100da57600080fd5b83516001600160a01b03811681146100f157600080fd5b92506100ff602085016100af565b915061010d604085016100af565b90509250925092565b60805160a0516108a561013a600039600060a70152600061015601526108a56000f3fe608060405234801561001057600080fd5b50600436106100365760003560e01c8063245a7bfc1461003b578063dd86c1011461006b575b600080fd5b60005461004e906001600160a01b031681565b6040516001600160a01b0390911681526020015b60405180910390f35b61007e6100793660046105f4565b61008c565b604051908152602001610062565b600061009d8263ffffffff166101a0565b905061018d6100cd7f0000000000000000000000000000000000000000000000000000000000000000600a610714565b6100db90600160801b610723565b60008054906101000a90046001600160a01b03166001600160a01b031663313ce5676040518163ffffffff1660e01b8152600401602060405180830381865afa15801561012c573d6000803e3d6000fd5b505050506040513d601f19601f820116820180604052508101906101509190610742565b61017a907f0000000000000000000000000000000000000000000000000000000000000000610765565b61018590600a610714565b8391906102da565b92915050565b6001600160a01b03161590565b6000806000806101ae61038e565b919450925090504260006101c2878361078a565b90508615806101d857506001600160501b038516155b806101e35750808311155b156101f357509195945050505050565b60006101ff848461078a565b9050600061020d8287610723565b905060008060008796505b6001600160501b038a1661024d57841561023b5761023685856107a1565b61023d565b885b9c9b505050505050505050505050565b61025860018b6107c3565b99506102638a61047d565b935091505085821161029457610279868861078a565b6102839082610723565b61028d90856107eb565b93506102ca565b61029e828861078a565b92506102aa8382610723565b6102b490856107eb565b93506102c083866107eb565b9450819650610218565b831561023b576102368c856107a1565b600080806000198587098587029250828110838203039150508060001415610314576000841161030957600080fd5b508290049050610387565b80841161032057600080fd5b6000848688096000868103871696879004966002600389028118808a02820302808a02820302808a02820302808a02820302808a02820302808a02909103029181900381900460010186841190950394909402919094039290920491909117919091029150505b9392505050565b60008060008060008060008054906101000a90046001600160a01b03166001600160a01b031663feaf968c6040518163ffffffff1660e01b815260040160a060405180830381865afa1580156103e8573d6000803e3d6000fd5b505050506040513d601f19601f8201168201806040525081019061040c919061081f565b509350509250925081945060008212801561042e57506001600160501b038316155b1561044c57604051639ee522a960e01b815260040160405180910390fd5b6000821215610471576104686104636001856107c3565b61047d565b90965090935090505b91959394509092915050565b60008054604051639a6fc8f560e01b81526001600160501b0384166004820152829182918291829182916001600160a01b031690639a6fc8f59060240160a060405180830381865afa1580156104d7573d6000803e3d6000fd5b505050506040513d601f19601f820116820180604052508101906104fb919061081f565b50935050925092505b60008212801561051d57506000836001600160501b0316115b156105b25761052d6001846107c3565b600054604051639a6fc8f560e01b81526001600160501b03831660048201529194506001600160a01b031690639a6fc8f59060240160a060405180830381865afa15801561057f573d6000803e3d6000fd5b505050506040513d601f19601f820116820180604052508101906105a3919061081f565b50919450909250610504915050565b6000821280156105c957506001600160501b038316155b156105e757604051639ee522a960e01b815260040160405180910390fd5b9196909550909350915050565b60006020828403121561060657600080fd5b813563ffffffff8116811461038757600080fd5b634e487b7160e01b600052601160045260246000fd5b600181815b8085111561066b5781600019048211156106515761065161061a565b8085161561065e57918102915b93841c9390800290610635565b509250929050565b6000826106825750600161018d565b8161068f5750600061018d565b81600181146106a557600281146106af576106cb565b600191505061018d565b60ff8411156106c0576106c061061a565b50506001821b61018d565b5060208310610133831016604e8410600b84101617156106ee575081810a61018d565b6106f88383610630565b806000190482111561070c5761070c61061a565b029392505050565b600061038760ff841683610673565b600081600019048311821515161561073d5761073d61061a565b500290565b60006020828403121561075457600080fd5b815160ff8116811461038757600080fd5b600060ff821660ff84168060ff038211156107825761078261061a565b019392505050565b60008282101561079c5761079c61061a565b500390565b6000826107be57634e487b7160e01b600052601260045260246000fd5b500490565b60006001600160501b03838116908316818110156107e3576107e361061a565b039392505050565b600082198211156107fe576107fe61061a565b500190565b80516001600160501b038116811461081a57600080fd5b919050565b600080600080600060a0868803121561083757600080fd5b61084086610803565b945060208601519350604086015192506060860151915061086360808701610803565b9050929550929590935056fea2646970667358221220a1235f6abddd48e6a6fc320433c4dbbc14632f70c86bf6132f80213801c47a5164736f6c634300080c0033",
  "userdoc": {
    "kind": "user",
    "methods": {},
    "version": 1
  },
  "storageLayout": {
    "storage": [
      {
        "astId": 18183,
        "contract": "contracts/oracles/ChainlinkOracle.sol:ChainlinkOracle",
        "label": "aggregator",
        "offset": 0,
        "slot": "0",
        "type": "t_contract(AggregatorV3Interface)292"
      }
    ],
    "types": {
      "t_contract(AggregatorV3Interface)292": {
        "encoding": "inplace",
        "label": "contract AggregatorV3Interface",
        "numberOfBytes": "20"
      }
    }
  }
}