{
  "address": "0xfFDC1a12C742571f96e09d4C83206d010a0eCd16",
  "abi": [
    {
      "inputs": [],
      "stateMutability": "nonpayable",
      "type": "constructor"
    },
    {
      "inputs": [
        {
          "internalType": "uint32",
          "name": "",
          "type": "uint32"
        }
      ],
      "name": "getTwapSqrtPriceX96",
      "outputs": [
        {
          "internalType": "uint160",
          "name": "sqrtPriceX96",
          "type": "uint160"
        }
      ],
      "stateMutability": "view",
      "type": "function"
    },
    {
      "inputs": [
        {
          "internalType": "uint160",
          "name": "sqrtPriceX96",
          "type": "uint160"
        }
      ],
      "name": "setSqrtPrice",
      "outputs": [],
      "stateMutability": "nonpayable",
      "type": "function"
    }
  ],
  "transactionHash": "0xc67dc04449e1a31336fd676156fb06f5cc68c7e0771cb5ecfc1aa1e8730d40e7",
  "args": [],
  "solcInputHash": "564946ab84237c8e407364fff8751999",
  "bytecode": "0x608060405234801561001057600080fd5b50600080546001600160a01b0319166c0100000000000000000000000017905560fc8061003e6000396000f3fe6080604052348015600f57600080fd5b506004361060325760003560e01c806372b6bb3814603757806382a2423e14606e575b600080fd5b60526042366004609d565b506000546001600160a01b031690565b6040516001600160a01b03909116815260200160405180910390f35b609b607936600460c8565b600080546001600160a01b0319166001600160a01b0392909216919091179055565b005b60006020828403121560ae57600080fd5b813563ffffffff8116811460c157600080fd5b9392505050565b60006020828403121560d957600080fd5b81356001600160a01b038116811460c157600080fdfea164736f6c634300080a000a",
  "userdoc": {
    "kind": "user",
    "methods": {},
    "version": 1
  },
  "storageLayout": {
    "storage": [
      {
        "astId": 25324,
        "contract": "contracts/test/mocks/OracleMock.sol:OracleMock",
        "label": "_sqrtPriceX96",
        "offset": 0,
        "slot": "0",
        "type": "t_uint160"
      }
    ],
    "types": {
      "t_uint160": {
        "encoding": "inplace",
        "label": "uint160",
        "numberOfBytes": "20"
      }
    }
  }
}