{
  "address": "0x4aA9Cd18f20E28bBAEA141B939Eb24d17435082b",
  "abi": [
    {
      "inputs": [
        {
          "internalType": "contract IClearingHouse",
          "name": "clearingHouse",
          "type": "address"
        },
        {
          "internalType": "contract IVToken",
          "name": "vToken",
          "type": "address"
        },
        {
          "internalType": "int256",
          "name": "amount",
          "type": "int256"
        },
        {
          "internalType": "uint160",
          "name": "sqrtPriceLimitX96",
          "type": "uint160"
        },
        {
          "internalType": "bool",
          "name": "isNotional",
          "type": "bool"
        }
      ],
      "name": "simulateSwap",
      "outputs": [
        {
          "components": [
            {
              "internalType": "int256",
              "name": "amountSpecified",
              "type": "int256"
            },
            {
              "internalType": "int256",
              "name": "vTokenIn",
              "type": "int256"
            },
            {
              "internalType": "int256",
              "name": "vBaseIn",
              "type": "int256"
            },
            {
              "internalType": "uint256",
              "name": "liquidityFees",
              "type": "uint256"
            },
            {
              "internalType": "uint256",
              "name": "protocolFees",
              "type": "uint256"
            }
          ],
          "internalType": "struct IClearingHouse.SwapValues",
          "name": "swapValues",
          "type": "tuple"
        },
        {
          "internalType": "uint160",
          "name": "sqrtPriceX96End",
          "type": "uint160"
        },
        {
          "components": [
            {
              "internalType": "uint160",
              "name": "sqrtPriceX96Start",
              "type": "uint160"
            },
            {
              "internalType": "int24",
              "name": "tickStart",
              "type": "int24"
            },
            {
              "internalType": "uint8",
              "name": "feeProtocol",
              "type": "uint8"
            },
            {
              "internalType": "uint128",
              "name": "liquidityStart",
              "type": "uint128"
            },
            {
              "internalType": "int24",
              "name": "tickSpacing",
              "type": "int24"
            },
            {
              "internalType": "uint24",
              "name": "fee",
              "type": "uint24"
            }
          ],
          "internalType": "struct SimulateSwap.SwapCache",
          "name": "cache",
          "type": "tuple"
        },
        {
          "components": [
            {
              "components": [
                {
                  "internalType": "int256",
                  "name": "amountSpecifiedRemaining",
                  "type": "int256"
                },
                {
                  "internalType": "int256",
                  "name": "amountCalculated",
                  "type": "int256"
                },
                {
                  "internalType": "uint160",
                  "name": "sqrtPriceX96",
                  "type": "uint160"
                },
                {
                  "internalType": "int24",
                  "name": "tick",
                  "type": "int24"
                },
                {
                  "internalType": "uint256",
                  "name": "feeGrowthGlobalIncreaseX128",
                  "type": "uint256"
                },
                {
                  "internalType": "uint128",
                  "name": "protocolFee",
                  "type": "uint128"
                },
                {
                  "internalType": "uint128",
                  "name": "liquidity",
                  "type": "uint128"
                }
              ],
              "internalType": "struct SimulateSwap.SwapState",
              "name": "state",
              "type": "tuple"
            },
            {
              "components": [
                {
                  "internalType": "uint160",
                  "name": "sqrtPriceStartX96",
                  "type": "uint160"
                },
                {
                  "internalType": "int24",
                  "name": "tickNext",
                  "type": "int24"
                },
                {
                  "internalType": "bool",
                  "name": "initialized",
                  "type": "bool"
                },
                {
                  "internalType": "uint160",
                  "name": "sqrtPriceNextX96",
                  "type": "uint160"
                },
                {
                  "internalType": "uint256",
                  "name": "amountIn",
                  "type": "uint256"
                },
                {
                  "internalType": "uint256",
                  "name": "amountOut",
                  "type": "uint256"
                },
                {
                  "internalType": "uint256",
                  "name": "feeAmount",
                  "type": "uint256"
                }
              ],
              "internalType": "struct SimulateSwap.StepComputations",
              "name": "step",
              "type": "tuple"
            }
          ],
          "internalType": "struct SwapSimulator.SwapStep[]",
          "name": "steps",
          "type": "tuple[]"
        }
      ],
      "stateMutability": "nonpayable",
      "type": "function"
    }
  ],
  "transactionHash": "0xc241421e104802972c6387bd5673879cf03842472a89d8fc8bbd348832a0c199",
  "args": [],
  "solcInputHash": "b9307d9a933a79a927fbc33bfdceb844",
  "bytecode": "0x608060405234801561001057600080fd5b506130e8806100206000396000f3fe608060405234801561001057600080fd5b506004361061002b5760003560e01c80635d067ccd14610030575b600080fd5b61004361003e366004612728565b61005c565b6040516100539493929190612889565b60405180910390f35b61008e6040518060a0016040528060008152602001600081526020016000815260200160008152602001600081525090565b6040805160c081018252600080825260208201819052918101829052606081018290526080810182905260a0810182905260606100e8898960008a12886100dd576100d88b612949565b6100df565b8a5b8a6103ae6106b9565b6040805160c081018252600080546001600160a01b0381168352600160a01b8104600290810b602080860191909152600160b81b90920460ff16848601526001546001600160801b0381166060860152600160801b8104820b6080860152600160981b900462ffffff1660a085015280548551818402810184019096528086529599509296509293919284015b8282101561034b57838290600052602060002090600a0201604051806040016040529081600082016040518060e001604052908160008201548152602001600182015481526020016002820160009054906101000a90046001600160a01b03166001600160a01b03166001600160a01b031681526020016002820160149054906101000a900460020b60020b60020b8152602001600382015481526020016004820160009054906101000a90046001600160801b03166001600160801b03166001600160801b031681526020016004820160109054906101000a90046001600160801b03166001600160801b03166001600160801b0316815250508152602001600582016040518060e00160405290816000820160009054906101000a90046001600160a01b03166001600160a01b03166001600160a01b031681526020016000820160149054906101000a900460020b60020b60020b81526020016000820160179054906101000a900460ff161515151581526020016001820160009054906101000a90046001600160a01b03166001600160a01b03166001600160a01b0316815260200160028201548152602001600382015481526020016004820154815250508152505081526020019060010190610175565b5050600354600080546001600160c01b0319168155600180546001600160b01b03191690556001600160a01b03909116965092935061038f92600292509050612669565b600380546001600160a01b031916905592989197509550909350915050565b826000808201518160000160006101000a8154816001600160a01b0302191690836001600160a01b0316021790555060208201518160000160146101000a81548162ffffff021916908360020b62ffffff16021790555060408201518160000160176101000a81548160ff021916908360ff16021790555060608201518160010160006101000a8154816001600160801b0302191690836001600160801b0316021790555060808201518160010160106101000a81548162ffffff021916908360020b62ffffff16021790555060a08201518160010160136101000a81548162ffffff021916908362ffffff160217905550905050600260405180604001604052808481526020018381525090806001815401808255809150506001900390600052602060002090600a0201600090919091909150600082015181600001600082015181600001556020820151816001015560408201518160020160006101000a8154816001600160a01b0302191690836001600160a01b0316021790555060608201518160020160146101000a81548162ffffff021916908360020b62ffffff1602179055506080820151816003015560a08201518160040160006101000a8154816001600160801b0302191690836001600160801b0316021790555060c08201518160040160106101000a8154816001600160801b0302191690836001600160801b03160217905550505060208201518160050160008201518160000160006101000a8154816001600160a01b0302191690836001600160a01b0316021790555060208201518160000160146101000a81548162ffffff021916908360020b62ffffff16021790555060408201518160000160176101000a81548160ff02191690831515021790555060608201518160010160006101000a8154816001600160a01b0302191690836001600160a01b031602179055506080820151816002015560a0820151816003015560c08201518160040155505050508160400151600360006101000a8154816001600160a01b0302191690836001600160a01b0316021790555050505050565b6106eb6040518060a0016040528060008152602001600081526020016000815260200160008152602001600081525090565b8381526040516329018f6f60e21b81526001600160a01b0387811660048301526000919089169063a4063dbc9060240160e060405180830381865afa158015610738573d6000803e3d6000fd5b505050506040513d601f19601f8201168201806040525081019061075c91906129f4565b905060008512156001600160a01b0385166107ad578661079a57610795600173fffd8963efd1fc6a506488495d951d5263988d26612ab0565b6107aa565b6107aa6401000276a36001612ad8565b94505b600080600084600001516001600160a01b031663ddca3f436040518163ffffffff1660e01b8152600401602060405180830381865afa1580156107f4573d6000803e3d6000fd5b505050506040513d601f19601f820116820180604052508101906108189190612b03565b85602001516001600160a01b03166386c8e9a76040518163ffffffff1660e01b8152600401602060405180830381865afa15801561085a573d6000803e3d6000fd5b505050506040513d601f19601f8201168201806040525081019061087e9190612b03565b86602001516001600160a01b031663fca6fbf26040518163ffffffff1660e01b8152600401602060405180830381865afa1580156108c0573d6000803e3d6000fd5b505050506040513d601f19601f820116820180604052508101906108e49190612b03565b9250925092506108f8848b8585858b610937565b8451610910906001600160a01b03168b8b8b8b6109e2565b60408801526020870152610928848b8585858b610a62565b50505050509695505050505050565b851561099857841561095657805161094f9085610b72565b81526109da565b80516109659060028585610bbd565b6080830181905260608301829052825161098b92909161098491612b28565b6001610cea565b80825261094f9085610b72565b846109a2576109da565b80516109b19060018585610bbd565b608083018190526060830182905282516109d79290916109d091612b28565b6000610cea565b81525b505050505050565b600080610a54878787878b6001600160a01b031663ddca3f436040518163ffffffff1660e01b8152600401602060405180830381865afa158015610a2a573d6000803e3d6000fd5b505050506040513d601f19601f82011682018060405250810190610a4e9190612b03565b88610d2f565b915091509550959350505050565b8515610aec578415610abf57610a7c816020015185611458565b60208201526040810151610a939060008585610bbd565b60808301819052606083018290526040830151610ab592909161098491612b28565b60408201526109da565b610acd816040015185611458565b6040820181905260808201516060830151610ab592916109d091612b28565b84610b3557610aff816040015185611458565b60408201819052610b139060008585610bbd565b60808301819052606083018290526040830151610ab59290916109d091612b28565b610b43816020015185611458565b6020820152604081015160808201516060830151610b65929161098491612b28565b6040820152505050505050565b600080610b8283620f4240612b40565b60020b610b9462ffffff851686612b5c565b610b9e9190612bf7565b610ba9906001612c25565b9050610bb58185612c25565b949350505050565b6000806000610bcb8761147f565b90506001866002811115610be157610be1612c66565b1415610c225783610bf586620f4240612b40565b610bff9190612b40565b62ffffff16610c1182620f4240612c7c565b610c1b9190612c9b565b9050610c73565b6002866002811115610c3657610c36612c66565b1415610c735783610c4a86620f4240612caf565b610c549190612caf565b62ffffff16610c6682620f4240612c7c565b610c709190612c9b565b90505b6000620f4240610c838688612caf565b610c929062ffffff1684612c7c565b610c9c9190612c9b565b610ca7906001612b28565b9050620f4240610cbc62ffffff881684612c7c565b610cc69190612c9b565b610cd1906001612b28565b9350610cdd8482612ccd565b9250505094509492505050565b600080826001811115610cff57610cff612c66565b14600085131415610d1b57610d148385612c25565b9050610d28565b610d258385612ce4565b90505b9392505050565b60008085610d695760405162461bcd60e51b8152602060048201526002602482015261415360f01b60448201526064015b60405180910390fd5b6040805160c081018252600080825260208201819052918101829052606081018290526080810182905260a0810191909152886001600160a01b0316633850c7bd6040518163ffffffff1660e01b815260040160e060405180830381865afa158015610dd9573d6000803e3d6000fd5b505050506040513d601f19601f82011682018060405250810190610dfd9190612d35565b5060ff1660408088019190915260029490940b6020808801919091526001600160a01b0395861687528451630d34328160e11b81529451958f1695631a68650295600480820196509294509092508290030181865afa158015610e64573d6000803e3d6000fd5b505050506040513d601f19601f82011682018060405250810190610e889190612de1565b6001600160801b03166060820152604080516334324e9f60e21b815290516001600160a01b038b169163d0c93a7c9160048083019260209291908290030181865afa158015610edb573d6000803e3d6000fd5b505050506040513d601f19601f82011682018060405250810190610eff9190612dfc565b60020b608082015262ffffff851660a082015287610f5d5780600001516001600160a01b0316866001600160a01b0316118015610f58575073fffd8963efd1fc6a506488495d951d5263988d266001600160a01b038716105b610f8f565b80600001516001600160a01b0316866001600160a01b0316108015610f8f57506401000276a36001600160a01b038716115b610fc15760405162461bcd60e51b815260206004820152600360248201526214d41360ea1b6044820152606401610d60565b6000808813905060006040518060e001604052808a81526020016000815260200184600001516001600160a01b03168152602001846020015160020b81526020016000815260200160006001600160801b0316815260200184606001516001600160801b031681525090505b8051158015906110535750876001600160a01b031681604001516001600160a01b031614155b15611413576040805160e081018252600080825260208201819052918101829052606081018290526080810182905260a0810182905260c081019190915260408201516001600160a01b039081168252606083015160808601516110c0928f1691635339c296918f61149e565b1515604083015260020b60208201819052620d89e71913156110eb57620d89e719602082015261111f565b6110f8620d89e719612e17565b60020b816020015160020b131561111f57611116620d89e719612e17565b60020b60208201525b61112c816020015161170a565b6001600160a01b0316606082015260408201516111a1908c611166578a6001600160a01b031683606001516001600160a01b031611611180565b8a6001600160a01b031683606001516001600160a01b0316105b61118e578260600151611190565b8a5b60c0850151855160a0890151611a3d565b60c085015260a084015260808301526001600160a01b031660408301528215611219576111e08160c0015182608001516111db9190612b28565b611c2f565b825183906111ef908390612ce4565b90525060a081015161120090611c2f565b826020015161120f9190612ce4565b6020830152611264565b6112268160a00151611c2f565b82518390611235908390612c25565b90525060c0810151608082015161124f916111db91612b28565b826020015161125e9190612c25565b60208301525b60c08201516001600160801b0316156112ac576112978160c00151600160801b8460c001516001600160801b0316611c41565b826080018181516112a89190612b28565b9052505b63ffffffff611cef8116908816146112ce576112ce8b8584848b63ffffffff16565b80606001516001600160a01b031682604001516001600160a01b031614156113d6578060400151156113a957602081015160405163f30dba9360e01b815260029190910b60048201526000906001600160a01b038e169063f30dba939060240161010060405180830381865afa15801561134c573d6000803e3d6000fd5b505050506040513d601f19601f820116820180604052508101906113709190612e3a565b5050505050509150508b1561138b5761138881612edc565b90505b6113998360c0015182611cf5565b6001600160801b031660c0840152505b8a6113b85780602001516113c9565b600181602001516113c99190612f03565b60020b606083015261140d565b80600001516001600160a01b031682604001516001600160a01b03161461140d576114048260400151611d92565b60020b60608301525b5061102d565b8115158a151514611434576020810151815161142f908b612ce4565b611446565b8051611440908a612ce4565b81602001515b94509450505050965096945050505050565b6000620f42406114688382612b40565b6114759060020b85612b5c565b610d289190612bf7565b60008082136114965761149182612949565b611498565b815b92915050565b600080806114ac8587612f4b565b905060008660020b1280156114cc57506114c68587612f85565b60020b15155b156114df57806114db81612fa7565b9150505b83156115e4576000806114f1836120ab565b90925090506000600160ff831681901b9061150c9082612ccd565b6115169190612b28565b90506000818c8c866040518263ffffffff1660e01b8152600401611543919060019190910b815260200190565b602060405180830381865afa158015611560573d6000803e3d6000fd5b505050506040513d601f19601f820116820180604052508101906115849190612fcb565b1680151596509050856115ae578861159f60ff851687612f03565b6115a99190612fe4565b6115d9565b886115b8826120c8565b6115c29085613071565b6115cf9060ff1687612f03565b6115d99190612fe4565b9650505050506116ff565b6000806115fa6115f5846001613094565b6120ab565b90925090506000611612600160ff841681901b612ccd565b1990506000818c8c866040518263ffffffff1660e01b8152600401611640919060019190910b815260200190565b602060405180830381865afa15801561165d573d6000803e3d6000fd5b505050506040513d601f19601f820116820180604052508101906116819190612fcb565b1680151596509050856116c1578861169a8460ff613071565b60ff166116a8876001613094565b6116b29190613094565b6116bc9190612fe4565b6116f8565b88836116cc83612169565b6116d69190613071565b60ff166116e4876001613094565b6116ee9190613094565b6116f89190612fe4565b9650505050505b509550959350505050565b60008060008360020b12611721578260020b611729565b8260020b6000035b9050620d89e88111156117625760405162461bcd60e51b81526020600482015260016024820152601560fa1b6044820152606401610d60565b60006001821661177657600160801b611788565b6ffffcb933bd6fad37aa2d162d1a5940015b70ffffffffffffffffffffffffffffffffff16905060028216156117bc576ffff97272373d413259a46990580e213a0260801c5b60048216156117db576ffff2e50f5f656932ef12357cf3c7fdcc0260801c5b60088216156117fa576fffe5caca7e10e4e61c3624eaa0941cd00260801c5b6010821615611819576fffcb9843d60f6159c9db58835c9266440260801c5b6020821615611838576fff973b41fa98c081472e6896dfb254c00260801c5b6040821615611857576fff2ea16466c96a3843ec78b326b528610260801c5b6080821615611876576ffe5dee046a99a2a811c461f1969c30530260801c5b610100821615611896576ffcbe86c7900a88aedcffc83b479aa3a40260801c5b6102008216156118b6576ff987a7253ac413176f2b074cf7815e540260801c5b6104008216156118d6576ff3392b0822b70005940c7a398e4b70f30260801c5b6108008216156118f6576fe7159475a2c29b7443b29c7fa6e889d90260801c5b611000821615611916576fd097f3bdfd2022b8845ad8f792aa58250260801c5b612000821615611936576fa9f746462d870fdf8a65dc1f90e061e50260801c5b614000821615611956576f70d869a156d2a1b890bb3df62baf32f70260801c5b618000821615611976576f31be135f97d08fd981231505542fcfa60260801c5b62010000821615611997576f09aa508b5b7a84e1c677de54f3e99bc90260801c5b620200008216156119b7576e5d6af8dedb81196699c329225ee6040260801c5b620400008216156119d6576d2216e584f5fa1ea926041bedfe980260801c5b620800008216156119f3576b048a170391f7dc42444e8fa20260801c5b60008460020b1315611a14578060001981611a1057611a10612be1565b0490505b640100000000810615611a28576001611a2b565b60005b60ff16602082901c0192505050919050565b60008080806001600160a01b03808916908a161015818712801590611ac2576000611a768989620f42400362ffffff16620f4240611c41565b905082611a8f57611a8a8c8c8c6001612253565b611a9c565b611a9c8b8d8c60016122cc565b9550858110611aad578a9650611abc565b611ab98c8b8386612383565b96505b50611b0c565b81611ad957611ad48b8b8b60006122cc565b611ae6565b611ae68a8c8b6000612253565b9350838860000310611afa57899550611b0c565b611b098b8a8a600003856123cf565b95505b6001600160a01b038a8116908716148215611b6f57808015611b2b5750815b611b4157611b3c878d8c60016122cc565b611b43565b855b9550808015611b50575081155b611b6657611b61878d8c6000612253565b611b68565b845b9450611bb9565b808015611b795750815b611b8f57611b8a8c888c6001612253565b611b91565b855b9550808015611b9e575081155b611bb457611baf8c888c60006122cc565b611bb6565b845b94505b81158015611bc957508860000385115b15611bd5578860000394505b818015611bf457508a6001600160a01b0316876001600160a01b031614155b15611c03578589039350611c20565b611c1d868962ffffff168a620f42400362ffffff1661241b565b93505b50505095509550955095915050565b6000600160ff1b821061149657600080fd5b600080806000198587098587029250828110838203039150508060001415611c7b5760008411611c7057600080fd5b508290049050610d28565b808411611c8757600080fd5b600084868809851960019081018716968790046003810260029081188083028203028083028203028083028203028083028203028083028203029182029003026000889003889004909101858311909403939093029303949094049190911702949350505050565b50505050565b60008082600f0b1215611d4657508082016001600160801b03808416908216106114915760405162461bcd60e51b81526020600482015260026024820152614c5360f01b6044820152606401610d60565b826001600160801b03168284019150816001600160801b031610156114985760405162461bcd60e51b81526020600482015260026024820152614c4160f01b6044820152606401610d60565b60006401000276a36001600160a01b03831610801590611dce575073fffd8963efd1fc6a506488495d951d5263988d266001600160a01b038316105b611dfe5760405162461bcd60e51b81526020600482015260016024820152602960f91b6044820152606401610d60565b640100000000600160c01b03602083901b166001600160801b03811160071b81811c67ffffffffffffffff811160061b90811c63ffffffff811160051b90811c61ffff811160041b90811c60ff8111600390811b91821c600f811160021b90811c918211600190811b92831c97908811961790941790921717909117171760808110611e9257607f810383901c9150611e9c565b80607f0383901b91505b908002607f81811c60ff83811c9190911c800280831c81831c1c800280841c81841c1c800280851c81851c1c800280861c81861c1c800280871c81871c1c800280881c81881c1c800280891c81891c1c8002808a1c818a1c1c8002808b1c818b1c1c8002808c1c818c1c1c8002808d1c818d1c1c8002808e1c9c81901c9c909c1c80029c8d901c9e9d607f198f0160401b60c09190911c678000000000000000161760c19b909b1c674000000000000000169a909a1760c29990991c672000000000000000169890981760c39790971c671000000000000000169690961760c49590951c670800000000000000169490941760c59390931c670400000000000000169290921760c69190911c670200000000000000161760c79190911c670100000000000000161760c89190911c6680000000000000161760c99190911c6640000000000000161760ca9190911c6620000000000000161760cb9190911c6610000000000000161760cc9190911c6608000000000000161760cd9190911c66040000000000001617693627a301d71055774c8581026f028f6481ab7f045a5af012a19d003aa9198101608090811d906fdb2df09e81959a81455e260799a0632f8301901d600281810b9083900b1461209c57886001600160a01b03166120818261170a565b6001600160a01b03161115612096578161209e565b8061209e565b815b9998505050505050505050565b600281900b60081d60006120c161010084612f85565b9050915091565b60008082116120d657600080fd5b600160801b82106120e957608091821c91015b68010000000000000000821061210157604091821c91015b640100000000821061211557602091821c91015b62010000821061212757601091821c91015b610100821061213857600891821c91015b6010821061214857600491821c91015b6004821061215857600291821c91015b60028210612164576001015b919050565b600080821161217757600080fd5b5060ff6001600160801b0382161561219257607f190161219a565b608082901c91505b67ffffffffffffffff8216156121b357603f19016121bb565b604082901c91505b63ffffffff8216156121d057601f19016121d8565b602082901c91505b61ffff8216156121eb57600f19016121f3565b601082901c91505b60ff821615612205576007190161220d565b600882901c91505b600f82161561221f5760031901612227565b600482901c91505b60038216156122395760011901612241565b600282901c91505b60018216156121645760001901919050565b6000836001600160a01b0316856001600160a01b03161115612273579293925b816122a05761229b836001600160801b03168686036001600160a01b0316600160601b611c41565b6122c3565b6122c3836001600160801b03168686036001600160a01b0316600160601b61241b565b95945050505050565b6000836001600160a01b0316856001600160a01b031611156122ec579293925b600160601b600160e01b03606084901b166001600160a01b03868603811690871661231657600080fd5b8361234c57866001600160a01b03166123398383896001600160a01b0316611c41565b8161234657612346612be1565b04612378565b6123786123638383896001600160a01b031661241b565b886001600160a01b0316808204910615150190565b979650505050505050565b600080856001600160a01b03161161239a57600080fd5b6000846001600160801b0316116123b057600080fd5b816123c25761229b858585600161245b565b6122c38585856001612548565b600080856001600160a01b0316116123e657600080fd5b6000846001600160801b0316116123fc57600080fd5b8161240e5761229b8585856000612548565b6122c3858585600061245b565b6000612428848484611c41565b90506000828061243a5761243a612be1565b8486091115610d2857600019811061245157600080fd5b6001019392505050565b600081156124d45760006001600160a01b038411156124915761248c84600160601b876001600160801b0316611c41565b6124af565b6001600160801b038516606085901b816124ad576124ad612be1565b045b90506124cc6124c76001600160a01b03881683612643565b612653565b915050610bb5565b60006001600160a01b03841115612502576124fd84600160601b876001600160801b031661241b565b61251f565b61251f606085901b6001600160801b038716808204910615150190565b905080866001600160a01b03161161253657600080fd5b6001600160a01b038616039050610bb5565b600082612556575083610bb5565b600160601b600160e01b03606085901b1682156125f6576001600160a01b0386168481029085828161258a5761258a612be1565b0414156125bb578181018281106125b9576125af83896001600160a01b03168361241b565b9350505050610bb5565b505b6125ed826125e2878a6001600160a01b031686816125db576125db612be1565b0490612643565b808204910615150190565b92505050610bb5565b6001600160a01b0386168481029085828161261357612613612be1565b0414801561262057508082115b61262957600080fd5b8082036125af6124c7846001600160a01b038b168461241b565b8082018281101561149857600080fd5b806001600160a01b038116811461216457600080fd5b50805460008255600a029060005260206000209081019061268a919061268d565b50565b5b80821115612701576000808255600182018190556002820180546001600160b81b031916905560038201819055600482018190556005820180546001600160c01b03191690556006820180546001600160a01b031916905560078201819055600882018190556009820155600a0161268e565b5090565b6001600160a01b038116811461268a57600080fd5b801515811461268a57600080fd5b600080600080600060a0868803121561274057600080fd5b853561274b81612705565b9450602086013561275b81612705565b935060408601359250606086013561277281612705565b915060808601356127828161271a565b809150509295509295909350565b600081518084526020808501945080840160005b8381101561287e57815180518051895284810151858a01526040808201516001600160a01b0316908a015260608082015160020b908a0152608080820151908a015260a0808201516001600160801b03908116918b019190915260c091820151169089015283015161286960e089018260018060a01b03808251168352602082015160020b6020840152604082015115156040840152806060830151166060840152506080810151608083015260a081015160a083015260c081015160c08301525050565b506101c09690960195908201906001016127a4565b509495945050505050565b60006101a0865183526020870151602084015260408701516040840152606087015160608401526080870151608084015260018060a01b0380871660a08501528086511660c085015250602085015160020b60e084015260ff6040860151166101008401526001600160801b03606086015116610120840152608085015160020b61014084015262ffffff60a0860151166101608401528061018084015261237881840185612790565b634e487b7160e01b600052601160045260246000fd5b6000600160ff1b82141561295f5761295f612933565b5060000390565b6040516060810167ffffffffffffffff8111828210171561299757634e487b7160e01b600052604160045260246000fd5b60405290565b60405160a0810167ffffffffffffffff8111828210171561299757634e487b7160e01b600052604160045260246000fd5b805161ffff8116811461216457600080fd5b805163ffffffff8116811461216457600080fd5b600081830360e0811215612a0757600080fd5b612a0f612966565b8351612a1a81612705565b81526020840151612a2a81612705565b602082015260a0603f1983011215612a4157600080fd5b612a4961299d565b9150612a57604085016129ce565b8252612a65606085016129ce565b6020830152612a76608085016129e0565b604083015260a0840151612a898161271a565b606083015260c0840151612a9c81612705565b608083015260408101919091529392505050565b60006001600160a01b0383811690831681811015612ad057612ad0612933565b039392505050565b60006001600160a01b03828116848216808303821115612afa57612afa612933565b01949350505050565b600060208284031215612b1557600080fd5b815162ffffff81168114610d2857600080fd5b60008219821115612b3b57612b3b612933565b500190565b600062ffffff83811690831681811015612ad057612ad0612933565b60006001600160ff1b0381841382841380821686840486111615612b8257612b82612933565b600160ff1b6000871282811687830589121615612ba157612ba1612933565b60008712925087820587128484161615612bbd57612bbd612933565b87850587128184161615612bd357612bd3612933565b505050929093029392505050565b634e487b7160e01b600052601260045260246000fd5b600082612c0657612c06612be1565b600160ff1b821460001984141615612c2057612c20612933565b500590565b600080821280156001600160ff1b0384900385131615612c4757612c47612933565b600160ff1b8390038412811615612c6057612c60612933565b50500190565b634e487b7160e01b600052602160045260246000fd5b6000816000190483118215151615612c9657612c96612933565b500290565b600082612caa57612caa612be1565b500490565b600062ffffff808316818516808303821115612afa57612afa612933565b600082821015612cdf57612cdf612933565b500390565b60008083128015600160ff1b850184121615612d0257612d02612933565b6001600160ff1b0384018313811615612d1d57612d1d612933565b50500390565b8051600281900b811461216457600080fd5b600080600080600080600060e0888a031215612d5057600080fd5b8751612d5b81612705565b9650612d6960208901612d23565b9550612d77604089016129ce565b9450612d85606089016129ce565b9350612d93608089016129ce565b925060a088015160ff81168114612da957600080fd5b60c0890151909250612dba8161271a565b8091505092959891949750929550565b80516001600160801b038116811461216457600080fd5b600060208284031215612df357600080fd5b610d2882612dca565b600060208284031215612e0e57600080fd5b610d2882612d23565b60008160020b627fffff19811415612e3157612e31612933565b60000392915050565b600080600080600080600080610100898b031215612e5757600080fd5b612e6089612dca565b9750602089015180600f0b8114612e7657600080fd5b80975050604089015195506060890151945060808901518060060b8114612e9c57600080fd5b60a08a0151909450612ead81612705565b9250612ebb60c08a016129e0565b915060e0890151612ecb8161271a565b809150509295985092959890939650565b600081600f0b6f7fffffffffffffffffffffffffffffff19811415612e3157612e31612933565b60008160020b8360020b6000811281627fffff1901831281151615612f2a57612f2a612933565b81627fffff018313811615612f4157612f41612933565b5090039392505050565b60008160020b8360020b80612f6257612f62612be1565b627fffff19821460001982141615612f7c57612f7c612933565b90059392505050565b60008260020b80612f9857612f98612be1565b808360020b0791505092915050565b60008160020b627fffff19811415612fc157612fc1612933565b6000190192915050565b600060208284031215612fdd57600080fd5b5051919050565b60008160020b8360020b627fffff60008213600084138383048511828216161561301057613010612933565b627fffff19600085128281168783058712161561302f5761302f612933565b6000871292508582058712848416161561304b5761304b612933565b8585058712818416161561306157613061612933565b5050509290910295945050505050565b600060ff821660ff84168082101561308b5761308b612933565b90039392505050565b60008160020b8360020b6000821282627fffff038213811516156130ba576130ba612933565b82627fffff190382128116156130d2576130d2612933565b5001939250505056fea164736f6c634300080a000a",
  "userdoc": {
    "kind": "user",
    "methods": {},
    "version": 1
  },
  "storageLayout": {
    "storage": [
      {
        "astId": 27096,
        "contract": "contracts/utils/SwapSimulator.sol:SwapSimulator",
        "label": "_cache",
        "offset": 0,
        "slot": "0",
        "type": "t_struct(SwapCache)12814_storage"
      },
      {
        "astId": 27100,
        "contract": "contracts/utils/SwapSimulator.sol:SwapSimulator",
        "label": "_steps",
        "offset": 0,
        "slot": "2",
        "type": "t_array(t_struct(SwapStep)27027_storage)dyn_storage"
      },
      {
        "astId": 27102,
        "contract": "contracts/utils/SwapSimulator.sol:SwapSimulator",
        "label": "_sqrtPriceX96End",
        "offset": 0,
        "slot": "3",
        "type": "t_uint160"
      }
    ],
    "types": {
      "t_array(t_struct(SwapStep)27027_storage)dyn_storage": {
        "base": "t_struct(SwapStep)27027_storage",
        "encoding": "dynamic_array",
        "label": "struct SwapSimulator.SwapStep[]",
        "numberOfBytes": "32"
      },
      "t_bool": {
        "encoding": "inplace",
        "label": "bool",
        "numberOfBytes": "1"
      },
      "t_int24": {
        "encoding": "inplace",
        "label": "int24",
        "numberOfBytes": "3"
      },
      "t_int256": {
        "encoding": "inplace",
        "label": "int256",
        "numberOfBytes": "32"
      },
      "t_struct(StepComputations)12844_storage": {
        "encoding": "inplace",
        "label": "struct SimulateSwap.StepComputations",
        "members": [
          {
            "astId": 12831,
            "contract": "contracts/utils/SwapSimulator.sol:SwapSimulator",
            "label": "sqrtPriceStartX96",
            "offset": 0,
            "slot": "0",
            "type": "t_uint160"
          },
          {
            "astId": 12833,
            "contract": "contracts/utils/SwapSimulator.sol:SwapSimulator",
            "label": "tickNext",
            "offset": 20,
            "slot": "0",
            "type": "t_int24"
          },
          {
            "astId": 12835,
            "contract": "contracts/utils/SwapSimulator.sol:SwapSimulator",
            "label": "initialized",
            "offset": 23,
            "slot": "0",
            "type": "t_bool"
          },
          {
            "astId": 12837,
            "contract": "contracts/utils/SwapSimulator.sol:SwapSimulator",
            "label": "sqrtPriceNextX96",
            "offset": 0,
            "slot": "1",
            "type": "t_uint160"
          },
          {
            "astId": 12839,
            "contract": "contracts/utils/SwapSimulator.sol:SwapSimulator",
            "label": "amountIn",
            "offset": 0,
            "slot": "2",
            "type": "t_uint256"
          },
          {
            "astId": 12841,
            "contract": "contracts/utils/SwapSimulator.sol:SwapSimulator",
            "label": "amountOut",
            "offset": 0,
            "slot": "3",
            "type": "t_uint256"
          },
          {
            "astId": 12843,
            "contract": "contracts/utils/SwapSimulator.sol:SwapSimulator",
            "label": "feeAmount",
            "offset": 0,
            "slot": "4",
            "type": "t_uint256"
          }
        ],
        "numberOfBytes": "160"
      },
      "t_struct(SwapCache)12814_storage": {
        "encoding": "inplace",
        "label": "struct SimulateSwap.SwapCache",
        "members": [
          {
            "astId": 12803,
            "contract": "contracts/utils/SwapSimulator.sol:SwapSimulator",
            "label": "sqrtPriceX96Start",
            "offset": 0,
            "slot": "0",
            "type": "t_uint160"
          },
          {
            "astId": 12805,
            "contract": "contracts/utils/SwapSimulator.sol:SwapSimulator",
            "label": "tickStart",
            "offset": 20,
            "slot": "0",
            "type": "t_int24"
          },
          {
            "astId": 12807,
            "contract": "contracts/utils/SwapSimulator.sol:SwapSimulator",
            "label": "feeProtocol",
            "offset": 23,
            "slot": "0",
            "type": "t_uint8"
          },
          {
            "astId": 12809,
            "contract": "contracts/utils/SwapSimulator.sol:SwapSimulator",
            "label": "liquidityStart",
            "offset": 0,
            "slot": "1",
            "type": "t_uint128"
          },
          {
            "astId": 12811,
            "contract": "contracts/utils/SwapSimulator.sol:SwapSimulator",
            "label": "tickSpacing",
            "offset": 16,
            "slot": "1",
            "type": "t_int24"
          },
          {
            "astId": 12813,
            "contract": "contracts/utils/SwapSimulator.sol:SwapSimulator",
            "label": "fee",
            "offset": 19,
            "slot": "1",
            "type": "t_uint24"
          }
        ],
        "numberOfBytes": "64"
      },
      "t_struct(SwapState)12829_storage": {
        "encoding": "inplace",
        "label": "struct SimulateSwap.SwapState",
        "members": [
          {
            "astId": 12816,
            "contract": "contracts/utils/SwapSimulator.sol:SwapSimulator",
            "label": "amountSpecifiedRemaining",
            "offset": 0,
            "slot": "0",
            "type": "t_int256"
          },
          {
            "astId": 12818,
            "contract": "contracts/utils/SwapSimulator.sol:SwapSimulator",
            "label": "amountCalculated",
            "offset": 0,
            "slot": "1",
            "type": "t_int256"
          },
          {
            "astId": 12820,
            "contract": "contracts/utils/SwapSimulator.sol:SwapSimulator",
            "label": "sqrtPriceX96",
            "offset": 0,
            "slot": "2",
            "type": "t_uint160"
          },
          {
            "astId": 12822,
            "contract": "contracts/utils/SwapSimulator.sol:SwapSimulator",
            "label": "tick",
            "offset": 20,
            "slot": "2",
            "type": "t_int24"
          },
          {
            "astId": 12824,
            "contract": "contracts/utils/SwapSimulator.sol:SwapSimulator",
            "label": "feeGrowthGlobalIncreaseX128",
            "offset": 0,
            "slot": "3",
            "type": "t_uint256"
          },
          {
            "astId": 12826,
            "contract": "contracts/utils/SwapSimulator.sol:SwapSimulator",
            "label": "protocolFee",
            "offset": 0,
            "slot": "4",
            "type": "t_uint128"
          },
          {
            "astId": 12828,
            "contract": "contracts/utils/SwapSimulator.sol:SwapSimulator",
            "label": "liquidity",
            "offset": 16,
            "slot": "4",
            "type": "t_uint128"
          }
        ],
        "numberOfBytes": "160"
      },
      "t_struct(SwapStep)27027_storage": {
        "encoding": "inplace",
        "label": "struct SwapSimulator.SwapStep",
        "members": [
          {
            "astId": 27023,
            "contract": "contracts/utils/SwapSimulator.sol:SwapSimulator",
            "label": "state",
            "offset": 0,
            "slot": "0",
            "type": "t_struct(SwapState)12829_storage"
          },
          {
            "astId": 27026,
            "contract": "contracts/utils/SwapSimulator.sol:SwapSimulator",
            "label": "step",
            "offset": 0,
            "slot": "5",
            "type": "t_struct(StepComputations)12844_storage"
          }
        ],
        "numberOfBytes": "320"
      },
      "t_uint128": {
        "encoding": "inplace",
        "label": "uint128",
        "numberOfBytes": "16"
      },
      "t_uint160": {
        "encoding": "inplace",
        "label": "uint160",
        "numberOfBytes": "20"
      },
      "t_uint24": {
        "encoding": "inplace",
        "label": "uint24",
        "numberOfBytes": "3"
      },
      "t_uint256": {
        "encoding": "inplace",
        "label": "uint256",
        "numberOfBytes": "32"
      },
      "t_uint8": {
        "encoding": "inplace",
        "label": "uint8",
        "numberOfBytes": "1"
      }
    }
  }
}