{
  "address": "0x9109A9AB21fc9d1ca967dA60Bac243e0626E605E",
  "abi": [
    {
      "inputs": [
        {
          "internalType": "int24",
          "name": "tickLower",
          "type": "int24"
        },
        {
          "internalType": "int24",
          "name": "tickUpper",
          "type": "int24"
        }
      ],
      "name": "InvalidTicks",
      "type": "error"
    },
    {
      "inputs": [],
      "name": "NotClearingHouse",
      "type": "error"
    },
    {
      "inputs": [],
      "name": "NotGovernance",
      "type": "error"
    },
    {
      "inputs": [],
      "name": "NotUniswapV3Pool",
      "type": "error"
    },
    {
      "anonymous": false,
      "inputs": [
        {
          "indexed": false,
          "internalType": "int256",
          "name": "vTokenIn",
          "type": "int256"
        },
        {
          "indexed": false,
          "internalType": "int256",
          "name": "vBaseIn",
          "type": "int256"
        },
        {
          "indexed": false,
          "internalType": "uint256",
          "name": "liquidityFees",
          "type": "uint256"
        },
        {
          "indexed": false,
          "internalType": "uint256",
          "name": "protocolFees",
          "type": "uint256"
        }
      ],
      "name": "Swap",
      "type": "event"
    },
    {
      "inputs": [
        {
          "components": [
            {
              "internalType": "contract IClearingHouse",
              "name": "clearingHouse",
              "type": "address"
            },
            {
              "internalType": "contract IVToken",
              "name": "vToken",
              "type": "address"
            },
            {
              "internalType": "contract IVBase",
              "name": "vBase",
              "type": "address"
            },
            {
              "internalType": "contract IUniswapV3Pool",
              "name": "vPool",
              "type": "address"
            },
            {
              "internalType": "uint24",
              "name": "liquidityFeePips",
              "type": "uint24"
            },
            {
              "internalType": "uint24",
              "name": "protocolFeePips",
              "type": "uint24"
            },
            {
              "internalType": "uint24",
              "name": "UNISWAP_V3_DEFAULT_FEE_TIER",
              "type": "uint24"
            }
          ],
          "internalType": "struct IVPoolWrapper.InitializeVPoolWrapperParams",
          "name": "params",
          "type": "tuple"
        }
      ],
      "name": "__VPoolWrapper_init",
      "outputs": [],
      "stateMutability": "nonpayable",
      "type": "function"
    },
    {
      "inputs": [],
      "name": "accruedProtocolFee",
      "outputs": [
        {
          "internalType": "uint256",
          "name": "",
          "type": "uint256"
        }
      ],
      "stateMutability": "view",
      "type": "function"
    },
    {
      "inputs": [],
      "name": "clearingHouse",
      "outputs": [
        {
          "internalType": "contract IClearingHouse",
          "name": "",
          "type": "address"
        }
      ],
      "stateMutability": "view",
      "type": "function"
    },
    {
      "inputs": [],
      "name": "collectAccruedProtocolFee",
      "outputs": [
        {
          "internalType": "uint256",
          "name": "accruedProtocolFeeLast",
          "type": "uint256"
        }
      ],
      "stateMutability": "nonpayable",
      "type": "function"
    },
    {
      "inputs": [
        {
          "internalType": "bytes32",
          "name": "slot",
          "type": "bytes32"
        }
      ],
      "name": "extsload",
      "outputs": [
        {
          "internalType": "bytes32",
          "name": "val",
          "type": "bytes32"
        }
      ],
      "stateMutability": "view",
      "type": "function"
    },
    {
      "inputs": [
        {
          "internalType": "bytes32[]",
          "name": "slots",
          "type": "bytes32[]"
        }
      ],
      "name": "extsload",
      "outputs": [
        {
          "internalType": "bytes32[]",
          "name": "",
          "type": "bytes32[]"
        }
      ],
      "stateMutability": "view",
      "type": "function"
    },
    {
      "inputs": [],
      "name": "fpGlobal",
      "outputs": [
        {
          "internalType": "int256",
          "name": "sumAX128",
          "type": "int256"
        },
        {
          "internalType": "int256",
          "name": "sumBX128",
          "type": "int256"
        },
        {
          "internalType": "int256",
          "name": "sumFpX128",
          "type": "int256"
        },
        {
          "internalType": "uint48",
          "name": "timestampLast",
          "type": "uint48"
        }
      ],
      "stateMutability": "view",
      "type": "function"
    },
    {
      "inputs": [],
      "name": "getExtrapolatedSumAX128",
      "outputs": [
        {
          "internalType": "int256",
          "name": "",
          "type": "int256"
        }
      ],
      "stateMutability": "view",
      "type": "function"
    },
    {
      "inputs": [
        {
          "internalType": "int24",
          "name": "tickLower",
          "type": "int24"
        },
        {
          "internalType": "int24",
          "name": "tickUpper",
          "type": "int24"
        }
      ],
      "name": "getExtrapolatedValuesInside",
      "outputs": [
        {
          "components": [
            {
              "internalType": "int256",
              "name": "sumAX128",
              "type": "int256"
            },
            {
              "internalType": "int256",
              "name": "sumBInsideX128",
              "type": "int256"
            },
            {
              "internalType": "int256",
              "name": "sumFpInsideX128",
              "type": "int256"
            },
            {
              "internalType": "uint256",
              "name": "sumFeeInsideX128",
              "type": "uint256"
            }
          ],
          "internalType": "struct IVPoolWrapper.WrapperValuesInside",
          "name": "wrapperValuesInside",
          "type": "tuple"
        }
      ],
      "stateMutability": "view",
      "type": "function"
    },
    {
      "inputs": [],
      "name": "getSumAX128",
      "outputs": [
        {
          "internalType": "int256",
          "name": "",
          "type": "int256"
        }
      ],
      "stateMutability": "view",
      "type": "function"
    },
    {
      "inputs": [
        {
          "internalType": "int24",
          "name": "tickLower",
          "type": "int24"
        },
        {
          "internalType": "int24",
          "name": "tickUpper",
          "type": "int24"
        }
      ],
      "name": "getValuesInside",
      "outputs": [
        {
          "components": [
            {
              "internalType": "int256",
              "name": "sumAX128",
              "type": "int256"
            },
            {
              "internalType": "int256",
              "name": "sumBInsideX128",
              "type": "int256"
            },
            {
              "internalType": "int256",
              "name": "sumFpInsideX128",
              "type": "int256"
            },
            {
              "internalType": "uint256",
              "name": "sumFeeInsideX128",
              "type": "uint256"
            }
          ],
          "internalType": "struct IVPoolWrapper.WrapperValuesInside",
          "name": "wrapperValuesInside",
          "type": "tuple"
        }
      ],
      "stateMutability": "view",
      "type": "function"
    },
    {
      "inputs": [
        {
          "internalType": "int24",
          "name": "tickLower",
          "type": "int24"
        },
        {
          "internalType": "int24",
          "name": "tickUpper",
          "type": "int24"
        },
        {
          "internalType": "int128",
          "name": "liquidityDelta",
          "type": "int128"
        }
      ],
      "name": "liquidityChange",
      "outputs": [
        {
          "internalType": "int256",
          "name": "basePrincipal",
          "type": "int256"
        },
        {
          "internalType": "int256",
          "name": "vTokenPrincipal",
          "type": "int256"
        },
        {
          "components": [
            {
              "internalType": "int256",
              "name": "sumAX128",
              "type": "int256"
            },
            {
              "internalType": "int256",
              "name": "sumBInsideX128",
              "type": "int256"
            },
            {
              "internalType": "int256",
              "name": "sumFpInsideX128",
              "type": "int256"
            },
            {
              "internalType": "uint256",
              "name": "sumFeeInsideX128",
              "type": "uint256"
            }
          ],
          "internalType": "struct IVPoolWrapper.WrapperValuesInside",
          "name": "wrapperValuesInside",
          "type": "tuple"
        }
      ],
      "stateMutability": "nonpayable",
      "type": "function"
    },
    {
      "inputs": [],
      "name": "liquidityFeePips",
      "outputs": [
        {
          "internalType": "uint24",
          "name": "",
          "type": "uint24"
        }
      ],
      "stateMutability": "view",
      "type": "function"
    },
    {
      "inputs": [],
      "name": "protocolFeePips",
      "outputs": [
        {
          "internalType": "uint24",
          "name": "",
          "type": "uint24"
        }
      ],
      "stateMutability": "view",
      "type": "function"
    },
    {
      "inputs": [
        {
          "internalType": "uint24",
          "name": "liquidityFeePips_",
          "type": "uint24"
        }
      ],
      "name": "setLiquidityFee",
      "outputs": [],
      "stateMutability": "nonpayable",
      "type": "function"
    },
    {
      "inputs": [
        {
          "internalType": "uint24",
          "name": "protocolFeePips_",
          "type": "uint24"
        }
      ],
      "name": "setProtocolFee",
      "outputs": [],
      "stateMutability": "nonpayable",
      "type": "function"
    },
    {
      "inputs": [],
      "name": "sumFeeGlobalX128",
      "outputs": [
        {
          "internalType": "uint256",
          "name": "",
          "type": "uint256"
        }
      ],
      "stateMutability": "view",
      "type": "function"
    },
    {
      "inputs": [
        {
          "internalType": "bool",
          "name": "swapVTokenForVBase",
          "type": "bool"
        },
        {
          "internalType": "int256",
          "name": "amountSpecified",
          "type": "int256"
        },
        {
          "internalType": "uint160",
          "name": "sqrtPriceLimitX96",
          "type": "uint160"
        }
      ],
      "name": "swap",
      "outputs": [
        {
          "internalType": "int256",
          "name": "",
          "type": "int256"
        },
        {
          "internalType": "int256",
          "name": "",
          "type": "int256"
        }
      ],
      "stateMutability": "nonpayable",
      "type": "function"
    },
    {
      "inputs": [
        {
          "internalType": "int256",
          "name": "amount",
          "type": "int256"
        },
        {
          "internalType": "uint160",
          "name": "sqrtPriceLimitX96",
          "type": "uint160"
        },
        {
          "internalType": "bool",
          "name": "isNotional",
          "type": "bool"
        }
      ],
      "name": "swapToken",
      "outputs": [
        {
          "internalType": "int256",
          "name": "vTokenAmount",
          "type": "int256"
        },
        {
          "internalType": "int256",
          "name": "vBaseAmount",
          "type": "int256"
        }
      ],
      "stateMutability": "nonpayable",
      "type": "function"
    },
    {
      "inputs": [
        {
          "internalType": "int24",
          "name": "",
          "type": "int24"
        }
      ],
      "name": "ticksExtended",
      "outputs": [
        {
          "internalType": "int256",
          "name": "sumALastX128",
          "type": "int256"
        },
        {
          "internalType": "int256",
          "name": "sumBOutsideX128",
          "type": "int256"
        },
        {
          "internalType": "int256",
          "name": "sumFpOutsideX128",
          "type": "int256"
        },
        {
          "internalType": "uint256",
          "name": "sumFeeOutsideX128",
          "type": "uint256"
        }
      ],
      "stateMutability": "view",
      "type": "function"
    },
    {
      "inputs": [],
      "name": "uniswapFeePips",
      "outputs": [
        {
          "internalType": "uint24",
          "name": "",
          "type": "uint24"
        }
      ],
      "stateMutability": "view",
      "type": "function"
    },
    {
      "inputs": [
        {
          "internalType": "uint256",
          "name": "vTokenAmount",
          "type": "uint256"
        },
        {
          "internalType": "uint256",
          "name": "vBaseAmount",
          "type": "uint256"
        },
        {
          "internalType": "bytes",
          "name": "",
          "type": "bytes"
        }
      ],
      "name": "uniswapV3MintCallback",
      "outputs": [],
      "stateMutability": "nonpayable",
      "type": "function"
    },
    {
      "inputs": [
        {
          "internalType": "int256",
          "name": "amount0Delta",
          "type": "int256"
        },
        {
          "internalType": "int256",
          "name": "amount1Delta",
          "type": "int256"
        },
        {
          "internalType": "bytes",
          "name": "",
          "type": "bytes"
        }
      ],
      "name": "uniswapV3SwapCallback",
      "outputs": [],
      "stateMutability": "nonpayable",
      "type": "function"
    },
    {
      "inputs": [],
      "name": "updateGlobalFundingState",
      "outputs": [],
      "stateMutability": "nonpayable",
      "type": "function"
    },
    {
      "inputs": [],
      "name": "vBase",
      "outputs": [
        {
          "internalType": "contract IVBase",
          "name": "",
          "type": "address"
        }
      ],
      "stateMutability": "view",
      "type": "function"
    },
    {
      "inputs": [],
      "name": "vPool",
      "outputs": [
        {
          "internalType": "contract IUniswapV3Pool",
          "name": "",
          "type": "address"
        }
      ],
      "stateMutability": "view",
      "type": "function"
    },
    {
      "inputs": [],
      "name": "vToken",
      "outputs": [
        {
          "internalType": "contract IVToken",
          "name": "",
          "type": "address"
        }
      ],
      "stateMutability": "view",
      "type": "function"
    }
  ],
  "transactionHash": "0xa9b59b968a09d78eca5ad584f98c9ac753a6cf44a44b5137f676fb7001977340",
  "args": [],
  "solcInputHash": "a4f86ba0634cd1c18bcd3c42ff526506",
  "bytecode": "0x608060405234801561001057600080fd5b50614897806100206000396000f3fe608060405234801561001057600080fd5b50600436106101a95760003560e01c806386c8e9a7116100f9578063c04b98c411610097578063d440c42011610071578063d440c42014610406578063dbd035ff14610428578063fa461e3314610448578063fca6fbf21461045b57600080fd5b8063c04b98c4146103d7578063c5f1916c146103e0578063d3487997146103f357600080fd5b8063a3a1e7e9116100d3578063a3a1e7e9146103a0578063a3c35e2c146103a8578063acfd7928146103bb578063bb152c53146103c457600080fd5b806386c8e9a7146103645780638b1e97811461037a5780639bb1a99c1461038d57600080fd5b806348aaa8c0116101665780636c544335116101405780636c544335146102f05780637779815c146103365780637aba8e681461033e5780637feedaa11461035157600080fd5b806348aaa8c0146102805780635e622abc146102d55780636719578c146102dd57600080fd5b806302dc9951146101ae5780630af96800146101dd578063195cd92c1461020e5780631e2eaeaf146102365780632a99a7921461025657806333f9096314610276575b600080fd5b6003546101c490600160a01b900462ffffff1681565b60405162ffffff90911681526020015b60405180910390f35b6000546101f6906201000090046001600160a01b031681565b6040516001600160a01b0390911681526020016101d4565b61022161021c366004613d6f565b610471565b604080519283526020830191909152016101d4565b610248610244366004613db1565b5490565b6040519081526020016101d4565b610269610264366004613dd9565b610718565b6040516101d49190613e12565b61027e610844565b005b6102b561028e366004613e3d565b600a6020526000908152604090208054600182015460028301546003909301549192909184565b6040805194855260208501939093529183015260608201526080016101d4565b6102486108df565b6003546101f6906001600160a01b031681565b60055460065460075460085461030e9392919065ffffffffffff1684565b6040805194855260208501939093529183015265ffffffffffff1660608201526080016101d4565b600554610248565b61027e61034c366004613e5a565b61092a565b61027e61035f366004613e83565b610b52565b6003546101c490600160b81b900462ffffff1681565b61027e610388366004613e83565b610c1e565b6001546101f6906001600160a01b031681565b610248610cea565b6102696103b6366004613dd9565b610d8b565b61024860045481565b6102216103d2366004613ea0565b610f28565b61024860095481565b6002546101f6906001600160a01b031681565b61027e610401366004613f19565b610f59565b610419610414366004613f7b565b611061565b6040516101d493929190613fbb565b61043b61043636600461400d565b61133a565b6040516101d491906140cb565b61027e610456366004613f19565b611368565b6003546101c490600160d01b900462ffffff1681565b6000805481906201000090046001600160a01b031633146104a557604051638597d08b60e01b815260040160405180910390fd5b60008412156001600160a01b0384166104f457856104e1576104dc600173fffd8963efd1fc6a506488495d951d5263988d26614125565b6104f1565b6104f16401000276a3600161414d565b93505b6105266040518060a0016040528060008152602001600081526020016000815260200160008152602001600081525090565b85815260035461055b908390899062ffffff600160a01b8204811691600160b81b8104821691600160d01b9091041686611531565b80516003546000918291610580916001600160a01b03909116908b908a6115dc6117ad565b6003548551604051630251596160e31b81523060048201528d1515602482015260448101919091526001600160a01b038b8116606483015260a06084830152600060a4830152939550919350919091169063128acb089060c40160408051808303816000875af11580156105f8573d6000803e3d6000fd5b505050506040513d601f19601f8201168201806040525081019061061c9190614178565b604085015260208401819052821480156106395750826040015181145b6106455761064561419c565b5050600354610679908390899062ffffff600160a01b8204811691600160b81b8104821691600160d01b909104168661182d565b80608001516004600082825461068f91906141b2565b9091555061069d905061193d565b7fb0ecd2f0335c5433548e5039eef18bcfbe9cd48abfb781dfa0cc522164cb876f81602001518260400151836060015184608001516040516106f8949392919093845260208401929092526040830152606082015260800190565b60405180910390a180602001518160400151935093505050935093915050565b6107436040518060800160405280600081526020016000815260200160008152602001600081525090565b60035460408051633850c7bd60e01b815290516000926001600160a01b031691633850c7bd9160048083019260e09291908290030181865afa15801561078d573d6000803e3d6000fd5b505050506040513d601f19601f820116820180604052508101906107b191906141dc565b505060408051608081018252600554815260065460208201526007549181019190915260085465ffffffffffff1660608201529395509293506107f79250610cea915050565b80825260055460065460075461080c93611ae0565b60408201528051835260095461082c90600a908790879086908690611b10565b60608601526040850152602084015250909392505050565b6000805460015460405163d257be2b60e01b81526001600160a01b03918216600482015283926201000090049091169063d257be2b906024016040805180830381865afa158015610899573d6000803e3d6000fd5b505050506040513d601f19601f820116820180604052508101906108bd9190614178565b915091506108db600060016108cf4290565b60059291908686611c68565b5050565b600080546201000090046001600160a01b0316331461091157604051638597d08b60e01b815260040160405180910390fd5b60016004546109209190614274565b6001600455919050565b600054610100900460ff1680610943575060005460ff16155b6109ab5760405162461bcd60e51b815260206004820152602e60248201527f496e697469616c697a61626c653a20636f6e747261637420697320616c72656160448201526d191e481a5b9a5d1a585b1a5e995960921b60648201526084015b60405180910390fd5b600054610100900460ff161580156109cd576000805461ffff19166101011790555b6109da602083018361428b565b600080546001600160a01b0392909216620100000262010000600160b01b0319909216919091179055610a13604083016020840161428b565b600180546001600160a01b0319166001600160a01b0392909216919091179055610a43606083016040840161428b565b600280546001600160a01b0319166001600160a01b0392909216919091179055610a73608083016060840161428b565b600380546001600160a01b0319166001600160a01b0392909216919091179055610aa360a0830160808401613e83565b6003805462ffffff92909216600160b81b0262ffffff60b81b19909216919091179055610ad660c0830160a08401613e83565b6003805462ffffff92909216600160d01b0262ffffff60d01b19909216919091179055610b0960e0830160c08401613e83565b6003805462ffffff92909216600160a01b0262ffffff60a01b19909216919091179055610b3d600560006001428180611c68565b80156108db576000805461ff00191690555050565b600060029054906101000a90046001600160a01b03166001600160a01b0316635aa6e6756040518163ffffffff1660e01b8152600401602060405180830381865afa158015610ba5573d6000803e3d6000fd5b505050506040513d601f19601f82011682018060405250810190610bc991906142a8565b6001600160a01b0316336001600160a01b031614610bfa57604051632d5be4cb60e21b815260040160405180910390fd5b6003805462ffffff909216600160d01b0262ffffff60d01b19909216919091179055565b600060029054906101000a90046001600160a01b03166001600160a01b0316635aa6e6756040518163ffffffff1660e01b8152600401602060405180830381865afa158015610c71573d6000803e3d6000fd5b505050506040513d601f19601f82011682018060405250810190610c9591906142a8565b6001600160a01b0316336001600160a01b031614610cc657604051632d5be4cb60e21b815260040160405180910390fd5b6003805462ffffff909216600160b81b0262ffffff60b81b19909216919091179055565b6000805460015460405163d257be2b60e01b81526001600160a01b0391821660048201528392839262010000909104169063d257be2b906024016040805180830381865afa158015610d40573d6000803e3d6000fd5b505050506040513d601f19601f82011682018060405250810190610d649190614178565b600554600854929450909250610d849165ffffffffffff16428585611d1e565b9250505090565b610db66040518060800160405280600081526020016000815260200160008152602001600081525090565b82828060020b8260020b121580610dd45750620d89e719600283900b125b80610df05750610de7620d89e7196142c5565b60020b8160020b135b80610e075750610e01600a836142fe565b60020b15155b80610e1e5750610e18600a826142fe565b60020b15155b15610e4a5760405163957b5ed560e01b8152600283810b600483015282900b60248201526044016109a2565b60035460408051633850c7bd60e01b815290516000926001600160a01b031691633850c7bd9160048083019260e09291908290030181865afa158015610e94573d6000803e3d6000fd5b505050506040513d601f19601f82011682018060405250810190610eb891906141dc565b50506040805160808101825260055480825260065460208301526007549282019290925260085465ffffffffffff166060820152908a526009549496509450610f0e93600a93508b92508a915086908690611b10565b606088015260408701526020860152509295945050505050565b600080610f4d6000861284610f4557610f4087614320565b610f47565b865b86610471565b91509150935093915050565b6003546001600160a01b03163314610f84576040516308458b2b60e21b815260040160405180910390fd5b8215610fef576002546040516340c10f1960e01b8152336004820152602481018590526001600160a01b03909116906340c10f1990604401600060405180830381600087803b158015610fd657600080fd5b505af1158015610fea573d6000803e3d6000fd5b505050505b831561105b576001546040516340c10f1960e01b8152336004820152602481018690526001600160a01b03909116906340c10f19906044015b600060405180830381600087803b15801561104257600080fd5b505af1158015611056573d6000803e3d6000fd5b505050505b50505050565b60008061108f6040518060800160405280600081526020016000815260200160008152602001600081525090565b6000546201000090046001600160a01b031633146110c057604051638597d08b60e01b815260040160405180910390fd5b85858060020b8260020b1215806110de5750620d89e719600283900b125b806110fa57506110f1620d89e7196142c5565b60020b8160020b135b80611111575061110b600a836142fe565b60020b15155b806111285750611122600a826142fe565b60020b15155b156111545760405163957b5ed560e01b8152600283810b600483015282900b60248201526044016109a2565b61115c610844565b6003546111809089908990899061117b906001600160a01b0316611d40565b611db1565b9250600086600f0b131561125057600354604051633c8a7d8d60e01b815230600482015260028a810b602483015289900b60448201526001600160801b038816606482015260a06084820152600060a482018190529182916001600160a01b0390911690633c8a7d8d9060c40160408051808303816000875af115801561120b573d6000803e3d6000fd5b505050506040513d601f19601f8201168201806040525081019061122f9190614178565b9150915061123c82611f02565b955061124781611f02565b9650505061132f565b60035460009081906001600160a01b031663a34123a78b8b6112748c60001961433d565b6040516001600160e01b031960e086901b168152600293840b60048201529190920b60248201526001600160801b03909116604482015260640160408051808303816000875af11580156112cc573d6000803e3d6000fd5b505050506040513d601f19601f820116820180604052508101906112f09190614178565b915091506112fd82611f02565b611309906000196143db565b955061131481611f02565b611320906000196143db565b965061132c8a8a611f18565b50505b505093509350939050565b606060208251028201602001602083015b8181101561136057805154815260200161134b565b509192915050565b6003546001600160a01b03163314611393576040516308458b2b60e21b815260040160405180910390fd5b600084131561147957600360009054906101000a90046001600160a01b03166001600160a01b0316630dfe16816040518163ffffffff1660e01b8152600401602060405180830381865afa1580156113ef573d6000803e3d6000fd5b505050506040513d601f19601f8201168201806040525081019061141391906142a8565b6003546040516340c10f1960e01b81526001600160a01b039182166004820152602481018790529116906340c10f1990604401600060405180830381600087803b15801561146057600080fd5b505af1158015611474573d6000803e3d6000fd5b505050505b600083131561105b57600360009054906101000a90046001600160a01b03166001600160a01b031663d21220a76040518163ffffffff1660e01b8152600401602060405180830381865afa1580156114d5573d6000803e3d6000fd5b505050506040513d601f19601f820116820180604052508101906114f991906142a8565b6003546040516340c10f1960e01b81526001600160a01b039182166004820152602481018690529116906340c10f1990604401611028565b85156115925784156115505780516115499085611fb5565b81526115d4565b805161155f9060028585611ff8565b6080830181905260608301829052825161158592909161157e916141b2565b6001612125565b8082526115499085611fb5565b8461159c576115d4565b80516115ab9060018585611ff8565b608083018190526060830182905282516115d19290916115ca916141b2565b6000612125565b81525b505050505050565b600080856115f3578260a0015183608001516115fe565b82608001518360a001515b600354919350915060009061162c908390839062ffffff600160b81b8204811691600160d01b900416611ff8565b50905060008560c001516001600160801b031611801561164c5750600083115b15611732576000805460015460405163d257be2b60e01b81526001600160a01b03918216600482015283926201000090049091169063d257be2b906024016040805180830381865afa1580156116a6573d6000803e3d6000fd5b505050506040513d601f19601f820116820180604052508101906116ca9190614178565b915091506116fa896116e4576116df86614320565b6116e6565b855b60c08901516001600160801b0316426108cf565b60c0870151611719908490600160801b906001600160801b031661216a565b6009600082825461172a91906141b2565b909155505050505b83606001516001600160a01b031685604001516001600160a01b031614156117a4578360400151156117a457602080850151604080516080810182526005548152600654938101939093526007549083015260085465ffffffffffff1660608301526009546117a492600a9291612218565b50505050505050565b60008061181f878787878b6001600160a01b031663ddca3f436040518163ffffffff1660e01b8152600401602060405180830381865afa1580156117f5573d6000803e3d6000fd5b505050506040513d601f19601f820116820180604052508101906118199190614460565b88612299565b915091509550959350505050565b85156118b757841561188a576118478160200151856129bd565b6020820152604081015161185e9060008585611ff8565b6080830181905260608301829052604083015161188092909161157e916141b2565b60408201526115d4565b6118988160400151856129bd565b604082018190526080820151606083015161188092916115ca916141b2565b84611900576118ca8160400151856129bd565b604082018190526118de9060008585611ff8565b608083018190526060830182905260408301516118809290916115ca916141b2565b61190e8160200151856129bd565b6020820152604081015160808201516060830151611930929161157e916141b2565b6040820152505050505050565b6002546040516370a0823160e01b81523060048201526000916001600160a01b0316906370a0823190602401602060405180830381865afa158015611986573d6000803e3d6000fd5b505050506040513d601f19601f820116820180604052508101906119aa919061447d565b90508015611a1157600254604051630852cd8d60e31b8152600481018390526001600160a01b03909116906342966c6890602401600060405180830381600087803b1580156119f857600080fd5b505af1158015611a0c573d6000803e3d6000fd5b505050505b6001546040516370a0823160e01b81523060048201526000916001600160a01b0316906370a0823190602401602060405180830381865afa158015611a5a573d6000803e3d6000fd5b505050506040513d601f19601f82011682018060405250810190611a7e919061447d565b905080156108db57600154604051630852cd8d60e31b8152600481018390526001600160a01b03909116906342966c6890602401600060405180830381600087803b158015611acc57600080fd5b505af11580156115d4573d6000803e3d6000fd5b6000611afb611aef8684614496565b8590600160801b6129e4565b611b0590846144d5565b90505b949350505050565b600285810b60009081526020889052604080822087840b8352908220600182015482549483015487519495869586959493928692611b519290918591611ae0565b90506000846003015490508a60020b8d60020b1315611b9b57828a60200151611b7a9190614496565b9250818a60400151611b8c9190614496565b9150611b98818a614274565b90505b6001840154845460028601548c51600092611bba929091859190611ae0565b90506000866003015490508d60020b8f60020b13611c0357828d60200151611be29190614496565b9250818d60400151611bf49190614496565b9150611c00818d614274565b90505b82868e60200151611c149190614496565b611c1e9190614496565b9a5081858e60400151611c319190614496565b611c3b9190614496565b995080611c48858e614274565b611c529190614274565b9850505050505050505096509650969350505050565b6003860154600090611c849065ffffffffffff16858585612a3e565b6001880154909150611c9c908290600160801b612a6d565b876002016000828254611caf91906144d5565b9091555050865481908890600090611cc89084906144d5565b90915550611cdd905086600160801b876129e4565b876001016000828254611cf091906144d5565b90915550505050600394909401805465ffffffffffff191665ffffffffffff92909216919091179055505050565b6000611d2c85858585612a3e565b611d3690876144d5565b9695505050505050565b6000816001600160a01b0316633850c7bd6040518163ffffffff1660e01b815260040160e060405180830381865afa158015611d80573d6000803e3d6000fd5b505050506040513d601f19601f82011682018060405250810190611da491906141dc565b5093979650505050505050565b611ddc6040518060800160405280600081526020016000815260200160008152602001600081525090565b60408051608081018252600554815260065460208201526007549181019190915260085465ffffffffffff166060820152600954600080600f87900b15611e7e57835160208501516040860151600354611e4c93600a938e938c938e939291908b906001600160a01b0316612abb565b845160208601516040870151600354939550611e7b93600a938d938c938e938b906001600160a01b0316612abb565b90505b611e888989610d8b565b9450600087600f0b1215611ef6578115611ec657600289810b6000908152600a60205260408120818155600181018290559182018190556003909101555b8015611ef657600288810b6000908152600a60205260408120818155600181018290559182018190556003909101555b50505050949350505050565b6000600160ff1b8210611f1457600080fd5b5090565b6003546040516309e3d67b60e31b8152306004820152600284810b602483015283900b60448201526001600160801b036064820181905260848201526001600160a01b0390911690634f1eb3d89060a40160408051808303816000875af1158015611f87573d6000803e3d6000fd5b505050506040513d601f19601f82011682018060405250810190611fab919061452d565b50506108db61193d565b600080611fc583620f4240614560565b60020b611fd762ffffff8516866143db565b611fe1919061457c565b611fec9060016144d5565b9050611b0881856144d5565b600080600061200687612ba5565b9050600186600281111561201c5761201c6145aa565b141561205d578361203086620f4240614560565b61203a9190614560565b62ffffff1661204c82620f42406145c0565b61205691906145df565b90506120ae565b6002866002811115612071576120716145aa565b14156120ae578361208586620f42406145f3565b61208f91906145f3565b62ffffff166120a182620f42406145c0565b6120ab91906145df565b90505b6000620f42406120be86886145f3565b6120cd9062ffffff16846145c0565b6120d791906145df565b6120e29060016141b2565b9050620f42406120f762ffffff8816846145c0565b61210191906145df565b61210c9060016141b2565b93506121188482614274565b9250505094509492505050565b60008082600181111561213a5761213a6145aa565b146000851314156121565761214f83856144d5565b9050612163565b6121608385614496565b90505b9392505050565b6000808060001985870985870292508281108382030391505080600014156121a4576000841161219957600080fd5b508290049050612163565b8084116121b057600080fd5b600084868809851960019081018716968790046003810260029081188083028203028083028203028083028203028083028203028083028203029182029003026000889003889004909101858311909403939093029303949094049190911702949350505050565b600283810b600090815260208690526040812080546001820154938201548651929461224693909190611ae0565b845183556001830154602086015191925061226091614496565b60018301556040840151612275908290614496565b600283015560038201546122899084614274565b8260030181905550505050505050565b600080856122ce5760405162461bcd60e51b8152602060048201526002602482015261415360f01b60448201526064016109a2565b6040805160c081018252600080825260208201819052918101829052606081018290526080810182905260a0810191909152886001600160a01b0316633850c7bd6040518163ffffffff1660e01b815260040160e060405180830381865afa15801561233e573d6000803e3d6000fd5b505050506040513d601f19601f8201168201806040525081019061236291906141dc565b5060ff1660408088019190915260029490940b6020808801919091526001600160a01b0395861687528451630d34328160e11b81529451958f1695631a68650295600480820196509294509092508290030181865afa1580156123c9573d6000803e3d6000fd5b505050506040513d601f19601f820116820180604052508101906123ed9190614611565b6001600160801b03166060820152604080516334324e9f60e21b815290516001600160a01b038b169163d0c93a7c9160048083019260209291908290030181865afa158015612440573d6000803e3d6000fd5b505050506040513d601f19601f82011682018060405250810190612464919061462c565b60020b608082015262ffffff851660a0820152876124c25780600001516001600160a01b0316866001600160a01b03161180156124bd575073fffd8963efd1fc6a506488495d951d5263988d266001600160a01b038716105b6124f4565b80600001516001600160a01b0316866001600160a01b03161080156124f457506401000276a36001600160a01b038716115b6125265760405162461bcd60e51b815260206004820152600360248201526214d41360ea1b60448201526064016109a2565b6000808813905060006040518060e001604052808a81526020016000815260200184600001516001600160a01b03168152602001846020015160020b81526020016000815260200160006001600160801b0316815260200184606001516001600160801b031681525090505b8051158015906125b85750876001600160a01b031681604001516001600160a01b031614155b15612978576040805160e081018252600080825260208201819052918101829052606081018290526080810182905260a0810182905260c081019190915260408201516001600160a01b03908116825260608301516080860151612625928f1691635339c296918f612bbd565b1515604083015260020b60208201819052620d89e719131561265057620d89e7196020820152612684565b61265d620d89e7196142c5565b60020b816020015160020b13156126845761267b620d89e7196142c5565b60020b60208201525b6126918160200151612e29565b6001600160a01b031660608201526040820151612706908c6126cb578a6001600160a01b031683606001516001600160a01b0316116126e5565b8a6001600160a01b031683606001516001600160a01b0316105b6126f35782606001516126f5565b8a5b60c0850151855160a089015161315c565b60c085015260a084015260808301526001600160a01b03166040830152821561277e576127458160c00151826080015161274091906141b2565b611f02565b82518390612754908390614496565b90525060a081015161276590611f02565b82602001516127749190614496565b60208301526127c9565b61278b8160a00151611f02565b8251839061279a9083906144d5565b90525060c081015160808201516127b491612740916141b2565b82602001516127c391906144d5565b60208301525b60c08201516001600160801b031615612811576127fc8160c00151600160801b8460c001516001600160801b031661216a565b8260800181815161280d91906141b2565b9052505b63ffffffff61105b811690881614612833576128338b8584848b63ffffffff16565b80606001516001600160a01b031682604001516001600160a01b0316141561293b5780604001511561290e57602081015160405163f30dba9360e01b815260029190910b60048201526000906001600160a01b038e169063f30dba939060240161010060405180830381865afa1580156128b1573d6000803e3d6000fd5b505050506040513d601f19601f820116820180604052508101906128d59190614649565b5050505050509150508b156128f0576128ed816146f2565b90505b6128fe8360c001518261334e565b6001600160801b031660c0840152505b8a61291d57806020015161292e565b6001816020015161292e9190614710565b60020b6060830152612972565b80600001516001600160a01b031682604001516001600160a01b0316146129725761296982604001516133f0565b60020b60608301525b50612592565b8115158a1515146129995760208101518151612994908b614496565b6129ab565b80516129a5908a614496565b81602001515b94509450505050965096945050505050565b6000620f42406129cd8382614560565b6129da9060020b856143db565b612163919061457c565b600060018180806129f58885613709565b94509250612a038785613709565b94509150612a118685613709565b94509050612a2083838361216a565b945083612a3357612a3085614320565b94505b505050509392505050565b6000611b05612a4d8686614758565b65ffffffffffff1662015180612a668587828282614496565b9190613736565b6000612a7a8484846129e4565b9050600081128015612aaa5750612aaa612a9385613770565b612a9c85613770565b612aa585613770565b61377b565b1561216357612160600019826144d5565b600288900b600081815260208b90526040808220905163f30dba9360e01b81526004810193909352909182906001600160a01b0385169063f30dba939060240161010060405180830381865afa158015612b19573d6000803e3d6000fd5b505050506040513d601f19601f82011682018060405250810190612b3d9190614649565b5050505050505090506000612b52828b61334e565b6001600160801b038381161590821615811415955090915015612b95578a60020b8c60020b13612b95578883556001830188905560028301879055600383018690555b5050509998505050505050505050565b6000808213611f1457612bb782614320565b92915050565b60008080612bcb8587614777565b905060008660020b128015612beb5750612be585876142fe565b60020b15155b15612bfe5780612bfa816147b1565b9150505b8315612d0357600080612c1083613794565b90925090506000600160ff831681901b90612c2b9082614274565b612c3591906141b2565b90506000818c8c866040518263ffffffff1660e01b8152600401612c62919060019190910b815260200190565b602060405180830381865afa158015612c7f573d6000803e3d6000fd5b505050506040513d601f19601f82011682018060405250810190612ca3919061447d565b168015159650905085612ccd5788612cbe60ff851687614710565b612cc891906147d5565b612cf8565b88612cd7826137b1565b612ce19085614820565b612cee9060ff1687614710565b612cf891906147d5565b965050505050612e1e565b600080612d19612d14846001614843565b613794565b90925090506000612d31600160ff841681901b614274565b1990506000818c8c866040518263ffffffff1660e01b8152600401612d5f919060019190910b815260200190565b602060405180830381865afa158015612d7c573d6000803e3d6000fd5b505050506040513d601f19601f82011682018060405250810190612da0919061447d565b168015159650905085612de05788612db98460ff614820565b60ff16612dc7876001614843565b612dd19190614843565b612ddb91906147d5565b612e17565b8883612deb83613852565b612df59190614820565b60ff16612e03876001614843565b612e0d9190614843565b612e1791906147d5565b9650505050505b509550959350505050565b60008060008360020b12612e40578260020b612e48565b8260020b6000035b9050620d89e8811115612e815760405162461bcd60e51b81526020600482015260016024820152601560fa1b60448201526064016109a2565b600060018216612e9557600160801b612ea7565b6ffffcb933bd6fad37aa2d162d1a5940015b70ffffffffffffffffffffffffffffffffff1690506002821615612edb576ffff97272373d413259a46990580e213a0260801c5b6004821615612efa576ffff2e50f5f656932ef12357cf3c7fdcc0260801c5b6008821615612f19576fffe5caca7e10e4e61c3624eaa0941cd00260801c5b6010821615612f38576fffcb9843d60f6159c9db58835c9266440260801c5b6020821615612f57576fff973b41fa98c081472e6896dfb254c00260801c5b6040821615612f76576fff2ea16466c96a3843ec78b326b528610260801c5b6080821615612f95576ffe5dee046a99a2a811c461f1969c30530260801c5b610100821615612fb5576ffcbe86c7900a88aedcffc83b479aa3a40260801c5b610200821615612fd5576ff987a7253ac413176f2b074cf7815e540260801c5b610400821615612ff5576ff3392b0822b70005940c7a398e4b70f30260801c5b610800821615613015576fe7159475a2c29b7443b29c7fa6e889d90260801c5b611000821615613035576fd097f3bdfd2022b8845ad8f792aa58250260801c5b612000821615613055576fa9f746462d870fdf8a65dc1f90e061e50260801c5b614000821615613075576f70d869a156d2a1b890bb3df62baf32f70260801c5b618000821615613095576f31be135f97d08fd981231505542fcfa60260801c5b620100008216156130b6576f09aa508b5b7a84e1c677de54f3e99bc90260801c5b620200008216156130d6576e5d6af8dedb81196699c329225ee6040260801c5b620400008216156130f5576d2216e584f5fa1ea926041bedfe980260801c5b62080000821615613112576b048a170391f7dc42444e8fa20260801c5b60008460020b131561313357806000198161312f5761312f6142e8565b0490505b64010000000081061561314757600161314a565b60005b60ff16602082901c0192505050919050565b60008080806001600160a01b03808916908a1610158187128015906131e15760006131958989620f42400362ffffff16620f424061216a565b9050826131ae576131a98c8c8c600161393c565b6131bb565b6131bb8b8d8c60016139ac565b95508581106131cc578a96506131db565b6131d88c8b8386613a63565b96505b5061322b565b816131f8576131f38b8b8b60006139ac565b613205565b6132058a8c8b600061393c565b93508388600003106132195789955061322b565b6132288b8a8a60000385613aaf565b95505b6001600160a01b038a811690871614821561328e5780801561324a5750815b6132605761325b878d8c60016139ac565b613262565b855b955080801561326f575081155b61328557613280878d8c600061393c565b613287565b845b94506132d8565b8080156132985750815b6132ae576132a98c888c600161393c565b6132b0565b855b95508080156132bd575081155b6132d3576132ce8c888c60006139ac565b6132d5565b845b94505b811580156132e857508860000385115b156132f4578860000394505b81801561331357508a6001600160a01b0316876001600160a01b031614155b1561332257858903935061333f565b61333c868962ffffff168a620f42400362ffffff16613afb565b93505b50505095509550955095915050565b60008082600f0b12156133a457508082016001600160801b038084169082161061339f5760405162461bcd60e51b81526020600482015260026024820152614c5360f01b60448201526064016109a2565b612bb7565b826001600160801b03168284019150816001600160801b03161015612bb75760405162461bcd60e51b81526020600482015260026024820152614c4160f01b60448201526064016109a2565b60006401000276a36001600160a01b0383161080159061342c575073fffd8963efd1fc6a506488495d951d5263988d266001600160a01b038316105b61345c5760405162461bcd60e51b81526020600482015260016024820152602960f91b60448201526064016109a2565b640100000000600160c01b03602083901b166001600160801b03811160071b81811c67ffffffffffffffff811160061b90811c63ffffffff811160051b90811c61ffff811160041b90811c60ff8111600390811b91821c600f811160021b90811c918211600190811b92831c979088119617909417909217179091171717608081106134f057607f810383901c91506134fa565b80607f0383901b91505b908002607f81811c60ff83811c9190911c800280831c81831c1c800280841c81841c1c800280851c81851c1c800280861c81861c1c800280871c81871c1c800280881c81881c1c800280891c81891c1c8002808a1c818a1c1c8002808b1c818b1c1c8002808c1c818c1c1c8002808d1c818d1c1c8002808e1c9c81901c9c909c1c80029c8d901c9e9d607f198f0160401b60c09190911c678000000000000000161760c19b909b1c674000000000000000169a909a1760c29990991c672000000000000000169890981760c39790971c671000000000000000169690961760c49590951c670800000000000000169490941760c59390931c670400000000000000169290921760c69190911c670200000000000000161760c79190911c670100000000000000161760c89190911c6680000000000000161760c99190911c6640000000000000161760ca9190911c6620000000000000161760cb9190911c6610000000000000161760cc9190911c6608000000000000161760cd9190911c66040000000000001617693627a301d71055774c8581026f028f6481ab7f045a5af012a19d003aa9198101608090811d906fdb2df09e81959a81455e260799a0632f8301901d600281810b9083900b146136fa57886001600160a01b03166136df82612e29565b6001600160a01b031611156136f457816136fc565b806136fc565b815b9998505050505050505050565b60008060008412156137285791159161372184614320565b915061372c565b8391505b50815b9250929050565b600061375c600085126137495784613755565b613755856000196143db565b848461216a565b905060008412156121635761216081614320565b6000612bb782612ba5565b600081838509801561378c57600191505b509392505050565b600281900b60081d60006137aa610100846142fe565b9050915091565b60008082116137bf57600080fd5b600160801b82106137d257608091821c91015b6801000000000000000082106137ea57604091821c91015b64010000000082106137fe57602091821c91015b62010000821061381057601091821c91015b610100821061382157600891821c91015b6010821061383157600491821c91015b6004821061384157600291821c91015b6002821061384d576001015b919050565b600080821161386057600080fd5b5060ff6001600160801b0382161561387b57607f1901613883565b608082901c91505b67ffffffffffffffff82161561389c57603f19016138a4565b604082901c91505b63ffffffff8216156138b957601f19016138c1565b602082901c91505b61ffff8216156138d457600f19016138dc565b601082901c91505b60ff8216156138ee57600719016138f6565b600882901c91505b600f8216156139085760031901613910565b600482901c91505b6003821615613922576001190161392a565b600282901c91505b600182161561384d5760001901919050565b6000836001600160a01b0316856001600160a01b0316111561395c579293925b8161398957613984836001600160801b03168686036001600160a01b0316600160601b61216a565b611b05565b611b05836001600160801b03168686036001600160a01b0316600160601b613afb565b6000836001600160a01b0316856001600160a01b031611156139cc579293925b600160601b600160e01b03606084901b166001600160a01b0386860381169087166139f657600080fd5b83613a2c57866001600160a01b0316613a198383896001600160a01b031661216a565b81613a2657613a266142e8565b04613a58565b613a58613a438383896001600160a01b0316613afb565b886001600160a01b0316808204910615150190565b979650505050505050565b600080856001600160a01b031611613a7a57600080fd5b6000846001600160801b031611613a9057600080fd5b81613aa2576139848585856001613b3b565b611b058585856001613c28565b600080856001600160a01b031611613ac657600080fd5b6000846001600160801b031611613adc57600080fd5b81613aee576139848585856000613c28565b611b058585856000613b3b565b6000613b0884848461216a565b905060008280613b1a57613b1a6142e8565b8486091115612163576000198110613b3157600080fd5b6001019392505050565b60008115613bb45760006001600160a01b03841115613b7157613b6c84600160601b876001600160801b031661216a565b613b8f565b6001600160801b038516606085901b81613b8d57613b8d6142e8565b045b9050613bac613ba76001600160a01b03881683613d23565b613d33565b915050611b08565b60006001600160a01b03841115613be257613bdd84600160601b876001600160801b0316613afb565b613bff565b613bff606085901b6001600160801b038716808204910615150190565b905080866001600160a01b031611613c1657600080fd5b6001600160a01b038616039050611b08565b600082613c36575083611b08565b600160601b600160e01b03606085901b168215613cd6576001600160a01b03861684810290858281613c6a57613c6a6142e8565b041415613c9b57818101828110613c9957613c8f83896001600160a01b031683613afb565b9350505050611b08565b505b613ccd82613cc2878a6001600160a01b03168681613cbb57613cbb6142e8565b0490613d23565b808204910615150190565b92505050611b08565b6001600160a01b03861684810290858281613cf357613cf36142e8565b04148015613d0057508082115b613d0957600080fd5b808203613c8f613ba7846001600160a01b038b1684613afb565b80820182811015612bb757600080fd5b806001600160a01b038116811461384d57600080fd5b8015158114613d5757600080fd5b50565b6001600160a01b0381168114613d5757600080fd5b600080600060608486031215613d8457600080fd5b8335613d8f81613d49565b9250602084013591506040840135613da681613d5a565b809150509250925092565b600060208284031215613dc357600080fd5b5035919050565b8060020b8114613d5757600080fd5b60008060408385031215613dec57600080fd5b8235613df781613dca565b91506020830135613e0781613dca565b809150509250929050565b8151815260208083015190820152604080830151908201526060808301519082015260808101612bb7565b600060208284031215613e4f57600080fd5b813561216381613dca565b600060e08284031215613e6c57600080fd5b50919050565b62ffffff81168114613d5757600080fd5b600060208284031215613e9557600080fd5b813561216381613e72565b600080600060608486031215613eb557600080fd5b833592506020840135613ec781613d5a565b91506040840135613da681613d49565b60008083601f840112613ee957600080fd5b50813567ffffffffffffffff811115613f0157600080fd5b60208301915083602082850101111561372f57600080fd5b60008060008060608587031215613f2f57600080fd5b8435935060208501359250604085013567ffffffffffffffff811115613f5457600080fd5b613f6087828801613ed7565b95989497509550505050565b80600f0b8114613d5757600080fd5b600080600060608486031215613f9057600080fd5b8335613f9b81613dca565b92506020840135613fab81613dca565b91506040840135613da681613f6c565b8381526020810183905260c08101611b086040830184805182526020810151602083015260408101516040830152606081015160608301525050565b634e487b7160e01b600052604160045260246000fd5b6000602080838503121561402057600080fd5b823567ffffffffffffffff8082111561403857600080fd5b818501915085601f83011261404c57600080fd5b81358181111561405e5761405e613ff7565b8060051b604051601f19603f8301168101818110858211171561408357614083613ff7565b6040529182528482019250838101850191888311156140a157600080fd5b938501935b828510156140bf578435845293850193928501926140a6565b98975050505050505050565b6020808252825182820181905260009190848201906040850190845b81811015614103578351835292840192918401916001016140e7565b50909695505050505050565b634e487b7160e01b600052601160045260246000fd5b60006001600160a01b03838116908316818110156141455761414561410f565b039392505050565b60006001600160a01b0382811684821680830382111561416f5761416f61410f565b01949350505050565b6000806040838503121561418b57600080fd5b505080516020909101519092909150565b634e487b7160e01b600052600160045260246000fd5b600082198211156141c5576141c561410f565b500190565b805161ffff8116811461384d57600080fd5b600080600080600080600060e0888a0312156141f757600080fd5b875161420281613d5a565b602089015190975061421381613dca565b9550614221604089016141ca565b945061422f606089016141ca565b935061423d608089016141ca565b925060a088015160ff8116811461425357600080fd5b60c089015190925061426481613d49565b8091505092959891949750929550565b6000828210156142865761428661410f565b500390565b60006020828403121561429d57600080fd5b813561216381613d5a565b6000602082840312156142ba57600080fd5b815161216381613d5a565b60008160020b627fffff198114156142df576142df61410f565b60000392915050565b634e487b7160e01b600052601260045260246000fd5b60008260020b80614311576143116142e8565b808360020b0791505092915050565b6000600160ff1b8214156143365761433661410f565b5060000390565b600081600f0b83600f0b60016001607f1b0360008213600084138383048511828216161561436d5761436d61410f565b6f7fffffffffffffffffffffffffffffff1960008512828116878305871216156143995761439961410f565b600087129250858205871284841616156143b5576143b561410f565b858505871281841616156143cb576143cb61410f565b5050509290910295945050505050565b60006001600160ff1b03818413828413808216868404861116156144015761440161410f565b600160ff1b60008712828116878305891216156144205761442061410f565b6000871292508782058712848416161561443c5761443c61410f565b878505871281841616156144525761445261410f565b505050929093029392505050565b60006020828403121561447257600080fd5b815161216381613e72565b60006020828403121561448f57600080fd5b5051919050565b60008083128015600160ff1b8501841216156144b4576144b461410f565b6001600160ff1b03840183138116156144cf576144cf61410f565b50500390565b600080821280156001600160ff1b03849003851316156144f7576144f761410f565b600160ff1b83900384128116156145105761451061410f565b50500190565b80516001600160801b038116811461384d57600080fd5b6000806040838503121561454057600080fd5b61454983614516565b915061455760208401614516565b90509250929050565b600062ffffff838116908316818110156141455761414561410f565b60008261458b5761458b6142e8565b600160ff1b8214600019841416156145a5576145a561410f565b500590565b634e487b7160e01b600052602160045260246000fd5b60008160001904831182151516156145da576145da61410f565b500290565b6000826145ee576145ee6142e8565b500490565b600062ffffff80831681851680830382111561416f5761416f61410f565b60006020828403121561462357600080fd5b61216382614516565b60006020828403121561463e57600080fd5b815161216381613dca565b600080600080600080600080610100898b03121561466657600080fd5b61466f89614516565b9750602089015161467f81613f6c565b80975050604089015195506060890151945060808901518060060b81146146a557600080fd5b60a08a01519094506146b681613d5a565b60c08a015190935063ffffffff811681146146d057600080fd5b60e08a01519092506146e181613d49565b809150509295985092959890939650565b600081600f0b60016001607f1b03198114156142df576142df61410f565b60008160020b8360020b6000811281627fffff19018312811516156147375761473761410f565b81627fffff01831381161561474e5761474e61410f565b5090039392505050565b600065ffffffffffff838116908316818110156141455761414561410f565b60008160020b8360020b8061478e5761478e6142e8565b627fffff198214600019821416156147a8576147a861410f565b90059392505050565b60008160020b627fffff198114156147cb576147cb61410f565b6000190192915050565b60008160020b8360020b627fffff6000821360008413838304851182821616156148015761480161410f565b627fffff1960008512828116878305871216156143995761439961410f565b600060ff821660ff84168082101561483a5761483a61410f565b90039392505050565b60008160020b8360020b6000821282627fffff038213811516156148695761486961410f565b82627fffff190382128116156148815761488161410f565b5001939250505056fea164736f6c634300080a000a",
  "userdoc": {
    "kind": "user",
    "methods": {
      "__VPoolWrapper_init((address,address,address,address,uint24,uint24,uint24))": {
        "notice": "PLATFORM FUNCTIONS"
      },
      "getSumAX128()": {
        "notice": "VIEW METHODS"
      },
      "setLiquidityFee(uint24)": {
        "notice": "ADMIN FUNCTIONS"
      },
      "swap(bool,int256,uint160)": {
        "notice": "Swap vToken for vBase, or vBase for vToken"
      },
      "swapToken(int256,uint160,bool)": {
        "notice": "swaps token"
      },
      "uniswapV3SwapCallback(int256,int256,bytes)": {
        "notice": "UNISWAP V3 POOL CALLBACkS"
      }
    },
    "version": 1
  },
  "storageLayout": {
    "storage": [
      {
        "astId": 252,
        "contract": "contracts/protocol/wrapper/VPoolWrapper.sol:VPoolWrapper",
        "label": "_initialized",
        "offset": 0,
        "slot": "0",
        "type": "t_bool"
      },
      {
        "astId": 255,
        "contract": "contracts/protocol/wrapper/VPoolWrapper.sol:VPoolWrapper",
        "label": "_initializing",
        "offset": 1,
        "slot": "0",
        "type": "t_bool"
      },
      {
        "astId": 20596,
        "contract": "contracts/protocol/wrapper/VPoolWrapper.sol:VPoolWrapper",
        "label": "clearingHouse",
        "offset": 2,
        "slot": "0",
        "type": "t_contract(IClearingHouse)8002"
      },
      {
        "astId": 20599,
        "contract": "contracts/protocol/wrapper/VPoolWrapper.sol:VPoolWrapper",
        "label": "vToken",
        "offset": 0,
        "slot": "1",
        "type": "t_contract(IVToken)8253"
      },
      {
        "astId": 20602,
        "contract": "contracts/protocol/wrapper/VPoolWrapper.sol:VPoolWrapper",
        "label": "vBase",
        "offset": 0,
        "slot": "2",
        "type": "t_contract(IVBase)8084"
      },
      {
        "astId": 20605,
        "contract": "contracts/protocol/wrapper/VPoolWrapper.sol:VPoolWrapper",
        "label": "vPool",
        "offset": 0,
        "slot": "3",
        "type": "t_contract(IUniswapV3Pool)5097"
      },
      {
        "astId": 20607,
        "contract": "contracts/protocol/wrapper/VPoolWrapper.sol:VPoolWrapper",
        "label": "uniswapFeePips",
        "offset": 20,
        "slot": "3",
        "type": "t_uint24"
      },
      {
        "astId": 20609,
        "contract": "contracts/protocol/wrapper/VPoolWrapper.sol:VPoolWrapper",
        "label": "liquidityFeePips",
        "offset": 23,
        "slot": "3",
        "type": "t_uint24"
      },
      {
        "astId": 20611,
        "contract": "contracts/protocol/wrapper/VPoolWrapper.sol:VPoolWrapper",
        "label": "protocolFeePips",
        "offset": 26,
        "slot": "3",
        "type": "t_uint24"
      },
      {
        "astId": 20613,
        "contract": "contracts/protocol/wrapper/VPoolWrapper.sol:VPoolWrapper",
        "label": "accruedProtocolFee",
        "offset": 0,
        "slot": "4",
        "type": "t_uint256"
      },
      {
        "astId": 20616,
        "contract": "contracts/protocol/wrapper/VPoolWrapper.sol:VPoolWrapper",
        "label": "fpGlobal",
        "offset": 0,
        "slot": "5",
        "type": "t_struct(Info)10203_storage"
      },
      {
        "astId": 20618,
        "contract": "contracts/protocol/wrapper/VPoolWrapper.sol:VPoolWrapper",
        "label": "sumFeeGlobalX128",
        "offset": 0,
        "slot": "9",
        "type": "t_uint256"
      },
      {
        "astId": 20623,
        "contract": "contracts/protocol/wrapper/VPoolWrapper.sol:VPoolWrapper",
        "label": "ticksExtended",
        "offset": 0,
        "slot": "10",
        "type": "t_mapping(t_int24,t_struct(Info)13872_storage)"
      }
    ],
    "types": {
      "t_bool": {
        "encoding": "inplace",
        "label": "bool",
        "numberOfBytes": "1"
      },
      "t_contract(IClearingHouse)8002": {
        "encoding": "inplace",
        "label": "contract IClearingHouse",
        "numberOfBytes": "20"
      },
      "t_contract(IUniswapV3Pool)5097": {
        "encoding": "inplace",
        "label": "contract IUniswapV3Pool",
        "numberOfBytes": "20"
      },
      "t_contract(IVBase)8084": {
        "encoding": "inplace",
        "label": "contract IVBase",
        "numberOfBytes": "20"
      },
      "t_contract(IVToken)8253": {
        "encoding": "inplace",
        "label": "contract IVToken",
        "numberOfBytes": "20"
      },
      "t_int24": {
        "encoding": "inplace",
        "label": "int24",
        "numberOfBytes": "3"
      },
      "t_int256": {
        "encoding": "inplace",
        "label": "int256",
        "numberOfBytes": "32"
      },
      "t_mapping(t_int24,t_struct(Info)13872_storage)": {
        "encoding": "mapping",
        "key": "t_int24",
        "label": "mapping(int24 => struct Tick.Info)",
        "numberOfBytes": "32",
        "value": "t_struct(Info)13872_storage"
      },
      "t_struct(Info)10203_storage": {
        "encoding": "inplace",
        "label": "struct FundingPayment.Info",
        "members": [
          {
            "astId": 10196,
            "contract": "contracts/protocol/wrapper/VPoolWrapper.sol:VPoolWrapper",
            "label": "sumAX128",
            "offset": 0,
            "slot": "0",
            "type": "t_int256"
          },
          {
            "astId": 10198,
            "contract": "contracts/protocol/wrapper/VPoolWrapper.sol:VPoolWrapper",
            "label": "sumBX128",
            "offset": 0,
            "slot": "1",
            "type": "t_int256"
          },
          {
            "astId": 10200,
            "contract": "contracts/protocol/wrapper/VPoolWrapper.sol:VPoolWrapper",
            "label": "sumFpX128",
            "offset": 0,
            "slot": "2",
            "type": "t_int256"
          },
          {
            "astId": 10202,
            "contract": "contracts/protocol/wrapper/VPoolWrapper.sol:VPoolWrapper",
            "label": "timestampLast",
            "offset": 0,
            "slot": "3",
            "type": "t_uint48"
          }
        ],
        "numberOfBytes": "128"
      },
      "t_struct(Info)13872_storage": {
        "encoding": "inplace",
        "label": "struct Tick.Info",
        "members": [
          {
            "astId": 13865,
            "contract": "contracts/protocol/wrapper/VPoolWrapper.sol:VPoolWrapper",
            "label": "sumALastX128",
            "offset": 0,
            "slot": "0",
            "type": "t_int256"
          },
          {
            "astId": 13867,
            "contract": "contracts/protocol/wrapper/VPoolWrapper.sol:VPoolWrapper",
            "label": "sumBOutsideX128",
            "offset": 0,
            "slot": "1",
            "type": "t_int256"
          },
          {
            "astId": 13869,
            "contract": "contracts/protocol/wrapper/VPoolWrapper.sol:VPoolWrapper",
            "label": "sumFpOutsideX128",
            "offset": 0,
            "slot": "2",
            "type": "t_int256"
          },
          {
            "astId": 13871,
            "contract": "contracts/protocol/wrapper/VPoolWrapper.sol:VPoolWrapper",
            "label": "sumFeeOutsideX128",
            "offset": 0,
            "slot": "3",
            "type": "t_uint256"
          }
        ],
        "numberOfBytes": "128"
      },
      "t_uint24": {
        "encoding": "inplace",
        "label": "uint24",
        "numberOfBytes": "3"
      },
      "t_uint256": {
        "encoding": "inplace",
        "label": "uint256",
        "numberOfBytes": "32"
      },
      "t_uint48": {
        "encoding": "inplace",
        "label": "uint48",
        "numberOfBytes": "6"
      }
    }
  }
}