{
  "address": "0x714f319bC3Fed5479252d0bB0b4d2E440bc5fC39",
  "abi": [
    {
      "inputs": [],
      "name": "Unauthorised",
      "type": "error"
    },
    {
      "anonymous": false,
      "inputs": [
        {
          "indexed": true,
          "internalType": "address",
          "name": "owner",
          "type": "address"
        },
        {
          "indexed": true,
          "internalType": "address",
          "name": "spender",
          "type": "address"
        },
        {
          "indexed": false,
          "internalType": "uint256",
          "name": "value",
          "type": "uint256"
        }
      ],
      "name": "Approval",
      "type": "event"
    },
    {
      "anonymous": false,
      "inputs": [
        {
          "indexed": true,
          "internalType": "address",
          "name": "from",
          "type": "address"
        },
        {
          "indexed": true,
          "internalType": "address",
          "name": "to",
          "type": "address"
        },
        {
          "indexed": false,
          "internalType": "uint256",
          "name": "value",
          "type": "uint256"
        }
      ],
      "name": "Transfer",
      "type": "event"
    },
    {
      "inputs": [
        {
          "internalType": "address",
          "name": "owner",
          "type": "address"
        },
        {
          "internalType": "address",
          "name": "spender",
          "type": "address"
        }
      ],
      "name": "allowance",
      "outputs": [
        {
          "internalType": "uint256",
          "name": "",
          "type": "uint256"
        }
      ],
      "stateMutability": "view",
      "type": "function"
    },
    {
      "inputs": [
        {
          "internalType": "address",
          "name": "spender",
          "type": "address"
        },
        {
          "internalType": "uint256",
          "name": "amount",
          "type": "uint256"
        }
      ],
      "name": "approve",
      "outputs": [
        {
          "internalType": "bool",
          "name": "",
          "type": "bool"
        }
      ],
      "stateMutability": "nonpayable",
      "type": "function"
    },
    {
      "inputs": [
        {
          "internalType": "address",
          "name": "account",
          "type": "address"
        }
      ],
      "name": "balanceOf",
      "outputs": [
        {
          "internalType": "uint256",
          "name": "",
          "type": "uint256"
        }
      ],
      "stateMutability": "view",
      "type": "function"
    },
    {
      "inputs": [
        {
          "internalType": "uint256",
          "name": "amount",
          "type": "uint256"
        }
      ],
      "name": "claim",
      "outputs": [],
      "stateMutability": "nonpayable",
      "type": "function"
    },
    {
      "inputs": [],
      "name": "clearingHouse",
      "outputs": [
        {
          "internalType": "contract IClearingHouse",
          "name": "",
          "type": "address"
        }
      ],
      "stateMutability": "view",
      "type": "function"
    },
    {
      "inputs": [],
      "name": "decimals",
      "outputs": [
        {
          "internalType": "uint8",
          "name": "",
          "type": "uint8"
        }
      ],
      "stateMutability": "view",
      "type": "function"
    },
    {
      "inputs": [
        {
          "internalType": "address",
          "name": "spender",
          "type": "address"
        },
        {
          "internalType": "uint256",
          "name": "subtractedValue",
          "type": "uint256"
        }
      ],
      "name": "decreaseAllowance",
      "outputs": [
        {
          "internalType": "bool",
          "name": "",
          "type": "bool"
        }
      ],
      "stateMutability": "nonpayable",
      "type": "function"
    },
    {
      "inputs": [
        {
          "internalType": "uint256",
          "name": "amount",
          "type": "uint256"
        }
      ],
      "name": "deposit",
      "outputs": [],
      "stateMutability": "nonpayable",
      "type": "function"
    },
    {
      "inputs": [
        {
          "internalType": "address",
          "name": "spender",
          "type": "address"
        },
        {
          "internalType": "uint256",
          "name": "addedValue",
          "type": "uint256"
        }
      ],
      "name": "increaseAllowance",
      "outputs": [
        {
          "internalType": "bool",
          "name": "",
          "type": "bool"
        }
      ],
      "stateMutability": "nonpayable",
      "type": "function"
    },
    {
      "inputs": [
        {
          "internalType": "contract IERC20",
          "name": "_settlementToken",
          "type": "address"
        },
        {
          "internalType": "contract IClearingHouse",
          "name": "_clearingHouse",
          "type": "address"
        },
        {
          "internalType": "string",
          "name": "name",
          "type": "string"
        },
        {
          "internalType": "string",
          "name": "symbol",
          "type": "string"
        }
      ],
      "name": "initialize",
      "outputs": [],
      "stateMutability": "nonpayable",
      "type": "function"
    },
    {
      "inputs": [],
      "name": "name",
      "outputs": [
        {
          "internalType": "string",
          "name": "",
          "type": "string"
        }
      ],
      "stateMutability": "view",
      "type": "function"
    },
    {
      "inputs": [],
      "name": "settlementToken",
      "outputs": [
        {
          "internalType": "contract IERC20",
          "name": "",
          "type": "address"
        }
      ],
      "stateMutability": "view",
      "type": "function"
    },
    {
      "inputs": [],
      "name": "symbol",
      "outputs": [
        {
          "internalType": "string",
          "name": "",
          "type": "string"
        }
      ],
      "stateMutability": "view",
      "type": "function"
    },
    {
      "inputs": [],
      "name": "totalSupply",
      "outputs": [
        {
          "internalType": "uint256",
          "name": "",
          "type": "uint256"
        }
      ],
      "stateMutability": "view",
      "type": "function"
    },
    {
      "inputs": [
        {
          "internalType": "address",
          "name": "to",
          "type": "address"
        },
        {
          "internalType": "uint256",
          "name": "amount",
          "type": "uint256"
        }
      ],
      "name": "transfer",
      "outputs": [
        {
          "internalType": "bool",
          "name": "",
          "type": "bool"
        }
      ],
      "stateMutability": "nonpayable",
      "type": "function"
    },
    {
      "inputs": [
        {
          "internalType": "address",
          "name": "from",
          "type": "address"
        },
        {
          "internalType": "address",
          "name": "to",
          "type": "address"
        },
        {
          "internalType": "uint256",
          "name": "amount",
          "type": "uint256"
        }
      ],
      "name": "transferFrom",
      "outputs": [
        {
          "internalType": "bool",
          "name": "",
          "type": "bool"
        }
      ],
      "stateMutability": "nonpayable",
      "type": "function"
    },
    {
      "inputs": [
        {
          "internalType": "uint256",
          "name": "shares",
          "type": "uint256"
        }
      ],
      "name": "withdraw",
      "outputs": [],
      "stateMutability": "nonpayable",
      "type": "function"
    }
  ],
  "transactionHash": "0xf716d5a9202448f2d1250af642c7e4f6e777a92b1bcb1290deb7bbdc17bec588",
  "args": [],
  "numDeployments": 1,
  "solcInputHash": "2c50e072ceda0977404e9919cebb71fa",
  "bytecode": "0x608060405234801561001057600080fd5b5061163d806100206000396000f3fe608060405234801561001057600080fd5b506004361061011b5760003560e01c8063379607f5116100b257806395d89b4111610081578063a9059cbb11610066578063a9059cbb14610265578063b6b55f2514610278578063dd62ed3e1461028b57600080fd5b806395d89b411461024a578063a457c2d71461025257600080fd5b8063379607f5146101e857806339509351146101fb57806370a082311461020e5780637b9e618d1461023757600080fd5b80632016a0d2116100ee5780632016a0d21461019e57806323b872dd146101b35780632e1a7d4d146101c6578063313ce567146101d957600080fd5b806306fdde0314610120578063095ea7b31461013e5780630af968001461016157806318160ddd1461018c575b600080fd5b6101286102c4565b60405161013591906112ee565b60405180910390f35b61015161014c366004611336565b610356565b6040519015158152602001610135565b606654610174906001600160a01b031681565b6040516001600160a01b039091168152602001610135565b6035545b604051908152602001610135565b6101b16101ac3660046113ab565b61036e565b005b6101516101c1366004611440565b6104fa565b6101b16101d4366004611481565b610520565b60405160128152602001610135565b6101b16101f6366004611481565b6105dc565b610151610209366004611336565b610621565b61019061021c36600461149a565b6001600160a01b031660009081526033602052604090205490565b606554610174906001600160a01b031681565b610128610660565b610151610260366004611336565b61066f565b610151610273366004611336565b610724565b6101b1610286366004611481565b610732565b6101906102993660046114b7565b6001600160a01b03918216600090815260346020908152604080832093909416825291909152205490565b6060603680546102d3906114f0565b80601f01602080910402602001604051908101604052809291908181526020018280546102ff906114f0565b801561034c5780601f106103215761010080835404028352916020019161034c565b820191906000526020600020905b81548152906001019060200180831161032f57829003601f168201915b5050505050905090565b600033610364818585610801565b5060019392505050565b600054610100900460ff166103895760005460ff161561038d565b303b155b6104045760405162461bcd60e51b815260206004820152602e60248201527f496e697469616c697a61626c653a20636f6e747261637420697320616c72656160448201527f647920696e697469616c697a656400000000000000000000000000000000000060648201526084015b60405180910390fd5b600054610100900460ff16158015610426576000805461ffff19166101011790555b606580546001600160a01b03808a167fffffffffffffffffffffffff0000000000000000000000000000000000000000928316179092556066805492891692909116919091179055604080516020601f87018190048102820181019092528581526104df91879087908190840183828082843760009201919091525050604080516020601f8901819004810282018101909252878152925087915086908190840183828082843760009201919091525061092692505050565b80156104f1576000805461ff00191690555b50505050505050565b60003361050885828561099f565b610513858585610a2b565b60019150505b9392505050565b6065546040516370a0823160e01b81523060048201526000916001600160a01b0316906370a0823190602401602060405180830381865afa158015610569573d6000803e3d6000fd5b505050506040513d601f19601f8201168201806040525081019061058d919061152a565b9050600061059a60355490565b90506000816105a98486611559565b6105b39190611578565b90506105bf3385610c28565b6065546105d6906001600160a01b03163383610d73565b50505050565b6066546001600160a01b0316331461060757604051636bd1573560e11b815260040160405180910390fd5b60655461061e906001600160a01b03163383610d73565b50565b3360008181526034602090815260408083206001600160a01b0387168452909152812054909190610364908290869061065b90879061159a565b610801565b6060603780546102d3906114f0565b3360008181526034602090815260408083206001600160a01b03871684529091528120549091908381101561070c5760405162461bcd60e51b815260206004820152602560248201527f45524332303a2064656372656173656420616c6c6f77616e63652062656c6f7760448201527f207a65726f00000000000000000000000000000000000000000000000000000060648201526084016103fb565b6107198286868403610801565b506001949350505050565b600033610364818585610a2b565b6065546040516370a0823160e01b81523060048201526000916001600160a01b0316906370a0823190602401602060405180830381865afa15801561077b573d6000803e3d6000fd5b505050506040513d601f19601f8201168201806040525081019061079f919061152a565b905060006107ac60355490565b905060008115806107bb575082155b156107c75750826107df565b826107d28386611559565b6107dc9190611578565b90505b6065546107f7906001600160a01b0316333087610e03565b6105d63382610e3b565b6001600160a01b0383166108635760405162461bcd60e51b8152602060048201526024808201527f45524332303a20617070726f76652066726f6d20746865207a65726f206164646044820152637265737360e01b60648201526084016103fb565b6001600160a01b0382166108c45760405162461bcd60e51b815260206004820152602260248201527f45524332303a20617070726f766520746f20746865207a65726f206164647265604482015261737360f01b60648201526084016103fb565b6001600160a01b0383811660008181526034602090815260408083209487168084529482529182902085905590518481527f8c5be1e5ebec7d5bd14f71427d1e84f3dd0314c0f7b2291e5b200ac8c7c3b92591015b60405180910390a3505050565b600054610100900460ff166109915760405162461bcd60e51b815260206004820152602b60248201527f496e697469616c697a61626c653a20636f6e7472616374206973206e6f74206960448201526a6e697469616c697a696e6760a81b60648201526084016103fb565b61099b8282610f1a565b5050565b6001600160a01b0383811660009081526034602090815260408083209386168352929052205460001981146105d65781811015610a1e5760405162461bcd60e51b815260206004820152601d60248201527f45524332303a20696e73756666696369656e7420616c6c6f77616e636500000060448201526064016103fb565b6105d68484848403610801565b6001600160a01b038316610aa75760405162461bcd60e51b815260206004820152602560248201527f45524332303a207472616e736665722066726f6d20746865207a65726f20616460448201527f647265737300000000000000000000000000000000000000000000000000000060648201526084016103fb565b6001600160a01b038216610b095760405162461bcd60e51b815260206004820152602360248201527f45524332303a207472616e7366657220746f20746865207a65726f206164647260448201526265737360e81b60648201526084016103fb565b6001600160a01b03831660009081526033602052604090205481811015610b985760405162461bcd60e51b815260206004820152602660248201527f45524332303a207472616e7366657220616d6f756e742065786365656473206260448201527f616c616e6365000000000000000000000000000000000000000000000000000060648201526084016103fb565b6001600160a01b03808516600090815260336020526040808220858503905591851681529081208054849290610bcf90849061159a565b92505081905550826001600160a01b0316846001600160a01b03167fddf252ad1be2c89b69c2b068fc378daa952ba7f163c4a11628f55a4df523b3ef84604051610c1b91815260200190565b60405180910390a36105d6565b6001600160a01b038216610c885760405162461bcd60e51b815260206004820152602160248201527f45524332303a206275726e2066726f6d20746865207a65726f206164647265736044820152607360f81b60648201526084016103fb565b6001600160a01b03821660009081526033602052604090205481811015610cfc5760405162461bcd60e51b815260206004820152602260248201527f45524332303a206275726e20616d6f756e7420657863656564732062616c616e604482015261636560f01b60648201526084016103fb565b6001600160a01b0383166000908152603360205260408120838303905560358054849290610d2b9084906115b2565b90915550506040518281526000906001600160a01b038516907fddf252ad1be2c89b69c2b068fc378daa952ba7f163c4a11628f55a4df523b3ef90602001610919565b505050565b6040516001600160a01b038316602482015260448101829052610d6e90849063a9059cbb60e01b906064015b60408051601f198184030181529190526020810180517bffffffffffffffffffffffffffffffffffffffffffffffffffffffff167fffffffff0000000000000000000000000000000000000000000000000000000090931692909217909152610fac565b6040516001600160a01b03808516602483015283166044820152606481018290526105d69085906323b872dd60e01b90608401610d9f565b6001600160a01b038216610e915760405162461bcd60e51b815260206004820152601f60248201527f45524332303a206d696e7420746f20746865207a65726f20616464726573730060448201526064016103fb565b8060356000828254610ea3919061159a565b90915550506001600160a01b03821660009081526033602052604081208054839290610ed090849061159a565b90915550506040518181526001600160a01b038316906000907fddf252ad1be2c89b69c2b068fc378daa952ba7f163c4a11628f55a4df523b3ef9060200160405180910390a35050565b600054610100900460ff16610f855760405162461bcd60e51b815260206004820152602b60248201527f496e697469616c697a61626c653a20636f6e7472616374206973206e6f74206960448201526a6e697469616c697a696e6760a81b60648201526084016103fb565b8151610f98906036906020850190611229565b508051610d6e906037906020840190611229565b6000611001826040518060400160405280602081526020017f5361666545524332303a206c6f772d6c6576656c2063616c6c206661696c6564815250856001600160a01b03166110919092919063ffffffff16565b805190915015610d6e578080602001905181019061101f91906115c9565b610d6e5760405162461bcd60e51b815260206004820152602a60248201527f5361666545524332303a204552433230206f7065726174696f6e20646964206e60448201527f6f7420737563636565640000000000000000000000000000000000000000000060648201526084016103fb565b60606110a084846000856110a8565b949350505050565b6060824710156111205760405162461bcd60e51b815260206004820152602660248201527f416464726573733a20696e73756666696369656e742062616c616e636520666f60448201527f722063616c6c000000000000000000000000000000000000000000000000000060648201526084016103fb565b6001600160a01b0385163b6111775760405162461bcd60e51b815260206004820152601d60248201527f416464726573733a2063616c6c20746f206e6f6e2d636f6e747261637400000060448201526064016103fb565b600080866001600160a01b0316858760405161119391906115eb565b60006040518083038185875af1925050503d80600081146111d0576040519150601f19603f3d011682016040523d82523d6000602084013e6111d5565b606091505b50915091506111e58282866111f0565b979650505050505050565b606083156111ff575081610519565b82511561120f5782518084602001fd5b8160405162461bcd60e51b81526004016103fb91906112ee565b828054611235906114f0565b90600052602060002090601f016020900481019282611257576000855561129d565b82601f1061127057805160ff191683800117855561129d565b8280016001018555821561129d579182015b8281111561129d578251825591602001919060010190611282565b506112a99291506112ad565b5090565b5b808211156112a957600081556001016112ae565b60005b838110156112dd5781810151838201526020016112c5565b838111156105d65750506000910152565b602081526000825180602084015261130d8160408501602087016112c2565b601f01601f19169190910160400192915050565b6001600160a01b038116811461061e57600080fd5b6000806040838503121561134957600080fd5b823561135481611321565b946020939093013593505050565b60008083601f84011261137457600080fd5b50813567ffffffffffffffff81111561138c57600080fd5b6020830191508360208285010111156113a457600080fd5b9250929050565b600080600080600080608087890312156113c457600080fd5b86356113cf81611321565b955060208701356113df81611321565b9450604087013567ffffffffffffffff808211156113fc57600080fd5b6114088a838b01611362565b9096509450606089013591508082111561142157600080fd5b5061142e89828a01611362565b979a9699509497509295939492505050565b60008060006060848603121561145557600080fd5b833561146081611321565b9250602084013561147081611321565b929592945050506040919091013590565b60006020828403121561149357600080fd5b5035919050565b6000602082840312156114ac57600080fd5b813561051981611321565b600080604083850312156114ca57600080fd5b82356114d581611321565b915060208301356114e581611321565b809150509250929050565b600181811c9082168061150457607f821691505b60208210810361152457634e487b7160e01b600052602260045260246000fd5b50919050565b60006020828403121561153c57600080fd5b5051919050565b634e487b7160e01b600052601160045260246000fd5b600081600019048311821515161561157357611573611543565b500290565b60008261159557634e487b7160e01b600052601260045260246000fd5b500490565b600082198211156115ad576115ad611543565b500190565b6000828210156115c4576115c4611543565b500390565b6000602082840312156115db57600080fd5b8151801515811461051957600080fd5b600082516115fd8184602087016112c2565b919091019291505056fea264697066735822122071be0ca8b5d58db975caee2a6365d69b1096eb686a0ab1c52022a8c620a396dc64736f6c634300080d0033",
  "userdoc": {
    "kind": "user",
    "methods": {
      "initialize(address,address,string,string)": {
        "notice": "Initializer for Insurance Fund"
      }
    },
    "version": 1
  },
  "storageLayout": {
    "storage": [
      {
        "astId": 93,
        "contract": "contracts/protocol/insurancefund/InsuranceFund.sol:InsuranceFund",
        "label": "_initialized",
        "offset": 0,
        "slot": "0",
        "type": "t_bool"
      },
      {
        "astId": 96,
        "contract": "contracts/protocol/insurancefund/InsuranceFund.sol:InsuranceFund",
        "label": "_initializing",
        "offset": 1,
        "slot": "0",
        "type": "t_bool"
      },
      {
        "astId": 1271,
        "contract": "contracts/protocol/insurancefund/InsuranceFund.sol:InsuranceFund",
        "label": "__gap",
        "offset": 0,
        "slot": "1",
        "type": "t_array(t_uint256)50_storage"
      },
      {
        "astId": 290,
        "contract": "contracts/protocol/insurancefund/InsuranceFund.sol:InsuranceFund",
        "label": "_balances",
        "offset": 0,
        "slot": "51",
        "type": "t_mapping(t_address,t_uint256)"
      },
      {
        "astId": 296,
        "contract": "contracts/protocol/insurancefund/InsuranceFund.sol:InsuranceFund",
        "label": "_allowances",
        "offset": 0,
        "slot": "52",
        "type": "t_mapping(t_address,t_mapping(t_address,t_uint256))"
      },
      {
        "astId": 298,
        "contract": "contracts/protocol/insurancefund/InsuranceFund.sol:InsuranceFund",
        "label": "_totalSupply",
        "offset": 0,
        "slot": "53",
        "type": "t_uint256"
      },
      {
        "astId": 300,
        "contract": "contracts/protocol/insurancefund/InsuranceFund.sol:InsuranceFund",
        "label": "_name",
        "offset": 0,
        "slot": "54",
        "type": "t_string_storage"
      },
      {
        "astId": 302,
        "contract": "contracts/protocol/insurancefund/InsuranceFund.sol:InsuranceFund",
        "label": "_symbol",
        "offset": 0,
        "slot": "55",
        "type": "t_string_storage"
      },
      {
        "astId": 883,
        "contract": "contracts/protocol/insurancefund/InsuranceFund.sol:InsuranceFund",
        "label": "__gap",
        "offset": 0,
        "slot": "56",
        "type": "t_array(t_uint256)45_storage"
      },
      {
        "astId": 22404,
        "contract": "contracts/protocol/insurancefund/InsuranceFund.sol:InsuranceFund",
        "label": "settlementToken",
        "offset": 0,
        "slot": "101",
        "type": "t_contract(IERC20)4189"
      },
      {
        "astId": 22407,
        "contract": "contracts/protocol/insurancefund/InsuranceFund.sol:InsuranceFund",
        "label": "clearingHouse",
        "offset": 0,
        "slot": "102",
        "type": "t_contract(IClearingHouse)8911"
      }
    ],
    "types": {
      "t_address": {
        "encoding": "inplace",
        "label": "address",
        "numberOfBytes": "20"
      },
      "t_array(t_uint256)45_storage": {
        "base": "t_uint256",
        "encoding": "inplace",
        "label": "uint256[45]",
        "numberOfBytes": "1440"
      },
      "t_array(t_uint256)50_storage": {
        "base": "t_uint256",
        "encoding": "inplace",
        "label": "uint256[50]",
        "numberOfBytes": "1600"
      },
      "t_bool": {
        "encoding": "inplace",
        "label": "bool",
        "numberOfBytes": "1"
      },
      "t_contract(IClearingHouse)8911": {
        "encoding": "inplace",
        "label": "contract IClearingHouse",
        "numberOfBytes": "20"
      },
      "t_contract(IERC20)4189": {
        "encoding": "inplace",
        "label": "contract IERC20",
        "numberOfBytes": "20"
      },
      "t_mapping(t_address,t_mapping(t_address,t_uint256))": {
        "encoding": "mapping",
        "key": "t_address",
        "label": "mapping(address => mapping(address => uint256))",
        "numberOfBytes": "32",
        "value": "t_mapping(t_address,t_uint256)"
      },
      "t_mapping(t_address,t_uint256)": {
        "encoding": "mapping",
        "key": "t_address",
        "label": "mapping(address => uint256)",
        "numberOfBytes": "32",
        "value": "t_uint256"
      },
      "t_string_storage": {
        "encoding": "bytes",
        "label": "string",
        "numberOfBytes": "32"
      },
      "t_uint256": {
        "encoding": "inplace",
        "label": "uint256",
        "numberOfBytes": "32"
      }
    }
  }
}