{
  "address": "0xD6C270406679C597b32887d5d702bEb248bAF65A",
  "abi": [
    {
      "inputs": [
        {
          "internalType": "address",
          "name": "clearingHouseLogicAddress",
          "type": "address"
        },
        {
          "internalType": "address",
          "name": "_vPoolWrapperLogicAddress",
          "type": "address"
        },
        {
          "internalType": "address",
          "name": "insuranceFundLogicAddress",
          "type": "address"
        },
        {
          "internalType": "contract IERC20Metadata",
          "name": "settlementToken",
          "type": "address"
        }
      ],
      "stateMutability": "nonpayable",
      "type": "constructor"
    },
    {
      "inputs": [
        {
          "internalType": "address",
          "name": "addr",
          "type": "address"
        }
      ],
      "name": "IllegalAddress",
      "type": "error"
    },
    {
      "inputs": [
        {
          "internalType": "uint256",
          "name": "y_target",
          "type": "uint256"
        },
        {
          "internalType": "uint160",
          "name": "x_lower",
          "type": "uint160"
        },
        {
          "internalType": "uint160",
          "name": "x_upper",
          "type": "uint160"
        }
      ],
      "name": "SolutionOutOfBounds",
      "type": "error"
    },
    {
      "inputs": [],
      "name": "Unauthorised",
      "type": "error"
    },
    {
      "inputs": [],
      "name": "ZeroAddress",
      "type": "error"
    },
    {
      "anonymous": false,
      "inputs": [
        {
          "indexed": true,
          "internalType": "address",
          "name": "previousGovernance",
          "type": "address"
        },
        {
          "indexed": true,
          "internalType": "address",
          "name": "newGovernance",
          "type": "address"
        }
      ],
      "name": "GovernanceTransferred",
      "type": "event"
    },
    {
      "anonymous": false,
      "inputs": [
        {
          "indexed": false,
          "internalType": "contract IUniswapV3Pool",
          "name": "vPool",
          "type": "address"
        },
        {
          "indexed": false,
          "internalType": "contract IVToken",
          "name": "vToken",
          "type": "address"
        },
        {
          "indexed": false,
          "internalType": "contract IVPoolWrapper",
          "name": "vPoolWrapper",
          "type": "address"
        }
      ],
      "name": "PoolInitialized",
      "type": "event"
    },
    {
      "anonymous": false,
      "inputs": [
        {
          "indexed": true,
          "internalType": "address",
          "name": "previousTeamMultisig",
          "type": "address"
        },
        {
          "indexed": true,
          "internalType": "address",
          "name": "newTeamMultisig",
          "type": "address"
        }
      ],
      "name": "TeamMultisigTransferred",
      "type": "event"
    },
    {
      "inputs": [],
      "name": "clearingHouse",
      "outputs": [
        {
          "internalType": "contract IClearingHouse",
          "name": "",
          "type": "address"
        }
      ],
      "stateMutability": "view",
      "type": "function"
    },
    {
      "inputs": [],
      "name": "governance",
      "outputs": [
        {
          "internalType": "address",
          "name": "",
          "type": "address"
        }
      ],
      "stateMutability": "view",
      "type": "function"
    },
    {
      "inputs": [
        {
          "components": [
            {
              "components": [
                {
                  "internalType": "string",
                  "name": "vTokenName",
                  "type": "string"
                },
                {
                  "internalType": "string",
                  "name": "vTokenSymbol",
                  "type": "string"
                },
                {
                  "internalType": "uint8",
                  "name": "cTokenDecimals",
                  "type": "uint8"
                }
              ],
              "internalType": "struct VTokenDeployer.DeployVTokenParams",
              "name": "deployVTokenParams",
              "type": "tuple"
            },
            {
              "components": [
                {
                  "internalType": "uint16",
                  "name": "initialMarginRatioBps",
                  "type": "uint16"
                },
                {
                  "internalType": "uint16",
                  "name": "maintainanceMarginRatioBps",
                  "type": "uint16"
                },
                {
                  "internalType": "uint16",
                  "name": "maxVirtualPriceDeviationRatioBps",
                  "type": "uint16"
                },
                {
                  "internalType": "uint32",
                  "name": "twapDuration",
                  "type": "uint32"
                },
                {
                  "internalType": "bool",
                  "name": "isAllowedForTrade",
                  "type": "bool"
                },
                {
                  "internalType": "bool",
                  "name": "isCrossMargined",
                  "type": "bool"
                },
                {
                  "internalType": "contract IOracle",
                  "name": "oracle",
                  "type": "address"
                }
              ],
              "internalType": "struct IClearingHouseStructures.PoolSettings",
              "name": "poolInitialSettings",
              "type": "tuple"
            },
            {
              "internalType": "uint24",
              "name": "liquidityFeePips",
              "type": "uint24"
            },
            {
              "internalType": "uint24",
              "name": "protocolFeePips",
              "type": "uint24"
            },
            {
              "internalType": "uint16",
              "name": "slotsToInitialize",
              "type": "uint16"
            }
          ],
          "internalType": "struct RageTradeFactory.InitializePoolParams",
          "name": "initializePoolParams",
          "type": "tuple"
        }
      ],
      "name": "initializePool",
      "outputs": [],
      "stateMutability": "nonpayable",
      "type": "function"
    },
    {
      "inputs": [],
      "name": "proxyAdmin",
      "outputs": [
        {
          "internalType": "contract ProxyAdmin",
          "name": "",
          "type": "address"
        }
      ],
      "stateMutability": "view",
      "type": "function"
    },
    {
      "inputs": [
        {
          "internalType": "address",
          "name": "_vPoolWrapperLogicAddress",
          "type": "address"
        }
      ],
      "name": "setVPoolWrapperLogicAddress",
      "outputs": [],
      "stateMutability": "nonpayable",
      "type": "function"
    },
    {
      "inputs": [],
      "name": "teamMultisig",
      "outputs": [
        {
          "internalType": "address",
          "name": "",
          "type": "address"
        }
      ],
      "stateMutability": "view",
      "type": "function"
    },
    {
      "inputs": [
        {
          "internalType": "address",
          "name": "newGovernance",
          "type": "address"
        }
      ],
      "name": "transferGovernance",
      "outputs": [],
      "stateMutability": "nonpayable",
      "type": "function"
    },
    {
      "inputs": [
        {
          "internalType": "address",
          "name": "newTeamMultisig",
          "type": "address"
        }
      ],
      "name": "transferTeamMultisig",
      "outputs": [],
      "stateMutability": "nonpayable",
      "type": "function"
    },
    {
      "inputs": [],
      "name": "vPoolWrapperLogicAddress",
      "outputs": [
        {
          "internalType": "address",
          "name": "",
          "type": "address"
        }
      ],
      "stateMutability": "view",
      "type": "function"
    },
    {
      "inputs": [],
      "name": "vQuote",
      "outputs": [
        {
          "internalType": "contract IVQuote",
          "name": "",
          "type": "address"
        }
      ],
      "stateMutability": "view",
      "type": "function"
    }
  ],
  "transactionHash": "0x7d2121558281a4c4a4c349643d38e107e3ae670bba2178bd89ff7924c064d041",
  "args": [
    "0x96e07f86f7929a45034CbD5e49E4a3c4B90cf836",
    "0x3dc73f9b83ADBEB499f1058e1AddCe57b1755567",
    "0xdE060Ffce8254A2D63E06e5f0de119F669577Af5",
    "0x33a010E74A354bd784a62cca3A4047C1A84Ceeab"
  ],
  "numDeployments": 1,
  "solcInputHash": "9d3f6a0132a46af92b891a675524b4d4",
  "bytecode": "0x60c06040523480156200001157600080fd5b5060405162006da538038062006da5833981016040819052620000349162000a9f565b826200003f620002d6565b603680546001600160a01b0319166001600160a01b039290921691909117905562000069620003a6565b603580546001600160a01b0319166001600160a01b0392909216918217905560405163f2fde38b60e01b815233600482015263f2fde38b90602401600060405180830381600087803b158015620000bf57600080fd5b505af1158015620000d4573d6000803e3d6000fd5b5050505062000147816001600160a01b031663313ce5676040518163ffffffff1660e01b8152600401602060405180830381865afa1580156200011b573d6000803e3d6000fd5b505050506040513d601f19601f8201168201806040525081019062000141919062000b07565b620003d9565b6001600160a01b03166080526000620001608362000464565b90506000604051620001729062000a52565b604051809103906000f0801580156200018f573d6000803e3d6000fd5b509050620001f86040518060a00160405280886001600160a01b03168152602001856001600160a01b03168152602001836001600160a01b03168152602001846001600160a01b031681526020016080516001600160a01b0316815250620004d160201b60201c565b6001600160a01b031660a08190526040516334e2fffd60e21b815233600482015263d38bfff490602401600060405180830381600087803b1580156200023d57600080fd5b505af115801562000252573d6000803e3d6000fd5b505060a051604051637f64d66360e01b81523360048201526001600160a01b039091169250637f64d6639150602401600060405180830381600087803b1580156200029c57600080fd5b505af1158015620002b1573d6000803e3d6000fd5b50505050620002ca828460a0516200056a60201b60201c565b50505050505062000c1d565b600054610100900460ff16620002f35760005460ff1615620002fd565b620002fd62000630565b620003555760405162461bcd60e51b815260206004820152602e602482015260008051602062006d8583398151915260448201526d191e481a5b9a5d1a585b1a5e995960921b60648201526084015b60405180910390fd5b600054610100900460ff1615801562000378576000805461ffff19166101011790555b620003826200064e565b336200038f8180620006bd565b508015620003a3576000805461ff00191690555b50565b6000604051620003b69062000a5f565b604051809103906000f080158015620003d3573d6000803e3d6000fd5b50905090565b60006200045e600060405180602001620003f39062000a6d565b601f1982820381018352601f90910116604081815260ff871660208301520160408051601f198184030181529082905262000432929160200162000b5f565b6040516020818303038152906040526200080560201b620008b7176200081160201b620008c31760201c565b92915050565b60355460405160009183916001600160a01b0390911690620004869062000a7b565b6001600160a01b039283168152911660208201526060604082018190526000908201526080015b604051809103906000f080158015620004ca573d6000803e3d6000fd5b5092915050565b805160355460208301516040808501516060860151608087015192513060248201526001600160a01b03948516604482015291841660648301528316608482015290821660a482015260009392919091169060c40160408051601f198184030181529181526020820180516001600160e01b0316630a2ca2bd60e11b179052516200055c9062000a7b565b620004ad9392919062000b92565b60405163100b506960e11b81526001600160a01b038381166004830152828116602483015260806044830152601a60848301527f5261676554726164652069536574746c656d656e74546f6b656e00000000000060a483015260c06064830152601060c48301526f34a9b2ba3a3632b6b2b73a2a37b5b2b760811b60e4830152841690632016a0d29061010401600060405180830381600087803b1580156200061257600080fd5b505af115801562000627573d6000803e3d6000fd5b50505050505050565b600062000648306200083660201b620008ea1760201c565b15905090565b600054610100900460ff16620006bb5760405162461bcd60e51b815260206004820152602b60248201527f496e697469616c697a61626c653a20636f6e7472616374206973206e6f74206960448201526a6e697469616c697a696e6760a81b60648201526084016200034c565b565b600054610100900460ff16620006da5760005460ff1615620006e4565b620006e462000630565b620007385760405162461bcd60e51b815260206004820152602e602482015260008051602062006d8583398151915260448201526d191e481a5b9a5d1a585b1a5e995960921b60648201526084016200034c565b600054610100900460ff161580156200075b576000805461ffff19166101011790555b603380546001600160a01b0319166001600160a01b0385169081179091556040516000907f5f56bee8cffbe9a78652a74a60705edede02af10b0bbb888ca44b79a0d42ce80908290a3603480546001600160a01b0319166001600160a01b0384169081179091556040516000907f39355f2f5c8206286978f443aa8126bbd29fa09c53c04569502647f3a59c8cb2908290a3801562000800576000805461ff00191690555b505050565b609c1c600f9081161490565b60006200082e8484846200082760014362000be1565b4062000845565b949350505050565b6001600160a01b03163b151590565b825160208401206000905b6200086a8360001b82620008d560201b620008f91760201c565b915062000877828560201c565b620008885760019092019162000850565b6000620008a5878560001b886200094760201b6200096e1760201c565b9050806001600160a01b0316836001600160a01b031614620008cb57620008cb62000c07565b5050949350505050565b604080517fff000000000000000000000000000000000000000000000000000000000000006020808301919091526001600160601b03193060601b16602183015260358201859052605580830185905283518084039091018152607590920190925280519101206000905b9392505050565b600080844710156200099c5760405162461bcd60e51b815260206004820152601d60248201527f437265617465323a20696e73756666696369656e742062616c616e636500000060448201526064016200034c565b8251600003620009ef5760405162461bcd60e51b815260206004820181905260248201527f437265617465323a2062797465636f6465206c656e677468206973207a65726f60448201526064016200034c565b8383516020850187f590506001600160a01b0381166200082e5760405162461bcd60e51b815260206004820152601960248201527f437265617465323a204661696c6564206f6e206465706c6f790000000000000060448201526064016200034c565b60e0806200426283390190565b610888806200434283390190565b61122b8062004bca83390190565b610f908062005df583390190565b6001600160a01b0381168114620003a357600080fd5b6000806000806080858703121562000ab657600080fd5b845162000ac38162000a89565b602086015190945062000ad68162000a89565b604086015190935062000ae98162000a89565b606086015190925062000afc8162000a89565b939692955090935050565b60006020828403121562000b1a57600080fd5b815160ff811681146200094057600080fd5b60005b8381101562000b4957818101518382015260200162000b2f565b8381111562000b59576000848401525b50505050565b6000835162000b7381846020880162000b2c565b83519083019062000b8981836020880162000b2c565b01949350505050565b600060018060a01b03808616835280851660208401525060606040830152825180606084015262000bcb81608085016020870162000b2c565b601f01601f191691909101608001949350505050565b60008282101562000c0257634e487b7160e01b600052601160045260246000fd5b500390565b634e487b7160e01b600052600160045260246000fd5b60805160a0516135ef62000c736000396000818160d8015281816105f9015281816107950152610de201526000818161014901528181610637015281816106d601528181610b3d0152610d8b01526135ef6000f3fe60806040523480156200001157600080fd5b5060043610620000cd5760003560e01c80637f64d663116200007f578063dbc0c0851162000062578063dbc0c08514620001ab578063df6c157314620001bd578063fc34409914620001d457600080fd5b80637f64d663146200017d578063d38bfff4146200019457600080fd5b80633e47158c11620000b45780633e47158c146200012f5780634bc36bd614620001435780635aa6e675146200016b57600080fd5b80630af9680014620000d2578063255034a91462000116575b600080fd5b620000fa7f000000000000000000000000000000000000000000000000000000000000000081565b6040516001600160a01b03909116815260200160405180910390f35b6200012d6200012736600462001096565b620001e8565b005b603554620000fa906001600160a01b031681565b620000fa7f000000000000000000000000000000000000000000000000000000000000000081565b6033546001600160a01b0316620000fa565b6200012d6200018e36600462001096565b62000273565b6200012d620001a536600462001096565b6200034a565b6034546001600160a01b0316620000fa565b6200012d620001ce366004620010b6565b62000407565b603654620000fa906001600160a01b031681565b6033546001600160a01b031633146200021457604051636bd1573560e11b815260040160405180910390fd5b6001600160a01b0381166200024457604051630562997d60e41b8152600060048201526024015b60405180910390fd5b6036805473ffffffffffffffffffffffffffffffffffffffff19166001600160a01b0392909216919091179055565b6034546001600160a01b031633148015906200029a57506033546001600160a01b03163314155b15620002b957604051636bd1573560e11b815260040160405180910390fd5b6001600160a01b038116620002e15760405163d92e233d60e01b815260040160405180910390fd5b6034546040516001600160a01b038084169216907f39355f2f5c8206286978f443aa8126bbd29fa09c53c04569502647f3a59c8cb290600090a36034805473ffffffffffffffffffffffffffffffffffffffff19166001600160a01b0392909216919091179055565b6033546001600160a01b031633146200037657604051636bd1573560e11b815260040160405180910390fd5b6001600160a01b0381166200039e5760405163d92e233d60e01b815260040160405180910390fd5b6033546040516001600160a01b038084169216907f5f56bee8cffbe9a78652a74a60705edede02af10b0bbb888ca44b79a0d42ce8090600090a36033805473ffffffffffffffffffffffffffffffffffffffff19166001600160a01b0392909216919091179055565b6033546001600160a01b031633146200043357604051636bd1573560e11b815260040160405180910390fd5b60006200044b620004458380620010f5565b62000a79565b905060006200045a8262000b26565b90506001600160a01b03811663f637731d6200051162000482610100870160e0880162001096565b6001600160a01b031663dd86c101620004a260a0890160808a016200113d565b6040516001600160e01b031960e084901b16815263ffffffff919091166004820152602401602060405180830381865afa158015620004e5573d6000803e3d6000fd5b505050506040513d601f19601f820116820180604052508101906200050b91906200115b565b62000be0565b6040516001600160e01b031960e084901b1681526001600160a01b039091166004820152602401600060405180830381600087803b1580156200055357600080fd5b505af115801562000568573d6000803e3d6000fd5b5050506001600160a01b03821690506332148f67620005906101608601610140870162001188565b6040516001600160e01b031960e084901b16815261ffff9091166004820152602401600060405180830381600087803b158015620005cd57600080fd5b505af1158015620005e2573d6000803e3d6000fd5b505050506000620006b46040518060c001604052807f00000000000000000000000000000000000000000000000000000000000000006001600160a01b03168152602001856001600160a01b031681526020017f00000000000000000000000000000000000000000000000000000000000000006001600160a01b03168152602001846001600160a01b0316815260200186610100016020810190620006899190620011a6565b62ffffff168152602001620006a761014088016101208901620011a6565b62ffffff16905262000c18565b604051635b52ebef60e11b81526001600160a01b0380831660048301529192507f00000000000000000000000000000000000000000000000000000000000000009091169063b6a5d7de90602401600060405180830381600087803b1580156200071d57600080fd5b505af115801562000732573d6000803e3d6000fd5b5050604051636bd6da7f60e11b81526001600160a01b0384811660048301528616925063d7adb4fe9150602401600060405180830381600087803b1580156200077a57600080fd5b505af11580156200078f573d6000803e3d6000fd5b505050507f00000000000000000000000000000000000000000000000000000000000000006001600160a01b0316633ffe794c6040518060800160405280866001600160a01b03168152602001856001600160a01b03168152602001846001600160a01b0316815260200187602001803603810190620008109190620011e9565b8152506040518263ffffffff1660e01b8152600401620008319190620012b7565b600060405180830381600087803b1580156200084c57600080fd5b505af115801562000861573d6000803e3d6000fd5b5050604080516001600160a01b038681168252878116602083015285168183015290517fb2684e1b8e116bbb42a14d7a6bc6afa19d85ff0a8666a6b424b79a738c661d819350908190036060019150a150505050565b609c1c600f9081161490565b6000620008e0848484620008d960014362001373565b4062000cfe565b90505b9392505050565b6001600160a01b03163b151590565b604080517fff000000000000000000000000000000000000000000000000000000000000006020808301919091526bffffffffffffffffffffffff193060601b1660218301526035820185905260558083018590528351808403909101815260759092019092528051910120600090620008e3565b60008084471015620009c35760405162461bcd60e51b815260206004820152601d60248201527f437265617465323a20696e73756666696369656e742062616c616e636500000060448201526064016200023b565b825160000362000a165760405162461bcd60e51b815260206004820181905260248201527f437265617465323a2062797465636f6465206c656e677468206973207a65726f60448201526064016200023b565b8383516020850187f590506001600160a01b038116620008e05760405162461bcd60e51b815260206004820152601960248201527f437265617465323a204661696c6564206f6e206465706c6f790000000000000060448201526064016200023b565b6000806040518060200162000a8e9062001061565b601f1982820381018352601f9091011660405262000aad84806200138d565b62000abc60208701876200138d565b62000ace6060890160408a01620013de565b60405160200162000ae49594939291906200142c565b60408051601f198184030181529082905262000b049291602001620014a0565b6040516020818303038152906040529050620008e360008262000d75620008c3565b60405163a167129560e01b81526001600160a01b037f000000000000000000000000000000000000000000000000000000000000000081166004830152821660248201526101f46044820152600090731f98431c8ad98523631ae4a59f267346ea31f9849063a1671295906064016020604051808303816000875af115801562000bb4573d6000803e3d6000fd5b505050506040513d601f19601f8201168201806040525081019062000bda9190620014d3565b92915050565b600062000bda62000e58836401000276a362000c12600173fffd8963efd1fc6a506488495d951d5263988d26620014f3565b62000e79565b6036546035546040805184516001600160a01b0390811660248301526020860151811660448301529185015182166064820152606085015182166084820152608085015162ffffff90811660a483015260a08601511660c4820152600093821692919091169060e40160408051601f198184030181529181526020820180517bffffffffffffffffffffffffffffffffffffffffffffffffffffffff16630ada2b5160e31b1790525162000ccc906200106f565b62000cda939291906200151e565b604051809103906000f08015801562000cf7573d6000803e3d6000fd5b5092915050565b825160208401206000905b62000d158382620008f9565b915062000d25828563ffffffff16565b62000d365760019092019162000d09565b600062000d458785886200096e565b9050806001600160a01b0316836001600160a01b03161462000d6b5762000d6b6200156e565b5050949350505050565b600063ffffffff8216801580159062000dbf57507f00000000000000000000000000000000000000000000000000000000000000006001600160a01b0316836001600160a01b0316105b8015620008e3575060405163440ab74560e01b815263ffffffff821660048201527f00000000000000000000000000000000000000000000000000000000000000006001600160a01b03169063440ab74590602401602060405180830381865afa15801562000e32573d6000803e3d6000fd5b505050506040513d601f19601f82011682018060405250810190620008e3919062001584565b600062000bda6001600160a01b038316806801000000000000000062000fab565b60008062000e8a848763ffffffff16565b9050600062000e9c848863ffffffff16565b90508186108062000eac57508086115b1562000ee65760405163f7b6b2e960e01b8152600481018790526001600160a01b038087166024830152851660448201526064016200023b565b6000805b600162000ef88888620014f3565b6001600160a01b0316111562000f6157600262000f168888620014f3565b62000f229190620015a4565b62000f2e9088620015d9565b905062000f3e818a63ffffffff16565b91508782111562000f555780955081925062000eea565b80965081935062000eea565b856001600160a01b0316876001600160a01b03161415801562000f9057508762000f8e878b63ffffffff16565b145b62000f9c578662000f9e565b855b9998505050505050505050565b600080806000198587098587029250828110838203039150508060000362000fe7576000841162000fdb57600080fd5b508290049050620008e3565b80841162000ff457600080fd5b6000848688096000868103871696879004966002600389028118808a02820302808a02820302808a02820302808a02820302808a02820302808a02909103029181900381900460010186841190950394909402919094039290920491909117919091029150509392505050565b61102b80620015ff83390190565b610f90806200262a83390190565b6001600160a01b03811681146200109357600080fd5b50565b600060208284031215620010a957600080fd5b8135620008e3816200107d565b600060208284031215620010c957600080fd5b813567ffffffffffffffff811115620010e157600080fd5b82016101608185031215620008e357600080fd5b60008235605e198336030181126200110c57600080fd5b9190910192915050565b803562001123816200107d565b919050565b803563ffffffff811681146200112357600080fd5b6000602082840312156200115057600080fd5b620008e38262001128565b6000602082840312156200116e57600080fd5b5051919050565b803561ffff811681146200112357600080fd5b6000602082840312156200119b57600080fd5b620008e38262001175565b600060208284031215620011b957600080fd5b813562ffffff81168114620008e357600080fd5b80151581146200109357600080fd5b80356200112381620011cd565b600060e08284031215620011fc57600080fd5b60405160e0810181811067ffffffffffffffff821117156200122e57634e487b7160e01b600052604160045260246000fd5b6040526200123c8362001175565b81526200124c6020840162001175565b60208201526200125f6040840162001175565b6040820152620012726060840162001128565b60608201526200128560808401620011dc565b60808201526200129860a08401620011dc565b60a0820152620012ab60c0840162001116565b60c08201529392505050565b6000610140820190506001600160a01b0380845116835280602085015116602084015280604085015116604084015250606083015161ffff8082511660608501528060208301511660808501528060408301511660a08501525063ffffffff60608201511660c08401526080810151151560e084015260a08101516200134261010085018215159052565b5060c001516001600160a01b03811661012084015262000cf7565b634e487b7160e01b600052601160045260246000fd5b6000828210156200138857620013886200135d565b500390565b6000808335601e19843603018112620013a557600080fd5b83018035915067ffffffffffffffff821115620013c157600080fd5b602001915036819003821315620013d757600080fd5b9250929050565b600060208284031215620013f157600080fd5b813560ff81168114620008e357600080fd5b81835281816020850137506000828201602090810191909152601f909101601f19169091010190565b6060815260006200144260608301878962001403565b82810360208401526200145781868862001403565b91505060ff831660408301529695505050505050565b60005b838110156200148a57818101518382015260200162001470565b838111156200149a576000848401525b50505050565b60008351620014b48184602088016200146d565b835190830190620014ca8183602088016200146d565b01949350505050565b600060208284031215620014e657600080fd5b8151620008e3816200107d565b60006001600160a01b03838116908316818110156200151657620015166200135d565b039392505050565b60006001600160a01b038086168352808516602084015250606060408301528251806060840152620015588160808501602087016200146d565b601f01601f191691909101608001949350505050565b634e487b7160e01b600052600160045260246000fd5b6000602082840312156200159757600080fd5b8151620008e381620011cd565b60006001600160a01b0380841680620015cd57634e487b7160e01b600052601260045260246000fd5b92169190910492915050565b60006001600160a01b03808316818516808303821115620014ca57620014ca6200135d56fe60a06040523480156200001157600080fd5b506040516200102b3803806200102b8339810160408190526200003491620001e8565b8251839083906200004d90600390602085019062000075565b5080516200006390600490602084019062000075565b50505060ff1660805250620002a99050565b82805462000083906200026d565b90600052602060002090601f016020900481019282620000a75760008555620000f2565b82601f10620000c257805160ff1916838001178555620000f2565b82800160010185558215620000f2579182015b82811115620000f2578251825591602001919060010190620000d5565b506200010092915062000104565b5090565b5b8082111562000100576000815560010162000105565b634e487b7160e01b600052604160045260246000fd5b600082601f8301126200014357600080fd5b81516001600160401b03808211156200016057620001606200011b565b604051601f8301601f19908116603f011681019082821181831017156200018b576200018b6200011b565b81604052838152602092508683858801011115620001a857600080fd5b600091505b83821015620001cc5785820183015181830184015290820190620001ad565b83821115620001de5760008385830101525b9695505050505050565b600080600060608486031215620001fe57600080fd5b83516001600160401b03808211156200021657600080fd5b620002248783880162000131565b945060208601519150808211156200023b57600080fd5b506200024a8682870162000131565b925050604084015160ff811681146200026257600080fd5b809150509250925092565b600181811c908216806200028257607f821691505b602082108103620002a357634e487b7160e01b600052602260045260246000fd5b50919050565b608051610d66620002c560003960006101670152610d666000f3fe608060405234801561001057600080fd5b50600436106100f55760003560e01c806342966c6811610097578063a9059cbb11610066578063a9059cbb14610210578063d7adb4fe14610223578063dd62ed3e14610236578063df8685d21461026f57600080fd5b806342966c68146101b957806370a08231146101cc57806395d89b41146101f5578063a457c2d7146101fd57600080fd5b806323b872dd116100d357806323b872dd1461014d578063313ce56714610160578063395093511461019157806340c10f19146101a457600080fd5b806306fdde03146100fa578063095ea7b31461011857806318160ddd1461013b575b600080fd5b61010261029a565b60405161010f9190610b6c565b60405180910390f35b61012b610126366004610bdd565b61032c565b604051901515815260200161010f565b6002545b60405190815260200161010f565b61012b61015b366004610c07565b610344565b60405160ff7f000000000000000000000000000000000000000000000000000000000000000016815260200161010f565b61012b61019f366004610bdd565b610368565b6101b76101b2366004610bdd565b6103a7565b005b6101b76101c7366004610c43565b6103e0565b61013f6101da366004610c5c565b6001600160a01b031660009081526020819052604090205490565b6101026103ed565b61012b61020b366004610bdd565b6103fc565b61012b61021e366004610bdd565b6104ab565b6101b7610231366004610c5c565b6104b9565b61013f610244366004610c7e565b6001600160a01b03918216600090815260016020908152604080832093909416825291909152205490565b600554610282906001600160a01b031681565b6040516001600160a01b03909116815260200161010f565b6060600380546102a990610cb1565b80601f01602080910402602001604051908101604052809291908181526020018280546102d590610cb1565b80156103225780601f106102f757610100808354040283529160200191610322565b820191906000526020600020905b81548152906001019060200180831161030557829003601f168201915b5050505050905090565b60003361033a818585610501565b5060019392505050565b600033610352858285610626565b61035d8585856106b8565b506001949350505050565b3360008181526001602090815260408083206001600160a01b038716845290915281205490919061033a90829086906103a2908790610d01565b610501565b6005546001600160a01b031633146103d257604051636bd1573560e11b815260040160405180910390fd5b6103dc82826108c0565b5050565b6103ea33826109ab565b50565b6060600480546102a990610cb1565b3360008181526001602090815260408083206001600160a01b03871684529091528120549091908381101561049e5760405162461bcd60e51b815260206004820152602560248201527f45524332303a2064656372656173656420616c6c6f77616e63652062656c6f7760448201527f207a65726f00000000000000000000000000000000000000000000000000000060648201526084015b60405180910390fd5b61035d8286868403610501565b60003361033a8185856106b8565b6005546001600160a01b03166103ea57600580546001600160a01b0383167fffffffffffffffffffffffff000000000000000000000000000000000000000090911617905550565b6001600160a01b0383166105635760405162461bcd60e51b8152602060048201526024808201527f45524332303a20617070726f76652066726f6d20746865207a65726f206164646044820152637265737360e01b6064820152608401610495565b6001600160a01b0382166105c45760405162461bcd60e51b815260206004820152602260248201527f45524332303a20617070726f766520746f20746865207a65726f206164647265604482015261737360f01b6064820152608401610495565b6001600160a01b0383811660008181526001602090815260408083209487168084529482529182902085905590518481527f8c5be1e5ebec7d5bd14f71427d1e84f3dd0314c0f7b2291e5b200ac8c7c3b92591015b60405180910390a3505050565b6001600160a01b0383811660009081526001602090815260408083209386168352929052205460001981146106b257818110156106a55760405162461bcd60e51b815260206004820152601d60248201527f45524332303a20696e73756666696369656e7420616c6c6f77616e63650000006044820152606401610495565b6106b28484848403610501565b50505050565b6001600160a01b0383166107345760405162461bcd60e51b815260206004820152602560248201527f45524332303a207472616e736665722066726f6d20746865207a65726f20616460448201527f64726573730000000000000000000000000000000000000000000000000000006064820152608401610495565b6001600160a01b0382166107965760405162461bcd60e51b815260206004820152602360248201527f45524332303a207472616e7366657220746f20746865207a65726f206164647260448201526265737360e81b6064820152608401610495565b6107a1838383610b02565b6001600160a01b038316600090815260208190526040902054818110156108305760405162461bcd60e51b815260206004820152602660248201527f45524332303a207472616e7366657220616d6f756e742065786365656473206260448201527f616c616e636500000000000000000000000000000000000000000000000000006064820152608401610495565b6001600160a01b03808516600090815260208190526040808220858503905591851681529081208054849290610867908490610d01565b92505081905550826001600160a01b0316846001600160a01b03167fddf252ad1be2c89b69c2b068fc378daa952ba7f163c4a11628f55a4df523b3ef846040516108b391815260200190565b60405180910390a36106b2565b6001600160a01b0382166109165760405162461bcd60e51b815260206004820152601f60248201527f45524332303a206d696e7420746f20746865207a65726f2061646472657373006044820152606401610495565b61092260008383610b02565b80600260008282546109349190610d01565b90915550506001600160a01b03821660009081526020819052604081208054839290610961908490610d01565b90915550506040518181526001600160a01b038316906000907fddf252ad1be2c89b69c2b068fc378daa952ba7f163c4a11628f55a4df523b3ef9060200160405180910390a35050565b6001600160a01b038216610a0b5760405162461bcd60e51b815260206004820152602160248201527f45524332303a206275726e2066726f6d20746865207a65726f206164647265736044820152607360f81b6064820152608401610495565b610a1782600083610b02565b6001600160a01b03821660009081526020819052604090205481811015610a8b5760405162461bcd60e51b815260206004820152602260248201527f45524332303a206275726e20616d6f756e7420657863656564732062616c616e604482015261636560f01b6064820152608401610495565b6001600160a01b0383166000908152602081905260408120838303905560028054849290610aba908490610d19565b90915550506040518281526000906001600160a01b038516907fddf252ad1be2c89b69c2b068fc378daa952ba7f163c4a11628f55a4df523b3ef90602001610619565b505050565b6001600160a01b0383161580610b1f57506001600160a01b038216155b80610b3757506005546001600160a01b038481169116145b80610b4f57506005546001600160a01b038381169116145b610afd57604051636bd1573560e11b815260040160405180910390fd5b600060208083528351808285015260005b81811015610b9957858101830151858201604001528201610b7d565b81811115610bab576000604083870101525b50601f01601f1916929092016040019392505050565b80356001600160a01b0381168114610bd857600080fd5b919050565b60008060408385031215610bf057600080fd5b610bf983610bc1565b946020939093013593505050565b600080600060608486031215610c1c57600080fd5b610c2584610bc1565b9250610c3360208501610bc1565b9150604084013590509250925092565b600060208284031215610c5557600080fd5b5035919050565b600060208284031215610c6e57600080fd5b610c7782610bc1565b9392505050565b60008060408385031215610c9157600080fd5b610c9a83610bc1565b9150610ca860208401610bc1565b90509250929050565b600181811c90821680610cc557607f821691505b602082108103610ce557634e487b7160e01b600052602260045260246000fd5b50919050565b634e487b7160e01b600052601160045260246000fd5b60008219821115610d1457610d14610ceb565b500190565b600082821015610d2b57610d2b610ceb565b50039056fea2646970667358221220e2666953ff68a2807cb572d1649dd51f2835caf1b3da61743f298489ec290a5864736f6c634300080d0033608060405260405162000f9038038062000f90833981016040819052620000269162000519565b82816200005560017f360894a13ba1a3210667c828492db98dca3e2076cc3735a920a3ca505d382bbd620005f9565b60008051602062000f49833981519152146200007557620000756200061f565b6200008382826000620000e7565b50620000b3905060017fb53127684a568b3173ae13b9f8a6016e243e63b6e8ee1178d6a717850b5d6104620005f9565b60008051602062000f2983398151915214620000d357620000d36200061f565b620000de8262000124565b50505062000688565b620000f2836200017f565b600082511180620001005750805b156200011f576200011d8383620001c160201b6200023e1760201c565b505b505050565b7f7e644d79422f17c01e4894b5f4f588d331ebfa28653d42ae832dc59e38c9798f6200014f620001f0565b604080516001600160a01b03928316815291841660208301520160405180910390a16200017c8162000229565b50565b6200018a81620002de565b6040516001600160a01b038216907fbc7cd75a20ee27fd9adebab32041f755214dbc6bffa90cc0225b39da2e5c2d3b90600090a250565b6060620001e9838360405180606001604052806027815260200162000f696027913962000381565b9392505050565b60006200021a60008051602062000f2983398151915260001b6200046760201b620001fa1760201c565b546001600160a01b0316919050565b6001600160a01b038116620002945760405162461bcd60e51b815260206004820152602660248201527f455243313936373a206e65772061646d696e20697320746865207a65726f206160448201526564647265737360d01b60648201526084015b60405180910390fd5b80620002bd60008051602062000f2983398151915260001b6200046760201b620001fa1760201c565b80546001600160a01b0319166001600160a01b039290921691909117905550565b620002f4816200046a60201b6200026a1760201c565b620003585760405162461bcd60e51b815260206004820152602d60248201527f455243313936373a206e657720696d706c656d656e746174696f6e206973206e60448201526c1bdd08184818dbdb9d1c9858dd609a1b60648201526084016200028b565b80620002bd60008051602062000f4983398151915260001b6200046760201b620001fa1760201c565b60606001600160a01b0384163b620003eb5760405162461bcd60e51b815260206004820152602660248201527f416464726573733a2064656c65676174652063616c6c20746f206e6f6e2d636f6044820152651b9d1c9858dd60d21b60648201526084016200028b565b600080856001600160a01b03168560405162000408919062000635565b600060405180830381855af49150503d806000811462000445576040519150601f19603f3d011682016040523d82523d6000602084013e6200044a565b606091505b5090925090506200045d82828662000479565b9695505050505050565b90565b6001600160a01b03163b151590565b606083156200048a575081620001e9565b8251156200049b5782518084602001fd5b8160405162461bcd60e51b81526004016200028b919062000653565b80516001600160a01b0381168114620004cf57600080fd5b919050565b634e487b7160e01b600052604160045260246000fd5b60005b8381101562000507578181015183820152602001620004ed565b838111156200011d5750506000910152565b6000806000606084860312156200052f57600080fd5b6200053a84620004b7565b92506200054a60208501620004b7565b60408501519092506001600160401b03808211156200056857600080fd5b818601915086601f8301126200057d57600080fd5b815181811115620005925762000592620004d4565b604051601f8201601f19908116603f01168101908382118183101715620005bd57620005bd620004d4565b81604052828152896020848701011115620005d757600080fd5b620005ea836020830160208801620004ea565b80955050505050509250925092565b6000828210156200061a57634e487b7160e01b600052601160045260246000fd5b500390565b634e487b7160e01b600052600160045260246000fd5b6000825162000649818460208701620004ea565b9190910192915050565b602081526000825180602084015262000674816040850160208701620004ea565b601f01601f19169190910160400192915050565b61089180620006986000396000f3fe60806040526004361061005e5760003560e01c80635c60da1b116100435780635c60da1b146100a85780638f283970146100d9578063f851a440146100f95761006d565b80633659cfe6146100755780634f1ef286146100955761006d565b3661006d5761006b61010e565b005b61006b61010e565b34801561008157600080fd5b5061006b61009036600461071b565b610128565b61006b6100a3366004610736565b610165565b3480156100b457600080fd5b506100bd6101cc565b6040516001600160a01b03909116815260200160405180910390f35b3480156100e557600080fd5b5061006b6100f436600461071b565b6101fd565b34801561010557600080fd5b506100bd61021d565b610116610279565b61012661012161030e565b610318565b565b61013061033c565b6001600160a01b0316330361015d5761015a8160405180602001604052806000815250600061036f565b50565b61015a61010e565b61016d61033c565b6001600160a01b031633036101c4576101bf8383838080601f0160208091040260200160405190810160405280939291908181526020018383808284376000920191909152506001925061036f915050565b505050565b6101bf61010e565b60006101d661033c565b6001600160a01b031633036101f2576101ed61030e565b905090565b6101fa61010e565b90565b61020561033c565b6001600160a01b0316330361015d5761015a8161039a565b600061022761033c565b6001600160a01b031633036101f2576101ed61033c565b60606102638383604051806060016040528060278152602001610835602791396103ee565b9392505050565b6001600160a01b03163b151590565b61028161033c565b6001600160a01b031633036101265760405162461bcd60e51b815260206004820152604260248201527f5472616e73706172656e745570677261646561626c6550726f78793a2061646d60448201527f696e2063616e6e6f742066616c6c6261636b20746f2070726f78792074617267606482015261195d60f21b608482015260a4015b60405180910390fd5b60006101ed6104e2565b3660008037600080366000845af43d6000803e808015610337573d6000f35b3d6000fd5b60007fb53127684a568b3173ae13b9f8a6016e243e63b6e8ee1178d6a717850b5d61035b546001600160a01b0316919050565b6103788361050a565b6000825111806103855750805b156101bf57610394838361023e565b50505050565b7f7e644d79422f17c01e4894b5f4f588d331ebfa28653d42ae832dc59e38c9798f6103c361033c565b604080516001600160a01b03928316815291841660208301520160405180910390a161015a8161054a565b60606001600160a01b0384163b61046d5760405162461bcd60e51b815260206004820152602660248201527f416464726573733a2064656c65676174652063616c6c20746f206e6f6e2d636f60448201527f6e747261637400000000000000000000000000000000000000000000000000006064820152608401610305565b600080856001600160a01b03168560405161048891906107e5565b600060405180830381855af49150503d80600081146104c3576040519150601f19603f3d011682016040523d82523d6000602084013e6104c8565b606091505b50915091506104d8828286610622565b9695505050505050565b60007f360894a13ba1a3210667c828492db98dca3e2076cc3735a920a3ca505d382bbc610360565b6105138161065b565b6040516001600160a01b038216907fbc7cd75a20ee27fd9adebab32041f755214dbc6bffa90cc0225b39da2e5c2d3b90600090a250565b6001600160a01b0381166105c65760405162461bcd60e51b815260206004820152602660248201527f455243313936373a206e65772061646d696e20697320746865207a65726f206160448201527f64647265737300000000000000000000000000000000000000000000000000006064820152608401610305565b807fb53127684a568b3173ae13b9f8a6016e243e63b6e8ee1178d6a717850b5d61035b80547fffffffffffffffffffffffff0000000000000000000000000000000000000000166001600160a01b039290921691909117905550565b60608315610631575081610263565b8251156106415782518084602001fd5b8160405162461bcd60e51b81526004016103059190610801565b6001600160a01b0381163b6106d85760405162461bcd60e51b815260206004820152602d60248201527f455243313936373a206e657720696d706c656d656e746174696f6e206973206e60448201527f6f74206120636f6e7472616374000000000000000000000000000000000000006064820152608401610305565b807f360894a13ba1a3210667c828492db98dca3e2076cc3735a920a3ca505d382bbc6105e9565b80356001600160a01b038116811461071657600080fd5b919050565b60006020828403121561072d57600080fd5b610263826106ff565b60008060006040848603121561074b57600080fd5b610754846106ff565b9250602084013567ffffffffffffffff8082111561077157600080fd5b818601915086601f83011261078557600080fd5b81358181111561079457600080fd5b8760208285010111156107a657600080fd5b6020830194508093505050509250925092565b60005b838110156107d45781810151838201526020016107bc565b838111156103945750506000910152565b600082516107f78184602087016107b9565b9190910192915050565b60208152600082518060208401526108208160408501602087016107b9565b601f01601f1916919091016040019291505056fe416464726573733a206c6f772d6c6576656c2064656c65676174652063616c6c206661696c6564a2646970667358221220438ae6b528a10d4f4e15c10d198448a37d357ec318665bc28b68b2069ad85b0564736f6c634300080d0033b53127684a568b3173ae13b9f8a6016e243e63b6e8ee1178d6a717850b5d6103360894a13ba1a3210667c828492db98dca3e2076cc3735a920a3ca505d382bbc416464726573733a206c6f772d6c6576656c2064656c65676174652063616c6c206661696c6564a2646970667358221220c3706499efe7d69c06036671c8fb40e55fe7fadb8b2100ead3e276464eca3d9b64736f6c634300080d0033608060405234801561001057600080fd5b5060c18061001f6000396000f3fe6080604052348015600f57600080fd5b506004361060285760003560e01c8063dd86c10114602d575b600080fd5b604e60383660046060565b5070010000000000000000000000000000000090565b60405190815260200160405180910390f35b600060208284031215607157600080fd5b813563ffffffff81168114608457600080fd5b939250505056fea2646970667358221220f195fa24a2b977f35a85ac3cd24e83abc3251662cd13361be4b828b973a64ef864736f6c634300080d0033608060405234801561001057600080fd5b5061001a3361001f565b61006f565b600080546001600160a01b038381166001600160a01b0319831681178455604051919092169283917f8be0079c531659141344cd1fd0a4f28419497f9722a3daafe3b4186f6b6457e09190a35050565b61080a8061007e6000396000f3fe60806040526004361061007b5760003560e01c80639623609d1161004e5780639623609d1461011157806399a88ec414610124578063f2fde38b14610144578063f3b7dead1461016457600080fd5b8063204e1c7a14610080578063715018a6146100bc5780637eff275e146100d35780638da5cb5b146100f3575b600080fd5b34801561008c57600080fd5b506100a061009b366004610608565b610184565b6040516001600160a01b03909116815260200160405180910390f35b3480156100c857600080fd5b506100d1610215565b005b3480156100df57600080fd5b506100d16100ee36600461062c565b610280565b3480156100ff57600080fd5b506000546001600160a01b03166100a0565b6100d161011f36600461067b565b61033a565b34801561013057600080fd5b506100d161013f36600461062c565b6103fb565b34801561015057600080fd5b506100d161015f366004610608565b610483565b34801561017057600080fd5b506100a061017f366004610608565b610565565b6000806000836001600160a01b03166040516101aa90635c60da1b60e01b815260040190565b600060405180830381855afa9150503d80600081146101e5576040519150601f19603f3d011682016040523d82523d6000602084013e6101ea565b606091505b5091509150816101f957600080fd5b8080602001905181019061020d9190610751565b949350505050565b6000546001600160a01b031633146102745760405162461bcd60e51b815260206004820181905260248201527f4f776e61626c653a2063616c6c6572206973206e6f7420746865206f776e657260448201526064015b60405180910390fd5b61027e600061058b565b565b6000546001600160a01b031633146102da5760405162461bcd60e51b815260206004820181905260248201527f4f776e61626c653a2063616c6c6572206973206e6f7420746865206f776e6572604482015260640161026b565b6040516308f2839760e41b81526001600160a01b038281166004830152831690638f283970906024015b600060405180830381600087803b15801561031e57600080fd5b505af1158015610332573d6000803e3d6000fd5b505050505050565b6000546001600160a01b031633146103945760405162461bcd60e51b815260206004820181905260248201527f4f776e61626c653a2063616c6c6572206973206e6f7420746865206f776e6572604482015260640161026b565b60405163278f794360e11b81526001600160a01b03841690634f1ef2869034906103c4908690869060040161076e565b6000604051808303818588803b1580156103dd57600080fd5b505af11580156103f1573d6000803e3d6000fd5b5050505050505050565b6000546001600160a01b031633146104555760405162461bcd60e51b815260206004820181905260248201527f4f776e61626c653a2063616c6c6572206973206e6f7420746865206f776e6572604482015260640161026b565b604051631b2ce7f360e11b81526001600160a01b038281166004830152831690633659cfe690602401610304565b6000546001600160a01b031633146104dd5760405162461bcd60e51b815260206004820181905260248201527f4f776e61626c653a2063616c6c6572206973206e6f7420746865206f776e6572604482015260640161026b565b6001600160a01b0381166105595760405162461bcd60e51b815260206004820152602660248201527f4f776e61626c653a206e6577206f776e657220697320746865207a65726f206160448201527f6464726573730000000000000000000000000000000000000000000000000000606482015260840161026b565b6105628161058b565b50565b6000806000836001600160a01b03166040516101aa906303e1469160e61b815260040190565b600080546001600160a01b038381167fffffffffffffffffffffffff0000000000000000000000000000000000000000831681178455604051919092169283917f8be0079c531659141344cd1fd0a4f28419497f9722a3daafe3b4186f6b6457e09190a35050565b6001600160a01b038116811461056257600080fd5b60006020828403121561061a57600080fd5b8135610625816105f3565b9392505050565b6000806040838503121561063f57600080fd5b823561064a816105f3565b9150602083013561065a816105f3565b809150509250929050565b634e487b7160e01b600052604160045260246000fd5b60008060006060848603121561069057600080fd5b833561069b816105f3565b925060208401356106ab816105f3565b9150604084013567ffffffffffffffff808211156106c857600080fd5b818601915086601f8301126106dc57600080fd5b8135818111156106ee576106ee610665565b604051601f8201601f19908116603f0116810190838211818310171561071657610716610665565b8160405282815289602084870101111561072f57600080fd5b8260208601602083013760006020848301015280955050505050509250925092565b60006020828403121561076357600080fd5b8151610625816105f3565b6001600160a01b038316815260006020604081840152835180604085015260005b818110156107ab5785810183015185820160600152820161078f565b818111156107bd576000606083870101525b50601f01601f19169290920160600194935050505056fea26469706673582212200daad18dccd92a0fc4e4b58b212af1cc0e01899af638b2b3c5faba7dbeb52db064736f6c634300080d003360a06040523480156200001157600080fd5b506040516200122b3803806200122b8339810160408190526200003491620001d2565b604080518082018252601e81527f52616765205472616465205669727475616c2051756f746520546f6b656e00006020808301918252835180850190945260068452657651756f746560d01b90840152815191929162000097916003916200012c565b508051620000ad9060049060208401906200012c565b505050620000ca620000c4620000d660201b60201c565b620000da565b60ff166080526200023a565b3390565b600580546001600160a01b038381166001600160a01b0319831681179093556040519116919082907f8be0079c531659141344cd1fd0a4f28419497f9722a3daafe3b4186f6b6457e090600090a35050565b8280546200013a90620001fe565b90600052602060002090601f0160209004810192826200015e5760008555620001a9565b82601f106200017957805160ff1916838001178555620001a9565b82800160010185558215620001a9579182015b82811115620001a95782518255916020019190600101906200018c565b50620001b7929150620001bb565b5090565b5b80821115620001b75760008155600101620001bc565b600060208284031215620001e557600080fd5b815160ff81168114620001f757600080fd5b9392505050565b600181811c908216806200021357607f821691505b6020821081036200023457634e487b7160e01b600052602260045260246000fd5b50919050565b608051610fd56200025660003960006101cb0152610fd56000f3fe608060405234801561001057600080fd5b50600436106101365760003560e01c806370a08231116100b2578063a457c2d711610081578063b6a5d7de11610066578063b6a5d7de146102aa578063dd62ed3e146102bd578063f2fde38b146102f657600080fd5b8063a457c2d714610284578063a9059cbb1461029757600080fd5b806370a0823114610230578063715018a6146102595780638da5cb5b1461026157806395d89b411461027c57600080fd5b80632520e7ff1161010957806339509351116100ee57806339509351146101f557806340c10f191461020857806342966c681461021d57600080fd5b80632520e7ff146101a1578063313ce567146101c457600080fd5b806306fdde031461013b578063095ea7b31461015957806318160ddd1461017c57806323b872dd1461018e575b600080fd5b610143610309565b6040516101509190610ddb565b60405180910390f35b61016c610167366004610e4c565b61039b565b6040519015158152602001610150565b6002545b604051908152602001610150565b61016c61019c366004610e76565b6103b3565b61016c6101af366004610eb2565b60066020526000908152604090205460ff1681565b60405160ff7f0000000000000000000000000000000000000000000000000000000000000000168152602001610150565b61016c610203366004610e4c565b6103d7565b61021b610216366004610e4c565b610416565b005b61021b61022b366004610ed4565b610454565b61018061023e366004610eb2565b6001600160a01b031660009081526020819052604090205490565b61021b610461565b6005546040516001600160a01b039091168152602001610150565b6101436104cc565b61016c610292366004610e4c565b6104db565b61016c6102a5366004610e4c565b610585565b61021b6102b8366004610eb2565b610593565b6101806102cb366004610eed565b6001600160a01b03918216600090815260016020908152604080832093909416825291909152205490565b61021b610304366004610eb2565b610611565b60606003805461031890610f20565b80601f016020809104026020016040519081016040528092919081815260200182805461034490610f20565b80156103915780601f1061036657610100808354040283529160200191610391565b820191906000526020600020905b81548152906001019060200180831161037457829003601f168201915b5050505050905090565b6000336103a98185856106f0565b5060019392505050565b6000336103c1858285610815565b6103cc8585856108a7565b506001949350505050565b3360008181526001602090815260408083206001600160a01b03871684529091528120549091906103a99082908690610411908790610f70565b6106f0565b3360009081526006602052604090205460ff1661044657604051636bd1573560e11b815260040160405180910390fd5b6104508282610aaf565b5050565b61045e3382610b9a565b50565b6005546001600160a01b031633146104c05760405162461bcd60e51b815260206004820181905260248201527f4f776e61626c653a2063616c6c6572206973206e6f7420746865206f776e657260448201526064015b60405180910390fd5b6104ca6000610cf1565b565b60606004805461031890610f20565b3360008181526001602090815260408083206001600160a01b0387168452909152812054909190838110156105785760405162461bcd60e51b815260206004820152602560248201527f45524332303a2064656372656173656420616c6c6f77616e63652062656c6f7760448201527f207a65726f00000000000000000000000000000000000000000000000000000060648201526084016104b7565b6103cc82868684036106f0565b6000336103a98185856108a7565b6005546001600160a01b031633146105ed5760405162461bcd60e51b815260206004820181905260248201527f4f776e61626c653a2063616c6c6572206973206e6f7420746865206f776e657260448201526064016104b7565b6001600160a01b03166000908152600660205260409020805460ff19166001179055565b6005546001600160a01b0316331461066b5760405162461bcd60e51b815260206004820181905260248201527f4f776e61626c653a2063616c6c6572206973206e6f7420746865206f776e657260448201526064016104b7565b6001600160a01b0381166106e75760405162461bcd60e51b815260206004820152602660248201527f4f776e61626c653a206e6577206f776e657220697320746865207a65726f206160448201527f646472657373000000000000000000000000000000000000000000000000000060648201526084016104b7565b61045e81610cf1565b6001600160a01b0383166107525760405162461bcd60e51b8152602060048201526024808201527f45524332303a20617070726f76652066726f6d20746865207a65726f206164646044820152637265737360e01b60648201526084016104b7565b6001600160a01b0382166107b35760405162461bcd60e51b815260206004820152602260248201527f45524332303a20617070726f766520746f20746865207a65726f206164647265604482015261737360f01b60648201526084016104b7565b6001600160a01b0383811660008181526001602090815260408083209487168084529482529182902085905590518481527f8c5be1e5ebec7d5bd14f71427d1e84f3dd0314c0f7b2291e5b200ac8c7c3b92591015b60405180910390a3505050565b6001600160a01b0383811660009081526001602090815260408083209386168352929052205460001981146108a157818110156108945760405162461bcd60e51b815260206004820152601d60248201527f45524332303a20696e73756666696369656e7420616c6c6f77616e636500000060448201526064016104b7565b6108a184848484036106f0565b50505050565b6001600160a01b0383166109235760405162461bcd60e51b815260206004820152602560248201527f45524332303a207472616e736665722066726f6d20746865207a65726f20616460448201527f647265737300000000000000000000000000000000000000000000000000000060648201526084016104b7565b6001600160a01b0382166109855760405162461bcd60e51b815260206004820152602360248201527f45524332303a207472616e7366657220746f20746865207a65726f206164647260448201526265737360e81b60648201526084016104b7565b610990838383610d5b565b6001600160a01b03831660009081526020819052604090205481811015610a1f5760405162461bcd60e51b815260206004820152602660248201527f45524332303a207472616e7366657220616d6f756e742065786365656473206260448201527f616c616e6365000000000000000000000000000000000000000000000000000060648201526084016104b7565b6001600160a01b03808516600090815260208190526040808220858503905591851681529081208054849290610a56908490610f70565b92505081905550826001600160a01b0316846001600160a01b03167fddf252ad1be2c89b69c2b068fc378daa952ba7f163c4a11628f55a4df523b3ef84604051610aa291815260200190565b60405180910390a36108a1565b6001600160a01b038216610b055760405162461bcd60e51b815260206004820152601f60248201527f45524332303a206d696e7420746f20746865207a65726f20616464726573730060448201526064016104b7565b610b1160008383610d5b565b8060026000828254610b239190610f70565b90915550506001600160a01b03821660009081526020819052604081208054839290610b50908490610f70565b90915550506040518181526001600160a01b038316906000907fddf252ad1be2c89b69c2b068fc378daa952ba7f163c4a11628f55a4df523b3ef9060200160405180910390a35050565b6001600160a01b038216610bfa5760405162461bcd60e51b815260206004820152602160248201527f45524332303a206275726e2066726f6d20746865207a65726f206164647265736044820152607360f81b60648201526084016104b7565b610c0682600083610d5b565b6001600160a01b03821660009081526020819052604090205481811015610c7a5760405162461bcd60e51b815260206004820152602260248201527f45524332303a206275726e20616d6f756e7420657863656564732062616c616e604482015261636560f01b60648201526084016104b7565b6001600160a01b0383166000908152602081905260408120838303905560028054849290610ca9908490610f88565b90915550506040518281526000906001600160a01b038516907fddf252ad1be2c89b69c2b068fc378daa952ba7f163c4a11628f55a4df523b3ef90602001610808565b505050565b600580546001600160a01b038381167fffffffffffffffffffffffff0000000000000000000000000000000000000000831681179093556040519116919082907f8be0079c531659141344cd1fd0a4f28419497f9722a3daafe3b4186f6b6457e090600090a35050565b6001600160a01b0383161580610d7857506001600160a01b038216155b80610d9b57506001600160a01b03831660009081526006602052604090205460ff165b80610dbe57506001600160a01b03821660009081526006602052604090205460ff165b610cec57604051636bd1573560e11b815260040160405180910390fd5b600060208083528351808285015260005b81811015610e0857858101830151858201604001528201610dec565b81811115610e1a576000604083870101525b50601f01601f1916929092016040019392505050565b80356001600160a01b0381168114610e4757600080fd5b919050565b60008060408385031215610e5f57600080fd5b610e6883610e30565b946020939093013593505050565b600080600060608486031215610e8b57600080fd5b610e9484610e30565b9250610ea260208501610e30565b9150604084013590509250925092565b600060208284031215610ec457600080fd5b610ecd82610e30565b9392505050565b600060208284031215610ee657600080fd5b5035919050565b60008060408385031215610f0057600080fd5b610f0983610e30565b9150610f1760208401610e30565b90509250929050565b600181811c90821680610f3457607f821691505b602082108103610f5457634e487b7160e01b600052602260045260246000fd5b50919050565b634e487b7160e01b600052601160045260246000fd5b60008219821115610f8357610f83610f5a565b500190565b600082821015610f9a57610f9a610f5a565b50039056fea2646970667358221220e24179fb5169e4c9c0b9e314f7682a5ba49d480328a3f96ee2871170a3b7293964736f6c634300080d0033608060405260405162000f9038038062000f90833981016040819052620000269162000519565b82816200005560017f360894a13ba1a3210667c828492db98dca3e2076cc3735a920a3ca505d382bbd620005f9565b60008051602062000f49833981519152146200007557620000756200061f565b6200008382826000620000e7565b50620000b3905060017fb53127684a568b3173ae13b9f8a6016e243e63b6e8ee1178d6a717850b5d6104620005f9565b60008051602062000f2983398151915214620000d357620000d36200061f565b620000de8262000124565b50505062000688565b620000f2836200017f565b600082511180620001005750805b156200011f576200011d8383620001c160201b6200023e1760201c565b505b505050565b7f7e644d79422f17c01e4894b5f4f588d331ebfa28653d42ae832dc59e38c9798f6200014f620001f0565b604080516001600160a01b03928316815291841660208301520160405180910390a16200017c8162000229565b50565b6200018a81620002de565b6040516001600160a01b038216907fbc7cd75a20ee27fd9adebab32041f755214dbc6bffa90cc0225b39da2e5c2d3b90600090a250565b6060620001e9838360405180606001604052806027815260200162000f696027913962000381565b9392505050565b60006200021a60008051602062000f2983398151915260001b6200046760201b620001fa1760201c565b546001600160a01b0316919050565b6001600160a01b038116620002945760405162461bcd60e51b815260206004820152602660248201527f455243313936373a206e65772061646d696e20697320746865207a65726f206160448201526564647265737360d01b60648201526084015b60405180910390fd5b80620002bd60008051602062000f2983398151915260001b6200046760201b620001fa1760201c565b80546001600160a01b0319166001600160a01b039290921691909117905550565b620002f4816200046a60201b6200026a1760201c565b620003585760405162461bcd60e51b815260206004820152602d60248201527f455243313936373a206e657720696d706c656d656e746174696f6e206973206e60448201526c1bdd08184818dbdb9d1c9858dd609a1b60648201526084016200028b565b80620002bd60008051602062000f4983398151915260001b6200046760201b620001fa1760201c565b60606001600160a01b0384163b620003eb5760405162461bcd60e51b815260206004820152602660248201527f416464726573733a2064656c65676174652063616c6c20746f206e6f6e2d636f6044820152651b9d1c9858dd60d21b60648201526084016200028b565b600080856001600160a01b03168560405162000408919062000635565b600060405180830381855af49150503d806000811462000445576040519150601f19603f3d011682016040523d82523d6000602084013e6200044a565b606091505b5090925090506200045d82828662000479565b9695505050505050565b90565b6001600160a01b03163b151590565b606083156200048a575081620001e9565b8251156200049b5782518084602001fd5b8160405162461bcd60e51b81526004016200028b919062000653565b80516001600160a01b0381168114620004cf57600080fd5b919050565b634e487b7160e01b600052604160045260246000fd5b60005b8381101562000507578181015183820152602001620004ed565b838111156200011d5750506000910152565b6000806000606084860312156200052f57600080fd5b6200053a84620004b7565b92506200054a60208501620004b7565b60408501519092506001600160401b03808211156200056857600080fd5b818601915086601f8301126200057d57600080fd5b815181811115620005925762000592620004d4565b604051601f8201601f19908116603f01168101908382118183101715620005bd57620005bd620004d4565b81604052828152896020848701011115620005d757600080fd5b620005ea836020830160208801620004ea565b80955050505050509250925092565b6000828210156200061a57634e487b7160e01b600052601160045260246000fd5b500390565b634e487b7160e01b600052600160045260246000fd5b6000825162000649818460208701620004ea565b9190910192915050565b602081526000825180602084015262000674816040850160208701620004ea565b601f01601f19169190910160400192915050565b61089180620006986000396000f3fe60806040526004361061005e5760003560e01c80635c60da1b116100435780635c60da1b146100a85780638f283970146100d9578063f851a440146100f95761006d565b80633659cfe6146100755780634f1ef286146100955761006d565b3661006d5761006b61010e565b005b61006b61010e565b34801561008157600080fd5b5061006b61009036600461071b565b610128565b61006b6100a3366004610736565b610165565b3480156100b457600080fd5b506100bd6101cc565b6040516001600160a01b03909116815260200160405180910390f35b3480156100e557600080fd5b5061006b6100f436600461071b565b6101fd565b34801561010557600080fd5b506100bd61021d565b610116610279565b61012661012161030e565b610318565b565b61013061033c565b6001600160a01b0316330361015d5761015a8160405180602001604052806000815250600061036f565b50565b61015a61010e565b61016d61033c565b6001600160a01b031633036101c4576101bf8383838080601f0160208091040260200160405190810160405280939291908181526020018383808284376000920191909152506001925061036f915050565b505050565b6101bf61010e565b60006101d661033c565b6001600160a01b031633036101f2576101ed61030e565b905090565b6101fa61010e565b90565b61020561033c565b6001600160a01b0316330361015d5761015a8161039a565b600061022761033c565b6001600160a01b031633036101f2576101ed61033c565b60606102638383604051806060016040528060278152602001610835602791396103ee565b9392505050565b6001600160a01b03163b151590565b61028161033c565b6001600160a01b031633036101265760405162461bcd60e51b815260206004820152604260248201527f5472616e73706172656e745570677261646561626c6550726f78793a2061646d60448201527f696e2063616e6e6f742066616c6c6261636b20746f2070726f78792074617267606482015261195d60f21b608482015260a4015b60405180910390fd5b60006101ed6104e2565b3660008037600080366000845af43d6000803e808015610337573d6000f35b3d6000fd5b60007fb53127684a568b3173ae13b9f8a6016e243e63b6e8ee1178d6a717850b5d61035b546001600160a01b0316919050565b6103788361050a565b6000825111806103855750805b156101bf57610394838361023e565b50505050565b7f7e644d79422f17c01e4894b5f4f588d331ebfa28653d42ae832dc59e38c9798f6103c361033c565b604080516001600160a01b03928316815291841660208301520160405180910390a161015a8161054a565b60606001600160a01b0384163b61046d5760405162461bcd60e51b815260206004820152602660248201527f416464726573733a2064656c65676174652063616c6c20746f206e6f6e2d636f60448201527f6e747261637400000000000000000000000000000000000000000000000000006064820152608401610305565b600080856001600160a01b03168560405161048891906107e5565b600060405180830381855af49150503d80600081146104c3576040519150601f19603f3d011682016040523d82523d6000602084013e6104c8565b606091505b50915091506104d8828286610622565b9695505050505050565b60007f360894a13ba1a3210667c828492db98dca3e2076cc3735a920a3ca505d382bbc610360565b6105138161065b565b6040516001600160a01b038216907fbc7cd75a20ee27fd9adebab32041f755214dbc6bffa90cc0225b39da2e5c2d3b90600090a250565b6001600160a01b0381166105c65760405162461bcd60e51b815260206004820152602660248201527f455243313936373a206e65772061646d696e20697320746865207a65726f206160448201527f64647265737300000000000000000000000000000000000000000000000000006064820152608401610305565b807fb53127684a568b3173ae13b9f8a6016e243e63b6e8ee1178d6a717850b5d61035b80547fffffffffffffffffffffffff0000000000000000000000000000000000000000166001600160a01b039290921691909117905550565b60608315610631575081610263565b8251156106415782518084602001fd5b8160405162461bcd60e51b81526004016103059190610801565b6001600160a01b0381163b6106d85760405162461bcd60e51b815260206004820152602d60248201527f455243313936373a206e657720696d706c656d656e746174696f6e206973206e60448201527f6f74206120636f6e7472616374000000000000000000000000000000000000006064820152608401610305565b807f360894a13ba1a3210667c828492db98dca3e2076cc3735a920a3ca505d382bbc6105e9565b80356001600160a01b038116811461071657600080fd5b919050565b60006020828403121561072d57600080fd5b610263826106ff565b60008060006040848603121561074b57600080fd5b610754846106ff565b9250602084013567ffffffffffffffff8082111561077157600080fd5b818601915086601f83011261078557600080fd5b81358181111561079457600080fd5b8760208285010111156107a657600080fd5b6020830194508093505050509250925092565b60005b838110156107d45781810151838201526020016107bc565b838111156103945750506000910152565b600082516107f78184602087016107b9565b9190910192915050565b60208152600082518060208401526108208160408501602087016107b9565b601f01601f1916919091016040019291505056fe416464726573733a206c6f772d6c6576656c2064656c65676174652063616c6c206661696c6564a2646970667358221220438ae6b528a10d4f4e15c10d198448a37d357ec318665bc28b68b2069ad85b0564736f6c634300080d0033b53127684a568b3173ae13b9f8a6016e243e63b6e8ee1178d6a717850b5d6103360894a13ba1a3210667c828492db98dca3e2076cc3735a920a3ca505d382bbc416464726573733a206c6f772d6c6576656c2064656c65676174652063616c6c206661696c6564496e697469616c697a61626c653a20636f6e747261637420697320616c726561",
  "userdoc": {
    "kind": "user",
    "methods": {
      "constructor": {
        "notice": "Sets up the protocol by deploying necessary core contracts"
      },
      "initializePool(((string,string,uint8),(uint16,uint16,uint16,uint32,bool,bool,address),uint24,uint24,uint16))": {
        "notice": "Sets up a new Rage Trade Pool by deploying necessary contracts"
      },
      "setVPoolWrapperLogicAddress(address)": {
        "notice": "Admin method to set latest implementation logic for VPoolWrapper"
      }
    },
    "version": 1
  },
  "storageLayout": {
    "storage": [
      {
        "astId": 93,
        "contract": "contracts/protocol/RageTradeFactory.sol:RageTradeFactory",
        "label": "_initialized",
        "offset": 0,
        "slot": "0",
        "type": "t_bool"
      },
      {
        "astId": 96,
        "contract": "contracts/protocol/RageTradeFactory.sol:RageTradeFactory",
        "label": "_initializing",
        "offset": 1,
        "slot": "0",
        "type": "t_bool"
      },
      {
        "astId": 1271,
        "contract": "contracts/protocol/RageTradeFactory.sol:RageTradeFactory",
        "label": "__gap",
        "offset": 0,
        "slot": "1",
        "type": "t_array(t_uint256)50_storage"
      },
      {
        "astId": 29815,
        "contract": "contracts/protocol/RageTradeFactory.sol:RageTradeFactory",
        "label": "_governance",
        "offset": 0,
        "slot": "51",
        "type": "t_address"
      },
      {
        "astId": 29817,
        "contract": "contracts/protocol/RageTradeFactory.sol:RageTradeFactory",
        "label": "_teamMultisig",
        "offset": 0,
        "slot": "52",
        "type": "t_address"
      },
      {
        "astId": 30102,
        "contract": "contracts/protocol/RageTradeFactory.sol:RageTradeFactory",
        "label": "proxyAdmin",
        "offset": 0,
        "slot": "53",
        "type": "t_contract(ProxyAdmin)3267"
      },
      {
        "astId": 24429,
        "contract": "contracts/protocol/RageTradeFactory.sol:RageTradeFactory",
        "label": "vPoolWrapperLogicAddress",
        "offset": 0,
        "slot": "54",
        "type": "t_address"
      }
    ],
    "types": {
      "t_address": {
        "encoding": "inplace",
        "label": "address",
        "numberOfBytes": "20"
      },
      "t_array(t_uint256)50_storage": {
        "base": "t_uint256",
        "encoding": "inplace",
        "label": "uint256[50]",
        "numberOfBytes": "1600"
      },
      "t_bool": {
        "encoding": "inplace",
        "label": "bool",
        "numberOfBytes": "1"
      },
      "t_contract(ProxyAdmin)3267": {
        "encoding": "inplace",
        "label": "contract ProxyAdmin",
        "numberOfBytes": "20"
      },
      "t_uint256": {
        "encoding": "inplace",
        "label": "uint256",
        "numberOfBytes": "32"
      }
    }
  }
}