{
  "address": "0xa8Fdde0984570C7DfDb83bE3f43F06f93Fcbe620",
  "abi": [
    {
      "inputs": [
        {
          "internalType": "uint32",
          "name": "",
          "type": "uint32"
        }
      ],
      "name": "getTwapPriceX128",
      "outputs": [
        {
          "internalType": "uint256",
          "name": "priceX128",
          "type": "uint256"
        }
      ],
      "stateMutability": "pure",
      "type": "function"
    }
  ],
  "transactionHash": "0xe42a7b77f7ac88dcf040353dd36230b16312d75365de6766cfdaa8a8cd7084ab",
  "args": [],
  "numDeployments": 1,
  "solcInputHash": "68c0704023833947dc45a497fa924d34",
  "bytecode": "0x608080604052346100155760b6908161001b8239f35b600080fdfe6080806040526004361015601257600080fd5b600090813560e01c63dd86c10114602857600080fd5b34607c5760207ffffffffffffffffffffffffffffffffffffffffffffffffffffffffffffffffc360112607c5760043563ffffffff811603607c578070010000000000000000000000000000000060209252f35b5080fdfea2646970667358221220bd81cd24a40737663bfe18cce64c6e37a6e93e9e9779801c3315d748e6a9db0064736f6c634300080e0033",
  "userdoc": {
    "kind": "user",
    "methods": {},
    "version": 1
  },
  "storageLayout": {
    "storage": [],
    "types": null
  }
}