{
  "address": "0x614D12EcEB870D28c4ebB7BD3FA8cDD7dc495977",
  "abi": [
    {
      "inputs": [
        {
          "internalType": "address",
          "name": "oracle",
          "type": "address"
        }
      ],
      "name": "InvalidFundingRateOracle",
      "type": "error"
    },
    {
      "inputs": [
        {
          "internalType": "int256",
          "name": "value",
          "type": "int256"
        }
      ],
      "name": "InvalidFundingRateValueX128",
      "type": "error"
    },
    {
      "inputs": [
        {
          "internalType": "uint256",
          "name": "errorCode",
          "type": "uint256"
        }
      ],
      "name": "InvalidSetting",
      "type": "error"
    },
    {
      "inputs": [
        {
          "internalType": "uint160",
          "name": "sqrtPriceLimitX96",
          "type": "uint160"
        }
      ],
      "name": "InvalidSqrtPriceLimit",
      "type": "error"
    },
    {
      "inputs": [
        {
          "internalType": "int24",
          "name": "tickLower",
          "type": "int24"
        },
        {
          "internalType": "int24",
          "name": "tickUpper",
          "type": "int24"
        }
      ],
      "name": "InvalidTicks",
      "type": "error"
    },
    {
      "inputs": [],
      "name": "NotClearingHouse",
      "type": "error"
    },
    {
      "inputs": [],
      "name": "NotGovernance",
      "type": "error"
    },
    {
      "inputs": [],
      "name": "NotGovernanceOrTeamMultisig",
      "type": "error"
    },
    {
      "inputs": [],
      "name": "NotUniswapV3Pool",
      "type": "error"
    },
    {
      "inputs": [],
      "name": "R",
      "type": "error"
    },
    {
      "inputs": [
        {
          "internalType": "uint128",
          "name": "value",
          "type": "uint128"
        }
      ],
      "name": "SafeCast_Int128Overflow",
      "type": "error"
    },
    {
      "inputs": [
        {
          "internalType": "uint256",
          "name": "value",
          "type": "uint256"
        }
      ],
      "name": "SafeCast_Int256Overflow",
      "type": "error"
    },
    {
      "inputs": [],
      "name": "T",
      "type": "error"
    },
    {
      "inputs": [],
      "name": "ZeroAmount",
      "type": "error"
    },
    {
      "anonymous": false,
      "inputs": [
        {
          "indexed": false,
          "internalType": "uint256",
          "name": "amount",
          "type": "uint256"
        }
      ],
      "name": "AccruedProtocolFeeCollected",
      "type": "event"
    },
    {
      "anonymous": false,
      "inputs": [
        {
          "indexed": false,
          "internalType": "int24",
          "name": "tickLower",
          "type": "int24"
        },
        {
          "indexed": false,
          "internalType": "int24",
          "name": "tickUpper",
          "type": "int24"
        },
        {
          "indexed": false,
          "internalType": "uint128",
          "name": "liquidity",
          "type": "uint128"
        },
        {
          "indexed": false,
          "internalType": "uint256",
          "name": "vTokenPrincipal",
          "type": "uint256"
        },
        {
          "indexed": false,
          "internalType": "uint256",
          "name": "vQuotePrincipal",
          "type": "uint256"
        }
      ],
      "name": "Burn",
      "type": "event"
    },
    {
      "anonymous": false,
      "inputs": [
        {
          "indexed": false,
          "internalType": "uint24",
          "name": "liquidityFeePips",
          "type": "uint24"
        }
      ],
      "name": "LiquidityFeeUpdated",
      "type": "event"
    },
    {
      "anonymous": false,
      "inputs": [
        {
          "indexed": false,
          "internalType": "int24",
          "name": "tickLower",
          "type": "int24"
        },
        {
          "indexed": false,
          "internalType": "int24",
          "name": "tickUpper",
          "type": "int24"
        },
        {
          "indexed": false,
          "internalType": "uint128",
          "name": "liquidity",
          "type": "uint128"
        },
        {
          "indexed": false,
          "internalType": "uint256",
          "name": "vTokenPrincipal",
          "type": "uint256"
        },
        {
          "indexed": false,
          "internalType": "uint256",
          "name": "vQuotePrincipal",
          "type": "uint256"
        }
      ],
      "name": "Mint",
      "type": "event"
    },
    {
      "anonymous": false,
      "inputs": [
        {
          "indexed": false,
          "internalType": "uint24",
          "name": "protocolFeePips",
          "type": "uint24"
        }
      ],
      "name": "ProtocolFeeUpdated",
      "type": "event"
    },
    {
      "anonymous": false,
      "inputs": [
        {
          "components": [
            {
              "internalType": "int256",
              "name": "amountSpecified",
              "type": "int256"
            },
            {
              "internalType": "int256",
              "name": "vTokenIn",
              "type": "int256"
            },
            {
              "internalType": "int256",
              "name": "vQuoteIn",
              "type": "int256"
            },
            {
              "internalType": "uint256",
              "name": "liquidityFees",
              "type": "uint256"
            },
            {
              "internalType": "uint256",
              "name": "protocolFees",
              "type": "uint256"
            },
            {
              "internalType": "uint160",
              "name": "sqrtPriceX96Start",
              "type": "uint160"
            },
            {
              "internalType": "uint160",
              "name": "sqrtPriceX96End",
              "type": "uint160"
            }
          ],
          "indexed": false,
          "internalType": "struct IVPoolWrapper.SwapResult",
          "name": "swapResult",
          "type": "tuple"
        }
      ],
      "name": "Swap",
      "type": "event"
    },
    {
      "inputs": [],
      "name": "accruedProtocolFee",
      "outputs": [
        {
          "internalType": "uint256",
          "name": "",
          "type": "uint256"
        }
      ],
      "stateMutability": "view",
      "type": "function"
    },
    {
      "inputs": [
        {
          "internalType": "int24",
          "name": "tickLower",
          "type": "int24"
        },
        {
          "internalType": "int24",
          "name": "tickUpper",
          "type": "int24"
        },
        {
          "internalType": "uint128",
          "name": "liquidity",
          "type": "uint128"
        }
      ],
      "name": "burn",
      "outputs": [
        {
          "internalType": "uint256",
          "name": "vTokenPrincipal",
          "type": "uint256"
        },
        {
          "internalType": "uint256",
          "name": "vQuotePrincipal",
          "type": "uint256"
        },
        {
          "components": [
            {
              "internalType": "int256",
              "name": "sumAX128",
              "type": "int256"
            },
            {
              "internalType": "int256",
              "name": "sumBInsideX128",
              "type": "int256"
            },
            {
              "internalType": "int256",
              "name": "sumFpInsideX128",
              "type": "int256"
            },
            {
              "internalType": "uint256",
              "name": "sumFeeInsideX128",
              "type": "uint256"
            }
          ],
          "internalType": "struct IVPoolWrapper.WrapperValuesInside",
          "name": "wrapperValuesInside",
          "type": "tuple"
        }
      ],
      "stateMutability": "nonpayable",
      "type": "function"
    },
    {
      "inputs": [],
      "name": "clearingHouse",
      "outputs": [
        {
          "internalType": "contract IClearingHouse",
          "name": "",
          "type": "address"
        }
      ],
      "stateMutability": "view",
      "type": "function"
    },
    {
      "inputs": [],
      "name": "collectAccruedProtocolFee",
      "outputs": [
        {
          "internalType": "uint256",
          "name": "accruedProtocolFeeLast",
          "type": "uint256"
        }
      ],
      "stateMutability": "nonpayable",
      "type": "function"
    },
    {
      "inputs": [
        {
          "internalType": "bytes32",
          "name": "slot",
          "type": "bytes32"
        }
      ],
      "name": "extsload",
      "outputs": [
        {
          "internalType": "bytes32",
          "name": "val",
          "type": "bytes32"
        }
      ],
      "stateMutability": "view",
      "type": "function"
    },
    {
      "inputs": [
        {
          "internalType": "bytes32[]",
          "name": "slots",
          "type": "bytes32[]"
        }
      ],
      "name": "extsload",
      "outputs": [
        {
          "internalType": "bytes32[]",
          "name": "",
          "type": "bytes32[]"
        }
      ],
      "stateMutability": "view",
      "type": "function"
    },
    {
      "inputs": [],
      "name": "fpGlobal",
      "outputs": [
        {
          "internalType": "int256",
          "name": "sumAX128",
          "type": "int256"
        },
        {
          "internalType": "int256",
          "name": "sumBX128",
          "type": "int256"
        },
        {
          "internalType": "int256",
          "name": "sumFpX128",
          "type": "int256"
        },
        {
          "internalType": "uint48",
          "name": "timestampLast",
          "type": "uint48"
        }
      ],
      "stateMutability": "view",
      "type": "function"
    },
    {
      "inputs": [],
      "name": "getExtrapolatedSumAX128",
      "outputs": [
        {
          "internalType": "int256",
          "name": "",
          "type": "int256"
        }
      ],
      "stateMutability": "view",
      "type": "function"
    },
    {
      "inputs": [
        {
          "internalType": "int24",
          "name": "tickLower",
          "type": "int24"
        },
        {
          "internalType": "int24",
          "name": "tickUpper",
          "type": "int24"
        }
      ],
      "name": "getExtrapolatedValuesInside",
      "outputs": [
        {
          "components": [
            {
              "internalType": "int256",
              "name": "sumAX128",
              "type": "int256"
            },
            {
              "internalType": "int256",
              "name": "sumBInsideX128",
              "type": "int256"
            },
            {
              "internalType": "int256",
              "name": "sumFpInsideX128",
              "type": "int256"
            },
            {
              "internalType": "uint256",
              "name": "sumFeeInsideX128",
              "type": "uint256"
            }
          ],
          "internalType": "struct IVPoolWrapper.WrapperValuesInside",
          "name": "wrapperValuesInside",
          "type": "tuple"
        }
      ],
      "stateMutability": "view",
      "type": "function"
    },
    {
      "inputs": [],
      "name": "getFundingRateAndVirtualPrice",
      "outputs": [
        {
          "internalType": "int256",
          "name": "",
          "type": "int256"
        },
        {
          "internalType": "uint256",
          "name": "",
          "type": "uint256"
        }
      ],
      "stateMutability": "view",
      "type": "function"
    },
    {
      "inputs": [],
      "name": "getFundingRateOverride",
      "outputs": [
        {
          "internalType": "bytes32",
          "name": "",
          "type": "bytes32"
        }
      ],
      "stateMutability": "view",
      "type": "function"
    },
    {
      "inputs": [],
      "name": "getSumAX128",
      "outputs": [
        {
          "internalType": "int256",
          "name": "",
          "type": "int256"
        }
      ],
      "stateMutability": "view",
      "type": "function"
    },
    {
      "inputs": [
        {
          "internalType": "int24",
          "name": "tickLower",
          "type": "int24"
        },
        {
          "internalType": "int24",
          "name": "tickUpper",
          "type": "int24"
        }
      ],
      "name": "getValuesInside",
      "outputs": [
        {
          "components": [
            {
              "internalType": "int256",
              "name": "sumAX128",
              "type": "int256"
            },
            {
              "internalType": "int256",
              "name": "sumBInsideX128",
              "type": "int256"
            },
            {
              "internalType": "int256",
              "name": "sumFpInsideX128",
              "type": "int256"
            },
            {
              "internalType": "uint256",
              "name": "sumFeeInsideX128",
              "type": "uint256"
            }
          ],
          "internalType": "struct IVPoolWrapper.WrapperValuesInside",
          "name": "wrapperValuesInside",
          "type": "tuple"
        }
      ],
      "stateMutability": "view",
      "type": "function"
    },
    {
      "inputs": [
        {
          "components": [
            {
              "internalType": "address",
              "name": "clearingHouse",
              "type": "address"
            },
            {
              "internalType": "contract IVToken",
              "name": "vToken",
              "type": "address"
            },
            {
              "internalType": "contract IVQuote",
              "name": "vQuote",
              "type": "address"
            },
            {
              "internalType": "contract IUniswapV3Pool",
              "name": "vPool",
              "type": "address"
            },
            {
              "internalType": "uint24",
              "name": "liquidityFeePips",
              "type": "uint24"
            },
            {
              "internalType": "uint24",
              "name": "protocolFeePips",
              "type": "uint24"
            }
          ],
          "internalType": "struct IVPoolWrapper.InitializeVPoolWrapperParams",
          "name": "params",
          "type": "tuple"
        }
      ],
      "name": "initialize",
      "outputs": [],
      "stateMutability": "nonpayable",
      "type": "function"
    },
    {
      "inputs": [],
      "name": "liquidityFeePips",
      "outputs": [
        {
          "internalType": "uint24",
          "name": "",
          "type": "uint24"
        }
      ],
      "stateMutability": "view",
      "type": "function"
    },
    {
      "inputs": [
        {
          "internalType": "int24",
          "name": "tickLower",
          "type": "int24"
        },
        {
          "internalType": "int24",
          "name": "tickUpper",
          "type": "int24"
        },
        {
          "internalType": "uint128",
          "name": "liquidity",
          "type": "uint128"
        }
      ],
      "name": "mint",
      "outputs": [
        {
          "internalType": "uint256",
          "name": "vTokenPrincipal",
          "type": "uint256"
        },
        {
          "internalType": "uint256",
          "name": "vQuotePrincipal",
          "type": "uint256"
        },
        {
          "components": [
            {
              "internalType": "int256",
              "name": "sumAX128",
              "type": "int256"
            },
            {
              "internalType": "int256",
              "name": "sumBInsideX128",
              "type": "int256"
            },
            {
              "internalType": "int256",
              "name": "sumFpInsideX128",
              "type": "int256"
            },
            {
              "internalType": "uint256",
              "name": "sumFeeInsideX128",
              "type": "uint256"
            }
          ],
          "internalType": "struct IVPoolWrapper.WrapperValuesInside",
          "name": "wrapperValuesInside",
          "type": "tuple"
        }
      ],
      "stateMutability": "nonpayable",
      "type": "function"
    },
    {
      "inputs": [],
      "name": "protocolFeePips",
      "outputs": [
        {
          "internalType": "uint24",
          "name": "",
          "type": "uint24"
        }
      ],
      "stateMutability": "view",
      "type": "function"
    },
    {
      "inputs": [
        {
          "internalType": "contract AggregatorV3Interface",
          "name": "chainlinkOracle",
          "type": "address"
        }
      ],
      "name": "setFundingRateOverride",
      "outputs": [],
      "stateMutability": "nonpayable",
      "type": "function"
    },
    {
      "inputs": [
        {
          "internalType": "int256",
          "name": "fundingRateOverrideX128",
          "type": "int256"
        }
      ],
      "name": "setFundingRateOverride",
      "outputs": [],
      "stateMutability": "nonpayable",
      "type": "function"
    },
    {
      "inputs": [
        {
          "internalType": "uint24",
          "name": "liquidityFeePips_",
          "type": "uint24"
        }
      ],
      "name": "setLiquidityFee",
      "outputs": [],
      "stateMutability": "nonpayable",
      "type": "function"
    },
    {
      "inputs": [
        {
          "internalType": "uint24",
          "name": "protocolFeePips_",
          "type": "uint24"
        }
      ],
      "name": "setProtocolFee",
      "outputs": [],
      "stateMutability": "nonpayable",
      "type": "function"
    },
    {
      "inputs": [],
      "name": "sumFeeGlobalX128",
      "outputs": [
        {
          "internalType": "uint256",
          "name": "",
          "type": "uint256"
        }
      ],
      "stateMutability": "view",
      "type": "function"
    },
    {
      "inputs": [
        {
          "internalType": "bool",
          "name": "swapVTokenForVQuote",
          "type": "bool"
        },
        {
          "internalType": "int256",
          "name": "amountSpecified",
          "type": "int256"
        },
        {
          "internalType": "uint160",
          "name": "sqrtPriceLimitX96",
          "type": "uint160"
        }
      ],
      "name": "swap",
      "outputs": [
        {
          "components": [
            {
              "internalType": "int256",
              "name": "amountSpecified",
              "type": "int256"
            },
            {
              "internalType": "int256",
              "name": "vTokenIn",
              "type": "int256"
            },
            {
              "internalType": "int256",
              "name": "vQuoteIn",
              "type": "int256"
            },
            {
              "internalType": "uint256",
              "name": "liquidityFees",
              "type": "uint256"
            },
            {
              "internalType": "uint256",
              "name": "protocolFees",
              "type": "uint256"
            },
            {
              "internalType": "uint160",
              "name": "sqrtPriceX96Start",
              "type": "uint160"
            },
            {
              "internalType": "uint160",
              "name": "sqrtPriceX96End",
              "type": "uint160"
            }
          ],
          "internalType": "struct IVPoolWrapper.SwapResult",
          "name": "swapResult",
          "type": "tuple"
        }
      ],
      "stateMutability": "nonpayable",
      "type": "function"
    },
    {
      "inputs": [
        {
          "internalType": "int24",
          "name": "",
          "type": "int24"
        }
      ],
      "name": "ticksExtended",
      "outputs": [
        {
          "internalType": "int256",
          "name": "sumALastX128",
          "type": "int256"
        },
        {
          "internalType": "int256",
          "name": "sumBOutsideX128",
          "type": "int256"
        },
        {
          "internalType": "int256",
          "name": "sumFpOutsideX128",
          "type": "int256"
        },
        {
          "internalType": "uint256",
          "name": "sumFeeOutsideX128",
          "type": "uint256"
        }
      ],
      "stateMutability": "view",
      "type": "function"
    },
    {
      "inputs": [
        {
          "internalType": "uint256",
          "name": "vTokenAmount",
          "type": "uint256"
        },
        {
          "internalType": "uint256",
          "name": "vQuoteAmount",
          "type": "uint256"
        },
        {
          "internalType": "bytes",
          "name": "",
          "type": "bytes"
        }
      ],
      "name": "uniswapV3MintCallback",
      "outputs": [],
      "stateMutability": "nonpayable",
      "type": "function"
    },
    {
      "inputs": [
        {
          "internalType": "int256",
          "name": "amount0Delta",
          "type": "int256"
        },
        {
          "internalType": "int256",
          "name": "amount1Delta",
          "type": "int256"
        },
        {
          "internalType": "bytes",
          "name": "",
          "type": "bytes"
        }
      ],
      "name": "uniswapV3SwapCallback",
      "outputs": [],
      "stateMutability": "nonpayable",
      "type": "function"
    },
    {
      "inputs": [],
      "name": "unsetFundingRateOverride",
      "outputs": [],
      "stateMutability": "nonpayable",
      "type": "function"
    },
    {
      "inputs": [
        {
          "internalType": "bool",
          "name": "useZeroFundingRate",
          "type": "bool"
        }
      ],
      "name": "updateGlobalFundingState",
      "outputs": [],
      "stateMutability": "nonpayable",
      "type": "function"
    },
    {
      "inputs": [],
      "name": "vPool",
      "outputs": [
        {
          "internalType": "contract IUniswapV3Pool",
          "name": "",
          "type": "address"
        }
      ],
      "stateMutability": "view",
      "type": "function"
    },
    {
      "inputs": [],
      "name": "vQuote",
      "outputs": [
        {
          "internalType": "contract IVQuote",
          "name": "",
          "type": "address"
        }
      ],
      "stateMutability": "view",
      "type": "function"
    },
    {
      "inputs": [],
      "name": "vToken",
      "outputs": [
        {
          "internalType": "contract IVToken",
          "name": "",
          "type": "address"
        }
      ],
      "stateMutability": "view",
      "type": "function"
    },
    {
      "anonymous": false,
      "inputs": [
        {
          "components": [
            {
              "internalType": "int256",
              "name": "sumAX128",
              "type": "int256"
            },
            {
              "internalType": "int256",
              "name": "sumBX128",
              "type": "int256"
            },
            {
              "internalType": "int256",
              "name": "sumFpX128",
              "type": "int256"
            },
            {
              "internalType": "uint48",
              "name": "timestampLast",
              "type": "uint48"
            }
          ],
          "indexed": false,
          "internalType": "struct FundingPayment.Info",
          "name": "fundingPayment",
          "type": "tuple"
        },
        {
          "indexed": false,
          "internalType": "int256",
          "name": "fundingRateX128",
          "type": "int256"
        },
        {
          "indexed": false,
          "internalType": "uint256",
          "name": "virtualPriceX128",
          "type": "uint256"
        }
      ],
      "name": "FundingPaymentStateUpdated",
      "type": "event"
    },
    {
      "inputs": [
        {
          "internalType": "uint160",
          "name": "sqrtPriceX96",
          "type": "uint160"
        }
      ],
      "name": "IllegalSqrtPrice",
      "type": "error"
    },
    {
      "inputs": [
        {
          "internalType": "uint256",
          "name": "value",
          "type": "uint256"
        }
      ],
      "name": "SafeCast_UInt224Overflow",
      "type": "error"
    },
    {
      "inputs": [],
      "name": "UV3PH_OracleConsultFailed",
      "type": "error"
    }
  ],
  "transactionHash": "0x2561763d70e46749f9ed917d908ae3988f1cfd6306743bb123b342d825f94c53",
  "args": [],
  "numDeployments": 2,
  "solcInputHash": "a4d67e4fe9e2d97aaef224b798a05550",
  "bytecode": "0x6080806040523461001757615ffd90816200001d8239f35b600080fdfe60806040526004361015610013575b600080fd5b60003560e01c80630af968001461027f578063195cd92c146102765780631dce5fcf1461026d5780631e2eaeaf146102645780632a99a7921461025b5780633464c4ca14610252578063466c88271461024957806348aaa8c0146102405780634bc36bd614610237578063512403361461022e57806356d15a88146102255780635e622abc1461021c5780636719578c146102135780636c5443351461020a5780637779815c146102015780637c93746b146101f85780637feedaa1146101ef57806386c8e9a7146101e65780638b1e9781146101dd5780639bb1a99c146101d45780639f883c12146101cb578063a34123a7146101c2578063a3a1e7e9146101b9578063a3c35e2c146101b0578063acfd7928146101a7578063c04b98c41461019e578063d348799714610195578063dbd035ff1461018c578063fa461e3314610183578063fb7e3e241461017a5763fca6fbf21461017257600080fd5b61000e611a59565b5061000e611a31565b5061000e611789565b5061000e6116e4565b5061000e611443565b5061000e6113f6565b5061000e6113d7565b5061000e611388565b5061000e611364565b5061000e6112bb565b5061000e611180565b5061000e611158565b5061000e61109f565b5061000e611078565b5061000e610f95565b5061000e610e4b565b5061000e610e2c565b5061000e610dec565b5061000e610dc4565b5061000e610d2d565b5061000e610bc9565b5061000e610b6d565b5061000e610b45565b5061000e610aea565b5061000e610968565b5061000e610949565b5061000e610832565b5061000e6107be565b5061000e6106c8565b5061000e6102d9565b5061000e610293565b600091031261000e57565b503461000e57600060031936011261000e5760206001600160a01b0360005460101c16604051908152f35b8015150361000e57565b6001600160a01b0381160361000e57565b503461000e57606060031936011261000e576004356102f7816102be565b60443590602435610307836102c8565b61030f612a01565b916001600160a01b039360009480865460101c163303610606578185929482888212159216156105d7575b835260035493878162ffffff94858860b81c1687878a60a01c1691610360928589614417565b88610369612a58565b600a60808201529889926101f460a0850152610383615234565b60c086015260e0850152895191169361039b94612da9565b909197516103af906001600160a01b031690565b6001600160a01b031660a088015260409889809201516103d5906001600160a01b031690565b6001600160a01b0390811660c08a0152600354895184517f128acb0800000000000000000000000000000000000000000000000000000000815230600482015288151560248201526044810191909152928216606484015260a06084840152600060a48401529194859260c492849291165af161058b9a6104929861047d9483156105ca575b8293610599575b50828b8a01528160208a015214918261058f575b5050612acc565b60035492808460b81c169360a01c1691614534565b6104aa6104a56080840151600454612b30565b600455565b6104b2615c0b565b7f374e2c00db0195ec47718dc83fbed946c07c24c240e8332e547d9b4ac086fd4781518061052f858291909160c060e08201938051835260208101516020840152604081015160408401526060810151606084015260808101516080840152816001600160a01b03918260a08201511660a0860152015116910152565b0390a1519182918291909160c060e08201938051835260208101516020840152604081015160408401526060810151606084015260808101516080840152816001600160a01b03918260a08201511660a0860152015116910152565b0390f35b1490503880610476565b9092506105bc91508a3d8c116105c3575b6105b48183611648565b810190612ab6565b9138610462565b503d6105aa565b6105d2612719565b61045b565b945083156105ec576401000276a45b9461033a565b73fffd8963efd1fc6a506488495d951d5263988d256105e6565b60046040517f8597d08b000000000000000000000000000000000000000000000000000000008152fd5b8060020b0361000e57565b6fffffffffffffffffffffffffffffffff81160361000e57565b600319606091011261000e5760043561066d81610630565b9060243561067a81610630565b906044356106878161063b565b90565b6040906106c6939594929560c0820196825260208201520190606080918051845260208101516020850152604081015160408501520151910152565b565b503461000e576106d736610655565b90916106e1614f44565b506001600160a01b0360005460101c163303610606578260020b8160020b90808212918215926107b0575b82156107a3575b8215610792575b508115610782575b50610744579061058b9261073592614f69565b6040939193519384938461068a565b6040517f957b5ed5000000000000000000000000000000000000000000000000000000008152600291820b600482015292900b602483015250604490fd5b600a91500760020b151538610722565b600a900760020b151591503861071a565b620d89e882139250610713565b620d89e7198112925061070c565b503461000e57602060031936011261000e57602060043554604051908152f35b600319604091011261000e576004356107f681610630565b9060243561068781610630565b6106c6909291926080810193606080918051845260208101516020850152604081015160408501520151910152565b503461000e5761058b6108ec610847366107de565b9190610851614f44565b92600460e061087761086b6003546001600160a01b031690565b6001600160a01b031690565b604051928380927f3850c7bd0000000000000000000000000000000000000000000000000000000082525afa90811561093c575b600091610907575b506108bc61568f565b916108da6108c8615510565b80855260055460065460075491615806565b604084015282518652600954936156c3565b60608401526040830152602082015260405191829182610803565b610928915060e03d8111610935575b6109208183611648565b810190612b56565b50505050509050386108b3565b503d610916565b610944612719565b6108ab565b503461000e57600060031936011261000e576020600a54604051908152f35b503461000e5760208060031936011261000e5760043590610988826102c8565b6000546109a09060101c6001600160a01b031661086b565b90604051907f5aa6e6750000000000000000000000000000000000000000000000000000000082528082600481865afa918215610add575b600092610abe575b506001600160a01b038092163314159283610a32575b505050610a0857610a06906128b3565b005b60046040517f52d335a7000000000000000000000000000000000000000000000000000000008152fd5b8192935090600491604051928380927fdbc0c0850000000000000000000000000000000000000000000000000000000082525afa918215610ab1575b600092610a84575b5050163314153880806109f6565b610aa39250803d10610aaa575b610a9b8183611648565b810190612704565b3880610a76565b503d610a91565b610ab9612719565b610a6e565b81610ad69293503d8411610aaa57610a9b8183611648565b90386109e0565b610ae5612719565b6109d8565b503461000e57602060031936011261000e57600435610b0881610630565b60020b600052600b602052608060406000208054906001810154906003600282015491015491604051938452602084015260408301526060820152f35b503461000e57600060031936011261000e5760206001600160a01b0360025416604051908152f35b503461000e57602060031936011261000e57600435610b8b816102be565b6001600160a01b0360005460101c16330361060657610a0690610bac615234565b9115610bc4575060005b65ffffffffffff4216611f8a565b610bb6565b503461000e5760c060031936011261000e5760005460ff8160081c169081600014610d245750303b155b15610ca0571580610c3a575b610c07611a98565b610c0d57005b610a067fffffffffffffffffffffffffffffffffffffffffffffffffffffffffffff00ff60005416600055565b610c6b6101007fffffffffffffffffffffffffffffffffffffffffffffffffffffffffffff00ff6000541617600055565b610c9b60017fffffffffffffffffffffffffffffffffffffffffffffffffffffffffffffff006000541617600055565b610bff565b60846040517f08c379a000000000000000000000000000000000000000000000000000000000815260206004820152602e60248201527f496e697469616c697a61626c653a20636f6e747261637420697320616c72656160448201527f647920696e697469616c697a65640000000000000000000000000000000000006064820152fd5b60ff1615610bf3565b503461000e57600060031936011261000e576001600160a01b0360005460101c1633036106065761058b600060045480610d9d575b507f889bbef14ccbbb6f97773359c9c09396f67ed97695236771816a304ec5d886116020604051838152a16040519081529081906020820190565b600019915060018110610db7575b01600160045538610d62565b610dbf611c1c565b610dab565b503461000e57600060031936011261000e5760206001600160a01b0360035416604051908152f35b503461000e57600060031936011261000e57608060055460065460075465ffffffffffff6008541691604051938452602084015260408301526060820152f35b503461000e57600060031936011261000e576020600554604051908152f35b503461000e57600080600319360112610f85578054610e759060101c6001600160a01b031661086b565b6040517f5aa6e67500000000000000000000000000000000000000000000000000000000815260208082600481865afa918215610f78575b8492610f59575b506001600160a01b038092163314159283610ede575b505050610a0857610ed9612898565b604051f35b8192935090600491604051928380927fdbc0c0850000000000000000000000000000000000000000000000000000000082525afa918215610f4c575b8492610f2f575b505016331415388080610eca565b610f459250803d10610aaa57610a9b8183611648565b3880610f21565b610f54612719565b610f1a565b81610f719293503d8411610aaa57610a9b8183611648565b9038610eb4565b610f80612719565b610ead565b80fd5b62ffffff81160361000e57565b503461000e57602060031936011261000e57600435610fb381610f88565b6001600160a01b0360046020610fd68360005460101c166001600160a01b031690565b604051928380927f5aa6e6750000000000000000000000000000000000000000000000000000000082525afa90811561106b575b60009161104d575b5016330361102357610a06906127e2565b60046040517fb56f932c000000000000000000000000000000000000000000000000000000008152fd5b611065915060203d8111610aaa57610a9b8183611648565b38611012565b611073612719565b61100a565b503461000e57600060031936011261000e57602062ffffff60035460a01c16604051908152f35b503461000e57602060031936011261000e576004356110bd81610f88565b6001600160a01b03600460206110e08360005460101c166001600160a01b031690565b604051928380927f5aa6e6750000000000000000000000000000000000000000000000000000000082525afa90811561114b575b60009161112d575b5016330361102357610a0690612726565b611145915060203d8111610aaa57610a9b8183611648565b3861111c565b611153612719565b611114565b503461000e57600060031936011261000e5760206001600160a01b0360015416604051908152f35b503461000e5760208060031936011261000e576000546111ab9060101c6001600160a01b031661086b565b90604051907f5aa6e6750000000000000000000000000000000000000000000000000000000082528082600481865afa9182156112ae575b60009261128f575b506001600160a01b038092163314159283611213575b505050610a0857610a0660043561293c565b8192935090600491604051928380927fdbc0c0850000000000000000000000000000000000000000000000000000000082525afa918215611282575b600092611265575b505016331415388080611201565b61127b9250803d10610aaa57610a9b8183611648565b3880611257565b61128a612719565b61124f565b816112a79293503d8411610aaa57610a9b8183611648565b90386111eb565b6112b6612719565b6111e3565b503461000e576112ca36610655565b90916112d4614f44565b506001600160a01b0360005460101c163303610606578260020b8160020b9080821291821592611356575b8215611349575b8215611338575b508115611328575b50610744579061058b9261073592615145565b600a91500760020b151538611315565b600a900760020b151591503861130d565b620d89e882139250611306565b620d89e719811292506112ff565b503461000e57600060031936011261000e576020611380615510565b604051908152f35b503461000e5760806113aa61139c366107de565b906113a5614f44565b61553a565b6113d56040518092606080918051845260208101516020850152604081015160408501520151910152565bf35b503461000e57600060031936011261000e576020600454604051908152f35b503461000e57600060031936011261000e576020600954604051908152f35b9181601f8401121561000e5782359167ffffffffffffffff831161000e576020838186019501011161000e57565b503461000e57606060031936011261000e5760043560243560443567ffffffffffffffff811161000e5761147b903690600401611415565b50506001600160a01b036003541633036115b15780611527575b508061149d57005b6114b261086b6001546001600160a01b031690565b803b1561000e576040517f40c10f1900000000000000000000000000000000000000000000000000000000815233600482015260248101929092526000908290604490829084905af1801561151a575b15610a065780611514610a069261160b565b80610288565b611522612719565b611502565b61153c61086b6002546001600160a01b031690565b803b1561000e576040517f40c10f1900000000000000000000000000000000000000000000000000000000815233600482015260248101929092526000908290604490829084905af180156115a4575b15611495578061151461159e9261160b565b38611495565b6115ac612719565b61158c565b60046040517f21162cac000000000000000000000000000000000000000000000000000000008152fd5b507f4e487b7100000000000000000000000000000000000000000000000000000000600052604160045260246000fd5b67ffffffffffffffff811161161f57604052565b6116276115db565b604052565b6080810190811067ffffffffffffffff82111761161f57604052565b90601f7fffffffffffffffffffffffffffffffffffffffffffffffffffffffffffffffe0910116810190811067ffffffffffffffff82111761161f57604052565b6040519060e0820182811067ffffffffffffffff82111761161f57604052565b6020908160408183019282815285518094520193019160005b8281106116d0575050505090565b8351855293810193928101926001016116c2565b503461000e5760208060031936011261000e5767ffffffffffffffff60043581811161000e573660238201121561000e57806004013591821161177c575b8160051b6040519261173685830185611648565b83526024848401918301019136831161000e57602401905b82821061176d5761058b61176185615df1565b604051918291826116a9565b8135815290840190840161174e565b6117846115db565b611722565b503461000e57606060031936011261000e57600480359060243560443567ffffffffffffffff811161000e576117c29036908401611415565b50506001600160a01b0390816003541691823303611a0857600094859384821361190a575b50508282136117f7575b82604051f35b61180c61086b6003546001600160a01b031690565b906040517fd21220a70000000000000000000000000000000000000000000000000000000081526020818781865afa9081156118fd575b85916118df575b501690813b156118db57836118a395604051968795869485937f40c10f190000000000000000000000000000000000000000000000000000000085528401602090939291936001600160a01b0360408201951681520152565b03925af180156118ce575b6118bb575b8181806117f1565b806115146118c89261160b565b386118b3565b6118d6612719565b6118ae565b8380fd5b6118f7915060203d8111610aaa57610a9b8183611648565b3861184a565b611905612719565b611843565b826040517f0dfe16810000000000000000000000000000000000000000000000000000000081526020818981865afa9081156119fb575b87916119dd575b501691823b156119d9576119a3928692836040518096819582947f40c10f190000000000000000000000000000000000000000000000000000000084528d8401602090939291936001600160a01b0360408201951681520152565b03925af180156119cc575b6119b9575b806117e7565b806115146119c69261160b565b386119b3565b6119d4612719565b6119ae565b8580fd5b6119f5915060203d8111610aaa57610a9b8183611648565b38611948565b611a03612719565b611941565b836040517f21162cac000000000000000000000000000000000000000000000000000000008152fd5b503461000e57600060031936011261000e576040611a4d615234565b82519182526020820152f35b503461000e57600060031936011261000e57602062ffffff60035460b81c16604051908152f35b60843561068781610f88565b60a43561068781610f88565b600435611aa4816102c8565b7fffffffffffffffffffff0000000000000000000000000000000000000000ffff75ffffffffffffffffffffffffffffffffffffffff00006000549260101b16911617600055602435611af6816102c8565b6001600160a01b03807fffffffffffffffffffffffff0000000000000000000000000000000000000000921682600154161760015580604435611b38816102c8565b16826002541617600255606435611b4e816102c8565b16906003541617600355611bac611b63611a80565b7fffffffffffffffffff000000ffffffffffffffffffffffffffffffffffffffff76ffffff00000000000000000000000000000000000000006003549260a01b16911617600355565b611c03611bb7611a8c565b7fffffffffffff000000ffffffffffffffffffffffffffffffffffffffffffffff79ffffff00000000000000000000000000000000000000000000006003549260b81b16911617600355565b611c0b61233f565b6106c665ffffffffffff4216611d48565b507f4e487b7100000000000000000000000000000000000000000000000000000000600052601160045260246000fd5b600081129060001991817f7fffffffffffffffffffffffffffffffffffffffffffffffffffffffffffffff038313811516611ca0575b81600160ff1b03831216611c94570190565b611c9c611c1c565b0190565b611ca8611c1c565b611c82565b60008112817f7fffffffffffffffffffffffffffffffffffffffffffffffffffffffffffffff03600013811516611cf9575b81600160ff1b0360001216611cf15790565b610687611c1c565b611d01611c1c565b611cdf565b60008112817f7fffffffffffffffffffffffffffffffffffffffffffffffffffffffffffffff038313811516611ca05781600160ff1b03831216611c94570190565b65ffffffffffff1960085465ffffffffffff8093169281168310611e52575b611da6600654611d90611d7982612639565b6000811280611e24575b611e16575b600754611d06565b600755611d9e600554611cad565b600555611cad565b60065516176008557f62187ed3f133848cd15541a988e634a4c2e6a75750e025c69ea914b1ea2263cc60405180611e118190600160a060c084019360055481526006546020820152600754604082015265ffffffffffff600854166060820152600060808201520152565b0390a1565b611e1f90611c4c565b611d88565b50611e2e836126ae565b700100000000000000000000000000000000600091820915611d8357506001611d83565b611e5a611c1c565b611d67565b7f62187ed3f133848cd15541a988e634a4c2e6a75750e025c69ea914b1ea2263cc91611e119165ffffffffffff19600854611eff611ecb65ffffffffffff948584169580611eb4611eaf8a612569565b61262a565b921696808810611f7d575b87031660050b90612231565b611d9e60065491611ef4611edf848361267b565b6000811280611f4757611e1657600754611d06565b600755600554611d06565b600655161760085560405191829182919060a060c084019360055481526006546020820152600754604082015265ffffffffffff600854166060820152600060808201520152565b50611f51836126ae565b700100000000000000000000000000000000611f6c876126ae565b6000920915611d8357506001611d83565b611f85611c1c565b611ebf565b907f62187ed3f133848cd15541a988e634a4c2e6a75750e025c69ea914b1ea2263cc929165ffffffffffff196008549165ffffffffffff90611fd08686838588166122d6565b611fe460065491611ef4611edf848361267b565b6005556000811290807f7fffffffffffffffffffffffffffffffffffffffffffffffffffffffffffffff03600013821516612081575b600160ff1b0360001216612074575b16911617600855611e116040519283928360a0909392919360c081019460055482526006546020830152600754604083015265ffffffffffff60085416606083015260808201520152565b61207c611c1c565b612029565b612089611c1c565b61201a565b65ffffffffffff19907f62187ed3f133848cd15541a988e634a4c2e6a75750e025c69ea914b1ea2263cc95949361213e600854948593612133611eaf61212d6120e28c8c8965ffffffffffff809c166122d6565b9361210c60065495611ef46120f7888361267b565b60008112806121a357611e1657600754611d06565b60055560019060008082121561219c579150612127906123c1565b956126c3565b946123d9565b911561218c57611d06565b60065516911617600855611e116040519283928360a0909392919360c081019460055482526006546020830152600754604083015265ffffffffffff60085416606083015260808201520152565b90612196906123c1565b90611d06565b50956126c3565b506121ad836126ae565b700100000000000000000000000000000000611f6c8b6126ae565b60016000198183600160ff1b058212600085131616612224575b827f7fffffffffffffffffffffffffffffffffffffffffffffffffffffffffffffff0513600083121616612217575b60000390565b61221f611c1c565b612211565b61222c611c1c565b6121e2565b600082136000821390837f7fffffffffffffffffffffffffffffffffffffffffffffffffffffffffffffff8181048511838516166122c9575b6000821292600160ff1b948487870585129116166122bc575b826000871295058612908516166122af575b0583129116166122a3570290565b6122ab611c1c565b0290565b6122b7611c1c565b612295565b6122c4611c1c565b612283565b6122d1611c1c565b61226a565b6106879360008412936122fb91611eaf9186156122f6576122f6906121c8565b6125ad565b9261232f575b65ffffffffffff80809316911690818110612322575b031660050b90612231565b61232a611c1c565b612317565b91612339906123c1565b91612301565b7fd2d06ee736d3d6ea4ad579594bdfae87317018c75692e5a82d77fdc85fc389f360207f7fffffffffffffffffffffffffffffffffffffffffffffffffffffffffffffff80600a55604051908152a1565b60207fd2d06ee736d3d6ea4ad579594bdfae87317018c75692e5a82d77fdc85fc389f39180600a55604051908152a1565b600160ff1b81146122175760000390565b1561000e57565b70010000000000000000000000000000000091600019838309928260801b92838086109503948086039514612465579082916124168684116123d2565b0981806000031680920460028082600302188083028203028083028203028083028203028083028203028083028203028092029003029360018380600003040190848311900302920304170290565b505091506124748215156123d2565b0490565b90600019818309818302918280831092039180830392146124d657620f4240908282111561000e577fde8f6cefed634549b62c77574f722e1ac57e23f24d8fd5cb790fb65668c26139940990828211900360fa1b910360061c170290565b5050620f424091500490565b6c0100000000000000000000000091600019838309928260601b92838086109503948086039514612465579082916124168684116123d2565b6000198282099082810292838084109303928084039314612560576c01000000000000000000000000918383111561000e570990828211900360a01b910360601c1790565b50505060601c90565b6000906000198183099081156125a85770010000000000000000000000000000000090828211156118db57830990811515900360801b910360801c1790565b505090565b60001982820990828102928380841093039280840393146125f657700100000000000000000000000000000000918383111561000e570990828211900360801b910360801c1790565b50505060801c90565b90916000198383099280830292838086109503948086039514612465579082916124168684116123d2565b600160ff1b81101561000e5790565b906001600083121561266e575061265c611eaf6126576000946123c1565b612569565b911561266457565b90610687906123c1565b91611eaf61265c91612569565b611eaf6126a161265c929493946001600082126000146126a757506121276000916123c1565b946125ad565b90956126c3565b60008113156126ba5790565b610687906123c1565b91906000831215610687576126d99015926123c1565b9190565b6000199060018110611c94570190565b8181106126f8570390565b612700611c1c565b0390565b9081602091031261000e5751610687816102c8565b506040513d6000823e3d90fd5b62ffffff811690620186a082116127b1577f5e286c9a939d59334080ddf15517957037c2228384e26bb92a368ce44c531edd916127a86020927fffffffffffffffffff000000ffffffffffffffffffffffffffffffffffffffff76ffffff00000000000000000000000000000000000000006003549260a01b16911617600355565b604051908152a1565b60246040517fd4131ba200000000000000000000000000000000000000000000000000000000815260106004820152fd5b62ffffff811690620186a08211612867577f2edf7eef14cb246dab2aac555e300928981632918159d9e33fcaa24dcd38cb40916127a86020927fffffffffffff000000ffffffffffffffffffffffffffffffffffffffffffffff79ffffff00000000000000000000000000000000000000000000006003549260b81b16911617600355565b60246040517fd4131ba200000000000000000000000000000000000000000000000000000000815260206004820152fd5b61233f6128a3615234565b905065ffffffffffff4216611e5f565b6128be6128a3615234565b6001600160a01b038116801561290b57507fffffffffffffffffffffffffffffffffffffffff0000000000000000000000006106c69160601b166b41444452455353000000000017612390565b602490604051907f495097960000000000000000000000000000000000000000000000000000000082526004820152fd5b6129476128a3615234565b7f7fffffffffffffffffffffffffffffffffffffffffffffffffffffffffffffff811480156129af575b61297e576106c690612390565b602490604051907f83119a2f0000000000000000000000000000000000000000000000000000000082526004820152fd5b506001600160a01b036129c1826129c9565b161515612971565b906000918060a01b7f4144445245535300000000000000000000000000000000000000000000000000146129fa5750565b60601c9150565b6040519060e0820182811067ffffffffffffffff821117612a4b575b6040528160c06000918281528260208201528260408201528260608201528260808201528260a08201520152565b612a536115db565b612a1d565b60405190610100820182811067ffffffffffffffff821117612aa9575b6040528160e06000918281528260208201528260408201528260608201528260808201528260a08201528260c08201520152565b612ab16115db565b612a75565b919082604091031261000e576020825192015190565b15612ad357565b7f4e487b7100000000000000000000000000000000000000000000000000000000600052600160045260246000fd5b6001907ffffffffffffffffffffffffffffffffffffffffffffffffffffffffffffffffe8111611c94570190565b81198111611c94570190565b519061ffff8216820361000e57565b51906106c6826102be565b908160e091031261000e578051612b6c816102c8565b916020820151612b7b81610630565b91612b8860408201612b3c565b91612b9560608301612b3c565b91612ba260808201612b3c565b9160a082015160ff8116810361000e5760c090920151610687816102be565b9081602091031261000e57516106878161063b565b9081602091031261000e575161068781610f88565b9081602091031261000e575161068781610630565b6000821282600160ff1b018212811516612c43575b827f7fffffffffffffffffffffffffffffffffffffffffffffffffffffffffffffff018213166126f8570390565b612c4b611c1c565b612c15565b91908261010091031261000e578151612c688161063b565b91602081015180600f0b810361000e579160408201519160608101519160808201518060060b810361000e579160a0810151612ca3816102c8565b9160c082015163ffffffff8116810361000e5760e0610687919301612b4b565b600f0b7fffffffffffffffffffffffffffffffff8000000000000000000000000000000081146122175760000390565b906fffffffffffffffffffffffffffffffff8080931691168092038111611c94570190565b6fffffffffffffffffffffffffffffffff91821691168181106126f8570390565b6000199060020b7fffffffffffffffffffffffffffffffffffffffffffffffffffffffffff8000018112600116611c94570190565b60020b9060020b906000821282627fffff19018212811516612d9c575b82627fffff018213166126f8570390565b612da4611c1c565b612d8b565b91949394929092612db8612a01565b508015613722576001600160a01b03612dd887516001600160a01b031690565b1615613668575b60608601946fffffffffffffffffffffffffffffffff612e0f87516fffffffffffffffffffffffffffffffff1690565b16156135c6575b608087015160020b1561349c575b841561344f57612e3e61086b88516001600160a01b031690565b6001600160a01b038416908111908115613440575b505b61340657612ef2612e6d88516001600160a01b031690565b96612ecb612e99612e8260208c015160020b90565b92516fffffffffffffffffffffffffffffffff1690565b91612ec1612ea5611689565b878152600060208201526001600160a01b03909b1660408c0152565b60020b60608a0152565b60006080890181905260a08901526fffffffffffffffffffffffffffffffff1660c0880152565b855b86511515806133ec575b156133ad5786612f7b612f71612f67898c612f576080612f4e6060612f21612a01565b99612f46612f3960408301516001600160a01b031690565b6001600160a01b03168c52565b015160020b90565b92015160020b90565b906001600160a01b038c16614a33565b1515604085015290565b60020b6020830152565b602081015160020b620d89e7198112156133955750620d89e71960208201525b612fc4612fb4612faf602084015160020b90565b613d43565b6001600160a01b03166060830152565b61305f613036612fde60408b01516001600160a01b031690565b891561337d5760608401516001600160a01b038981169116105b15613362578b8b895b61303060a061302360c08501516fffffffffffffffffffffffffffffffff1690565b935194015162ffffff1690565b9361374c565b60c0860190815260a08601918252608086019283526001600160a01b0390931660408d01529192565b600087131561332a579061308661307f611eaf61309d9451865190612b30565b8c51612c00565b8b5261309760208c0151915161262a565b90612c00565b60208a01525b6130d86130c360c08b01516fffffffffffffffffffffffffffffffff1690565b6fffffffffffffffffffffffffffffffff1690565b9081613306575b50506130ed81898b8a615e1a565b60408801516001600160a01b03169061311361086b60608301516001600160a01b031690565b6001600160a01b0383169081036132d4575060408101516131549250613165575b8715613159576020015161314a9060020b612d39565b60020b6060890152565b612ef4565b6020015160020b61314a565b61323f89896131c761317b602086015160020b90565b604051907ff30dba93000000000000000000000000000000000000000000000000000000008252818d816001600160a01b038161010097889660048301919091602081019260020b9052565b0392165afa9182156132c7575b600092613292575b50508091613282575b50600081600f0b12600014613244576132206130c361321a60c06132269501516fffffffffffffffffffffffffffffffff1690565b92612cc3565b90612d18565b6fffffffffffffffffffffffffffffffff1660c08b0152565b613134565b61326460c061327d9301516fffffffffffffffffffffffffffffffff1690565b906fffffffffffffffffffffffffffffffff1690612cf3565b613226565b61328c9150612cc3565b386131e5565b6132b19250803d106132c0575b6132a98183611648565b810190612c50565b505050505050905038806131dc565b503d61329f565b6132cf612719565b6131d4565b90516132e8906001600160a01b031661086b565b036132f4575b50612ef4565b61314a613300916140ea565b386132ee565b61331e9161331491516123d9565b60808a0151612b30565b608089015238806130df565b61334161333a613358935161262a565b8c51611d06565b8b52612196611eaf60208d01519251855190612b30565b60208a01526130a3565b8b8b61337860608701516001600160a01b031690565b613001565b60608401516001600160a01b03898116911611612ff8565b620d89e81215612f9b57620d89e86020820152612f9b565b9492509550915060008213901515146000146133d8576133d1602091845190612c00565b9201519192565b602083015192516133e891612c00565b9192565b5060408701516001600160a01b0385811691161415612efe565b6040517f51b516ae0000000000000000000000000000000000000000000000000000000081526001600160a01b0384166004820152602490fd5b6401000276a391501038612e53565b61346361086b88516001600160a01b031690565b6001600160a01b03841690811090811561347e575b50612e55565b73fffd8963efd1fc6a506488495d951d5263988d2691501138613478565b61354861350060046001600160a01b038716604051907fddca3f43000000000000000000000000000000000000000000000000000000008252602093828d8682878297875afa9182156135b9575b600092613587575b5060a0019062ffffff169052565b604051928380927fd0c93a7c0000000000000000000000000000000000000000000000000000000082525afa91821561357a575b60009261354d575b505060020b6080890152565b612e24565b61356c9250803d10613573575b6135648183611648565b810190612beb565b388061353c565b503d61355a565b613582612719565b613534565b60a09192506135ab90863d88116135b2575b6135a38183611648565b810190612bd6565b91906134f2565b503d613599565b6135c1612719565b6134ea565b6136286040517f1a6865020000000000000000000000000000000000000000000000000000000081526020816004816001600160a01b038a165afa90811561365b575b60009161362d575b506fffffffffffffffffffffffffffffffff168752565b612e16565b61364e915060203d8111613654575b6136468183611648565b810190612bc1565b38613611565b503d61363c565b613663612719565b613609565b6136dd6040517f3850c7bd00000000000000000000000000000000000000000000000000000000815260e0816004816001600160a01b0389165afa8015613715575b600090819082906136e2575b60ff1660408b01529091506136d0905b60020b60208a0152565b6001600160a01b03168752565b612ddf565b5050506136d06137026136c69260e03d8111610935576109208183611648565b50949250505093909190508392506136b6565b61371d612719565b6136aa565b60046040517f1f2a2005000000000000000000000000000000000000000000000000000000008152fd5b949190928594600080806001600160a01b03908189169283838c161015978b8389129b898d15988c8a6000146138ed5790508492915061379662ffffff8c620f424003168d612478565b81156138db57836137a8818786613c3d565b955b8683106138c957505050509e8f965b8716968789149c600014613871578c8061386a575b1561385b575050505b9b8c9980613854575b156138445750505b985b80613839575b61382e575b5082613823575b50501561380857500390565b9050610687915062ffffff8082620f4240031691168561396e565b1415905038806137fc565b8590039750386137f5565b5085810389116137f0565b61384f92508d613ca4565b6137e8565b508b6137e0565b6138659350613c3d565b6137d7565b50896137ce565b809392918d806138c2575b156138b3575050505b9c8d9a806138ac575b1561389d575050505b986137ea565b6138a79350613be2565b613897565b508c61388e565b6138bd9350613cdf565b613885565b508a61387c565b6138d394506139a9565b9e8f966137b9565b836138e7818588613cdf565b956137aa565b909385939296508160001461392c5783613908818386613ca4565b915b919789039188831061392257505050509e8f966137b9565b6138d39450613b39565b83613938818584613be2565b9161390a565b507f4e487b7100000000000000000000000000000000000000000000000000000000600052601260045260246000fd5b92919061397c8282866125ff565b93821561399c575b0961398b57565b9060001981101561000e5760010190565b6139a461393e565b613984565b926001600160a01b039081851691821561000e576fffffffffffffffffffffffffffffffff841691821561000e57600090156139ec575050505061068792613a3c565b506106879550613a0c949293509091908111613a115760601b0490612b30565b613b25565b90613a1b916124e2565b90612b30565b8015613a2f575b6000190490565b613a3761393e565b613a28565b919081156125a8577bffffffffffffffffffffffffffffffff0000000000000000000000009060601b16906001600160a01b038093168082028183820414613aac575b509081613a939215613a9f575b8304612b30565b80820615159104011690565b613aa761393e565b613a8c565b8301838110613a7f579150613ac09261396e565b1690565b919081156125a8577bffffffffffffffffffffffffffffffff0000000000000000000000006001600160a01b039160601b16921691828083029283041480613b1c575b1561000e5761068792613a0c9282039161396e565b50818111613b07565b906001600160a01b03821691820361000e57565b919290926001600160a01b039384841693841561000e576fffffffffffffffffffffffffffffffff821693841561000e5715613bd3575060009050848211613b97575060601b908082061515910401905b8181111561000e57031690565b90916c01000000000000000000000000613bb182856124e2565b9309613bbf575b5090613b8a565b600019821015610f85575060010138613bb8565b91935091506106879350613ac4565b91906001600160a01b039182821683851611613c35575b82841693841561000e57837bffffffffffffffffffffffffffffffff000000000000000000000000916124749585169403169160601b166125ff565b929092613bf9565b91906001600160a01b039182821683851611613c9c575b82841693841561000e57837bffffffffffffffffffffffffffffffff00000000000000000000000091613c909585169403169160601b1661396e565b90808206151591040190565b929092613c54565b61068792916fffffffffffffffffffffffffffffffff916001600160a01b039182811683831611613cd9575b0316911661251b565b90613cd0565b6c01000000000000000000000000916fffffffffffffffffffffffffffffffff916001600160a01b039182811683831611613d3d575b0316921691613d24818461251b565b9209613d2d5790565b60001981101561000e5760010190565b90613d15565b60020b60008112156140e457806000035b620d89e881116140ba576001600160a01b039160018216156140915770ffffffffffffffffffffffffffffffffff6ffffcb933bd6fad37aa2d162d1a5940015b169160028116614075575b60048116614059575b6008811661403d575b60108116614021575b60208116614005575b60408116613fe9575b608090818116613fce575b6101008116613fb3575b6102008116613f98575b6104008116613f7d575b6108008116613f62575b6110008116613f47575b6120008116613f2c575b6140008116613f11575b6180008116613ef6575b620100008116613edb575b620200008116613ec1575b620400008116613ea7575b6208000016613e8c575b50600012613e7e575b63ffffffff8116613e755760ff60005b169060201c011690565b60ff6001613e6b565b613e8790613a21565b613e5b565b6b048a170391f7dc42444e8fa26000929302901c9190613e52565b6d2216e584f5fa1ea926041bedfe98909302811c92613e48565b926e5d6af8dedb81196699c329225ee60402811c92613e3d565b926f09aa508b5b7a84e1c677de54f3e99bc902811c92613e32565b926f31be135f97d08fd981231505542fcfa602811c92613e27565b926f70d869a156d2a1b890bb3df62baf32f702811c92613e1d565b926fa9f746462d870fdf8a65dc1f90e061e502811c92613e13565b926fd097f3bdfd2022b8845ad8f792aa582502811c92613e09565b926fe7159475a2c29b7443b29c7fa6e889d902811c92613dff565b926ff3392b0822b70005940c7a398e4b70f302811c92613df5565b926ff987a7253ac413176f2b074cf7815e5402811c92613deb565b926ffcbe86c7900a88aedcffc83b479aa3a402811c92613de1565b926ffe5dee046a99a2a811c461f1969c305302811c92613dd7565b916fff2ea16466c96a3843ec78b326b528610260801c91613dcc565b916fff973b41fa98c081472e6896dfb254c00260801c91613dc3565b916fffcb9843d60f6159c9db58835c9266440260801c91613dba565b916fffe5caca7e10e4e61c3624eaa0941cd00260801c91613db1565b916ffff2e50f5f656932ef12357cf3c7fdcc0260801c91613da8565b916ffff97272373d413259a46990580e213a0260801c91613d9f565b70ffffffffffffffffffffffffffffffffff700100000000000000000000000000000000613d94565b60046040517f2bc80f3a000000000000000000000000000000000000000000000000000000008152fd5b80613d54565b6001600160a01b038116906401000276a3821015806143fa575b156143d05777ffffffffffffffffffffffffffffffffffffffff000000009060201b16806fffffffffffffffffffffffffffffffff811160071b9181831c9267ffffffffffffffff841160061b93841c9363ffffffff851160051b94851c9461ffff861160041b95861c60ff9687821160031b91821c92600f841160021b93841c94600160038711811b96871c1196171717171717179160808310156000146143c457507fffffffffffffffffffffffffffffffffffffffffffffffffffffffffffffff8182011c5b8002607f928392828493841c81841c1c800280851c81851c1c800280861c81861c1c800280871c81871c1c80029081881c82881c1c80029283891c84891c1c800294858a1c868a1c1c800296878b1c888b1c1c800298898c1c8a8c1c1c80029a8b8d1c8c821c1c8002809d1c8d821c1c8002809e81901c90821c1c80029e8f80911c911c1c800260cd1c6604000000000000169d60cc1c6608000000000000169c60cb1c6610000000000000169b60ca1c6620000000000000169a60c91c6640000000000000169960c81c6680000000000000169860c71c670100000000000000169760c61c670200000000000000169660c51c670400000000000000169560c41c670800000000000000169460c31c671000000000000000169360c21c672000000000000000169260c11c674000000000000000169160c01c67800000000000000016907fffffffffffffffffffffffffffffffffffffffffffffffffffffffffffffff800160401b1717171717171717171717171717693627a301d71055774c85027ffffffffffffffffffffffffffffffffffd709b7e5480fba5a50fed5e62ffc556810160801d60020b906fdb2df09e81959a81455e260799a0632f0160801d60020b916000908383146000146143a8575050905090565b6143b461086b85613d43565b1190506143bf575090565b905090565b905081607f031b6141cd565b60046040517f4980e1be000000000000000000000000000000000000000000000000000000008152fd5b5073fffd8963efd1fc6a506488495d951d5263988d268210614104565b1561446b571561443157505061442d8151614617565b9052565b61445d61444661442d936144639386516147c9565b806080879493940152826060870152855192612b30565b906148a0565b808352614617565b61447457505050565b6145076144e86144d36144da61442d9561449661449189516126ae565b614786565b6144e062ffffff9182806144a98b614603565b1681861690818110614527575b031690811561451a575b04926144da83620f42409788938c6147b1565b168561479e565b04612b02565b96169061479e565b828180941061450d575b03806080860152826060860152845192612b30565b90614882565b614515611c1c565b6144f2565b61452261393e565b6144c0565b61452f611c1c565b6144b6565b91939291156145aa571561457e579061445d606061456b61442d946020850161455d8151614701565b905260408501968751614852565b9184836080849701520152845192612b30565b50905061442d60408201916145076145968451614701565b918285526080606082015191015190612b30565b6145d25790614507606061456b61442d9460408501966145ca8851614701565b808952614852565b509050602081016145e38151614701565b905261442d604082019161445d8351916080606082015191015190612b30565b62ffffff16620f42408181106126f8570390565b6106879060017e4189374bc6a7ef9db22d0e5604189374bc6a7ef9db22d0e5604189374bc6a782116000831316166146f4575b60017fffbe76c8b4395810624dd2f1a9fbe76c8b4395810624dd2f1a9fbe76c8b4395982126000831216166146e7575b6001620f404c6101f483020560008112817f7fffffffffffffffffffffffffffffffffffffffffffffffffffffffffffffff0383138115166146da575b81600160ff1b038312166146cd575b0190611d06565b6146d5611c1c565b6146c6565b6146e2611c1c565b6146b7565b6146ef611c1c565b61467a565b6146fc611c1c565b61464a565b620f404c620f42409160017d08648ed44d2db5ee0837f89d8553b31787ac4f44c07f66701aab8bdfa3408211600083131616614779575b60017ffffff79b712bb2d24a11f7c807627aac4ce87853b0bb3f80998fe55474205cc0821260008312161661476c57020590565b614774611c1c565b020590565b614781611c1c565b614738565b620f42409080600019048211811515166122a3570290565b80600019048211811515166122a3570290565b9062ffffff8080931691168092038111611c94570190565b916144da6147de61449161482b9496956126ae565b61482562ffffff916144da8389169361481e620f42409788948784038611614845575b8361480e838a89016147b1565b16908115614838575b049b6147b1565b168961479e565b9561479e565b82818094106126f8570390565b61484061393e565b614817565b61484d611c1c565b614801565b6144da61482b9294936144d36144e061486d6144da956126ae565b92620f424095869162ffffff9485918c6147b1565b90600082136001036148975761068791611d06565b61068791612c00565b90600082136148975761068791611d06565b60020b9060020b9081156148e2575b6000198214627fffff198214166148d6570590565b6148de611c1c565b0590565b6148ea61393e565b6148c1565b9060020b908115614902575b60020b0790565b61490a61393e565b6148fb565b6000199060020b627fffff198114611c94570190565b60019060020b6000811281627fffff038313811516614951575b81627fffff1903831216611c94570190565b614959611c1c565b61493f565b60020b9060020b906000811281627fffff0383138115166149515781627fffff1903831216611c94570190565b9081602091031261000e575190565b60ff168060ff106149ac575b60ff0390565b6149b4611c1c565b6149a6565b60ff91821691168181106126f8570390565b60020b9060020b9060008213600082139083627fffff818104851183851616614a26575b6000821292627fffff19948487870585129116166122bc57826000871295058612908516166122af570583129116166122a3570290565b614a2e611c1c565b6149ef565b92919091614a4182846148b2565b928260008260020b129182614ca8575b5050614c98575b15614b8657614a778260020b9060ff6101008360081d60010b93071690565b9093614ad7602060ff841696614a986001891b614a93816126dd565b612b30565b9360405180809581947f5339c29600000000000000000000000000000000000000000000000000000000835260048301919091602081019260010b9052565b03915afa908115614b79575b600091614b4b575b5016801580159590614b37575092614b29614b1e614b18614b2f94614b12614b3498614cc6565b906149b9565b60ff1690565b62ffffff1660020b90565b90612d6e565b6149cb565b91565b614b2f9250614b3494915060020b90612d6e565b614b6c915060203d8111614b72575b614b648183611648565b81019061498b565b38614aeb565b503d614b5a565b614b81612719565b614ae3565b602092614bff614bae614b9885614925565b60020b9060ff6101008360081d60010b93071690565b9590614bbf600160ff89161b6126dd565b199360405180809581947f5339c29600000000000000000000000000000000000000000000000000000000835260048301919091602081019260010b9052565b03915afa908115614c8b575b600091614c6d575b5016801580159490614c4d5790614c47614b1e614b18614b2f94614c42614c3c614b3499614925565b95614db4565b6149b9565b9061495e565b614b2f9150614c47614b1e614b18614c67614b3497614925565b9361499a565b614c85915060203d8111614b7257614b648183611648565b38614c13565b614c93612719565b614c0b565b91614ca29061490f565b91614a58565b614cbd925090614cb7916148ef565b60020b90565b15158238614a51565b90600091614cd58115156123d2565b700100000000000000000000000000000000811015614da9575b80680100000000000000006002921015614d9a575b640100000000811015614d8b575b62010000811015614d7c575b610100811015614d6d575b6010811015614d5e575b6004811015614d50575b1015614d4557565b90600160ff91011690565b92810160ff1692811c614d3d565b600493840160ff16931c614d33565b600893840160ff16931c614d29565b601093840160ff16931c614d1e565b602093840160ff16931c614d12565b604093840160ff16931c614d04565b60809250821c614cef565b90614dc08215156123d2565b60ff6fffffffffffffffffffffffffffffffff831615614f3a5750607f5b67ffffffffffffffff831615614f30577fffffffffffffffffffffffffffffffffffffffffffffffffffffffffffffffc00160ff165b63ffffffff831615614f26577fffffffffffffffffffffffffffffffffffffffffffffffffffffffffffffffe00160ff165b61ffff831615614f1c577ffffffffffffffffffffffffffffffffffffffffffffffffffffffffffffffff00160ff165b60ff831615614f12577ffffffffffffffffffffffffffffffffffffffffffffffffffffffffffffffff80160ff165b600f831615614f08576003190160ff165b6003831615614efc5760ff7ffffffffffffffffffffffffffffffffffffffffffffffffffffffffffffffffe6001920116925b16614ef057565b9060001960ff91011690565b9160019060021c614ee9565b9160041c91614eb6565b9160081c91614ea5565b9160101c91614e76565b9160201c91614e46565b9160401c91614e14565b9160801c91614dde565b60405190614f518261162c565b60006060838281528260208201528260408201520152565b90604090939293614f8a614f7b615234565b9065ffffffffffff4216611f8a565b60c4614f9586615068565b936000614fb96001600160a01b0396614fb188600354166150c9565b9086856159aa565b95600354166fffffffffffffffffffffffffffffffff8651998a9687957f3c8a7d8d00000000000000000000000000000000000000000000000000000000875230600488015260020b602487015260020b604486015216606484015260a060848401528160a48401525af192831561505b575b600090819461503a57509291565b905061505591935060403d81116105c3576105b48183611648565b92909291565b615063612719565b61502c565b6fffffffffffffffffffffffffffffffff166f8000000000000000000000000000000081101561509857600f0b90565b602490604051907f832da39d0000000000000000000000000000000000000000000000000000000082526004820152fd5b60e06001600160a01b03916004604051809481937f3850c7bd000000000000000000000000000000000000000000000000000000008352165afa908115615138575b600091615116575090565b61512e915060e03d8111610935576109208183611648565b5050505050905090565b615140612719565b61510b565b919261514f61599f565b61516061515b85615068565b612cc3565b9160406fffffffffffffffffffffffffffffffff60646151976001600160a01b039661518f88600354166150c9565b90868a6159aa565b95600354169760008451998a9485937fa34123a70000000000000000000000000000000000000000000000000000000085528b60020b60048601528860020b60248601521660448401525af1948515615227575b6000908196615202575b50906106c6919594615842565b6106c6929650615220915060403d81116105c3576105b48183611648565b95916151f5565b61522f612719565b6151eb565b61525561524c61086b6001546001600160a01b031690565b63ffffffff1690565b9061526f61086b6000546001600160a01b039060101c1690565b6040517fce4c18de00000000000000000000000000000000000000000000000000000000815263ffffffff84166004820152926020908185602481865afa948515615391575b60009561536c575b506126d9929185916152cd6153e9565b9490156152de575b505050506154c7565b6040517f706bdd2500000000000000000000000000000000000000000000000000000000815263ffffffff92909216600483015261533994508290829060249082905afa91821561535f575b600092615342575b505061539e565b833880806152d5565b6153589250803d10614b7257614b648183611648565b3880615332565b615367612719565b61532a565b829550615389906126d994933d8811614b7257614b648183611648565b9491926152bd565b615399612719565b6152b5565b6153d7611eaf6153bd6153b46201518095615487565b61309785615487565b60008112939084156153d2576153d2906121c8565b6123d9565b906153e0570590565b6148de906123c1565b600a54907f7fffffffffffffffffffffffffffffffffffffffffffffffffffffffffffffff821461547f576001600160a01b03615425836129c9565b1680615432575060019190565b600492506040906000938480927ffeaf968c0000000000000000000000000000000000000000000000000000000082525afa8061546d579190565b91506453d1ac100060205160801b0590565b600091508190565b600160ff1b8110156154965790565b602490604051907f8320b7bc0000000000000000000000000000000000000000000000000000000082526004820152fd5b6c883148f5cb1270b85273b667ae90818113156154e2575090565b90507fffffffffffffffffffffffffffffffffffffff77ceb70a34ed8f47ad8c4998528082126143bf575090565b61068761219661551e615234565b6005929192549265ffffffffffff8060085416904216906122d6565b918060020b8260020b9080821291821592615681575b8215615674575b8215615663575b508115615653575b5061561757906155d391600460e06001600160a01b0360035416604051928380927f3850c7bd0000000000000000000000000000000000000000000000000000000082525afa90811561560a575b6000916155e5575b506155c561568f565b9182518652600954936156c3565b60608401526040830152602082015290565b6155fd915060e03d8111610935576109208183611648565b50505050509050386155bc565b615612612719565b6155b4565b6040517f957b5ed5000000000000000000000000000000000000000000000000000000008152600292830b6004820152910b6024820152604490fd5b600a91500760020b151538615566565b600a900760020b151591503861555e565b620d89e882139250615557565b620d89e71981129250615550565b6040519061569c8261162c565b60055482526006546020830152600754604083015260085465ffffffffffff166060830152565b9061068792849694926156e38160020b600052600b602052604060002090565b6156fa8460020b600052600b602052604060002090565b916001820154600361571584546002860154848b5192615806565b9301549460020b809260020b136157d7575b89600185015492600361574387546002890154878d5192615806565b9601549760020b131561578a575b509160406157776157729361577261577f979660206157859b9c0151612c00565b612c00565b9b0151612c00565b956126ed565b6126ed565b92906157778861577260409360206157c56157859c6157bf61577f9c896157b76157729d878b0151612c00565b980151612c00565b9a6126ed565b9b505094969750509350505089615751565b6157f96157ee6158009260208a9896980151612c00565b956040890151612c00565b928a6126ed565b93615727565b906158176121969261068795612c00565b9061267b565b919082604091031261000e57602082516158368161063b565b9201516106878161063b565b9060409060a46001600160a01b0360035416936000845195869485937f4f1eb3d800000000000000000000000000000000000000000000000000000000855230600486015260020b602485015260020b60448401526fffffffffffffffffffffffffffffffff80606485015260848401525af180156158f7575b6158ca575b506106c6615c0b565b6158ea9060403d81116158f0575b6158e28183611648565b81019061581d565b506158c1565b503d6158d8565b6158ff612719565b6158bc565b60039160009160020b8252600b602052615976604083209260408454936001860161596d61595e82549560028a0198612133611eaf6126a16159498d54948a51612c00565b946001818d121561599657506121278c6123c1565b94835189556020840151612c00565b90550151612c00565b9055019081549081811061598957039055565b615991611c1c565b039055565b90508b956126c3565b6106c6614f7b615234565b93929091936159b7614f44565b506159c061568f565b9160095492600091829488600f0b9889615a68575b5050505060006159e885846113a5614f44565b96126159f5575b50505050565b615a38575b50615a08575b8080806159ef565b615a329060009060020b8152600b6020526003604082208281558260018201558260028201550155565b38615a00565b615a629060009060020b8152600b6020526003604082208281558260018201558260028201550155565b386159fa565b909192809650615ab19450519060208701805191615a9f888660408c01958651906001600160a01b0398868c8b6003541696615abb565b9851915192519360035416958a615abb565b91388080806159d5565b90979697949294939193615adc8260020b600052600b602052604060002090565b6040517ff30dba93000000000000000000000000000000000000000000000000000000008152600284900b60048201526101009a9196918b90829060249082906001600160a01b03165afa9a8b15615bfe575b60009b615bd8575b5050600081600f0b12600014615bb757615b566130c3615b5c92612cc3565b8a612d18565b6fffffffffffffffffffffffffffffffff809a1615998a911615141598615b87575b50505050505050565b60020b9060020b1315615b9c575b8080615b7e565b60039383556001830155600282015501553880808080615b95565b615bd3906fffffffffffffffffffffffffffffffff168a612cf3565b615b5c565b615bef929b50803d106132c0576132a98183611648565b50505050505050983880615b37565b615c06612719565b615b2f565b615c2061086b6002546001600160a01b031690565b6040517f70a08231000000000000000000000000000000000000000000000000000000008082523060048301526020929091908382602481845afa918215615de4575b600092615dc5575b5081615d50575b5050615c8961086b6001546001600160a01b031690565b604051918252306004830152908281602481855afa928315615d43575b600093615d24575b505081615cb9575050565b803b1561000e576040517f42966c6800000000000000000000000000000000000000000000000000000000815260048101929092526000908290602490829084905af18015615d17575b615d0a5750565b806115146106c69261160b565b615d1f612719565b615d03565b615d3b929350803d10614b7257614b648183611648565b903880615cae565b615d4b612719565b615ca6565b803b1561000e576040517f42966c6800000000000000000000000000000000000000000000000000000000815260048101929092526000908290602490829084905af18015615db8575b615da5575b80615c72565b80611514615db29261160b565b38615d9f565b615dc0612719565b615d9a565b615ddd919250843d8611614b7257614b648183611648565b9038615c6b565b615dec612719565b615c63565b805160051b810160209081018183015b818110615e0e5750505090565b80515481528201615e01565b91615ead9260409281600014615fb157608086015191615e59615e4060a0890151615487565b6003549062ffffff808360b81c169260a01c1690614852565b5060c08501936fffffffffffffffffffffffffffffffff80615e8b87516fffffffffffffffffffffffffffffffff1690565b16151580615fa8575b615efe575b50505050505001516001600160a01b031690565b6001600160a01b03615ecc61086b60608501516001600160a01b031690565b911614615ed65750565b6040810151615ee25750565b602001516009546106c69160020b615ef861568f565b90615904565b615f8795615f5e615f7a95615f74946130c394615f26615f829a9060e060c083015192015190565b929093600014615f9257615f3990615487565b85516fffffffffffffffffffffffffffffffff164265ffffffffffff1692169061208e565b516fffffffffffffffffffffffffffffffff1690565b906123d9565b600954612b30565b600955565b388080808080615e99565b615f9e615fa391615487565b6123c1565b615f39565b50811515615e94565b60a086015191615e59615e40608089015161548756fea2646970667358221220281dd543bcd16c8b056e8241147fe2d3d7c4f6f0f497cc27929d1df4430d541364736f6c634300080e0033",
  "userdoc": {
    "events": {
      "AccruedProtocolFeeCollected(uint256)": {
        "notice": "Emitted whenever clearing house enquired about the accrued protocol fees"
      },
      "Burn(int24,int24,uint128,uint256,uint256)": {
        "notice": "Emitted whenever liquidity is removed"
      },
      "LiquidityFeeUpdated(uint24)": {
        "notice": "Emitted when governance updates the liquidity fees"
      },
      "Mint(int24,int24,uint128,uint256,uint256)": {
        "notice": "Emitted whenever liquidity is added"
      },
      "ProtocolFeeUpdated(uint24)": {
        "notice": "Emitted when governance updates the protocol fees"
      },
      "Swap((int256,int256,int256,uint256,uint256,uint160,uint160))": {
        "notice": "Emitted whenever a swap takes place"
      }
    },
    "kind": "user",
    "methods": {
      "collectAccruedProtocolFee()": {
        "notice": "Used by clearing house to know how much protocol fee was collected."
      },
      "extsload(bytes32)": {
        "notice": "Returns a value from the storage."
      },
      "extsload(bytes32[])": {
        "notice": "Returns multiple values from storage."
      },
      "getFundingRateAndVirtualPrice()": {
        "notice": "VIEW METHODS"
      },
      "initialize((address,address,address,address,uint24,uint24))": {
        "notice": "PLATFORM FUNCTIONS"
      },
      "setFundingRateOverride(address)": {
        "notice": "Updates state to use a chainlink oracle for funding rates"
      },
      "setFundingRateOverride(int256)": {
        "notice": "Sets a constant value for funding rate"
      },
      "setLiquidityFee(uint24)": {
        "notice": "ADMIN FUNCTIONS"
      },
      "swap(bool,int256,uint160)": {
        "notice": "Swap vToken for vQuote, or vQuote for vToken"
      },
      "uniswapV3SwapCallback(int256,int256,bytes)": {
        "notice": "UNISWAP V3 POOL CALLBACkS"
      },
      "unsetFundingRateOverride()": {
        "notice": "Updates state to not use any funding rate override."
      },
      "updateGlobalFundingState(bool)": {
        "notice": "Update the global funding state, from clearing house"
      }
    },
    "version": 1
  },
  "storageLayout": {
    "storage": [
      {
        "astId": 93,
        "contract": "contracts/protocol/wrapper/VPoolWrapper.sol:VPoolWrapper",
        "label": "_initialized",
        "offset": 0,
        "slot": "0",
        "type": "t_bool"
      },
      {
        "astId": 96,
        "contract": "contracts/protocol/wrapper/VPoolWrapper.sol:VPoolWrapper",
        "label": "_initializing",
        "offset": 1,
        "slot": "0",
        "type": "t_bool"
      },
      {
        "astId": 27979,
        "contract": "contracts/protocol/wrapper/VPoolWrapper.sol:VPoolWrapper",
        "label": "clearingHouse",
        "offset": 2,
        "slot": "0",
        "type": "t_contract(IClearingHouse)11306"
      },
      {
        "astId": 27982,
        "contract": "contracts/protocol/wrapper/VPoolWrapper.sol:VPoolWrapper",
        "label": "vToken",
        "offset": 0,
        "slot": "1",
        "type": "t_contract(IVToken)11651"
      },
      {
        "astId": 27985,
        "contract": "contracts/protocol/wrapper/VPoolWrapper.sol:VPoolWrapper",
        "label": "vQuote",
        "offset": 0,
        "slot": "2",
        "type": "t_contract(IVQuote)11627"
      },
      {
        "astId": 27988,
        "contract": "contracts/protocol/wrapper/VPoolWrapper.sol:VPoolWrapper",
        "label": "vPool",
        "offset": 0,
        "slot": "3",
        "type": "t_contract(IUniswapV3Pool)6184"
      },
      {
        "astId": 27993,
        "contract": "contracts/protocol/wrapper/VPoolWrapper.sol:VPoolWrapper",
        "label": "liquidityFeePips",
        "offset": 20,
        "slot": "3",
        "type": "t_uint24"
      },
      {
        "astId": 27995,
        "contract": "contracts/protocol/wrapper/VPoolWrapper.sol:VPoolWrapper",
        "label": "protocolFeePips",
        "offset": 23,
        "slot": "3",
        "type": "t_uint24"
      },
      {
        "astId": 27997,
        "contract": "contracts/protocol/wrapper/VPoolWrapper.sol:VPoolWrapper",
        "label": "accruedProtocolFee",
        "offset": 0,
        "slot": "4",
        "type": "t_uint256"
      },
      {
        "astId": 28000,
        "contract": "contracts/protocol/wrapper/VPoolWrapper.sol:VPoolWrapper",
        "label": "fpGlobal",
        "offset": 0,
        "slot": "5",
        "type": "t_struct(Info)15056_storage"
      },
      {
        "astId": 28002,
        "contract": "contracts/protocol/wrapper/VPoolWrapper.sol:VPoolWrapper",
        "label": "sumFeeGlobalX128",
        "offset": 0,
        "slot": "9",
        "type": "t_uint256"
      },
      {
        "astId": 28005,
        "contract": "contracts/protocol/wrapper/VPoolWrapper.sol:VPoolWrapper",
        "label": "fundingRateOverride",
        "offset": 0,
        "slot": "10",
        "type": "t_struct(Info)15345_storage"
      },
      {
        "astId": 28010,
        "contract": "contracts/protocol/wrapper/VPoolWrapper.sol:VPoolWrapper",
        "label": "ticksExtended",
        "offset": 0,
        "slot": "11",
        "type": "t_mapping(t_int24,t_struct(Info)20357_storage)"
      }
    ],
    "types": {
      "t_bool": {
        "encoding": "inplace",
        "label": "bool",
        "numberOfBytes": "1"
      },
      "t_bytes32": {
        "encoding": "inplace",
        "label": "bytes32",
        "numberOfBytes": "32"
      },
      "t_contract(IClearingHouse)11306": {
        "encoding": "inplace",
        "label": "contract IClearingHouse",
        "numberOfBytes": "20"
      },
      "t_contract(IUniswapV3Pool)6184": {
        "encoding": "inplace",
        "label": "contract IUniswapV3Pool",
        "numberOfBytes": "20"
      },
      "t_contract(IVQuote)11627": {
        "encoding": "inplace",
        "label": "contract IVQuote",
        "numberOfBytes": "20"
      },
      "t_contract(IVToken)11651": {
        "encoding": "inplace",
        "label": "contract IVToken",
        "numberOfBytes": "20"
      },
      "t_int24": {
        "encoding": "inplace",
        "label": "int24",
        "numberOfBytes": "3"
      },
      "t_int256": {
        "encoding": "inplace",
        "label": "int256",
        "numberOfBytes": "32"
      },
      "t_mapping(t_int24,t_struct(Info)20357_storage)": {
        "encoding": "mapping",
        "key": "t_int24",
        "label": "mapping(int24 => struct TickExtended.Info)",
        "numberOfBytes": "32",
        "value": "t_struct(Info)20357_storage"
      },
      "t_struct(Info)15056_storage": {
        "encoding": "inplace",
        "label": "struct FundingPayment.Info",
        "members": [
          {
            "astId": 15049,
            "contract": "contracts/protocol/wrapper/VPoolWrapper.sol:VPoolWrapper",
            "label": "sumAX128",
            "offset": 0,
            "slot": "0",
            "type": "t_int256"
          },
          {
            "astId": 15051,
            "contract": "contracts/protocol/wrapper/VPoolWrapper.sol:VPoolWrapper",
            "label": "sumBX128",
            "offset": 0,
            "slot": "1",
            "type": "t_int256"
          },
          {
            "astId": 15053,
            "contract": "contracts/protocol/wrapper/VPoolWrapper.sol:VPoolWrapper",
            "label": "sumFpX128",
            "offset": 0,
            "slot": "2",
            "type": "t_int256"
          },
          {
            "astId": 15055,
            "contract": "contracts/protocol/wrapper/VPoolWrapper.sol:VPoolWrapper",
            "label": "timestampLast",
            "offset": 0,
            "slot": "3",
            "type": "t_uint48"
          }
        ],
        "numberOfBytes": "128"
      },
      "t_struct(Info)15345_storage": {
        "encoding": "inplace",
        "label": "struct FundingRateOverride.Info",
        "members": [
          {
            "astId": 15344,
            "contract": "contracts/protocol/wrapper/VPoolWrapper.sol:VPoolWrapper",
            "label": "data",
            "offset": 0,
            "slot": "0",
            "type": "t_bytes32"
          }
        ],
        "numberOfBytes": "32"
      },
      "t_struct(Info)20357_storage": {
        "encoding": "inplace",
        "label": "struct TickExtended.Info",
        "members": [
          {
            "astId": 20350,
            "contract": "contracts/protocol/wrapper/VPoolWrapper.sol:VPoolWrapper",
            "label": "sumALastX128",
            "offset": 0,
            "slot": "0",
            "type": "t_int256"
          },
          {
            "astId": 20352,
            "contract": "contracts/protocol/wrapper/VPoolWrapper.sol:VPoolWrapper",
            "label": "sumBOutsideX128",
            "offset": 0,
            "slot": "1",
            "type": "t_int256"
          },
          {
            "astId": 20354,
            "contract": "contracts/protocol/wrapper/VPoolWrapper.sol:VPoolWrapper",
            "label": "sumFpOutsideX128",
            "offset": 0,
            "slot": "2",
            "type": "t_int256"
          },
          {
            "astId": 20356,
            "contract": "contracts/protocol/wrapper/VPoolWrapper.sol:VPoolWrapper",
            "label": "sumFeeOutsideX128",
            "offset": 0,
            "slot": "3",
            "type": "t_uint256"
          }
        ],
        "numberOfBytes": "128"
      },
      "t_uint24": {
        "encoding": "inplace",
        "label": "uint24",
        "numberOfBytes": "3"
      },
      "t_uint256": {
        "encoding": "inplace",
        "label": "uint256",
        "numberOfBytes": "32"
      },
      "t_uint48": {
        "encoding": "inplace",
        "label": "uint48",
        "numberOfBytes": "6"
      }
    }
  }
}