{
  "address": "0x521854AC5D7686c0fdDf96Bb4fDa9D37Eb51FE36",
  "abi": [
    {
      "inputs": [],
      "name": "NotClearingHouse",
      "type": "error"
    },
    {
      "inputs": [],
      "name": "NotGovernance",
      "type": "error"
    },
    {
      "inputs": [],
      "name": "NotUniswapV3Pool",
      "type": "error"
    },
    {
      "anonymous": false,
      "inputs": [
        {
          "indexed": false,
          "internalType": "int256",
          "name": "vTokenIn",
          "type": "int256"
        },
        {
          "indexed": false,
          "internalType": "int256",
          "name": "vBaseIn",
          "type": "int256"
        },
        {
          "indexed": false,
          "internalType": "uint256",
          "name": "liquidityFees",
          "type": "uint256"
        },
        {
          "indexed": false,
          "internalType": "uint256",
          "name": "protocolFees",
          "type": "uint256"
        }
      ],
      "name": "Swap",
      "type": "event"
    },
    {
      "inputs": [
        {
          "components": [
            {
              "internalType": "contract IClearingHouse",
              "name": "clearingHouse",
              "type": "address"
            },
            {
              "internalType": "contract IVToken",
              "name": "vToken",
              "type": "address"
            },
            {
              "internalType": "contract IVBase",
              "name": "vBase",
              "type": "address"
            },
            {
              "internalType": "contract IUniswapV3Pool",
              "name": "vPool",
              "type": "address"
            },
            {
              "internalType": "uint24",
              "name": "liquidityFeePips",
              "type": "uint24"
            },
            {
              "internalType": "uint24",
              "name": "protocolFeePips",
              "type": "uint24"
            },
            {
              "internalType": "uint24",
              "name": "UNISWAP_V3_DEFAULT_FEE_TIER",
              "type": "uint24"
            }
          ],
          "internalType": "struct IVPoolWrapper.InitializeVPoolWrapperParams",
          "name": "params",
          "type": "tuple"
        }
      ],
      "name": "__VPoolWrapper_init",
      "outputs": [],
      "stateMutability": "nonpayable",
      "type": "function"
    },
    {
      "inputs": [],
      "name": "accruedProtocolFee",
      "outputs": [
        {
          "internalType": "uint256",
          "name": "",
          "type": "uint256"
        }
      ],
      "stateMutability": "view",
      "type": "function"
    },
    {
      "inputs": [],
      "name": "clearingHouse",
      "outputs": [
        {
          "internalType": "contract IClearingHouse",
          "name": "",
          "type": "address"
        }
      ],
      "stateMutability": "view",
      "type": "function"
    },
    {
      "inputs": [],
      "name": "collectAccruedProtocolFee",
      "outputs": [
        {
          "internalType": "uint256",
          "name": "accruedProtocolFeeLast",
          "type": "uint256"
        }
      ],
      "stateMutability": "nonpayable",
      "type": "function"
    },
    {
      "inputs": [
        {
          "internalType": "bytes32",
          "name": "slot",
          "type": "bytes32"
        }
      ],
      "name": "extsload",
      "outputs": [
        {
          "internalType": "bytes32",
          "name": "val",
          "type": "bytes32"
        }
      ],
      "stateMutability": "view",
      "type": "function"
    },
    {
      "inputs": [
        {
          "internalType": "bytes32[]",
          "name": "slots",
          "type": "bytes32[]"
        }
      ],
      "name": "extsload",
      "outputs": [
        {
          "internalType": "bytes32[]",
          "name": "",
          "type": "bytes32[]"
        }
      ],
      "stateMutability": "view",
      "type": "function"
    },
    {
      "inputs": [],
      "name": "fpGlobal",
      "outputs": [
        {
          "internalType": "int256",
          "name": "sumAX128",
          "type": "int256"
        },
        {
          "internalType": "int256",
          "name": "sumBX128",
          "type": "int256"
        },
        {
          "internalType": "int256",
          "name": "sumFpX128",
          "type": "int256"
        },
        {
          "internalType": "uint48",
          "name": "timestampLast",
          "type": "uint48"
        }
      ],
      "stateMutability": "view",
      "type": "function"
    },
    {
      "inputs": [],
      "name": "getExtrapolatedSumAX128",
      "outputs": [
        {
          "internalType": "int256",
          "name": "",
          "type": "int256"
        }
      ],
      "stateMutability": "view",
      "type": "function"
    },
    {
      "inputs": [
        {
          "internalType": "int24",
          "name": "tickLower",
          "type": "int24"
        },
        {
          "internalType": "int24",
          "name": "tickUpper",
          "type": "int24"
        }
      ],
      "name": "getExtrapolatedValuesInside",
      "outputs": [
        {
          "components": [
            {
              "internalType": "int256",
              "name": "sumAX128",
              "type": "int256"
            },
            {
              "internalType": "int256",
              "name": "sumBInsideX128",
              "type": "int256"
            },
            {
              "internalType": "int256",
              "name": "sumFpInsideX128",
              "type": "int256"
            },
            {
              "internalType": "uint256",
              "name": "sumFeeInsideX128",
              "type": "uint256"
            }
          ],
          "internalType": "struct IVPoolWrapper.WrapperValuesInside",
          "name": "wrapperValuesInside",
          "type": "tuple"
        }
      ],
      "stateMutability": "view",
      "type": "function"
    },
    {
      "inputs": [],
      "name": "getSumAX128",
      "outputs": [
        {
          "internalType": "int256",
          "name": "",
          "type": "int256"
        }
      ],
      "stateMutability": "view",
      "type": "function"
    },
    {
      "inputs": [
        {
          "internalType": "int24",
          "name": "tickLower",
          "type": "int24"
        },
        {
          "internalType": "int24",
          "name": "tickUpper",
          "type": "int24"
        }
      ],
      "name": "getValuesInside",
      "outputs": [
        {
          "components": [
            {
              "internalType": "int256",
              "name": "sumAX128",
              "type": "int256"
            },
            {
              "internalType": "int256",
              "name": "sumBInsideX128",
              "type": "int256"
            },
            {
              "internalType": "int256",
              "name": "sumFpInsideX128",
              "type": "int256"
            },
            {
              "internalType": "uint256",
              "name": "sumFeeInsideX128",
              "type": "uint256"
            }
          ],
          "internalType": "struct IVPoolWrapper.WrapperValuesInside",
          "name": "wrapperValuesInside",
          "type": "tuple"
        }
      ],
      "stateMutability": "view",
      "type": "function"
    },
    {
      "inputs": [
        {
          "internalType": "int24",
          "name": "tickLower",
          "type": "int24"
        },
        {
          "internalType": "int24",
          "name": "tickUpper",
          "type": "int24"
        },
        {
          "internalType": "int128",
          "name": "liquidityDelta",
          "type": "int128"
        }
      ],
      "name": "liquidityChange",
      "outputs": [
        {
          "internalType": "int256",
          "name": "basePrincipal",
          "type": "int256"
        },
        {
          "internalType": "int256",
          "name": "vTokenPrincipal",
          "type": "int256"
        },
        {
          "components": [
            {
              "internalType": "int256",
              "name": "sumAX128",
              "type": "int256"
            },
            {
              "internalType": "int256",
              "name": "sumBInsideX128",
              "type": "int256"
            },
            {
              "internalType": "int256",
              "name": "sumFpInsideX128",
              "type": "int256"
            },
            {
              "internalType": "uint256",
              "name": "sumFeeInsideX128",
              "type": "uint256"
            }
          ],
          "internalType": "struct IVPoolWrapper.WrapperValuesInside",
          "name": "wrapperValuesInside",
          "type": "tuple"
        }
      ],
      "stateMutability": "nonpayable",
      "type": "function"
    },
    {
      "inputs": [],
      "name": "liquidityFeePips",
      "outputs": [
        {
          "internalType": "uint24",
          "name": "",
          "type": "uint24"
        }
      ],
      "stateMutability": "view",
      "type": "function"
    },
    {
      "inputs": [],
      "name": "protocolFeePips",
      "outputs": [
        {
          "internalType": "uint24",
          "name": "",
          "type": "uint24"
        }
      ],
      "stateMutability": "view",
      "type": "function"
    },
    {
      "inputs": [
        {
          "internalType": "uint24",
          "name": "liquidityFeePips_",
          "type": "uint24"
        }
      ],
      "name": "setLiquidityFee",
      "outputs": [],
      "stateMutability": "nonpayable",
      "type": "function"
    },
    {
      "inputs": [
        {
          "internalType": "uint24",
          "name": "protocolFeePips_",
          "type": "uint24"
        }
      ],
      "name": "setProtocolFee",
      "outputs": [],
      "stateMutability": "nonpayable",
      "type": "function"
    },
    {
      "inputs": [],
      "name": "sumFeeGlobalX128",
      "outputs": [
        {
          "internalType": "uint256",
          "name": "",
          "type": "uint256"
        }
      ],
      "stateMutability": "view",
      "type": "function"
    },
    {
      "inputs": [
        {
          "internalType": "bool",
          "name": "swapVTokenForVBase",
          "type": "bool"
        },
        {
          "internalType": "int256",
          "name": "amountSpecified",
          "type": "int256"
        },
        {
          "internalType": "uint160",
          "name": "sqrtPriceLimitX96",
          "type": "uint160"
        }
      ],
      "name": "swap",
      "outputs": [
        {
          "internalType": "int256",
          "name": "vTokenIn",
          "type": "int256"
        },
        {
          "internalType": "int256",
          "name": "vBaseIn",
          "type": "int256"
        }
      ],
      "stateMutability": "nonpayable",
      "type": "function"
    },
    {
      "inputs": [
        {
          "internalType": "int256",
          "name": "amount",
          "type": "int256"
        },
        {
          "internalType": "uint160",
          "name": "sqrtPriceLimitX96",
          "type": "uint160"
        },
        {
          "internalType": "bool",
          "name": "isNotional",
          "type": "bool"
        }
      ],
      "name": "swapToken",
      "outputs": [
        {
          "internalType": "int256",
          "name": "vTokenAmount",
          "type": "int256"
        },
        {
          "internalType": "int256",
          "name": "vBaseAmount",
          "type": "int256"
        }
      ],
      "stateMutability": "nonpayable",
      "type": "function"
    },
    {
      "inputs": [
        {
          "internalType": "int24",
          "name": "",
          "type": "int24"
        }
      ],
      "name": "ticksExtended",
      "outputs": [
        {
          "internalType": "int256",
          "name": "sumALastX128",
          "type": "int256"
        },
        {
          "internalType": "int256",
          "name": "sumBOutsideX128",
          "type": "int256"
        },
        {
          "internalType": "int256",
          "name": "sumFpOutsideX128",
          "type": "int256"
        },
        {
          "internalType": "uint256",
          "name": "sumFeeOutsideX128",
          "type": "uint256"
        }
      ],
      "stateMutability": "view",
      "type": "function"
    },
    {
      "inputs": [],
      "name": "uniswapFeePips",
      "outputs": [
        {
          "internalType": "uint24",
          "name": "",
          "type": "uint24"
        }
      ],
      "stateMutability": "view",
      "type": "function"
    },
    {
      "inputs": [
        {
          "internalType": "uint256",
          "name": "vTokenAmount",
          "type": "uint256"
        },
        {
          "internalType": "uint256",
          "name": "vBaseAmount",
          "type": "uint256"
        },
        {
          "internalType": "bytes",
          "name": "",
          "type": "bytes"
        }
      ],
      "name": "uniswapV3MintCallback",
      "outputs": [],
      "stateMutability": "nonpayable",
      "type": "function"
    },
    {
      "inputs": [
        {
          "internalType": "int256",
          "name": "amount0Delta",
          "type": "int256"
        },
        {
          "internalType": "int256",
          "name": "amount1Delta",
          "type": "int256"
        },
        {
          "internalType": "bytes",
          "name": "",
          "type": "bytes"
        }
      ],
      "name": "uniswapV3SwapCallback",
      "outputs": [],
      "stateMutability": "nonpayable",
      "type": "function"
    },
    {
      "inputs": [],
      "name": "updateGlobalFundingState",
      "outputs": [],
      "stateMutability": "nonpayable",
      "type": "function"
    },
    {
      "inputs": [],
      "name": "vBase",
      "outputs": [
        {
          "internalType": "contract IVBase",
          "name": "",
          "type": "address"
        }
      ],
      "stateMutability": "view",
      "type": "function"
    },
    {
      "inputs": [],
      "name": "vPool",
      "outputs": [
        {
          "internalType": "contract IUniswapV3Pool",
          "name": "",
          "type": "address"
        }
      ],
      "stateMutability": "view",
      "type": "function"
    },
    {
      "inputs": [],
      "name": "vToken",
      "outputs": [
        {
          "internalType": "contract IVToken",
          "name": "",
          "type": "address"
        }
      ],
      "stateMutability": "view",
      "type": "function"
    }
  ],
  "transactionHash": "0xddfc3add7b327aa9ca7f3084403e7aa20006adc1ff8b8ac14fbb63852816c77c",
  "args": [],
  "solcInputHash": "11fe70ca772ffd2defe9ec97f4437e59",
  "bytecode": "0x608060405234801561001057600080fd5b50614615806100206000396000f3fe608060405234801561001057600080fd5b50600436106101a95760003560e01c806386c8e9a7116100f9578063c04b98c411610097578063d440c42011610071578063d440c42014610406578063dbd035ff14610428578063fa461e3314610448578063fca6fbf21461045b57600080fd5b8063c04b98c4146103d7578063c5f1916c146103e0578063d3487997146103f357600080fd5b8063a3a1e7e9116100d3578063a3a1e7e9146103a0578063a3c35e2c146103a8578063acfd7928146103bb578063bb152c53146103c457600080fd5b806386c8e9a7146103645780638b1e97811461037a5780639bb1a99c1461038d57600080fd5b806348aaa8c0116101665780636c544335116101405780636c544335146102f05780637779815c146103365780637aba8e681461033e5780637feedaa11461035157600080fd5b806348aaa8c0146102805780635e622abc146102d55780636719578c146102dd57600080fd5b806302dc9951146101ae5780630af96800146101dd578063195cd92c1461020e5780631e2eaeaf146102365780632a99a7921461025657806333f9096314610276575b600080fd5b6003546101c490600160a01b900462ffffff1681565b60405162ffffff90911681526020015b60405180910390f35b6000546101f6906201000090046001600160a01b031681565b6040516001600160a01b0390911681526020016101d4565b61022161021c366004613ae6565b610471565b604080519283526020830191909152016101d4565b610248610244366004613b28565b5490565b6040519081526020016101d4565b610269610264366004613b50565b610761565b6040516101d49190613b89565b61027e61088d565b005b6102b561028e366004613bb4565b600a6020526000908152604090208054600182015460028301546003909301549192909184565b6040805194855260208501939093529183015260608201526080016101d4565b610248610928565b6003546101f6906001600160a01b031681565b60055460065460075460085461030e9392919065ffffffffffff1684565b6040805194855260208501939093529183015265ffffffffffff1660608201526080016101d4565b600554610248565b61027e61034c366004613bd1565b610973565b61027e61035f366004613bfa565b610b9b565b6003546101c490600160b81b900462ffffff1681565b61027e610388366004613bfa565b610c67565b6001546101f6906001600160a01b031681565b610248610d33565b6102696103b6366004613b50565b610dd4565b61024860045481565b6102216103d2366004613c17565b610ec3565b61024860095481565b6002546101f6906001600160a01b031681565b61027e610401366004613c97565b610ef4565b610419610414366004613cf9565b610ffc565b6040516101d493929190613d39565b61043b610436366004613d8b565b61123f565b6040516101d49190613e49565b61027e610456366004613c97565b61126a565b6003546101c490600160d01b900462ffffff1681565b6000805481906201000090046001600160a01b031633146104a557604051638597d08b60e01b815260040160405180910390fd5b60008412156001600160a01b0384166104f457856104e1576104dc600173fffd8963efd1fc6a506488495d951d5263988d26613ea3565b6104f1565b6104f16401000276a36001613ecb565b93505b60008082156105435787156105135761050c87611433565b9650610575565b61051e87600261149c565b9092509050610538876105318385613ef6565b600161161f565b965061050c87611433565b8761054d57610575565b61055887600161149c565b90925090506105728761056b8385613ef6565b600061161f565b96505b6003546000908190610595906001600160a01b03168b8b8b611662611816565b600354604051630251596160e31b81523060048201528d15156024820152604481018d90526001600160a01b038c8116606483015260a06084830152600060a4830152939550919350919091169063128acb089060c40160408051808303816000875af115801561060a573d6000803e3d6000fd5b505050506040513d601f19601f8201168201806040525081019061062e9190613f0e565b9097509550818714801561064157508581145b61064d5761064d613f32565b505082156106a457871561068b5761066485611896565b945061067184600061149c565b9092509050610684846105318385613ef6565b93506106ee565b61069484611896565b93506106848461056b8385613ef6565b876106d2576106b284611896565b93506106bf84600061149c565b90925090506106848461056b8385613ef6565b6106db85611896565b94506106eb846105318385613ef6565b93505b80600460008282546107009190613ef6565b9091555061070e90506118d4565b6040805186815260208101869052908101839052606081018290527fb0ecd2f0335c5433548e5039eef18bcfbe9cd48abfb781dfa0cc522164cb876f9060800160405180910390a1505050935093915050565b61078c6040518060800160405280600081526020016000815260200160008152602001600081525090565b60035460408051633850c7bd60e01b815290516000926001600160a01b031691633850c7bd9160048083019260e09291908290030181865afa1580156107d6573d6000803e3d6000fd5b505050506040513d601f19601f820116820180604052508101906107fa9190613f5a565b505060408051608081018252600554815260065460208201526007549181019190915260085465ffffffffffff1660608201529395509293506108409250610d33915050565b80825260055460065460075461085593611a7f565b60408201528051835260095461087590600a908790879086908690611aad565b60608601526040850152602084015250909392505050565b6000805460015460405163d257be2b60e01b81526001600160a01b03918216600482015283926201000090049091169063d257be2b906024016040805180830381865afa1580156108e2573d6000803e3d6000fd5b505050506040513d601f19601f820116820180604052508101906109069190613f0e565b91509150610924600060016109184290565b60059291908686611c05565b5050565b600080546201000090046001600160a01b0316331461095a57604051638597d08b60e01b815260040160405180910390fd5b60016004546109699190613ff2565b6001600455919050565b600054610100900460ff168061098c575060005460ff16155b6109f45760405162461bcd60e51b815260206004820152602e60248201527f496e697469616c697a61626c653a20636f6e747261637420697320616c72656160448201526d191e481a5b9a5d1a585b1a5e995960921b60648201526084015b60405180910390fd5b600054610100900460ff16158015610a16576000805461ffff19166101011790555b610a236020830183614009565b600080546001600160a01b0392909216620100000262010000600160b01b0319909216919091179055610a5c6040830160208401614009565b600180546001600160a01b0319166001600160a01b0392909216919091179055610a8c6060830160408401614009565b600280546001600160a01b0319166001600160a01b0392909216919091179055610abc6080830160608401614009565b600380546001600160a01b0319166001600160a01b0392909216919091179055610aec60a0830160808401613bfa565b6003805462ffffff92909216600160b81b0262ffffff60b81b19909216919091179055610b1f60c0830160a08401613bfa565b6003805462ffffff92909216600160d01b0262ffffff60d01b19909216919091179055610b5260e0830160c08401613bfa565b6003805462ffffff92909216600160a01b0262ffffff60a01b19909216919091179055610b86600560006001428180611c05565b8015610924576000805461ff00191690555050565b600060029054906101000a90046001600160a01b03166001600160a01b0316635aa6e6756040518163ffffffff1660e01b8152600401602060405180830381865afa158015610bee573d6000803e3d6000fd5b505050506040513d601f19601f82011682018060405250810190610c129190614026565b6001600160a01b0316336001600160a01b031614610c4357604051632d5be4cb60e21b815260040160405180910390fd5b6003805462ffffff909216600160d01b0262ffffff60d01b19909216919091179055565b600060029054906101000a90046001600160a01b03166001600160a01b0316635aa6e6756040518163ffffffff1660e01b8152600401602060405180830381865afa158015610cba573d6000803e3d6000fd5b505050506040513d601f19601f82011682018060405250810190610cde9190614026565b6001600160a01b0316336001600160a01b031614610d0f57604051632d5be4cb60e21b815260040160405180910390fd5b6003805462ffffff909216600160b81b0262ffffff60b81b19909216919091179055565b6000805460015460405163d257be2b60e01b81526001600160a01b0391821660048201528392839262010000909104169063d257be2b906024016040805180830381865afa158015610d89573d6000803e3d6000fd5b505050506040513d601f19601f82011682018060405250810190610dad9190613f0e565b600554600854929450909250610dcd9165ffffffffffff16428585611cbb565b9250505090565b610dff6040518060800160405280600081526020016000815260200160008152602001600081525090565b60035460408051633850c7bd60e01b815290516000926001600160a01b031691633850c7bd9160048083019260e09291908290030181865afa158015610e49573d6000803e3d6000fd5b505050506040513d601f19601f82011682018060405250810190610e6d9190613f5a565b50506040805160808101825260055480825260065460208301526007549282019290925260085465ffffffffffff166060820152908852600954949650945061087593600a935089925088915086908690611aad565b600080610ee86000861284610ee057610edb87614043565b610ee2565b865b86610471565b91509150935093915050565b6003546001600160a01b03163314610f1f576040516308458b2b60e21b815260040160405180910390fd5b8215610f8a576002546040516340c10f1960e01b8152336004820152602481018590526001600160a01b03909116906340c10f1990604401600060405180830381600087803b158015610f7157600080fd5b505af1158015610f85573d6000803e3d6000fd5b505050505b8315610ff6576001546040516340c10f1960e01b8152336004820152602481018690526001600160a01b03909116906340c10f19906044015b600060405180830381600087803b158015610fdd57600080fd5b505af1158015610ff1573d6000803e3d6000fd5b505050505b50505050565b60008061102a6040518060800160405280600081526020016000815260200160008152602001600081525090565b6000546201000090046001600160a01b0316331461105b57604051638597d08b60e01b815260040160405180910390fd5b61106361088d565b60035461108790879087908790611082906001600160a01b0316611cdd565b611d4e565b9050600084600f0b131561115757600354604051633c8a7d8d60e01b8152306004820152600288810b602483015287900b60448201526001600160801b038616606482015260a06084820152600060a482018190529182916001600160a01b0390911690633c8a7d8d9060c40160408051808303816000875af1158015611112573d6000803e3d6000fd5b505050506040513d601f19601f820116820180604052508101906111369190613f0e565b9150915061114382611e9f565b935061114e81611e9f565b94505050611236565b60035460009081906001600160a01b031663a34123a7898961117b8a600019614060565b6040516001600160e01b031960e086901b168152600293840b60048201529190920b60248201526001600160801b03909116604482015260640160408051808303816000875af11580156111d3573d6000803e3d6000fd5b505050506040513d601f19601f820116820180604052508101906111f79190613f0e565b9150915061120482611e9f565b611210906000196140fe565b935061121b81611e9f565b611227906000196140fe565b94506112338888611eb5565b50505b93509350939050565b606060208251028201602001825b8181101561126257602001805154815261124d565b509192915050565b6003546001600160a01b03163314611295576040516308458b2b60e21b815260040160405180910390fd5b600084131561137b57600360009054906101000a90046001600160a01b03166001600160a01b0316630dfe16816040518163ffffffff1660e01b8152600401602060405180830381865afa1580156112f1573d6000803e3d6000fd5b505050506040513d601f19601f820116820180604052508101906113159190614026565b6003546040516340c10f1960e01b81526001600160a01b039182166004820152602481018790529116906340c10f1990604401600060405180830381600087803b15801561136257600080fd5b505af1158015611376573d6000803e3d6000fd5b505050505b6000831315610ff657600360009054906101000a90046001600160a01b03166001600160a01b031663d21220a76040518163ffffffff1660e01b8152600401602060405180830381865afa1580156113d7573d6000803e3d6000fd5b505050506040513d601f19601f820116820180604052508101906113fb9190614026565b6003546040516340c10f1960e01b81526001600160a01b039182166004820152602481018690529116906340c10f1990604401610fc3565b600354600090819061145490600160a01b900462ffffff16620f4240614183565b60035460029190910b9061147490600160a01b900462ffffff16856140fe565b61147e91906141b5565b6114899060016141e3565b905061149581846141e3565b9392505050565b60008060006114aa85611f52565b905060018460028111156114c0576114c0614224565b141561151a5760035462ffffff600160d01b82048116916114ed91600160b81b90910416620f4240614183565b6114f79190614183565b62ffffff1661150982620f424061423a565b6115139190614259565b9050611584565b600284600281111561152e5761152e614224565b14156115845760035462ffffff600160d01b820481169161155b91600160b81b90910416620f424061426d565b611565919061426d565b62ffffff1661157782620f424061423a565b6115819190614259565b90505b600354600090620f4240906115ae9062ffffff600160d01b8204811691600160b81b90041661426d565b6115bd9062ffffff168461423a565b6115c79190614259565b6115d2906001613ef6565b600354909150620f4240906115f390600160b81b900462ffffff168461423a565b6115fd9190614259565b611608906001613ef6565b93506116148482613ff2565b925050509250929050565b60008082600181111561163457611634614224565b146000851314156116505761164983856141e3565b9050611495565b61165a838561428b565b949350505050565b60008085611679578260a001518360800151611684565b82608001518360a001515b91509150600061169582600061149c565b50905060008560c001516001600160801b03161180156116b55750600083115b1561179b576000805460015460405163d257be2b60e01b81526001600160a01b03918216600482015283926201000090049091169063d257be2b906024016040805180830381865afa15801561170f573d6000803e3d6000fd5b505050506040513d601f19601f820116820180604052508101906117339190613f0e565b915091506117638961174d5761174886614043565b61174f565b855b60c08901516001600160801b031642610918565b60c0870151611782908490600160801b906001600160801b0316611f69565b600960008282546117939190613ef6565b909155505050505b83606001516001600160a01b031685604001516001600160a01b0316141561180d5783604001511561180d57602080850151604080516080810182526005548152600654938101939093526007549083015260085465ffffffffffff16606083015260095461180d92600a9291612017565b50505050505050565b600080611888878787878b6001600160a01b031663ddca3f436040518163ffffffff1660e01b8152600401602060405180830381865afa15801561185e573d6000803e3d6000fd5b505050506040513d601f19601f8201168201806040525081019061188291906142ca565b88612098565b915091509550959350505050565b600354600090620f4240906118b790600160a01b900462ffffff1682614183565b6118c49060020b846140fe565b6118ce91906141b5565b92915050565b6002546040516370a0823160e01b81523060048201526000916001600160a01b0316906370a0823190602401602060405180830381865afa15801561191d573d6000803e3d6000fd5b505050506040513d601f19601f8201168201806040525081019061194191906142e7565b905080156119a857600254604051630852cd8d60e31b8152600481018390526001600160a01b03909116906342966c6890602401600060405180830381600087803b15801561198f57600080fd5b505af11580156119a3573d6000803e3d6000fd5b505050505b6001546040516370a0823160e01b81523060048201526000916001600160a01b0316906370a0823190602401602060405180830381865afa1580156119f1573d6000803e3d6000fd5b505050506040513d601f19601f82011682018060405250810190611a1591906142e7565b9050801561092457600154604051630852cd8d60e31b8152600481018390526001600160a01b03909116906342966c6890602401600060405180830381600087803b158015611a6357600080fd5b505af1158015611a77573d6000803e3d6000fd5b505050505050565b6000611a9a611a8e868461428b565b8590600160801b6127bc565b611aa490846141e3565b95945050505050565b600285810b60009081526020889052604080822087840b8352908220600182015482549483015487519495869586959493928692611aee9290918591611a7f565b90506000846003015490508a60020b8d60020b1315611b3857828a60200151611b17919061428b565b9250818a60400151611b29919061428b565b9150611b35818a613ff2565b90505b6001840154845460028601548c51600092611b57929091859190611a7f565b90506000866003015490508d60020b8f60020b13611ba057828d60200151611b7f919061428b565b9250818d60400151611b91919061428b565b9150611b9d818d613ff2565b90505b82868e60200151611bb1919061428b565b611bbb919061428b565b9a5081858e60400151611bce919061428b565b611bd8919061428b565b995080611be5858e613ff2565b611bef9190613ff2565b9850505050505050505096509650969350505050565b6003860154600090611c219065ffffffffffff1685858561284d565b6001880154909150611c39908290600160801b61287c565b876002016000828254611c4c91906141e3565b9091555050865481908890600090611c659084906141e3565b90915550611c7a905086600160801b876127bc565b876001016000828254611c8d91906141e3565b90915550505050600394909401805465ffffffffffff191665ffffffffffff92909216919091179055505050565b6000611cc98585858561284d565b611cd390876141e3565b9695505050505050565b6000816001600160a01b0316633850c7bd6040518163ffffffff1660e01b815260040160e060405180830381865afa158015611d1d573d6000803e3d6000fd5b505050506040513d601f19601f82011682018060405250810190611d419190613f5a565b5093979650505050505050565b611d796040518060800160405280600081526020016000815260200160008152602001600081525090565b60408051608081018252600554815260065460208201526007549181019190915260085465ffffffffffff166060820152600954600080600f87900b15611e1b57835160208501516040860151600354611de993600a938e938c938e939291908b906001600160a01b03166128a0565b845160208601516040870151600354939550611e1893600a938d938c938e938b906001600160a01b03166128a0565b90505b611e258989610dd4565b9450600087600f0b1215611e93578115611e6357600289810b6000908152600a60205260408120818155600181018290559182018190556003909101555b8015611e9357600288810b6000908152600a60205260408120818155600181018290559182018190556003909101555b50505050949350505050565b6000600160ff1b8210611eb157600080fd5b5090565b6003546040516309e3d67b60e31b8152306004820152600284810b602483015283900b60448201526001600160801b036064820181905260848201526001600160a01b0390911690634f1eb3d89060a40160408051808303816000875af1158015611f24573d6000803e3d6000fd5b505050506040513d601f19601f82011682018060405250810190611f489190614317565b50506109246118d4565b6000808213611eb157611f6482614043565b6118ce565b600080806000198587098587029250828110838203039150508060001415611fa35760008411611f9857600080fd5b508290049050611495565b808411611faf57600080fd5b600084868809851960019081018716968790046003810260029081188083028203028083028203028083028203028083028203028083028203029182029003026000889003889004909101858311909403939093029303949094049190911702949350505050565b600283810b600090815260208690526040812080546001820154938201548651929461204593909190611a7f565b845183556001830154602086015191925061205f9161428b565b6001830155604084015161207490829061428b565b600283015560038201546120889084613ff2565b8260030181905550505050505050565b600080856120cd5760405162461bcd60e51b8152602060048201526002602482015261415360f01b60448201526064016109eb565b6040805160c081018252600080825260208201819052918101829052606081018290526080810182905260a0810191909152886001600160a01b0316633850c7bd6040518163ffffffff1660e01b815260040160e060405180830381865afa15801561213d573d6000803e3d6000fd5b505050506040513d601f19601f820116820180604052508101906121619190613f5a565b5060ff1660408088019190915260029490940b6020808801919091526001600160a01b0395861687528451630d34328160e11b81529451958f1695631a68650295600480820196509294509092508290030181865afa1580156121c8573d6000803e3d6000fd5b505050506040513d601f19601f820116820180604052508101906121ec919061434a565b6001600160801b03166060820152604080516334324e9f60e21b815290516001600160a01b038b169163d0c93a7c9160048083019260209291908290030181865afa15801561223f573d6000803e3d6000fd5b505050506040513d601f19601f820116820180604052508101906122639190614365565b60020b608082015262ffffff851660a0820152876122c15780600001516001600160a01b0316866001600160a01b03161180156122bc575073fffd8963efd1fc6a506488495d951d5263988d266001600160a01b038716105b6122f3565b80600001516001600160a01b0316866001600160a01b03161080156122f357506401000276a36001600160a01b038716115b6123255760405162461bcd60e51b815260206004820152600360248201526214d41360ea1b60448201526064016109eb565b6000808813905060006040518060e001604052808a81526020016000815260200184600001516001600160a01b03168152602001846020015160020b81526020016000815260200160006001600160801b0316815260200184606001516001600160801b031681525090505b8051158015906123b75750876001600160a01b031681604001516001600160a01b031614155b15612777576040805160e081018252600080825260208201819052918101829052606081018290526080810182905260a0810182905260c081019190915260408201516001600160a01b03908116825260608301516080860151612424928f1691635339c296918f61298a565b1515604083015260020b60208201819052620d89e719131561244f57620d89e7196020820152612483565b61245c620d89e719614382565b60020b816020015160020b13156124835761247a620d89e719614382565b60020b60208201525b6124908160200151612bf6565b6001600160a01b031660608201526040820151612505908c6124ca578a6001600160a01b031683606001516001600160a01b0316116124e4565b8a6001600160a01b031683606001516001600160a01b0316105b6124f25782606001516124f4565b8a5b60c0850151855160a0890151612f29565b60c085015260a084015260808301526001600160a01b03166040830152821561257d576125448160c00151826080015161253f9190613ef6565b611e9f565b8251839061255390839061428b565b90525060a081015161256490611e9f565b8260200151612573919061428b565b60208301526125c8565b61258a8160a00151611e9f565b825183906125999083906141e3565b90525060c081015160808201516125b39161253f91613ef6565b82602001516125c291906141e3565b60208301525b60c08201516001600160801b031615612610576125fb8160c00151600160801b8460c001516001600160801b0316611f69565b8260800181815161260c9190613ef6565b9052505b63ffffffff610ff6811690881614612632576126328b8584848b63ffffffff16565b80606001516001600160a01b031682604001516001600160a01b0316141561273a5780604001511561270d57602081015160405163f30dba9360e01b815260029190910b60048201526000906001600160a01b038e169063f30dba939060240161010060405180830381865afa1580156126b0573d6000803e3d6000fd5b505050506040513d601f19601f820116820180604052508101906126d491906143a5565b5050505050509150508b156126ef576126ec8161444e565b90505b6126fd8360c001518261311b565b6001600160801b031660c0840152505b8a61271c57806020015161272d565b6001816020015161272d919061446c565b60020b6060830152612771565b80600001516001600160a01b031682604001516001600160a01b0316146127715761276882604001516131b8565b60020b60608301525b50612391565b8115158a1515146127985760208101518151612793908b61428b565b6127aa565b80516127a4908a61428b565b81602001515b94509450505050965096945050505050565b60006001818080808812156127de579215926127d788614043565b92506127e2565b8792505b60008712156127fe579215926127f787614043565b9150612802565b8691505b60008612156128215792159261281a866000196140fe565b9050612824565b50845b61282f838383611f69565b9450836128425761283f85614043565b94505b505050509392505050565b6000611aa461285c86866144b4565b65ffffffffffff1662015180612875858782828261428b565b91906134d1565b60006128898484846127bc565b905060008112156114955761165a600019826141e3565b600288900b600081815260208b90526040808220905163f30dba9360e01b81526004810193909352909182906001600160a01b0385169063f30dba939060240161010060405180830381865afa1580156128fe573d6000803e3d6000fd5b505050506040513d601f19601f8201168201806040525081019061292291906143a5565b5050505050505090506000612937828b61311b565b6001600160801b03838116159082161581141595509091501561297a578a60020b8c60020b1361297a578883556001830188905560028301879055600383018690555b5050509998505050505050505050565b6000808061299885876144d3565b905060008660020b1280156129b857506129b2858761450d565b60020b15155b156129cb57806129c78161452f565b9150505b8315612ad0576000806129dd8361350b565b90925090506000600160ff831681901b906129f89082613ff2565b612a029190613ef6565b90506000818c8c866040518263ffffffff1660e01b8152600401612a2f919060019190910b815260200190565b602060405180830381865afa158015612a4c573d6000803e3d6000fd5b505050506040513d601f19601f82011682018060405250810190612a7091906142e7565b168015159650905085612a9a5788612a8b60ff85168761446c565b612a959190614553565b612ac5565b88612aa482613528565b612aae908561459e565b612abb9060ff168761446c565b612ac59190614553565b965050505050612beb565b600080612ae6612ae18460016145c1565b61350b565b90925090506000612afe600160ff841681901b613ff2565b1990506000818c8c866040518263ffffffff1660e01b8152600401612b2c919060019190910b815260200190565b602060405180830381865afa158015612b49573d6000803e3d6000fd5b505050506040513d601f19601f82011682018060405250810190612b6d91906142e7565b168015159650905085612bad5788612b868460ff61459e565b60ff16612b948760016145c1565b612b9e91906145c1565b612ba89190614553565b612be4565b8883612bb8836135c9565b612bc2919061459e565b60ff16612bd08760016145c1565b612bda91906145c1565b612be49190614553565b9650505050505b509550959350505050565b60008060008360020b12612c0d578260020b612c15565b8260020b6000035b9050620d89e8811115612c4e5760405162461bcd60e51b81526020600482015260016024820152601560fa1b60448201526064016109eb565b600060018216612c6257600160801b612c74565b6ffffcb933bd6fad37aa2d162d1a5940015b70ffffffffffffffffffffffffffffffffff1690506002821615612ca8576ffff97272373d413259a46990580e213a0260801c5b6004821615612cc7576ffff2e50f5f656932ef12357cf3c7fdcc0260801c5b6008821615612ce6576fffe5caca7e10e4e61c3624eaa0941cd00260801c5b6010821615612d05576fffcb9843d60f6159c9db58835c9266440260801c5b6020821615612d24576fff973b41fa98c081472e6896dfb254c00260801c5b6040821615612d43576fff2ea16466c96a3843ec78b326b528610260801c5b6080821615612d62576ffe5dee046a99a2a811c461f1969c30530260801c5b610100821615612d82576ffcbe86c7900a88aedcffc83b479aa3a40260801c5b610200821615612da2576ff987a7253ac413176f2b074cf7815e540260801c5b610400821615612dc2576ff3392b0822b70005940c7a398e4b70f30260801c5b610800821615612de2576fe7159475a2c29b7443b29c7fa6e889d90260801c5b611000821615612e02576fd097f3bdfd2022b8845ad8f792aa58250260801c5b612000821615612e22576fa9f746462d870fdf8a65dc1f90e061e50260801c5b614000821615612e42576f70d869a156d2a1b890bb3df62baf32f70260801c5b618000821615612e62576f31be135f97d08fd981231505542fcfa60260801c5b62010000821615612e83576f09aa508b5b7a84e1c677de54f3e99bc90260801c5b62020000821615612ea3576e5d6af8dedb81196699c329225ee6040260801c5b62040000821615612ec2576d2216e584f5fa1ea926041bedfe980260801c5b62080000821615612edf576b048a170391f7dc42444e8fa20260801c5b60008460020b1315612f00578060001981612efc57612efc61419f565b0490505b640100000000810615612f14576001612f17565b60005b60ff16602082901c0192505050919050565b60008080806001600160a01b03808916908a161015818712801590612fae576000612f628989620f42400362ffffff16620f4240611f69565b905082612f7b57612f768c8c8c60016136b3565b612f88565b612f888b8d8c6001613723565b9550858110612f99578a9650612fa8565b612fa58c8b83866137da565b96505b50612ff8565b81612fc557612fc08b8b8b6000613723565b612fd2565b612fd28a8c8b60006136b3565b9350838860000310612fe657899550612ff8565b612ff58b8a8a60000385613826565b95505b6001600160a01b038a811690871614821561305b578080156130175750815b61302d57613028878d8c6001613723565b61302f565b855b955080801561303c575081155b6130525761304d878d8c60006136b3565b613054565b845b94506130a5565b8080156130655750815b61307b576130768c888c60016136b3565b61307d565b855b955080801561308a575081155b6130a05761309b8c888c6000613723565b6130a2565b845b94505b811580156130b557508860000385115b156130c1578860000394505b8180156130e057508a6001600160a01b0316876001600160a01b031614155b156130ef57858903935061310c565b613109868962ffffff168a620f42400362ffffff16613872565b93505b50505095509550955095915050565b60008082600f0b121561316c57508082016001600160801b0380841690821610611f645760405162461bcd60e51b81526020600482015260026024820152614c5360f01b60448201526064016109eb565b826001600160801b03168284019150816001600160801b031610156118ce5760405162461bcd60e51b81526020600482015260026024820152614c4160f01b60448201526064016109eb565b60006401000276a36001600160a01b038316108015906131f4575073fffd8963efd1fc6a506488495d951d5263988d266001600160a01b038316105b6132245760405162461bcd60e51b81526020600482015260016024820152602960f91b60448201526064016109eb565b640100000000600160c01b03602083901b166001600160801b03811160071b81811c67ffffffffffffffff811160061b90811c63ffffffff811160051b90811c61ffff811160041b90811c60ff8111600390811b91821c600f811160021b90811c918211600190811b92831c979088119617909417909217179091171717608081106132b857607f810383901c91506132c2565b80607f0383901b91505b908002607f81811c60ff83811c9190911c800280831c81831c1c800280841c81841c1c800280851c81851c1c800280861c81861c1c800280871c81871c1c800280881c81881c1c800280891c81891c1c8002808a1c818a1c1c8002808b1c818b1c1c8002808c1c818c1c1c8002808d1c818d1c1c8002808e1c9c81901c9c909c1c80029c8d901c9e9d607f198f0160401b60c09190911c678000000000000000161760c19b909b1c674000000000000000169a909a1760c29990991c672000000000000000169890981760c39790971c671000000000000000169690961760c49590951c670800000000000000169490941760c59390931c670400000000000000169290921760c69190911c670200000000000000161760c79190911c670100000000000000161760c89190911c6680000000000000161760c99190911c6640000000000000161760ca9190911c6620000000000000161760cb9190911c6610000000000000161760cc9190911c6608000000000000161760cd9190911c66040000000000001617693627a301d71055774c8581026f028f6481ab7f045a5af012a19d003aa9198101608090811d906fdb2df09e81959a81455e260799a0632f8301901d600281810b9083900b146134c257886001600160a01b03166134a782612bf6565b6001600160a01b031611156134bc57816134c4565b806134c4565b815b9998505050505050505050565b60006134f7600085126134e457846134f0565b6134f0856000196140fe565b8484611f69565b905060008412156114955761165a81614043565b600281900b60081d60006135216101008461450d565b9050915091565b600080821161353657600080fd5b600160801b821061354957608091821c91015b68010000000000000000821061356157604091821c91015b640100000000821061357557602091821c91015b62010000821061358757601091821c91015b610100821061359857600891821c91015b601082106135a857600491821c91015b600482106135b857600291821c91015b600282106135c4576001015b919050565b60008082116135d757600080fd5b5060ff6001600160801b038216156135f257607f19016135fa565b608082901c91505b67ffffffffffffffff82161561361357603f190161361b565b604082901c91505b63ffffffff82161561363057601f1901613638565b602082901c91505b61ffff82161561364b57600f1901613653565b601082901c91505b60ff821615613665576007190161366d565b600882901c91505b600f82161561367f5760031901613687565b600482901c91505b600382161561369957600119016136a1565b600282901c91505b60018216156135c45760001901919050565b6000836001600160a01b0316856001600160a01b031611156136d3579293925b81613700576136fb836001600160801b03168686036001600160a01b0316600160601b611f69565b611aa4565b611aa4836001600160801b03168686036001600160a01b0316600160601b613872565b6000836001600160a01b0316856001600160a01b03161115613743579293925b600160601b600160e01b03606084901b166001600160a01b03868603811690871661376d57600080fd5b836137a357866001600160a01b03166137908383896001600160a01b0316611f69565b8161379d5761379d61419f565b046137cf565b6137cf6137ba8383896001600160a01b0316613872565b886001600160a01b0316808204910615150190565b979650505050505050565b600080856001600160a01b0316116137f157600080fd5b6000846001600160801b03161161380757600080fd5b81613819576136fb85858560016138b2565b611aa4858585600161399f565b600080856001600160a01b03161161383d57600080fd5b6000846001600160801b03161161385357600080fd5b81613865576136fb858585600061399f565b611aa485858560006138b2565b600061387f848484611f69565b9050600082806138915761389161419f565b84860911156114955760001981106138a857600080fd5b6001019392505050565b6000811561392b5760006001600160a01b038411156138e8576138e384600160601b876001600160801b0316611f69565b613906565b6001600160801b038516606085901b816139045761390461419f565b045b905061392361391e6001600160a01b03881683613a9a565b613aaa565b91505061165a565b60006001600160a01b038411156139595761395484600160601b876001600160801b0316613872565b613976565b613976606085901b6001600160801b038716808204910615150190565b905080866001600160a01b03161161398d57600080fd5b6001600160a01b03861603905061165a565b6000826139ad57508361165a565b600160601b600160e01b03606085901b168215613a4d576001600160a01b038616848102908582816139e1576139e161419f565b041415613a1257818101828110613a1057613a0683896001600160a01b031683613872565b935050505061165a565b505b613a4482613a39878a6001600160a01b03168681613a3257613a3261419f565b0490613a9a565b808204910615150190565b9250505061165a565b6001600160a01b03861684810290858281613a6a57613a6a61419f565b04148015613a7757508082115b613a8057600080fd5b808203613a0661391e846001600160a01b038b1684613872565b808201828110156118ce57600080fd5b806001600160a01b03811681146135c457600080fd5b8015158114613ace57600080fd5b50565b6001600160a01b0381168114613ace57600080fd5b600080600060608486031215613afb57600080fd5b8335613b0681613ac0565b9250602084013591506040840135613b1d81613ad1565b809150509250925092565b600060208284031215613b3a57600080fd5b5035919050565b8060020b8114613ace57600080fd5b60008060408385031215613b6357600080fd5b8235613b6e81613b41565b91506020830135613b7e81613b41565b809150509250929050565b81518152602080830151908201526040808301519082015260608083015190820152608081016118ce565b600060208284031215613bc657600080fd5b813561149581613b41565b600060e08284031215613be357600080fd5b50919050565b62ffffff81168114613ace57600080fd5b600060208284031215613c0c57600080fd5b813561149581613be9565b600080600060608486031215613c2c57600080fd5b833592506020840135613c3e81613ad1565b91506040840135613b1d81613ac0565b60008083601f840112613c6057600080fd5b50813567ffffffffffffffff811115613c7857600080fd5b602083019150836020828501011115613c9057600080fd5b9250929050565b60008060008060608587031215613cad57600080fd5b8435935060208501359250604085013567ffffffffffffffff811115613cd257600080fd5b613cde87828801613c4e565b95989497509550505050565b80600f0b8114613ace57600080fd5b600080600060608486031215613d0e57600080fd5b8335613d1981613b41565b92506020840135613d2981613b41565b91506040840135613b1d81613cea565b8381526020810183905260c0810161165a6040830184805182526020810151602083015260408101516040830152606081015160608301525050565b634e487b7160e01b600052604160045260246000fd5b60006020808385031215613d9e57600080fd5b823567ffffffffffffffff80821115613db657600080fd5b818501915085601f830112613dca57600080fd5b813581811115613ddc57613ddc613d75565b8060051b604051601f19603f83011681018181108582111715613e0157613e01613d75565b604052918252848201925083810185019188831115613e1f57600080fd5b938501935b82851015613e3d57843584529385019392850192613e24565b98975050505050505050565b6020808252825182820181905260009190848201906040850190845b81811015613e8157835183529284019291840191600101613e65565b50909695505050505050565b634e487b7160e01b600052601160045260246000fd5b60006001600160a01b0383811690831681811015613ec357613ec3613e8d565b039392505050565b60006001600160a01b03828116848216808303821115613eed57613eed613e8d565b01949350505050565b60008219821115613f0957613f09613e8d565b500190565b60008060408385031215613f2157600080fd5b505080516020909101519092909150565b634e487b7160e01b600052600160045260246000fd5b805161ffff811681146135c457600080fd5b600080600080600080600060e0888a031215613f7557600080fd5b8751613f8081613ad1565b6020890151909750613f9181613b41565b9550613f9f60408901613f48565b9450613fad60608901613f48565b9350613fbb60808901613f48565b925060a088015160ff81168114613fd157600080fd5b60c0890151909250613fe281613ac0565b8091505092959891949750929550565b60008282101561400457614004613e8d565b500390565b60006020828403121561401b57600080fd5b813561149581613ad1565b60006020828403121561403857600080fd5b815161149581613ad1565b6000600160ff1b82141561405957614059613e8d565b5060000390565b600081600f0b83600f0b60016001607f1b0360008213600084138383048511828216161561409057614090613e8d565b6f7fffffffffffffffffffffffffffffff1960008512828116878305871216156140bc576140bc613e8d565b600087129250858205871284841616156140d8576140d8613e8d565b858505871281841616156140ee576140ee613e8d565b5050509290910295945050505050565b60006001600160ff1b038184138284138082168684048611161561412457614124613e8d565b600160ff1b600087128281168783058912161561414357614143613e8d565b6000871292508782058712848416161561415f5761415f613e8d565b8785058712818416161561417557614175613e8d565b505050929093029392505050565b600062ffffff83811690831681811015613ec357613ec3613e8d565b634e487b7160e01b600052601260045260246000fd5b6000826141c4576141c461419f565b600160ff1b8214600019841416156141de576141de613e8d565b500590565b600080821280156001600160ff1b038490038513161561420557614205613e8d565b600160ff1b839003841281161561421e5761421e613e8d565b50500190565b634e487b7160e01b600052602160045260246000fd5b600081600019048311821515161561425457614254613e8d565b500290565b6000826142685761426861419f565b500490565b600062ffffff808316818516808303821115613eed57613eed613e8d565b60008083128015600160ff1b8501841216156142a9576142a9613e8d565b6001600160ff1b03840183138116156142c4576142c4613e8d565b50500390565b6000602082840312156142dc57600080fd5b815161149581613be9565b6000602082840312156142f957600080fd5b5051919050565b80516001600160801b03811681146135c457600080fd5b6000806040838503121561432a57600080fd5b61433383614300565b915061434160208401614300565b90509250929050565b60006020828403121561435c57600080fd5b61149582614300565b60006020828403121561437757600080fd5b815161149581613b41565b60008160020b627fffff1981141561439c5761439c613e8d565b60000392915050565b600080600080600080600080610100898b0312156143c257600080fd5b6143cb89614300565b975060208901516143db81613cea565b80975050604089015195506060890151945060808901518060060b811461440157600080fd5b60a08a015190945061441281613ad1565b60c08a015190935063ffffffff8116811461442c57600080fd5b60e08a015190925061443d81613ac0565b809150509295985092959890939650565b600081600f0b60016001607f1b031981141561439c5761439c613e8d565b60008160020b8360020b6000811281627fffff190183128115161561449357614493613e8d565b81627fffff0183138116156144aa576144aa613e8d565b5090039392505050565b600065ffffffffffff83811690831681811015613ec357613ec3613e8d565b60008160020b8360020b806144ea576144ea61419f565b627fffff1982146000198214161561450457614504613e8d565b90059392505050565b60008260020b806145205761452061419f565b808360020b0791505092915050565b60008160020b627fffff1981141561454957614549613e8d565b6000190192915050565b60008160020b8360020b627fffff60008213600084138383048511828216161561457f5761457f613e8d565b627fffff1960008512828116878305871216156140bc576140bc613e8d565b600060ff821660ff8416808210156145b8576145b8613e8d565b90039392505050565b60008160020b8360020b6000821282627fffff038213811516156145e7576145e7613e8d565b82627fffff190382128116156145ff576145ff613e8d565b5001939250505056fea164736f6c634300080a000a",
  "userdoc": {
    "kind": "user",
    "methods": {
      "__VPoolWrapper_init((address,address,address,address,uint24,uint24,uint24))": {
        "notice": "PLATFORM FUNCTIONS"
      },
      "getSumAX128()": {
        "notice": "VIEW METHODS"
      },
      "setLiquidityFee(uint24)": {
        "notice": "ADMIN FUNCTIONS"
      },
      "swap(bool,int256,uint160)": {
        "notice": "Swap vToken for vBase, or vBase for vToken"
      },
      "swapToken(int256,uint160,bool)": {
        "notice": "swaps token"
      },
      "uniswapV3SwapCallback(int256,int256,bytes)": {
        "notice": "UNISWAP V3 POOL CALLBACkS"
      }
    },
    "version": 1
  },
  "storageLayout": {
    "storage": [
      {
        "astId": 252,
        "contract": "contracts/protocol/wrapper/VPoolWrapper.sol:VPoolWrapper",
        "label": "_initialized",
        "offset": 0,
        "slot": "0",
        "type": "t_bool"
      },
      {
        "astId": 255,
        "contract": "contracts/protocol/wrapper/VPoolWrapper.sol:VPoolWrapper",
        "label": "_initializing",
        "offset": 1,
        "slot": "0",
        "type": "t_bool"
      },
      {
        "astId": 20278,
        "contract": "contracts/protocol/wrapper/VPoolWrapper.sol:VPoolWrapper",
        "label": "clearingHouse",
        "offset": 2,
        "slot": "0",
        "type": "t_contract(IClearingHouse)7885"
      },
      {
        "astId": 20281,
        "contract": "contracts/protocol/wrapper/VPoolWrapper.sol:VPoolWrapper",
        "label": "vToken",
        "offset": 0,
        "slot": "1",
        "type": "t_contract(IVToken)8121"
      },
      {
        "astId": 20284,
        "contract": "contracts/protocol/wrapper/VPoolWrapper.sol:VPoolWrapper",
        "label": "vBase",
        "offset": 0,
        "slot": "2",
        "type": "t_contract(IVBase)7967"
      },
      {
        "astId": 20287,
        "contract": "contracts/protocol/wrapper/VPoolWrapper.sol:VPoolWrapper",
        "label": "vPool",
        "offset": 0,
        "slot": "3",
        "type": "t_contract(IUniswapV3Pool)5097"
      },
      {
        "astId": 20289,
        "contract": "contracts/protocol/wrapper/VPoolWrapper.sol:VPoolWrapper",
        "label": "uniswapFeePips",
        "offset": 20,
        "slot": "3",
        "type": "t_uint24"
      },
      {
        "astId": 20291,
        "contract": "contracts/protocol/wrapper/VPoolWrapper.sol:VPoolWrapper",
        "label": "liquidityFeePips",
        "offset": 23,
        "slot": "3",
        "type": "t_uint24"
      },
      {
        "astId": 20293,
        "contract": "contracts/protocol/wrapper/VPoolWrapper.sol:VPoolWrapper",
        "label": "protocolFeePips",
        "offset": 26,
        "slot": "3",
        "type": "t_uint24"
      },
      {
        "astId": 20295,
        "contract": "contracts/protocol/wrapper/VPoolWrapper.sol:VPoolWrapper",
        "label": "accruedProtocolFee",
        "offset": 0,
        "slot": "4",
        "type": "t_uint256"
      },
      {
        "astId": 20298,
        "contract": "contracts/protocol/wrapper/VPoolWrapper.sol:VPoolWrapper",
        "label": "fpGlobal",
        "offset": 0,
        "slot": "5",
        "type": "t_struct(Info)9884_storage"
      },
      {
        "astId": 20300,
        "contract": "contracts/protocol/wrapper/VPoolWrapper.sol:VPoolWrapper",
        "label": "sumFeeGlobalX128",
        "offset": 0,
        "slot": "9",
        "type": "t_uint256"
      },
      {
        "astId": 20305,
        "contract": "contracts/protocol/wrapper/VPoolWrapper.sol:VPoolWrapper",
        "label": "ticksExtended",
        "offset": 0,
        "slot": "10",
        "type": "t_mapping(t_int24,t_struct(Info)12938_storage)"
      }
    ],
    "types": {
      "t_bool": {
        "encoding": "inplace",
        "label": "bool",
        "numberOfBytes": "1"
      },
      "t_contract(IClearingHouse)7885": {
        "encoding": "inplace",
        "label": "contract IClearingHouse",
        "numberOfBytes": "20"
      },
      "t_contract(IUniswapV3Pool)5097": {
        "encoding": "inplace",
        "label": "contract IUniswapV3Pool",
        "numberOfBytes": "20"
      },
      "t_contract(IVBase)7967": {
        "encoding": "inplace",
        "label": "contract IVBase",
        "numberOfBytes": "20"
      },
      "t_contract(IVToken)8121": {
        "encoding": "inplace",
        "label": "contract IVToken",
        "numberOfBytes": "20"
      },
      "t_int24": {
        "encoding": "inplace",
        "label": "int24",
        "numberOfBytes": "3"
      },
      "t_int256": {
        "encoding": "inplace",
        "label": "int256",
        "numberOfBytes": "32"
      },
      "t_mapping(t_int24,t_struct(Info)12938_storage)": {
        "encoding": "mapping",
        "key": "t_int24",
        "label": "mapping(int24 => struct Tick.Info)",
        "numberOfBytes": "32",
        "value": "t_struct(Info)12938_storage"
      },
      "t_struct(Info)12938_storage": {
        "encoding": "inplace",
        "label": "struct Tick.Info",
        "members": [
          {
            "astId": 12931,
            "contract": "contracts/protocol/wrapper/VPoolWrapper.sol:VPoolWrapper",
            "label": "sumALastX128",
            "offset": 0,
            "slot": "0",
            "type": "t_int256"
          },
          {
            "astId": 12933,
            "contract": "contracts/protocol/wrapper/VPoolWrapper.sol:VPoolWrapper",
            "label": "sumBOutsideX128",
            "offset": 0,
            "slot": "1",
            "type": "t_int256"
          },
          {
            "astId": 12935,
            "contract": "contracts/protocol/wrapper/VPoolWrapper.sol:VPoolWrapper",
            "label": "sumFpOutsideX128",
            "offset": 0,
            "slot": "2",
            "type": "t_int256"
          },
          {
            "astId": 12937,
            "contract": "contracts/protocol/wrapper/VPoolWrapper.sol:VPoolWrapper",
            "label": "sumFeeOutsideX128",
            "offset": 0,
            "slot": "3",
            "type": "t_uint256"
          }
        ],
        "numberOfBytes": "128"
      },
      "t_struct(Info)9884_storage": {
        "encoding": "inplace",
        "label": "struct FundingPayment.Info",
        "members": [
          {
            "astId": 9877,
            "contract": "contracts/protocol/wrapper/VPoolWrapper.sol:VPoolWrapper",
            "label": "sumAX128",
            "offset": 0,
            "slot": "0",
            "type": "t_int256"
          },
          {
            "astId": 9879,
            "contract": "contracts/protocol/wrapper/VPoolWrapper.sol:VPoolWrapper",
            "label": "sumBX128",
            "offset": 0,
            "slot": "1",
            "type": "t_int256"
          },
          {
            "astId": 9881,
            "contract": "contracts/protocol/wrapper/VPoolWrapper.sol:VPoolWrapper",
            "label": "sumFpX128",
            "offset": 0,
            "slot": "2",
            "type": "t_int256"
          },
          {
            "astId": 9883,
            "contract": "contracts/protocol/wrapper/VPoolWrapper.sol:VPoolWrapper",
            "label": "timestampLast",
            "offset": 0,
            "slot": "3",
            "type": "t_uint48"
          }
        ],
        "numberOfBytes": "128"
      },
      "t_uint24": {
        "encoding": "inplace",
        "label": "uint24",
        "numberOfBytes": "3"
      },
      "t_uint256": {
        "encoding": "inplace",
        "label": "uint256",
        "numberOfBytes": "32"
      },
      "t_uint48": {
        "encoding": "inplace",
        "label": "uint48",
        "numberOfBytes": "6"
      }
    }
  }
}