{
  "address": "0x04b7A474fD142D19604De4B834D337cc94bDbb86",
  "abi": [
    {
      "inputs": [
        {
          "internalType": "address",
          "name": "_aggregator",
          "type": "address"
        },
        {
          "internalType": "address",
          "name": "_flags",
          "type": "address"
        },
        {
          "internalType": "uint8",
          "name": "_vTokenDecimals",
          "type": "uint8"
        },
        {
          "internalType": "uint8",
          "name": "_vQuoteDecimals",
          "type": "uint8"
        }
      ],
      "stateMutability": "nonpayable",
      "type": "constructor"
    },
    {
      "inputs": [
        {
          "internalType": "address",
          "name": "aggregator",
          "type": "address"
        }
      ],
      "name": "IllegalAggregatorAddress",
      "type": "error"
    },
    {
      "inputs": [],
      "name": "NotEnoughHistory",
      "type": "error"
    },
    {
      "inputs": [],
      "name": "SequencerOffline",
      "type": "error"
    },
    {
      "inputs": [],
      "name": "aggregator",
      "outputs": [
        {
          "internalType": "contract AggregatorV3Interface",
          "name": "",
          "type": "address"
        }
      ],
      "stateMutability": "view",
      "type": "function"
    },
    {
      "inputs": [],
      "name": "chainlinkFlags",
      "outputs": [
        {
          "internalType": "contract FlagsInterface",
          "name": "",
          "type": "address"
        }
      ],
      "stateMutability": "view",
      "type": "function"
    },
    {
      "inputs": [
        {
          "internalType": "uint32",
          "name": "twapDuration",
          "type": "uint32"
        }
      ],
      "name": "getTwapPriceX128",
      "outputs": [
        {
          "internalType": "uint256",
          "name": "priceX128",
          "type": "uint256"
        }
      ],
      "stateMutability": "view",
      "type": "function"
    }
  ],
  "transactionHash": "0x754a7eb9b6a4e1149fa10017f20227ec5e6133342eae7fd4659eeec7e6fbd1b3",
  "args": [
    "0x639Fe6ab55C921f74e7fac1ee960C0B6293ba612",
    "0x3C14e07Edd0dC67442FA96f1Ec6999c57E810a83",
    18,
    6
  ],
  "numDeployments": 1,
  "solcInputHash": "e57f996027e70c38f3149e5d14eb0907",
  "bytecode": "0x60c03461009657601f610b6d38819003918201601f19168301916001600160401b0383118484101761009b57808492608094604052833981010312610096578061004b610076926100b1565b90610058602082016100b1565b6100706060610069604085016100c5565b93016100c5565b926100d3565b604051610a4a9081610123823960805181610143015260a0518160880152f35b600080fd5b634e487b7160e01b600052604160045260246000fd5b51906001600160a01b038216820361009657565b519060ff8216820361009657565b6001600160a01b039081169182156101095760018060a01b0319928360005416176000551690600154161760015560805260a052565b60405163091b998160e11b815260006004820152602490fdfe608080604052600436101561001357600080fd5b6000803560e01c918263245a7bfc146101d957508163dd86c1011461004b575063e4440e0214610043575b600080fd5b61003e610207565b346101d65760206003193601126101d65760043563ffffffff81168091036101d2576101869161007d61017692610486565b61016c6101676100ac7f000000000000000000000000000000000000000000000000000000000000000061026c565b936fffffffffffffffffffffffffffffffff85116001166101c5575b600460206101066100ed845473ffffffffffffffffffffffffffffffffffffffff1690565b73ffffffffffffffffffffffffffffffffffffffff1690565b604051928380927f313ce5670000000000000000000000000000000000000000000000000000000082525afa9182156101b8575b9161018a575b507f0000000000000000000000000000000000000000000000000000000000000000610340565b61026c565b9160801b90610369565b6040519081529081906020820190565b0390f35b6101ab915060203d81116101b1575b6101a381836102aa565b81019061031a565b87610140565b503d610199565b6101c0610333565b61013a565b6101cd61023c565b6100c8565b5080fd5b80fd5b346101d257816003193601126101d25773ffffffffffffffffffffffffffffffffffffffff60209254168152f35b503461003e57600060031936011261003e57602073ffffffffffffffffffffffffffffffffffffffff60015416604051908152f35b507f4e487b7100000000000000000000000000000000000000000000000000000000600052601160045260246000fd5b60ff16604d811161027e575b600a0a90565b61028661023c565b610278565b806000190482118115151661029e570290565b6102a661023c565b0290565b90601f7fffffffffffffffffffffffffffffffffffffffffffffffffffffffffffffffe0910116810190811067ffffffffffffffff8211176102eb57604052565b7f4e487b7100000000000000000000000000000000000000000000000000000000600052604160045260246000fd5b9081602091031261003e575160ff8116810361003e5790565b506040513d6000823e3d90fd5b60ff8091169116908160ff038111610356570190565b61035e61023c565b0190565b1561003e57565b909160001983830992808302928380861095039480860395146103e357908291610394868411610362565b0981806000031680920460028082600302188083028203028083028203028083028203028083028203028083028203028092029003029360018380600003040190848311900302920304170290565b505091506103f2821515610362565b0490565b818110610401570390565b61040961023c565b0390565b9081602091031261003e5751801515810361003e5790565b811561042f570490565b7f4e487b7100000000000000000000000000000000000000000000000000000000600052601260045260246000fd5b69ffffffffffffffffffff600019911660018110610356570190565b81198111610356570190565b6001906104aa6100ed835473ffffffffffffffffffffffffffffffffffffffff1690565b73ffffffffffffffffffffffffffffffffffffffff811661060c575b506104cf61072a565b919290938342906104e084836103f6565b93159081156105f7575b5080156105ed575b6105e5576105048483929695966103f6565b9361050f858861028b565b95915b610537575b5050505090801560001461052a57505090565b6105349250610425565b90565b69ffffffffffffffffffff8116156105d2576105529061045e565b9061055c82610841565b9791509182156105ca578588111561059f57610596929161058a6105838a610590946103f6565b809461028b565b9061047a565b9561047a565b93949082610512565b6105c19697506105bb94506105839193509461058a92956103f6565b9261047a565b38808080610517565b509550610517565b5050505090811560001461052a57505090565b505050505090565b50828411156104f2565b69ffffffffffffffffffff91501615386104ea565b602060405180927f357e47fe000000000000000000000000000000000000000000000000000000008252818061065d600482019073a438451d6458044c3c8cd2f6f31c91ac882a6d91602083019252565b03915afa9081156106d4575b6000916106a6575b5061067c57386104c6565b60046040517fdb502a67000000000000000000000000000000000000000000000000000000008152fd5b6106c7915060203d81116106cd575b6106bf81836102aa565b81019061040d565b38610671565b503d6106b5565b6106dc610333565b610669565b519069ffffffffffffffffffff8216820361003e57565b908160a091031261003e5761070c816106e1565b916020820151916040810151916105346080606084015193016106e1565b600460a073ffffffffffffffffffffffffffffffffffffffff60005416604051928380927ffeaf968c0000000000000000000000000000000000000000000000000000000082525afa8015610834575b600091829083926107ff575b508291906000811280806107eb575b6107c157156107b9575050506107ad6107b29161045e565b610841565b9290919290565b919391925090565b60046040517f9ee522a9000000000000000000000000000000000000000000000000000000008152fd5b5069ffffffffffffffffffff851615610795565b915050610823915060a03d811161082d575b61081b81836102aa565b8101906106f8565b5091905038610786565b503d610811565b61083c610333565b61077a565b61084a9061095d565b509290509091906000926108756100ed855473ffffffffffffffffffffffffffffffffffffffff1690565b925b84821280610948575b1561091e5750506108909061045e565b6040517f9a6fc8f500000000000000000000000000000000000000000000000000000000815269ffffffffffffffffffff8216600482015260a0908181602481875afa908115610911575b859286926108eb575b5050610877565b610905935080919250903d1061082d5761081b81836102aa565b509250509038806108e4565b610919610333565b6108db565b9390949250841280610934575b6107c157929190565b5069ffffffffffffffffffff81161561092b565b5069ffffffffffffffffffff83161515610880565b60009060a069ffffffffffffffffffff602473ffffffffffffffffffffffffffffffffffffffff8554169360405194859384927f9a6fc8f50000000000000000000000000000000000000000000000000000000084521660048301525afa82918291829182918291816109e9575b506109de57505050505080918180918190565b959394509192909190565b935094505050610a07915060a03d811161082d5761081b81836102aa565b92949193909291386109cb56fea2646970667358221220038174ac85da7be6c8f8293f2ff71b601f8f49303ed5bd9751239916b3a0976d64736f6c634300080e0033",
  "userdoc": {
    "kind": "user",
    "methods": {},
    "version": 1
  },
  "storageLayout": {
    "storage": [
      {
        "astId": 23700,
        "contract": "contracts/oracles/ChainlinkOracle.sol:ChainlinkOracle",
        "label": "aggregator",
        "offset": 0,
        "slot": "0",
        "type": "t_contract(AggregatorV3Interface)45"
      },
      {
        "astId": 23703,
        "contract": "contracts/oracles/ChainlinkOracle.sol:ChainlinkOracle",
        "label": "chainlinkFlags",
        "offset": 0,
        "slot": "1",
        "type": "t_contract(FlagsInterface)86"
      }
    ],
    "types": {
      "t_contract(AggregatorV3Interface)45": {
        "encoding": "inplace",
        "label": "contract AggregatorV3Interface",
        "numberOfBytes": "20"
      },
      "t_contract(FlagsInterface)86": {
        "encoding": "inplace",
        "label": "contract FlagsInterface",
        "numberOfBytes": "20"
      }
    }
  }
}